:100000000C943C7A1895189518951895189518958C
:100010001895189518951895189518951895189578
:1000200018951895189518950C94C430189518952E
:1000300018951895189518950C94C26418951895EC
:100040000C94C126189518950C941F260C948B2699
:100050001895189518951895189518951895189538
:100060001895189518951895189518951895189528
:1000700018951895189518950C9427280C947E2897
:1000800018951895189518951895189500C18140E0
:1000900001C0804101C0804100C1814001C0804158
:1000A00000C1814000C1814001C0804101C0804148
:1000B00000C1814000C1814001C0804100C1814038
:1000C00001C0804101C0804100C1814001C0804128
:1000D00000C1814000C1814001C0804100C1814018
:1000E00001C0804101C0804100C1814000C1814008
:1000F00001C0804101C0804100C1814001C08041F8
:1001000000C1814000C1814001C0804101C08041E7
:1001100000C1814000C1814001C0804100C18140D7
:1001200001C0804101C0804100C1814000C18140C7
:1001300001C0804101C0804100C1814001C08041B7
:1001400000C1814000C1814001C0804100C18140A7
:1001500001C0804101C0804100C1814001C0804197
:1001600000C1814000C1814001C0804101C0804187
:1001700000C1814000C1814001C0804100C1814077
:1001800001C0804101C0804100C1814000C0C10167
:10019000C30302C2C60607C705C5C404CC0C0DCDF7
:1001A0000FCFCE0E0ACACB0BC90908C8D81819D967
:1001B0001BDBDA1A1EDEDF1FDD1D1CDC14D4D51597
:1001C000D71716D6D21213D311D1D010F03031F187
:1001D00033F3F23236F6F737F53534F43CFCFD3DB7
:1001E000FF3F3EFEFA3A3BFB39F9F83828E8E929A7
:1001F000EB2B2AEAEE2E2FEF2DEDEC2CE42425E557
:1002000027E7E62622E2E323E12120E0A06061A1C6
:1002100063A3A26266A6A767A56564A46CACAD6D76
:10022000AF6F6EAEAA6A6BAB69A9A86878B8B979E6
:10023000BB7B7ABABE7E7FBF7DBDBC7CB47475B516
:1002400077B7B67672B2B373B17170B05090915106
:100250009353529296565797559594549C5C5D9D36
:100260005F9F9E5E5A9A9B5B995958988848498926
:100270004B8B8A4A4E8E8F4F8D4D4C8C44848545D6
:10028000874746868242438341818040380C018003
:10029000020041A042A1E045A3A4A5A64BA74D485A
:1002A0004FA8504354A9AA58E1ABACE2ADAE62AF3F
:1002B000B0B161B2B3B4E365B6B7B8B9BABBBCBD4F
:1002C0006FBE7063BF79E478E5C0C1E6C2C3C4C540
:1002D000C6C7EEF8E8E12EC0CA2000E0E2F2EE2E3A
:1002E000C0CA2000E0E2F2EE2EC0CA2000F3F1EA1C
:1002F0002EC0CA202000E2FBEAEB2EC0CA2000EF8D
:10030000F0EEE22EC0CA2000E8F1EFFBF22EC0CAE8
:1003100000EFF3F1EA20C0CA2000EDEEF0EC2EC0B1
:10032000CA2000E1E5E3EB2EC0CA2000D202DB02C6
:10033000E402ED02F602FF02080311031A0323038D
:10034000EEF8E8E12E00E0E2F2EE2000E0E2F2EE6C
:100350002000F3F1EA2E2000E2FBEAEB2E00EFF0A2
:10036000EEE22E00E8F1EFFBF200EFF3F1EA2000FD
:10037000EDEEF0EC2E00E1E5E3EB2E00400346034A
:100380004C03520358035E0364036A03700376034D
:10039000C0CA2D00CDE5F220F1E2FFE7E820F12010
:1003A000C1D1CF2020202020002020C8EDE8F6E891
:1003B000E0EBE8E7E0F6E8FF202020202000312EE7
:1003C000C6F3F0EDE0EB2E00322EC4E0F2E02FE2B7
:1003D000F0E5ECFF2E00332ED3EFF0E0E2EBE5ED9D
:1003E000E8E52E00342ED3F1F2E0EDEEE2E8F2FC87
:1003F0002E00352ECFF0EEF1ECEEF2F020EFE0F033
:10040000E0EC2E00362ECFF0EEF2EEEAEEEB2E0010
:10041000BE03C803D603E403F2030404312E20C450
:10042000E0F2E02E2020202020202020202020206C
:1004300000322E20C2F0E5ECFF2E202020202020CC
:10044000202020202000C6F3F0EDE0EB2000F1EEAC
:10045000E1FBF2E8E900E7E0F9E8F2FB00EFF0E8A1
:10046000E5ECEDE8EAE000EFE5F0E5E4E0F2F7E8DE
:10047000EAE0004E0467045D045604D7F2E5EDE8B7
:10048000E520E0F0F5E8E2E02E00CFCC00CFC4009C
:10049000D1C100C7D90090048D048A049304CEC151
:1004A000D900CFE5F0E5E72E00CFE5F0E5E7E0EF96
:1004B0002000CDE0F7E0EBEE2000CAEEEDE5F620FF
:1004C00000EAEEECE0EDE4FB00312ED0E5E6E8ECEE
:1004D0002E00322ECFE0F0E0ECE5F2F0FB2E003300
:1004E0002ECFE0F0EEEBFC2E00342ED2E5F1F22E12
:1004F00000C904D204DF04E904C7E0F9E8F2E02E01
:1005000000CFF0E8E5ECEDE8EA2E00CFE5F0E5E419
:10051000E0F2F7E8EA2E00CEE1F9E8E52E00CFF0B0
:10052000E8E5ECEDE8EA20312E00CFF0E8E5ECED6F
:10053000E8EA20322E00D2E8EF20C7E0F9E8F2FB2B
:1005400000D2E8EF20CBE8EDE8E800C4EEEF2E2083
:10055000E2F0E5ECFF20E1E5E720ECE0ED2E00C75E
:10056000E0E4E5F0E6EAE020EDE020EBE8EDE8E8A5
:1005700020202000CFE5F0E5EAF0FBF2E8E520E8F6
:10058000ECEFF3EBFCF1EEE200C7E0E3F020F7F371
:10059000E2F1F2E2E8F220EFEE2020D0C700D1ED48
:1005A000E8E6E5EDE8E520F3F0EEE2EDFF20C0CA75
:1005B000202000D7E0F1F2EEF2E020CFD0C400D747
:1005C000E0F1F2EEF2E020CFD0CC00360541054B51
:1005D000055F05740589059E05B305BF05C7E0E401
:1005E000E5F0E6EAE020EDE020E2EAEB2E20202034
:1005F0002000C4EBE8F2E5EBFCEDEEF1F2FC20EAC2
:10060000EEECE0EDE4FB00C7E0E4E5F0E6EAE02034
:10061000EDE020E2FBEAEB2E2020EA00C1EBEEEA5F
:100620002E20EAEEECE0EDE420203F2E2E3F2020AD
:1006300000C4EBE8F22E20EAEEECE0EDE4FB202033
:100640003F2E2E3F2000DD05F20507061C06310671
:10065000C2F0E5ECFF20EDE020EFEEE2F22E20EA22
:10066000EEEC2E00C1EBEEEA2E20EAEEECE0EDE43B
:1006700020203F2E2E3F202000C4EBE8F22E20EA5F
:10068000EEECE0EDE4FB20203F2E2E3F2000DD05C8
:10069000F205500664067906D1EEE2ECE5F1F2E8E7
:1006A000ECEEF1F2FC0043E8EDF5F0EEEDE8E7E00A
:1006B000F6E8FF20F7E0F1EEE20055E2FBF520ED71
:1006C000EEECE8EDE0EBFCEDEEE500D3E4E5F0E682
:1006D000E0EDE8E520F0E5EBE520CFD0C400D1E582
:1006E000F2E5E2EEE920E0E4F0E5F100C2F0E5EC4D
:1006F000FF20EFE5F0E5E7E0EFF3F1EAE000D7E017
:10070000F1F2EEF2E000CDEEECE5F020E0EFEFE00C
:10071000F0E0F2E000CAEEEDF2F0EEEBFC20E2FBDE
:10072000F52EF1E8E3EDE0EBE000CFEEF0EEE320B4
:10073000CFD0C5C4D3CFD020EFEE20CAD72000C77A
:10074000E0E3F020F7F3E2F1F2E2E8F220EFEE204E
:1007500020CAD700CAEEF0F0E5EAF6E8FF20EDE0A7
:10076000EFF0FFE6E5EDE8FF00CAEEF0F0E5EAF6AF
:10077000E8FF20F2EEEAE000CFEEF0EEE320CFD08B
:10078000C5C4D3CFD020EFEE20D0C72000CFF0EEED
:10079000F2EEEAEEEB20EEE1ECE5EDE000CFF0E882
:1007A000E7EDE0EA20F7E5F2EDEEF1F2E800C4EE65
:1007B000EFF3F1F2E8ECFBE520EFF0EEE2E0EBFB2B
:1007C00000CFEEF0EEE320EFEE20EFEEECE5F5E506
:1007D00000C4EEEFF3F1F2E8ECE0FF20EFEEECE521
:1007E000F5E000D2E8EF20E0E2F2EEEAEEEDF2F022
:1007F000EEEBFF00D0E5E7E5F0E2E8F0EEE2E0ED59
:10080000E8E5009806A606BA06CB06DE06EC06FE6C
:1008100006060715072A073F07540769078D079D36
:1008200007AE07C107D107E307F4077807C0C2C0C6
:10083000CDD220D034303000CFC2C72D393000C0E7
:10084000C2C7CA2D383000CFC2C7D32DC500EEF8BD
:10085000E8E1EAE0002D0838083F0847084E08C7DD
:10086000C0D900CFD0CC00CFCC3100CFCC3200CF1C
:10087000D0C400C2FBE2E5E42000C3EEF2EEE220C9
:1008800000C2E2E5E4E5ED00D0E5F7FC202000D26F
:10089000E5F1F2203100D2E5F1F2203200D2E5F1AB
:1008A000F220330073087A08810888088F089608B8
:1008B0009D083F3F3F3F00202020C7E0EFF3F1EAD3
:1008C00020F2E5F1F2E02020202020002020CFEED1
:1008D000E4EEE6E4E8F2E5203F20F1E5EA2020201E
:1008E00000CFF0EEF2EEEAEEEB00D1F2E0EDE4E064
:1008F000F0F2004D6F6442757300EA08F308C7C058
:10090000D93A00CFD0CC3A00CFCC313A00CFCC325C
:100910003A00CFD0C43A003F3F3F3F202020200084
:10092000CDE5E8F1EFF0202000CFF0E5E4F3EFF0C3
:100930002000C2FBE2E5E4E5ED2000C3EEF2EEE2CA
:1009400020202000C2E2E5E4E5ED202000D0E5F71C
:10095000FC2020202000D2E5F1F23120202000D21E
:10096000E5F1F23220202000D2E5F1F23320202000
:100970000032093B0944094D0956095F093209440F
:1009800009320956095F0968093209440956095FA5
:10099000096809C8F1F5EEE4ED2E2000CAEEEDF28B
:1009A000F0EEEBFC00CFF3F1EA2020202000D0E0B5
:1009B000E1EEF2E0202000CDE5E8F1EFF02E20009E
:1009C000CF2EEDE5E8F1EFF000CEE6E8E4E0EDE86B
:1009D000E5003F307830373F202000D3E42EEFF39E
:1009E000F1EA2000CDE5F220D0C7202000D0E5F7C5
:1009F000FC202020200093099C09A509AE09B70915
:100A0000C009C909D209DB09E409ED09C8F1F5EE0D
:100A1000E4ED2E2000CFD0CC20CAD7202000CFD0AC
:100A2000CC20CFC0202000CDE5F220CAD720200066
:100A3000CDE5E8F1EFF02E2000CF2EEDE5E8F1EF67
:100A4000F000CEE6E8E4E0EDE8E500C1CBCA20CA5C
:100A5000CC2020003F307830383F2020003F3078D5
:100A600030393F2020003F307830413F2020000CBB
:100A70000A150A1E0A270A300A390A420A4B0A5482
:100A80000A5D0A660AC8F1F5EEE4ED2E2000CFD02B
:100A9000C420CAD7202000CFD0C420CFC02020003F
:100AA000CDE5F220CAD7202000CDE5E8F1EFF02E09
:100AB0002000CF2EEDE5E8F1EFF000CEE6E8E4E02F
:100AC000EDE8E5003F307830373F2020003F3078B8
:100AD00030383F202000D1E8F1F2E5EC2E20003F35
:100AE000307830413F202000850A8E0A970AA00AFC
:100AF000A90AB20ABB0AC40ACD0AD60ADF0A672DC0
:100B0000006C2D00C2E2EEE43A00CFE0F0EEEBFC28
:100B10003A00CDEEE2FBE920EFE0F0EEEBFC3A002C
:100B2000C7EDE0F7E5EDE8E53A2000C4D4C72DCFE6
:100B3000F0CFE4202000C4D4C72DCFF0ECCCCA31D4
:100B400000C4D4C72DCFF0ECCCCA3200C4D4C72D1A
:100B50004C363020202000CDC72DCFF0CFE4202010
:100B60002000CDC72DCFF0EC2DCCCA2000CFCFC7B1
:100B70002DCFF0CFE4202000CFCFC72DCFF0EC2D2C
:100B8000CCCA00EEF8E8E1EAE020202020002B0BA0
:100B9000360B410B4C0B570B620B6D0B780B830B19
:100BA000E2FBEAEB2E00E2EAEB2E003F3F3F3F0084
:100BB000A00BA60BAB0B3F3F3F3F00E1FBF1F2F078
:100BC000FBE900ECE5E4EBE5EDEDFBE900B60BBB82
:100BD0000BC30BB60B3F3F3F3F00E2EAEB2E00E2B8
:100BE000FBEAEB2E00D50BDA0BDF0BD50B3F3F3FBB
:100BF00020E3F0E0E4003F3F3F20F1E5EA003F3F23
:100C000020E3F0E0E4003F3F3F3F00F2F0E5E2EE9A
:100C1000E6EDFBE900EDEEF0ECE0EBFCEDFBE900CE
:100C2000F1EFEEEAEEE9EDFBE900060C0B0C150C1A
:100C3000200C060C2D35303020C3F6002D32353017
:100C400020C3F6002B3020C3F6002B32353020C3F2
:100C5000F6002B35303020C3F600EEF8E8E1EAE08C
:100C600000340C3C0C440C4A0C520C5A0CC4E8E006
:100C7000EFE0E7EEED3A2000EDE5F220E4E0EDED07
:100C8000FBF500F1EFE8F1EEEA00000007000100DB
:100C900002000300010000006300010000001200D8
:100CA00001001200360001000000160001000000E3
:100CB0000100010000000400010000000400010028
:100CC00001000900010000000A00010001003200DB
:100CD0000A00000064000A000000FF00010000009C
:100CE000FF00010000000A000100010032000A00BC
:100CF000010032000A000000FF0001000000FF00B8
:100D000001000000030001000000010001001200CA
:100D1000320001000000020001000000FF0001009D
:100D20000000050001001A00E603010001000300B5
:100D30000100000001000100000016000100000099
:100D4000160001000000E70301000000E7030100B6
:100D50000100020001000100020001000000B400D7
:100D600001000000FF00010012005A000100010014
:100D700003000100000001000100302E302E2E394A
:100D8000392E3900CFF0EEF8E8E2EAE020502D5598
:100D90005350202000CFF0EEF8E8E2EAE020415482
:100DA0002D5553502000CFF0EEF8E8E2EAE0204461
:100DB00053502D55535000C4EEEFEEEBED2E20EFC7
:100DC000E0F0E0ECE5F2F0FB00C2E8E420EFE0F058
:100DD000E0ECE5F2F0E000840D950DA60DB70DC92D
:100DE0000DC5F1F2FC00CDE5F200E60DE10DF1F2EA
:100DF000E0EDE4E0F0F20048455800F70DEE0D2E6E
:100E0000D1E1F0EEF120F1E2EEE5E3EE2E2020203C
:100E10002020002ED1E1F0EEF120F3E4E0EBE5ED4F
:100E2000EDEEE3EE2E20002ED1E1F0EEF120F3E422
:100E3000E0EBE5EDEDEEE3EE2031002ED1E1F0EE5A
:100E4000F120F3E4E0EBE5EDEDEEE3EE2032002EF1
:100E5000CFF3F1EA20F3E4E0EBE5EDEDEEE3EE2E87
:100E60002020002ECFF3F1EA20F3E4E0EBE5EDEDF6
:100E7000EEE3EE203120002ECFF3F1EA20F3E4E0A0
:100E8000EBE5EDEDEEE3EE203220002ECFF3F1EABC
:100E900020F3E4E0EBE5EDEDFBF520312C32002E04
:100EA000C0CA20E0E2F2EEECE0F2E8F7E5F1EAE8B1
:100EB000E920002EC0CA20F3F1EAEEF0E5EDEDFBEB
:100EC000E92020202020002EC0CA20E2FBEAEBFE11
:100ED000F7E5ED20202020202020002EC0CA20EAA7
:100EE000EEEDF2F02EEFF0EEE2E5F0EAE020002E7B
:100EF000C0CA20E8F1EFFBF2E0EDE8FF202020205F
:100F00002020002EC0CA20EFF3F1EA20202020206C
:100F1000202020202020002EC2FBE7EEE22020200F
:100F200020202020202020202020002EC0CA20EDBC
:100F3000EEF0ECE0EBFCEDFBE92020202020002E81
:100F4000C0CA20E1E5E3EBFBE9202020202020209F
:100F50002020002ECFF3F1EA20F3E4E0EBE5ED2EC4
:100F600020CCC0CD2000FF0D130E270E3B0E4F0EE0
:100F7000630E770E8B0E9F0EB30EC70EDB0EEF0EB9
:100F8000030F170F2B0F3F0F530FD1E1F0EEF100BE
:100F9000CFF3F1EA00C2E2EEE400C2FBE7EEE200CA
:100FA0008A0F900F950F9A0F2020202020457272F3
:100FB0006F7220202020202000CDE5E8F1EFF02EF8
:100FC000F7F22E20464C41534800CDE5E8F1EFF012
:100FD0002EE7E0EF2E464C41534800CDE5E8F1EF17
:100FE000F02EF7F22E20504C49532000CDE5E8F1C9
:100FF000EFF02EE7E0EF2E504C49532000CDE5E80E
:10100000F1EFF02EE7E0EF2E3252414D2000CDE51A
:10101000F220F1E8E3EDE0EBE020CFD0CC2000C0FF
:10102000CA2DD1EDE8E6E5ED2EE7E0EFE0F1E000D6
:10103000CFEEECE5F5E020E220EBE8EDE8E820205B
:1010400000CDE5E8F1EFF02E445350203252414DEF
:101050002000CDE5E8F1EFF02EF7F22E20325241DC
:101060004D2000CDE8E7EAEEE520EDE0EFF02EE2DE
:10107000FBF52E00C2FBF1EEEAEEE520EDE0EFF02D
:101080002EE2FBF500CDE5E8F1EFF02E20CCCA20F2
:10109000D3CC20202000B90FCA0FDB0FEC0FFD0FBF
:1010A0000E101F10301041105210A80F6310741052
:1010B0008510A80FA80FC0CA2DCDE5F220EEF2E2F0
:1010C000E5F2E020202000D3F1F2E0EDEEE2E8F2DC
:1010D000E520F7E0F1FB2000CDE5F220E1EBEEEAC0
:1010E000E020C1D1C720202000CDE5E8F1EFF02EAF
:1010F000E2E5F0F12EC1D1C72000CDE5E8F1EFF037
:101100002EEFE5F0E5EAEB2E202000CDE5E8F1EF4B
:10111000F02EE7E0EF2E20C1D1C72000CDE5F22070
:10112000F1E8E3EDE0EBE020CFD0CC2000CDE8E724
:10113000EAE8E920F3F02E20D0C720202000CDE5FA
:10114000E8F1EFF02EF3E4E0EB2EC4D4C72000CD9D
:10115000E5E8F1EFF02EF3E4E0EB2EC2DBD52E0054
:10116000CDE5E8F1EFF02EE2F5EEE42ECFD3D1CAD3
:1011700000CDE5E8F1EFF02EE2F5EEE42ED1D2CE8F
:10118000CF00D3E42ECFCED1D220E1E5E720EEF29E
:10119000E22E00CDE5E8F1EFF02EF6E5EFFC2EC2F1
:1011A000DBD52000D3E42ECFCED1D220EEE1ED2E40
:1011B000EFEEEC2E00CDE5E8F1EFF02EE7E0EF2EBC
:1011C00020C2DBD52000C4EBE8F2E5EBFCED2E20DD
:1011D000EFEEECE5F5E000CDE5E8F1EFF02E20C410
:1011E000D4C7202020202000D810E910FA100B11BD
:1011F0001C112D113E114F116011711182119311AB
:10120000A411B511C611D711C0CA2DD1EDE8E6E57C
:10121000ED2EE7E0EFE0F1E000CDE5F220F1E8E3CC
:10122000EDE0EBE020CCC0CD2000CFEEF0EEE320EF
:10123000EFEE20EFEEECE5F5E52000CDE5F220E164
:10124000EBEEEAE020C1D1CA20202000CDE5E8F194
:10125000EFF02EE2E5F0F12EC1D1CA2000CFF0E58B
:10126000E22EE4EB2DF1F2E82EEAEEEC2E00CDE5D5
:10127000E8F1EFF02EE7E0EF2E20C1D1CA2000CD3B
:10128000E5E8F1EFF02EE2FBEAEB2ECAD1CA20002E
:10129000CDE5E8F1EFF02EE2EAEB2E20CAD1CA202C
:1012A00000CDE5E8F1EFF02EEAEEEDF2F02ECAD136
:1012B000CA00CFF0E5E4F3EFF02EEDE5F220CAD757
:1012C000312000CFF0E8E5EC20E1EBEEEA2E20CA79
:1012D000EEEC2E003B124C12A80F5D12A80FA80FC7
:1012E000A80FA80F6E127F129012A112B212A80FAF
:1012F000A80FC312D1EDE8E62E20F3F0EEE2EDFFE9
:1013000020CFD0CC00CDE5F220E1EBEEEAE020C129
:10131000D1CA20202000CDE5E8F1EFF02EE2E5F083
:10132000F12EC1D1CA2000CDE5E8F1EFF02EE2FBAD
:10133000EAEB2ED2E5F1F200CDE5E8F1EFF02EE296
:10134000EAEB2E20D2E5F1F200CDE5E8F1EFF02E48
:10135000E2F5EEE42ECAD1CA200005131613A80F39
:10136000A80FA80FA80FA80FA80FA80F27133813AE
:101370004913A80FA80FA80FA80FC3F0313A00C354
:10138000F0323A0031C3F0313A0032C3F0313A0062
:1013900031C3F0323A0032C3F0323A00C3F0F3EF17
:1013A000EFE0203100C3F0F3EFEFE02032009C13B8
:1013B000A513E2FBEAEB00CAD73100CAD73200EE30
:1013C000F8E8E100B213B713BB13BF13E2FBEAEB7B
:1013D00000D0C700EEF8E8E100CC13D113D413D24B
:1013E000E5F1F2203100D2E5F1F2203200DF13E620
:1013F00013CD2EF7F22E464C41534800CD2EE7EF89
:101400002E464C41534800CD2EF7F22E504C4953F6
:101410002000CD2EE7EF2E504C49532000CD2EE773
:10142000EF2E3252414D2000CD2EF7F22E32524196
:101430004D2000CD2EF0E0E12E4453502000C2EEAE
:10144000F1F22EF02E44535000CDE8E7EA2E20555D
:10145000E2FBF500C2FBF12E2055E2FBF52000CDAA
:101460002EF1E22E20F120D3CC00CD2E20F7E0F19A
:10147000EEE2202000CDE5F220E1EB2EC1D1C70045
:10148000CD2EE2E5F0F12EC1D1C700CD2EEFE5F073
:101490002E20C1D1C700CDE5F220F12E20CCC0CD49
:1014A00000CFE5F0E5E7E0EFF3F1EA00C8E7EC2E66
:1014B000F0E5E6E8ECE000CEF82EE7E0EFE8F1E852
:1014C0002000CEF82EEAEEEDF2F02E2000D1EDE86D
:1014D000E62EF32ECFD0CC00CDE5F220F12E20CF9A
:1014E000D0CC00CDE5F220F12ECFD3D1CA00EDE56E
:1014F000F220F12ED1D2CECF00C2FBEAEBFEF7E50F
:10150000EDE8E5005F00D1E2FFE7FC20F120CFCA63
:10151000002E00303030300001008F0F0A007A0CAE
:101520009E0CC30CF10C480DA40D040E230E3C0EB2
:10153000550E1100C3100C00A20FDD0F27107710FD
:101540009D10C310C310A20FDD0F271077109D1040
:101550003500791C09004D1961198F19031A231AD6
:10156000FE1ACB1BF51B661C0001013829F428016B
:10157000F42801F42801F42801F42801F42801F4E6
:10158000280AF92801F92801F92801F92801F92880
:1015900001F9280BFE2801FE2801FE2801FE280182
:1015A000FE280B0329010729010B29020F2901132A
:1015B00029011329011329011329011329011329D1
:1015C0000113290113298518290134290F1F290125
:1015D00034290F26290134290F2D29013429FB0034
:1015E000000100952C0700402C4C2C5A2C662C72C4
:1015F0002C7E2C8A2C00001100332D0600A42CB266
:101600002CC22CE72C082D282D00002100B02D0520
:1016100000422D502D602D702D902D0000000830BF
:101620000900562F9C2EAD2EBE2ED52EF32E112F37
:101630002F2F3B2F0035007B300900173023302F30
:10164000303B304730533064307B307030007701AE
:1016500073376B37046337025B37015337396F37A2
:10166000046737025F37015737196D370465370252
:101670005D37015537097137046937026137015900
:1016800037FB00003D391300F938F938FB38F938D9
:10169000FB38FB38FB38FB38F938FB38FB38353979
:1016A000FB38F938F938FB38FB38FB38F9380701D3
:1016B000EC503E50014B50015750015750016350C0
:1016C000017150017150048150018F50018F5006FB
:1016D0009F50019F5001AB5001B55001C35001CF45
:1016E000501BD9507DE350FB2301905F8D580ED9DC
:1016F00053010654016E5401DD5401D15501E355E7
:1017000001E75601F8560133570A4A5701065801B6
:101710009058083E57088457FB000101915FE5543B
:1017200001FC54020055010555010955010D5501F3
:101730003D55018A5501B255020955010D55013D2E
:1017400055018A5501B25506CC55FB0000007D5A63
:101750000900E259F259025A125A265A3A5A4E5A76
:101760005E5A6E5A0000765E1400185D285D385D82
:10177000485D585D685D785D885D985DA85DBB5D7E
:10178000D05DE65DF25D055E185E2B5E3E5E515EED
:10179000645E010080640C00666366636E638C6344
:1017A0008C6380648064666366636E638C638C6341
:1017B0000100B1771600EA68E5691E6A396A846A31
:1017C000E46A196B286C726D2D6E9E6FE46A196B5A
:1017D00036719C722D6EB177727394730B7447756A
:1017E0004D770000236C0900866B986BA16BAA6B88
:1017F000BB6BCC6BDD6BEF6B016C0000996F140061
:10180000786E8A6E9C6EA56EB76EC06EC96ED26E13
:10181000DB6EED6EF66E076F076F266F386F4A6FDF
:10182000536F5C6F656F776FA80100E062E062172D
:1018300040F470E0FA01E60FF71F1081010F639585
:10184000F6CF08959A938A93902F812FE7E1F6E0DF
:1018500000810061008390935A0601E000935B06CB
:1018600080935C0625E008E516E0DEDF10E0EAEB99
:10187000F4E000831183EAEBF4E00081118100932E
:101880005D0606E00E9400288991999108959A9337
:101890008A93902F812FE7E1F6E0008100610083B9
:1018A00090935A0680935B06282F2C5F08E516E07C
:1018B000BBDF10E0EAEBF4E000831183EAEBF4E035
:1018C00000811181202F082F10E0F801E85AF94F0C
:1018D0002483082F0B5F0E94002889919991089515
:1018E0000E94487BA02F0A2FE8E1F0E0FBBFF5E162
:1018F0000C94F67A00911C0610E0EAE8FCE02591D1
:10190000349131970217130758F0ECE8FCE0259169
:101910003491319700911C0610E02017310748F4EC
:10192000ECE8FCE005911491319703950093AD0428
:10193000F6C200911C060093AD04F1C2E8E1F6E0A6
:1019400004810395048300911C0610E0E0E9FCE0AB
:101950002591349131970217130758F0E2E9FCE022
:1019600025913491319700911C0610E02017310722
:1019700020F40FE300937903D2C200911C06005DAE
:1019800000937903CCC200911C0610E0E6E9FCE06C
:101990002591349131970217130758F0E8E9FCE0DC
:1019A00025913491319700911C0610E020173107E2
:1019B00038F40FE3009384030FE300938503AFC271
:1019C00000911C064AE00E94507A005D0093840357
:1019D00000911C064AE00E94507A405D40938503C6
:1019E0009EC200917E0B013069F4ECE9FCE00591A8
:1019F00014913197902FEEE9FCE005911491319705
:101A0000802F02C090E086E300911C06091720F0A9
:101A100000911C06801738F40FE300938D030FE349
:101A200000938E0310C000911C064AE00E94507A79
:101A3000005D00938D0300911C064AE00E94507ADD
:101A4000405D40938E0300917F0B033009F067C225
:101A500000911D06091720F000911D06801738F42B
:101A60000FE3009395030FE30093960358C2009190
:101A70001D064AE00E94507A005D00939503009194
:101A80001D064AE00E94507A405D4093960347C28B
:101A900000917E0B013069F4E2EAFCE005911491BB
:101AA0003197902FE4EAFCE0059114913197802F53
:101AB00002C090E086E300911C06091720F0009117
:101AC0001C06801738F40FE30093A1030FE3009383
:101AD000A20325C200911C064AE00E94507A005DD4
:101AE0000093A10300911C064AE00E94507A405DD9
:101AF0004093A20300917E0B023009F010C20091C6
:101B00007F0B033009F00BC200911D06091720F06E
:101B100000911D06801738F40FE30093A9030FE32B
:101B20000093AA03FCC100911D064AE00E94507A6E
:101B3000005D0093A90300911C064AE00E94507AC0
:101B4000405D4093AA03EBC100911C0610E0E8EA57
:101B5000FCE02591349131970217130758F0EAEA17
:101B6000FCE025913491319700911C0610E020177C
:101B7000310738F40FE30093B5030FE30093B60386
:101B800010C000911C064AE00E94507A005D00934C
:101B9000B50300911C064AE00E94507A405D4093D4
:101BA000B60300917F0B033009F0B9C100911D0607
:101BB00010E0E8EAFCE02591349131970217130711
:101BC00058F0EAEAFCE025913491319700911D0626
:101BD00010E02017310738F40FE30093BB030FE345
:101BE0000093BC039CC100911D064AE00E94507AFC
:101BF000005D0093BB0300911D064AE00E94507AED
:101C0000405D4093BC038BC100911C0610E0EEEADE
:101C1000FCE02591349131970217130758F0E0EB5F
:101C2000FCE025913491319700911C0610E02017BB
:101C3000310720F402E00093C50371C100911C0636
:101C40000093C5036CC1E6EBFCE02591349131971C
:101C500000911C0610E02017310748F4E6EBFCE089
:101C600005911491319703950093C60358C10091D3
:101C70001C060093C60353C1ECEBFCE025913491A4
:101C8000319700911C0610E02017310748F4ECEB67
:101C9000FCE005911491319703950093C7033FC170
:101CA00000911C060093C7033AC100911C0610E086
:101CB000E0ECFCE02591349131970217130758F0BE
:101CC000E2ECFCE025913491319700911C0610E084
:101CD0002017310720F400E00093290A1DC100916C
:101CE0001C060093290A0091C30A013049F00091B3
:101CF000C30A023029F00091C30A033009F00CC175
:101D00004091C30A415039F04A9509F465C04A959B
:101D100009F4C3C001C14091290A415049F04A95D4
:101D200039F04A9561F0425089F04A95B1F01BC0F4
:101D300040EA51E4EAE2FAE04083518314C044E30C
:101D400058E0EAE2FAE0408351830DC043E850E0F6
:101D5000EAE2FAE04083518306C042E050E0EAE262
:101D6000FAE04083518340911D0650E060E070E04E
:101D70008A019B01322F212F102F00E040911E0677
:101D800050E060E070E0040F151F261F371F322F50
:101D9000212F102F00E040911F0650E060E070E01E
:101DA000040F151F261F371F322F212F102F00E081
:101DB0004091200650E060E070E0040F151F261FE0
:101DC000371F48EE53E060E070E00E94CB7AECE20F
:101DD000FAE000831183A0C04091290A415049F0E4
:101DE0004A9539F04A9561F0425089F04A95B1F030
:101DF0001BC040E25EE4EAE2FAE04083518314C093
:101E000040ED57E0EAE2FAE0408351830DC048EC30
:101E100050E0EAE2FAE04083518306C042E050E03D
:101E2000EAE2FAE04083518340911D0650E060E011
:101E300070E08A019B01322F212F102F00E040918A
:101E40001E0650E060E070E0040F151F261F371FCC
:101E5000322F212F102F00E040911F0650E060E04C
:101E600070E0040F151F261F371F322F212F102F50
:101E700000E04091200650E060E070E0040F151F84
:101E8000261F371F48EE53E060E070E00E94CB7AD7
:101E9000ECE2FAE0008311833FC040911D0650E060
:101EA00060E070E08A019B01322F212F102F00E0AB
:101EB00040911E0650E060E070E0040F151F261FE1
:101EC000371F322F212F102F00E040911F0650E0C6
:101ED00060E070E0040F151F261F371F322F212FDF
:101EE000102F00E04091200650E060E070E0040F09
:101EF000151F261F371F48EE53E060E070E00E9478
:101F0000CB7AA801EAE2FAE04083518340E050E056
:101F1000ECE2FAE04083518301E00093FD0901E027
:101F20000093010A01E00093FC09E3E00C94597B63
:101F30000E94477B802F082FE2E3F0E0FBBFF5E132
:101F40000C94F67A813121F408EC13E0D80103C037
:101F500001E114E0D80110911C0602E0109F0092EC
:101F60001C0600911C0610E0E6ECFCE02591349183
:101F700031970217130758F0E8ECFCE025913491F3
:101F8000319700911C0610E02017310730F40FE361
:101F90000C930FE3FD010183F6C000911C064AE09B
:101FA0000E94507A005D0C9300911C064AE00E944A
:101FB000507A405DFD014183E6C0823121F40EEC90
:101FC00013E0D80103C007E114E0D80100911C061A
:101FD00010E0ECECFCE025913491319702171307E7
:101FE00058F0EEECFCE025913491319700911C06FD
:101FF00010E02017310748F40FE30C930FE3FD01C5
:1020000001830FE3FD010283BEC000911C060A306C
:1020100058F400911C06005D0C9300E3FD01018360
:1020200000E2FD010283AFC000911C064AE00E945D
:10203000507A005D0C9300911C064AE00E94507A91
:10204000405DFD01418300E3FD0102839CC08331BB
:1020500021F403E81AE0D80103C003EA1AE0D8012A
:1020600000E00093BF040091BF0410911B0601170C
:1020700008F089C00091BF0410E0F801E85EF94F54
:10208000048110E0E2EDFCE02591349131970217D4
:10209000130780F0E4EDFCE0259134913197009135
:1020A000BF0410E0F801E85EF94F048110E020174A
:1020B000310748F40FEF2091BF0430E0FD01E20F3B
:1020C000F31F00830EC00091BF0410E0F801E85E2A
:1020D000F94F24810091BF0410E0FD01E00FF11FD2
:1020E0002083EFEBF4E0008103950083BCCF8431C3
:1020F00021F409EF13E0D80103C002E414E0D80191
:1021000000E00093BF040091BF0410911B0601176B
:10211000D0F50091BF0410E0F801E85EF94F24818A
:102120000091BF0410E0FD01E00FF11F2083EFEBF1
:10213000F4E0008103950083E6CF853121F40DEFB3
:1021400013E0D80103C006E414E0D80100E00093D6
:10215000BF040091BF0410911B060117A0F4009169
:10216000BF0410E0F801E85EF94F24810091BF043C
:1021700010E0FD01E00FF11F2083EFEBF4E00081A0
:1021800003950083E6CF01E00093010A01E000938C
:10219000FC09E4E00C94587B8A93802F082F0152AD
:1021A00061F00A9599F10A9509F474C00A9509F449
:1021B000B5C00A9509F4CFC0EBC010911C0602E02F
:1021C000109F00921C06E6EEFCE0259134913197B9
:1021D00000911C0610E02017310738F40FE300933C
:1021E0005A040FE300935B04D3C000911C064AE03D
:1021F0000E94507A005D00935A0400911C064AE048
:102200000E94507A405D40935B04C2C000911C065E
:1022100010E0EAEEFCE025913491319702171307A4
:1022200058F0ECEEFCE025913491319700911C06BA
:1022300010E02017310750F40FE3009360040FE320
:10224000009361040FE300936204A2C000911C0696
:102250000A3060F400911C06005D0093600400E306
:102260000093610400E20093620492C000911C0696
:102270004AE00E94507A005D0093600400911C06C1
:102280004AE00E94507A405D4093610400E300936D
:1022900062047EC000911C0610E0E0EFFCE0259196
:1022A000349131970217130758F0E2EFFCE02591C3
:1022B0003491319700911C0610E02017310750F43B
:1022C0000FE3009367040FE3009368040FE30093A8
:1022D00069045EC000911C060A3060F400911C067F
:1022E000005D0093670400E30093680400E200933C
:1022F00069044EC000911C064AE00E94507A005DBD
:102300000093670400911C064AE00E94507A405DE9
:102310004093680400E3009369043AC000E000932E
:10232000BF040091BF0410911B06011788F50091AE
:10233000BF0410E0F801E85EF94F24810091BF046A
:1023400010E0F801EE57FB4F2083EFEBF4E0008143
:1023500003950083E6CF00E00093BF040091BF0423
:1023600010911B060117A0F40091BF0410E0F801C2
:10237000E85EF94F24810091BF0410E0F801EA57AC
:10238000FB4F2083EFEBF4E0008103950083E6CF61
:1023900001E00093010A01E00093FC09899108958E
:1023A00000E00093BF040091BF04043008F070C047
:1023B0004091BF0450E003E010E00E946E7AF80103
:1023C000E85EF94F0481063058F02EE40091BF0416
:1023D00010E0000F111FF801E859FC4F208314C0D2
:1023E0004091BF0450E003E010E00E946E7AF801D3
:1023F000E85EF94F24810091BF0410E0000F111F27
:10240000F801E859FC4F20834091BF0450E003E0FD
:1024100010E00E946E7AF801E85EF94F05810B30FA
:1024200058F02EE40091BF0410E0000F111FF801D6
:10243000E859FC4F218314C04091BF0450E003E0F1
:1024400010E00E946E7AF801E85EF94F2581009154
:10245000BF0410E0000F111FF801E859FC4F218361
:102460004091BF0450E003E010E00E946E7AF80152
:10247000E85EF94F26810091BF0410E0F801EF58A3
:10248000FC4F2083EFEBF4E00081039500838BCFBA
:1024900001E00093010A089500E00093BF04009159
:1024A000BF040431A0F40091BF0410E0F801E85E1D
:1024B000F94F24810091BF0410E0F801E15FF54F6E
:1024C0002083EFEBF4E0008103950083E8CF0091D7
:1024D0001B0A002321F400911C0A002321F001E0D3
:1024E0000093850B03C000E00093850B00911D0A4B
:1024F000002321F400911E0A002321F001E0009343
:10250000860B03C000E00093860B00910F0A0023A6
:1025100021F40091100A002321F001E00093870BC1
:1025200003C000E00093870B0091110A002321F4FF
:102530000091120A002321F001E00093880B03C0F0
:1025400000E00093880B0091130A002321F400910E
:10255000140A002321F001E00093890B03C000E07E
:102560000093890B0091150A002321F40091160AAB
:10257000002321F001E000938A0B03C000E00093E8
:102580008A0B0091170A002321F40091180A0023F6
:1025900021F001E000938B0B03C000E000938B0B54
:1025A0000091190A002321F400911A0A002321F056
:1025B00001E000938C0B03C000E000938C0B0091B2
:1025C0001F0A002321F40091200A002321F001E0DA
:1025D00000938D0B03C000E000938D0B0091210A46
:1025E000002321F40091220A002321F001E000934E
:1025F0008E0B03C000E000938E0B01E00093010AF4
:1026000008959A938A9300911C060F70005D0093C1
:10261000C10200911C0602950F70005D0093C0027C
:1026200000911D060F70005D0093BE0200911D0613
:1026300002950F70005D0093BD0200911E060F70A1
:10264000005D0093BB0200911E0602950F70005DB5
:102650000093BA0200911F060F70005D0093C40240
:1026600000911F0602950F70005D0093C302009158
:1026700020060F70005D0093C702009120060295AE
:102680000F70005D0093C602009121060F70005D7F
:102690000093CA020091210602950F70005D00931D
:1026A000C90200E00093BE040091BE04083008F0A7
:1026B0004EC00091BE0410E0F801E654FD4F0081C9
:1026C0000A3348F40091BE0410E0F801E654FD4FCF
:1026D0000081003378F40091BE0410E0F801E65464
:1026E000FD4F00810E3231F0E6EAF2E00081039501
:1026F000008303C000E00093A6020091BE0410E036
:10270000F801ED53FD4F00810A3348F40091BE04F7
:1027100010E0F801ED53FD4F0081003378F4009193
:10272000BE0410E0F801ED53FD4F00810A3331F093
:10273000E7EAF2E000810395008303C000E0009324
:10274000A702EEEBF4E0008103950083ADCF80910A
:10275000C10290E04091C00250E00AE010E00E9407
:102760006E7A800F911F80519240843600E090076E
:102770002CF0E6EAF2E00081039500838091BE022E
:1027800090E04091BD0250E00AE010E00E946E7AB5
:10279000800F911F805192408D3090402CF0E6EADE
:1027A000F2E00081039500838091BB0290E04091AC
:1027B000BA0250E00AE010E00E946E7A800F911F8A
:1027C00080519240803290402CF0E6EAF2E00081A5
:1027D000039500838091C40290E04091C30250E0D1
:1027E0000AE010E00E946E7A800F911F80519240A3
:1027F000893190402CF0E7EAF2E0008103950083F4
:102800008091C70290E04091C60250E00AE010E0DB
:102810000E946E7A800F911F805192408D3300E0AC
:1028200090072CF0E7EAF2E00081039500838091A5
:10283000CA0290E04091C90250E00AE010E00E9414
:102840006E7A800F911F805192408D3300E0900787
:102850002CF0E7EAF2E00081039500830091A602E4
:10286000002351F100E30093C10200E30093C00292
:1028700000E30093BE0200E30093BD0200E3009377
:10288000BB0200E30093BA0200E00093A60200E05E
:102890000093BE040091BE04033048F500E020918F
:1028A000BE0430E0F901E056FD4F0083EEEBF4E0AA
:1028B000008103950083EECF00E00093BE040091F9
:1028C000BE040330A0F40091BE0410E0F801E85EFD
:1028D000F94F24810091BE0410E0F801E056FD4F4D
:1028E0002083EEEBF4E0008103950083E8CF0091B4
:1028F000A702002351F100E30093C40200E3009318
:10290000C30200E30093C70200E30093C60200E3A2
:102910000093CA0200E30093C90200E00093A702FB
:1029200000E00093BE040091BE04033048F500E0CF
:102930002091BE0430E0F901E056FD4F0383EEEB39
:10294000F4E0008103950083EECF00E00093BE0425
:102950000091BE040330A0F40091BE0410E0F80121
:10296000E85EF94F27810091BE0410E0F801E056BF
:10297000FD4F2383EEEBF4E0008103950083E8CF65
:1029800001E00093010A01E00093FD09899199910A
:1029900008950E94447B2801A22FB32F642E852F17
:1029A000BA959A2F983048F420E2092F10E0F201EE
:1029B000E00FF11F20839395F5CF803858F00FEF8B
:1029C000802783952DE20A2F10E0F201E00FF11F1E
:1029D0002083A395082F10E04B2F0E94767A802F3A
:1029E0008336C8F44AE0082F0E94507A005D2A2FEF
:1029F00030E0F201E20FF31F0083A3954AE0082FB5
:102A00000E94507A405D0A2F10E0F201E00FF11FA2
:102A10004083A39510C02FE30A2F10E0F201E00FCE
:102A2000F11F2083A3952FE30A2F10E0F201E00F9E
:102A3000F11F2083A395062D015019F00A9549F046
:102A400016C023EE0A2F10E0F201E00FF11F2083E1
:102A50000EC024EE0A2F10E0F201E00FF11F2083D8
:102A600021EC0A2F10E0F201E00FF11F2183E7E0D3
:102A70000C94557B0E94417B2801822F832E942E3B
:102A8000DB016A847B848A94982F983048F420E292
:102A9000092F10E0F201E00FF11F20839395F5CF8D
:102AA000482D8D010E94767AD801A615B70508F049
:102AB00067C0A83E03E0B00710F148EE53E08D0177
:102AC0000E947C7A202F082F10E0F201E00FF11F06
:102AD0002083082F10E0F201E00FF11F408150E049
:102AE00008EE13E00E946E7AA01BB10B082F10E0D5
:102AF000F201E00FF11F0081005D00838395A43691
:102B000000E0B00710F144E650E08D010E947C7AAD
:102B1000202F082F10E0F201E00FF11F2083082F73
:102B200010E0F201E00FF11F408150E004E610E0F8
:102B30000E946E7AA01BB10B082F10E0F201E00F8B
:102B4000F11F0081005D008383954AE050E08D0114
:102B50000E947C7A005D282F30E0F201E20FF31F23
:102B6000008383954AE050E08D010E947C7A405DAD
:102B7000082F10E0F201E00FF11F4083839510C091
:102B80002FE3082F10E0F201E00FF11F208383955F
:102B90002FE3082F10E0F201E00FF11F208383954F
:102BA000092D015019F00A9581F016C02CEE082F5E
:102BB00010E0F201E00FF11F208320EC082F10E05D
:102BC000F201E00FF11F218307C025E2082F10E07A
:102BD000F201E00FF11F2083ECE00C94527B532FA5
:102BE00052955F70452F4A3018F0495C542F02C04F
:102BF000405D542F452F622F70E0F801E60FF71F5C
:102C00004083532F5F70452F4A3018F0495C542F92
:102C100002C0405D542F452F622F70E0F801E60F8F
:102C2000F71F418308950E94417B00911C06402EAE
:102C300000911D06502E00E010E0EFE0FBE007835E
:102C4000108704E640164CF40DE9401634F00BE50D
:102C500050161CF406EA501654F40FE300930F0BC1
:102C60000FE30093100B00E00093110B85C080E090
:102C7000282F822F8395042D05290078002311F039
:102C80000DE201C00BE230E0F901E15FF44F008397
:102C900044201AF400E00419402E55201AF400E0F4
:102CA0000519502E042D0529002331F400E300936B
:102CB0000F0B00E00093100B0AE040165CF04AE0B6
:102CC000042D0E945E7A005D90E0FC01E15FF44F0C
:102CD000008383954AE0042D0E945E7A405D90E077
:102CE000FC01E15FF44F408383950EE290E0FC012C
:102CF000E15FF44F008383954AE0052D0E945E7AE0
:102D0000005D90E0FC01E15FF44F0083839502ECED
:102D100090E0FC01E15FF44F0083839500E090E0D8
:102D2000FC01E15FF44F00838395442D542F550F30
:102D3000550B0AE010E00E946E7A3801052D102F25
:102D4000110F110B4AE050E00E94947A600E711E40
:102D5000EFE0FBE06782708600910F0B0D3261F4AB
:102D600000E010E0EFE0FBE027813085021B130B51
:102D7000EFE0FBE00783108791E0933008F043C158
:102D8000092F10E0000F111FF801E85EF94F3481A0
:102D900020E0092F10E0000F111FF801E85EF94F45
:102DA000058110E0200F311FD90100E010E038014B
:102DB000492F50E009E010E00E946E7AF801E15FCF
:102DC000F44F67827086A83E03E0B00724F4A9316F
:102DD0000CEFB00724F50FE3602E492F50E009E017
:102DE00010E00E946E7AF801E15FF44F60820FE319
:102DF000602E492F50E009E010E00E946E7AF80141
:102E0000E15FF44F61826624492F50E009E010E051
:102E10000E946E7AF801E15FF44F6282F2C00A2FDD
:102E20000B2BC1F400E3602E492F50E009E010E0C5
:102E30000E946E7AF801E15FF44F60826624492FA8
:102E400050E009E010E00E946E7AF801E15FF44F73
:102E50006182D7C080E0492F50E009E010E00E9475
:102E60006E7AF801E15FF44FA783B087882E882D32
:102E70008395A13000E0B0071CF00BE2602E02C089
:102E80000DE2602E492F50E009E010E00E946E7ABA
:102E9000EFE0FBE0E00FF11F9924E80DF91D6082DF
:102EA000BB232AF40FEF1FEFA027B1271196A436FA
:102EB00000E0B007ECF144E650E08D010E94947A06
:102EC000602E492F50E009E010E00E946E7AEFE09A
:102ED000FBE0E00FF11F082F10E0E00FF11F608210
:102EE000492F50E009E010E00E946E7AEFE0FBE02D
:102EF000E00FF11F082F10E0E00FF11F408150E0BC
:102F000004E610E00E946E7AA01BB10B492F50E03E
:102F100009E010E00E946E7AEFE0FBE0E00FF11FA5
:102F2000082F10E0E00FF11F0081005D0083839502
:102F3000AA3000E0B007C4F04AE050E08D010E94E2
:102F4000947A602E00E3600E492F50E009E010E013
:102F50000E946E7AEFE0FBE0E00FF11F082F10E017
:102F6000E00FF11F608283954AE050E08D010E94DE
:102F7000947A642E00E3600E492F50E009E010E0DF
:102F80000E946E7AEFE0FBE0E00FF11F082F10E0E7
:102F9000E00FF11F608283950CEE602E492F50E008
:102FA00009E010E00E946E7AEFE0FBE0E00FF11F15
:102FB000082F10E0E00FF11F6082839500EC602E77
:102FC000492F50E009E010E00E946E7AEFE0FBE04C
:102FD000E00FF11F082F10E0E00FF11F60828395D2
:102FE0006624492F50E009E010E00E946E7AEFE07D
:102FF000FBE0E00FF11F082F10E0E00FF11F6082EF
:1030000083959395BACEEAE00C94527B10911C06FE
:10301000012F10E0E4E7FDE025913491319702178C
:10302000130748F0E6E7FDE025913491319710E071
:103030002017310738F4E6E7FDE025913491319708
:103040002395022F00930E0B08959A938A93009173
:103050001C06002309F00EC150911D0641E032E02C
:1030600022E000EF12E095DC30911D0623E005ED33
:1030700012E0B5DD30911E0625E005ED12E0AFDD72
:1030800030911F0620E00091200610E0200F311F34
:10309000EDE0FAE02083318308EE13E01A930A93FF
:1030A000EDE0FAE06081718141E031E023E009EF79
:1030B00012E0E0DC009122064AE00E94507A009380
:1030C00019034091210650E00AE010E00E946E7A58
:1030D0002091190330E0020F131FEBE0FAE00083A8
:1030E0001183EBE0FAE000811181083E23E0120732
:1030F00054F4EBE0FAE000811181112322F00091F9
:1031000019030A3080F000E010E0EBE0FAE0008301
:1031100011830FE3009316030FE3009317030FE3EC
:103120000093190315C0009121064AE00E94507ACD
:10313000005D00931603009121064AE00E94507A38
:10314000405D40931703E4E1F3E00581005D0583F2
:103150005091230642E031E023E006E213E019DC5F
:1031600000917F0B033041F45091240642E031E09E
:1031700023E00FE213E00DDC0091290A043051F442
:1031800000916803043030F400E00093250600E06D
:10319000009326065091250642E031E023E008E343
:1031A00013E0F7DB00917F0B033041F450912606CA
:1031B00042E031E023E001E413E0EBDB509127062D
:1031C00042E031E023E00DE113E0E3DB04E610E050
:1031D0001A930A936091280670E042E031E024E0FF
:1031E00002E013E047DC3091280623E00EED12E008
:1031F000F6DC3091290620E000912A0610E0200F2D
:10320000311FC901883E03E09007D0F0803107E20A
:103210009007B0F448EE53E08C010E947C7A009352
:103220000E0340910E0350E008EE13E00E946E7A08
:10323000801B910BEBE0F3E00381005D038303C08F
:1032400000E300930E0308EE13E01A930A93BC0107
:1032500043E031E025E00BE013E00CDC309129067F
:1032600023E007EE12E0BBDC30912A0625E007EEF2
:1032700012E0B5DC01E00093FE0901E00093010AD1
:103280008991999108950E94477B802F082FE0E54E
:10329000F0E0FBBFF5E10C94F67AEAE0FDE0259161
:1032A0003491319700911C0610E02017310720F46B
:1032B00002E000938A041DC300911C0600938A0457
:1032C00018C300911C0610E0EEE0FDE0259134915A
:1032D00031970217130758F0E0E1FDE02591349192
:1032E000319700911C0610E02017310738F40FE3E6
:1032F00000938B040FE300938C04FBC200911C0627
:103300004AE00E94507A005D00938B0400911C06F5
:103310004AE00E94507A405D40938C04EAC2E4E0A7
:10332000FDE025913491319700911C0610E02017A3
:10333000310760F4E4E0FDE00591149131970395C5
:103340000093AC040FEF0093C30AD3C200911C0694
:103350000093AC040091AC041091C30A011709F466
:10336000C8C20091AC040093C30A0E94893C0E9429
:10337000D53F0E94A7400E94FC430E945544009103
:10338000050A0A3021F00091050A003179F4009114
:10339000C40A0A9500932D0B00912D0B10912C0B54
:1033A000011720F400912D0B00932C0B0091050ABE
:1033B000073021F00091050A0D3079F400912F0AB1
:1033C0000A9500932D0B00912D0B10912C0B0117DA
:1033D00020F400912D0B00932C0B0091050A06316F
:1033E00009F087C20091590A035000932D0B0091F8
:1033F0002D0B10912C0B011708F07BC200912D0BA7
:1034000000932C0B76C200911C064AE00E94507A71
:10341000405D4093930400911C064AE00E94507A5C
:1034200000931C0600911C064AE00E94507A405D01
:103430004093920400911C064AE00E94507A005D7D
:103440000093910456C200911C06A02FB0E0E0E565
:10345000FDE0059114913197A017B10748F0E2E51E
:10346000FDE0059114913197B0E00A171B0738F47D
:10347000E2E5FDE00591149131970395A02FA0930B
:10348000ED0A00911D06A02FB0E0E6E5FDE00591F4
:1034900014913197A017B10748F0E8E5FDE00591D8
:1034A00014913197B0E00A171B0738F4E8E5FDE006
:1034B0000591149131970395A02FA093EE0A0091E6
:1034C0001E06A02FB0E0ECE5FDE0059114913197C8
:1034D000A017B10748F0EEE5FDE005911491319792
:1034E000B0E00A171B0750F40FE30093EF0A0FE355
:1034F0000093F00A0FE30093F10A1AC04AE00A2F82
:103500000E94507A405D4093F10A4AE00A2F0E94DF
:10351000507AA02F4AE00A2F0E94507A405D4093D3
:10352000F00A4AE00A2F0E94507A005D0093EF0AE9
:1035300000911F06A02F4AE00A2F0E94507A405D9A
:103540004093FB0A4AE00A2F0E94507AA02F4AE0DB
:103550000A2F0E94507A405D4093FA0A4AE00A2FEF
:103560000E94507A005D0093F90A00912006A02F76
:10357000B0E0E8E6FDE0059114913197A017B1079E
:1035800048F0EAE6FDE0059114913197B0E00A17A2
:103590001B0738F40FE30093030B0FE30093040BB6
:1035A0000EC04AE00A2F0E94507A005D0093030B80
:1035B0004AE00A2F0E94507A405D4093040B00912C
:1035C0002106A02FB0E0EEE6FDE0059114913197C1
:1035D000A017B10748F0E0E7FDE00591149131979D
:1035E000B0E00A171B0738F4E0E7FDE005911491FD
:1035F00031970395A02FA0930D0B7BC130911C0632
:1036000020E000911D0610E0200F311FECEBF4E0EC
:103610002083318300E000931C06ECEBF4E0008192
:103620001181E6E2FDE025913491319702171307ED
:1036300020F401E000931C060FC0E8E2FDE00591D4
:1036400014913197ECEBF4E02081318102171307DC
:1036500018F401E000931C0600911C060023F9F009
:103660000FE300939B040FE300939C040FE300938C
:103670009D0400E200939E040AEE00939F0403EC75
:103680000093A00406EF0093A1040FE30093CC0283
:103690000FE30093CD020FE30093CE0278C0ECEB72
:1036A000F4E000811181043620E0120730F54AE091
:1036B00050E0ECEBF4E0008111810E947C7A005D27
:1036C00000939B044AE050E0ECEBF4E000811181B0
:1036D0000E947C7A405D40939C0400E200939D042C
:1036E0000AEE00939E0403EC00939F0406EF009300
:1036F000A00400E20093A1043EC044E650E0ECEBDD
:10370000F4E0008111810E947C7A005D00939B04AB
:10371000E0919B04F0E0F09744E650E08F010E94B6
:103720006E7AECEBF4E020813181201B310B208399
:1037300031834AE050E0ECEBF4E0008111810E941B
:103740007C7A005D00939C044AE050E0ECEBF4E0EE
:10375000008111810E947C7A405D40939D0400E2CB
:1037600000939E040AEE00939F0403EC0093A004D0
:1037700006EF0093A10400919B040093CC020091FA
:103780009C040093CD0200919D040093CE0201E0C1
:103790000093FD09AEC000911C0610E0ECE2FDE0D4
:1037A0002591349131970217130758F0EEE2FDE0AE
:1037B00025913491319700911C0610E020173107B4
:1037C00038F40FE30093A3040FE30093D30209C07E
:1037D00000911C06005D0093A3040091A3040093D4
:1037E000D30201E00093FD0984C0EAE3FDE02591E6
:1037F0003491319700911C0610E02017310738F4FE
:103800000FE30093A5040FE30093A60410C00091FA
:103810001C064AE00E94507A005D0093A5040091C6
:103820001C064AE00E94507A405D4093A604E0E402
:10383000FDE025913491319700911D0610E020178D
:10384000310738F40FE3009301040FE300930204FF
:1038500013C000911D064AE00E94507A005D00935B
:10386000010400911D062091010420531AE0219FBC
:103870000019005D0093020400917F0B0330C9F52D
:10388000EAE3FDE025913491319700911E0610E0A6
:103890002017310738F40FE3009307040FE3009378
:1038A000080427C000911E064AE00E94507A005D7D
:1038B0000093070400911E062091070420531AE08C
:1038C000219F0019005D0093080413C0E4E3FDE0AC
:1038D00025913491319700911C0610E02017310793
:1038E00020F402E00093AB0404C000911C06009396
:1038F000AB0401E00093010A01E00093FC09E4E05D
:103900000C94587B20E001E00093010A01E0009351
:10391000FC090FE010E040911A0642954F7050E00C
:10392000041B150B40915F0B50E0FA01E25AF44F73
:10393000428150E00417150709F421E000911A06AE
:103940000F700130D9F42223C9F000911D06002325
:1039500059F000E011E0EEE5FBE0078310870091ED
:103960001C060093670B0AC000911C0610E0EEE5F0
:10397000FBE00783108700E00093670B00911A06B5
:103980000F700230E1F4222379F000E00031B8F446
:1039900010E0F801E85EF94F348110E0F801E25AD6
:1039A000F44F32870395F2CF00E0003140F430E06D
:1039B00010E0F801E25AF44F32870395F6CF0895EC
:1039C0000E94477BA02F00E00093750300E0009366
:1039D000760300E00093770300E00093780380E033
:1039E0000091CF0B801708F090C0482F50E00AE0FC
:1039F00010E00E946E7AF801E955F44F0081015001
:103A000039F00A9529F00A9539F00A9529F007C08E
:103A100000911C06902F03C000912106902F482F83
:103A200050E00AE010E00E946E7AF801E955F44F88
:103A30000081015039F00A95E9F10A9519F00A95CB
:103A4000C9F161C0092F0F70013040F190FB66F49D
:103A5000B1E0482F50E00AE010E00E946E7AF801D1
:103A6000E955F44FB1834FC091FB66F4B2E0482FA3
:103A700050E00AE010E00E946E7AF801E955F44F38
:103A8000B18341C0B3E0482F50E00AE010E00E944B
:103A90006E7AF801E955F44FB18335C0B0E0482F94
:103AA00050E00AE010E00E946E7AF801E955F44F08
:103AB000B18329C0092F007F0023D1F094FB66F465
:103AC000B1E0482F50E00AE010E00E946E7AF80161
:103AD000E955F44FB18317C0B2E0482F50E00AE037
:103AE00010E00E946E7AF801E955F44FB1830BC0E3
:103AF000B0E0482F50E00AE010E00E946E7AF80132
:103B0000E955F44FB18383956BCF20E024308CF4DA
:103B100030911C06422F01E010E00E94767A30239B
:103B2000332329F0022F03950093750302C02395D8
:103B3000EDCFE8E1F6E0048104FF03C001E000936B
:103B4000760300917A0B0130A8F000911D06002346
:103B500089F003E000937503E5E7F3E00081039546
:103B6000008300911D06069500931D0600911D0619
:103B7000002391F700917A0B0930A8F000911E06FE
:103B8000002389F00BE000937503E5E7F3E0008183
:103B90000395008300911E06069500931E06009172
:103BA0001E06002391F700917A0B0131A8F00091D5
:103BB0001F06002389F003E100937503E5E7F3E0B6
:103BC00000810395008300911F06069500931F0650
:103BD00000911F06002391F700917A0B0931A8F09C
:103BE00000912006002389F00BE100937503E5E7BF
:103BF000F3E0008103950083009120060695009371
:103C0000200600912006002391F700917F0B0330DE
:103C100009F085C000917C0B002309F480C020E0EE
:103C200024308CF430912106422F01E010E00E94F4
:103C3000767A3023332329F0022F039500937703FC
:103C400002C02395EDCFE8E1F6E0018504FF03C053
:103C500001E00093780300917C0B0130A8F0009103
:103C60002206002389F003E000937703E7E7F3E0FF
:103C70000081039500830091220606950093220699
:103C800000912206002391F700917C0B0930A8F0E7
:103C900000912306002389F00BE000937703E7E708
:103CA000F3E00081039500830091230606950093BD
:103CB000230600912306002391F700917C0B01312C
:103CC000A8F000912406002389F003E10093770314
:103CD000E7E7F3E000810395008300912406069551
:103CE0000093240600912406002391F700917C0B99
:103CF0000931A8F000912506002389F00BE100931B
:103D00007703E7E7F3E00081039500830091250640
:103D100006950093250600912506002391F701E002
:103D20000093010A01E00093FC09E4E00C94587B45
:103D30008A9300E000935E0B00E00093600B81E04B
:103D400000911C06002339F400E00093780B00E09A
:103D50000093610317C000911C06013091F401E04B
:103D60000093780B01E00093630320915E0B239591
:103D700020935E0B03E030E0F901E25AF44F028336
:103D800001C080E000911D06093070F400911D060D
:103D9000033051F010911D0604E0109F00927B0B40
:103DA00001E00093630301C080E000911E0609302A
:103DB00058F400911E06033039F010911E0604E0FD
:103DC000109F00927C0B01C080E000911F0609301B
:103DD00058F400911F06033039F010911F0604E0DB
:103DE000109F00927A0B01C080E000912006023003
:103DF00059F402E000937F0B00E000937C0B0091EC
:103E00007B0B0093790B3DC0009120060330C1F578
:103E100003E000937F0B00917C0B002321F40091C1
:103E2000780B002319F001E0009364030091780BF4
:103E3000002379F000917B0B002359F000917C0B5B
:103E4000002339F000917A0B002319F001E0009370
:103E5000840B00917B0B10917C0B010F0093790B6D
:103E600000917C0B002369F020915E0B2395209339
:103E70005E0B04E030E0F901E25AF44F028301C026
:103E800080E00091790B002359F020915E0B23957F
:103E900020935E0B02E030E0F901E25AF44F028316
:103EA00000917A0B002359F020915E0B239520930B
:103EB0005E0B01E030E0F901E25AF44F0283009119
:103EC0002106043020F401E000937E0B01C080E065
:103ED00000917E0B013021F404E00093000A03C03E
:103EE00003E00093000A3091220620E000912306AF
:103EF00010E0200F311FEAEAF2E022833383309191
:103F0000240620E00091250610E0200F311FEAEA88
:103F1000F2E02483358300917E0B023021F401E02E
:103F20000093A50B13C000917F0B023021F402E037
:103F30000093A50B0BC000917F0B033021F404E02C
:103F40000093A50B03C000E00093A50B00E00093D5
:103F5000900B0091780B002389F009EF14E0209179
:103F6000900B30E0220F331FF901EF56F44F00831E
:103F70001183E0E9FBE000810395008300917F0B52
:103F80000230B1F40091790B0130E0F101E015E06D
:103F90002091900B30E0220F331FF901EF56F44FC0
:103FA00000831183E0E9FBE00081039500832AC0D0
:103FB00000917B0B013088F00EE115E02091900B11
:103FC00030E0220F331FF901EF56F44F00831183C5
:103FD000E0E9FBE000810395008300917C0B013058
:103FE00088F00AE215E02091900B30E0220F331F99
:103FF000F901EF56F44F00831183E0E9FBE0008103
:104000000395008300917A0B013088F00BE015E0F6
:104010002091900B30E0220F331FF901EF56F44F3F
:1040200000831183E0E9FBE000810395008307E151
:1040300015E02091900B30E0220F331FF901EF566D
:10404000F44F00831183E0E9FBE0008103950083D6
:104050000FEF0093C30A0E94893C0E94D53F0E9443
:10406000A7400E94FC430E9455448093800B899195
:1040700008959A938A93802F282F2A9508E116E0B5
:104080000E94140C10E0EAEBF4E000831183EAEBE9
:10409000F4E02081318190E0FC01E95EF94F00817C
:1040A00010E02017310719F0549A579A9EC00091DA
:1040B000A806023001F500E00093C0040091C0049E
:1040C0000817A0F40091C00410E0F801E85EF94F71
:1040D00020810091C00410E0F801E15FFA4F2083D5
:1040E000E0ECF4E0008103950083E8CF03E0009367
:1040F000A8068093A9060091A806002309F075C0C0
:1041000048E156E020911A0630E0E1EDFBE0008145
:1041100011810E94E82800911A0610E0007F1070BB
:10412000005039F0005151F0005169F0005181F018
:1041300044C000911A060E94700C55C000911A06E6
:104140000E94980F50C000911A060E94CC104BC0DC
:1041500000911A06005369F00A9571F00A9579F0FA
:104160000A9581F00A95C1F00A50E9F00A95F9F034
:1041700020C00E94D01137C00E944C1234C00E944F
:10418000011331C000917E0B013019F40E94131607
:104190002AC00E94061827C000917E0B013019F535
:1041A0000E94251820C000911C060ADC1CC0C0DD3E
:1041B0001AC000911A0667D816C000911A06015C51
:1041C00079F00A9579F00F5059F00A9559F00F508F
:1041D00039F00A9539F00F5019F00A9519F003C01B
:1041E00091DB01C08FDB549A579A0E94052800E0AA
:1041F0000093AA06899199910895792F282E080194
:10420000622F8FEF1FEF40E04617C0F450E0F0013F
:10421000E40FF51F0081382F3027232F30E0F901FC
:10422000E457FF4F0491312F3027832F30E0F901FD
:10423000E457FE4F0491102F4395E6CF00E090E045
:10424000082B192B822D972F0895B80100E01091AB
:10425000240A105019F01A9561F0089542E04217AF
:1042600098F450E0FB01E40FF51F1081010F439516
:10427000F6CF40E0421740F450E0FB01E40FF51F99
:104280001081010F4395F6CF08959A938A93902F4A
:10429000812FEEECF4E00081006100839093110522
:1042A00001E0009312058093130525E00FE015E06F
:1042B000CCDF10E0E1ECF4E000831183E1ECF4E00A
:1042C000008111810093140506E00E94C5288991A0
:1042D000999108959A938A93902F812FEEECF4E0B0
:1042E0000081006100830091240A005019F00A95B2
:1042F000F9F049C09093110580931205282F2C5F87
:104300000FE015E0A2DF10E0E1ECF4E000831183A0
:10431000E1ECF4E000811181202F082F10E0F8017A
:10432000E15FFA4F2483082F0B5F0E94C5282BC042
:104330000091A80200930F0590931005282F2D5F80
:104340000FE015E05ADFE1ECF4E000831183E1ECCB
:10435000F4E000811181202F082F10E0F801E15FC7
:10436000FA4F2383E1ECF4E000811181012F10E08A
:10437000202F082F10E0F801E15FFA4F2483082F67
:104380000B5F0E94C5288991999108958A93802F87
:10439000EEECF4E00081006100838093110502E0FF
:1043A0000093120526E00FE015E04FDF10E0E1EC8E
:1043B000F4E000831183E1ECF4E0008111810093CB
:1043C000150507E00E94C528899108958A93802FDA
:1043D000EEECF4E00081006100830091A8020093FC
:1043E0000F050091D004006800931005809311051B
:1043F00023E00FE015E029DF10E0E1ECF4E00083BA
:104400001183E1ECF4E00081118100931205E1ECED
:10441000F4E000811181012F10E00093130505E005
:104420000E94C528899108950E94477B802F0E9491
:10443000D22800FB4EF400E00093130500E0009347
:10444000140501EEA3DFD2C30091240A005021F02D
:104450000A9509F44CC1C0C30091CF04053509F099
:104460003BC10091D0040A3A09F036C10091D20450
:1044700010E0E82FF0E035970E171F0759F0009174
:10448000D20400931305082F05500093140503EE82
:104490007DDFACC3282F2A950FEC14E0D6DE10E0A8
:1044A000E1ECF4E000831183E1ECF4E02081318160
:1044B00090E0FC01E253FB4F008110E02017310730
:1044C00081F090E0FC01E253FB4F00810093130563
:1044D000E1ECF4E0008111810093140502EE56DF57
:1044E00085C30091D104043729F00091D10403372A
:1044F00009F0C6C00091D1040437B1F540914D0BCD
:1045000050E008EE13E00E946E7AD80140914E0B05
:1045100050E004E610E00E946E7AA00FB11F4091B7
:104520004F0B50E00AE010E00E946E7AA00FB11F1E
:104530000091500B10E0A00FB11FA055B04DE6EC5C
:10454000F4E0A083B183E6ECF4E000811181012F57
:1045500010E000931305E6ECF4E000811181009374
:10456000140512E002E7B6DE0091D104033709F02A
:1045700079C03091D30420E00091D40410E0200FE2
:10458000311FE6ECF4E02083318348EE53E0E6ECA3
:10459000F4E0008111810E947C7A005D00934D0B54
:1045A000E0914D0BF0E0F09748EE53E08F010E9450
:1045B0006E7AE6ECF4E020813181201B310B208300
:1045C000318344E650E0E6ECF4E0008111810E9482
:1045D0007C7A005D00934E0BE0914E0BF0E0F0977B
:1045E00044E650E08F010E946E7AE6ECF4E0208110
:1045F0003181201B310B208331834AE050E0E6EC0F
:10460000F4E0008111810E947C7A005D00934F0BE1
:10461000E0914F0BF0E0F0974AE050E08F010E94EC
:104620006E7AE6ECF4E020813181201B310B20838F
:104630003183E6ECF4E000811181005D0093500BC2
:1046400010E003E747DE01E000939E0600E010E083
:10465000E4EAF6E0008311830DE41BE0E0EAF6E013
:10466000008311830FE00093A90200919A0000617A
:1046700000939A0000919A00006800939A00B6C2D5
:1046800000E00093C5040091C5040817E0F4009110
:10469000C50410E0F801E153FB4F20810091C504EF
:1046A00010E0F801E85AF94F208300E02091C5049A
:1046B00030E0F901E153FB4F0083E5ECF4E00081C9
:1046C00003950083E0CF8093A90601E00093A8063C
:1046D0000FE00093A9028AC200919A000061009342
:1046E0009A0000919A00006800939A007FC200919E
:1046F000CF041091A802011709F063C2282F22509D
:104700000FEC14E07ADDE1ECF4E00083118390E03B
:10471000FC01E353FB4F208130E090E0FC01E253C9
:10472000FB4F108100E0200F311FE3ECF4E0208309
:104730003183E1ECF4E000811181E3ECF4E02081CD
:1047400031810217130791F0E1ECF4E0008111814F
:1047500000931105E1ECF4E000811181012F10E0DC
:104760000093120511E00FEFB5DD30C23091D10496
:1047700020E00091D20410E0200F311FE9ECF4E0BA
:10478000208331830091D4040093C8040091D004A5
:10479000035021F0035009F4E0C110C20091C80495
:1047A000013420F40091C804002319F403E00EDE64
:1047B0000DC2E9ECF4E0008111810A3F20E012070C
:1047C00040F0E9ECF4E000811181003024E01207B0
:1047D000A8F0E9ECF4E0208131810091C80410E0F8
:1047E000200F311F2B3F00E0300758F0E9ECF4E0D8
:1047F00000811181003024E0120718F402E0E6DDA8
:10480000E5C11091C80402E0109F00921105E9EC87
:10481000F4E0008111810A3F20E0120778F500E002
:104820000093C5040091C5041091C8040117F0F469
:10483000E9ECF4E0608171810091C50410E0600F43
:10484000711F1091C50402E0109F03E0000E402D7F
:104850002FE035E0E1EDFBE0008111810E943B2972
:10486000E5ECF4E0008103950083DCCF1091C804EF
:1048700002E0109F102D03E02DDDA8C1E9ECF4E06B
:1048800000811181003024E0120708F44FC0E9ECE8
:10489000F4E000811181003022E2120708F046C0E6
:1048A00001E000935C0B20E030E0E1EDFBE00081F3
:1048B00011810E94302C4FE00091C8040E94507A70
:1048C00000935B0B00915B0B002329F4EBE5FBE00D
:1048D000008103950083AFE0B0E0E9ECF4E00081F3
:1048E0001181005014404FE050E00E947C7AA41BDC
:1048F000B50B0091C80410E0A017B10728F4EBE550
:10490000FBE0008103950083E9ECF4E00081118174
:10491000005014404FE050E00E947C7AEBECF4E051
:104920000083118302EF00935D0B50C1E9ECF4E0CA
:1049300000811181003024E2120708F454C0E9EC30
:10494000F4E000811181003022E4120708F04BC02E
:1049500001E000935C0B20E030E0E1EDFBE0008142
:1049600011810E94302C4FE00091C8040E94507ABF
:1049700000935B0B00915B0B002329F4EBE5FBE05C
:10498000008103950083E9ECF4E00081118100507F
:1049900014424FE050E00E947C7A4093CD040FE037
:1049A00010E02091CD0430E0021B130B2091C804CD
:1049B00030E0021713072CF4EBE5FBE000810395D0
:1049C0000083E9ECF4E000811181005014424FE0D3
:1049D00050E00E947C7AEBECF4E00083118302EC5F
:1049E00000935D0BF3C0E9ECF4E00081118100302D
:1049F00024E4120708F454C0E9ECF4E000811181CA
:104A0000003022E6120708F04BC001E000935C0B77
:104A100020E030E0E1EDFBE0008111810E94302CCC
:104A20004FE00091C8040E94507A00935B0B009104
:104A30005B0B002329F4EBE5FBE000810395008389
:104A4000E9ECF4E000811181005014444FE050E0A3
:104A50000E947C7A4093CD040FE010E02091CD04B9
:104A600030E0021B130B2091C80430E0021713073B
:104A70002CF4EBE5FBE0008103950083E9ECF4E026
:104A800000811181005014444FE050E00E947C7A74
:104A9000EBECF4E00083118302ED00935D0B96C014
:104AA000E9ECF4E000811181003024E6120708F4FB
:104AB0008DC0E9ECF4E000811181003022E812079A
:104AC00008F084C001E000935C0B20E030E0E1EDF1
:104AD000FBE0008111810E94302C4FE00091C8045E
:104AE0000E94507A00935B0B00915B0B002329F42A
:104AF000EBE5FBE0008103950083E9ECF4E0008145
:104B00001181005014464FE050E00E947C7A40939F
:104B1000CD040FE010E02091CD0430E0021B130B18
:104B20002091C80430E0021713072CF4EBE5FBE0FA
:104B3000008103950083E9ECF4E0008111810050CD
:104B400014464FE050E00E947C7AEBECF4E00083E6
:104B5000118302EE00935D0B39C05091D30440E005
:104B60000091D40410E0400F511FE9ECF4E02081E3
:104B70003181E1EDFBE0008111810E94862900E096
:104B80000093C5040091C5040630A0F40091C5044B
:104B900010E0F801E153FB4F20810091C50410E0C3
:104BA000F801E15FFA4F2083E5ECF4E00081039522
:104BB0000083E8CF13E006E08DDB08C001E006DCEF
:104BC00005C000919A00006100939A0000919A003C
:104BD000006800939A000AC000919A000061009357
:104BE0009A0000919A00006800939A000E94E428BD
:104BF000E4E00C94587B0FEC09B91098119A1898BE
:104C0000199A0EE00093950008E10AB9549A579A50
:104C100006B70D7F06BF07B7016007BF05E002BFFB
:104C200004E003BF05E5009358060AEA009359061D
:104C300005E5009318060AEA009319060895FA9309
:104C4000EA935A934A933A932A931A930A934FB743
:104C50005BB71CB1012F5C9953C010919A0610509C
:104C600039F01A9561F01A95A1F01A95C1F028C093
:104C7000053509F045C011E010939A0641C00A3A83
:104C800021F412E010939A063BC010E010939A06AC
:104C900037C000931A0613E010939A0631C00093B0
:104CA0001B060C3320F010E010939A0603C014E0AA
:104CB00010939A0610919A06100F10939B0620C02D
:104CC00020919A0630E0F901E85EF94F00831091D7
:104CD0009A0620919B06121770F011E01093AA0615
:104CE00010E010939A065498579810919B061395CC
:104CF0001093AB0605C0EAE9F6E010811395108326
:104D00005BBF4FBF099119912991399149915991EF
:104D1000E991F9911895FA93EA933A932A931A93A1
:104D20000A932FB73BB70091980610919906011787
:104D300084F400919806102F110F110BF801E85A16
:104D4000F94F00810CB9E8E9F6E000810395008392
:104D50000FC05398559800E00093990600E0009327
:104D60009806549A579AE7E1F6E000810F7E008397
:104D70003BBF2FBF0991199129913991E991F9917F
:104D80001895BA93AA939A938A93FA93EA933A92CC
:104D90002A921A920A927A936A935A934A933A936E
:104DA0002A931A930A938FB79BB72197A89505E08A
:104DB00002BF00910007003F09F045C00091A8061E
:104DC000002309F040C00E941F3700931406009191
:104DD000140610911306011721F000911406003FEC
:104DE000D1F4E5E1F6E0008111810F5F1F4F0083F0
:104DF0001183E5E1F6E000811181013921E012071C
:104E000084F000E911E0E5E1F6E00083118300EFB2
:104E10000093130606C000E010E0E5E1F6E0008331
:104E200011830091140610911306011761F000918F
:104E30001406003F41F00091140600930007009112
:104E400014060093130600911106053078F10091C5
:104E50001206013029F0EEECF4E0008100FF22C0E0
:104E600000919A000F7E00939A0000919A000F77AC
:104E700000939A00EEECF4E000810860008300915A
:104E80000E060E94142200E00093120600E0009338
:104E90000E0600919C000883EEECF4E000810F7E8A
:104EA000008309C00EE10093110605C0E1E1F6E0C0
:104EB000008103950083E1993AC000919E0601307C
:104EC000B1F5F894E4EAF6E0008111811FBB0EBB56
:104ED00000919C0610E0E0EAF6E0A081B181A00F0D
:104EE000B11F0C910DBBE29AE19A7894ECE9F6E0DF
:104EF000008103950083E4EAF6E0008111810F5FF1
:104F00001F4F0083118300919C0610E0A0EAB6E0D9
:104F1000ED91FC911197E00FF11F31970081002373
:104F200031F400E000939E0600E000939C06E199B6
:104F300051C000919F06013009F04CC0E6EAF6E04E
:104F4000008111811FBB0EBBE09A2DB300919D061D
:104F500010E0E2EAF6E0A081B181A00FB11F2C932E
:104F600000919D0610E0A2EAB6E0ED91FC91119748
:104F7000E00FF11F00810F3F61F400E020919D06DA
:104F800030E0A2EAB6E0ED91FC911197E20FF31F39
:104F90000083E6EAF6E0008111810F5F1F4F008376
:104FA0001183EDE9F6E000810395008300919D06F1
:104FB00010E0A2EAB6E0ED91FC911197E00FF11F2D
:104FC00031970081002331F400E000939F0600E058
:104FD00000939D0621969BBF8FBF0991199129913E
:104FE0003991499159916991799109901990299034
:104FF0003990E991F99189919991A991B99118956F
:1050000000939906539A559A089500E00093170665
:10501000089503E3009399008A988B9A9298939A43
:105020000EE000939D0008E100939A0000919A0021
:10503000006100939A0000919A00006800939A0022
:1050400005E500930F050AEA009310050895FA9309
:10505000EA934A933A932A931A930A933FB74BB72A
:1050600000919C00202F00919B00102F14FF05C081
:10507000EEECF4E000810160008300911206002351
:1050800091F4009111060E3170F001E000931206C8
:1050900000E000930E0600E000931106EEECF4E051
:1050A000008100610083009112060130E9F4009153
:1050B00011060E31C8F400910E06003430F0EEEC0B
:1050C000F4E00081016000830CC000910E0610E046
:1050D000F801E153FB4F2083EEE0F6E000810395F9
:1050E000008300E0009311064BBF3FBF0991199167
:1050F000299139914991E991F9911895FA93EA9397
:105100003A932A931A930A932FB73BB700910F064D
:105110001091100601178CF400910F06102F110F3B
:10512000110BF801E15FFA4F008100939C00EFE062
:10513000F6E00081039500831FC000919A00077F6D
:1051400000939A0000919A000F7D00939A0000E06E
:105150000093100600E000930F0600919A00006192
:1051600000939A0000919A00006800939A00EEEC78
:10517000F4E000810F7E00833BBF2FBF099119919E
:1051800029913991E991F9911895009310061091A0
:105190009A00186010939A0010919A001062109370
:1051A0009A0008951091CE04012F10919A00212F9A
:1051B00027FF02C0026011E010919A00212F25FF05
:1051C00002C0046011E0089500E00093CE04089549
:1051D0000E94457BC801D9012A018D01E8E6F0E073
:1051E000FBBFF5E10C94FA7AA2019D018C013CD33E
:1051F0003FC0A2019D018C019BD33AC0A2019D0139
:105200008C0134D435C092018C01ADD431C09201EF
:105210008C01CCD42DC092018C01F7D429C092010D
:105220008C017ED525C0A2019D018C01F4D620C041
:1052300045EB50E092018C010E947E3019C046EB94
:1052400050E092018C010E947E3012C047EB50E08A
:1052500092018C010E947E300BC044EB50E0920121
:105260008C010E947E3004C092018C010E94943017
:10527000E6E00C94567B0E94437BD8013901442E12
:10528000CB01863100E0900721F42DE43BE08D0155
:10529000B7D2803001E0900718F5FD0121813281FD
:1052A0008C01000F111F200F311FF90100811181A6
:1052B000012F10E05524F301E40DF51D0083FD01DD
:1052C000218132818C01000F111F200F311FF90144
:1052D000008111815524F301E40DF51D01830CC0FB
:1052E0000FEF5524F301E40DF51D00830FEF552456
:1052F000F301E40DF51D0183E8E00C94547B2223B7
:1053000011F0F8012383F8010381089562E0F801A8
:105310006383F80124833583F80146835783089516
:10532000F801122F115019F01A9521F006C01085BE
:10533000012F08951185012F08950FEF08950E9400
:10534000467BD801C901FD0104811581005110403F
:105350000650104008F470C00050104009F4C2C05C
:105360000A51104009F4F2C00350104009F4EEC095
:105370000350104009F4EAC00A51104008F43DC23D
:105380000750104008F4FCC00950104009F407C150
:105390000150104009F403C10150104008F44BC003
:1053A0000450104008F40AC10050104008F443C0F3
:1053B0000450104008F414C100501040E0F10052B5
:1053C000104008F41FC106501040A8F103501040CF
:1053D00008F42AC10050104070F10450104008F445
:1053E00032C10050104038F10450104008F43DC163
:1053F0000550104000F10550104008F448C100501D
:10540000104009F453C10150104009F465C1015026
:10541000104009F470C10D50104009F478C10150DA
:10542000104009F492C10150104009F4ACC1015080
:10543000104009F4C5C1E1C100E00C930C910630A5
:1054400078F5FD01018112812C9130E0220F331F8C
:10545000020F131FF80100A111A14AE050E00E94C1
:105460007C7A402E429400EF4022FD01018112819E
:105470002C9130E0220F331F020F131FF80100A1FF
:1054800011A14AE050E00E947C7A440E0C9110E099
:10549000FC01E00FF11F44820C9103950C93CECFD9
:1054A000FD01068117814AE050E00E947C7A402E7F
:1054B000429400EF4022FD01068117814AE050E04E
:1054C0000E947C7A440EFD0104811581FC01E00FED
:1054D000F11F3C97408202EBFD01008706E0FD01D1
:1054E00001878BC1FD0106811781012F10E0069510
:1054F000069506950695005D00934D0BFD0106810E
:105500001781012F10E00F70005D00934E0BFD011D
:105510000681178102950F70005D00934F0BFD010E
:10552000068117810F70005D0093500B01E000931E
:105530009E0600E010E0E4EAF6E0008311830DE44B
:105540001BE0E0EAF6E00083118357C1FD0106810C
:105550001781023020E0120731F401E7FD010087D6
:1055600000E0FD010187FD0106811781012B09F093
:1055700044C100E7FD01008700E0FD0101873DC156
:10558000FD01048115810F5CFD01008701E0FD0133
:105590000187FD0106811781FC0104832EC1FD01F5
:1055A000048115810F5CFD01008701E0FD01018789
:1055B000FD0106811781FC0104831FC104E9FD017F
:1055C000008702E0FD010187FD010481158101567C
:1055D000FC010483FD0106811781FC0105830DC1D7
:1055E00005E9FD01008702E0FD010187FD0104815D
:1055F00015810556FC010483FD0106811781FC011C
:105600000583FBC003E9FD01008702E0FD0101877E
:10561000FD01048115810956FC010483FD01068109
:105620001781FC010583E9C0FD01048115810F5E2E
:10563000FD01008701E0FD010187FD010681178161
:10564000FC010483DAC004EAFD01008702E0FD01E9
:105650000187FD01048115810259FC010483FD01CC
:1056600006811781FC010583C8C005EAFD0100879A
:1056700002E0FD010187FD01048115810659FC014D
:105680000483FD0106811781FC010583B6C0FD017D
:10569000048115810B5EFD01008701E0FD0101879A
:1056A000FD0106811781FC010483A7C0FD0104816F
:1056B00015810B5EFD01008702E0FD010187FD0100
:1056C00006811781012F10E0FC010483FD01068192
:1056D0001781FC01058391C0FD01048115810B5EDA
:1056E000FD01008701E0FD010187FD0106811781B1
:1056F000FC01048382C00DEBFD01008701E0FD0188
:105700000187FD0106811781FC01048376C00AEF41
:10571000FD01008700E0FD01018700E00C930C9182
:10572000013808F06AC00EEE1EEEFD0124853585B5
:105730004C9150E0440F551F240F351FF901008391
:1057400011830C9103950C93EACF0AECFD010087BD
:1057500000E0FD01018700E00C930C91013808F096
:105760004CC00EEE1EEEFD01248535854C9150E0B7
:10577000440F551F240F351FF901008311830C912D
:1057800003950C93EACF0AEDFD01008700E0FD01CF
:10579000018700E00C930C91013878F50EEE1EEEB7
:1057A000FD01248535854C9150E0440F551F240F91
:1057B000351FF901008311830C9103950C93EBCFF6
:1057C0000AEEFD01008700E0FD01018700E00C9377
:1057D0000C91013890F40EEE1EEEFD012485358506
:1057E0004C9150E0440F551F240F351FF9010083E1
:1057F00011830C9103950C93EBCFE5E00C94577B50
:105800005B2F0A2EB801F901208130E0322F20E011
:10581000330F330F330F330F018110E0005310406B
:10582000102F00E0200F311F028110E000531040C4
:1058300044E00E94767A200F311F038110E00F7040
:105840001070200F311FDB0111960D911C911297E2
:10585000D8019C962D933C939D97A02DB52F08952C
:10586000F8012687378708950E94457BC8012901E2
:10587000DA018201E0EEF0E0FBBFF5E10C94FA7A88
:10588000FD01248130E0FC010181128100561F4F8F
:10589000F8012083318349C0FD01248130E02F5F6E
:1058A0003F4FFC01018112810E551F4FF8012083EB
:1058B00031833BC0FD01248130E0FC010181128174
:1058C0000C551F4FF801208331832FC0FD01248127
:1058D00030E0FC01018112810A551F4FF80120833D
:1058E000318323C0FD01248130E0FC01018112815C
:1058F00008551F4FF8012083318317C0FD01248113
:1059000030E0FC010181128106551F4FF801208310
:1059100031830BC0FD01248130E0FC010181128143
:1059200004551F4FF80120833183E6E00C94567B29
:105930000E94457BD8012901CA018201E6EFF0E00F
:10594000FBBFF5E10C94FA7AFC01248130E0220FD0
:10595000331FFD010181128100541F4FF801208384
:10596000318381C0FC01448150E00AE010E00E94D4
:105970006E7AFD01218132812E533F4FF901008360
:10598000118371C000E00C930C91FC01138101178D
:1059900008F069C00C9110E0FC01E00FF11F448198
:1059A00050E00AE010E00E946E7AFD012181328110
:1059B0004C9150E0440F551F240F351F2C523F4F80
:1059C000F901008311830C9103950C93DDCF00E066
:1059D0000C930C91FC011381011708F044C00C9149
:1059E00010E0FC01E00FF11F448150E0FD01018156
:1059F00012812C9130E0220F331F020F131F0C5322
:105A00001F4FF801408351830C9103950C93E1CF14
:105A100000E00C930C91FC011381011720F50C910F
:105A200010E0FC01E00FF11F448150E0FD01018115
:105A300012812C9130E0220F331F020F131F0453E9
:105A40001F4FF801408351830C9103950C93E2CFD3
:105A5000FC01248130E0FD01018112810C5E1E4FAA
:105A6000F80120833183E6E00C94567B0E94457B4D
:105A7000D8012901CA018201EAE0F0E0FBBFF6E1AA
:105A80000C94FA7AFC01248130E0220F331FFD01CF
:105A900001811281005E1E4FF8012083318360C0B6
:105AA000FC01448150E00AE010E00E946E7AFD01A2
:105AB000218132812E5D3E4FF9010083118350C058
:105AC000FC01448150E00AE010E00E946E7AFD0182
:105AD000218132812C5D3E4FF9010083118340C04A
