:100000000C94F171189518951895189518951895E0
:100010001895189518951895189518951895189578
:10002000189518950C945E70189518951895189554
:100030000C948E6F18951895189518950C94676FF9
:1000400018951895189518950C94F8320C946633F9
:100050001895189518951895189518951895189538
:100060001895189518951895189518951895189528
:1000700018951895189518950C942A340C94943466
:100080000C946E34189518951895189500C18140F8
:1000900001C0804101C0804100C1814001C0804158
:1000A00000C1814000C1814001C0804101C0804148
:1000B00000C1814000C1814001C0804100C1814038
:1000C00001C0804101C0804100C1814001C0804128
:1000D00000C1814000C1814001C0804100C1814018
:1000E00001C0804101C0804100C1814000C1814008
:1000F00001C0804101C0804100C1814001C08041F8
:1001000000C1814000C1814001C0804101C08041E7
:1001100000C1814000C1814001C0804100C18140D7
:1001200001C0804101C0804100C1814000C18140C7
:1001300001C0804101C0804100C1814001C08041B7
:1001400000C1814000C1814001C0804100C18140A7
:1001500001C0804101C0804100C1814001C0804197
:1001600000C1814000C1814001C0804101C0804187
:1001700000C1814000C1814001C0804100C1814077
:1001800001C0804101C0804100C1814000C0C10167
:10019000C30302C2C60607C705C5C404CC0C0DCDF7
:1001A0000FCFCE0E0ACACB0BC90908C8D81819D967
:1001B0001BDBDA1A1EDEDF1FDD1D1CDC14D4D51597
:1001C000D71716D6D21213D311D1D010F03031F187
:1001D00033F3F23236F6F737F53534F43CFCFD3DB7
:1001E000FF3F3EFEFA3A3BFB39F9F83828E8E929A7
:1001F000EB2B2AEAEE2E2FEF2DEDEC2CE42425E557
:1002000027E7E62622E2E323E12120E0A06061A1C6
:1002100063A3A26266A6A767A56564A46CACAD6D76
:10022000AF6F6EAEAA6A6BAB69A9A86878B8B979E6
:10023000BB7B7ABABE7E7FBF7DBDBC7CB47475B516
:1002400077B7B67672B2B373B17170B05090915106
:100250009353529296565797559594549C5C5D9D36
:100260005F9F9E5E5A9A9B5B995958988848498926
:100270004B8B8A4A4E8E8F4F8D4D4C8C44848545D6
:10028000874746868242438341818040380C010281
:1002900041A042A1E045A3A4A5A64BA74D484FA865
:1002A000504354A9AA58E1ABACE2ADAE62AFB0B1D5
:1002B00061B2B3B4E365B6B7B8B9BABBBCBD6FBE83
:1002C0007063BF79E478E5C0C1E6C2C3C4C5C6C7E0
:1002D000EEF8E8E12EC0CA2000E0E2F2EE2EC0CA3D
:1002E0002000E0E2F2EE2EC0CA2000F3F1EA2EC0B8
:1002F000CA202000E2FBEAEB2EC0CA2000EFF0EE9D
:10030000E22EC0CA2000E8F1EFFBF22EC0CA00EFD7
:10031000F3F1EA20C0CA2000EDEEF0EC2EC0CA20B6
:1003200000E1E5E3EB2EC0CA2000EEE4EDEEF12E95
:10033000C0CA00D002D902E202EB02F402FD0206BA
:10034000030F03180321032A03EEF8E8E12E00E06F
:10035000E2F2EE2000E0E2F2EE2000F3F1EA2E20DD
:1003600000E2FBEAEB2E00EFF0EEE22E00E8F1EF08
:10037000FBF200EFF3F1EA2000EDEEF0EC2E00E1ED
:10038000E5E3EB2E00EEE4EDEEF10049034F0355FB
:10039000035B03610367036D03730379037F0385C5
:1003A00003C0CA2D00CDE5F220F1E2FFE7E820F11D
:1003B00020C1D1CF2020202020002020C8EDE8F649
:1003C000E8E0EBE8E7E0F6E8FF202020202000311D
:1003D0002EC6F3F0EDE0EB2E00322EC4E0F2E02F5B
:1003E000E2F0E5ECFF2E00332ED3EFF0E0E2EBE598
:1003F000EDE8E52E00342ED3F1F2E0EDEEE2E8F286
:10040000FC2E00352ECFF0EEF1ECEEF2F020EFE016
:10041000F0E0EC2E00362EC0E2F2EEEAEEEDF2F065
:10042000EEEBFC2E00372ECFF0EEF2EEEAEEEB2EE6
:1004300000CF03D903E703F50303041504250431B2
:100440002E20C4E0F2E02E2020202020202020209A
:1004500020202000322E20C2F0E5ECFF2E202020AC
:10046000202020202020202000C6F3F0EDE0EB200B
:1004700000F1EEE1FBF2E8E900E7E0F9E8F2FB0069
:10048000EFF0E8E5ECEDE8EAE000EFE5F0E5E4E0C8
:10049000F2F7E8EAE00071048A0480047904D7F2F4
:1004A000E5EDE8E520E0F0F5E8E2E02E00CFCC0055
:1004B000CFC400D1C100C7D900B304B004AD04B6A5
:1004C00004CEC1D900CFE5F0E5E72E00CFE5F0E599
:1004D000E7E0EF2000CDE0F7E0EBEE2000CAEEED24
:1004E000E5F62000EAEEECE0EDE4FB00312ED0E58D
:1004F000E6E8EC2E00322ECFE0F0E0ECE5F2F0FB87
:100500002E00332ECFE0F0EEEBFC2E00342ED2E5A1
:10051000F1F22E00EC04F50402050C05C7E0F9E841
:10052000F2E02E00CFF0E8E5ECEDE8EA2E00CFE5B2
:10053000F0E5E4E0F2F7E8EA2E00CEE1F9E8E52E96
:1005400000CFF0E8E5ECEDE8EA20312E00CFF0E84E
:10055000E5ECEDE8EA20322E00D2E8EF20C7E0F922
:10056000E8F2FB00D2E8EF20CBE8EDE8E800C4EECB
:10057000EF2E20E2F0E5ECFF20E1E5E720ECE0EDF6
:100580002E00C7E0E4E5F0E6EAE020EDE020EBE84D
:10059000EDE8E820202000CFE5F0E5EAF0FBF2E806
:1005A000E520E8ECEFF3EBFCF1EEE200C7E0E3F06E
:1005B00020F7F3E2F1F2E2E8F220EFEE2020D0C7DC
:1005C00000D1EDE8E6E5EDE8E520F3F0EEE2EDFF41
:1005D00020C0CA202000D7E0F1F2EEF2E020CFD018
:1005E000C400D7E0F1F2EEF2E020CFD0CC00D1E4AD
:1005F000E2E8E320EFE5F02EF4F0EEEDF2E020CFBC
:10060000D0C400D1E4E2E8E320E7E0E42EF4F0EE29
:10061000EDF2E020CFD0C400D1E4E2E8E320CFD077
:10062000CC00D1E4E2E8E320C2D720CFD0C420EE52
:10063000F220CFD3D1CA00590564056E0582059713
:1006400005AC05C105D605E205EE05030618062230
:1006500006C7E0E4E5F0E6EAE020EDE020E2EAEBC0
:100660002E2020202000C4EBE8F2E5EBFCEDEEF1BB
:10067000F2FC20EAEEECE0EDE4FB00C7E0E4E5F09C
:10068000E6EAE020EDE020E2FBEAEB2E2020EA00A3
:10069000C1EBEEEA2E20EAEEECE0EDE4FB20203F99
:1006A0002E2E3F2000C4EBE8F22E20EAEEECE0ED27
:1006B000E4FB20203F2E2E3F2000510666067B06DD
:1006C0009006A506C2F0E5ECFF20EDE020EFEEE29B
:1006D000F22E20EAEEEC2E2000C1EBEEEA2E20EA0C
:1006E000EEECE0EDE4FB20203F2E2E3F2000C4EB9B
:1006F000E8F22E20EAEEECE0EDE4FB20203F2E2E87
:100700003F200051066606C406D906EE06D1EEE289
:10071000ECE5F1F2E8ECEEF1F2FC0043E8EDF5F087
:10072000EEEDE8E7E0F6E8FF20F7E0F1EEE2005555
:10073000E2FBF520EDEEECE8EDE0EBFCEDEEE500A4
:10074000D3E4E5F0E6E0EDE8E520F0E5EBE520CFE9
:10075000D0C400D1E5F2E5E2EEE920E0E4F0E5F115
:1007600000C2F0E5ECFF20EFE5F0E5E7E0EFF3F1A4
:10077000EAE000D7E0F1F2EEF2E000CDEEECE5F0D9
:1007800020E0EFEFE0F0E0F2E000CAEEEDF2F0EE94
:10079000EBFC20E2FBF52EF1E8E3EDE0EBE000CF2F
:1007A000EEF0EEE320CFD0C5C4D3CFD020EFEE20C3
:1007B000CAD72000C7E0E3F020F7F3E2F1F2E2E865
:1007C000F220EFEE2020CAD700CAEEF0F0E5EAF6FC
:1007D000E8FF20EDE0EFF0FFE6E5EDE8FF00CAEE10
:1007E000F0F0E5EAF6E8FF20F2EEEAE000CFEEF006
:1007F000EEE320CFD0C5C4D3CFD020EFEE20D0C7BA
:100800002000CFF0EEF2EEEAEEEB20EEE1ECE5EDCB
:10081000E000CFF0E8E7EDE0EA20F7E5F2EDEEF1F9
:10082000F2E800C4EEEFF3F1F2E8ECFBE520EFF0C4
:10083000EEE2E0EBFB00CFEEF0EEE320EFEE20EF98
:10084000EEECE5F5E500C4EEEFF3F1F2E8ECE0FFE5
:1008500020EFEEECE5F5E000D2E8EF20E0E2F2EE8A
:10086000EAEEEDF2F0EEEBFF00D0E5E7E5F0E2E8CE
:10087000F0EEE2E0EDE8E500D1EDE8E6E5EDE8E5F3
:1008800020EEF2E2E5F2E020C0CA202000CFE5F041
:10089000E8EEE420E1E5E3EBEEE3EE20C0CA00CFB2
:1008A000E5F0E8EEE420EFEEE2F22EE1E5E3EB2EF8
:1008B00020C0CA00CAEEF0F0E5EAF6E8FF20E2F058
:1008C000E5ECE5EDE820C0CA00CFEEF0EEE320E075
:1008D000E2E0F0E8E820EFEE20CAD7000D071B07A2
:1008E0002F0740075307610773077B078A079F0796
:1008F000B407C907DE0702081208230836084608AD
:100900005808690878088D089F08B408C908ED07D9
:10091000C0C2C0CDD220D034303000CFC2C72D39B4
:100920003000C0C2C7CA2D383000CFC2C7D32DC5D2
:1009300000CFC2C7CB00CBC8CDC8DF2DD000CFC2FF
:10094000C7CA00CFC2C7D300CFC2C700EEF8E8E1E4
:10095000EAE00010091B0922092A09310936093E7B
:1009600009430948094C09C7C0D900CFD0CC00CFF2
:10097000CC3100CFCC3200CFD0C400C2FBE2E5E4E2
:100980002000C3EEF2EEE22000C2E2E5E4E5ED0075
:10099000D0E5F7FC202000D2E5F1F2203100D2E5CD
:1009A000F1F2203200D2E5F1F22033007B09820916
:1009B0008909900997099E09A5093F3F3F3F0020FB
:1009C0002020C7E0EFF3F1EA20F2E5F1F2E0202089
:1009D000202020002020CFEEE4EEE6E4E8F2E5203F
:1009E0003F20F1E5EA20202000CFF0EEF2EEEAEE23
:1009F000EB00D1F2E0EDE4E0F0F2004D6F644275FF
:100A00007300F209FB09C7C0D93A00CFD0CC3A0035
:100A1000CFCC313A00CFCC323A00CFD0C43A003FED
:100A20003F3F3F2020202000CDE5E8F1EFF02020DF
:100A300000CFF0E5E4F3EFF02000C2FBE2E5E4E5EF
:100A4000ED2000C3EEF2EEE220202000C2E2E5E459
:100A5000E5ED202000D0E5F7FC2020202000D2E5A5
:100A6000F1F23120202000D2E5F1F23220202000E6
:100A7000D2E5F1F233202020003A0A430A4C0A550D
:100A80000A5E0A670A3A0A4C0A3A0A5E0A670A705C
:100A90000A3A0A4C0A5E0A670A700AC8F1F5EEE4DF
:100AA000ED2E2000CAEEEDF2F0EEEBFC00CFF3F1FC
:100AB000EA2020202000D0E0E1EEF2E0202000CD6E
:100AC000E5E8F1EFF02E2000CF2EEDE5E8F1EFF0B4
:100AD00000CEE6E8E4E0EDE8E500CDE0EB2EEFF354
:100AE000F1EA00D3E42EEFF3F1EA2000CDE5F220A5
:100AF000D0C7202000D0E5F7FC2020202000D2E540
:100B0000F1F220202020009B0AA40AAD0AB60ABFF9
:100B10000AC80AD10ADA0AE30AEC0AF50AFE0AC888
:100B2000F1F5EEE4ED2E2000CFD0CC20CAD7202066
:100B300000CFD0CC20CFC0202000CDE5F220CAD7F6
:100B4000202000CDE5E8F1EFF02E2000CF2EEDE5DE
:100B5000E8F1EFF000CEE6E8E4E0EDE8E500C1CB37
:100B6000CA20CACC2020003F307830383F202000F7
:100B70003F307830393F2020003F307830413F20EF
:100B80002000D2E5F1F220202020001F0B280B319D
:100B90000B3A0B430B4C0B550B5E0B670B700B7931
:100BA0000B820BC8F1F5EEE4ED2E2000CFD0C4206F
:100BB000CAD7202000CFD0C420CFC0202000CDE550
:100BC000F220CAD7202000CDE5E8F1EFF02E20007A
:100BD000CF2EEDE5E8F1EFF000CEE6E8E4E0EDE859
:100BE000E5003F307830373F2020003F3078303804
:100BF0003F202000D1E8F1F2E5EC2E20003F3078D4
:100C000030413F202000D2E5F1F22020202000A337
:100C10000BAC0BB50BBE0BC70BD00BD90BE20BEB20
:100C20000BF40BFD0B060C672D006C2D00C2E2EEE1
:100C3000E43A00CFE0F0EEEBFC3A00CDEEE2FBE967
:100C400020EFE0F0EEEBFC3A00C7EDE0F7E5EDE871
:100C5000E53A2000C4D4C72DCFF0CFE4202000C453
:100C6000D4C72DCFF0ECCCCA3100C4D4C72DCFF0FF
:100C7000ECCCCA3200C4D4C72D4C36302020200022
:100C8000CDC72DCFF0CFE420202000CDC72DCFF051
:100C9000EC2DCCCA2000CFCFC72DCFF0CFE4202041
:100CA00000CFCFC72DCFF0EC2DCCCA00EEF8E8E195
:100CB000EAE02020202000540C5F0C6A0C750C80A8
:100CC0000C8B0C960CA10CAC0CE2FBEAEB2E00E2B8
:100CD000EAEB2E003F3F3F3F00C90CCF0CD40C3F46
:100CE0003F3F3F00E1FBF1F2F0FBE900ECE5E4EB14
:100CF000E5EDEDFBE900DF0CE40CEC0CDF0C3F3F15
:100D00003F3F00E2EAEB2E00E2FBEAEB2E00FE0C96
:100D1000030D080DFE0C3F3F3F20E3F0E0E4003FF1
:100D20003F3F20F1E5EA003F3F20E3F0E0E4003FF1
:100D30003F20ECE8ED003F3F3F3F00F2F0E5E2EE00
:100D4000E6EDFBE900EDEEF0ECE0EBFCEDFBE9009D
:100D5000F1EFEEEAEEE9EDFBE900360D3B0D450D56
:100D6000500D360D2D3130303020C3F6002D35308A
:100D70003020C3F6002B3020C3F6002B3530302056
:100D8000C3F6002B3130303020C3F600EEF8E8E136
:100D9000EAE000640D6D0D750D7B0D830D8C0DC4A7
:100DA000E8E0EFE0E7EEED3A2000EDE5F220E4E0E8
:100DB000EDEDFBF500F1EFE8F1EEEA0000000700D1
:100DC00001000200030001000000630001000000B8
:100DD00012000100120036000100000016000100A0
:100DE00000000100010000000400010000000400F8
:100DF0000100000048000100000048000100000060
:100E00004800010000004800010001000900010045
:100E100000000A000100010032000A000000640026
:100E20000A000000FF0001000000FF0001000000B8
:100E30000A000100010032000A00010032000A002D
:100E40000000FF0001000000FF000100000008009A
:100E50000100000001000100080032000100000054
:100E6000020001000000FF00010000000500010079
:100E70001000E80301000100030001000000010070
:100E80000100000016000100000016000100000033
:100E9000E70301000000E703010001000200010078
:100EA0000100020001000000500001000000FF00EE
:100EB00001001400500001000100030001000000C7
:100EC000010001000000140001000100FF0001000A
:100ED0000100FF00010000001400010000001600E6
:100EE0000100302E302E2E39392E3900CFF0EEF899
:100EF000E8E2EAE020CFC8204D4355202000CFF0A3
:100F0000EEF8E8E2EAE020C1D1CF204D43552000C1
:100F1000CFF0EEF8E8E2EAE020C1D1CF2044535010
:100F20002000CFF0EEF8E8E2EAE020C1D1C720CF00
:100F3000CBC8D100C4EEEFEEEBED2E20EFE0F0E0F9
:100F4000ECE5F2F0FB00C2E8E420EFE0F0E0ECE5D5
:100F5000F2F0E000EC0EFE0E100F220F340F460FE1
:100F6000C5F1F2FC00CDE5F200650F600FF1F2E093
:100F7000EDE4E0F0F20048455800760F6D0F2ED1F9
:100F8000E1F0EEF120F1E2EEE5E3EE2E202020206C
:100F900020002ED1E1F0EEF120F3E4E0EBE5EDED01
:100FA000EEE3EE2E20002ED1E1F0EEF120F3E4E0AE
:100FB000EBE5EDEDEEE3EE2031002ED1E1F0EEF1C8
:100FC00020F3E4E0EBE5EDEDEEE3EE2032002ED190
:100FD000E1F0EEF120F3E4E0EBE5EDEDEEE3EE2001
:100FE00033002ECFF3F1EA20F3E4E0EBE5EDEDEE94
:100FF000E3EE2E2020002ECFF3F1EA20F3E4E0EB25
:10100000E5EDEDEEE3EE203120002ECFF3F1EA2006
:10101000F3E4E0EBE5EDEDEEE3EE203220002ECF41
:10102000F3F1EA20F3E4E0EBE5EDEDEEE3EE20335F
:1010300020002ECFF3F1EA20F3E4E0EBE5EDEDFB49
:10104000F520202020002EC0CA20E0E2F2EEECE0E5
:10105000F2E8F7E5F1EAE8E920002EC0CA20F3F152
:10106000EAEEF0E5EDEDFBE92020202020002EC087
:10107000CA20E2FBEAEBFEF7E5ED2020202020204D
:1010800020002EC0CA20EAEEEDF2F02EEFF0EEE2E4
:10109000E5F0EAE020002EC0CA20E8F1EFFBF2E024
:1010A000EDE8FF202020202020002EC0CA20EFF3F2
:1010B000F1EA2020202020202020202020002EC205
:1010C000FBE7EEE2202020202020202020202020EE
:1010D00020002EC0CA20EDEEF0ECE0EBFCEDFBE9C9
:1010E0002020202020002EC0CA20E1E5E3EBFBE910
:1010F000202020202020202020002ECFF3F1EA20E5
:10110000F3E4E0EBE5ED2E20CCC0CD2020002EC096
:10111000CA20EEE4EDEEF1F2EEF0EEEDEDE8E920BE
:1011200020002EC0CA20F1E1F0EEF1202020202086
:101130002020202020002ECFF3F1EA20C0CA20F189
:10114000E2EEE9202020202020002ECFF3F1EA203B
:10115000C0CA20F3E4E0EBE5EDEDFBE920002ECF83
:10116000F3F1EA20CFD0C42020202020202020200E
:1011700020002ECFF3F1EA20EDE0EBE0E42E20E2B8
:10118000EAEB2E2020002ECFF3F1EA20EDE0EBE099
:10119000E42E20E2FBEAEB2E20002ECFF3F1EA2032
:1011A000F3E4E0EB2E20CCC0CD20312020002ECF68
:1011B000F3F1EA20F3E4E0EB2E20CCC0CD20322086
:1011C00020002ECFF3F1EA20F3E4E0EB2E20CCC098
:1011D000CD20332020002ECFF3F1EA20F3E4E0EB22
:1011E0002DFBF520CCC0CD2020002ECFF3F1EA203E
:1011F000F3E4E0EBE5EDEDEEE3EE203420002ECF5E
:10120000F3F1EA20F3E4E0EB2E20CCC0CD20342033
:1012100020002EC0CA20E7E0EFF0EEF120202020D1
:101220002020202020007E0F920FA60FBA0FCE0F95
:10123000E20FF60F0A101E10321046105A106E10F0
:1012400082109610AA10BE10D210E610FA100E11DD
:10125000221136114A115E11721186119A11AE11C6
:10126000C211D611EA11FE111212C2FBEFEEEBED24
:10127000E8F2FC006A1220202020204572726F7272
:1012800020202020202000CDE5E8F1EFF02EF7F21D
:101290002E20464C41534800CDE5E8F1EFF02EE713
:1012A000E0EF2E464C41534800CDE5E8F1EFF02E3B
:1012B000F7F22E20504C49532000CDE5E8F1EFF035
:1012C0002EE7E0EF2E504C49532000CDE5E8F1EF3A
:1012D000F02EE7E0EF2E3252414D2000CDE5F22016
:1012E000F1E8E3EDE0EBE020CFD0CC2000C0CA2D48
:1012F000D1EDE8E6E5ED2EE7E0EFE0F1E000CFEE3E
:10130000ECE5F5E020E220EBE8EDE8E8202000CD78
:10131000E5E8F1EFF02E445350203252414D2000C9
:10132000CDE5E8F1EFF02EF7F22E203252414D20BC
:1013300000D2EEEA20EFEEEAEEFF2020202020206F
:101340002000CDE8E7EAEEE520EDE0EFF02EE2FB4D
:10135000F52E00C2FBF1EEEAEEE520EDE0EFF02E17
:10136000E2FBF500CDE5E8F1EFF02E20CCCA20D36A
:10137000CC20202000C2D720F2F0E0EAF220E2EEFA
:10138000F1F1F22E200087129812A912BA12CB1294
:10139000DC12ED12FE120F132013311342135313FC
:1013A000641375137612C0CA2DCDE5F220EEF2E279
:1013B000E5F2E000D3F1F2E0EDEEE2E8F2E520F74D
:1013C000E0F1FB2000CEF2EAE0E720F0E5E7E5F00F
:1013D000E22EEBE8ED00D3E4E0EB2EEFEEF1F220AD
:1013E000EDE5E8F1EFF000D3E4E0EB2ECFD0C42040
:1013F000EDE5E8F1EFF02E00D3E4E0EB2ECFD0CC1A
:1014000020EDE5E8F1EFF02E00B413C51376127667
:1014100012D613E713F81376122020200020312073
:1014200000203220003120320020332000312033D0
:101430000032203300203F200019141D14211425F0
:101440001429142D1431143514CDE5F220E1EBEEFE
:10145000EAE020C1D1C720202000CDE5E8F1EFF07F
:101460002EE2E5F0F12EC1D1C72000CDE5E8F1EF85
:10147000F02EEFE5F0E5EAEB2E202000C4E0EBFCD7
:10148000EDE8E920202020202020202000CDE5F2DA
:1014900020F1E8E3EDE0EBE020CFD0CC2000CDE878
:1014A000E7EAE8E920F3F02E20D0C720202000CD85
:1014B000E5E8F1EFF02EF3E42EC4D4C700CDE5E863
:1014C000F1EFF02EF3E42EC2DBD500CDE5E8F1EF2D
:1014D000F02EE2F5EEE42ECFD3D1CA00CDE5E8F14F
:1014E000EFF02EE2F5EEE42ED1D2CECF00D3E4E041
:1014F000EB2EE1E5E720EEF2E22E00CDE5E8F1EF9C
:10150000F02EF6E5EFFC2EC2DBD52000D3E4E0EBB5
:101510002EEEE1ED2EEFEEEC2E00CDE5E8F1EFF052
:101520002EE7E0EF2E20C2DBD52000CFEEECE5F574
:10153000E020E220EBE8EDE8E8202000CDE5E8F14E
:10154000EFF02E20C4D4C7200049145A146B147C29
:10155000148D149E14AF14BD14CB14DC14ED14FBC5
:10156000140C151A152B153C15C0CA2DCDE5F2200B
:10157000EEF2E2E5F2E000C0CA2DD1ED2EE7E0EF99
:10158000E0F1E02000CDE5F220F1E8E3EDE0EBE072
:1015900020CCC0CD2000CFEEF0EEE320EFEE20EF28
:1015A000EEECE5F5E52000C0E2F2EEEAEEEDF2F059
:1015B000EEEBFC2020202000CFEEECE5F5E0202033
:1015C000202020202020202000D7E0F1FB20202018
:1015D00020202020202020202000CDE5F220E1EB5B
:1015E000EEEAE020C1D1CA20202000CDE5E8F1EFED
:1015F000F02EE2E5F0F12EC1D1CA2000CDE5F220B7
:10160000CAD72020202020202020202000CFF0E555
:10161000E22EE4EB2DF1F2E82EEAEEEC2E00CDE521
:10162000E8F1EFF02EE7E0EF2E20C1D1CA2000CD87
:10163000E5E8F1EFF02EE2FBEAEB2ECAD1CA20007A
:10164000CDE5E8F1EFF02EE2EAEB2E20CAD1CA2078
:1016500000CDE5E8F1EFF02EEAEEEDF2F02ECAD182
:10166000CA00CFF0E5E4F3EFF02EEDE5F220CAD7A3
:10167000312000CFF0E8E5EC20E1EBEEEA2E20CAC5
:10168000EEEC2E00DA15EB15FC150D16761276121F
:10169000761276121E162F16401651166216761204
:1016A00076127316D1EDE8E62E20F3F0EEE2EDFFB0
:1016B00020CFD0CC00CDE5F220E1EBEEEAE020C176
:1016C000D1CA20202000CDE5E8F1EFF02EE2E5F0D0
:1016D000F12EC1D1CA2000CDE5E8F1EFF02EF7F2EE
:1016E0002EEAEEECE0EDE400CDE5E8F1EFF02EE2DD
:1016F000FBEAEB2ED2E5F1F200CDE5E8F1EFF02EBA
:10170000E2EAEB2E20D2E5F1F200CDE5E8F1EFF0D0
:101710002EE2F5EEE42ECAD1CA2000B516C6167622
:101720001276127612761276127612D716E816F91B
:10173000160A177612761276127612C3F0313A0034
:10174000C3F0323A00C3F0F3EFEFE0203100C3F012
:10175000F3EFEFE02032004517014E1702E2FBEAFB
:10176000EB00EEF8E8E100D0C700CAD73100CAD7D5
:101770003200CAD73300CAD73400CAEEEC3100CAEF
:10178000EEEC3200CAEEEC3300CAEEEC3400CAEEE6
:10179000EC3500CAEEEC3600CAEEEC3700CAEEECCF
:1017A0003800CAEEEC3900CAEC313000CAEC3131F5
:1017B00000CAEC313200CAEC313300CAEC313400DB
:1017C000CAEC313500CAEC313600CAEC313700CAF8
:1017D000EC313800CAEC313900CAEC323000CAECC6
:1017E000323100CAEC323200CAEC323300CAEC3279
:1017F0003400CAEC323500CAEC323600CAEC32375B
:1018000000CAEC323800CAEC323900CAEC3330007E
:10181000CAEC333100CAEC3332006217FF5D1700A7
:101820006717016A17016E17027217037617047A99
:1018300017037F17048417058917068E1707931758
:10184000089817099D170AA2170BA7170CAC170DBC
:10185000B1170EB6170FBB1710C01711C51712CA54
:101860001713CF1714D41715D91716DE1717E31748
:1018700018E81719ED171AF2171BF7171CFC171D9C
:1018800001181E06181F0B1820101821151822D237
:10189000E5F1F2203100D2E5F1F22032008F189606
:1018A00018CEF8E8E1EAE02020202000CDE5E8F1BC
:1018B0002E464C41534800C2D720E2EEF1F1F22E01
:1018C0002000CDE5E8F1EF2E504C495300C0E2F284
:1018D000EEEAEEEDF2F02E00D2EEEA20EFEEEAEEC6
:1018E000FF2000CDE5E8F1EF2E3252414D00CD2E24
:1018F000F0E0E12E4453502000C2EEF1F22EF02E23
:1019000044535000CDE8E7EA2E2055E2FBF500C233
:10191000FBF12E2055E2FBF52000CD2EF1E22E202A
:10192000F120D3CC00CDE5E8F12EF7E0F1EEE200B6
:10193000CDE5F220E1EB2EC1D1C700CD2EE2E5F0DE
:10194000F12EC1D1C700CD2EEFE5F02E20C1D1C7B9
:1019500000CDE5F220F12E20CCC0CD00CFE5F0E5A2
:10196000E7E0EFF3F1EA00C8E7EC2EF0E5E6E8EC9B
:10197000E000CD2EF6E5EFE820C2DBD500C8E7ECAD
:101980002E20EFE0F0E0EC00C0CA2DF1ED2EE7E0F4
:10199000EF2E00C0CA2DEDE5F220EEF2E200CDE51B
:1019A000F220F12ECFD3D1CA00EDE5F220F12ED1F5
:1019B000D2CECF00C2FBEAEBFEF7E5EDE8E500CFC3
:1019C000EEECE5F5E02020202000CDE5E8F1EFF099
:1019D0002EC4D4C700D3E43A20CDE5F220C0CA001B
:1019E000D3E43A20CFEEECE5F5E000D3E43A20CDA5
:1019F0002E20C4D4C700D3E43A20CD2E20C2DBD59C
:101A000000CFEEF02E20EFEEECE5F500D7E0F1FB95
:101A100020202020202000C4E0EBFCEDE8E920207D
:101A200020005F00D1E2FFE7FC20F120CFCA002EAA
:101A30000030303030000100E6100A00DA0EF40EFB
:101A40004D0F730FB90F041055106C107E109010CD
:101A50001100DB110C00F9102A117011AA11C31129
:101A6000DB11DB11F9102A117011AA11C311350015
:101A70006E1E0900631A761AA21A131B181B8C1CFF
:101A8000B11DD91D5C1E0000193D1900C83CC83CA1
:101A9000CA3CC83CCA3CCA3CCA3CCA3CC83CCA3C1A
:101AA000CA3C133DCA3CC83CC83CCA3CCA3CCA3CC0
:101AB000C83CC83CCA3CCA3CCA3CCA3CCA3C0100FF
:101AC0003D3E1700013E2A3E2D3E2D3E2D3E2D3E31
:101AD000303E303E303E303E343E343E373E373E80
:101AE000373E373E3D3E2D3E2D3E343E3B3E2D3E65
:101AF0002D3E0000B0400D00C93FD93FE93FF93FFE
:101B00000D402140354045405540654078408B4070
:101B10009E4000000F4519005243624372438243C6
:101B20009243A243B243C243D243E243F5430A4441
:101B300020442C443F445244654478448B449E44A2
:101B4000B144C444D744EA44FD4407017551D95017
:101B500001E45001EE5001EE5001F8500102510134
:101B60000251041251011C51011C51062C51012C2F
:101B700051013651013E51014C51015651055E5102
:101B80001666517D6E51FB002301A758A1580D77B1
:101B90005701535401845401EE54016055013A56E3
:101BA000015256012057012F57016F570A895701DB
:101BB000135801A458087F57088C57FB0101A858F7
:101BC0006855017B55027E55018255018555018D71
:101BD0005501B65501FB55011E56028955018D551B
:101BE00001B65501FB55011E56063256013656FB0D
:101BF0000101A8585A56016D5605705601995601B3
:101C0000E05601045703705601995601E05601044D
:101C100057061857011C57FB0700725A10008459C9
:101C2000E359215A9E59725A725A8459E359215ADA
:101C30009E59725A725A345A395A3E5A6D5A010094
:101C4000235C0C001A5B1A5B225B3E5B3E5B235CF1
:101C5000235C1A5B1A5B225B3E5B3E5B000101DD8D
:101C60005F435F01B55F02BD5F04C55F08CD5F10D4
:101C7000D55FFB000100126D17000561FC61316248
:101C800048628F62E8621C63276729683864B3651D
:101C9000E8621C63276729683864126DD268F068AF
:101CA0006B69256A446CAD6C000033640D0085637C
:101CB00095639D63A563B563C563D563E563F5630C
:101CC00005640D6415641D640000AF65190085642A
:101CD0009564A564AD64BD64C464CC64D464DC6400
:101CE000EC64F4640465046521653165416549650A
:101CF00051655965696579658165896591659965FC
:101D00007B3B30E042E007C050E0F801E40FF51FF4
:101D10005081350F43954217B8F3032F0895E1E141
:101D2000F5E02081206120830093940501E0009379
:101D300095051093960525E002E915E0E2DF10E035
:101D400000930D0510930E0500910D050093970566
:101D500006E00E949C3308959A938A93812FE1E1D3
:101D6000F5E0108110611083009394058093950530
:101D7000282F2C5F02E915E0C4DF10E000930D0569
:101D800010930E0500910D0590E0FC01EE56FA4F00
:101D900004838B5F082F0E949C3389919991089549
:101DA0000E94FF7260901605E6E3F0E0FBBFFAE1E7
:101DB0000C94B7727724ECEBFDE00591149160165A
:101DC000710640F0EEEBFDE00591149177240615C5
:101DD000170538F4EEEBFDE0059103950093FB0445
:101DE000F5C16092FB04F2C16394E2ECFDE0059161
:101DF000202FE4ECFDE0059110910909133009F45E
:101E000008E0621610F0061520F40FE30093A30318
:101E1000DDC1062D005D0093A3030091E2090615C4
:101E2000D9F16092E209009109090330A9F4009107
:101E3000E209043088F001E007C020E010E0F8017A
:101E4000EA57FC4F248303950930B8F41091E20956
:101E5000101798F321E0F2CF01E007C020E010E076
:101E6000F801EA57FC4F24830395093030F41091B0
:101E7000E209011798F721E0F2CF0E94D62F0E94C5
:101E8000CA250E94CC2901E00E949F2A0E94862D2B
:101E90000E94662F0E94D62F99C17724E8ECFDE0BE
:101EA000059114916016710640F0EAECFDE0059191
:101EB000149177240615170538F40FE30093AE0349
:101EC0000FE30093AF0382C14AE0062D0E940D721A
:101ED000005D0093AE034AE0062D0E940D72405D46
:101EE0004093AF0373C10091E109013039F4EEEC86
:101EF000FDE08591E0EDFDE0A59102C080E0A6E364
:101F0000681610F0A61538F40FE30093B7030FE33B
:101F10000093B8030EC04AE0062D0E940D72005DCA
:101F20000093B7034AE0062D0E940D72405D409376
:101F3000B8030091E2090330D9F4609017056816E0
:101F400010F0A61538F40FE30093BF030FE30093DE
:101F5000C0033CC14AE0062D0E940D72005D009353
:101F6000BF034AE0062D0E940D72405D4093C003FE
:101F70002DC180E0A8E4442421C04AE0062D0E943F
:101F80000D72005D242D30E0220F331FF901E15066
:101F9000FC4F20813181F90100834AE0062D0E9427
:101FA0000D72405D042D10E0000F111FF801E1508B
:101FB000FC4F00811181F8014183439404E04016F5
:101FC00010F55524F201EE5EFA4F6480681610F0A9
:101FD000A61598F62FE3042D10E0000F111FF8014D
:101FE000E150FC4F00811181F80120832FE3042D83
:101FF00010E0000F111FF801E150FC4F008111812A
:10200000F8012183DACFE2C07724EAEDFDE0059103
:1020100014916016710640F0ECEDFDE0059114910D
:1020200077240615170538F40FE3009307040FE330
:10203000009308040EC04AE0062D0E940D72005D58
:10204000009307044AE0062D0E940D72405D409304
:1020500008040091E209033039F5609017057724F0
:10206000EAEDFDE0059114916016710640F0ECED8B
:10207000FDE00591149177240615170538F40FE358
:1020800000930D040FE300930E04A0C04AE0062D58
:102090000E940D72005D00930D044AE0062D0E941F
:1020A0000D72405D40930E0491C07724E0EEFDE098
:1020B000059114916016710640F0E2EEFDE0059185
:1020C000149177240615170520F402E000931704F5
:1020D0007DC0609217047AC0E8EEFDE0059114918E
:1020E00077240615170538F4E8EEFDE00591039511
:1020F00000931D046BC060921D0468C0EEEEFDE00D
:102100000591149177240615170538F4EEEEFDE0DD
:102110000591039500931E0459C060921E0456C099
:102120007724EAE0FEE0059114916016710640F014
:10213000ECE0FEE00591149177240615170520F4D4
:1021400000E0009344083FC06092440800910A09EF
:10215000002321F400910A090930A8F50091170520
:1021600010E020E0322F212F102F00E040911805C1
:1021700050E060E070E0040F151F261F371F322F5C
:10218000212F102F00E04091190550E060E070E031
:10219000040F151F261F371F322F212F102F00E08D
:1021A00040911A0550E060E070E0040F151F261FF3
:1021B000371F48EE53E060E070E00E948C7200939D
:1021C00045081093460801E00093910201E0009356
:1021D000170801E000931508E8E00C940B730E94C7
:1021E0000373802F082FE0E5F0E0FBBFFAE10C94C9
:1021F000B772813119F4AFE1B4E002C0A8E6B4E0EF
:102200000091160510E0E0E1FEE0259134910217FF
:10221000130750F0E2E1FEE025913491009116059C
:1022200010E02017310730F40FE30C930FE3FD01AA
:102230000183C1C0009116054AE00E940D72005D45
:102240000C93009116054AE00E940D72405DFD015D
:102250004183B1C0823119F4A5E2B4E002C0AEE618
:10226000B4E00091160510E0E6E1FEE0259134911E
:102270000217130750F0E8E1FEE025913491009138
:10228000160510E02017310748F40FE30C930FE315
:10229000FD0101830FE3FD0102838DC0009116054E
:1022A0000A3058F400911605005D0C9300E3FD011F
:1022B000018300E2FD0102837EC0009116054AE021
:1022C0000E940D72005D0C93009116054AE00E9479
:1022D0000D72405DFD01418300E3FD0102836BC08F
:1022E000833119F4A8ECB8E002C0A8EEB8E000E031
:1022F0000BC010E0F801EE5EFA4F248110E0FD0102
:10230000E00FF11F2083039510911505011708F5C3
:1023100010E0F801EE5EFA4F248130E0ECE1FEE0DF
:10232000459154912417350768F0EEE1FEE04591A0
:10233000549110E0F801EE5EFA4F248130E042172C
:102340005307B8F62FEF10E0FD01E00FF11F2083D7
:10235000DACF31C0843119F4A0E5B4E002C0A9E9B4
:10236000B4E000E00BC010E0F801EE5EFA4F24810B
:1023700010E0FD01E00FF11F20830395109115057A
:10238000011788F318C0853119F4A4E5B4E002C040
:10239000ADE9B4E000E00BC010E0F801EE5EFA4FEA
:1023A000248110E0FD01E00FF11F208303951091BF
:1023B0001505011788F301E00093170801E0009369
:1023C0001508E4E00C940F73015261F00A9561F175
:1023D0000A9509F46BC00A9509F4AAC00A9509F494
:1023E000B9C0C9C0E0E3FEE0259134910091160523
:1023F00010E02017310738F40FE30093A1040FE336
:102400000093A204B8C0009116054AE00E940D7224
:10241000005D0093A104009116054AE00E940D7230
:10242000405D4093A204A7C00091160510E0E4E3CC
:10243000FEE0259134910217130750F0E6E3FEE029
:10244000259134910091160510E02017310750F4C2
:102450000FE30093A7040FE30093A8040FE3009396
:10246000A90489C0009116050A3060F40091160590
:10247000005D0093A70400E30093A80400E200932A
:10248000A90479C0009116054AE00E940D72005D12
:102490000093A704009116054AE00E940D72405D6A
:1024A0004093A80400E30093A90465C000911605B9
:1024B00010E0EAE3FEE0259134910217130750F093
:1024C000ECE3FEE0259134910091160510E0201711
:1024D000310750F40FE30093AE040FE30093AF0411
:1024E0000FE30093B00447C0009116050A3060F472
:1024F00000911605005D0093AE0400E30093AF0465
:1025000000E20093B00437C0009116054AE00E9433
:102510000D72005D0093AE04009116054AE00E9422
:102520000D72405D4093AF0400E30093B00423C0FC
:1025300000E00BC010E0F801EE5EFA4F248110E0DD
:10254000F801E753FB4F2083039510911505011700
:1025500088F311C000E00BC010E0F801EE5EFA4F06
:10256000248110E0F801E353FB4F20830395109181
:102570001505011788F301E00093170801E00093A7
:102580001508089540E020C050E003E010E00E94EC
:102590002B72F801EE5EFA4F2581042F10E0000F38
:1025A000111FF801EA56FC4F218350E003E010E0D0
:1025B0000E942B72F801EE5EFA4F068150E0FA019C
:1025C000E156FC4F008343954430E0F550E003E0D2
:1025D00010E00E942B72F801EE5EFA4F0481063083
:1025E00050F02EE4042F10E0000F111FF801EA56FE
:1025F000FC4F208311C050E003E010E00E942B72DA
:10260000F801EE5EFA4F2481042F10E0000F111F35
:10261000F801EA56FC4F208350E003E010E00E94EE
:102620002B72F801EE5EFA4F05810C3008F4ACCF46
:102630002EE4042F10E0000F111FF801EA56FC4FA2
:102640002183B3CF01E000931708089500E00BC089
:1026500010E0F801EE5EFA4F248110E0F801E65D2B
:10266000F74F20830395043198F300913608002337
:1026700021F400913708002321F001E00093E709DD
:1026800003C000E00093E70900913808002321F41B
:1026900000913908002321F001E00093E80903C00C
:1026A00000E00093E80900912A08002321F400913A
:1026B0002B08002321F001E00093E90903C000E0AA
:1026C0000093E90900912C08002321F400912D08C2
:1026D000002321F001E00093EA0903C000E0009329
:1026E000EA0930E020E007C0422F01E010E00E943C
:1026F0003572302B23950091E2092017A8F3009141
:102700002E0803230093180400912F085ED0009137
:102710002E08002321F400912F08002321F001E06E
:102720000093EB0903C000E00093EB09009130082F
:10273000002321F400913108002321F001E00093EF
:10274000EC0903C000E00093EC090091320800237B
:1027500021F400913308002321F001E00093ED09FA
:1027600003C000E00093ED0900913408002321F438
:1027700000913508002321F001E00093EE0903C029
:1027800000E00093EE0900913A08002321F4009143
:102790003B08002321F001E00093EF0903C000E0B3
:1027A0000093EF0900913C08002321F400913D08BB
:1027B000002321F001E00093F00903C000E0009342
:1027C000F00901E00093170808950E940473902F08
:1027D00080E0A92F943688F044E60A2F0E940D72FB
:1027E000005D282F30E0F901E75EFB4F0083839501
:1027F00044E60A2F0E940D72A42F9A3058F04AE046
:102800000A2F0E940D72005D90E0FC01E75EFB4F15
:10281000008383954AE00A2F0E940D72405D90E08C
:10282000FC01E75EFB4F4083839507C000E290E028
:10283000FC01E75EFB4F008383958430B8F3E3E04F
:102840000C941073392F682F009116050F70005DDE
:102850000093A7020091160502950F70005D00938A
:10286000A602009117050F70005D0093A40200916D
:10287000170502950F70005D0093A30200911805E3
:102880000F70005D0093A1020091180502950F7072
:10289000005D0093A002009119050F70005D009388
:1028A000AA020091190502950F70005D0093A9021C
:1028B00000911A050F70005D0093AD0200911A059A
:1028C00002950F70005D0093AC0200911B050F7024
:1028D000005D0093B00200911B0502950F70005D32
:1028E0000093AF0200E004C010E01093870203954C
:1028F000083068F510E0F801E056FD4F10811053E4
:102900001A3068F010E0F801E056FD4F10811E32D9
:1029100031F01091860213951093860203C010E0E7
:102920001093860210E0F801E755FD4F1081105317
:102930001A30D0F210E0F801E755FD4F10811A333C
:1029400099F210918702139510938702D0CF80914E
:10295000A70290E04091A60250E00AE010E00E9439
:102960002B72800F911F80519240843600E09007B7
:102970002CF0009186020395009386028091A402B8
:1029800090E04091A30250E00AE010E00E942B7218
:10299000800F911F805192408D3090402CF000911B
:1029A00086020395009386028091A10290E04091F7
:1029B000A00250E00AE010E00E942B72800F911FED
:1029C00080519240803290402CF000918602039515
:1029D000009386028091AA0290E04091A90250E003
:1029E0000AE010E00E942B72800F911F80519240EC
:1029F000893190402CF00091870203950093870263
:102A00008091AD0290E04091AC0250E00AE010E00D
:102A10000E942B72800F911F805192408D3300E0F5
:102A200090072CF000918702039500938702809114
:102A3000B00290E04091AF0250E00AE010E00E9446
:102A40002B72800F911F805192408D3300E09007D0
:102A50002CF0009187020395009387020091860273
:102A6000002301F100E30093A70200E30093A60214
:102A700000E30093A40200E30093A30200E30093A9
:102A8000A10200E30093A00200E00093860200E0B0
:102A90000330B8F420E010E0F801E058FD4F208347
:102AA0000395F6CF00E00BC010E0F801EE5EFA4FA0
:102AB000248110E0F801E058FD4F20830395033096
:102AC00098F300918702002301F100E30093AA022A
:102AD00000E30093A90200E30093AD0200E300933A
:102AE000AC0200E30093B00200E30093AF0200E009
:102AF0000093870200E00330B8F420E010E0F80112
:102B0000E058FD4F23830395F6CF00E00BC010E0A3
:102B1000F801EE5EFA4F278110E0F801E058FD4F12
:102B200023830395033098F301E00093170801E035
:102B300000939102862F932F08950E940273D8016B
:102B4000822F942F452E3A95082F07C020E210E0DF
:102B5000FD01E00FF11F208303950830B8F300E872
:102B6000401658F00FEF402643942DE2082F10E056
:102B7000FD01E00FF11F20838395042D10E0432F0A
:102B80000E943572402E03E64016C8F44AE0042D38
:102B90000E940D72005D282F30E0FD01E20FF31F4F
:102BA000008383954AE0042D0E940D72405D082F3A
:102BB00010E0FD01E00FF11F4083839510C02FE36B
:102BC000082F10E0FD01E00FF11F208383952FE314
:102BD000082F10E0FD01E00FF11F20838395915035
:102BE00019F09A9539F012C003EE90E0A80FB91FC2
:102BF0000C930CC004EE90E0FD01E80FF91F008378
:102C000001EC90E0A80FB91FFD010183E5E00C94F1
:102C10000E730E940173D801822F932F2A01082F6F
:102C200007C020E210E0FD01E00FF11F20830395B3
:102C30000830B8F36415750508F46BC008EE40164B
:102C400003E0500618F148EE53E082010E943D7205
:102C5000202F082F10E0FD01E00FF11F2083082F27
:102C600010E0FD01E00FF11F408150E008EE13E09D
:102C70000E942B72401A510A082F802F839510E072
:102C8000FD01E00FF11F0081005D008304E64016A6
:102C900000E0500618F144E650E082010E943D72C7
:102CA000202F082F10E0FD01E00FF11F2083082FD7
:102CB00010E0FD01E00FF11F408150E004E610E05C
:102CC0000E942B72401A510A082F802F839510E022
:102CD000FD01E00FF11F0081005D00834AE050E03C
:102CE00082010E943D72005D282F30E0FD01E20F5D
:102CF000F31F008383954AE050E082010E943D72F9
:102D0000405D082F10E0FD01E00FF11F4083839527
:102D100010C02FE3082F10E0FD01E00FF11F20830A
:102D200083952FE3082F10E0FD01E00FF11F2083B2
:102D30008395915049F09A95A1F09A95C1F09A9592
:102D4000E1F09A95B1F150C00CEE90E0FD01E80F72
:102D5000F91F0083839500EC90E0A80FB91F0C9336
:102D600043C005E290E0A80FB91F0C933DC003EEED
:102D700090E0A80FB91F0C9337C000E290E0FD016E
:102D8000E80FF91F0083839501EF90E0FD01E80F44
:102D9000F91F0083839505EE90E0FD01E80FF91F10
:102DA000008383950AEE90E0A80FB91F0C938395DA
:102DB0001BC000E290E0FD01E80FF91F008383953E
:102DC0000CEE90E0FD01E80FF91F0083839508EEFB
:102DD00090E0FD01E80FF91F008383950DEE90E070
:102DE000A80FB91F0C938395E6E00C940D73432F45
:102DF00042954F704A3018F0495C542F02C0405D34
:102E0000542F452F622F70E0F801E60FF71F408323
:102E10003F70432F4A3018F0495C342F02C0405DA8
:102E2000342F432F30E0020F131FF8014183089520
:102E30000E94017380911605A091170500E010E033
:102E400000937B0910937C09082F0D59073C20F44F
:102E50000A2F065A053B50F00FE3009374090FE365
:102E60000093750900E00093760984C04424242D62
:102E7000422E4394082F0A2B0078002311F00DE214
:102E800001C00BE230E0F901EC58F64F00838823D3
:102E90001AF400E0081B802FAA231AF400E00A1B92
:102EA000A02F082F0A2B002331F400E300937409AC
:102EB00000E0009375098A305CF04AE0082F0E9418
:102EC0001B72005D5524F201EC58F64F00834394C9
:102ED0004AE0082F0E941B72405D5524F201EC5815
:102EE000F64F408343940EE25524F201EC58F64F1E
:102EF000008343944AE00A2F0E941B72005D552410
:102F0000F201EC58F64F0083439402EC5524F20191
:102F1000EC58F64F0083439400E05524F201EC583E
:102F2000F64F00834394482F542F550F550B0AE05A
:102F300010E00E942B72C8010A2F102F110F110BE5
:102F40004AE050E00E945572800F911F80937B09E8
:102F500090937C09009174090D3261F400E010E057
:102F600020917B0930917C09021B130B00937B0994
:102F700010937C09A1E0B6C02DE24A2F50E009E091
:102F800010E00E942B72E4E7F9E0E00FF11F032F3D
:102F900010E0E00FF11F208399232AF40FEF1FEFB9
:102FA000802791270196843600E09007D4F144E60B
:102FB00050E08C010E945572202F4A2F50E009E00A
:102FC00010E00E942B72E4E7F9E0E00FF11F5524B6
:102FD000E40DF51D20834A2F50E009E010E00E9427
:102FE0002B72E4E7F9E0E00FF11F5524E40DF51D25
:102FF000408150E004E610E00E942B72801B910B90
:103000004A2F50E009E010E00E942B72E4E7F9E05B
:10301000E00FF11F5524E40DF51D0081005D0083D4
:1030200043948A3000E09007B4F04AE050E08C010D
:103030000E945572202F205D4A2F50E009E010E0D9
:103040000E942B72E4E7F9E0E00FF11F5524E40D34
:10305000F51D208343944AE050E08C010E94557294
:10306000242F205D4A2F50E009E010E00E942B72CF
:10307000E4E7F9E0E00FF11F5524E40DF51D20838E
:1030800043942CEE4A2F50E009E010E00E942B728E
:10309000E4E7F9E0E00FF11F5524E40DF51D20836E
:1030A000439420EC4A2F50E009E010E00E942B727C
:1030B000E4E7F9E0E00FF11F5524E40DF51D20834E
:1030C000439420E04A2F50E009E010E00E942B7268
:1030D000E4E7F9E0E00FF11F5524E40DF51D20832E
:1030E0004394A395A33008F07AC00A2F10E0000F94
:1030F000111FF801EE5EFA4F948180E00A2F10E074
:10310000000F111FF801EE5EFA4F058110E0800FED
:10311000911F20E030E04A2F50E009E010E00E94CB
:103120002B72F801EC58F64F278330878C01095138
:103130001C4F0F3C27E0120710F12FE34A2F50E0FD
:1031400009E010E00E942B72F801EC58F64F208342
:103150002FE34A2F50E009E010E00E942B72F801A3
:10316000EC58F64F218320E04A2F50E009E010E0B0
:103170000E942B72F801EC58F64F2283B2CF082F31
:10318000092BB9F420E34A2F50E009E010E00E9437
:103190002B72F801EC58F64F208320E04A2F50E0C4
:1031A00009E010E00E942B72F801EC58F64F2183E1
:1031B00098CF44244A2F50E009E010E00E942B727F
:1031C000F801EC58F64F87839087342D432E4394B3
:1031D000813000E090070CF4CFCE2BE2CECEE6E0BB
:1031E0000C940D730091160510E0EEEBFEE02591B6
:1031F00034910217130740F0E0ECFEE02591349182
:1032000010E02017310720F4E0ECFEE00591039573
:103210000093730908959A938A93009116050023E9
:1032200009F040C15091170541E032E022E006ED7F
:1032300012E083DC3091170523E00BEB12E0D7DDC1
:103240003091180525E00BEB12E0D1DD3091190526
:1032500020E000911A0510E0200F311F2093240870
:103260003093250867EE73E04091240850912508BB
:1032700031E023E00FED12E0CCDC00911C054AE0C8
:103280000E940D720093FF0240911B0550E00AE07E
:1032900010E00E942B722091FF0230E0020F131FFA
:1032A000009322081093230880912208909123080C
:1032B0000096883E03E0900720F40091FF020A3058
:1032C00080F000E010E000932208109323080FE341
:1032D0000093FC020FE30093FD020FE30093FF0253
:1032E00015C000911B054AE00E940D72005D00931D
:1032F000FC0200911B054AE00E940D72405D409364
:10330000FD020091FF02005D0093FF0200911D0588
:10331000009328085091280842E031E023E00CE0B7
:1033200013E00BDC0091E209033061F400911E050B
:10333000009329085091290842E031E023E005E19B
:1033400013E0FBDB009144080430E1F400919603A4
:103350000430C0F400E000931F0500E00093200556
:1033600000E00093250500E00093260500E00093AF
:10337000270500E00093280500E00093290500E000
:1033800000932A0500911F050093260850912608F6
:1033900042E031E023E00EE113E0CFDB0091E209EF
:1033A000033069F400912005009327085091270805
:1033B00042E031E023E007E213E0BFDB40C00091D0
:1033C000E2090430E0F1009109090330C1F55091A0
:1033D000200542E031E023E007E213E0AEDB50914C
:1033E000250542E031E023E000E313E0A6DB509145
:1033F000260542E031E023E009E313E09EDB509133
:10340000270542E031E023E002E413E096DB50912F
:10341000280542E031E023E00BE413E08EDB50911D
:10342000290542E031E023E004E513E086DB50911A
:103430002A0542E031E023E00DE513E07EDB509108
:10344000210542E031E023E003E013E076DB63E6B0
:1034500070E04091220550E032E024E008EE12E0F6
:10346000D8DB3091220523E004EC12E0C0DC50915F
:10347000230540E00091240510E0400F511F68E64D
:1034800071E033E023E001EF12E0C3DB309123056C
:1034900023E00DEC12E0ABDC3091240525E00DECCF
:1034A00012E0A5DC01E00093920201E0009317080E
:1034B0008991999108959A938A93EEE6F0E0FBBF83
:1034C000FAE10C94B772E4E5FEE0259134910091A5
:1034D000160510E02017310720F402E00093D10414
:1034E000FDC3009116050093D104F8C300911605A1
:1034F00010E0E8E5FEE0259134910217130750F043
:10350000EAE5FEE0259134910091160510E02017C0
:10351000310738F40FE30093D2040FE30093D30490
:10352000DDC3009116054AE00E940D72005D009314
:10353000D204009116054AE00E940D72405D40934E
:10354000D304CCC3EEE4FEE025913491009116053E
:1035500010E02017310738F409E0009309090FEF54
:1035600000930A09BBC30091160500930909009155
:10357000090910910A09011709F4B0C3009109095A
:1035800000930A090E94CA250E94CC2901E00E94EA
:103590009F2A0E94862D0E94662F0E94D62F00919E
:1035A00094020A3021F000919402003181F40091DC
:1035B0000B090A95009391090091910910919009C6
:1035C000011780F5009191090093900987C300913C
:1035D0009402073021F0009194020D3081F40091A3
:1035E0004A080A9500939109009191091091900958
:1035F0000117C0F400919109009390096FC30091E5
:103600009402063179F400917408035000939109F3
:103610000091910910919009011720F400919109EE
:10362000009390095BC3009116050093080956C3E7
:103630000091E109023081F480911605ECE6FEE08C
:103640000591149190E00817190710F480E301C068
:10365000805D8093D80448C300910909043041F586
:103660008091160590E0E4ECFEE00591149180173E
:10367000910740F0E6ECFEE00591149190E0081708
:10368000190738F40FE30093EE040FE30093EF04FF
:1036900025C34AE0082F0E940D72005D0093EE04DE
:1036A0004AE0082F0E940D72405D4093EF0416C35C
:1036B0008091160590E0EAE9FEE0059114918017EB
:1036C000910740F0ECE9FEE00591149190E00817B5
:1036D000190720F4ECE9FEE0859183958093340985
:1036E0008091170590E0E0EAFEE0059114918017C3
:1036F000910740F0E2EAFEE00591149190E008178E
:10370000190720F4E2EAFEE085918395809335095C
:103710008091180590E0E6EAFEE00591149180178B
:10372000910740F0E8EAFEE00591149190E0081757
:10373000190750F40FE3009336090FE3009337099C
:103740000FE3009338091AC04AE0082F0E940D7257
:10375000405D409338094AE0082F0E940D72802F87
:103760004AE0082F0E940D72405D409337094AE0FD
:10377000082F0E940D72005D009336098091190593
:103780004AE0082F0E940D72405D409342094AE0D2
:10379000082F0E940D72802F4AE0082F0E940D72A0
:1037A000405D409341094AE0082F0E940D72005D80
:1037B0000093400980911A0590E0E2EBFEE005914C
:1037C00014918017910740F0E4EBFEE0059114910D
:1037D00090E00817190738F40FE300934A090FE344
:1037E00000934B090EC04AE0082F0E940D72005D45
:1037F00000934A094AE0082F0E940D72405D4093F1
:103800004B0980911B0590E0E8EBFEE005911491D7
:103810008017910740F0EAEBFEE00591149190E0EB
:103820000817190720F4EAEBFEE085918395809351
:10383000540980911C0590E0EAECFEE0059114919A
:103840008017910740F0ECECFEE00591149190E0B8
:103850000817190750F40FE3009355090FE300937D
:1038600056090FE3009356090BC0ECECFEE065919E
:103870007491482F50E034E020E005E519E0C9D903
:1038800080911D0590E0E0EDFEE005911491801718
:10389000910740F0E2EDFEE00591149190E00817E9
:1038A000190750F40FE300935F090FE300936009D9
:1038B0000FE3009361090BC0E2EDFEE065917491A6
:1038C000482F50E034E020E00FE519E0A2D98091C4
:1038D0001E0590E0E6EDFEE005911491801791073A
:1038E00040F0E8EDFEE00591149190E0081719070B
:1038F00038F40FE3009369090FE300936A09EEC1FE
:10390000E8EDFEE065917491482F50E035E020E04D
:1039100009E619E07ED9E2C13091160520E0009158
:10392000170510E0200F311F20930F05309310056D
:1039300000E00093160500910F0510911005E0E7D7
:10394000FEE0259134910217130720F401E0009363
:1039500016050EC0E2E7FEE00591149120910F05D7
:10396000309110050217130718F401E000931605B3
:10397000009116050023F9F00FE30093DE040FE336
:103980000093DF040FE30093E00400E20093E104FE
:103990000AEE0093E20403EC0093E30406EF0093C5
:1039A000E4040FE30093B2020FE30093B3020FE3CA
:1039B0000093B402D2C000910F0510911005043697
:1039C00020E0120730F54AE050E000910F05109119
:1039D00010050E943D72005D0093DE044AE050E055
:1039E00000910F05109110050E943D72405D4093BB
:1039F000DF0400E20093E0040AEE0093E10403EC2C
:103A00000093E20406EF0093E30400E20093E40471
:103A100098C000910F0510911005083E23E0120791
:103A2000D0F544E650E000910F05109110050E947A
:103A30003D72005D0093DE0444E650E000910F0506
:103A4000109110050E943D7240930F055093100590
:103A50004AE050E000910F05109110050E943D7260
:103A6000005D0093DF044AE050E000910F051091E3
:103A700010050E943D72405D4093E00400E2009317
:103A8000E1040AEE0093E20403EC0093E30406EF82
:103A90000093E40456C000910F0510911005003109
:103AA00027E2120708F04DC048EE53E000910F05E1
:103AB000109110050E943D72005D0093DE0448EEF7
:103AC00053E000910F05109110050E943D72409344
:103AD0000F055093100544E650E000910F0510913A
:103AE00010050E943D72005D0093DF0444E650E043
:103AF00000910F05109110050E943D7240930F0533
:103B0000509310054AE050E000910F051091100508
:103B10000E943D72005D0093E0044AE050E0009195
:103B20000F05109110050E943D72405D4093E10425
:103B30000AEE0093E20403EC0093E30406EF009323
:103B4000E4040091DE040093B2020091DF040093CC
:103B5000B3020091E0040093B40201E000939102EB
:103B6000BDC0E6E7FEE00591E8E7FEE02591109193
:103B70000909133011F42091E2091091160510176C
:103B800020F000911605201738F40FE30093E604A7
:103B90000FE30093B90209C000911605005D009380
:103BA000E6040091E6040093B90201E0009391025B
:103BB00095C080E000911605802FE4E8FEE00591B5
:103BC000149190E00817190738F40FE30093E80404
:103BD0000FE30093E9040EC04AE0082F0E940D7223
:103BE000005D0093E8044AE0082F0E940D72405DDA
:103BF0004093E90480911705EAE8FEE005911491ED
:103C000090E00817190738F40FE3009358040FE306
:103C1000009359040EC04AE0082F0E940D72005D07
:103C2000009358044AE0082F0E940D72405D4093B3
:103C300059040091E2090330F9F480911805EAE88B
:103C4000FEE00591149190E00817190738F40FE38E
:103C500000935E040FE300935F040EC04AE0082F58
:103C60000E940D72005D00935E044AE0082F0E94DE
:103C70000D72405D40935F0480911905EEEDFEE00A
:103C80000591149190E00817190738F40FE3009399
:103C9000F4040FE30093F50421C04AE0082F0E94CA
:103CA0000D72005D0093F4044AE0082F0E940D722B
:103CB000405D4093F50412C0EEE7FEE0259134919B
:103CC0000091160510E02017310720F402E0009360
:103CD000FA0404C0009116050093FA0401E0009371
:103CE000170801E00093150889919991089540E023
:103CF00001E00093170801E0009315080FE010E0C1
:103D00002091140522952F7030E0021B130B209197
:103D1000C20930E0F901EF53F64F228130E002177B
:103D2000130709F441E0009114050F700130D9F434
:103D30004423C9F000911705002359F000E011E079
:103D40000093C8091093C909009116050093CA0988
:103D50000AC00091160510E00093C8091093C90924
:103D600000E00093CA09009114050F700230E1F4DD
:103D7000442379F000E00031B8F410E0F801EE5E81
:103D8000FA4F248110E0F801EF53F64F2287039594
:103D9000F2CF00E007C020E010E0F801EF53F64F4B
:103DA000228703950031B8F3089520E070E021E008
:103DB00000911605702F072F0F700023A9F070FBDC
:103DC00016F423E003C071FB0EF424E00091E20935
:103DD0000330E9F52130D9F572FB16F425E037C040
:103DE00073FBAEF526E033C00091DC09002321F41B
:103DF0000091DD09002359F10091DD091091DC09E2
:103E0000011718F40091DC0902C00091DD09602F50
:103E1000E7E1F5E037E070813196772381F050E0FB
:103E200001C05395583058F4452F01E010E00E942E
:103E30003572172F10231123A1F3232F250F385F7D
:103E4000213011F4685001C060E0613024F7209304
:103E5000390A0091DB09002349F07091160574FBC3
:103E600016F422E001C021E020930F0A01E0009344
:103E7000170801E00093150808958A9381E000E097
:103E80000093C10900E00093C309009116050130B9
:103E900091F401E00093DB0901E000938B03209192
:103EA000C10923952093C10903E030E0F901EF53E4
:103EB000F64F02830BC000E00093DB0900E00093A3
:103EC000890300911605002309F080E00091170591
:103ED000093070F400911705033051F01091170567
:103EE00004E0109F0092DE0901E000938B0304C000
:103EF00000E00093DE0980E000911805093058F4D5
:103F000000911805033039F01091180504E0109F56
:103F10000092DF0904C000E00093DF0980E0009117
:103F20001905093058F400911905033039F0109142
:103F3000190504E0109F0092DD0904C000E0009321
:103F4000DD0980E000912005093028F4009120056A
:103F50000093090904C080E000E00093090901E032
:103F600007C020E010E0F801EA57FC4F25830395D5
:103F70000830B8F300911A05023059F402E00093BA
:103F8000E20900E00093DF090091DE090093DC09FB
:103F900060C000911A050330C1F503E00093E20907
:103FA0000091DF09002321F40091DB09002319F0BF
:103FB00001E000938C030091DB09002379F000916C
:103FC000DE09002359F00091DF09002339F0009148
:103FD000DD09002319F001E00093E6090091DE09F4
:103FE0001091DF09010F0093DC090091DF09002324
:103FF00081F12091C10923952093C10904E030E0AB
:10400000F901EF53F64F028324C0009109090330F0
:10401000A9F400911A05093088F400911A0500935B
:10402000E20901E01091E209011798F421E010E0A3
:10403000F801EA57FC4F25830395F4CF02E0009383
:10404000E20900E00093DF090091DE090093DC093A
:1040500080E00091DC09002359F02091C1092395EB
:104060002093C10902E030E0F901EF53F64F0283DB
:104070000091DD09002359F02091C1092395209377
:10408000C10901E030E0F901EF53F64F02830091DE
:104090001B05023021F402E00093E10908C001E0B1
:1040A0000093E10900911B05013009F080E00091C7
:1040B000E109013021F404E00093160803C003E095
:1040C0000093160830911C0520E000911D0510E0BA
:1040D000200F311F20938B0230938C0230911E05EC
:1040E00020E000911F0510E0200F311F20938D026A
:1040F00030938E020091250510E1019F00E000221F
:104100000FE0102200928F0210929002009125057C
:1041100010E00F701070E9E8F2E026813781200F7F
:10412000311F268337830091E109023021F401E039
:104130000093070A13C00091E209023021F402E063
:104140000093070A0BC00091E209033021F404E058
:104150000093070A03C000E00093070A00E0009301
:10416000F2090091DB09002389F00CE115E02091B0
:10417000F20930E0220F331FF901ED50F64F0083B2
:1041800011830091F20903950093F2090091E2096D
:104190000230B1F40091DC090023E1F104E215E002
:1041A0002091F20930E0220F331FF901ED50F64F54
:1041B000008311830091F20903950093F2092AC04C
:1041C0000091DE09002389F001E415E02091F20955
:1041D00030E0220F331FF901ED50F64F00831183B9
:1041E0000091F20903950093F2090091DF09002381
:1041F00089F00DE415E02091F20930E0220F331F21
:10420000F901ED50F64F008311830091F2090395F7
:104210000093F2090091DD09002389F00EE215E018
:104220002091F20930E0220F331FF901ED50F64FD3
:10423000008311830091F20903950093F2090AE3C8
:1042400015E02091F20930E0220F331FF901ED5003
:10425000F64F008311830091F20903950093F20950
:104260000FEF00930A090E94CA250E94CC2901E0A1
:104270000E949F2A0E94862D0E94662F0E94D62FA0
:1042800001E00093E309082F899108959A938A9396
:10429000802F282F2A9502E115E00E94810E10E060
:1042A00000930D0510930E0520910D0530910E051C
:1042B00090E0FC01EF5EFA4F008110E0201731071B
:1042C00019F0549A579ABDC000911C08023009F0A9
:1042D0004BC000E00BC010E0F801EE5EFA4F208109
:1042E00010E0F801E856F94F20830395081798F37A
:1042F00000919A060F3391F590E0FC01E956F94FD1
:10430000408100919B060331B0F4202F2C5F08C040
:1043100010E030E0F901E856F94F1083239503953A
:104320000331B0F34D5E10919B06411B00939B0639
:10433000802F8B5F06C01091AD06411B1091AE0619
:10434000411B17E01093AD06410F16E61093AE0621
:10435000410F10E0F801E856F94F448303E0009361
:104360001C0880931D086DC000911C08002309F0F3
:1043700068C000911405007F005039F0005151F0E1
:10438000005169F0005181F044C0009114050E9471
:10439000D00E55C0009114050E94EF1050C000913E
:1043A00014050E94E4114BC000911405005369F0FC
:1043B0000A9571F00A9579F00A9581F00A95C1F095
:1043C0000A50E9F00A95F9F020C00E94C21237C0E5
:1043D0000E94261334C00E94221431C00091E109CA
:1043E000013019F40E9418172AC00E94F21827C041
:1043F0000091E109013019F50E940B1920C00091CC
:104400001605D3DC1CC039DD1AC00091140553D841
:1044100016C000911405015C79F00A9579F00F50EF
:1044200059F00A9559F00F5039F00A9539F00F50AC
:1044300019F00A9519F003C05ADC01C058DC549AEF
:10444000579A0E94A2338991999108950C018FEF98
:104450003FEF60E014C070E0F801E60FF71F408105
:104460008427482F832F50E0FA01E457FF4F3491FF
:10447000832750E0FA01E457FE4F349163956217A9
:1044800050F3132F00E090E0082B192BC001089582
:1044900030E042E007C050E0F801E40FF51F508122
:1044A000350F43954217B8F3032F08950E94047304
:1044B000822FA0E005E5009398060AEA009399068A
:1044C00010939A0680939B06282F2C5F08E916E02C
:1044D000DFDFA02F90E0FC01E856F94FA4838B5F4B
:1044E000082F0E94E233E3E00C9410730E940373E0
:1044F000802FA0E0B0E0009118060093980600918C
:1045000019060093990680939A06282F2D5F08E9D3
:1045100016E09CDFD8010A2F90E0FC01E856F94F25
:104520000383AB2F90E0FC01E856F94FA4838B5F27
:10453000082F0E94E233E4E00C940F739C019091E9
:104540001A0680E000911B0610E0800F911F019673
:104550008C01C901089510911C0600E020911D06F0
:1045600030E0020F131F08959A938A93102F80E072
:1045700090E00091180600939806009119060068D3
:104580000093990610939A0623E008E916E05EDF8F
:10459000C801082F00939B06892F80939C0605E095
:1045A0000E94E2338991999108950E940373902F9C
:1045B000812FA0E000911806053511F001E001C03F
:1045C00000E0A02B009119060A3A11F001E001C0A9
:1045D00000E0A02B20911B0630E0082F10E00550D2
:1045E00010402017310711F001E001C000E0A02BBE
:1045F000282F2A9508E116E04BDF282F30E0F9013B
:10460000E95EF94F1081101711F001E001C000E0E0
:10461000A02BAA2319F00E94D93375C000911A0665
:10462000033799F5B0911C06A0E000911D0610E03B
:10463000A00FB11F84E013C04AE050E08D010E943A
:104640003D72405D082F10E0F801E155F64F4083C0
:104650004AE050E08D010E943D72D8018A9588237E
:1046600059F720E013E7092F21DF01E0009301084B
:1046700000E010E0009307081093080800EB19E031
:1046800000930308109304083EC000911A060437F3
:1046900001F500E010E020E00FC04AE050E00E9489
:1046A0002B7230E0F901E055F64F3081E32FF0E056
:1046B000F0970E0F1F1F2395243078F39801232FB6
:1046C00020939C0600939D0622E012E7092FEEDE60
:1046D0001AC000E011C010E0F801E85EF94F208137
:1046E00010E0F801EE56FA4F208320E010E0F801C8
:1046F000E85EF94F20830395081768F380931D083F
:1047000001E000931C08E4E00C940F739C018FEF10
:104710009FEF015071F00A9521F10A95D1F10A95A8
:1047200009F44FC00A9509F464C00A9509F479C0E8
:104730008FC00091A6020F3399F00091A7020F33AA
:1047400079F04091A60250E00AE010E00E942B723E
:10475000C8010091A70210E0800F911F8051924084
:1047600077C00091A3020F3399F00091A4020F3398
:1047700079F04091A30250E00AE010E00E942B7211
:10478000C8010091A40210E0800F911F8051924057
:104790005FC00091A0020F3399F00091A1020F3386
:1047A00079F04091A00250E00AE010E00E942B72E4
:1047B000C8010091A10210E0800F911F805192402A
:1047C00047C00091A9020F3399F00091AA020F335C
:1047D000F9F14091A90250E00AE010E00E942B722A
:1047E000C8010091AA0210E0800F911F80519240F1
:1047F0002FC00091AC020F3359F10091AD020F337D
:1048000039F14091AC0250E00AE010E00E942B72B6
:10481000C8010091AD0210E0800F911F80519240BD
:1048200017C00091AF020F3399F00091B0020F331F
:1048300079F04091AF0250E00AE010E00E942B7244
:10484000C8010091B00210E0800F911F805192408A
:104850008C01C9010895202F0FEF1FEF2A5059F046
:104860002A9591F02B50C9F02A9501F12A9539F13A
:104870002A9549F108951091360800E020913708F3
:1048800030E0020F131F08951091380800E02091C6
:10489000390830E0020F131F089510912A0800E034
:1048A00020912B0830E0020F131F089510912C085F
:1048B00000E020912D0830E0020F131F08950091B1
:1048C000960310E008950091970310E008952FEFEC
:1048D0003FEF015809F10A9529F1095F39F00A956E
:1048E00051F00A9569F00A9589F021C020912208BB
:1048F000309123081CC0209124083091250817C04E
:1049000020912608322F330F330B11C02091270836
:10491000322F330F330B0BC020912808322F330F67
:10492000330B05C020912908322F330F330B890137
:1049300008952FEF3FEF0C5939F00A9551F00A9581
:1049400069F0055081F013C020918B0230918C02E8
:104950000EC020918D0230918E0209C020918902F3
:1049600030918A0204C020918F0230919002890117
:10497000089510E0095C19F00A9539F00BC0109108
:10498000E7090091E909102B05C01091E809009191
:10499000EA09102B012F08950E940073CFDDD80182
:1049A000DADDC801082F092B21F0813400E09007DF
:1049B00018F003E0D9DD49C0A93C00E0B00740F0A1
:1049C000FD01E80FF91F3197EB3C00E0F00718F00C
:1049D00002E0CADD3AC044242EC066240A2F040D2A
:1049E000093C10F0C6DF602E48E0042D0E940D72D5
:1049F000442351F4552448E0042D0E940D7210E028
:104A0000F801E856F94F53826620A1F048E0042DE2
:104A10000E940D7201E010E00E943572502E48E0B5
:104A2000042D0E940D7210E0F801E856F94F038141
:104A300005290383439455244816590670F20796B6
:104A40008C0143E00E943A7251DDE7E00C940C7354
:104A50000E94017373DDD8017EDD2801042D052934
:104A600029F001E2401600E0500618F003E07CDD7A
:104A700044C00A2F0B2B41F0CD01840D951D0197E9
:104A8000843A00E0900718F002E06EDD36C080E066
:104A900019C0222311F0022F39DE9801232F422F53
:104AA000282F30E0220F331FF901E856F94F4383D6
:104AB000202F082F10E0000F111FF801E856F94FC2
:104AC0002483839590E08415950598F40FEF1FEFEC
:104AD0002A2F280F2C3918F0022F2BDFDECF2B378F
:104AE00018F0022FF4DED9CF2A3098F2022FB3DE6D
:104AF000D4CF02E0409E002DF9DCE6E00C940D736B
:104B00000E940473812FA0E010911806101711F075
:104B100001E001C000E0A02B282F225008E116E0A0
:104B200095DC90E0FC01E95EF94F508140E090E0B7
:104B3000FC01EA5EF94F208130E0420F531F041759
:104B4000150711F001E001C000E0A02BAA2319F025
:104B50000E94D9330DC000911906015019F002507E
:104B600019F004C019DF04C073DF02C001E0FCDCEF
:104B7000E3E00C941073302F012F122F305019F0F6
:104B80003A9519F004C011DD0895BADF08950E9426
:104B9000D933089500E010910909115071F01A9568
:104BA00061F01A9509F480C01A9509F4EDC113500B
:104BB00009F46EC21A9509F012C320E010E0F80162
:104BC000E65FF64F228320E010E0F801E65FF64F43
:104BD000268B039522E010E0F801E65FF64F228372
:104BE00022E010E0F801E65FF64F268B039524E003
:104BF00010E0F801E65FF64F228324E010E0F801B0
:104C0000E65FF64F268B039526E010E0F801E65F9D
:104C1000F64F228326E010E0F801E65FF64F268B80
:104C2000039527E010E0F801E65FF64F228327E0C6
:104C300010E0F801E65FF64F268B039528E010E0C0
:104C4000F801E65FF64F228328E010E0F801E65F06
:104C5000F64F268B039529E010E0F801E65FF64F4A
:104C600022832091FF0410E0F801E65FF64F268BC7
:104C700003952BE010E0F801E65FF64F22832BE06E
:104C800010E0F801E65FF64F268B03952CE010E06C
:104C9000F801E65FF64F22832CE010E0F801E65FB2
:104CA000F64F268B039575C320E010E0F801E65F10
:104CB000F64F228320E010E0F801E65FF64F268BE6
:104CC000039522E010E0F801E65FF64F228322E030
:104CD00010E0F801E65FF64F268B039524E010E024
:104CE000F801E65FF64F228324E010E0F801E65F6A
:104CF000F64F268B039526E010E0F801E65FF64FAD
:104D0000228326E010E0F801E65FF64F268B03953C
:104D100027E010E0F801E65FF64F228327E010E07D
:104D2000F801E65FF64F268B039528E010E0F801C6
:104D3000E65FF64F228328E010E0F801E65FF64FC9
:104D4000268B039529E010E0F801E65FF64F2283F9
:104D50002091FF0410E0F801E65FF64F268B0395E3
:104D60002BE010E0F801E65FF64F22832BE010E025
:104D7000F801E65FF64F268B03952CE010E0F80172
:104D8000E65FF64F22832CE010E0F801E65FF64F75
:104D9000268B03952DE010E0F801E65FF64F2283A5
:104DA0002DE010E0F801E65FF64F268B03952EE02C
:104DB00010E0F801E65FF64F22832EE010E0F801E4
:104DC000E65FF64F268B03952FE010E0F801E65FD3
:104DD000F64F22832FE010E0F801E65FF64F268BB6
:104DE000039520E001C023952A3088F430E0F901D2
:104DF000EA5EF24F149130E0F901EC5CF64F128359
:104E000030E0F901EA5EF24F1491112361F720E1DD
:104E100010E0F801E65FF64F228320E110E0F80190
:104E2000E65FF64F268B039520E001C023952A30DC
:104E300088F430E0F901E15EF24F149130E0F901BD
:104E4000EC5CF64F148730E0F901E15EF24F14910B
:104E5000112361F721E110E0F801E65FF64F2283AC
:104E600021E110E0F801E65FF64F268B039520E084
:104E700001C023952A3088F430E0F901E95DF24F52
:104E8000149130E0F901EC5CF64F168B30E0F9013B
:104E9000E95DF24F1491112361F722E110E0F8016E
:104EA000E65FF64F228322E110E0F801E65FF64F5D
:104EB000268B039525E110E0F801E65FF64F22838B
:104EC00025E110E0F801E65FF64F268B039520E020
:104ED00001C023952A3088F430E0F901E15EF24FF9
:104EE000149130E0F901EC5CF64F11A330E0F901C8
:104EF000E15EF24F1491112361F726E110E0F80111
:104F0000E65FF64F228326E110E0F801E65FF64FF8
:104F1000268B039520E001C023952A3088F430E0E9
:104F2000F901E15EF24F149130E0F901EC5CF64FCB
:104F300013A730E0F901E15EF24F1491112361F7FC
:104F400027E110E0F801E65FF64F228327E110E049
:104F5000F801E65FF64F268B039520E001C023950C
:104F60002A3088F430E0F901E15DF24F149130E02D
:104F7000F901EC5CF64F15AB30E0F901E15DF24F61
:104F80001491112361F705C220E010E0F801E65FFB
:104F9000F64F228320E010E0F801E65FF64F268B03
:104FA000039522E010E0F801E65FF64F228322E04D
:104FB00010E0F801E65FF64F268B039524E010E041
:104FC000F801E65FF64F228324E010E0F801E65F87
:104FD000F64F268B039526E010E0F801E65FF64FCA
:104FE000228326E010E0F801E65FF64F268B03955A
:104FF00027E010E0F801E65FF64F228327E010E09B
:10500000F801E65FF64F268B039528E010E0F801E3
:10501000E65FF64F228328E010E0F801E65FF64FE6
:10502000268B039529E010E0F801E65FF64F228316
:105030002091FF0410E0F801E65FF64F268B039500
:1050400024E110E0F801E65FF64F228324E110E04E
:10505000F801E65FF64F268B03952BE010E0F80190
:10506000E65FF64F22832BE010E0F801E65FF64F93
:10507000268B03952CE010E0F801E65FF64F2283C3
:105080002CE010E0F801E65FF64F268B039581C116
:1050900020E010E0F801E65FF64F228320E010E008
:1050A000F801E65FF64F268B039522E010E0F80149
:1050B000E65FF64F228322E010E0F801E65FF64F4C
:1050C000268B039524E010E0F801E65FF64F22837B
:1050D00024E010E0F801E65FF64F268B039526E00A
:1050E00010E0F801E65FF64F228326E010E0F801B9
:1050F000E65FF64F268B039527E010E0F801E65FA8
:10510000F64F228327E010E0F801E65FF64F268B8A
:10511000039528E010E0F801E65FF64F228328E0CF
:1051200010E0F801E65FF64F268B039529E010E0CA
:10513000F801E65FF64F22832091FF0410E0F801AA
:10514000E65FF64F268B03952FE010E0F801E65F4F
:10515000F64F22832FE010E0F801E65FF64F268B32
:10516000039527E110E0F801E65FF64F228327E17F
:1051700010E0F801E65FF64F268B03952BE010E078
:10518000F801E65FF64F22832BE010E0F801E65FBE
:10519000F64F268B03952CE010E0F801E65FF64F02
:1051A00022832CE010E0F801E65FF64F268B039592
:1051B00020E001C023952A3088F430E0F901E15D58
:1051C000F24F149130E0F901EC5CF64F15AB30E092
:1051D000F901E15DF24F1491112361F7DAC01091EA
:1051E000E109113009F090C020E010E0F801E65F1D
:1051F000F64F228320E010E0F801E65FF64F268BA1
:10520000039521E010E0F801E65FF64F228321E0EC
:1052100010E0F801E65FF64F268B039522E010E0E0
:10522000F801E65FF64F228322E010E0F801E65F26
:10523000F64F268B039524E010E0F801E65FF64F69
:10524000228324E010E0F801E65FF64F268B0395F9
:1052500026E010E0F801E65FF64F228326E010E03A
:10526000F801E65FF64F268B039527E010E0F80182
:10527000E65FF64F228327E010E0F801E65FF64F85
:10528000268B039528E010E0F801E65FF64F2283B5
:1052900028E010E0F801E65FF64F268B039529E041
:1052A00010E0F801E65FF64F228329E010E0F801F4
:1052B000E65FF64F268B039528E110E0F801E65FE4
:1052C000F64F228328E110E0F801E65FF64F268BC7
:1052D00003952BE010E0F801E65FF64F22832BE008
:1052E00010E0F801E65FF64F268B03952CE010E006
:1052F000F801E65FF64F22832CE010E0F801E65F4C
:10530000F64F268B039545C021E010E0F801E65FDB
:10531000F64F228321E010E0F801E65FF64F268B7E
:10532000039524E010E0F801E65FF64F228324E0C5
:1053300010E0F801E65FF64F268B039527E010E0BA
:10534000F801E65FF64F228327E010E0F801E65F00
:10535000F64F268B03951091DC09112331F025E0DF
:1053600010E0F801E65FF64F228325E010E0F80137
:10537000E65FF64F268B039523E110E0F801E65F28
:10538000F64F228323E110E0F801E65FF64F268B0B
:10539000039500930B09089500E0209109091091ED
:1053A000E109123009F420E02150235040F0205050
:1053B00089F1235009F452C02A9509F07AC020E0FF
:1053C00010E0F801E75BF74F2283039521E010E03E
:1053D000F801E75BF74F2283039522E010E0F80124
:1053E000E75BF74F2283039525E010E0F801E75BC8
:1053F000F74F2283039527E010E0F801E75BF74FB2
:105400002283039528E010E0F801E75BF74F228341
:10541000039576C020E010E0F801E75BF74F2283A8
:10542000039522E010E0F801E75BF74F2283039534
:1054300025E010E0F801E75BF74F2283039527E0B2
:1054400010E0F801E75BF74F2283039528E010E0B6
:10545000F801E75BF74F2283039552C020E010E08C
:10546000F801E75BF74F2283039521E010E0F80194
:10547000E75BF74F2283039522E010E0F801E75B3A
:10548000F74F2283039525E010E0F801E75BF74F23
:105490002283039527E010E0F801E75BF74F2283B2
:1054A000039528E010E0F801E75BF74F22830395AE
:1054B00027C020E010E0F801E75BF74F2283039557
:1054C00021E010E0F801E75BF74F2283039522E02B
:1054D00010E0F801E75BF74F228303951091E10993
:1054E000113071F425E010E0F801E75BF74F2283FB
:1054F000039526E010E0F801E75BF74F2283039560
:1055000029E010E0F801E75BF74F228303952AE0DA
:1055100010E0F801E75BF74F228303952BE010E0E2
:10552000F801E75BF74F228303952CE010E0F801C8
:10553000E75BF74F2283039500934A080895002301
:1055400009F09EC00091DB09002309F4DEC200913E
:105550009703073039F409E8009375080AE10093CE
:10556000890806C008E80093750809E100938908D6
:105570000091E209033009F0C8C20091E6040F333C
:1055800009F4C3C2005320E001C0239510917408B0
:10559000211710F530E0F901ED58F74F1689163054
:1055A00039F030E0F901ED58F74F1689173069F7F7
:1055B000013011F417E001C016E030E0F901ED58B8
:1055C000F74F168B033011F417E001C018E030E0FC
:1055D000F901ED58F74F178B20E001C0239510918A
:1055E0007408211710F530E0F901ED58F74F1689CE
:1055F000123039F030E0F901ED58F74F16891330C9
:1056000069F7013011F413E001C012E030E0F90154
:10561000ED58F74F168B033011F413E001C014E07E
:1056200030E0F901ED58F74F178B20E001C02395CA
:1056300010917408211708F068C230E0F901ED58A4
:10564000F74F16891B3139F030E0F901ED58F74F6B
:1056500016891C3161F7013011F41CE101C01BE116
:1056600030E0F901ED58F74F168B033011F40CE1DF
:1056700001C00DE130E0F901ED58F74F078B0895B7
:10568000013009F042C200E01091DB091123F9F06A
:1056900010919703173071F429E810E0F801ED58E4
:1056A000F74F22832AE110E0F801ED58F74F268BDF
:1056B00003950DC028E810E0F801ED58F74F22835C
:1056C00029E110E0F801ED58F74F268B0395109172
:1056D0000909115089F01A9551F11A95B1F11A95ED
:1056E00009F41DC1125009F44FC11A9509F45AC1A9
:1056F0001A9509F472C17FC121E810E0F801ED5854
:10570000F74F228320E010E0F801ED58F74F268B89
:10571000039522E810E0F801ED58F74F228321E0CD
:1057200010E0F801ED58F74F268B0395ECC121E806
:1057300010E0F801ED58F74F228320E010E0F80167
:10574000ED58F74F268B0395DEC121E810E0F801F4
:10575000ED58F74F228320E010E0F801ED58F74FA5
:10576000268B03951091E209133009F042C024E81A
:1057700010E0F801ED58F74F228326E010E0F80121
:10578000ED58F74F268B039525E810E0F801ED580A
:10579000F74F228327E010E0F801ED58F74F268BF2
:1057A00003952AE810E0F801ED58F74F22832BE12A
:1057B00010E0F801ED58F74F268B03952BE810E029
:1057C000F801ED58F74F22832CE110E0F801ED5875
:1057D000F74F268B03952CE810E0F801ED58F74FB2
:1057E00022832EE110E0F801ED58F74F268B039548
:1057F00088C01091E209143008F45CC024E810E07D
:10580000F801ED58F74F228326E010E0F801ED583B
:10581000F74F268B039525E810E0F801ED58F74F78
:10582000228327E010E0F801ED58F74F268B03950F
:105830002DE810E0F801ED58F74F228328E010E042
:10584000F801ED58F74F268B03952AE810E0F80190
:10585000ED58F74F22832BE110E0F801ED58F74F98
:10586000268B03952BE810E0F801ED58F74F2283C3
:105870002CE110E0F801ED58F74F268B03952EE848
:1058800010E0F801ED58F74F22832DE110E0F80108
:10589000ED58F74F268B03952CE810E0F801ED58F2
:1058A000F74F22832EE110E0F801ED58F74F268BD9
:1058B000039527C024E810E0F801ED58F74F228344
:1058C00025E010E0F801ED58F74F268B03952AE804
:1058D00010E0F801ED58F74F228323E110E0F801C2
:1058E000ED58F74F268B03952CE810E0F801ED58A2
:1058F000F74F22832EE110E0F801ED58F74F268B89
:10590000039527E810E0F801ED58F74F228320E1D6
:1059100010E0F801ED58F74F268B0395F4C021E80D
:1059200010E0F801ED58F74F228320E010E0F80175
:10593000ED58F74F268B039525E810E0F801ED5858
:10594000F74F228327E110E0F801ED58F74F268B3F
:10595000039526E810E0F801ED58F74F228328E17F
:1059600010E0F801ED58F74F268B039527E810E07B
:10597000F801ED58F74F228320E110E0F801ED58CF
:10598000F74F268B0395BFC021E810E0F801ED58D2
:10599000F74F228320E010E0F801ED58F74F268BF7
:1059A0000395B1C021E810E0F801ED58F74F2283CC
:1059B00020E010E0F801ED58F74F268B039527E81B
:1059C00010E0F801ED58F74F228320E110E0F801D4
:1059D000ED58F74F268B039596C021E810E0F801AB
:1059E000ED58F74F228320E010E0F801ED58F74F13
:1059F000268B039588C021E810E0F801ED58F74F99
:105A0000228320E010E0F801ED58F74F268B039534
:105A10001091E209133009F047C022E810E0F801C4
:105A2000ED58F74F228322E010E0F801ED58F74FD0
:105A3000268B039523E810E0F801ED58F74F2283F9
:105A400023E010E0F801ED58F74F268B03951091F5
:105A5000DB09112309F457C024E810E0F801ED58E0
:105A6000F74F228326E010E0F801ED58F74F268B20
:105A7000039525E810E0F801ED58F74F228327E061
:105A800010E0F801ED58F74F268B039526E810E05B
:105A9000F801ED58F74F228329E010E0F801ED58A6
:105AA000F74F268B03952FC022E810E0F801ED5840
:105AB000F74F228321E010E0F801ED58F74F268BD5
:105AC00003951091DB091123F1F024E810E0F801AF
:105AD000ED58F74F228325E010E0F801ED58F74F1D
