:100000000C94DF74189518951895189518951895EF
:100010001895189518951895189518951895189578
:1000200018951895189518950C94FE2F18951895F5
:1000300018951895189518950C94FD7318951895A2
:100040000C944D26189518950C94AD250C941726F4
:100050001895189518951895189518951895189538
:100060001895189518951895189518951895189528
:1000700018951895189518950C94AB270C94012891
:1000800018951895189518951895189500C18140E0
:1000900001C0804101C0804100C1814001C0804158
:1000A00000C1814000C1814001C0804101C0804148
:1000B00000C1814000C1814001C0804100C1814038
:1000C00001C0804101C0804100C1814001C0804128
:1000D00000C1814000C1814001C0804100C1814018
:1000E00001C0804101C0804100C1814000C1814008
:1000F00001C0804101C0804100C1814001C08041F8
:1001000000C1814000C1814001C0804101C08041E7
:1001100000C1814000C1814001C0804100C18140D7
:1001200001C0804101C0804100C1814000C18140C7
:1001300001C0804101C0804100C1814001C08041B7
:1001400000C1814000C1814001C0804100C18140A7
:1001500001C0804101C0804100C1814001C0804197
:1001600000C1814000C1814001C0804101C0804187
:1001700000C1814000C1814001C0804100C1814077
:1001800001C0804101C0804100C1814000C0C10167
:10019000C30302C2C60607C705C5C404CC0C0DCDF7
:1001A0000FCFCE0E0ACACB0BC90908C8D81819D967
:1001B0001BDBDA1A1EDEDF1FDD1D1CDC14D4D51597
:1001C000D71716D6D21213D311D1D010F03031F187
:1001D00033F3F23236F6F737F53534F43CFCFD3DB7
:1001E000FF3F3EFEFA3A3BFB39F9F83828E8E929A7
:1001F000EB2B2AEAEE2E2FEF2DEDEC2CE42425E557
:1002000027E7E62622E2E323E12120E0A06061A1C6
:1002100063A3A26266A6A767A56564A46CACAD6D76
:10022000AF6F6EAEAA6A6BAB69A9A86878B8B979E6
:10023000BB7B7ABABE7E7FBF7DBDBC7CB47475B516
:1002400077B7B67672B2B373B17170B05090915106
:100250009353529296565797559594549C5C5D9D36
:100260005F9F9E5E5A9A9B5B995958988848498926
:100270004B8B8A4A4E8E8F4F8D4D4C8C44848545D6
:10028000874746868242438341818040380C018003
:10029000020041A042A1E045A3A4A5A64BA74D485A
:1002A0004FA8504354A9AA58E1ABACE2ADAE62AF3F
:1002B000B0B161B2B3B4E365B6B7B8B9BABBBCBD4F
:1002C0006FBE7063BF79E478E5C0C1E6C2C3C4C540
:1002D000C6C7EEF8E8E12EC0CA2000E0E2F2EE2E3A
:1002E000C0CA2000E0E2F2EE2EC0CA2000F3F1EA1C
:1002F0002EC0CA202000E2FBEAEB2EC0CA2000EF8D
:10030000F0EEE22EC0CA2000E8F1EFFBF22EC0CAE8
:1003100000EFF3F1EA20C0CA2000EDEEF0EC2EC0B1
:10032000CA2000E1E5E3EB2EC0CA2000EEE4EDEECA
:10033000F12EC0CA00D202DB02E402ED02F602FF97
:1003400002080311031A0323032C03EEF8E8E12E3D
:1003500000E0E2F2EE2000E0E2F2EE2000F3F1EA4B
:100360002E2000E2FBEAEB2E00EFF0EEE22E00E89A
:10037000F1EFFBF200EFF3F1EA2000EDEEF0EC2EEE
:1003800000E1E5E3EB2E00EEE4EDEEF1004B03516E
:100390000357035D03630369036F0375037B0381E5
:1003A000038703C0CA2D00CDE5F220F1E2FFE7E8A4
:1003B00020F120C1D1CF2020202020002020C8ED16
:1003C000E8F6E8E0EBE8E7E0F6E8FF202020202070
:1003D00000312EC6F3F0EDE0EB2E00322EC4E0F239
:1003E000E02FE2F0E5ECFF2E00332ED3EFF0E0E259
:1003F000EBE5EDE8E52E00342ED3F1F2E0EDEEE290
:10040000E8F2FC2E00352ECFF0EEF1ECEEF2F0200B
:10041000EFE0F0E0EC2E00362EC0E2F2EEEAEEED78
:10042000F2F0EEEBFC2E00372ECFF0EEF2EEEAEE1D
:10043000EB2E00D103DB03E903F7030504170427C0
:1004400004312E20C4E0F2E02E20202020202020A5
:10045000202020202000322E20C2F0E5ECFF2E20AC
:100460002020202020202020202000C6F3F0EDE0D6
:10047000EB2000F1EEE1FBF2E8E900E7E0F9E8F259
:10048000FB00EFF0E8E5ECEDE8EAE000EFE5F0E591
:10049000E4E0F2F7E8EAE00073048C0482047B04F1
:1004A000D7F2E5EDE8E520E0F0F5E8E2E02E00CF58
:1004B000CC00CFC400D1C100C7D900B504B204AF8D
:1004C00004B804CEC1D900CFE5F0E5E72E00CFE5B2
:1004D000F0E5E7E0EF2000CDE0F7E0EBEE2000CA2A
:1004E000EEEDE5F62000EAEEECE0EDE4FB00312E67
:1004F000D0E5E6E8EC2E00322ECFE0F0E0ECE5F2BD
:10050000F0FB2E00332ECFE0F0EEEBFC2E00342E6D
:10051000D2E5F1F22E00EE04F70404050E05C7E063
:10052000F9E8F2E02E00CFF0E8E5ECEDE8EA2E0085
:10053000CFE5F0E5E4E0F2F7E8EA2E00CEE1F9E8F5
:10054000E52E00CFF0E8E5ECEDE8EA20312E00CF13
:10055000F0E8E5ECEDE8EA20322E00D2E8EF20C723
:10056000E0F9E8F2FB00D2E8EF20CBE8EDE8E800A4
:10057000C4EEEF2E20E2F0E5ECFF20E1E5E720EC11
:10058000E0ED2E00C7E0E4E5F0E6EAE020EDE02053
:10059000EBE8EDE8E820202000CFE5F0E5EAF0FB0D
:1005A000F2E8E520E8ECEFF3EBFCF1EEE200C7E067
:1005B000E3F020F7F3E2F1F2E2E8F220EFEE2020A0
:1005C000D0C700D1EDE8E6E5EDE8E520F3F0EEE296
:1005D000EDFF20C0CA202000D7E0F1F2EEF2E020CB
:1005E000CFD0C400D7E0F1F2EEF2E020CFD0CC00C3
:1005F000D1E4E2E8E320EFE5F02EF4F0EEEDF2E0F6
:1006000020CFD0C400D1E4E2E8E320E7E0E42EF418
:10061000F0EEEDF2E020CFD0C400D1E4E2E8E32038
:10062000CFD0CC00D1E4E2E8E320C2D720CFD0C4C1
:1006300020EEF220CFD3D1CA005B05660570058499
:10064000059905AE05C305D805E405F00505061AAC
:10065000062406C7E0E4E5F0E6EAE020EDE020E26B
:10066000EAEB2E2020202000C4EBE8F2E5EBFCEDC5
:10067000EEF1F2FC20EAEEECE0EDE4FB00C7E0E492
:10068000E5F0E6EAE020EDE020E2FBEAEB2E2020B8
:10069000EA00C1EBEEEA2E20EAEEECE0EDE4FB200E
:1006A000203F2E2E3F2000C4EBE8F22E20EAEEEC95
:1006B000E0EDE4FB20203F2E2E3F2000530668068D
:1006C0007D069206A706C2F0E5ECFF20EDE020EFE4
:1006D000EEE2F22E20EAEEEC2E2000C1EBEEEA2E46
:1006E00020EAEEECE0EDE4FB20203F2E2E3F200040
:1006F000C4EBE8F22E20EAEEECE0EDE4FB20203F34
:100700002E2E3F200053066806C606DB06F006D1F3
:10071000EEE2ECE5F1F2E8ECEEF1F2FC0043E8ED9C
:10072000F5F0EEEDE8E7E0F6E8FF20F7E0F1EEE2C5
:100730000055E2FBF520EDEEECE8EDE0EBFCEDEE34
:10074000E500D3E4E5F0E6E0EDE8E520F0E5EBE5F3
:1007500020CFD0C400D1E5F2E5E2EEE920E0E4F0FC
:10076000E5F100C2F0E5ECFF20EFE5F0E5E7E0EFB2
:10077000F3F1EAE000D7E0F1F2EEF2E000CDEEECCA
:10078000E5F020E0EFEFE0F0E0F2E000CAEEEDF29D
:10079000F0EEEBFC20E2FBF52EF1E8E3EDE0EBE020
:1007A00000CFEEF0EEE320CFD0C5C4D3CFD020EF02
:1007B000EE20CAD72000C7E0E3F020F7F3E2F1F221
:1007C000E2E8F220EFEE2020CAD700CAEEF0F0E512
:1007D000EAF6E8FF20EDE0EFF0FFE6E5EDE8FF00E8
:1007E000CAEEF0F0E5EAF6E8FF20F2EEEAE000CF2C
:1007F000EEF0EEE320CFD0C5C4D3CFD020EFEE2073
:10080000D0C72000CFF0EEF2EEEAEEEB20EEE1EC06
:10081000E5EDE000CFF0E8E7EDE0EA20F7E5F2ED06
:10082000EEF1F2E800C4EEEFF3F1F2E8ECFBE520C4
:10083000EFF0EEE2E0EBFB00CFEEF0EEE320EFEEC8
:1008400020EFEEECE5F5E500C4EEEFF3F1F2E8ECB5
:10085000E0FF20EFEEECE5F5E000D2E8EF20E0E28B
:10086000F2EEEAEEEDF2F0EEEBFF00D0E5E7E5F0B8
:10087000E2E8F0EEE2E0EDE8E500D1EDE8E6E5EDF6
:10088000E8E520EEF2E2E5F2E020C0CA2020000F09
:10089000071D07310742075507630775077D078C5A
:1008A00007A107B607CB07E0070408140825083896
:1008B0000848085A086B087A08EF07C0C2C0CDD2B2
:1008C00020D034303000CFC2C72D393000C0C2C76D
:1008D000CA2D383000CFC2C7D32DC500CFC2C7CB79
:1008E00000EEF8E8E1EAE000BB08C608CD08D5084C
:1008F000DC08E108C7C0D900CFD0CC00CFCC310094
:10090000CFCC3200CFD0C400C2FBE2E5E42000C36C
:10091000EEF2EEE22000C2E2E5E4E5ED00D0E5F71C
:10092000FC202000D2E5F1F2203100D2E5F1F220E6
:100930003200D2E5F1F220330008090F0916091D33
:100940000924092B0932093F3F3F3F00202020C7DF
:10095000E0EFF3F1EA20F2E5F1F2E02020202020A0
:10096000002020CFEEE4EEE6E4E8F2E5203F20F1BF
:10097000E5EA20202000CFF0EEF2EEEAEEEB00D127
:10098000F2E0EDE4E0F0F2004D6F64427573007F39
:10099000098809C7C0D93A00CFD0CC3A00CFCC31B2
:1009A0003A00CFCC323A00CFD0C43A003F3F3F3F6D
:1009B0002020202000CDE5E8F1EFF0202000CFF04E
:1009C000E5E4F3EFF02000C2FBE2E5E4E5ED200012
:1009D000C3EEF2EEE220202000C2E2E5E4E5ED20E5
:1009E0002000D0E5F7FC2020202000D2E5F1F231F4
:1009F00020202000D2E5F1F23220202000D2E5F1C3
:100A0000F23320202000C709D009D909E209EB09F7
:100A1000F409C709D909C709EB09F409FD09C70990
:100A2000D909EB09F409FD09C8F1F5EEE4ED2E2032
:100A300000CAEEEDF2F0EEEBFC00CFF3F1EA20207D
:100A4000202000D0E0E1EEF2E0202000CDE5E8F14A
:100A5000EFF02E2000CF2EEDE5E8F1EFF000CEE62E
:100A6000E8E4E0EDE8E500CDE0EB2EEFF3F1EA009D
:100A7000D3E42EEFF3F1EA2000CDE5F220D0C72039
:100A80002000D0E5F7FC2020202000D2E5F1F22064
:100A900020202000280A310A3A0A430A4C0A550A43
:100AA0005E0A670A700A790A820A8B0AC8F1F5EEB3
:100AB000E4ED2E2000CFD0CC20CAD7202000CFD00C
:100AC000CC20CFC0202000CDE5F220CAD7202000C6
:100AD000CDE5E8F1EFF02E2000CF2EEDE5E8F1EFC7
:100AE000F000CEE6E8E4E0EDE8E500C1CBCA20CABC
:100AF000CC2020003F307830383F2020003F307835
:100B000030393F2020003F307830413F202000D254
:100B1000E5F1F22020202000AC0AB50ABE0AC70A7F
:100B2000D00AD90AE20AEB0AF40AFD0A060B0F0BF7
:100B3000C8F1F5EEE4ED2E2000CFD0C420CAD720B6
:100B40002000CFD0C420CFC0202000CDE5F220CAA5
:100B5000D7202000CDE5E8F1EFF02E2000CF2EEDDC
:100B6000E5E8F1EFF000CEE6E8E4E0EDE8E5003F8F
:100B7000307830373F2020003F307830383F202019
:100B800000D1E8F1F2E5EC2E20003F307830413F13
:100B9000202000D2E5F1F22020202000300B390B7C
:100BA000420B4B0B540B5D0B660B6F0B780B810BE1
:100BB0008A0B930B672D006C2D00C2E2EEE43A0025
:100BC000CFE0F0EEEBFC3A00CDEEE2FBE920EFE007
:100BD000F0EEEBFC3A00C7EDE0F7E5EDE8E53A2092
:100BE00000C4D4C72DCFF0CFE4202000C4D4C72D3B
:100BF000CFF0ECCCCA3100C4D4C72DCFF0ECCCCAB6
:100C00003200C4D4C72D4C363020202000CDC72D53
:100C1000CFF0CFE420202000CDC72DCFF0EC2DCC9D
:100C2000CA2000CFCFC72DCFF0CFE4202000CFCFF8
:100C3000C72DCFF0EC2DCCCA00EEF8E8E1EAE020B9
:100C400020202000E10BEC0BF70B020C0D0C180C14
:100C5000230C2E0C390CE2FBEAEB2E00E2EAEB2E21
:100C6000003F3F3F3F00560C5C0C610C3F3F3F3F55
:100C700000E1FBF1F2F0FBE900ECE5E4EBE5EDED82
:100C8000FBE9006C0C710C790C6C0C3F3F3F3F0092
:100C9000E2EAEB2E00E2FBEAEB2E008B0C900C95C7
:100CA0000C8B0C3F3F3F20E3F0E0E4003F3F3F2050
:100CB000F1E5EA003F3F20E3F0E0E4003F3F3F3F43
:100CC00000F2F0E5E2EEE6EDFBE900EDEEF0ECE03F
:100CD000EBFCEDFBE900F1EFEEEAEEE9EDFBE900FC
:100CE000BC0CC10CCB0CD60CBC0C2D35303020C349
:100CF000F6002D32353020C3F6002B3020C3F6002D
:100D00002B32353020C3F6002B35303020C3F600AF
:100D1000EEF8E8E1EAE000EA0CF20CFA0C000D084B
:100D20000D100DC4E8E0EFE0E7EEED3A2000EDE550
:100D3000F220E4E0EDEDFBF500F1EFE8F1EEEA0082
:100D40000000070001000200030001000000630032
:100D50000100000012000100120036000100000036
:100D60001600010000000100010000000400010065
:100D700000000400010000004800010000004800DD
:100D800001000000480001000000480001000100CF
:100D90000900010000000A000100010032000A0001
:100DA000000064000A000000FF0001000000FF00D6
:100DB000010000000A000100010032000A000100E9
:100DC00032000A000000FF0001000000FF000100E7
:100DD00000000400010000000100010008003200D2
:100DE00001000000020001000000FF0001000000FF
:100DF000050001001000E8030100010003000100EC
:100E000000000100010000001600010000001600B3
:100E100001000000E70301000000E70301000100FA
:100E2000020001000100020001000000B400010006
:100E30000000FF00010012005A0001000100030041
:100E40000100000001000100000014000100302E2C
:100E5000302E2E39392E3900CFF0EEF8E8E2EAE0F4
:100E600020502D555350202000CFF0EEF8E8E2EA54
:100E7000E02041542D5553502000CFF0EEF8E8E229
:100E8000EAE0204453502D55535000C4EEEFEEEBF2
:100E9000ED2E20EFE0F0E0ECE5F2F0FB00C2E8E43C
:100EA00020EFE0F0E0ECE5F2F0E000580E690E7A99
:100EB0000E8B0E9D0EC5F1F2FC00CDE5F200BA0ED0
:100EC000B50EF1F2E0EDE4E0F0F20048455800CB59
:100ED0000EC20E2ED1E1F0EEF120F1E2EEE5E3EEEE
:100EE0002E2020202020002ED1E1F0EEF120F3E48E
:100EF000E0EBE5EDEDEEE3EE2E20002ED1E1F0EE9D
:100F0000F120F3E4E0EBE5EDEDEEE3EE2031002E31
:100F1000D1E1F0EEF120F3E4E0EBE5EDEDEEE3EE10
:100F20002032002ED1E1F0EEF120F3E4E0EBE5ED2C
:100F3000EDEEE3EE2033002ECFF3F1EA20F3E4E010
:100F4000EBE5EDEDEEE3EE2E2020002ECFF3F1EAFF
:100F500020F3E4E0EBE5EDEDEEE3EE203120002EB2
:100F6000CFF3F1EA20F3E4E0EBE5EDEDEEE3EE2084
:100F70003220002ECFF3F1EA20F3E4E0EBE5EDEDD3
:100F8000EEE3EE203320002ECFF3F1EA20F3E4E08D
:100F9000EBE5EDEDFBF520202020002EC0CA20E07F
:100FA000E2F2EEECE0F2E8F7E5F1EAE8E920002E03
:100FB000C0CA20F3F1EAEEF0E5EDEDFBE9202020D8
:100FC0002020002EC0CA20E2FBEAEBFEF7E5ED2070
:100FD000202020202020002EC0CA20EAEEEDF2F0D2
:100FE0002EEFF0EEE2E5F0EAE020002EC0CA20E8A5
:100FF000F1EFFBF2E0EDE8FF202020202020002E82
:10100000C0CA20EFF3F1EA20202020202020202059
:101010002020002EC2FBE7EEE2202020202020200E
:10102000202020202020002EC0CA20EDEEF0ECE091
:10103000EBFCEDFBE92020202020002EC0CA20E19F
:10104000E5E3EBFBE9202020202020202020002EBB
:10105000CFF3F1EA20F3E4E0EBE5ED2E20CCC0CDB8
:101060002020002EC0CA20EEE4EDEEF1F2EEF0EE0C
:10107000EDEDE8E92020002ED1E1F0EEF120C0CA2C
:1010800020202020202020202020002ECFF3F1EA55
:1010900020C0CA20F1E2EEE9202020202020002EEE
:1010A000CFF3F1EA20C0CA20F3E4E0EBE5EDEDFB7D
:1010B000E920002ECFF3F1EA20CFD0C42020202059
:1010C000202020202020002ECFF3F1EA20EDE0EBBD
:1010D000E0E42E20E2EAEB2E2020002ECFF3F1EA0E
:1010E00020EDE0EBE0E42E20E2FBEAEB2E20002EE8
:1010F000CFF3F1EA20F3E4E0EB2E20CCC0CD203199
:101100002020002ECFF3F1EA20F3E4E0EB2E20CCF8
:10111000C0CD20322020002ECFF3F1EA20F3E4E00E
:10112000EB2E20CCC0CD20332020002ECFF3F1EACF
:1011300020F3E4E0EB2DFBF520CCC0CD202000D344
:101140000EE70EFB0E0F0F230F370F4B0F5F0F73C2
:101150000F870F9B0FAF0FC30FD70FEB0FFF0F13AF
:101160001027103B104F10631077108B109F10B397
:1011700010C710DB10EF10031117112B11C2FBEF7A
:10118000EEEBEDE8F2FC007D1120202020204572DE
:10119000726F7220202020202000CDE5E8F1EFF0D2
:1011A0002EF7F22E20464C41534800CDE5E8F1EFF2
:1011B000F02EE7E0EF2E464C41534800CDE5E8F134
:1011C000EFF02EF7F22E20504C49532000CDE5E8E9
:1011D000F1EFF02EE7E0EF2E504C49532000CDE523
:1011E000E8F1EFF02EE7E0EF2E3252414D2000CD36
:1011F000E5F220F1E8E3EDE0EBE020CFD0CC2000F9
:10120000C0CA2DD1EDE8E6E5ED2EE7E0EFE0F1E034
:1012100000CFEEECE5F5E020E220EBE8EDE8E82099
:101220002000CDE5E8F1EFF02E445350203252413A
:101230004D2000CDE5E8F1EFF02EF7F22E203252EE
:10124000414D2000D2EEEA20EFEEEAEEFF20202012
:101250002020202000CDE8E7EAEEE520EDE0EFF0E9
:101260002EE2FBF52E00C2FBF1EEEAEEE520EDE00A
:10127000EFF02EE2FBF500CDE5E8F1EFF02E20CC0B
:10128000CA20D3CC20202000C2D720F2F0E0EAF21E
:1012900020E2EEF1F1F22E20009A11AB11BC11CD3B
:1012A00011DE11EF110012111222123312441255E5
:1012B000126612771288128911C0CA2DCDE5F2206C
:1012C000EEF2E2E5F2E020202000D3F1F2E0EDEED4
:1012D000E2E8F2E520F7E0F1FB2000CEF2EAE0E7F9
:1012E00020F0E5E7E5F0E22EEBE8ED00D3E4E0EBFB
:1012F0002EEFEEF1F220EDE5E8F1EFF000D3E4E0BF
:10130000EB2ECFD0C420EDE5E8F1EFF02E00D3E4D2
:10131000E0EB2ECFD0CC20EDE5E8F1EFF02E00CAC7
:1013200012DB1289118911EC12FD120E138911CDF5
:10133000E5F220E1EBEEEAE020C1D1C72020200059
:10134000CDE5E8F1EFF02EE2E5F0F12EC1D1C720B6
:1013500000CDE5E8F1EFF02EEFE5F0E5EAEB2E2029
:101360002000CDE5E8F1EFF02EE7E0EF2E20C1D12F
:10137000C72000CDE5F220F1E8E3EDE0EBE020CF7F
:10138000D0CC2000CDE8E7EAE8E920F3F02E20D029
:10139000C720202000CDE5E8F1EFF02EF3E4E0EBEC
:1013A0002EC4D4C72000CDE5E8F1EFF02EF3E4E041
:1013B000EB2EC2DBD52E00CDE5E8F1EFF02EE2F505
:1013C000EEE42ECFD3D1CA00CDE5E8F1EFF02EE266
:1013D000F5EEE42ED1D2CECF00D3E42ECFCED1D2B3
:1013E00020E1E5E720EEF2E22E00CDE5E8F1EFF0B6
:1013F0002EF6E5EFFC2EC2DBD52000D3E42ECFCEB7
:10140000D1D220EEE1ED2EEFEEEC2E00CDE5E8F1AD
:10141000EFF02EE7E0EF2E20C2DBD52000C4EBE892
:10142000F2E5EBFCED2E20EFEEECE5F5E000CDE58E
:10143000E8F1EFF02E20C4D4C72020202020002F78
:1014400013401351136213731384139513A613B728
:1014500013C813D913EA13FB130C141D142E14C054
:10146000CA2DCDE5F220EEF2E2E5F2E020202000E8
:10147000C0CA2DD1EDE8E6E5ED2EE7E0EFE0F1E0C2
:1014800000CDE5F220F1E8E3EDE0EBE020CCC0CDCB
:101490002000CFEEF0EEE320EFEE20EFEEECE5F5EE
:1014A000E52000C0E2F2EEEAEEEDF2F0EEEBFC2019
:1014B00020202000CDE5F220E1EBEEEAE020C1D1D2
:1014C000CA20202000CDE5E8F1EFF02EE2E5F0F1B2
:1014D0002EC1D1CA2000CDE5F220CAD7202020207D
:1014E00020202020202000CFF0E5E22EE4EB2DF19B
:1014F000F2E82EEAEEEC2E00CDE5E8F1EFF02EE773
:10150000E0EF2E20C1D1CA2000CDE5E8F1EFF02EAA
:10151000E2FBEAEB2ECAD1CA2000CDE5E8F1EFF0FC
:101520002EE2EAEB2E20CAD1CA2000CDE5E8F1EF89
:10153000F02EEAEEEDF2F02ECAD1CA00CFF0E5E4CB
:10154000F3EFF02EEDE5F220CAD7312000CFF0E81E
:10155000E5EC20E1EBEEEA2E20CAEEEC2E00B4140E
:10156000C514D614E7148911891189118911F81449
:1015700009151A152B153C15891189114D15D1ED39
:10158000E8E62E20F3F0EEE2EDFF20CFD0CC00CD48
:10159000E5F220E1EBEEEAE020C1D1CA20202000F4
:1015A000CDE5E8F1EFF02EE2E5F0F12EC1D1CA2051
:1015B00000CDE5E8F1EFF02EF7F22EEAEEECE0EDEB
:1015C000E400CDE5E8F1EFF02EE2FBEAEB2ED2E508
:1015D000F1F200CDE5E8F1EFF02EE2EAEB2E20D2B9
:1015E000E5F1F200CDE5E8F1EFF02EE2F5EEE42EC4
:1015F000CAD1CA20008F15A01589118911891189B6
:101600001189118911B115C215D315E415891189F4
:101610001189118911C3F0313A00C3F0323A00C385
:10162000F0F3EFEFE0203100C3F0F3EFEFE0203212
:10163000001F1601281602E2FBEAEB00EEF8E8E1D3
:1016400000D0C700CAD73100CAD73200CAD733008A
:10165000CAD73400CAEEEC3100CAEEEC3200CAEE52
:10166000EC3300CAEEEC3400CAEEEC3500CAEEEC06
:101670003600CAEEEC3700CAEEEC3800CAEEEC39A0
:1016800000CAEC313000CAEC313100CAEC31320012
:10169000CAEC313300CAEC313400CAEC313500CA2F
:1016A000EC313600CAEC313700CAEC313800CAECF4
:1016B000313900CAEC323000CAEC323100CAEC32A7
:1016C0003200CAEC323300CAEC323400CAEC323594
:1016D00000CAEC323600CAEC323700CAEC323800AD
:1016E000CAEC323900CAEC333000CAEC333100CADC
:1016F000EC3332003C16FF37160041160144160148
:101700004816024C16035016045416035916045E6C
:1017100016056316066816076D1608721609771601
:101720000A7C160B81160C86160D8B160E90160F62
:101730009516109A16119F1612A41613A91614AE18
:101740001615B31616B81617BD1618C21619C716F1
:101750001ACC161BD1161CD6161DDB161EE0161F42
:10176000E51620EA1621EF1622D2E5F1F22031002B
:10177000D2E5F1F220320069177017CD2EF7F22E64
:10178000464C41534800CD2EE7EF2E464C4153487E
:1017900000CD2EF7F22E504C49532000CD2EE7EF0E
:1017A0002E504C49532000CD2EE7EF2E3252414DA2
:1017B0002000CD2EF7F22E3252414D2000CD2EF0DA
:1017C000E0E12E4453502000C2EEF1F22EF02E4400
:1017D000535000CDE8E7EA2E2055E2FBF500C2FBAE
:1017E000F12E2055E2FBF52000CD2EF1E22E20F166
:1017F00020D3CC00CD2E20F7E0F1EEE2202000CD6A
:10180000E5F220E1EB2EC1D1C700CD2EE2E5F0F1EB
:101810002EC1D1C700CD2EEFE5F02E20C1D1C700DB
:10182000CDE5F220F12E20CCC0CD00CFE5F0E5E7EC
:10183000E0EFF3F1EA00C8E7EC2EF0E5E6E8ECE0D3
:1018400000CEF82EE7E0EFE8F1E82000CEF82EEA2F
:10185000EEEDF2F02E2000D1EDE8E62EF32ECFD003
:10186000CC00CDE5F220F12E20CFD0CC00CDE5F29A
:1018700020F12ECFD3D1CA00EDE5F220F12ED1D246
:10188000CECF00C2FBEAEBFEF7E5EDE8E5005F0036
:10189000D1E2FFE7FC20F120CFCA002E003030302B
:1018A0003000197621762576267621763976010064
:1018B000E5100A00890EA30ED20EF80E3E0F890F16
:1018C000DA0FF10F03101510110004120C00F810BC
:1018D00029116F11BB11E01104120412F810291123
:1018E0006F11BB11E0113500B51D0900131A261A3E
:1018F000521AC61AE61AE81B0D1D351DA31D00015C
:1019000001B128722801722801722801722801721F
:10191000280172280172280A772801772801772880
:101920000177280177280177280B7C28017C280182
:101930007C28017C28017C280B81280185280189CD
:1019400028028D28019128019128019128019128D0
:10195000019128019128019128019128859628015B
:10196000AE280F9C2801AE280FA22801AE280FA890
:101970002801AE28FB00000100F02B0700A22BADD0
:101980002BBA2BC52BD02BDB2BE62B0000110089AB
:101990002C0600FE2B092C182C3D2C5E2C7F2C00D5
:1019A000002100012D0500972CA22CB12CC02CE1A8
:1019B0002C0000004E2F09009D2EEE2DFE2D0E2E28
:1019C000242E402E5C2E782E832E003500B82F0951
:1019D000005C2F672F722F7D2F882F932FA32FB896
:1019E0002FAE2F0077012836203604183602103625
:1019F000010836392436041C36021436010C361917
:101A00002236041A36021236010A36092636041E18
:101A100036021636010E36FB0000F8371500B137D6
:101A2000B137B337B137B337B337B337B337B1376C
:101A3000B337B337F237B337B137B137B337B3371B
:101A4000B337B137B137B33707014B4EAF4D01BA9A
:101A50004D01C44D01C44D01CE4D01D84D01D84DAD
:101A600004E84D01F24D01F24D06024E01024E0115
:101A70000C4E01144E01224E012C4E05344E163CE4
:101A80004E7D444EFB0023010E5DA4550D5E5401B6
:101A9000315101635101CE51014152011C530135B5
:101AA000530104540114540155540A72540116553B
:101AB00001A755086754088F54FB01010F5D495277
:101AC000015C52025F52016352016652016E520183
:101AD000975201DC5201FF52026A52016E52019785
:101AE0005201DC5201FF52061353011753FB01014F
:101AF0000F5D3D53015053055353017C5301C353B4
:101B000001E753035353017C5301C35301E75306C9
:101B1000FB5301FF53FB02000F5D16007A547D5406
:101B20007D547D547D54805480548054805484541A
:101B3000845487548754875487540F5D7D547D5453
:101B400084548B547D547D540000E0570D00F956A9
:101B50000957195729573D57515765577557855795
:101B60009557A857BB57CE570000DC5B15006B5A42
:101B70007B5A8B5A9B5AAB5ABB5ACB5ADB5AEB5AFD
:101B8000FB5A0E5B235B395B455B585B6B5B7E5B93
:101B9000915BA45BB75BCA5B07002B601000415FE1
:101BA0009C5FDA5F5B5F2B602B60415F9C5FDA5F5D
:101BB0005B5F2B602B60ED5FF25FF75F26600100DB
:101BC000DC610C00D360D360DB60F760F760DC6140
:101BD000DC61D360D360DB60F760F76001008D717A
:101BE00017007C656B66A166BA6603675F679467DA
:101BF000C56BCD6CC168366A5F679467C56BCD6C89
:101C0000C1688D717B6D9C6D0E6EC86EBA70267149
:101C10000000BC680D00FF6710681968226833680F
:101C20004468556866687768886891689A68A368A8
:101C30000000326A15001069216932693B694C69FC
:101C400055695E696769706981698A699B699B6981
:101C5000BA69CB69DC69E569EE69F769086A196AEE
:101C600030E042E007C050E0F801E40FF51F50817A
:101C7000350F43954217B8F3032F0895E5E4F6E0D6
:101C80002081206120830093880601E0009389066B
:101C900010938A0625E006E816E0E2DF10E00093E4
:101CA000E8041093E9040091E80400938B0606E031
:101CB0000E94842708959A938A93812FE5E4F6E0A1
:101CC0001081106110830093880680938906282F65
:101CD0002C5F06E816E0C4DF10E00093E8041093E0
:101CE000E9040091E80490E0FC01EA57F94F04830D
:101CF0008B5F082F0E9484278991999108950E94F3
:101D0000E47560904A06EEEAF0E0FBBFF8E10C945F
:101D10009E757724E0E4FDE005911491601671064C
:101D200040F0E2E4FDE005911491772406151705D3
:101D300038F4E2E4FDE0059103950093CA0445C23E
:101D40006092CA0442C263947724E6E4FDE0059100
:101D500014916016710640F0E8E4FDE005911491DD
:101D600077240615170520F40FE3009379032DC29D
:101D7000062D005D009379030091D70B061589F0BD
:101D80006092D70B0E9446400E94B4380E94913B5B
:101D900001E00E94343C0E94953E0E94DA3F0E947E
:101DA000464013C27724ECE4FDE0059114916016DF
:101DB000710640F0EEE4FDE00591149177240615DC
:101DC000170538F40FE3009384030FE300938503B2
:101DD000FCC14AE0062D0E94F974005D0093840363
:101DE0004AE0062D0E94F974405D40938503EDC1E1
:101DF0000091D60B013039F4E2E5FDE08591E4E590
:101E0000FDE0A59102C080E0A6E3681610F0A615DB
:101E100038F40FE300938D030FE300938E030EC09D
:101E20004AE0062D0E94F974005D00938D034AE09C
:101E3000062D0E94F974405D40938E030091D70BEC
:101E40000330D9F460904B06681610F0A61538F4EC
:101E50000FE3009395030FE300939603B6C14AE0A6
:101E6000062D0E94F974005D009395034AE0062D4B
:101E70000E94F974405D40939603A7C180E0A8E4F6
:101E8000442421C04AE0062D0E94F974005D242DEF
:101E900030E0220F331FF901EB52FC4F20813181DA
:101EA000F90100834AE0062D0E94F974405D042D7B
:101EB00010E0000F111FF801EB52FC4F008111815F
:101EC000F8014183439404E0401610F55524F201D3
:101ED000EA5BF94F6480681610F0A61598F62FE3B8
:101EE000042D10E0000F111FF801EB52FC4F008190
:101EF0001181F80120832FE3042D10E0000F111F42
:101F0000F801EB52FC4F00811181F8012183DACFF7
:101F10005CC17724EEE5FDE0059114916016710631
:101F200040F0E0E6FDE005911491772406151705D1
:101F300038F40FE30093DD030FE30093DE030EC0DC
:101F40004AE0062D0E94F974005D0093DD034AE02B
:101F5000062D0E94F974405D4093DE030091D70B7B
:101F6000033039F560904B067724EEE5FDE00591EE
:101F700014916016710640F0E0E6FDE005911491C1
:101F800077240615170538F40FE30093E3030FE3F6
:101F90000093E4031AC14AE0062D0E94F974005D23
:101FA0000093E3034AE0062D0E94F974405D4093DC
:101FB000E4030BC17724E4E6FDE00591149160167B
:101FC000710640F0E6E6FDE00591149177240615D0
:101FD000170520F402E00093ED03F7C06092ED03D3
:101FE000F4C0ECE6FDE00591149177240615170581
:101FF00038F4ECE6FDE0059103950093EE03E5C0AF
:102000006092EE03E2C0E2E7FDE0059114917724CF
:102010000615170538F4E2E7FDE0059103950093F6
:10202000EF03D3C06092EF03D0C07724EEE8FDE069
:10203000059114916016710640F0E0E9FDE005910C
:10204000149177240615170520F400E00093530A35
:10205000B9C06092530A0091180B002329F4009133
:10206000180B053008F0AEC00091180B015049F074
:102070000A95E9F10A9509F470C00A9509F46DC052
:10208000A1C000914B0610E020E0322F212F102F2D
:1020900000E040914C0650E060E070E0040F151F36
:1020A000261F371F322F212F102F00E040914D06A1
:1020B00050E060E070E0040F151F261F371F322F1D
:1020C000212F102F00E040914E0650E060E070E0BC
:1020D000040F151F261F371F48EE53E060E070E025
:1020E0000E9473750093540A1093550A6BC00091B7
:1020F0004B0610E020E0322F212F102F00E04091FE
:102100004C0650E060E070E0040F151F261F371FDB
:10211000322F212F102F00E040914D0650E060E05B
:1021200070E0040F151F261F371F322F212F102F8D
:1021300000E040914E0650E060E070E0040F151F93
:10214000261F371F48EE53E060E070E00E94737571
:102150000093540A1093550A35C000914B0610E0C5
:1021600020E0322F212F102F00E040914C0650E04C
:1021700060E070E0040F151F261F371F322F212F3C
:10218000102F00E040914D0650E060E070E0040F39
:10219000151F261F371F322F212F102F00E04091CF
:1021A0004E0650E060E070E0040F151F261F371F39
:1021B00048EE53E060E070E00E9473750093540AAB
:1021C0001093550A01E00093B00201E000932C0A3D
:1021D00001E000932A0AE8E00C94EE750E94E8758D
:1021E000802F082FE8ECF0E0FBBFF8E10C949E751F
:1021F000813119F4A0EFB3E002C0A9E3B4E000918B
:102200004A0610E0E4E9FDE0259134910217130736
:1022100050F0E6E9FDE02591349100914A0610E086
:102220002017310730F40FE30C930FE3FD01018316
:10223000EBC000914A064AE00E94F974005D0C93DD
:1022400000914A064AE00E94F974405DFD01418315
:10225000DBC0823119F4A6EFB3E002C0AFE3B4E013
:1022600000914A0610E0EAE9FDE025913491021759
:10227000130750F0ECE9FDE02591349100914A06F6
:1022800010E02017310748F40FE30C930FE3FD0132
:1022900001830FE3FD010283B7C000914A060A30B3
:1022A00058F400914A06005D0C9300E3FD010183A0
:1022B00000E2FD010283A8C000914A064AE00E94A4
:1022C000F974005D0C9300914A064AE00E94F9748B
:1022D000405DFD01418300E3FD01028395C0833130
:1022E00019F4A7EDBAE002C0A7EFBAE000E000934E
:1022F000ED0413C00091ED0410E0F801EA5BF94F22
:1023000024810091ED0410E0FD01E00FF11F208316
:102310000091ED0403950093ED040091ED041091FC
:102320004906011738F50091ED0410E0F801EA5B69
:10233000F94F048110E0E0EAFDE0259134910217A5
:10234000130778F0E2EAFDE0259134910091ED0465
:1023500010E0F801EA5BF94F048110E02017310723
:1023600048F60FEF2091ED0430E0FD01E20FF31F7E
:102370000083CECF49C0843119F4A1E2B4E002C099
:10238000AAE6B4E000E00093ED0413C00091ED0470
:1023900010E0F801EA5BF94F24810091ED0410E0B0
:1023A000FD01E00FF11F20830091ED0403950093E0
:1023B000ED040091ED0410914906011738F324C093
:1023C000853119F4A5E2B4E002C0AEE6B4E000E065
:1023D0000093ED0413C00091ED0410E0F801EA5BF6
:1023E000F94F24810091ED0410E0FD01E00FF11F91
:1023F00020830091ED0403950093ED040091ED041A
:1024000010914906011738F301E000932C0A01E00E
:1024100000932A0AE4E00C94F275015261F00A95E7
:1024200061F10A9509F46BC00A9509F4AAC00A95EE
:1024300009F4C5C0E1C0E4EBFDE0259134910091C1
:102440004A0610E02017310738F40FE300937204B6
:102450000FE300937304D0C000914A064AE00E9443
:10246000F974005D0093720400914A064AE00E94EC
:10247000F974405D40937304BFC000914A0610E0B8
:10248000E8EBFDE0259134910217130750F0EAEBD9
:10249000FDE02591349100914A0610E020173107A4
:1024A00050F40FE3009378040FE3009379040FE3F3
:1024B00000937A04A1C000914A060A3060F40091AA
:1024C0004A06005D0093780400E30093790400E27B
:1024D00000937A0491C000914A064AE00E94F97480
:1024E000005D0093780400914A064AE00E94F97466
:1024F000405D4093790400E300937A047DC000912D
:102500004A0610E0EEEBFDE0259134910217130727
:1025100050F0E0ECFDE02591349100914A0610E086
:102520002017310750F40FE300937F040FE300936B
:1025300080040FE3009381045FC000914A060A30D3
:1025400060F400914A06005D00937F0400E300936D
:10255000800400E2009381044FC000914A064AE0E3
:102560000E94F974005D00937F0400914A064AE0DE
:102570000E94F974405D4093800400E3009381045D
:102580003BC000E00093ED0413C00091ED0410E0A7
:10259000F801EA5BF94F24810091ED0410E0F801A5
:1025A000E656FB4F20830091ED0403950093ED0464
:1025B0000091ED0410914906011738F31DC000E0A9
:1025C0000093ED0413C00091ED0410E0F801EA5B04
:1025D000F94F24810091ED0410E0F801E256FB4F21
:1025E00020830091ED0403950093ED040091ED0428
:1025F00010914906011738F301E000932C0A01E01D
:1026000000932A0A089540E020C050E003E010E063
:102610000E941775F801EA5BF94F2581042F10E03D
:10262000000F111FF801E459FC4F218350E003E033
:1026300010E00E941775F801EA5BF94F068150E03F
:10264000FA01EB58FC4F008343954430E0F550E02D
:1026500003E010E00E941775F801EA5BF94F04816E
:10266000063050F02EE4042F10E0000F111FF80187
:10267000E459FC4F208311C050E003E010E00E94B9
:102680001775F801EA5BF94F2481042F10E0000F61
:10269000111FF801E459FC4F208350E003E010E0E3
:1026A0000E941775F801EA5BF94F05810C3008F4B8
:1026B000ACCF2EE4042F10E0000F111FF801E459F5
:1026C000FC4F2183B3CF01E000932C0A089500E072
:1026D0000BC010E0F801EA5BF94F248110E0F8012B
:1026E000E75CF54F20830395043198F30091450A88
:1026F000002321F40091460A002321F001E0009319
:10270000DC0B03C000E00093DC0B0091470A0023C0
:1027100021F40091480A002321F001E00093DD0B31
:1027200003C000E00093DD0B0091390A002321F47F
:1027300000913A0A002321F001E00093DE0B03C070
:1027400000E00093DE0B00913B0A002321F400918E
:102750003C0A002321F001E00093DF0B03C000E0FE
:102760000093DF0B00913D0A002321F400913E0A03
:10277000002321F001E00093E00B03C000E0009390
:10278000E00B00913F0A002321F40091400A00234E
:1027900021F001E00093E10B03C000E00093E10BA6
:1027A0000091410A002321F40091420A002321F004
:1027B00001E00093E20B03C000E00093E20B009104
:1027C000430A002321F40091440A002321F001E090
:1027D0000093E30B03C000E00093E30B0091490A70
:1027E000002321F400914A0A002321F001E0009324
:1027F000E40B03C000E00093E40B00914B0A0023BC
:1028000021F400914C0A002321F001E00093E50B34
:1028100003C000E00093E50B01E000932C0A08954B
:10282000BC0100914A060F70005D0093C502009143
:102830004A0602950F70005D0093C40200914B069A
:102840000F70005D0093C20200914B0602950F705D
:10285000005D0093C10200914C060F70005D009373
:10286000BF0200914C0602950F70005D0093BE02FE
:1028700000914D060F70005D0093C80200914D0657
:1028800002950F70005D0093C70200914E060F7015
:10289000005D0093CB0200914E0602950F70005D23
:1028A0000093CA0200914F060F70005D0093CE02A4
:1028B00000914F0602950F70005D0093CD0200E07D
:1028C0000093EC0408C000E00093A7020091EC0420
:1028D00003950093EC040091EC040830A8F50091F6
:1028E000EC0410E0F801E254FD4F008100530A307F
:1028F00078F00091EC0410E0F801E254FD4F008103
:102900000E3231F00091A60203950093A60203C097
:1029100000E00093A6020091EC0410E0F801E953F6
:10292000FD4F008100530A3070F20091EC0410E07A
:10293000F801E953FD4F00810A3329F20091A70203
:1029400003950093A702C2CF8091C50290E0409109
:10295000C40250E00AE010E00E941775800F911F3A
:1029600080519240843600E090072CF00091A6023E
:1029700003950093A6028091C20290E04091C102AB
:1029800050E00AE010E00E941775800F911F8051FF
:1029900092408D3090402CF00091A6020395009358
:1029A000A6028091BF0290E04091BE0250E00AE092
:1029B00010E00E941775800F911F80519240803265
:1029C00090402CF00091A60203950093A6028091FE
:1029D000C80290E04091C70250E00AE010E00E9477
:1029E0001775800F911F80519240893190402CF0D3
:1029F0000091A70203950093A7028091CB0290E07B
:102A00004091CA0250E00AE010E00E941775800F62
:102A1000911F805192408D3300E090072CF000917F
:102A2000A70203950093A7028091CE0290E0409107
:102A3000CD0250E00AE010E00E941775800F911F50
:102A4000805192408D3300E090072CF00091A70256
:102A500003950093A7020091A602002351F100E321
:102A60000093C50200E30093C40200E30093C20296
:102A700000E30093C10200E30093BF0200E3009370
:102A8000BE0200E00093A60200E00093EC04009177
:102A9000EC04033048F500E02091EC0430E0F9014B
:102AA000E056FD4F00830091EC0403950093EC0485
:102AB000EECF00E00093EC0413C00091EC0410E0B2
:102AC000F801EA5BF94F24810091EC0410E0F80171
:102AD000E056FD4F20830091EC0403950093EC0435
:102AE0000091EC04033048F30091A702002351F158
:102AF00000E30093C80200E30093C70200E30093E1
:102B0000CB0200E30093CA0200E30093CE0200E38D
:102B10000093CD0200E00093A70200E00093EC04D4
:102B20000091EC04033048F500E02091EC0430E023
:102B3000F901E056FD4F03830091EC0403950093E7
:102B4000EC04EECF00E00093EC0413C00091EC0421
:102B500010E0F801EA5BF94F27810091EC0410E0E6
:102B6000F801E056FD4F23830091EC040395009398
:102B7000EC040091EC04033048F301E000932C0ACC
:102B800001E00093B002CB0108950E94E775D801DF
:102B9000822F942F452E3A95082F07C020E210E08F
:102BA000FD01E00FF11F208303950830B8F300E822
:102BB000401658F00FEF402643942DE2082F10E006
:102BC000FD01E00FF11F20838395042D10E0432FBA
:102BD0000E942175402E03E64016C8F44AE0042DF9
:102BE0000E94F974005D282F30E0FD01E20FF31F11
:102BF000008383954AE0042D0E94F974405D082FFC
:102C000010E0FD01E00FF11F4083839510C02FE31A
:102C1000082F10E0FD01E00FF11F208383952FE3C3
:102C2000082F10E0FD01E00FF11F208383959150E4
:102C300019F09A9539F012C003EE90E0A80FB91F71
:102C40000C930CC004EE90E0FD01E80FF91F008327
:102C500001EC90E0A80FB91FFD010183E5E00C94A1
:102C6000F1750E94E6752801A22FB42FCB016E8169
:102C70007F813A950A2F07C020E210E0F201E00FB1
:102C8000F11F208303950830B8F3432F8C010E9475
:102C90002175C8018617970708F067C0883E03E0D2
:102CA000900710F148EE53E08C010E942475202F0C
:102CB0000A2F10E0F201E00FF11F20830A2F10E02D
:102CC000F201E00FF11F408150E008EE13E00E9496
:102CD0001775801B910B0A2F10E0F201E00FF11F16
:102CE0000081005D0083A395843600E0900710F119
:102CF00044E650E08C010E942475202F0A2F10E03A
:102D0000F201E00FF11F20830A2F10E0F201E00F23
:102D1000F11F408150E004E610E00E941775801B0F
:102D2000910B0A2F10E0F201E00FF11F0081005D0E
:102D30000083A3954AE050E08C010E942475005D59
:102D40002A2F30E0F201E20FF31F0083A3954AE03F
:102D500050E08C010E942475405D0A2F10E0F201C2
:102D6000E00FF11F4083A39510C02FE30A2F10E05E
:102D7000F201E00FF11F2083A3952FE30A2F10E04B
:102D8000F201E00FF11F2083A395B15019F0BA951D
:102D900071F013C00CEEB0E0F201EA0FFB1F0083EC
:102DA00000ECB0E04A0E5B1EF201018306C005E2B2
:102DB000B0E04A0E5B1EF2010083E8E00C94F0756F
:102DC000432F42954F704A3018F0495C542F02C08F
:102DD000405D542F452F622F70E0F801E60FF71F7A
:102DE00040833F70432F4A3018F0495C342F02C0B3
:102DF000405D342F432F30E0020F131FF801418351
:102E000008950E94E67580914A06A0914B0600E065
:102E100010E000936B0B10936C0B082F0D59073CBF
:102E200020F40A2F065A053B50F00FE30093640B81
:102E30000FE30093650B00E00093660B84C044240D
:102E4000242D422E4394082F0A2B0078002311F0E2
:102E50000DE201C00BE230E0F901EC59F44F0083C0
:102E600088231AF400E0081B802FAA231AF400E03C
:102E70000A1BA02F082F0A2B002331F400E3009334
:102E8000640B00E00093650B8A305CF04AE0082F89
:102E90000E940775005D5524F201EC59F44F008340
:102EA00043944AE0082F0E940775405D5524F201C3
:102EB000EC59F44F408343940EE25524F201EC594F
:102EC000F44F008343944AE00A2F0E940775005D87
:102ED0005524F201EC59F44F0083439402EC55243D
:102EE000F201EC59F44F0083439400E05524F201C1
:102EF000EC59F44F00834394482F542F550F550B32
:102F00000AE010E00E941775C8010A2F102F110F58
:102F1000110B4AE050E00E943C75800F911F809396
:102F20006B0B90936C0B0091640B0D3261F400E01D
:102F300010E020916B0B30916C0B021B130B009374
:102F40006B0B10936C0BA1E0B6C02DE24A2F50E042
:102F500009E010E00E941775E4E6FBE0E00FF11FC6
:102F6000032F10E0E00FF11F208399232AF40FEFC5
:102F70001FEF802791270196843600E09007D4F157
:102F800044E650E08C010E943C75202F4A2F50E00F
:102F900009E010E00E941775E4E6FBE0E00FF11F86
:102FA0005524E40DF51D20834A2F50E009E010E080
:102FB0000E941775E4E6FBE0E00FF11F5524E40DD5
:102FC000F51D408150E004E610E00E941775801B5B
:102FD000910B4A2F50E009E010E00E941775E4E6DB
:102FE000FBE0E00FF11F5524E40DF51D0081005DAD
:102FF000008343948A3000E09007B4F04AE050E048
:103000008C010E943C75202F205D4A2F50E009E082
:1030100010E00E941775E4E6FBE0E00FF11F552475
:10302000E40DF51D208343944AE050E08C010E949A
:103030003C75242F205D4A2F50E009E010E00E94EB
:103040001775E4E6FBE0E00FF11F5524E40DF51DD4
:10305000208343942CEE4A2F50E009E010E00E94B8
:103060001775E4E6FBE0E00FF11F5524E40DF51DB4
:103070002083439420EC4A2F50E009E010E00E94A6
:103080001775E4E6FBE0E00FF11F5524E40DF51D94
:103090002083439420E04A2F50E009E010E00E9492
:1030A0001775E4E6FBE0E00FF11F5524E40DF51D74
:1030B00020834394A395A33008F07AC00A2F10E030
:1030C000000F111FF801EA5BF94F948180E00A2F8D
:1030D00010E0000F111FF801EA5BF94F058110E0C5
:1030E000800F911F20E030E04A2F50E009E010E00F
:1030F0000E941775F801EC59F44F278330878C0133
:1031000009511C4F0F3C27E0120710F12FE34A2F03
:1031100050E009E010E00E941775F801EC59F44FF7
:1031200020832FE34A2F50E009E010E00E9417753A
:10313000F801EC59F44F218320E04A2F50E009E0D8
:1031400010E00E941775F801EC59F44F2283B2CFBA
:10315000082F092BB9F420E34A2F50E009E010E0D2
:103160000E941775F801EC59F44F208320E04A2F94
:1031700050E009E010E00E941775F801EC59F44F97
:10318000218398CF44244A2F50E009E010E00E94A8
:103190001775F801EC59F44F87839087342D432E2F
:1031A0004394813000E090070CF4CFCE2BE2CECEDA
:1031B000E6E00C94F07500914A0610E0E2E4FEE0CF
:1031C000259134910217130740F0E4E4FEE02591C5
:1031D000349110E02017310720F4E4E4FEE005917B
:1031E00003950093630B08959A938A9300914A067E
:1031F000002309F007C150914B0641E032E022E084
:1032000004EF12E0C2DC30914B0623E009ED12E03E
:10321000D7DD30914C0625E009ED12E0D1DD30918B
:103220004D0620E000914E0610E0200F311F209344
:10323000370A3093380A08EE13E01A930A93609124
:10324000370A7091380A41E031E023E00DEF12E0D7
:1032500008DD009150064AE00E94F97400931D03B6
:1032600040914F0650E00AE010E00E94177520914F
:103270001D0330E0020F131F0093350A1093360A26
:103280008091350A9091360A0096883E03E09007B7
:1032900020F400911D030A3080F000E010E000935C
:1032A000350A1093360A0FE300931A030FE30093D5
:1032B0001B030FE300931D0315C000914F064AE066
:1032C0000E94F974005D00931A0300914F064AE0D2
:1032D0000E94F974405D40931B0300911D03005D43
:1032E00000931D035091510642E031E023E00AE2D1
:1032F00013E04BDC0091D70B033041F450915206A0
:1033000042E031E023E003E313E03FDC0091530AA5
:10331000043051F400916C03043030F400E0009369
:10332000530600E0009354065091530642E031E00A
:1033300023E00CE313E029DC0091D70B033041F4C8
:103340005091540642E031E023E005E413E01DDC37
:103350005091550642E031E023E001E213E015DC34
:1033600004E610E01A930A936091560670E042E07A
:1033700031E024E006E013E074DC3091560623E0EF
:1033800002EE12E01DDD9091570680E00091580694
:1033900010E0800F911F8C01085E1340083223E279
:1033A0001207B0F448EE53E08C010E94247500939C
:1033B00012034091120350E008EE13E00E941775CB
:1033C000801B910B00911203005D0093120303C058
:1033D00000E30093120308EE13E01A930A93BC0172
:1033E00043E031E025E00FE013E03BDC309157068D
:1033F00023E00BEE12E0E4DC3091580625E00BEE02
:1034000012E0DEDC01E00093B10201E000932C0A3F
:103410008991999108959A938A93E6EEF0E0FBBF23
:10342000F8E10C949E75E8EDFDE025913491009152
:103430004A0610E02017310720F402E00093A204AE
:1034400094C300914A060093A2048FC300914A06D8
:1034500010E0ECEDFDE0259134910217130750F0D8
:10346000EEEDFDE02591349100914A0610E0201721
:10347000310738F40FE30093A3040FE30093A4048F
:1034800074C300914A064AE00E94F974005D0093FB
:10349000A30400914A064AE00E94F974405D4093FB
:1034A000A40463C3E2EDFDE02591349100914A0646
:1034B00010E02017310750F4E2EDFDE0059103958F
:1034C0000093170B0FEF0093180B4FC300914A06A0
:1034D0000093170B0091170B1091180B011709F4AB
:1034E00044C30091170B0093180B0E94B4380E943C
:1034F000913B01E00E94343C0E94953E0E94DA3FDD
:103500000E9446400091B3020A3021F00091B302BC
:10351000003181F40091190B0A950093820B009100
:10352000820B1091810B011780F50091820B0093A3
:10353000810B1BC30091B302073021F00091B3024D
:103540000D3081F40091590A0A950093820B009185
:10355000820B1091810B0117C0F40091820B009334
:10356000810B03C30091B302063179F40091830A01
:1035700003500093820B0091820B1091810B011775
:1035800020F40091820B0093810BEFC200914A0658
:103590004AE00E94F974405D4093AB0400914A06F2
:1035A0004AE00E94F97400934A0600914A064AE0F4
:1035B0000E94F974405D4093AA0400914A064AE0D3
:1035C0000E94F974005D0093A904CFC20091D60B4C
:1035D000023081F480914A06E0EFFDE005911491FC
:1035E00090E00817190710F480E301C0805D809314
:1035F000AD04C1C20091170B043041F580914A0619
:1036000090E0E8E4FEE0059114918017910740F006
:10361000EAE4FEE00591149190E00817190738F4E8
:103620000FE30093C3040FE30093C4049EC24AE077
:10363000082F0E94F974005D0093C3044AE0082F2C
:103640000E94F974405D4093C4048FC280914A0681
:1036500090E0EEE1FEE0059114918017910740F0B3
:10366000E0E2FEE00591149190E00817190720F4BC
:10367000E0E2FEE0859183958093420B80914B06BA
:1036800090E0E4E2FEE0059114918017910740F08C
:10369000E6E2FEE00591149190E00817190720F486
:1036A000E6E2FEE0859183958093430B80914C0682
:1036B00090E0EAE2FEE0059114918017910740F056
:1036C000ECE2FEE00591149190E00817190750F420
:1036D0000FE30093440B0FE30093450B0FE30093BC
:1036E000460B1AC04AE0082F0E94F974405D4093CF
:1036F000460B4AE0082F0E94F974802F4AE0082FF9
:103700000E94F974405D4093450B4AE0082F0E94E7
:10371000F974005D0093440B80914D064AE0082F38
:103720000E94F974405D4093500B4AE0082F0E94BC
:10373000F974802F4AE0082F0E94F974405D40938D
:103740004F0B4AE0082F0E94F974005D00934E0B66
:1037500080914E0690E0E6E3FEE00591149180171B
:10376000910740F0E8E3FEE00591149190E008171E
:10377000190738F40FE30093580B0FE30093590B2C
:103780000EC04AE0082F0E94F974005D0093580BA8
:103790004AE0082F0E94F974405D4093590B8091D4
:1037A0004F0690E0ECE3FEE005911491801791073D
:1037B00040F0EEE3FEE00591149190E00817190740
:1037C00020F4EEE3FEE0859183958093620BCDC1FA
:1037D00030914A0620E000914B0610E0200F311F87
:1037E0002093EA043093EB0400E000934A06009132
:1037F000EA041091EB04E4EFFDE025913491021707
:10380000130720F401E000934A060EC0E6EFFDE046
:10381000059114912091EA043091EB0402171307EB
:1038200018F401E000934A0600914A060023F9F0DB
:103830000FE30093B3040FE30093B4040FE300938A
:10384000B50400E20093B6040AEE0093B70403EC5B
:103850000093B80406EF0093B9040FE30093D0027D
:103860000FE30093D1020FE30093D202D2C0009184
:10387000EA041091EB04043620E0120730F54AE028
:1038800050E00091EA041091EB040E942475005D61
:103890000093B3044AE050E00091EA041091EB0475
:1038A0000E942475405D4093B40400E20093B50487
:1038B0000AEE0093B60403EC0093B70406EF0093FE
:1038C000B80400E20093B90498C00091EA04109192
:1038D000EB04083E23E01207D0F544E650E00091E7
:1038E000EA041091EB040E942475005D0093B30478
:1038F00044E650E00091EA041091EB040E94247524
:103900004093EA045093EB044AE050E00091EA044B
:103910001091EB040E942475005D0093B4044AE00A
:1039200050E00091EA041091EB040E942475405D80
:103930004093B50400E20093B6040AEE0093B70486
:1039400003EC0093B80406EF0093B90456C000914D
:10395000EA041091EB04003127E2120708F04DC091
:1039600048EE53E00091EA041091EB040E942475A4
:10397000005D0093B30448EE53E00091EA04109117
:10398000EB040E9424754093EA045093EB0444E650
:1039900050E00091EA041091EB040E942475005D50
:1039A0000093B40444E650E00091EA041091EB0463
:1039B0000E9424754093EA045093EB044AE050E0DF
:1039C0000091EA041091EB040E942475005D0093BD
:1039D000B5044AE050E00091EA041091EB040E9423
:1039E0002475405D4093B6040AEE0093B70403ECDF
:1039F0000093B80406EF0093B9040091B304009358
:103A0000D0020091B4040093D1020091B504009358
:103A1000D20201E00093B002A8C000914A0610E073
:103A2000EAEFFDE0259134910217130750F0ECEF17
:103A3000FDE02591349100914A0610E020173107EE
:103A400038F40FE30093BB040FE30093D70209C0DF
:103A500000914A06005D0093BB040091BB040093F3
:103A6000D70201E00093B00280C0E8E0FEE02591BB
:103A7000349100914A0610E02017310738F40FE323
:103A80000093BD040FE30093BE0410C000914A06EA
:103A90004AE00E94F974005D0093BD0400914A065B
:103AA0004AE00E94F974405D4093BE04EEE0FEE0FF
:103AB0002591349100914B0610E02017310738F41E
:103AC0000FE3009329040FE300932A0413C000912D
:103AD0004B064AE00E94F974005D009329040091AE
:103AE0004B062091290420531AE0219F0019005D04
:103AF00000932A040091D70B0330B9F5E8E0FEE00B
:103B00002591349100914C0610E02017310738F4CC
:103B10000FE300932F040FE30093300426C00091BD
:103B20004C064AE00E94F974005D00932F04009156
:103B30004C0620912F0420531AE0219F0019005DAC
:103B40000093300412C0E2E0FEE025913491009130
:103B50004A0610E02017310720F402E00093C90460
:103B600004C000914A060093C90401E000932C0AA6
:103B700001E000932A0A89919991089540E001E0BB
:103B800000932C0A01E000932A0A0FE010E0209134
:103B9000480622952F7030E0021B130B2091B70BC3
:103BA00030E0F901EA54F44F228130E002171307A4
:103BB00009F441E0009148060F700130D9F4442324
:103BC000C9F000914B06002359F000E011E000938A
:103BD000BD0B1093BE0B00914A060093BF0B0AC0A9
:103BE00000914A0610E00093BD0B1093BE0B00E05D
:103BF0000093BF0B009148060F700230E1F444239C
:103C000079F000E00031B8F410E0F801EA5BF94F18
:103C1000248110E0F801EA54F44F22870395F2CF93
:103C200000E007C020E010E0F801EA54F44F2287DA
:103C300003950031B8F3089520E070E021E0009191
:103C40004A06702F072F0F700023A9F070FB16F49F
:103C500023E003C071FB0EF424E00091D70B033086
:103C6000E9F52130D9F572FB16F425E037C073FB76
:103C7000AEF526E033C00091D10B002321F4009172
:103C8000D20B002359F10091D20B1091D10B0117E7
:103C900018F40091D10B02C00091D20B602FEBE41D
:103CA000F6E037E070813196772381F050E001C073
:103CB0005395583058F4452F01E010E00E942175CB
:103CC000172F10231123A1F3232F250F385F213045
:103CD00011F4685001C060E0613024F720932E0C8D
:103CE0000091D00B002349F070914A0674FB16F442
:103CF00022E001C021E02093040C01E000932C0A93
:103D000001E000932A0A089511E000E00093B60B49
:103D100000E00093B80B00914A06013091F401E0F5
:103D20000093D00B01E0009367032091B60B23951D
:103D30002093B60B03E030E0F901EA54F44F02831C
:103D40000BC000E00093D00B00E0009365030091EE
:103D50004A06002309F010E000914B06093070F488
:103D600000914B06033051F010914B0604E0109F78
:103D70000092D30B01E00093670304C000E00093BE
:103D8000D30B10E000914C06093058F400914C061A
:103D9000033039F010914C0604E0109F0092D40BD0
:103DA00004C000E00093D40B10E000914D060930F0
:103DB00058F400914D06033039F010914D0604E09F
:103DC000109F0092D20B04C000E00093D20B10E0D1
:103DD00000914E060330C1F503E00093D70B00912C
:103DE000D40B002321F40091D00B002319F001E043
:103DF000009368030091D00B002379F00091D30B5E
:103E0000002359F00091D40B002339F00091D20B1C
:103E1000002319F001E00093DB0B0091D30B10910C
:103E2000D40B010F0093D10B0091D40B0023D9F0D8
:103E30002091B60B23952093B60B04E030E0F901F6
:103E4000EA54F44F02830FC002E00093D70B00E066
:103E50000093D40B0091D30B0093D10B00914E062D
:103E6000023009F010E00091D10B002359F02091AD
:103E7000B60B23952093B60B02E030E0F901EA542B
:103E8000F44F02830091D20B002359F02091B60B1E
:103E900023952093B60B01E030E0F901EA54F44F8A
:103EA000028300914F06023021F402E00093D60B0A
:103EB00008C001E00093D60B00914F06013009F0D5
:103EC00010E00091D60B013021F404E000932B0A9E
:103ED00003C003E000932B0A3091500620E00091CC
:103EE000510610E0200F311F2093AC023093AD0239
:103EF0003091520620E00091530610E0200F311F50
:103F00002093AE023093AF0200915406053028F49E
:103F1000009154060093170B04C010E000E00093DA
:103F2000170B0091D60B023021F401E00093FC0B3B
:103F300013C00091D70B023021F402E00093FC0B78
:103F40000BC00091D70B033021F404E00093FC0B6D
:103F500003C000E00093FC0B00E00093E70B00912E
:103F6000D00B002389F00EE115E02091E70B30E043
:103F7000220F331FF901E851F44F008311830091A0
:103F8000E70B03950093E70B0091D70B0230B1F4D8
:103F90000091D10B0023E1F106E215E02091E70B3F
:103FA00030E0220F331FF901E851F44F00831183F1
:103FB0000091E70B03950093E70B2AC00091D30B08
:103FC000002389F003E415E02091E70B30E0220F95
:103FD000331FF901E851F44F008311830091E70B7F
:103FE00003950093E70B0091D40B002389F00FE4B5
:103FF00015E02091E70B30E0220F331FF901E85163
:10400000F44F008311830091E70B03950093E70BB6
:104010000091D20B002389F000E315E02091E70B1B
:1040200030E0220F331FF901E851F44F0083118370
:104030000091E70B03950093E70B0CE315E020914B
:10404000E70B30E0220F331FF901E851F44F0083F2
:1040500011830091E70B03950093E70B0FEF00939B
:10406000180B0E94B4380E94913B01E00E94343C3E
:104070000E94953E0E94DA3F0E94464001E0009374
:10408000D80B08959A938A93802F282F2A9506E4B7
:1040900016E00E94300E10E00093E8041093E9044B
:1040A0002091E8043091E90490E0FC01EB5BF94FCA
:1040B000008110E02017310719F0549A579A9DC0DB
:1040C0000091D606023009F500E00093EE0413C01B
:1040D0000091EE0410E0F801EA5BF94F20810091B5
:1040E000EE0410E0F801E35CFA4F20830091EE0447
:1040F00003950093EE040091EE04081748F303E0E3
:104100000093D6068093D70678C00091D606002388
:1041100009F073C046E456E02091480630E0009173
:104120002F0C1091300C0E94662800914806007FE9
:10413000005039F0005151F0005169F0005181F008
:1041400044C0009148060E947F0E55C00091480669
:104150000E94EE1050C0009148060E940D124BC004
:1041600000914806005369F00A9571F00A9579F0BC
:104170000A9581F00A95C1F00A50E9F00A95F9F024
:1041800020C00E94031337C00E94671334C00E94EE
:10419000101431C00091D60B013019F40E940117A0
:1041A0002AC00E94DB1827C00091D60B013019F5F8
:1041B0000E94F41820C000914A063EDD1CC0A4DD18
:1041C0001AC00091480627D916C000914806015C24
:1041D00079F00A9579F00F5059F00A9559F00F507F
:1041E00039F00A9539F00F5019F00A9519F003C00B
:1041F000C5DC01C0C3DC549A579A0E94892700E0AD
:104200000093D8068991999108950C018FEF3FEFA3
:1042100060E014C070E0F801E60FF71F40818427CA
:10422000482F832F50E0FA01E457FF4F3491832742
:1042300050E0FA01E457FE4F34916395621750F352
:10424000132F00E090E0082B192BC001089530E0F7
:1042500040914E0A405019F04A9569F017C042E06B
:1042600007C050E0F801E40FF51F5081350F43956A
:104270004217B8F30BC040E007C050E0F801E40F6C
:10428000F51F5081350F43954217B8F3032F08955A
:104290009A938A93812FECEFF4E0108110611083E0
:1042A00010914E0A105019F01A95D9F03CC00093A5
:1042B0003F0580934005282F2C5F0DE315E0C7DFF5
:1042C00010E00093EF041093F0040091EF0490E0ED
:1042D000FC01E35CFA4F04838B5F082F0E9448289F
:1042E00022C01091A80210933D0500933E05282F8F
:1042F0002D5F0DE315E089DF0093EF041093F004C8
:104300000091EF0490E0FC01E35CFA4F038310910D
:10431000F004012F90E0FC01E35CFA4F04838B5F13
:10432000082F0E944828899199910895ECEFF4E0B4
:1043300010811061108300933F0502E00093400557
:1043400026E00DE315E083DF10E00093EF04109307
:10435000F0040091EF040093430507E00E94482811
:104360000895ECEFF4E01081106110831091A80221
:1043700010933D051091FE04106810933E050093C4
:104380003F0523E00DE315E062DF10E00093EF044A
:104390001093F0040091EF04009340051091F00495
:1043A000012F0093410505E00E94482808959A9343
:1043B0008A93802F0E94552800FB4EF400E0009362
:1043C000410500E00093420501EEB0DF9DC300917E
:1043D0004E0A005021F00A9509F442C18BC30091A6
:1043E000FD04053509F031C10091FE040A3A09F0D7
:1043F0002CC10091000510E0E82FF0E035970E1772
:104400001F0751F0009100050093410585508093EE
:10441000420503EE8BDF78C3282F2A950DEF14E0B9
:1044200016DF10E00093EF041093F0042091EF04E6
:104430003091F00490E0FC01E450FB4F008110E06B
:104440002017310771F090E0FC01E450FB4F008130
:10445000009341050091EF040093420502EE66DFF0
:1044600053C30091FF04043729F00091FF04033780
:1044700009F0BFC00091FF04043789F54091A10BFA
:1044800050E008EE13E00E94177598014091A20BCE
:1044900050E004E610E00E941775200F311F409194
:1044A000A30B50E00AE010E00E941775200F311FA7
:1044B0000091A40B10E0200F311F2055304D2093A8
:1044C000F4043093F5041091F504012F0093410595
:1044D0000091F4040093420512E002E7D9DE009156
:1044E000FF04033709F077C03091010520E0009107
:1044F000020510E0200F311F2093F4043093F504DF
:1045000048EE53E00091F4041091F5040E942475E4
:10451000005D0093A10B8091A10B90E0C09708EE85
:1045200013E0AC010E941775E4EFF4E020813181C3
:10453000201B310B2083318344E650E00091F404CA
:104540001091F5040E942475005D0093A20B8091E8
:10455000A20B90E0C09704E610E0AC010E94177532
:10456000E4EFF4E020813181201B310B2083318383
:104570004AE050E00091F4041091F5040E94247583
:10458000005D0093A30B8091A30B90E0C0970AE01D
:1045900010E0AC010E941775E4EFF4E02081318156
:1045A000201B310B208331830091F404005D0093C4
:1045B000A40B10E003E76CDE01E00093CC0600E002
:1045C00010E00093D2061093D30601EA1BE000939B
:1045D000CE061093CF060FE00093A90200919A0037
:1045E000006100939A0000919A00006800939A007D
:1045F0008BC200E00093F3041BC00091F30410E0B1
:10460000F801E350FB4F20810091F30410E0F80122
:10461000EA57F94F208300E02091F30430E0F901DC
:10462000E350FB4F00830091F30403950093F304E0
:104630000091F304081708F38093D70601E0009374
:10464000D6060FE00093A9025FC200919A000061B4
:1046500000939A0000919A00006800939A0054C257
:104660000091FD041091A802011709F038C2282F0B
:1046700022500DEF14E0C9DD0093EF041093F00415
:1046800090E0FC01E550FB4F008190E0FC01E4501C
:10469000FB4F10810093F1041093F2040091EF049A
:1046A0001091F0042091F1043091F20402171307E5
:1046B00069F00091EF0400933F051091F004012F81
:1046C0000093400511E00FEFE3DD0EC23091FF04CF
:1046D00020E00091000510E0200F311F2093F70427
:1046E0003093F804009102050093F6040091FE0453
:1046F000035021F0035009F4BEC1EEC10091F6044D
:10470000013420F40091F604002319F403E029DEBB
:10471000EBC10091F7041091F8040A5F10400630D5
:1047200023E01207A8F02091F7043091F8040091DB
:10473000F60410E0200F311F2B3F00E0300758F047
:104740000091F7041091F804003024E0120718F4E7
:1047500002E007DEC9C11091F60402E0109F00924A
:104760003F050091F7041091F8040A3F20E012077A
:1047700078F500E00093F3041DC06091F704709198
:10478000F8040091F30410E0600F711F1091F3041E
:1047900002E0109F03E0000E402D2DE335E0009174
:1047A0002F0C1091300C0E94B4280091F304039553
:1047B0000093F3040091F3041091F6040117E8F25A
:1047C0001091F60402E0109F102D03E061DD8CC112
:1047D0000091F7041091F8040050144000302EE1CD
:1047E000120708F046C001E00093B40B20E030E06F
:1047F00000912F0C1091300C0E94932B4FE00091F0
:10480000F6040E94F9740093B30B0091B30B0023DC
:1048100029F40091B30B03950093B30B8FE090E064
:104820000091F7041091F804005014404FE050E05C
:104830000E942475841B950B0091F60410E08017EC
:10484000910728F40091B30B03950093B30B0091EB
:10485000F7041091F804005014404FE050E00E941B
:1048600024750093F9041093FA0402EF0093B50B3A
:104870003BC10091F7041091F8040050144200303D
:104880002EE1120708F04BC001E00093B40B20E0CA
:1048900030E000912F0C1091300C0E94932B4FE0D0
:1048A0000091F6040E94F9740093B30B0091B30BCE
:1048B000002329F40091B30B03950093B30B0091EF
:1048C000F7041091F804005014424FE050E00E94A9
:1048D00024754093FB040FE010E02091FB0430E0CE
:1048E000021B130B2091F60430E0021713072CF47F
:1048F0000091B30B03950093B30B0091F704109153
:10490000F804005014424FE050E00E9424750093D8
:10491000F9041093FA0402EC0093B50BE5C0009182
:10492000F7041091F8040050144400302EE11207EF
:1049300008F04BC001E00093B40B20E030E00091A0
:104940002F0C1091300C0E94932B4FE00091F60435
:104950000E94F9740093B30B0091B30B002329F468
:104960000091B30B03950093B30B0091F7041091E2
:10497000F804005014444FE050E00E942475409326
:10498000FB040FE010E02091FB0430E0021B130B4E
:104990002091F60430E0021713072CF40091B30BBA
:1049A00003950093B30B0091F7041091F8040050A5
:1049B00014444FE050E00E9424750093F9041093D2
:1049C000FA0402ED0093B50B8FC00091F70410912B
:1049D000F8040050144600302EE1120708F084C09D
:1049E00001E00093B40B20E030E000912F0C109117
:1049F000300C0E94932B4FE00091F6040E94F97452
:104A00000093B30B0091B30B002329F40091B30B77
:104A100003950093B30B0091F7041091F804005034
:104A200014464FE050E00E9424754093FB040FE0D1
:104A300010E02091FB0430E0021B130B2091F604E0
:104A400030E0021713072CF40091B30B0395009389
:104A5000B30B0091F7041091F804005014464FE096
:104A600050E00E9424750093F9041093FA0402EEBA
:104A70000093B50B39C05091010540E0009102054B
:104A800010E0400F511F2091F7043091F80400917D
:104A90002F0C1091300C0E94FB2800E00093F304CF
:104AA00013C00091F30410E0F801E350FB4F2081A4
:104AB0000091F30410E0F801E35CFA4F20830091C9
:104AC000F30403950093F3040091F304063048F3D4
:104AD00013E006E0DDDB08C001E043DC05C0009127
:104AE0009A00006100939A0000919A000068009378
:104AF0009A000AC000919A00006100939A00009108
:104B00009A00006800939A000E9462288991999106
:104B100008950FEC09B91098119A1898199A0EE097
:104B20000093950008E10AB9549A579A06B70D7F89
:104B300006BF07B7016007BF05E002BF04E003BF7F
:104B400005E5009386060AEA0093870605E50093CB
:104B500046060AEA009347060895FA93EA935A93A1
:104B60004A933A932A931A930A934FB75BB70CB1BF
:104B70005C9952C01091C806105039F01A9559F03E
:104B80001A9599F01A95B9F027C0053519F401E086
:104B90000093C80641C00A3A21F402E00093C80617
:104BA0003BC000E00093C80637C00093480603E00E
:104BB0000093C80631C0009349060C3320F010E082
:104BC0001093C80603C014E01093C8061091C806DD
:104BD000100F1093C90620C02091C80630E0F901DB
:104BE000EA5BF94F00830091C8061091C9060117CE
:104BF00070F001E00093D80600E00093C8065498D6
:104C000057980091C90603950093D90605C00091F5
:104C1000C80603950093C8065BBF4FBF0991199161
:104C20002991399149915991E991F9911895FA93FE
:104C3000EA933A932A931A930A932FB73BB70091BA
:104C4000C6061091C706011784F40091C606102FFE
:104C5000110F110BF801EA57F94F00810CB90091BF
:104C6000C60603950093C6060FC05398559800E0FA
:104C70000093C70600E00093C606549A579AE5E4ED
:104C8000F6E000810F7E00833BBF2FBF0991199191
:104C900029913991E991F99118959A938A93FA9308
:104CA000EA933A922A921A920A927A936A935A93C0
:104CB0004A933A932A931A930A938FB79BB72197F3
:104CC000A89505E002BF00912E07003F09F045C0FE
:104CD0000091D606002309F040C00E94DA35009307
:104CE00042060091420610914106011721F0009101
:104CF0004206003FD1F4E3E4F6E0008111810F5F4A
:104D00001F4F00831183009143061091440601391F
:104D100021E0120784F000E911E0009343061093AC
:104D2000440600EF0093410606C000E010E0009347
:104D30004306109344060091420610914106011764
:104D400061F000914206003F41F00091420600935D
:104D50002E07009142060093410600913F06053060
:104D600078F100914006013029F0ECEFF4E0008189
:104D700000FF22C000919A000F7E00939A000091DC
:104D80009A000F7700939A00ECEFF4E0008108603E
:104D9000008300913C060E94D72100E0009340066A
:104DA00000E000933C0600919C000883ECEFF4E0E7
:104DB00000810F7E008309C00EE100933F0605C00D
:104DC00000913F06039500933F06E19939C0009199
:104DD000CC060130A9F5F8940091D2061091D306C3
:104DE0001FBB0EBB0091CA0610E0E091CE06F09109
:104DF000CF06E00FF11F00810DBBE29AE19A789493
:104E00000091CA0603950093CA06E2EDF6E0008120
:104E100011810F5F1F4F008311830091CA0610E0BC
:104E2000E091CE06F091CF06E00FF11F319700819F
:104E3000002331F400E00093CC0600E00093CA06A2
:104E4000E1994EC00091CD06013009F049C00091B2
:104E5000D4061091D5061FBB0EBBE09A2DB300916E
:104E6000CB0610E0E091D006F091D106E00FF11FE3
:104E700020830091CB0610E0E091D006F091D1069E
:104E8000E00FF11F00810F3F59F400E02091CB06A5
:104E900030E0E091D006F091D106E20FF31F0083DD
:104EA000E4EDF6E0008111810F5F1F4F0083118355
:104EB0000091CB0603950093CB060091CB0610E042
:104EC000E091D006F091D106E00FF11F31970081FB
:104ED000002331F400E00093CD0600E00093CB0600
:104EE00021969BBF8FBF09911991299139914991C1
:104EF0005991699179910990199029903990E99186
:104F0000F9918991999118950093C706539A559AEA
:104F1000089500E000934506089503E30093990087
:104F20008A988B9A9298939A0EE000939D0008E1DC
:104F300000939A0000919A00006100939A000091FA
:104F40009A00006800939A0005E500933D050AEA7F
:104F500000933E050895FA93EA934A933A932A936D
:104F60001A930A933FB74BB720919C0000919B0086
:104F7000102F14FF05C0ECEFF4E000810160008306
:104F800000914006002391F400913F060E3170F02D
:104F900001E00093400600E000933C0600E000932F
:104FA0003F06ECEFF4E000810061008300914006D1
:104FB0000130E9F400913F060E31C8F400913C063F
:104FC000003430F0ECEFF4E00081016000830CC0AD
:104FD00000913C0610E0F801E350FB4F2083009164
:104FE0003C06039500933C0600E000933F064BBF50
:104FF0003FBF09911991299139914991E991F9910D
:105000001895FA93EA933A932A931A930A932FB72F
:105010003BB700913D0610913E0601178CF40091BC
:105020003D06102F110F110BF801E35CFA4F0081C0
:1050300000939C0000913D06039500933D061FC020
:1050400000919A00077F00939A0000919A000F7DCB
:1050500000939A0000E000933E0600E000933D06B6
:1050600000919A00006100939A0000919A000068F4
:1050700000939A00ECEFF4E000810F7E00833BBFC9
:105080002FBF0991199129913991E991F9911895B9
:1050900000933E0600919A00086000939A000091E8
:1050A0009A00006200939A0008950091FC04109108
:1050B0009A00212F27FD026010919A00212F25FDD3
:1050C0000460089500E00093FC0408950E94E675D2
:1050D0002801D901CA018D01EEEFF0E0FBBFF8E134
:1050E0000C94A275AC019D01820121D33AC0AC01A0
:1050F0009D01820178D335C0AC019D0182010CD4A1
:1051000030C09C01820180D42CC09C0182019DD4BE
:1051100028C09C018201C8D424C09C01820152D5C0
:1051200020C0AC019D018201BCD61BC045EB50E004
:105130009C01820120D715C046EB50E09C01820102
:105140001AD70FC047EB50E09C01820114D709C069
:1051500044EB50E09C0182010ED703C09C01820108
:105160001DD7E6E00C94F0750E94E4752801D90182
:10517000642ECB01863100E0900721F421EA3BE068
:105180008201A7D2803001E09007F8F4F20121817A
:1051900032818C01000F111F200F311FF901118185
:1051A000012F7724FD01E60DF71D0083F201018137
:1051B0001281880F991F080F191FF80100817724A9
:1051C000A60DB71DFD0101830CC00FEF7724FD0173
:1051D000E60DF71D00830FEF7724A60DB71DFD0127
:1051E0000183E8E00C94EE75222311F0F80123838B
:1051F000F8010381089562E0F8016383F8012483D4
:105200003583F801468357830895215019F02A9574
:1052100021F006C0F80100850895F8010185089580
:105220000FEF08950E94E775C801D901FC010481C0
:105230001581005110400650104008F470C0005015
:10524000104009F4C7C00A51104009F4F1C00350DE
:10525000104009F4EDC00350104009F4E9C00A51B0
:10526000104008F433C20750104008F4FAC0095047
:10527000104009F403C10150104009F4FFC001506F
:10528000104008F44BC00450104008F404C1005012
:10529000104008F443C00450104008F40CC1005002
:1052A0001040E0F10052104008F415C106501040C3
:1052B000A8F10350104008F41EC10050104070F1D6
:1052C0000450104008F424C10050104038F104503C
:1052D000104008F42DC10550104000F10550104059
:1052E00008F436C10050104009F43FC1015010408D
:1052F00009F44DC10150104009F456C10D50104041
:1053000009F45DC10150104009F47BC10150104007
:1053100009F499C10150104009F4B7C1D7C100E0A8
:10532000FC01008332C0FC0101811281FC0120815B
:1053300030E0220F331F020F131FF80100A111A14B
:105340004AE050E00E942475402E429400EF402233
:10535000FC0101811281FC01208130E0220F331F0A
:10536000020F131FF80100A111A14AE050E00E94B2
:105370002475440EFC01008110E0FD01E00FF11FD7
:105380004482FC01008103950083FC01008106300A
:1053900050F2FC01068117814AE050E00E9424751A
:1053A000402E429400EF4022FC01068117814AE022
:1053B00050E00E942475440EFC0104811581A00F69
:1053C000B11F1C974C9202EBFC01008706E0FC0128
:1053D00001877CC1FC011781012F06950695069572
:1053E0000695005D0093A10BFC011781012F0F7042
:1053F000005D0093A20BFC01068102950F70005D19
:105400000093A30BFC0106810F70005D0093A40BB9
:1054100001E00093CC0600E010E00093D206109368
:10542000D30601EA1BE00093CE061093CF064EC1CF
:10543000FC0106811781023020E0120731F401E7F8
:10544000FC01008700E0FC010187FC010681178157
:10545000012B31F400E7FC01008700E0FC0101872B
:1054600035C1FC0104810F5CFC01008701E0FC01F7
:105470000187FC010681FD01048328C1FC01048130
:105480000F5CFC01008701E0FC010187FC01068143
:10549000FD0104831BC104E9FC01008702E0FC015B
:1054A0000187FC0104810156FD010483FC01068192
:1054B000FD0105830BC105E9FC01008702E0FC0149
:1054C0000187FC0104810556FD010483FC0106816E
:1054D000FD010583FBC003E9FC01008702E0FC013C
:1054E0000187FC0104810956FD010483FC0106814A
:1054F000FD010583EBC0FC0104810F5EFC01008708
:1055000001E0FC010187FC010681FD010483DEC08E
:1055100004EAFC01008702E0FC010187FC01048130
:105520000259FD010483FC010681FD010583CEC003
:1055300005EAFC01008702E0FC010187FC0104810F
:105540000659FD010483FC010681FD010583BEC0EF
:10555000FC0104810B5EFC01008701E0FC01018776
:10556000FC010681FD010483B1C0FC0104810B5ED6
:10557000FC01008702E0FC010187FC011781012F7B
:10558000FD010483FC010681FD0105839FC0FC0130
:1055900004810B5EFC01008701E0FC010187FC0136
:1055A0000681FD01048392C00DEBFC01008701E040
:1055B000FC010187FC010681FD01048387C00AEF1D
:1055C000FC01008700E0FC01018700E0FC01008392
:1055D00013C00EEE1EEEFC0124853585FC014081D2
:1055E00050E0440F551F240F351FF901008311832C
:1055F000FC01008103950083FC010081013848F320
:1056000065C00AECFC01008700E0FC01018700E0B6
:10561000FC01008313C00EEE1EEEFC0124853585CF
:10562000FC01408150E0440F551F240F351FF90144
:1056300000831183FC01008103950083FC0100813C
:10564000013848F343C00AEDFC01008700E0FC018B
:10565000018700E0FC01008313C00EEE1EEEFC018A
:1056600024853585FC01408150E0440F551F240FEF
:10567000351FF90100831183FC010081039500832C
:10568000FC010081013848F321C00AEEFC010087CB
:1056900000E0FC01018700E0FC01008313C00EEE76
:1056A0001EEEFC0124853585FC01408150E0440F4D
:1056B000551F240F351FF90100831183FC01008160
:1056C00003950083FC010081013848F3E5E00C9468
:1056D000F175592F082EB801F9012081322F20E0F1
:1056E000330F330F330F330F818190E0C097982F22
:1056F00080E0280F391F028110E00053104044E081
:105700000E942175200F311F038110E00F7010706F
:10571000200F311FFB0101811281F80124A735A759
:10572000802D952F0895F8012687378708950E94C8
:10573000E875C8018901DA01E6E7F0E0FBBFF9E1AD
:105740000C94A275FD01048110E0FC01A181B281DD
:10575000A056BF4F0D931C9343C0FD01A481B0E040
:105760001196FC01018112810E551F4FF801A08393
:10577000B18336C0FD01048110E0FC01A181B2813A
:10578000AC55BF4F0D931C932BC0FD01048110E05D
:10579000FC01A181B281AA55BF4F0D931C9320C07B
:1057A000FD01048110E0FC01A181B281A855BF4F29
:1057B0000D931C9315C0FD01048110E0FC01A18133
:1057C000B281A655BF4F0D931C930AC0FD01048101
:1057D00010E0FC01A181B281A455BF4F0D931C9331
:1057E000E4E00C94F2750E94E875D8018901CA01C1
:1057F000ECE8F0E0FBBFF9E10C94A275FC01048138
:1058000010E0FD01A181B281A054BF4F0D931C9304
:1058100080C0FC01448150E00AE010E00E9417754E
:10582000FD01A181B281AE53BF4F0D931C9371C096
:1058300000E00C931CC00C9110E0FC01E00FF11F84
:10584000448150E00AE010E00E941775FD012181BB
:1058500032814C9150E0440F551F240F351F2C52BC
:105860003F4FF901008311830C9103950C930C9128
:10587000FC0113810117F8F24CC000E00C9318C032
:105880000C9110E0FC01E00FF11F448150E0FD019C
:10589000018112812C9130E0220F331F020F131F60
:1058A0000C531F4FF801408351830C9103950C93C7
:1058B0000C91FC011381011718F32BC000E00C932D
:1058C00018C00C9110E0FC01E00FF11F448150E082
:1058D000FD01018112812C9130E0220F331F020F54
:1058E000131F04531F4FF801408351830C910395FC
:1058F0000C930C91FC011381011718F30AC0FC01F1
:10590000048110E0FD01A181B281AC5EBE4F0D9318
:105910001C93E4E00C94F2750E94E875D8018901AB
:10592000CA01E0EAF0E0FBBFF9E10C94A275FC01CA
:10593000048110E0FD01A181B281A05EBE4F0D93F4
:105940001C935FC0FC01448150E00AE010E00E941B
:105950001775FD01A181B281AE5DBE4F0D931C9301
:1059600050C0FC01448150E00AE010E00E9417752D
:10597000FD01A181B281AC5DBE4F0D931C9341C06E
:1059800000E00C9318C00C9110E0FC01E00FF11F37
:10599000448150E0FD01018112812C9130E0220F01
:1059A000331F020F131F0A5D1E4FF80140835183FE
:1059B0000C9103950C930C91FC011381011718F3C2
:1059C00020C000E00C9318C00C9110E0FC01E00F27
:1059D000F11F448150E0FD01018112812C9130E0E2
:1059E000220F331F020F131F025D1E4FF801408369
:1059F00051830C9103950C930C91FC0113810117B9
:105A000018F3E4E00C94F275BD01F80100E00083A6
:105A100017C0008110E0D901A00FB11F14964C915E
:105A200050E0A181B281008110E0000F111FA00F92
:105A3000B11FA05ABF4F4D935C9300810395008323
:105A400000810A3030F3DB0108950D01D80100E038
:105A50000C9325C00C9110E0000F111FF901E00F0D
:105A6000F11F748160E00C9110E0000F111FF9012B
:105A7000E00FF11F058110E0600F711FFD01018132
:105A800012814C9150E0440F551F040F151F005C0C
:105A90001F4FF801608371830C9103950C930C9157
:105AA0000830C0F2D0010895BD01F801D901149663
:105AB0004C9142954F7050E00AE010E00E9417753B
:105AC000D90114964C9150E04F705070040F151F7F
:105AD000A181B28190960D931C93D90115964C919A
