:100000000C94AD781895189518951895189518951D
:100010001895189518951895189518951895189578
:1000200018951895189518950C94233118951895CE
:1000300018951895189518950C943363189518957C
:100040000C942027189518950C947E260C94EA267B
:100050001895189518951895189518951895189538
:100060001895189518951895189518951895189528
:1000700018951895189518950C9486280C94DD28D9
:1000800018951895189518951895189500C18140E0
:1000900001C0804101C0804100C1814001C0804158
:1000A00000C1814000C1814001C0804101C0804148
:1000B00000C1814000C1814001C0804100C1814038
:1000C00001C0804101C0804100C1814001C0804128
:1000D00000C1814000C1814001C0804100C1814018
:1000E00001C0804101C0804100C1814000C1814008
:1000F00001C0804101C0804100C1814001C08041F8
:1001000000C1814000C1814001C0804101C08041E7
:1001100000C1814000C1814001C0804100C18140D7
:1001200001C0804101C0804100C1814000C18140C7
:1001300001C0804101C0804100C1814001C08041B7
:1001400000C1814000C1814001C0804100C18140A7
:1001500001C0804101C0804100C1814001C0804197
:1001600000C1814000C1814001C0804101C0804187
:1001700000C1814000C1814001C0804100C1814077
:1001800001C0804101C0804100C1814000C0C10167
:10019000C30302C2C60607C705C5C404CC0C0DCDF7
:1001A0000FCFCE0E0ACACB0BC90908C8D81819D967
:1001B0001BDBDA1A1EDEDF1FDD1D1CDC14D4D51597
:1001C000D71716D6D21213D311D1D010F03031F187
:1001D00033F3F23236F6F737F53534F43CFCFD3DB7
:1001E000FF3F3EFEFA3A3BFB39F9F83828E8E929A7
:1001F000EB2B2AEAEE2E2FEF2DEDEC2CE42425E557
:1002000027E7E62622E2E323E12120E0A06061A1C6
:1002100063A3A26266A6A767A56564A46CACAD6D76
:10022000AF6F6EAEAA6A6BAB69A9A86878B8B979E6
:10023000BB7B7ABABE7E7FBF7DBDBC7CB47475B516
:1002400077B7B67672B2B373B17170B05090915106
:100250009353529296565797559594549C5C5D9D36
:100260005F9F9E5E5A9A9B5B995958988848498926
:100270004B8B8A4A4E8E8F4F8D4D4C8C44848545D6
:10028000874746868242438341818040380C018003
:10029000020041A042A1E045A3A4A5A64BA74D485A
:1002A0004FA8504354A9AA58E1ABACE2ADAE62AF3F
:1002B000B0B161B2B3B4E365B6B7B8B9BABBBCBD4F
:1002C0006FBE7063BF79E478E5C0C1E6C2C3C4C540
:1002D000C6C7EEF8E8E12EC0CA2000E0E2F2EE2E3A
:1002E000C0CA2000E0E2F2EE2EC0CA2000F3F1EA1C
:1002F0002EC0CA202000E2FBEAEB2EC0CA2000EF8D
:10030000F0EEE22EC0CA2000E8F1EFFBF22EC0CAE8
:1003100000EFF3F1EA20C0CA2000EDEEF0EC2EC0B1
:10032000CA2000E1E5E3EB2EC0CA2000EEE4EDEECA
:10033000F12EC0CA00D202DB02E402ED02F602FF97
:1003400002080311031A0323032C03EEF8E8E12E3D
:1003500000E0E2F2EE2000E0E2F2EE2000F3F1EA4B
:100360002E2000E2FBEAEB2E00EFF0EEE22E00E89A
:10037000F1EFFBF200EFF3F1EA2000EDEEF0EC2EEE
:1003800000E1E5E3EB2E00EEE4EDEEF1004B03516E
:100390000357035D03630369036F0375037B0381E5
:1003A000038703C0CA2D00CDE5F220F1E2FFE7E8A4
:1003B00020F120C1D1CF2020202020002020C8ED16
:1003C000E8F6E8E0EBE8E7E0F6E8FF202020202070
:1003D00000312EC6F3F0EDE0EB2E00322EC4E0F239
:1003E000E02FE2F0E5ECFF2E00332ED3EFF0E0E259
:1003F000EBE5EDE8E52E00342ED3F1F2E0EDEEE290
:10040000E8F2FC2E00352ECFF0EEF1ECEEF2F0200B
:10041000EFE0F0E0EC2E00362ECFF0EEF2EEEAEE5A
:10042000EB2E00D103DB03E903F7030504170431C6
:100430002E20C4E0F2E02E202020202020202020AA
:1004400020202000322E20C2F0E5ECFF2E202020BC
:10045000202020202020202000C6F3F0EDE0EB201B
:1004600000F1EEE1FBF2E8E900E7E0F9E8F2FB0079
:10047000EFF0E8E5ECEDE8EAE000EFE5F0E5E4E0D8
:10048000F2F7E8EAE00061047A0470046904D7F244
:10049000E5EDE8E520E0F0F5E8E2E02E00CFCC0065
:1004A000CFC400D1C100C7D900A304A0049D04A6F5
:1004B00004CEC1D900CFE5F0E5E72E00CFE5F0E5A9
:1004C000E7E0EF2000CDE0F7E0EBEE2000CAEEED34
:1004D000E5F62000EAEEECE0EDE4FB00312ED0E59D
:1004E000E6E8EC2E00322ECFE0F0E0ECE5F2F0FB97
:1004F0002E00332ECFE0F0EEEBFC2E00342ED2E5B2
:10050000F1F22E00DC04E504F204FC04C7E0F9E893
:10051000F2E02E00CFF0E8E5ECEDE8EA2E00CFE5C2
:10052000F0E5E4E0F2F7E8EA2E00CEE1F9E8E52EA6
:1005300000CFF0E8E5ECEDE8EA20312E00CFF0E85E
:10054000E5ECEDE8EA20322E00D2E8EF20C7E0F932
:10055000E8F2FB00D2E8EF20CBE8EDE8E800C4EEDB
:10056000EF2E20E2F0E5ECFF20E1E5E720ECE0ED06
:100570002E00C7E0E4E5F0E6EAE020EDE020EBE85D
:10058000EDE8E820202000CFE5F0E5EAF0FBF2E816
:10059000E520E8ECEFF3EBFCF1EEE200C7E0E3F07E
:1005A00020F7F3E2F1F2E2E8F220EFEE2020D0C7EC
:1005B00000D1EDE8E6E5EDE8E520F3F0EEE2EDFF51
:1005C00020C0CA202000D7E0F1F2EEF2E020CFD028
:1005D000C400D7E0F1F2EEF2E020CFD0CC00490524
:1005E00054055E05720587059C05B105C605D20553
:1005F000C7E0E4E5F0E6EAE020EDE020E2EAEB2EF9
:100600002020202000C4EBE8F2E5EBFCEDEEF1F257
:10061000FC20EAEEECE0EDE4FB00C7E0E4E5F0E608
:10062000EAE020EDE020E2FBEAEB2E2020EA00C128
:10063000EBEEEA2E20EAEEECE0EDE420203F2E2E59
:100640003F202000C4EBE8F22E20EAEEECE0EDE4DF
:10065000FB20203F2E2E3F2000F00505061A062F16
:10066000064406C2F0E5ECFF20EDE020EFEEE2F2FA
:100670002E20EAEEEC2E2000C1EBEEEA2E20EAEE70
:10068000ECE0EDE420203F2E2E3F202000C4EBE8DC
:10069000F22E20EAEEECE0EDE4FB20203F2E2E3F90
:1006A0002000F0050506630678068D06D1EEE2EC23
:1006B000E5F1F2E8ECEEF1F2FC0043E8EDF5F0EEE6
:1006C000EDE8E7E0F6E8FF20F7E0F1EEE20055E2C2
:1006D000FBF520EDEEECE8EDE0EBFCEDEEE500D314
:1006E000E4E5F0E6E0EDE8E520F0E5EBE520CFD04D
:1006F000C400D1E5F2E5E2EEE920E0E4F0E5F10046
:10070000C2F0E5ECFF20EFE5F0E5E7E0EFF3F1EA1A
:10071000E000D7E0F1F2EEF2E000CDEEECE5F02003
:10072000E0EFEFE0F0E0F2E000CAEEEDF2F0EEEB29
:10073000FC20E2FBF52EF1E8E3EDE0EBE000CFEE8C
:10074000F0EEE320CFD0C5C4D3CFD020EFEE20CA47
:10075000D72000C7E0E3F020F7F3E2F1F2E2E8F29D
:1007600020EFEE2020CAD700CAEEF0F0E5EAF6E866
:10077000FF20EDE0EFF0FFE6E5EDE8FF00CAEEF068
:10078000F0E5EAF6E8FF20F2EEEAE000CFEEF0EE68
:10079000E320CFD0C5C4D3CFD020EFEE20D0C720E8
:1007A00000CFF0EEF2EEEAEEEB20EEE1ECE5EDE06C
:1007B00000CFF0E8E7EDE0EA20F7E5F2EDEEF1F248
:1007C000E800C4EEEFF3F1F2E8ECFBE520EFF0EE29
:1007D000E2E0EBFB00CFEEF0EEE320EFEE20EFEEF9
:1007E000ECE5F5E500C4EEEFF3F1F2E8ECE0FF2014
:1007F000EFEEECE5F5E000D2E8EF20E0E2F2EEEA21
:10080000EEEDF2F0EEEBFF00D0E5E7E5F0E2E8F028
:10081000EEE2E0EDE8E500AC06BA06CE06DF06F251
:1008200006000712071A0729073E07530768077DC6
:1008300007A107B107C207D507E507F70708088C26
:1008400007C0C2C0CDD220D034303000CFC2C72DB7
:10085000393000C0C2C7CA2D383000CFC2C7D32D2F
:10086000C500CFC2C7CB00EEF8E8E1EAE0004108DE
:100870004C0853085B0862086708C7C0D900CFD08E
:10088000CC00CFCC3100CFCC3200CFD0C400C2FBE3
:10089000E2E5E42000C3EEF2EEE22000C2E2E5E48D
:1008A000E5ED00D0E5F7FC202000D2E5F1F22031A3
:1008B00000D2E5F1F2203200D2E5F1F22033008ED1
:1008C0000895089C08A308AA08B108B8083F3F3F4C
:1008D0003F00202020C7E0EFF3F1EA20F2E5F1F23B
:1008E000E02020202020002020CFEEE4EEE6E4E807
:1008F000F2E5203F20F1E5EA20202000CFF0EEF2E3
:10090000EEEAEEEB00D1F2E0EDE4E0F0F2004D6F44
:10091000644275730005090E09C7C0D93A00CFD0EB
:10092000CC3A00CFCC313A00CFCC323A00CFD0C451
:100930003A003F3F3F3F2020202000CDE5E8F1EF87
:10094000F0202000CFF0E5E4F3EFF02000C2FBE25E
:10095000E5E4E5ED2000C3EEF2EEE220202000C247
:10096000E2E5E4E5ED202000D0E5F7FC20202020A2
:1009700000D2E5F1F23120202000D2E5F1F2322060
:10098000202000D2E5F1F233202020004D09560945
:100990005F09680971097A094D095F094D097109F3
:1009A0007A0983094D095F0971097A098309C8F138
:1009B000F5EEE4ED2E2000CAEEEDF2F0EEEBFC00D9
:1009C000CFF3F1EA2020202000D0E0E1EEF2E02099
:1009D0002000CDE5E8F1EFF02E2000CF2EEDE5E888
:1009E000F1EFF000CEE6E8E4E0EDE8E5003F307836
:1009F00030373F202000D3E42EEFF3F1EA2000CD82
:100A0000E5F220D0C7202000D0E5F7FC20202020F0
:100A100000D2E5F1F22020202000AE09B709C0097C
:100A2000C909D209DB09E409ED09F609FF09080A39
:100A3000110AC8F1F5EEE4ED2E2000CFD0CC20CA8B
:100A4000D7202000CFD0CC20CFC0202000CDE5F291
:100A500020CAD7202000CDE5E8F1EFF02E2000CF0E
:100A60002EEDE5E8F1EFF000CEE6E8E4E0EDE8E5B4
:100A700000C1CBCA20CACC2020003F307830383F9C
:100A80002020003F307830393F2020003F30783040
:100A9000413F202000D2E5F1F22020202000320A40
:100AA0003B0A440A4D0A560A5F0A680A710A7A0A22
:100AB000830A8C0A950AC8F1F5EEE4ED2E2000CFEA
:100AC000D0C420CAD7202000CFD0C420CFC020203F
:100AD00000CDE5F220CAD7202000CDE5E8F1EFF007
:100AE0002E2000CF2EEDE5E8F1EFF000CEE6E8E4B1
:100AF000E0EDE8E5003F307830373F2020003F3020
:100B00007830383F202000D1E8F1F2E5EC2E2000CB
:100B10003F307830413F202000D2E5F1F220202004
:100B20002000B60ABF0AC80AD10ADA0AE30AEC0AA8
:100B3000F50AFE0A070B100B190B672D006C2D0030
:100B4000C2E2EEE43A00CFE0F0EEEBFC3A00CDEE8C
:100B5000E2FBE920EFE0F0EEEBFC3A00C7EDE0F756
:100B6000E5EDE8E53A2000C4D4C72DCFF0CFE4206E
:100B70002000C4D4C72DCFF0ECCCCA3100C4D4C7F8
:100B80002DCFF0ECCCCA3200C4D4C72D4C36302067
:100B9000202000CDC72DCFF0CFE420202000CDC7EE
:100BA0002DCFF0EC2DCCCA2000CFCFC72DCFF0CF6A
:100BB000E4202000CFCFC72DCFF0EC2DCCCA00EE23
:100BC000F8E8E1EAE02020202000670B720B7D0BA3
:100BD000880B930B9E0BA90BB40BBF0BE2FBEAEB4C
:100BE0002E00E2EAEB2E003F3F3F3F00DC0BE20B22
:100BF000E70B3F3F3F3F00E1FBF1F2F0FBE900EC88
:100C0000E5E4EBE5EDEDFBE900F20BF70BFF0BF292
:100C10000B3F3F3F3F00E2EAEB2E00E2FBEAEB2E08
:100C200000110C160C1B0C110C3F3F3F20E3F0E0B1
:100C3000E4003F3F3F20F1E5EA003F3F20E3F0E0E2
:100C4000E4003F3F3F3F00F2F0E5E2EEE6EDFBE976
:100C500000EDEEF0ECE0EBFCEDFBE900F1EFEEEA8D
:100C6000EEE9EDFBE900420C470C510C5C0C420C28
:100C70002D35303020C3F6002D32353020C3F6003C
:100C80002B3020C3F6002B32353020C3F6002B3535
:100C9000303020C3F600EEF8E8E1EAE000700C78AE
:100CA0000C800C860C8E0C960CC4E8E0EFE0E7EEAE
:100CB000ED3A2000EDE5F220E4E0EDEDFBF500F18A
:100CC000EFE8F1EEEA000000070001000200030077
:100CD000010000006300010000001200010012008A
:100CE00036000100000016000100000001000100B4
:100CF00000000400010000000400010001000900E0
:100D0000010000000A000100010032000A0000009A
:100D100064000A000000FF0001000000FF00010065
:100D200000000A000100010032000A000100320048
:100D30000A000000FF0001000000FF0001000000A9
:100D40000400010000000100010012003200010057
:100D50000000020001000000FF000100000005008B
:100D600001001A00E6030100010003000100000079
:100D70000100010000001600010000001600010043
:100D80000000E70301000000E7030100010002008A
:100D900001000100020001000000B4000100000099
:100DA000FF00010012005A000100010003000100D1
:100DB000000001000100302E302E2E39392E39006E
:100DC000CFF0EEF8E8E2EAE020502D555350202015
:100DD00000CFF0EEF8E8E2EAE02041542D55535000
:100DE0002000CFF0EEF8E8E2EAE0204453502D5521
:100DF000535000C4EEEFEEEBED2E20EFE0F0E0EC10
:100E0000E5F2F0FB00C2E8E420EFE0F0E0ECE5F210
:100E1000F0E000C00DD10DE20DF30D050EC5F1F2AD
:100E2000FC00CDE5F200220E1D0EF1F2E0EDE4E053
:100E3000F0F20048455800330E2A0E2ED1E1F0EEB4
:100E4000F120F1E2EEE5E3EE2E2020202020002E1E
:100E5000D1E1F0EEF120F3E4E0EBE5EDEDEEE3EED1
:100E60002E20002ED1E1F0EEF120F3E4E0EBE5EDF1
:100E7000EDEEE3EE2031002ED1E1F0EEF120F3E4CF
:100E8000E0EBE5EDEDEEE3EE2032002ECFF3F1EAFC
:100E900020F3E4E0EBE5EDEDEEE3EE2E2020002E76
:100EA000CFF3F1EA20F3E4E0EBE5EDEDEEE3EE2045
:100EB0003120002ECFF3F1EA20F3E4E0EBE5EDED95
:100EC000EEE3EE203220002ECFF3F1EA20F3E4E04F
:100ED000EBE5EDEDFBF520312C32002EC0CA20E011
:100EE000E2F2EEECE0F2E8F7E5F1EAE8E920002EC4
:100EF000C0CA20F3F1EAEEF0E5EDEDFBE920202099
:100F00002020002EC0CA20E2FBEAEBFEF7E5ED2030
:100F1000202020202020002EC0CA20EAEEEDF2F092
:100F20002EEFF0EEE2E5F0EAE020002EC0CA20E865
:100F3000F1EFFBF2E0EDE8FF202020202020002E42
:100F4000C0CA20EFF3F1EA2020202020202020201A
:100F50002020002EC2FBE7EEE220202020202020CF
:100F6000202020202020002EC0CA20EDEEF0ECE052
:100F7000EBFCEDFBE92020202020002EC0CA20E160
:100F8000E5E3EBFBE9202020202020202020002E7C
:100F9000CFF3F1EA20F3E4E0EBE5ED2E20CCC0CD79
:100FA0002020002EC0CA20EEE4EDEEF1F2EEF0EECD
:100FB000EDEDE8E92020002ED1E1F0EEF120C0CAED
:100FC00020202020202020202020002ECFF3F1EA16
:100FD00020C0CA20F1E2EEE9202020202020002EAF
:100FE000CFF3F1EA20C0CA20F3E4E0EBE5EDEDFB3E
:100FF000E920002ECFF3F1EA20CFD0C4202020201A
:10100000202020202020003B0E4F0E630E770E8BF9
:101010000E9F0EB30EC70EDB0EEF0E030F170F2B36
:101020000F3F0F530F670F7B0F8F0FA30FB70FCB20
:101030000FDF0FF30FD1E1F0EEF100CFF3F1EA0093
:10104000C2E2EEE400C2FBE7EEE20035103B1040E6
:1010500010451020202020204572726F7220202021
:1010600020202000CDE5E8F1EFF02EF7F22E20460B
:101070004C41534800CDE5E8F1EFF02EE7E0EF2ECC
:10108000464C41534800CDE5E8F1EFF02EF7F22E43
:1010900020504C49532000CDE5E8F1EFF02EE7E079
:1010A000EF2E504C49532000CDE5E8F1EFF02EE74C
:1010B000E0EF2E3252414D2000CDE5F220F1E8E381
:1010C000EDE0EBE020CFD0CC2000C0CA2DD1EDE880
:1010D000E6E5ED2EE7E0EFE0F1E000CFEEECE5F540
:1010E000E020E220EBE8EDE8E8202000CDE5E8F1A3
:1010F000EFF02E445350203252414D2000CDE5E810
:10110000F1EFF02EF7F22E203252414D2000CDE8C3
:10111000E7EAEEE520EDE0EFF02EE2FBF52E00C26F
:10112000FBF1EEEAEEE520EDE0EFF02EE2FBF5005C
:10113000CDE5E8F1EFF02E20CCCA20D3CC20202042
:10114000006410751086109710A810B910CA10DB33
:1011500010EC10FD1053100E111F113011531053CD
:1011600010C0CA2DCDE5F220EEF2E2E5F2E020203B
:101170002000D3F1F2E0EDEEE2E8F2E520F7E0F155
:10118000FB2000CDE5F220E1EBEEEAE020C1D1C783
:1011900020202000CDE5E8F1EFF02EE2E5F0F12E81
:1011A000C1D1C72000CDE5E8F1EFF02EEFE5F0E585
:1011B000EAEB2E202000CDE5E8F1EFF02EE7E0EF9E
:1011C0002E20C1D1C72000CDE5F220F1E8E3EDE00B
:1011D000EBE020CFD0CC2000CDE8E7EAE8E920F32F
:1011E000F02E20D0C720202000CDE5E8F1EFF02E32
:1011F000F3E4E0EB2EC4D4C72000CDE5E8F1EFF036
:101200002EF3E4E0EB2EC2DBD52E00CDE5E8F1EFC6
:10121000F02EE2F5EEE42ECFD3D1CA00CDE5E8F111
:10122000EFF02EE2F5EEE42ED1D2CECF00D3E42EB5
:10123000CFCED1D220E1E5E720EEF2E22E00CDE5DF
:10124000E8F1EFF02EF6E5EFFC2EC2DBD52000D35F
:10125000E42ECFCED1D220EEE1ED2EEFEEEC2E003B
:10126000CDE5E8F1EFF02EE7E0EF2E20C2DBD52050
:1012700000C4EBE8F2E5EBFCED2E20EFEEECE5F53B
:10128000E000CDE5E8F1EFF02E20C4D4C720202007
:1012900020200083119411A511B611C711D811E9AE
:1012A00011FA110B121C122D123E124F1260127104
:1012B000128212C0CA2DD1EDE8E6E5ED2EE7E0EF8F
:1012C000E0F1E000CDE5F220F1E8E3EDE0EBE02035
:1012D000CCC0CD2000CFEEF0EEE320EFEE20EFEE1D
:1012E000ECE5F5E52000CDE5F220E1EBEEEAE020CB
:1012F000C1D1CA20202000CDE5E8F1EFF02EE2E5D3
:10130000F0F12EC1D1CA2000CFF0E5E22EE4EB2DA2
:10131000F1F2E82EEAEEEC2E00CDE5E8F1EFF02E4A
:10132000E7E0EF2E20C1D1CA2000CDE5E8F1EFF0D3
:101330002EE2FBEAEB2ECAD1CA2000CDE5E8F1EFA0
:10134000F02EE2EAEB2E20CAD1CA2000CDE5E8F16A
:10135000EFF02EEAEEEDF2F02ECAD1CA00CFF0E5A2
:10136000E4F3EFF02EEDE5F220CAD7312000CFF004
:10137000E8E5EC20E1EBEEEA2E20CAEEEC2E00E6EA
:1013800012F712531008135310531053105310191F
:10139000132A133B134C135D13531053106E13D1C8
:1013A000EDE8E62E20F3F0EEE2EDFF20CFD0CC000A
:1013B000CDE5F220E1EBEEEAE020C1D1CA20202009
:1013C00000CDE5E8F1EFF02EE2E5F0F12EC1D1CA53
:1013D0002000CDE5E8F1EFF02EE2FBEAEB2ED2E5BE
:1013E000F1F200CDE5E8F1EFF02EE2EAEB2E20D2AB
:1013F000E5F1F200CDE5E8F1EFF02EE2F5EEE42EB6
:10140000CAD1CA2000B013C1135310531053105344
:1014100010531053105310D213E313F413531053FB
:101420001053105310C3F0313A00C3F0323A003178
:10143000C3F0313A0032C3F0313A0031C3F0323AEE
:101440000032C3F0323A00C3F0F3EFEFE020310096
:10145000C3F0F3EFEFE020320047145014E2FBEA50
:10146000EB00CAD73100CAD73200EEF8E8E1005DE0
:1014700014621466146A14E2FBEAEB00D0C700EEB3
:10148000F8E8E10077147C147F14D2E5F1F2203102
:1014900000D2E5F1F22032008A149114CD2EF7F239
:1014A0002E464C41534800CD2EE7EF2E464C41537B
:1014B0004800CD2EF7F22E504C49532000CD2EE798
:1014C000EF2E504C49532000CD2EE7EF2E325241E3
:1014D0004D2000CD2EF7F22E3252414D2000CD2E60
:1014E000F0E0E12E4453502000C2EEF1F22EF02E37
:1014F00044535000CDE8E7EA2E2055E2FBF500C248
:10150000FBF12E2055E2FBF52000CD2EF1E22E203E
:10151000F120D3CC00CD2E20F7E0F1EEE220200028
:10152000CDE5F220E1EB2EC1D1C700CD2EE2E5F0F2
:10153000F12EC1D1C700CD2EEFE5F02E20C1D1C7CD
:1015400000CDE5F220F12E20CCC0CD00CFE5F0E5B6
:10155000E7E0EFF3F1EA00C8E7EC2EF0E5E6E8ECAF
:10156000E000CEF82EE7E0EFE8F1E82000CEF82E1C
:10157000EAEEEDF2F02E2000D1EDE8E62EF32ECFCC
:10158000D0CC00CDE5F220F12E20CFD0CC00CDE59F
:10159000F220F12ECFD3D1CA00EDE5F220F12ED109
:1015A000D2CECF00C2FBEAEBFEF7E5EDE8E5005F47
:1015B00000D1E2FFE7FC20F120CFCA002E0030303E
:0315C000303000C8
:1015C4000100E50F0A00D00CF40C190D470D9E0D17
:1015D400FA0D5A0E790E920EAB0E110019110C0071
:1015E400F80F33107D10CD10F31019111911F80FE5
:1015F40033107D10CD10F3103500CF1C0900A31952
:10160400B719E519591A791A541B211C4B1CBC1C17
:101614000001019729532901532901532901532911
:101624000153290153290153290A58290158290131
:1016340058290158290158290158290B5D29015DB0
:1016440029015D29015D29015D290B6229016629B2
:10165400016A29026E290172290172290172290184
:10166400722901722901722901722901722985776F
:10167400290193290F7E290193290F852901932993
:101684000F8C29019329FB00000100F42C07009F13
:101694002CAB2CB92CC52CD12CDD2CE92C00001141
:1016A40000922D0600032D112D212D462D672D8727
:1016B4002D000021000F2E0500A12DAF2DBF2DCF31
:1016C4002DEF2D00000067300900B52FFB2E0C2FE5
:1016D4001D2F342F522F702F8E2F9A2F003500DAA2
:1016E400300900763082308E309A30A630B230C362
:1016F40030DA30CF30007701D237CA3704C237022C
:10170400BA3701B23739CE3704C63702BE3701B60D
:101714003719CC3704C43702BC3701B43709D03782
:1017240004C83702C03701B837FB00009C391300E6
:10173400583958395A3958395A395A395A395A3913
:1017440058395A395A3994395A39583958395A39C9
:101754005A395A3958390701464F984E01A54E0156
:10176400B14E01B14E01BD4E01CB4E01CB4E04DB57
:101774004E01E94E01E94E06F94E01F94E01054FBD
:10178400010F4F011D4F01294F1B334F7D3D4FFB6F
:101794002301015EE9560E335201605201C8520121
:1017A4003753012B54013D54014155015255018DCC
:1017B400550AA45501625601EC5608985508DE55A1
:1017C400FB000101025E3F53015653025A53015F6D
:1017D4005301635301675301975301E453010C54BC
:1017E40002635301675301975301E453010C5406F8
:1017F4002654FB000000D95809003E584E585E5844
:101804006E5882589658AA58BA58CA580000D25CE2
:101814001400745B845B945BA45BB45BC45BD45BB7
:10182400E45BF45B045C175C2C5C425C4E5C615CC6
:10183400745C875C9A5CAD5CC05C0100F1620C0076
:10184400D761D761DF61FD61FD61F162F162D7614A
:10185400D761DF61FD61FD610100227616005B67DF
:1018640056688F68AA68F56855698A69996AE36B4E
:101874009E6C0F6E55698A69A76F0D719E6C2276F6
:10188400E37105727C72B873BE750000946A090036
:10189400F769096A126A1B6A2C6A3D6A4E6A606AB1
:1018A400726A00000A6E1400E96CFB6C0D6D166D13
:1018B400286D316D3A6D436D4C6D5E6D676D786D5D
:1018C400786D976DA96DBB6DC46DCD6DD66DE86DEA
:1018D400A80100E062E0621740F470E0FA01E60F4C
:1018E400F71F1081010F6395F6CF08959A938A9399
:1018F400902F812FE7E1F6E000810061008390934F
:101904005A0601E000935B0680935C0625E008E537
:1019140016E0DEDF10E0EAEBF4E000831183EAEB8B
:10192400F4E00081118100935D0606E00E945F28C7
:101934008991999108959A938A93902F812FE7E141
:10194400F6E000810061008390935A0680935B0661
:10195400282F2C5F08E516E0BBDF10E0EAEBF4E08B
:1019640000831183EAEBF4E000811181202F082F1A
:1019740010E0F801E85AF94F2483082F0B5F0E9406
:101984005F288991999108950E94B979A02F0A2F0F
:10199400E4ECF0E0FBBFF5E10C94677900911C06E0
:1019A40010E0E6ECFCE0259134913197021713071F
:1019B40058F0E8ECFCE025913491319700911C0635
:1019C40010E02017310748F4E8ECFCE0059114918D
:1019D400319703950093AD04F6C200911C06009361
:1019E400AD04F1C2E8E1F6E00481039504830091BB
:1019F4001C0610E0ECECFCE02591349131970217C1
:101A0400130758F0EEECFCE02591349131970091E6
:101A14001C0610E02017310720F40FE3009379032C
:101A2400D2C200911C06005D00937903CCC20091E0
:101A34001C0610E0E2EDFCE0259134913197021789
:101A4400130758F0E4EDFCE02591349131970091AF
:101A54001C0610E02017310738F40FE300938403C9
:101A64000FE300938503AFC200911C064AE00E9475
:101A7400C178005D0093840300911C064AE00E9433
:101A8400C178405D409385039EC200917E0B013076
:101A940069F4E8EDFCE0059114913197902FEAED9B
:101AA400FCE0059114913197802F02C090E086E309
:101AB40000911C06091720F000911C06801738F4C9
:101AC4000FE300938D030FE300938E0310C0009186
:101AD4001C064AE00E94C178005D00938D030091CA
:101AE4001C064AE00E94C178405D40938E03009139
:101AF4007F0B033009F067C200911D06091720F01F
:101B040000911D06801738F40FE3009395030FE34B
:101B14000093960358C200911D064AE00E94C178C2
:101B2400005D0093950300911D064AE00E94C17870
:101B3400405D4093960347C200917E0B013069F4E7
:101B4400EEEDFCE0059114913197902FE0EEFCE06E
:101B5400059114913197802F02C090E086E30091A3
:101B64001C06091720F000911C06801738F40FE3B7
:101B74000093A1030FE30093A20325C200911C0666
:101B84004AE00E94C178005D0093A10300911C0605
:101B94004AE00E94C178405D4093A20300917E0B0D
:101BA400023009F010C200917F0B033009F00BC220
:101BB40000911D06091720F000911D06801738F4C6
:101BC4000FE30093A9030FE30093AA03FCC1009160
:101BD4001D064AE00E94C178005D0093A9030091AC
:101BE4001C064AE00E94C178405D4093AA03EBC101
:101BF40000911C0610E0E4EEFCE02591349131974D
:101C04000217130758F0E6EEFCE025913491319762
:101C140000911C0610E02017310738F40FE30093FD
:101C2400B5030FE30093B60310C000911C064AE00D
:101C34000E94C178005D0093B50300911C064AE040
:101C44000E94C178405D4093B60300917F0B03303E
:101C540009F0B9C100911D0610E0E4EEFCE0259105
:101C6400349131970217130758F0E6EEFCE0259102
:101C74003491319700911D0610E02017310738F494
:101C84000FE30093BB030FE30093BC039CC10091DB
:101C94001D064AE00E94C178005D0093BB030091D9
:101CA4001D064AE00E94C178405D4093BC038BC18D
:101CB40000911C0610E0EAEEFCE025913491319786
:101CC4000217130758F0ECEEFCE02591349131979C
:101CD40000911C0610E02017310720F402E0009365
:101CE400C50371C100911C060093C5036CC1E2EFEA
:101CF400FCE025913491319700911C0610E02017E7
:101D0400310748F4E2EFFCE0059114913197039513
:101D14000093C60358C100911C060093C60353C127
:101D2400E8EFFCE025913491319700911C0610E016
:101D34002017310748F4E8EFFCE00591149131973E
:101D440003950093C7033FC100911C060093C7038A
:101D54003AC100911C0610E0ECEFFCE025913491AF
:101D640031970217130758F0EEEFFCE025913491F8
:101D7400319700911C0610E02017310720F400E091
:101D84000093290A1DC100911C060093290A0091A1
:101D9400C30A013049F00091C30A023029F00091CE
:101DA400C30A033009F00CC14091C30A415039F011
:101DB4004A9509F465C04A9509F4C3C001C140912C
:101DC400290A415049F04A9539F04A9561F0425048
:101DD40089F04A95B1F01BC040EA51E4EAE2FAE026
:101DE4004083518314C044E358E0EAE2FAE04083BC
:101DF40051830DC043E850E0EAE2FAE040835183A6
:101E040006C042E050E0EAE2FAE0408351834091A8
:101E14001D0650E060E070E08A019B01322F212F03
:101E2400102F00E040911E0650E060E070E0040FC7
:101E3400151F261F371F322F212F102F00E040912E
:101E44001F0650E060E070E0040F151F261F371FC7
:101E5400322F212F102F00E04091200650E060E047
:101E640070E0040F151F261F371F48EE53E060E093
:101E740070E00E943C79ECE2FAE000831183A0C098
:101E84004091290A415049F04A9539F04A9561F048
:101E9400425089F04A95B1F01BC040E25EE4EAE2A8
:101EA400FAE04083518314C040ED57E0EAE2FAE0DF
:101EB400408351830DC048EC50E0EAE2FAE04083ED
:101EC400518306C042E050E0EAE2FAE040835183E5
:101ED40040911D0650E060E070E08A019B01322FC2
:101EE400212F102F00E040911E0650E060E070E0CA
:101EF400040F151F261F371F322F212F102F00E02C
:101F040040911F0650E060E070E0040F151F261F8B
:101F1400371F322F212F102F00E04091200650E070
:101F240060E070E0040F151F261F371F48EE53E0D2
:101F340060E070E00E943C79ECE2FAE000831183F7
:101F44003FC040911D0650E060E070E08A019B01B3
:101F5400322F212F102F00E040911E0650E060E048
:101F640070E0040F151F261F371F322F212F102F4B
:101F740000E040911F0650E060E070E0040F151F80
:101F8400261F371F322F212F102F00E040912006EB
:101F940050E060E070E0040F151F261F371F48EE65
:101FA40053E060E070E00E943C79A801EAE2FAE0C4
:101FB4004083518340E050E0ECE2FAE040835183F7
:101FC40001E00093FD0901E00093010A01E00093A0
:101FD400FC09E3E00C94CA790E94B879802F082F99
:101FE400EEEDF0E0FBBFF5E10C946779813121F46B
:101FF40008EC13E0D80103C001E114E0D80110910A
:102004001C0602E0109F00921C0600911C0610E0C2
:10201400E2E0FDE02591349131970217130758F05F
:10202400E4E0FDE025913491319700911C0610E025
:102034002017310730F40FE30C930FE3FD01018304
:10204400F6C000911C064AE00E94C178005D0C9322
:1020540000911C064AE00E94C178405DFD01418365
:10206400E6C0823121F40EEC13E0D80103C007E18D
:1020740014E0D80100911C0610E0E8E0FDE0259191
:10208400349131970217130758F0EAE0FDE02591E7
:102094003491319700911C0610E02017310748F461
:1020A4000FE30C930FE3FD0101830FE3FD010283B2
:1020B400BEC000911C060A3058F400911C06005D55
:1020C4000C9300E3FD01018300E2FD010283AFC034
:1020D40000911C064AE00E94C178005D0C930091B7
:1020E4001C064AE00E94C178405DFD01418300E383
:1020F400FD0102839CC0833121F403E81AE0D80176
:1021040003C003EA1AE0D80100E00093BF04009181
:10211400BF0410911B06011708F089C00091BF0489
:1021240010E0F801E85EF94F048110E0EEE0FDE014
:102134002591349131970217130780F0E0E1FDE017
:102144002591349131970091BF0410E0F801E85EC5
:10215400F94F048110E02017310748F40FEF209164
:10216400BF0430E0FD01E20FF31F00830EC00091B5
:10217400BF0410E0F801E85EF94F24810091BF0428
:1021840010E0FD01E00FF11F2083EFEBF4E000818C
:1021940003950083BCCF843121F409EF13E0D80107
:1021A40003C002E414E0D80100E00093BF040091EE
:1021B400BF0410911B060117D0F50091BF0410E075
:1021C400F801E85EF94F24810091BF0410E0FD019D
:1021D400E00FF11F2083EFEBF4E00081039500830F
:1021E400E6CF853121F40DEF13E0D80103C006E4F6
:1021F40014E0D80100E00093BF040091BF041091E3
:102204001B060117A0F40091BF0410E0F801E85E7A
:10221400F94F24810091BF0410E0FD01E00FF11F8C
:102224002083EFEBF4E0008103950083E6CF01E027
:102234000093010A01E00093FC09E4E00C94C979DD
:102244008A93802F082F015261F00A9599F10A951B
:1022540009F474C00A9509F4B5C00A9509F4CFC00D
:10226400EBC010911C0602E0109F00921C06E2E2F3
:10227400FDE025913491319700911C0610E0201760
:10228400310738F40FE300935A040FE300935B041F
:10229400D3C000911C064AE00E94C178005D0093FF
:1022A4005A0400911C064AE00E94C178405D4093A4
:1022B4005B04C2C000911C0610E0E6E2FDE025913B
:1022C400349131970217130758F0E8E2FDE02591A5
:1022D4003491319700911C0610E02017310750F417
:1022E4000FE3009360040FE3009361040FE3009392
:1022F4006204A2C000911C060A3060F400911C061E
:10230400005D0093600400E30093610400E2009325
:10231400620492C000911C064AE00E94C178005DEC
:102324000093600400911C064AE00E94C178405D5D
:102334004093610400E3009362047EC000911C0694
:1023440010E0ECE2FDE02591349131970217130778
:1023540058F0EEE2FDE025913491319700911C068E
:1023640010E02017310750F40FE3009367040FE3E4
:10237400009368040FE3009369045EC000911C0697
:102384000A3060F400911C06005D0093670400E3CA
:102394000093680400E2009369044EC000911C0697
:1023A4004AE00E94C178005D0093670400911C0616
:1023B4004AE00E94C178405D4093680400E30093C2
:1023C40069043AC000E00093BF040091BF04109177
:1023D4001B06011788F50091BF0410E0F801E85EC0
:1023E400F94F24810091BF0410E0F801EE57FB4F30
:1023F4002083EFEBF4E0008103950083E6CF00E057
:102404000093BF040091BF0410911B060117A0F4B0
:102414000091BF0410E0F801E85EF94F24810091B7
:10242400BF0410E0F801EA57FB4F2083EFEBF4E020
:10243400008103950083E6CF01E00093010A01E0E7
:102444000093FC098991089500E00093BF04009172
:10245400BF04043008F070C04091BF0450E003E0B2
:1024640010E00E94DF78F801E85EF94F048106303D
:1024740058F02EE40091BF0410E0000F111FF80182
:10248400E859FC4F208314C04091BF0450E003E09E
:1024940010E00E94DF78F801E85EF94F2481009192
:1024A400BF0410E0000F111FF801E859FC4F20830E
:1024B4004091BF0450E003E010E00E94DF78F8018F
:1024C400E85EF94F05810C3058F02EE40091BF040A
:1024D40010E0000F111FF801E859FC4F218314C0CC
:1024E4004091BF0450E003E010E00E94DF78F8015F
:1024F400E85EF94F25810091BF0410E0000F111F21
:10250400F801E859FC4F21834091BF0450E003E0F7
:1025140010E00E94DF78F801E85EF94F268100910F
:10252400BF0410E0F801EF58FC4F2083EFEBF4E018
:102534000081039500838BCF01E00093010A089585
:1025440000E00093BF040091BF040431A0F40091A3
:10255400BF0410E0F801E85EF94F24810091BF0444
:1025640010E0F801E15FF54F2083EFEBF4E0008128
:1025740003950083E8CF00911B0A002321F4009106
:102584001C0A002321F001E00093850B03C000E046
:102594000093850B00911D0A002321F400911E0A6B
:1025A400002321F001E00093860B03C000E00093B8
:1025B400860B00910F0A002321F40091100A0023D6
:1025C40021F001E00093870B03C000E00093870B28
:1025D4000091110A002321F40091120A002321F032
:1025E40001E00093880B03C000E00093880B009186
:1025F400130A002321F40091140A002321F001E0BE
:102604000093890B03C000E00093890B0091150A25
:10261400002321F40091160A002321F001E0009325
:102624008A0B03C000E000938A0B0091170A002371
:1026340021F40091180A002321F001E000938B0B90
:1026440003C000E000938B0B0091190A002321F4CE
:1026540000911A0A002321F001E000938C0B03C0BF
:1026640000E000938C0B00911F0A002321F40091D9
:10267400200A002321F001E000938D0B03C000E049
:1026840000938D0B0091210A002321F40091220A6A
:10269400002321F001E000938E0B03C000E00093BF
:1026A4008E0B01E00093010A08959A938A93009196
:1026B4001C060F70005D0093C10200911C06029578
:1026C4000F70005D0093C00200911D060F70005D45
:1026D4000093BE0200911D0602950F70005D0093E9
:1026E400BD0200911E060F70005D0093BB020091B5
:1026F4001E0602950F70005D0093BA0200911F063A
:102704000F70005D0093C40200911F0602950F70C4
:10271400005D0093C302009120060F70005D0093DA
:10272400C7020091200602950F70005D0093C60257
:10273400009121060F70005D0093CA0200912106EA
:1027440002950F70005D0093C90200E00093BE047F
:102754000091BE04083008F04EC00091BE0410E0A1
:10276400F801E654FD4F00810A3348F40091BE0499
:1027740010E0F801E654FD4F0081003378F4009135
:10278400BE0410E0F801E654FD4F00810E3231F032
:10279400E6EAF2E000810395008303C000E00093C1
:1027A400A6020091BE0410E0F801ED53FD4F008134
:1027B4000A3348F40091BE0410E0F801ED53FD4FD4
:1027C4000081003378F40091BE0410E0F801ED5369
:1027D400FD4F00810A3331F0E7EAF2E0008103950E
:1027E400008303C000E00093A702EEEBF4E0008155
:1027F40003950083ADCF8091C10290E04091C00267
:1028040050E00AE010E00E94DF78800F911F8051B1
:102814009240843600E090072CF0E6EAF2E0008172
:10282400039500838091BE0290E04091BD0250E088
:102834000AE010E00E94DF78800F911F80519240DF
:102844008D3090402CF0E6EAF2E00081039500839D
:102854008091BB0290E04091BA0250E00AE010E09F
:102864000E94DF78800F911F805192408032904007
:102874002CF0E6EAF2E00081039500838091C40223
:1028840090E04091C30250E00AE010E00E94DF783B
:10289400800F911F80519240893190402CF0E7EADB
:1028A400F2E00081039500838091C70290E040919B
:1028B400C60250E00AE010E00E94DF78800F911F0A
:1028C400805192408D3300E090072CF0E7EAF2E06B
:1028D4000081039500838091CA0290E04091C9026F
:1028E40050E00AE010E00E94DF78800F911F8051D1
:1028F40092408D3300E090072CF0E7EAF2E000818B
:10290400039500830091A602002351F100E3009394
:10291400C10200E30093C00200E30093BE0200E39F
:102924000093BD0200E30093BB0200E30093BA02EC
:1029340000E00093A60200E00093BE040091BE04F0
:10294400033048F500E02091BE0430E0F901E05680
:10295400FD4F0083EEEBF4E0008103950083EECF9E
:1029640000E00093BE040091BE040330A0F4009183
:10297400BE0410E0F801E85EF94F24810091BE0422
:1029840010E0F801E056FD4F2083EEEBF4E0008107
:1029940003950083E8CF0091A702002351F100E3DF
:1029A4000093C40200E30093C30200E30093C70250
:1029B40000E30093C60200E30093CA0200E300931D
:1029C400C90200E00093A70200E00093BE04009156
:1029D400BE04033048F500E02091BE0430E0F90164
:1029E400E056FD4F0383EEEBF4E000810395008392
:1029F400EECF00E00093BE040091BE040330A0F4C7
:102A04000091BE0410E0F801E85EF94F27810091BF
:102A1400BE0410E0F801E056FD4F2383EEEBF4E032
:102A2400008103950083E8CF01E00093010A01E0EF
:102A34000093FD098991999108950E94B57928011F
:102A4400A22FB32F642E852FBA959A2F983048F46D
:102A540020E2092F10E0F201E00FF11F208393958B
:102A6400F5CF803858F00FEF802783952DE20A2F99
:102A740010E0F201E00FF11F2083A395082F10E06E
:102A84004B2F0E94E778802F8336C8F44AE0082F42
:102A94000E94C178005D2A2F30E0F201E20FF31F9B
:102AA4000083A3954AE0082F0E94C178405D0A2F55
:102AB40010E0F201E00FF11F4083A39510C02FE353
:102AC4000A2F10E0F201E00FF11F2083A3952FE3FA
:102AD4000A2F10E0F201E00FF11F2083A395062DC9
:102AE400015019F00A9549F016C023EE0A2F10E0A0
:102AF400F201E00FF11F20830EC024EE0A2F10E034
:102B0400F201E00FF11F208321EC0A2F10E0F20103
:102B1400E00FF11F2183E7E00C94C6790E94B2799B
:102B24002801822F832E942EDB016A847B848A946D
:102B3400982F983048F420E2092F10E0F201E00FBA
:102B4400F11F20839395F5CF482D8D010E94E778DE
:102B5400D801A615B70508F067C0A83E03E0B00782
:102B640010F148EE53E08D010E94ED78202F082FDC
:102B740010E0F201E00FF11F2083082F10E0F201B2
:102B8400E00FF11F408150E008EE13E00E94DF786F
:102B9400A01BB10B082F10E0F201E00FF11F008120
:102BA400005D00838395A43600E0B00710F144E68D
:102BB40050E08D010E94ED78202F082F10E0F201E3
:102BC400E00FF11F2083082F10E0F201E00FF11F46
:102BD400408150E004E610E00E94DF78A01BB10BB6
:102BE400082F10E0F201E00FF11F0081005D008367
:102BF40083954AE050E08D010E94ED78005D282F16
:102C040030E0F201E20FF31F008383954AE050E0C5
:102C14008D010E94ED78405D082F10E0F201E00F75
:102C2400F11F4083839510C02FE3082F10E0F201B9
:102C3400E00FF11F208383952FE3082F10E0F201AA
:102C4400E00FF11F20838395092D015019F00A9597
:102C540081F016C02CEE082F10E0F201E00FF11FF6
:102C6400208320EC082F10E0F201E00FF11F2183F4
:102C740007C025E2082F10E0F201E00FF11F2083C6
:102C8400ECE00C94C379532F52955F70452F4A3072
:102C940018F0495C542F02C0405D542F452F622F19
:102CA40070E0F801E60FF71F4083532F5F70452F44
:102CB4004A3018F0495C542F02C0405D542F452F10
:102CC400622F70E0F801E60FF71F418308950E9418
:102CD400B27900911C06402E00911D06502E00E092
:102CE40010E0EFE0FBE00783108704E640164CF4A5
:102CF4000DE9401634F00BE550161CF406EA5016A4
:102D040054F40FE300930F0B0FE30093100B00E058
:102D14000093110B85C080E0282F822F8395042D0A
:102D240005290078002311F00DE201C00BE230E028
:102D3400F901E15FF44F008344201AF400E0041920
:102D4400402E55201AF400E00519502E042D0529B3
:102D5400002331F400E300930F0B00E00093100B09
:102D64000AE040165CF04AE0042D0E94CF78005D32
:102D740090E0FC01E15FF44F008383954AE0042D69
:102D84000E94CF78405D90E0FC01E15FF44F408306
:102D940083950EE290E0FC01E15FF44F008383959C
:102DA4004AE0052D0E94CF78005D90E0FC01E15FD0
:102DB400F44F0083839502EC90E0FC01E15FF44F53
:102DC4000083839500E090E0FC01E15FF44F008311
:102DD4008395442D542F550F550B0AE010E00E94A3
:102DE400DF783801052D102F110F110B4AE050E048
:102DF4000E940579600E711EEFE0FBE06782708629
:102E040000910F0B0D3261F400E010E0EFE0FBE005
:102E140027813085021B130BEFE0FBE0078310874B
:102E240091E0933008F043C1092F10E0000F111F07
:102E3400F801E85EF94F348120E0092F10E0000F1B
:102E4400111FF801E85EF94F058110E0200F311FD2
:102E5400D90100E010E03801492F50E009E010E00A
:102E64000E94DF78F801E15FF44F67827086A83E24
:102E740003E0B00724F4A9310CEFB00724F50FE305
:102E8400602E492F50E009E010E00E94DF78F8013D
:102E9400E15FF44F60820FE3602E492F50E009E0B8
:102EA40010E00E94DF78F801E15FF44F618266244C
:102EB400492F50E009E010E00E94DF78F801E15F5B
:102EC400F44F6282F2C00A2F0B2BC1F400E3602E90
:102ED400492F50E009E010E00E94DF78F801E15F3B
:102EE400F44F60826624492F50E009E010E00E940C
:102EF400DF78F801E15FF44F6182D7C080E0492FA9
:102F040050E009E010E00E94DF78F801E15FF44F3F
:102F1400A783B087882E882D8395A13000E0B00761
:102F24001CF00BE2602E02C00DE2602E492F50E02F
:102F340009E010E00E94DF78EFE0FBE0E00FF11F12
:102F44009924E80DF91D6082BB232AF40FEF1FEFCB
:102F5400A027B1271196A43600E0B007ECF144E6AF
:102F640050E08D010E940579602E492F50E009E060
:102F740010E00E94DF78EFE0FBE0E00FF11F082F84
:102F840010E0E00FF11F6082492F50E009E010E0EB
:102F94000E94DF78EFE0FBE0E00FF11F082F10E064
:102FA400E00FF11F408150E004E610E00E94DF785A
:102FB400A01BB10B492F50E009E010E00E94DF781C
:102FC400EFE0FBE0E00FF11F082F10E0E00FF11F2E
:102FD4000081005D00838395AA3000E0B007C4F04F
:102FE4004AE050E08D010E940579602E00E3600EF6
:102FF400492F50E009E010E00E94DF78EFE0FBE0A9
:10300400E00FF11F082F10E0E00FF11F608283959D
:103014004AE050E08D010E940579642E00E3600EC1
:10302400492F50E009E010E00E94DF78EFE0FBE078
:10303400E00FF11F082F10E0E00FF11F608283956D
:103044000CEE602E492F50E009E010E00E94DF787A
:10305400EFE0FBE0E00FF11F082F10E0E00FF11F9D
:103064006082839500EC602E492F50E009E010E067
:103074000E94DF78EFE0FBE0E00FF11F082F10E083
:10308400E00FF11F608283956624492F50E009E028
:1030940010E00E94DF78EFE0FBE0E00FF11F082F63
:1030A40010E0E00FF11F608283959395BACEEAE0B9
:1030B4000C94C37910911C06012F10E0E0EBFDE0A5
:1030C4002591349131970217130748F0E2EBFDE0A4
:1030D40025913491319710E02017310738F4E2EB51
:1030E400FDE02591349131972395022F00930E0B27
:1030F40008959A938A9300911C06002309F00EC147
:1031040050911D0641E032E022E000EF12E095DC30
:1031140030911D0623E005ED12E0B5DD30911E0669
:1031240025E005ED12E0AFDD30911F0620E00091AF
:10313400200610E0200F311FEDE0FAE020833183F8
:1031440008EE13E01A930A93EDE0FAE060817181CE
:1031540041E031E023E009EF12E0E0DC00912206D7
:103164004AE00E94C178009319034091210650E07F
:103174000AE010E00E94DF782091190330E0020F8A
:10318400131FEBE0FAE000831183EBE0FAE0008127
:103194001181083E23E0120754F4EBE0FAE00081C9
:1031A4001181112322F0009119030A3080F000E00C
:1031B40010E0EBE0FAE0008311830FE300931603C1
:1031C4000FE3009317030FE30093190315C0009155
:1031D40021064AE00E94C178005D00931603009125
:1031E40021064AE00E94C178405D40931703E4E160
:1031F400F3E00581005D05835091230642E031E050
:1032040023E006E213E019DC00917F0B033041F464
:103214005091240642E031E023E00FE213E00DDC9C
:103224000091290A043051F400916803043030F409
:1032340000E00093250600E0009326065091250641
:1032440042E031E023E008E313E0F7DB00917F0B79
:10325400033041F45091260642E031E023E001E4DA
:1032640013E0EBDB5091270642E031E023E00DE16F
:1032740013E0E3DB04E610E01A930A936091280656
:1032840070E042E031E024E002E013E047DC3091FA
:10329400280623E00EED12E0F6DC3091290620E04A
:1032A40000912A0610E0200F311FC901883E03E077
:1032B4009007D0F0803107E29007B0F448EE53E075
:1032C4008C010E94ED7800930E0340910E0350E0B0
:1032D40008EE13E00E94DF78801B910BEBE0F3E033
:1032E4000381005D038303C000E300930E0308EE33
:1032F40013E01A930A93BC0143E031E025E00BE0AC
:1033040013E00CDC3091290623E007EE12E0BBDC6D
:1033140030912A0625E007EE12E0B5DC01E00093C7
:10332400FE0901E00093010A8991999108950E9490
:10333400B879802F082FECEFF0E0FBBFF5E10C9497
:103344006779E6E4FDE025913491319700911C06FC
:1033540010E02017310720F402E000938A041DC313
:1033640000911C0600938A0418C300911C0610E007
:10337400EAE4FDE02591349131970217130758F0E0
:10338400ECE4FDE025913491319700911C0610E0A6
:103394002017310738F40FE300938B040FE30093F5
:1033A4008C04FBC200911C064AE00E94C178005DB7
:1033B40000938B0400911C064AE00E94C178405D92
:1033C40040938C04EAC2E0E4FDE025913491319706
:1033D40000911C0610E02017310760F4E0E4FDE0E2
:1033E40005911491319703950093AC040FEF00936A
:1033F400C30AD3C200911C060093AC040091AC0430
:103404001091C30A011709F4C8C20091AC040093D7
:10341400C30A0E94D43C0E94023F0E94AE3F0E9415
:1034240043420E94AF420091050A0A3021F0009104
:10343400050A003179F40091C40A0A9500932D0B12
:1034440000912D0B10912C0B011720F400912D0BE2
:1034540000932C0B0091050A073021F00091050A16
:103464000D3079F400912F0A0A9500932D0B0091E9
:103474002D0B10912C0B011720F400912D0B0093B0
:103484002C0B0091050A063109F087C20091590AF4
:10349400035000932D0B00912D0B10912C0B011751
:1034A40008F07BC200912D0B00932C0B76C2009187
:1034B4001C064AE00E94C178405D40939304009149
:1034C4001C064AE00E94C17800931C0600911C0669
:1034D4004AE00E94C178405D4093920400911C062A
:1034E4004AE00E94C178005D0093910456C20091A5
:1034F4001C06A02FB0E0ECE8FDE005911491319793
:10350400A017B10748F0EEE8FDE00591149131975A
:10351400B0E00A171B0738F4EEE8FDE005911491BA
:1035240031970395A02FA093ED0A00911D06A02FBB
:10353400B0E0E2E9FDE0059114913197A017B107DD
:1035440048F0E4E9FDE0059114913197B0E00A17E1
:103554001B0738F4E4E9FDE00591149131970395D4
:10356400A02FA093EE0A00911E06A02FB0E0E8E978
:10357400FDE0059114913197A017B10748F0EAE9ED
:10358400FDE0059114913197B0E00A171B0750F440
:103594000FE30093EF0A0FE30093F00A0FE30093A5
:1035A400F10A1AC04AE00A2F0E94C178405D409394
:1035B400F10A4AE00A2F0E94C178A02F4AE00A2F9C
:1035C4000E94C178405D4093F00A4AE00A2F0E94AD
:1035D400C178005D0093EF0A00911F06A02F4AE016
:1035E4000A2F0E94C178405D4093FB0A4AE00A2FEB
:1035F4000E94C178A02F4AE00A2F0E94C178405D42
:103604004093FA0A4AE00A2F0E94C178005D0093B1
:10361400F90A00912006A02FB0E0E4EAFDE005914C
:1036240014913197A017B10748F0E6EAFDE005913F
:1036340014913197B0E00A171B0738F40FE3009395
:10364400030B0FE30093040B0EC04AE00A2F0E9401
:10365400C178005D0093030B4AE00A2F0E94C178F1
:10366400405D4093040B00912106A02FB0E0EAEAEC
:10367400FDE0059114913197A017B10748F0ECEAE9
:10368400FDE0059114913197B0E00A171B0738F457
:10369400ECEAFDE00591149131970395A02FA093D6
:1036A4000D0B7BC130911C0620E000911D0610E03B
:1036B400200F311FECEBF4E02083318300E0009312
:1036C4001C06ECEBF4E000811181E2E6FDE02591BB
:1036D400349131970217130720F401E000931C067C
:1036E4000FC0E4E6FDE0059114913197ECEBF4E0B2
:1036F400208131810217130718F401E000931C069E
:1037040000911C060023F9F00FE300939B040FE3E0
:1037140000939C040FE300939D0400E200939E0435
:103724000AEE00939F0403EC0093A00406EF0093B9
:10373400A1040FE30093CC020FE30093CD020FE347
:103744000093CE0278C0ECEBF4E0008111810436E2
:1037540020E0120730F54AE050E0ECEBF4E00081A1
:1037640011810E94ED78005D00939B044AE050E0D3
:10377400ECEBF4E0008111810E94ED78405D409310
:103784009C0400E200939D040AEE00939E0403EC63
:1037940000939F0406EF0093A00400E20093A104A9
:1037A4003EC044E650E0ECEBF4E0008111810E945D
:1037B400ED78005D00939B04E0919B04F0E0F097AA
:1037C40044E650E08F010E94DF78ECEBF4E02081C6
:1037D4003181201B310B208331834AE050E0ECEB34
:1037E400F4E0008111810E94ED78005D00939C0457
:1037F4004AE050E0ECEBF4E0008111810E94ED78A6
:10380400405D40939D0400E200939E040AEE009301
:103814009F0403EC0093A00406EF0093A10400911D
:103824009B040093CC0200919C040093CD02009170
:103834009D040093CE0201E00093FD09AEC0009107
:103844001C0610E0E8E6FDE025913491319702175B
:10385400130758F0EAE6FDE0259134913197009181
:103864001C0610E02017310738F40FE30093A3047B
:103874000FE30093D30209C000911C06005D00937E
:10388400A3040091A3040093D30201E00093FD0973
:1038940084C0E6E7FDE025913491319700911C0640
:1038A40010E02017310738F40FE30093A5040FE369
:1038B4000093A60410C000911C064AE00E94C1783F
:1038C400005D0093A50400911C064AE00E94C178A3
:1038D400405D4093A604ECE7FDE0259134913197D7
:1038E40000911D0610E02017310738F40FE3009310
:1038F40001040FE30093020413C000911D064AE083
:103904000E94C178005D0093010400911D0620917E
:10391400010420531AE0219F0019005D0093020462
:1039240000917F0B0330C9F5E6E7FDE02591349162
:10393400319700911E0610E02017310738F40FE389
:10394400009307040FE30093080427C000911E06A8
:103954004AE00E94C178005D0093070400911E06AE
:103964002091070420531AE0219F0019005D009361
:10397400080413C0E0E7FDE02591349131970091EC
:103984001C0610E02017310720F402E00093AB047A
:1039940004C000911C060093AB0401E00093010AEB
:1039A40001E00093FC09E4E00C94C97920E001E013
:1039B4000093010A01E00093FC090FE010E040913C
:1039C4001A0642954F7050E0041B150B40915F0B93
:1039D40050E0FA01E25AF44F428150E0041715070F
:1039E40009F421E000911A060F700130D9F4222362
:1039F400C9F000911D06002359F000E011E0EEE546
:103A0400FBE00783108700911C060093670B0AC034
:103A140000911C0610E0EEE5FBE00783108700E050
:103A24000093670B00911A060F700230E1F4222311
:103A340079F000E00031B8F410E0F801E85EF94FE5
:103A4400348110E0F801E25AF44F32870395F2CF43
:103A540000E0003140F430E010E0F801E25AF44FA5
:103A640032870395F6CF08950E94B879A02F00E01D
:103A74000093750300E00093760300E0009377035E
:103A840000E00093780380E00091CF0B801708F0EA
:103A940090C0482F50E00AE010E00E94DF78F8015F
:103AA400E955F44F0081015039F00A9529F00A953F
:103AB40039F00A9529F007C000911C06902F03C025
:103AC40000912106902F482F50E00AE010E00E9458
:103AD400DF78F801E955F44F0081015039F00A9577
:103AE400E9F10A9519F00A95C9F161C0092F0F701F
:103AF400013040F190FB66F4B1E0482F50E00AE059
:103B040010E00E94DF78F801E955F44FB1834FC00B
:103B140091FB66F4B2E0482F50E00AE010E00E9406
:103B2400DF78F801E955F44FB18341C0B3E0482F81
:103B340050E00AE010E00E94DF78F801E955F44F04
:103B4400B18335C0B0E0482F50E00AE010E00E9495
:103B5400DF78F801E955F44FB18329C0092F007FBC
:103B64000023D1F094FB66F4B1E0482F50E00AE062
:103B740010E00E94DF78F801E955F44FB18317C0D3
:103B8400B2E0482F50E00AE010E00E94DF78F8012C
:103B9400E955F44FB1830BC0B0E0482F50E00AE080
:103BA40010E00E94DF78F801E955F44FB183839562
:103BB4006BCF20E024308CF430911C06422F01E0BE
:103BC40010E00E94E7783023332329F0022F039575
:103BD4000093750302C02395EDCFE8E1F6E004817C
:103BE40004FF03C001E00093760300917A0B0130D7
:103BF400A8F000911D06002389F003E000937503EB
:103C0400E5E7F3E000810395008300911D06069526
:103C140000931D0600911D06002391F700917A0B75
:103C24000930A8F000911E06002389F00BE00093F0
:103C34007503E5E7F3E000810395008300911E0618
:103C4400069500931E0600911E06002391F700912D
:103C54007A0B0131A8F000911F06002389F003E1DB
:103C640000937503E5E7F3E0008103950083009179
:103C74001F06069500931F0600911F06002391F767
:103C840000917A0B0931A8F000912006002389F0F5
:103C94000BE100937503E5E7F3E0008103950083EE
:103CA400009120060695009320060091200600232B
:103CB40091F700917F0B033009F085C000917C0BD4
:103CC400002309F480C020E024308CF430912106D4
:103CD400422F01E010E00E94E7783023332329F0DB
:103CE400022F03950093770302C02395EDCFE8E1FB
:103CF400F6E0018504FF03C001E00093780300911E
:103D04007C0B0130A8F000912206002389F003E027
:103D140000937703E7E7F3E00081039500830091C4
:103D2400220606950093220600912206002391F7AD
:103D340000917C0B0930A8F000912306002389F040
:103D44000BE000937703E7E7F3E00081039500833A
:103D54000091230606950093230600912306002371
:103D640091F700917C0B0131A8F000912406002307
:103D740089F003E100937703E7E7F3E0008103951B
:103D840000830091240606950093240600912406DE
:103D9400002391F700917C0B0931A8F000912506CE
:103DA400002389F00BE100937703E7E7F3E0008158
:103DB400039500830091250606950093250600913E
:103DC4002506002391F701E00093010A01E0009326
:103DD400FC09E4E00C94C9798A9300E000935E0B3B
:103DE40000E00093600B81E000911C06002339F48D
:103DF40000E00093780B00E00093610317C000918A
:103E04001C06013091F401E00093780B01E000936B
:103E1400630320915E0B239520935E0B03E030E057
:103E2400F901E25AF44F028301C080E000911D06BB
:103E3400093070F400911D06033051F010911D06F5
:103E440004E0109F00927B0B01E00093630301C028
:103E540080E000911E06093058F400911E060330DC
:103E640039F010911E0604E0109F00927C0B01C0F3
:103E740080E000911F06093058F400911F060330BA
:103E840039F010911F0604E0109F00927A0B01C0D4
:103E940080E000912006023059F402E000937F0B89
:103EA40000E000937C0B00917B0B0093790B3DC0E9
:103EB400009120060330C1F503E000937F0B0091CD
:103EC4007C0B002321F40091780B002319F001E00E
:103ED400009364030091780B002379F000917B0B2D
:103EE400002359F000917C0B002339F000917A0BE8
:103EF400002319F001E00093840B00917B0B1091D7
:103F04007C0B010F0093790B00917C0B002369F06B
:103F140020915E0B239520935E0B04E030E0F901C1
:103F2400E25AF44F028301C080E00091790B002330
:103F340059F020915E0B239520935E0B02E030E054
:103F4400F901E25AF44F028300917A0B002359F0ED
:103F540020915E0B239520935E0B01E030E0F90184
:103F6400E25AF44F028300912106013021F401E06A
:103F740000937E0B09C000912106023021F402E077
:103F840000937E0B01C080E000917E0B013021F490
:103F940004E00093000A03C003E00093000A309198
:103FA400220620E00091230610E0200F311FEAEAE8
:103FB400F2E0228333833091240620E00091250629
:103FC40010E0200F311FEAEAF2E0248335830091E8
:103FD4007E0B023021F401E00093A50B13C0009185
:103FE4007F0B023021F402E00093A50B0BC000917B
:103FF4007F0B033021F404E00093A50B03C000E021
:104004000093A50B00E00093900B0091780B002324
:1040140089F00CE015E02091900B30E0220F331F63
:10402400F901EF56F44F00831183E0E9FBE00081CE
:104034000395008300917F0B0230B1F40091790B5A
:104044000130E0F104E115E02091900B30E0220F03
:10405400331FF901EF56F44F00831183E0E9FBE0CD
:104064000081039500832AC000917B0B013088F006
:1040740001E315E02091900B30E0220F331FF9018A
:10408400EF56F44F00831183E0E9FBE000810395D0
:10409400008300917C0B013088F00DE315E0209142
:1040A400900B30E0220F331FF901EF56F44F0083D9
:1040B4001183E0E9FBE000810395008300917A0B12
:1040C400013088F00EE115E02091900B30E0220FD2
:1040D400331FF901EF56F44F00831183E0E9FBE04D
:1040E4000081039500830AE215E02091900B30E0F3
:1040F400220F331FF901EF56F44F00831183E0E9D7
:10410400FBE00081039500830FEF0093C30A0E9434
:10411400D43C0E94023F0E94AE3F0E9443420E9450
:10412400AF428093800B899108959A938A93802F4C
:10413400282F2A9508E116E00E946A0C10E0EAEBA9
:10414400F4E000831183EAEBF4E02081318190E014
:10415400FC01E95EF94F008110E02017310719F0E6
:10416400549A579A9FC00091A806023009F500E0BE
:104174000093C0040091C0040817A0F40091C00487
:1041840010E0F801E85EF94F20810091C00410E0CE
:10419400F801E15FFA4F2083E0ECF4E0008103953D
:1041A4000083E8CF03E00093A8068093A9067AC0B1
:1041B4000091A806002309F075C048E156E020915B
:1041C4001A0630E0E1EDFBE0008111810E944729ED
:1041D40000911A0610E0007F1070005039F0005171
:1041E40051F0005169F0005181F044C000911A0669
:1041F4000E94C60C55C000911A060E94EE0F50C0D2
:1042040000911A060E9422114BC000911A06005315
:1042140069F00A9571F00A9579F00A9581F00A958A
:10422400C1F00A50E9F00A95F9F020C00E94261264
:1042340037C00E94A21234C00E94571331C00091AB
:104244007E0B013019F40E9469162AC00E945C1882
:1042540027C000917E0B013019F50E947B1820C005
:1042640000911C0601DC1CC0B7DD1AC000911A06BF
:104274005ED816C000911A06015C79F00A9579F0AF
:104284000F5059F00A9559F00F5039F00A9539F04A
:104294000F5019F00A9519F003C088DB01C086DBC2
:1042A400549A579A0E94642800E00093AA068991C0
:1042B40099910895792F282E0801622F8FEF1FEF0F
:1042C40040E04617C0F450E0F001E40FF51F008110
:1042D400382F3027232F30E0F901E457FF4F0491A2
:1042E400312F3027832F30E0F901E457FE4F04913A
:1042F400102F4395E6CF00E090E0082B192B822D78
:10430400972F0895B80100E01091240A105019F075
:104314001A9561F0089542E0421798F450E0FB01C9
:10432400E40FF51F1081010F4395F6CF40E04217CB
:1043340040F450E0FB01E40FF51F1081010F439599
:10434400F6CF08959A938A93902F812FEEECF4E0A0
:104354000081006100839093110501E00093120530
:104364008093130525E00FE015E0CCDF10E0E1ECCD
:10437400F4E000831183E1ECF4E000811181009307
:10438400140506E00E9424298991999108959A932D
:104394008A93902F812FEEECF4E00081006100837A
:1043A4000091240A005019F00A95F9F049C090933D
:1043B400110580931205282F2C5F0FE015E0A2DF72
:1043C40010E0E1ECF4E000831183E1ECF4E000811F
:1043D4001181202F082F10E0F801E15FFA4F2483A8
:1043E400082F0B5F0E9424292BC00091A802009380
:1043F4000F0590931005282F2D5F0FE015E05ADF6D
:10440400E1ECF4E000831183E1ECF4E0008111813C
:10441400202F082F10E0F801E15FFA4F2383E1EC2D
:10442400F4E000811181012F10E0202F082F10E00B
:10443400F801E15FFA4F2483082F0B5F0E942429BF
:104444008991999108958A93802FEEECF4E000818C
:10445400006100838093110502E00093120526E0B9
:104464000FE015E04FDF10E0E1ECF4E0008311838E
:10447400E1ECF4E0008111810093150507E00E944E
:104484002429899108958A93802FEEECF4E0008129
:10449400006100830091A80200930F050091D004ED
:1044A4000068009310058093110523E00FE015E0E8
:1044B40029DF10E0E1ECF4E000831183E1ECF4E0A7
:1044C4000081118100931205E1ECF4E00081118177
:1044D400012F10E00093130505E00E94242989911F
:1044E40008950E94B879802F0E94312900FB4EF470
:1044F40000E00093130500E00093140501EEA3DF30
:10450400D2C30091240A005021F00A9509F44CC149
:10451400C0C30091CF04053509F03BC10091D0041C
:104524000A3A09F036C10091D20410E0E82FF0E015
:1045340035970E171F0759F00091D2040093130505
:10454400082F05500093140503EE7DDFACC3282F1C
:104554002A950FEC14E0D6DE10E0E1ECF4E00083E1
:104564001183E1ECF4E02081318190E0FC01E2531D
:10457400FB4F008110E02017310781F090E0FC012F
:10458400E253FB4F008100931305E1ECF4E000815A
:1045940011810093140502EE56DF85C30091D10406
:1045A400043729F00091D104033709F0C6C0009103
:1045B400D1040437B1F540914D0B50E008EE13E0FF
:1045C4000E94DF78D80140914E0B50E004E610E0E1
:1045D4000E94DF78A00FB11F40914F0B50E00AE01A
:1045E40010E00E94DF78A00FB11F0091500B10E083
:1045F400A00FB11FA055B04DE6ECF4E0A083B18349
:10460400E6ECF4E000811181012F10E00093130522
:10461400E6ECF4E0008111810093140512E002E756
:10462400B6DE0091D104033709F079C03091D30488
:1046340020E00091D40410E0200F311FE6ECF4E0F8
:104644002083318348EE53E0E6ECF4E000811181ED
:104654000E94ED78005D00934D0BE0914D0BF0E06E
:10466400F09748EE53E08F010E94DF78E6ECF4E027
:1046740020813181201B310B2083318344E650E0BB
:10468400E6ECF4E0008111810E94ED78005D009376
:104694004E0BE0914E0BF0E0F09744E650E08F01B2
:1046A4000E94DF78E6ECF4E020813181201B310B9D
:1046B400208331834AE050E0E6ECF4E0008111818C
:1046C4000E94ED78005D00934F0BE0914F0BF0E0FA
:1046D400F0974AE050E08F010E94DF78E6ECF4E0C6
:1046E40020813181201B310B20833183E6ECF4E0FF
:1046F40000811181005D0093500B10E003E747DE59
:1047040001E000939E0600E010E0E4EAF6E0008396
:1047140011830DE41BE0E0EAF6E0008311830FE06F
:104724000093A90200919A00006100939A000091FD
:104734009A00006800939A00B6C200E00093C50492
:104744000091C5040817E0F40091C50410E0F801D5
:10475400E153FB4F20810091C50410E0F801E85AB1
:10476400F94F208300E02091C50430E0F901E153C2
:10477400FB4F0083E5ECF4E0008103950083E0CF78
:104784008093A90601E00093A8060FE00093A90214
:104794008AC200919A00006100939A0000919A00E5
:1047A400006800939A007FC20091CF041091A80280
:1047B400011709F063C2282F22500FEC14E07ADDB0
:1047C400E1ECF4E00083118390E0FC01E353FB4F40
:1047D400208130E090E0FC01E253FB4F108100E0C7
:1047E400200F311FE3ECF4E020833183E1ECF4E0AB
:1047F40000811181E3ECF4E0208131810217130779
:1048040091F0E1ECF4E00081118100931105E1ECF9
:10481400F4E000811181012F10E00093120511E0F2
:104824000FEFB5DD30C23091D10420E00091D20405
:1048340010E0200F311FE9ECF4E020833183009174
:10484400D4040093C8040091D004035021F0035011
:1048540009F4E0C110C20091C804013420F40091AD
:10486400C804002319F403E00EDE0DC2E9ECF4E001
:10487400008111810A3F20E0120740F0E9ECF4E0E6
:1048840000811181003024E01207A8F0E9ECF4E083
:10489400208131810091C80410E0200F311F2B3F8B
:1048A40000E0300758F0E9ECF4E0008111810030B9
:1048B40024E0120718F402E0E6DDE5C11091C80413
:1048C40002E0109F00921105E9ECF4E000811181EF
:1048D4000A3F20E0120778F500E00093C504009138
:1048E400C5041091C8040117F0F4E9ECF4E0608108
:1048F40071810091C50410E0600F711F1091C5040F
:1049040002E0109F03E0000E402D2FE035E0E1EDC2
:10491400FBE0008111810E949A29E5ECF4E000811A
:1049240003950083DCCF1091C80402E0109F102D82
:1049340003E02DDDA8C1E9ECF4E000811181003031
:1049440024E0120708F44FC0E9ECF4E0008111817F
:10495400003022E2120708F046C001E000935C0B2D
:1049640020E030E0E1EDFBE0008111810E948F2C1A
:104974004FE00091C8040E94C17800935B0B009142
:104984005B0B002329F4EBE5FBE000810395008336
:10499400AFE0B0E0E9ECF4E0008111810050144094
:1049A4004FE050E00E94ED78A41BB50B0091C804C1
:1049B40010E0A017B10728F4EBE5FBE000810395B4
:1049C4000083E9ECF4E000811181005014404FE0D1
:1049D40050E00E94ED78EBECF4E00083118302EFE9
:1049E40000935D0B50C1E9ECF4E0008111810030CB
:1049F40024E2120708F454C0E9ECF4E000811181C8
:104A0400003022E4120708F04BC001E000935C0B75
:104A140020E030E0E1EDFBE0008111810E948F2C69
:104A24004FE00091C8040E94C17800935B0B009191
:104A34005B0B002329F4EBE5FBE000810395008385
:104A4400E9ECF4E000811181005014424FE050E0A1
:104A54000E94ED784093CD040FE010E02091CD0446
:104A640030E0021B130B2091C80430E00217130737
:104A74002CF4EBE5FBE0008103950083E9ECF4E022
:104A840000811181005014424FE050E00E94ED7803
:104A9400EBECF4E00083118302EC00935D0BF3C0B4
:104AA400E9ECF4E000811181003024E4120708F4F9
:104AB40054C0E9ECF4E000811181003022E61207D1
:104AC40008F04BC001E000935C0B20E030E0E1ED26
:104AD400FBE0008111810E948F2C4FE00091C804FB
:104AE4000E94C17800935B0B00915B0B002329F4B7
:104AF400EBE5FBE0008103950083E9ECF4E0008141
:104B04001181005014444FE050E00E94ED7840932E
:104B1400CD040FE010E02091CD0430E0021B130B14
:104B24002091C80430E0021713072CF4EBE5FBE0F6
:104B3400008103950083E9ECF4E0008111810050C9
:104B440014444FE050E00E94ED78EBECF4E0008375
:104B5400118302ED00935D0B96C0E9ECF4E0008153
:104B64001181003024E6120708F48DC0E9ECF4E06A
:104B740000811181003022E8120708F084C001E0AE
:104B840000935C0B20E030E0E1EDFBE0008111815B
:104B94000E948F2C4FE00091C8040E94C1780093BA
:104BA4005B0B00915B0B002329F4EBE5FBE0008138
:104BB40003950083E9ECF4E0008111810050144670
:104BC4004FE050E00E94ED784093CD040FE010E0F8
:104BD4002091CD0430E0021B130B2091C80430E077
:104BE400021713072CF4EBE5FBE000810395008327
:104BF400E9ECF4E000811181005014464FE050E0EC
:104C04000E94ED78EBECF4E00083118302EE009354
:104C14005D0B39C05091D30440E00091D40410E0FE
:104C2400400F511FE9ECF4E020813181E1EDFBE01C
:104C3400008111810E94E52900E00093C5040091E0
:104C4400C5040630A0F40091C50410E0F801E15356
:104C5400FB4F20810091C50410E0F801E15FFA4F99
:104C64002083E5ECF4E0008103950083E8CF13E0B2
:104C740006E08DDB08C001E006DC05C000919A0067
:104C8400006100939A0000919A00006800939A00D2
:104C94000AC000919A00006100939A0000919A0062
:104CA400006800939A000E944329E4E00C94C979B7
:104CB4000FEC09B91098119A1898199A0EE00093FC
:104CC400950008E10AB9549A579A06B70D7F06BFB2
:104CD40007B7016007BF05E002BF04E003BF05E5B5
:104CE400009358060AEA0093590605E5009318064E
:104CF4000AEA009319060895FA93EA935A934A9399
:104D04003A932A931A930A934FB75BB71CB1012FB6
:104D14005C9953C010919A06105039F01A9561F0BD
:104D24001A95A1F01A95C1F028C0053509F045C0BF
:104D340011E010939A0641C00A3A21F412E010934C
:104D44009A063BC010E010939A0637C000931A06E7
:104D540013E010939A0631C000931B060C3320F025
:104D640010E010939A0603C014E010939A06109171
:104D74009A06100F10939B0620C020919A0630E0EB
:104D8400F901E85EF94F008310919A0620919B0681
:104D9400121770F011E01093AA0610E010939A060F
:104DA4005498579810919B0613951093AB0605C021
:104DB400EAE9F6E01081139510835BBF4FBF0991B8
:104DC40019912991399149915991E991F99118953C
:104DD400FA93EA933A932A931A930A932FB73BB719
:104DE4000091980610919906011784F40091980691
:104DF400102F110F110BF801E85AF94F00810CB96B
:104E0400E8E9F6E00081039500830FC053985598B4
:104E140000E00093990600E000939806549A579A8C
:104E2400E7E1F6E000810F7E00833BBF2FBF0991CD
:104E3400199129913991E991F9911895BA93AA9305
:104E44009A938A93FA93EA933A922A921A920A923A
:104E54007A936A935A934A933A932A931A930A93A6
:104E64008FB79BB72197A89505E002BF0091000773
:104E7400003F09F045C00091A806002309F040C096
:104E84000E947E37009314060091140610911306B5
:104E9400011721F000911406003FD1F4E5E1F6E09A
:104EA400008111810F5F1F4F00831183E5E1F6E05C
:104EB40000811181013921E0120784F000E911E039
:104EC400E5E1F6E00083118300EF0093130606C0CA
:104ED40000E010E0E5E1F6E00083118300911406A0
:104EE40010911306011761F000911406003F41F080
:104EF4000091140600930007009114060093130612
:104F040000911106053078F100911206013029F064
:104F1400EEECF4E0008100FF22C000919A000F7EC5
:104F240000939A0000919A000F7700939A00EEEC98
:104F3400F4E000810860008300910E060E94732251
:104F440000E00093120600E000930E0600919C001E
:104F54000883EEECF4E000810F7E008309C00EE1CB
:104F64000093110605C0E1E1F6E00081039500839A
:104F7400E1993AC000919E060130B1F5F894E4EA53
:104F8400F6E0008111811FBB0EBB00919C0610E06E
:104F9400E0EAF6E0A081B181A00FB11F0C910DBB36
:104FA400E29AE19A7894ECE9F6E0008103950083B3
:104FB400E4EAF6E0008111810F5F1F4F0083118343
:104FC40000919C0610E0A0EAB6E0ED91FC911197E7
:104FD400E00FF11F31970081002331F400E00093CA
:104FE4009E0600E000939C06E19951C000919F0643
:104FF400013009F04CC0E6EAF6E0008111811FBBE4
:105004000EBBE09A2DB300919D0610E0E2EAF6E0B3
:10501400A081B181A00FB11F2C9300919D0610E0D7
:10502400A2EAB6E0ED91FC911197E00FF11F008127
:105034000F3F61F400E020919D0630E0A2EAB6E063
:10504400ED91FC911197E20FF31F0083E6EAF6E07D
:10505400008111810F5F1F4F00831183EDE9F6E09A
:1050640000810395008300919D0610E0A2EAB6E05A
:10507400ED91FC911197E00FF11F3197008100230E
:1050840031F400E000939F0600E000939D06219612
:105094009BBF8FBF099119912991399149915991D8
:1050A400699179910990199029903990E991F99130
:1050B40089919991A991B991189500939906539A58
:1050C400559A089500E000931706089503E30093AA
:1050D40099008A988B9A9298939A0EE000939D0077
:1050E40008E100939A0000919A00006100939A00ED
:1050F40000919A00006800939A0005E500930F055B
:105104000AEA009310050895FA93EA934A933A93AE
:105114002A931A930A933FB74BB700919C00202F10
:1051240000919B00102F14FF05C0EEECF4E0008109
:105134000160008300911206002391F4009111068E
:105144000E3170F001E00093120600E000930E06A9
:1051540000E000931106EEECF4E0008100610083AE
:10516400009112060130E9F4009111060E31C8F4E1
:1051740000910E06003430F0EEECF4E000810160A2
:1051840000830CC000910E0610E0F801E153FB4FC0
:105194002083EEE0F6E000810395008300E00093B5
:1051A40011064BBF3FBF099119912991399149913A
:1051B400E991F9911895FA93EA933A932A931A93F9
:1051C4000A932FB73BB700910F06109110060117F1
:1051D4008CF400910F06102F110F110BF801E15FF1
:1051E400FA4F008100939C00EFE0F6E00081039504
:1051F40000831FC000919A00077F00939A000091DA
:105204009A000F7D00939A0000E00093100600E0DE
:1052140000930F0600919A00006100939A00009198
:105224009A00006800939A00EEECF4E000810F7E8F
:1052340000833BBF2FBF0991199129913991E991BD
:10524400F99118950093100610919A001860109324
:105254009A0010919A00106210939A000895109188
:10526400CE04012F10919A00212F27FF02C0026063
:1052740011E010919A00212F25FF02C0046011E073
:10528400089500E00093CE0408950E94B679C80101
:10529400D9012A018D01E4E1F0E0FBBFF6E10C94B1
:1052A4006B79A2019D018C013CD33FC0A2019D01F9
:1052B4008C019BD33AC0A2019D018C0134D435C02A
:1052C40092018C01ADD431C092018C01CCD42DC09B
:1052D40092018C01F7D429C092018C017ED525C09E
:1052E400A2019D018C01F4D620C045EB50E092014F
:1052F4008C010E94DD3019C046EB50E092018C0114
:105304000E94DD3012C047EB50E092018C010E94F4
:10531400DD300BC044EB50E092018C010E94DD3083
:1053240004C092018C010E94F330E6E00C94C7792A
:105334000E94B479D8013901442ECB01863100E0B2
:10534400900721F42DE43BE08D01B7D2803001E0D9
:10535400900718F5FD01218132818C01000F111F86
:10536400200F311FF90100811181012F10E0552414
:10537400F301E40DF51D0083FD01218132818C01CF
:10538400000F111F200F311FF901008111815524D5
:10539400F301E40DF51D01830CC00FEF5524F30157
:1053A400E40DF51D00830FEF5524F301E40DF51D05
:1053B4000183E8E00C94C579222311F0F8012383DA
:1053C400F8010381089562E0F8016383F8012483FE
:1053D4003583F801468357830895F801122F11503D
:1053E40019F01A9521F006C01085012F0895118532
:1053F400012F08950FEF08950E94B779D801C901CC
:10540400FD0104811581005110400650104008F43C
:1054140070C00050104009F4C2C00A51104009F491
:10542400F2C00350104009F4EEC00350104009F4D8
:10543400EAC00A51104008F43DC20750104008F475
:10544400FCC00950104009F407C10150104009F490
:1054540003C10150104008F44BC00450104008F43C
:105464000AC10050104008F443C00450104008F42E
:1054740014C100501040E0F10052104008F41FC164
:1054840006501040A8F10350104008F42AC10050FF
:10549400104070F10450104008F432C10050104024
:1054A40038F10450104008F43DC10550104000F19B
:1054B4000550104008F448C10050104009F453C18D
:1054C4000150104009F465C10150104009F470C145
:1054D4000D50104009F478C10150104009F492C1F4
:1054E4000150104009F4ACC10150104009F4C5C189
:1054F400E1C100E00C930C91063078F5FD010181C7
:1055040012812C9130E0220F331F020F131FF80178
:1055140000A111A14AE050E00E94ED78402E42948F
:1055240000EF4022FD01018112812C9130E0220F15
:10553400331F020F131FF80100A111A14AE050E02C
:105544000E94ED78440E0C9110E0FC01E00FF11F75
:1055540044820C9103950C93CECFFD0106811781F3
:105564004AE050E00E94ED78402E429400EF402241
:10557400FD01068117814AE050E00E94ED78440E57
:10558400FD0104811581FC01E00FF11F3C9740826D
:1055940002EBFD01008706E0FD0101878BC1FD01DF
:1055A40006811781012F10E006950695069506954C
:1055B400005D00934D0BFD0106811781012F10E062
:1055C4000F70005D00934E0BFD010681178102955B
:1055D4000F70005D00934F0BFD01068117810F7062
:1055E400005D0093500B01E000939E0600E010E084
:1055F400E4EAF6E0008311830DE41BE0E0EAF6E060
:105604000083118357C1FD0106811781023020E018
:10561400120731F401E7FD01008700E0FD01018775
:10562400FD0106811781012B09F044C100E7FD014A
:10563400008700E0FD0101873DC1FD010481158162
:105644000F5CFD01008701E0FD010187FD0106817A
:105654001781FC0104832EC1FD01048115810F5CB7
:10566400FD01008701E0FD010187FD01068117812D
:10567400FC0104831FC104E9FD01008702E0FD0170
:105684000187FD01048115810156FC010483FD019C
:1056940006811781FC0105830DC105E9FD01008721
:1056A40002E0FD010187FD01048115810556FC011D
:1056B4000483FD0106811781FC010583FBC003E916
:1056C400FD01008702E0FD010187FD0104811581D0
:1056D4000956FC010483FD0106811781FC01058341
:1056E400E9C0FD01048115810F5EFD01008701E021
:1056F400FD010187FD0106811781FC010483DAC0E5
:1057040004EAFD01008702E0FD010187FD01048137
:1057140015810259FC010483FD0106811781FC01F6
:105724000583C8C005EAFD01008702E0FD01018789
:10573400FD01048115810659FC010483FD010681E4
:105744001781FC010583B6C0FD01048115810B5E40
:10575400FD01008701E0FD010187FD01068117813C
:10576400FC010483A7C0FD01048115810B5EFD01CA
:10577400008702E0FD010187FD0106811781012FE9
:1057840010E0FC010483FD0106811781FC010583FF
:1057940091C0FD01048115810B5EFD01008701E0CC
:1057A400FD010187FD0106811781FC01048382C08C
:1057B4000DEBFD01008701E0FD010187FD0106817C
:1057C4001781FC01048376C00AEFFD01008700E025
:1057D400FD01018700E00C930C91013808F06AC0C8
:1057E4000EEE1EEEFD01248535854C9150E0440FEC
:1057F400551F240F351FF901008311830C91039564
:105804000C93EACF0AECFD01008700E0FD0101875B
:1058140000E00C930C91013808F04CC00EEE1EEE23
:10582400FD01248535854C9150E0440F551F240F0C
:10583400351FF901008311830C9103950C93EACF72
:105844000AEDFD01008700E0FD01018700E00C93F3
:105854000C91013878F50EEE1EEEFD012485358598
:105864004C9150E0440F551F240F351FF90100835C
:1058740011830C9103950C93EBCF0AEEFD01008785
:1058840000E0FD01018700E00C930C91013890F4D5
:105894000EEE1EEEFD01248535854C9150E0440F3B
:1058A400551F240F351FF901008311830C910395B3
:1058B4000C93EBCFE5E00C94C8795B2F0A2EB8016A
:1058C400F901208130E0322F20E0330F330F330F02
:1058D400330F018110E000531040102F00E0200F1F
:1058E400311F028110E00053104044E00E94E77829
:1058F400200F311F038110E00F701070200F311F33
:10590400DB0111960D911C911297D8019C962D9351
:105914003C939D97A02DB52F0895F80126873787CE
:1059240008950E94B679C8012901DA018201ECE8E0
:10593400F0E0FBBFF6E10C946B79FD01248130E0CB
:10594400FC010181128100561F4FF801208331832D
:1059540049C0FD01248130E02F5F3F4FFC010181EC
:1059640012810E551F4FF801208331833BC0FD0186
:10597400248130E0FC01018112810C551F4FF80194
:10598400208331832FC0FD01248130E0FC0101819B
:1059940012810A551F4FF8012083318323C0FD0172
:1059A400248130E0FC010181128108551F4FF80168
:1059B4002083318317C0FD01248130E0FC01018183
:1059C400128106551F4FF801208331830BC0FD015E
:1059D400248130E0FC010181128104551F4FF8013C
:1059E40020833183E6E00C94C7790E94B679D8010C
:1059F4002901CA018201E2EAF0E0FBBFF6E10C945E
:105A04006B79FC01248130E0220F331FFD010181F9
:105A1400128100541F4FF8012083318381C0FC019F
:105A2400448150E00AE010E00E94DF78FD0121810A
:105A340032812E533F4FF9010083118371C000E07E
:105A44000C930C91FC011381011708F069C00C91AF
:105A540010E0FC01E00FF11F448150E00AE010E087
:105A64000E94DF78FD01218132814C9150E0440F86
:105A7400551F240F351F2C523F4FF901008311830A
:105A84000C9103950C93DDCF00E00C930C91FC0179
:105A94001381011708F044C00C9110E0FC01E00FE1
:105AA400F11F448150E0FD01018112812C9130E00D
:105AB400220F331F020F131F0C531F4FF801408393
:105AC40051830C9103950C93E1CF00E00C930C915E
:105AD400FC011381011720F50C9110E0FC01E00F8B
