:100000000C943D6A1895189518951895189518959B
:100010001895189518951895189518951895189578
:1000200018951895189518950C943C2B18951895BB
:1000300018951895189518950C94DA6818951895D0
:100040000C948B21189518950C94EB200C94552149
:100050001895189518951895189518951895189538
:100060001895189518951895189518951895189528
:1000700018951895189518950C94E9220C943F231F
:1000800018951895189518951895189500C18140E0
:1000900001C0804101C0804100C1814001C0804158
:1000A00000C1814000C1814001C0804101C0804148
:1000B00000C1814000C1814001C0804100C1814038
:1000C00001C0804101C0804100C1814001C0804128
:1000D00000C1814000C1814001C0804100C1814018
:1000E00001C0804101C0804100C1814000C1814008
:1000F00001C0804101C0804100C1814001C08041F8
:1001000000C1814000C1814001C0804101C08041E7
:1001100000C1814000C1814001C0804100C18140D7
:1001200001C0804101C0804100C1814000C18140C7
:1001300001C0804101C0804100C1814001C08041B7
:1001400000C1814000C1814001C0804100C18140A7
:1001500001C0804101C0804100C1814001C0804197
:1001600000C1814000C1814001C0804101C0804187
:1001700000C1814000C1814001C0804100C1814077
:1001800001C0804101C0804100C1814000C0C10167
:10019000C30302C2C60607C705C5C404CC0C0DCDF7
:1001A0000FCFCE0E0ACACB0BC90908C8D81819D967
:1001B0001BDBDA1A1EDEDF1FDD1D1CDC14D4D51597
:1001C000D71716D6D21213D311D1D010F03031F187
:1001D00033F3F23236F6F737F53534F43CFCFD3DB7
:1001E000FF3F3EFEFA3A3BFB39F9F83828E8E929A7
:1001F000EB2B2AEAEE2E2FEF2DEDEC2CE42425E557
:1002000027E7E62622E2E323E12120E0A06061A1C6
:1002100063A3A26266A6A767A56564A46CACAD6D76
:10022000AF6F6EAEAA6A6BAB69A9A86878B8B979E6
:10023000BB7B7ABABE7E7FBF7DBDBC7CB47475B516
:1002400077B7B67672B2B373B17170B05090915106
:100250009353529296565797559594549C5C5D9D36
:100260005F9F9E5E5A9A9B5B995958988848498926
:100270004B8B8A4A4E8E8F4F8D4D4C8C44848545D6
:10028000874746868242438341818040380C018003
:10029000020041A042A1E045A3A4A5A64BA74D485A
:1002A0004FA8504354A9AA58E1ABACE2ADAE62AF3F
:1002B000B0B161B2B3B4E365B6B7B8B9BABBBCBD4F
:1002C0006FBE7063BF79E478E5C0C1E6C2C3C4C540
:1002D000C6C75F00D1E2FFE7FC20F120CFCA002EA5
:1002E00000EEF8E8E12EC0CA2000E0E2F2EE2EC0F7
:1002F000CA2000E0E2F2EE2EC0CA2000F3F1EA2E9E
:10030000C0CA202000E2FBEAEB2EC0CA2000EFF0BA
:10031000EEE22EC0CA2000E8F1EFFBF22EC0CA00C8
:10032000EFF3F1EA20C0CA2000EDEEF0EC2EC0CAD7
:100330002000E1E5E3EB2EC0CA2000EEE4EDEEF193
:100340002EC0CA00E102EA02F302FC0205030E031A
:1003500017032003290332033B03EEF8E8E12E00E4
:10036000E0E2F2EE2000E0E2F2EE2000F3F1EA2E0D
:100370002000E2FBEAEB2E00EFF0EEE22E00E8F1C7
:10038000EFFBF200EFF3F1EA2000EDEEF0EC2E00CF
:10039000E1E5E3EB2E00EEE4EDEEF1005A0360033D
:1003A00066036C03720378037E0384038A0390035D
:1003B0009603C0CA2D00CDE5F220F1E2FFE7E82068
:1003C000F120C1D1CF2020202020002020C8EDE83E
:1003D000F6E8E0EBE8E7E0F6E8FF20202020200048
:1003E000312EC6F3F0EDE0EB2E00322EC4E0F2E049
:1003F0002FE2F0E5ECFF2E00332ED3EFF0E0E2EB3E
:10040000E5EDE8E52E00342ED3F1F2E0EDEEE2E882
:10041000F2FC2E00352ECFF0EEF1ECEEF2F020EFF4
:10042000E0F0E0EC2E00362ECFF0EEF2EEEAEEEB4E
:100430002E00E003EA03F803060414042604312E18
:1004400020C4E0F2E02E20202020202020202020A8
:10045000202000322E20C2F0E5ECFF2E20202020AC
:100460002020202020202000C6F3F0EDE0EB20002B
:10047000F1EEE1FBF2E8E900E7E0F9E8F2FB00EF7A
:10048000F0E8E5ECEDE8EAE000EFE5F0E5E4E0F2C5
:10049000F7E8EAE000CFCC00CFC400D1C100C7D953
:1004A00000312ED0E5E6E8EC2E00322ECFE0F0E071
:1004B000ECE5F2F0FB2E00332ECFE0F0EEEBFC2E5D
:1004C00000342ED2E5F1F22E00A104AA04B704C133
:1004D00004C7E0F9E8F2E02E00CFF0E8E5ECEDE843
:1004E000EA2E00CFE5F0E5E4E0F2F7E8EA2E00CEF0
:1004F000E1F9E8E52E00D104D904E304EF04D2E8E1
:10050000EF20C7E0F9E8F2FB00D2E8EF20CBE8EDFE
:10051000E8E800C4EEEF2E20E2F0E5ECFF20E1E594
:10052000E720ECE0ED2E00C7E0E4E5F0E6EAE020AD
:10053000EDE020EBE8EDE8E820202000CFE5F0E555
:10054000EAF0FBF2E8E520E8ECEFF3EBFCF1EEE299
:1005500000C7E0E3F020F7F3E2F1F2E2E8F220EF87
:10056000EE2020D0C700D1EDE8E6E5EDE8E520F388
:10057000F0EEE2EDFF20C0CA202000D7E0F1F2EE5D
:10058000F2E020CFD0C400D7E0F1F2EEF2E020CFCD
:10059000D0CC00FE040905130527053C055105666E
:1005A000057B058705C7E0E4E5F0E6EAE020EDE03D
:1005B00020E2EAEB2E2020202000C7E0E4E5F0E670
:1005C000EAE020EDE020E2FBEAEB2E2020EA00C189
:1005D000EBEEEA2E20EAEEECE0EDE4FB20203F2EED
:1005E0002E3F2000A505BA05CF05C4EBE8F2E5EBE8
:1005F000FCEDEEF1F2FC20EAEEECE0EDE4FB00C1F4
:10060000EBEEEA2E20EAEEECE0EDE4FB20203F2EBC
:100610002E3F2000C4EBE8F22E20EAEEECE0EDE401
:10062000FB20203F2E2E3F2000A505EA05FF0514E4
:1006300006D1EEE2ECE5F1F2E8ECEEF1F2FC00437B
:10064000E8EDF5F0EEEDE8E7E0F6E8FF20F7E0F1A1
:10065000EEE20055E2FBF520EDEEECE8EDE0EBFC20
:10066000EDEEE500D3E4E5F0E6E0EDE8E520F0E5C9
:10067000EBE520CFD0CC00D3E4E5F0E6E0EDE8E513
:1006800020F0E5EBE520CFD0C400D1E5F2E5E2EEC5
:10069000E920E0E4F0E5F100C2F0E5ECFF20EFE551
:1006A000F0E5E7E0EFF3F1EAE000D7E0F1F2EEF297
:1006B000E000CDEEECE5F020E0EFEFE0F0E0F2E07E
:1006C00000CAEEEDF2F0EEEBFC20E2FBF52EF1E8D5
:1006D000E3EDE0EBE000CFEEF0EEE320CFD0C5C4D9
:1006E000D3CFD020EFEE20CAD72000CFEEF0EEE33C
:1006F00020CFD0C5C4D3CFD020EFEE20D0C720006C
:10070000C7E0E3F020F7F3E2F1F2E2E8F220EFEEE7
:100710002020CAD700CAEEF0F0E5EAF6E8FF20EDA7
:10072000E0EFF0FFE6E5EDE8FF00CAEEF0F0E5EA05
:10073000F6E8FF20F2EEEAE000CFF0EEF2EEEAEEAD
:10074000EB20EEE1ECE5EDE000CFF0E8E7EDE0EAEC
:1007500020F7E5F2EDEEF1F2E800C4EEEFF3F1F28E
:10076000E8ECFBE520EFF0EEE2E0EBFB00CFEEF093
:10077000EEE320EFEE20EFEEECE5F5E500C4EEEF62
:10078000F3F1F2E8ECE0FF20EFEEECE5F5E000D26B
:10079000E8EF20E0E2F2EEEAEEEDF2F0EEEBFF0041
:1007A000D0E5E7E5F0E2E8F0EEE2E0EDE8E500D1E3
:1007B000EDE8E6E5EDE8E520EEF2E2E5F2E020C066
:1007C000CA20200031063F06530677068A0698069F
:1007D000AA06B206C106D606000715072A0739077A
:1007E00049075A076D077D078F07A007AF07640603
:1007F000EB06C0C2C0CDD220D034303000CFC2C74B
:100800002D393000C0C2C7CA2D383000CFC2C7D37F
:100810002DC500CFC2C7CB00EEF8E8E1EAE000F258
:1008200007FD0704080C0813081808C7C0D900CF33
:10083000D0CC00CFCC3100CFCC3200CFD0C400C25E
:10084000FBE2E5E42000C3EEF2EEE22000C2E2E5C6
:10085000E4E5ED00D0E5F7FC202000D2E5F1F22040
:100860003100D2E5F1F2203200D2E5F1F22033007E
:100870003F0846084D0854085B08620869083F3F76
:100880003F3F00CFF0EEF2EEEAEEEB00D1F2E0ED0A
:10089000E4E0F0F2004D6F64427573008C08950837
:1008A000C7C0D93A00CFD0CC3A00CFCC313A00CF34
:1008B000CC323A00CFD0C43A003F3F3F3F20202007
:1008C0002000CDE5E8F1EFF0202000CFF0E5E4F3E3
:1008D000EFF02000C2FBE2E5E4E5ED2000C3EEF21C
:1008E000EEE220202000C2E2E5E4E5ED202000D089
:1008F000E5F7FC2020202000D2E5F1F23120202075
:1009000000D2E5F1F23220202000D2E5F1F23320CE
:10091000202000D408DD08E608EF08F8080109D413
:1009200008E608D408F80801090A09D408E608F816
:100930000801090A09C8F1F5EEE4ED2E2000CAEE1F
:10094000EDF2F0EEEBFC00CFF3F1EA2020202000E6
:10095000D0E0E1EEF2E0202000CDE5E8F1EFF02E6E
:100960002000CF2EEDE5E8F1EFF000CEE6E8E4E080
:10097000EDE8E500CDE0EB2EEFF3F1EA00D3E42E55
:10098000EFF3F1EA2000CDE5F220D0C7202000D01F
:10099000E5F7FC2020202000D2E5F1F220202020E5
:1009A0000035093E0947095009590962096B097464
:1009B000097D0986098F099809C8F1F5EEE4ED2E45
:1009C0002000CFD0CC20CAD7202000CFD0CC20CF41
:1009D000C0202000CDE5F220CAD7202000CDE5E8D8
:1009E000F1EFF02E2000CF2EEDE5E8F1EFF000CE94
:1009F000E6E8E4E0EDE8E500C1CBCA20CACC20205F
:100A0000003F307830383F2020003F307830393F89
:100A10002020003F307830413F202000D2E5F1F225
:100A20002020202000B909C209CB09D409DD09E63C
:100A300009EF09F809010A0A0A130A1C0AC8F1F5A4
:100A4000EEE4ED2E2000CFD0C420CAD7202000CF66
:100A5000D0C420CFC0202000CDE5F220CAD720206E
:100A600000CDE5E8F1EFF02E2000CF2EEDE5E8F126
:100A7000EFF000CEE6E8E4E0EDE8E5003F30783066
:100A8000373F2020003F307830383F202000D1E829
:100A9000F1F2E5EC2E20003F307830413F2020007D
:100AA000D2E5F1F220202020003D0A460A4F0A58E4
:100AB0000A610A6A0A730A7C0A850A8E0A970AA0E2
:100AC0000A672D006C2D00C2E2EEE43A00CFE0F0A0
:100AD000EEEBFC3A00CDEEE2FBE920EFE0F0EEEBCE
:100AE000FC3A00C7EDE0F7E5EDE8E53A2000C4D4B4
:100AF000C72DCFF0CFE4202000C4D4C72DCFF0EC19
:100B0000CCCA3100C4D4C72DCFF0ECCCCA3200C45B
:100B1000D4C72D4C363020202000CDC72DCFF0CFAC
:100B2000E420202000CDC72DCFF0EC2DCCCA200032
:100B3000CFCFC72DCFF0CFE4202000CFCFC72DCF10
:100B4000F0EC2DCCCA00EEF8E8E1EAE0202020200D
:100B500000EE0AF90A040B0F0B1A0B250B300B3BA6
:100B60000B460BE2FBEAEB2E00E2EAEB2E003F3FE6
:100B70003F3F00630B690B6E0B3F3F3F3F00E1FBC4
:100B8000F1F2F0FBE900ECE5E4EBE5EDEDFBE9006B
:100B9000790B7E0B860B790B3F3F3F3F00E2EAEB80
:100BA0002E00E2FBEAEB2E00980B9D0BA20B980B9C
:100BB0003F3F3F20E3F0E0E4003F3F3F20F1E5EA24
:100BC000003F3F20E3F0E0E4003F3F3F3F00F2F012
:100BD000E5E2EEE6EDFBE900EDEEF0ECE0EBFCED3E
:100BE000FBE900F1EFEEEAEEE9EDFBE900C90BCE1F
:100BF0000BD80BE30BC90B2D35303020C3F6002D7D
:100C000032353020C3F6002B3020C3F6002B3235AE
:100C10003020C3F6002B35303020C3F600EEF8E864
:100C2000E1EAE000F70BFF0B070C0D0C150C1D0C97
:100C3000C4E8E0EFE0E7EEED3A2000EDE5F220E475
:100C4000E0EDEDFBF500F1EFE8F1EEEA0000070062
:100C50000101010203000101020063000101020021
:100C6000120001010200360001010200160001011C
:100C70000200010001010200040001010100040062
:100C8000010101000900010100000500010102004D
:100C900064000A010200FF000101000014000101CC
:100CA000020332000A010200FF0001010000FF0000
:100CB000010100000400010101000100010101081F
:100CC000320001010200010001010100FF000101E9
:100CD0000200050001010210E60301010201020009
:100CE00001010200010001010100160001010200E2
:100CF000160001010200096301010300E70301017D
:100D00000201020001010101020001010100B40021
:100D100001011400FF00010102125A000101020149
:100D200003000101010001000101010014000101A3
:100D300002000100010101302E302E2E39392E39EA
:100D400000CFF0EEF8E8E2EAE020502D55535020B5
:100D50002000CFF0EEF8E8E2EAE02041542D5553B0
:100D6000502000CFF0EEF8E8E2EAE0204453502DA6
:100D700055535000C4EEEFEEEBED2E20EFE0F0E027
:100D8000ECE5F2F0FB00C2E8E420EFE0F0E0ECE597
:100D9000F2F0E000410D520D630D740D860DC5F1AA
:100DA000F2FC00CDE5F200A30D9E0DF1F2E0EDE4C2
:100DB000E0F0F20048455800B40DAB0D2ED1E1F043
:100DC000EEF120F1E2EEE5E3EE2E202020202000DF
:100DD0002ED1E1F0EEF120F3E4E0EBE5EDEDEEE312
:100DE000EE2E20002ED1E1F0EEF120F3E4E0EBE571
:100DF000EDEDEEE3EE2031002ED1E1F0EEF120F347
:100E0000E4E0EBE5EDEDEEE3EE2032002ECFF3F182
:100E1000EA20F3E4E0EBE5EDEDEEE3EE2E2020003A
:100E20002ECFF3F1EA20F3E4E0EBE5EDEDEEE3EEB7
:100E3000203120002ECFF3F1EA20F3E4E0EBE5EDE2
:100E4000EDEEE3EE203220002ECFF3F1EA20F3E4C2
:100E5000E0EBE5EDEDFBF520312C32002EC0CA2091
:100E6000E0E2F2EEECE0F2E8F7E5F1EAE8E9200092
:100E70002EC0CA20F3F1EAEEF0E5EDEDFBE920200B
:100E8000202020002EC0CA20E2FBEAEBFEF7E5EDB1
:100E900020202020202020002EC0CA20EAEEEDF2E3
:100EA000F02EEFF0EEE2E5F0EAE020002EC0CA20DE
:100EB000E8F1EFFBF2E0EDE8FF2020202020200009
:100EC0002EC0CA20EFF3F1EA20202020202020208D
:100ED000202020002EC2FBE7EEE220202020202050
:100EE00020202020202020002EC0CA20EDEEF0EC93
:100EF000E0EBFCEDFBE92020202020002EC0CA20E2
:100F0000E1E5E3EBFBE92020202020202020200049
:100F10002ECFF3F1EA20F3E4E0EBE5ED2E20CCC098
:100F2000CD2020002EC0CA20EEE4EDEEF1F2EEF06E
:100F3000EEEDEDE8E92020002ED1E1F0EEF120C049
:100F4000CA20202020202020202020002ECFF3F1B6
:100F5000EA20C0CA20F1E2EEE92020202020200073
:100F60002ECFF3F1EA20C0CA20F3E4E0EBE5EDED8B
:100F7000FBE920002ECFF3F1EA20CFD0C4202020BF
:100F800020202020202020002ECFF3F1EA20EDE0C9
:100F9000EBE0E42E20E2EAEB2E2020002ECFF3F14E
:100FA000EA20EDE0EBE0E42E20E2FBEAEB2E20006D
:100FB000BC0DD00DE40DF80D0C0E200E340E480EB5
:100FC0005C0E700E840E980EAC0EC00ED40EE80EA1
:100FD000FC0E100F240F380F4C0F600F740F880F8A
:100FE0009C0FC2FBEFEEEBEDE8F2FC00E20F2020DD
:100FF0002020204572726F7220202020202000CDFA
:10100000E5E8F1EFF02EF7F22E20464C4153480070
:10101000CDE5E8F1EFF02EE7E0EF2E464C415348E6
:1010200000CDE5E8F1EFF02EF7F22E20504C4953B9
:101030002000CDE5E8F1EFF02EE7E0EF2E504C492F
:10104000532000CDE5E8F1EFF02EE7E0EF2E32522D
:10105000414D2000CDE5F220F1E8E3EDE0EBE020AA
:10106000CFD0CC2000C0CA2DD1EDE8E6E5ED2EE7CB
:10107000E0EFE0F1E000CFEEECE5F5E020E220EB80
:10108000E8EDE8E8202000CDE5E8F1EFF02E44534C
:1010900050203252414D2000CDE5E8F1EFF02EF71F
:1010A000F22E203252414D2000D2EEEA20EFEEEA3D
:1010B000EEFF2020202020202000CDE8E7EAEEE50A
:1010C00020EDE0EFF02EE2FBF52E00C2FBF1EEEAA0
:1010D000EEE520EDE0EFF02EE2FBF500CDE5E8F1E6
:1010E000EFF02E20CCCA20D3CC20202000C2D72065
:1010F000F2F0E0EAF220E2EEF1F1F22E2000FF0F32
:101100001010211032104310541065107610871003
:101110009810A910BA10CB10DC10ED10EE0FD3F11F
:10112000F2E0EDEEE2E8F2E520F7E0F1FB2000CEA0
:10113000F2EAE0E720F0E5E7E5F0E22EEBE8ED008B
:10114000D3E4E0EB2EEFEEF1F220EDE5E8F1EFF085
:1011500000D3E4E0EB2ECFD0C420EDE5E8F1EFF0D2
:101160002E00D3E4E0EB2ECFD0CC20EDE5E8F1EF7C
:10117000F02E001E112F11EE0FEE0F4011511162D3
:1011800011EE0FCDE5F220E1EBEEEAE020C1D1C790
:1011900020202000CDE5E8F1EFF02EE2E5F0F12E81
:1011A000C1D1C72000CDE5E8F1EFF02EEFE5F0E585
:1011B000EAEB2E202000CDE5E8F1EFF02EE7E0EF9E
:1011C0002E20C1D1C72000CDE5F220F1E8E3EDE00B
:1011D000EBE020CFD0CC2000CDE8E7EAE8E920F32F
:1011E000F02E20D0C720202000CDE5E8F1EFF02E32
:1011F000F3E4E0EB2EC4D4C72000CDE5E8F1EFF036
:101200002EF3E4E0EB2EC2DBD52E00CDE5E8F1EFC6
:10121000F02EE2F5EEE42ECFD3D1CA00CDE5E8F111
:10122000EFF02EE2F5EEE42ED1D2CECF00D3E42EB5
:10123000CFCED1D220E1E5E720EEF2E22E00CDE5DF
:10124000E8F1EFF02EF6E5EFFC2EC2DBD52000D35F
:10125000E42ECFCED1D220EEE1ED2EEFEEEC2E003B
:10126000CDE5E8F1EFF02EE7E0EF2E20C2DBD52050
:1012700000C4EBE8F2E5EBFCED2E20EFEEECE5F53B
:10128000E000CDE5E8F1EFF02E20C4D4C720202007
:1012900020200083119411A511B611C711D811E9AE
:1012A00011FA110B121C122D123E124F1260127104
:1012B000128212CDE5F220CAD72020202020202043
:1012C00020202000CDE5F220F1E8E3EDE0EBE02086
:1012D000CCC0CD2000CFEEF0EEE320EFEE20EFEE1D
:1012E000ECE5F5E52000C0E2F2EEEAEEEDF2F0EE1C
:1012F000EBFC2020202000CDE5F220E1EBEEEAE03F
:1013000020C1D1CA20202000CDE5E8F1EFF02EE287
:10131000E5F0F12EC1D1CA2000CDE5F220CAD720D8
:1013200020202020202020202000CFF0E5E22EE405
:10133000EB2DF1F2E82EEAEEEC2E00CDE5E8F1EF30
:10134000F02EE7E0EF2E20C1D1CA2000CDE5E8F174
:10135000EFF02EE2FBEAEB2ECAD1CA2000CDE5E881
:10136000F1EFF02EE2EAEB2E20CAD1CA2000CDE543
:10137000E8F1EFF02EEAEEEDF2F02ECAD1CA00CF7E
:10138000F0E5E4F3EFF02EEDE5F220CAD7312000CE
:10139000CFF0E8E5EC20E1EBEEEA2E20CAEEEC2EF1
:1013A00000F712081319132A13EE0FEE0FEE0FEECB
:1013B0000F3B134C135D136E137F13EE0FEE0F9064
:1013C00013D1EDE8E62E20F3F0EEE2EDFF20CFD0D2
:1013D000CC00CDE5F220CAD72020202020202020DC
:1013E000202000CDE5F220E1EBEEEAE020C1D1CAF9
:1013F00020202000CDE5E8F1EFF02EE2E5F0F12E1F
:10140000C1D1CA2000CDE5E8F1EFF02EF7F22EEAC7
:10141000EEECE0EDE400CDE5E8F1EFF02EE2FBEAE2
:10142000EB2ED2E5F1F200CDE5E8F1EFF02EE2EAA5
:10143000EB2E20D2E5F1F200CDE5E8F1EFF02EE25F
:10144000F5EEE42ECAD1CA2000E313F413EE0FEE3A
:101450000FEE0FEE0FEE0FEE0F05141614271438D3
:1014600014EE0FEE0FEE0FEE0FC3F0313A00C3F0A3
:10147000323A00C3F0F3EFEFE0203100C3F0F3EFB6
:10148000EFE02032007314017C1402E2FBEAEB006F
:10149000EEF8E8E100D0C700CAD73100CAD7320061
:1014A000CAD73300CAD73400CAEEEC3100CAEEEC1A
:1014B0003200CAEEEC3300CAEEEC3400CAEEEC3572
:1014C00000CAEEEC3600CAEEEC3700CAEEEC38008B
:1014D000CAEEEC3900CAEC313000CAEC313100CA36
:1014E000EC313200CAEC313300CAEC313400CAECC2
:1014F000313500CAEC313600CAEC313700CAEC3164
:101500003800CAEC313900CAEC323000CAEC323152
:1015100000CAEC323200CAEC323300CAEC3234007A
:10152000CAEC323500CAEC323600CAEC323700CA97
:10153000EC323800CAEC323900CAEC333000CAEC65
:10154000333100CAEC3332009014FF8B1400951431
:10155000019814019C1402A01403A41404A81403F9
:10156000AD1404B21405B71406BC1407C11408C6A0
:101570001409CB140AD0140BD5140CDA140DDF1493
:101580000EE4140FE91410EE1411F31412F81413EE
:10159000FD14140215150715160C1517111518163C
:1015A00015191B151A20151B25151C2A151D2F157D
:1015B0001E34151F3915203E1521431522D2E5F1A1
:1015C000F2203100D2E5F1F2203200BD15C415CD74
:1015D000E5E8F1EFF02E464C41534800CDE5E8F147
:1015E000EFF02E203252414D00CDE5E8F1EFF02E24
:1015F00020CFCBC8D10034202D20F1EEE1FBF2E862
:10160000E52000CD2E20F2E5F1F220CFD0C420005D
:10161000CD2EE2FBEAEB2EF2E5F1F2E000CD2E203A
:10162000F2E5F1F220CFD0CC2000CD2EF7F22EEA59
:10163000EEEC2EC1D1CA00CDE5F220E1EBEEEA2EB0
:10164000C1D1CA00CD2EE2E5F0F1E8E820C1D1CA4F
:1016500000CD2EF0E5E7E5F0E22EEBE8ED00CDE57C
:10166000E8F1EFF02EF7E0F1EEE200CDE5F220E157
:10167000EBEEEA2EC1D1C700CD2EE2E5F0F1E8E8AD
:1016800020C1D1C700CD2EEFE5F0E5EAEB2EC1D1A8
:10169000C700CDE5F220F1E8E3ED2ECCC0CD00C2CD
:1016A000EAEB2EEFE8F22FEFE5F02000C8E7ECE5DB
:1016B000ED2EF0E5E6E8ECE000CD2EE7E0EF2EE2DF
:1016C000FBF5EEE4E000CD2EEAEEEDF2F0EB2EE2DB
:1016D000FBF500CFF0EEEFE0EBE020CAD7202000D2
:1016E000CDE5F220CAD72035F120202000CDE5F24B
:1016F00020F1E8E32ECFD3D1CA00CDE5F220F1E806
:10170000E32ED1D2CECF00C2FBEAEB2EE0EFEFE02A
:10171000F0E0F200CFF0EEEFE0EBE020CAD72020BF
:1017200000CDE5F220CAD72035F120202000CD2EB3
:1017300020F3E4E0EB2E20C7C0D900CD2E20F3E447
:10174000E0EB2E20CFD0C400CD2E20F3E4E0EB2E32
:1017500020CFD0CC003331202D20F1EEE1FBF2E898
:10176000E5003332202D20F1EEE1FBF2E8E500CF79
:101770003FD13FCC3F20CFD0C43F20CFD0CC3F2063
:10178000D0C73F00CAEEECE0EDE420EDE5F200CF7B
:10179000EEE4E0EDE020EAEEECE0EDE4E000CFF096
:1017A000E8EDFFF2E020EAEEECE0EDE4E0003030BE
:0317B000303000D6
:1017B40001002A100A00B30DCA0DF40D170E520EC3
:1017C400950ED40EE50EF40E060F110037110C0021
:1017D4003D106810A810EE101311371137113D1089
:1017E4006810A810EE101311000101EF23B02301BB
:1017F400B02301B02301B02301B02301B02301B011
:10180400230AB52301B52301B52301B52301B5236B
:1018140001B5230BBA2301BA2301BA2301BA230168
:10182400BA230BBF2301C32301C72302CB2301CF58
:101834002301CF2301CF2301CF2301CF2301CF23C2
:1018440001CF2301CF2385D42301EC230FDA230115
:10185400EC230FE02301EC230FE62301EC23FB0030
:101864000001002E270700E026EB26F82603270EAA
:10187400271927242700001100C72706003C274703
:101884002756277B279C27BD27000021003F2805DA
:1018940000D527E027EF27FE271F280000008C2A09
:1018A4000900DB292C293C294C2962297E299A2903
:1018B400B629C129003500F62A09009A2AA52AB0BA
:1018C4002ABB2AC62AD12AE12AF62AEC2A00770161
:1018D4004F304730043F30023730012F30394B301E
:1018E400044330023B3001333019493004413002A3
:1018F4003930013130094D30044530023D30013575
:1019040030FB07014848B44701BF4701C94701C933
:101914004701D34701DD4701DD4704ED4701F747A0
:1019240001F7470607480107480111480119480112
:1019340027480131481B39487D4148FB230109549C
:10194400B14D0DA14C01BD4901E54901454A01AD27
:101954004A01824B018F4B015A4C01654C019B4C4F
:101964000AAF4C013F4D01B44D08A74C08E04CFBB5
:1019740001000A541600B44AC74A0A54CA4ACE4A55
:10198400D14AD64AFA4A3B4B5E4B0A54D14AD64A0C
:10199400FA4A3B4B5E4B0A540A540A540A54764B97
:1019A400724B01010A54964B01A94B05AC4B01D073
:1019B4004B01134C01374C03AC4B01D04B01134C7E
:1019C40001374C054F4C014B4CFB0000A04F090064
:1019D400054F154F254F354F494F5D4F714F814F7F
:1019E400914F0000FF5216007E518E519E51AE5110
:1019F400BE51CE51DE51EE51FE510E52215236529D
:101A04004C5258526B527E529152A452B752CA52FF
:101A1400DD52F0520100D4580C00CB57CB57D357AA
:101A2400EF57EF57D458D458CB57CB57D357EF571A
:101A3400EF570100C1661600445C325D545D6B5D76
:101A4400A65DED5D255EBF6196620C5F6F60ED5D26
:101A5400255EBF6196620C5FC1663F635D63C963C7
:101A6400836459660000085F09007A5E8A5E925EAC
:101A74009A5EAA5EBA5ECA5EDA5EEA5E00006B60D7
:101A84001600435F535F635F6B5F7B5F835F8B5FB6
:101A9400935F9B5FAB5FB35FD05FD05FED5FFD5F34
:101AA4000D6015601D602560356045604D605130E6
:101AB40030E042E007C050E0F801E40FF51F508128
:101AC400350F43954217B8F3032F0895E4EEF5E07C
:101AD4002081206120830093270601E000932806DB
:101AE4001093290625E005E216E0E2DF10E00093FA
:101AF400890410938A040091890400932A0606E05D
:101B04000E94C22208959A938A93812FE4EEF5E00D
:101B14001081106110830093270680932806282FD4
:101B24002C5F05E216E0C4DF10E0009389041093F3
:101B34008A040091890490E0FC01EB5DF94F048371
:101B44008B5F082F0E94C2228991999108950E9467
:101B54004A6B8091E905E4EBF0E0FBBFF7E10C94FC
:101B6400FE6AEDE4FCE00491801740F0EEE4FCE052
:101B74000591149190E00817190738F4EEE4FCE09D
:101B84000591039500937A0463C280937A0460C23A
:101B94008395E3E5FCE00491801740F0E4E5FCE084
:101BA4000591149190E00817190720F40FE30093AE
:101BB40059034EC2082F005D009359030091930B03
:101BC400081779F08093930B0E94203A0E944433C3
:101BD4000E94253601E00E94D6360E94B4390E9444
:101BE400203A36C2E9E5FCE00491801740F0EAE5CA
:101BF400FCE00591149190E00817190738F40FE3FD
:101C0400009364030FE30093650322C24AE0082FA4
:101C14000E94596A005D009364034AE0082F0E9401
:101C2400596A405D4093650313C2EFE5FCE094916B
:101C3400E0E6FCE0A591891710F0A81738F40FE34B
:101C440000936D030FE300936E030EC04AE0082F68
:101C54000E94596A005D00936D034AE0082F0E94B8
:101C6400596A405D40936E038091EA05891710F02C
:101C7400A81738F40FE3009375030FE3009376037A
:101C8400E7C14AE0082F0E94596A005D009375037A
:101C94004AE0082F0E94596A405D40937603D8C1F8
:101CA400E5E6FCE09491E6E6FCE0A591891710F0E6
:101CB400A81738F40FE3009381030FE30093820322
:101CC400C7C14AE0082F0E94596A005D009381034E
:101CD4004AE0082F0E94596A405D409382030091B4
:101CE400920B0230F9F40091930B0330D9F48091F4
:101CF400EA05891710F0A81738F40FE30093890355
:101D04000FE300938A03A4C14AE0082F0E94596A92
:101D1400005D009389034AE0082F0E94596A405DE0
:101D240040938A0395C1EBE6FCE09491ECE6FCE079
:101D3400A591891710F0A81738F40FE300939503C1
:101D44000FE3009396030EC04AE0082F0E94596ADD
:101D5400005D009395034AE0082F0E94596A405D94
:101D6400409396030091930B0330D9F48091EA05D4
:101D7400891710F0A81738F40FE300939B030FE3BF
:101D840000939C0365C14AE0082F0E94596A005DD4
:101D940000939B034AE0082F0E94596A405D4093D8
:101DA4009C0356C1E1E7FCE00491801728F0E1E7C9
:101DB400FCE00491081720F402E00093A50348C155
:101DC4008093A50345C1E7E7FCE00491081738F4C4
:101DD400E8E7FCE0059103950093A60339C18093DD
:101DE400A60336C1EEE7FCE00591149190E00817D4
:101DF400190738F4EEE7FCE0059103950093A70377
:101E040027C18093A70324C1E3E8FCE00491801771
:101E140040F0E4E8FCE00591149190E008171907FC
:101E240020F400E00093180A10C18093180A00916E
:101E3400B30A002329F40091B30A053008F005C160
:101E44000091B30A015051F00A9509F465C00A954E
:101E540009F4C0C00A9509F4BDC0F7C00091180A7E
:101E6400015049F00A9539F00A9561F0025089F061
:101E74000A95B1F01BC000EA11E40093190A10930B
:101E84001A0A14C004E318E00093190A10931A0AFA
:101E94000DC003E810E00093190A10931A0A06C053
:101EA40002E010E00093190A10931A0A0091EA055F
:101EB40010E020E0322F212F102F00E04091EB059D
:101EC40050E060E070E0040F151F261F371F322F0B
:101ED400212F102F00E04091EC0550E060E070E00D
:101EE400040F151F261F371F322F212F102F00E03C
:101EF4004091ED0550E060E070E0040F151F261FCF
:101F0400371F48EE53E060E070E00E94D36A00930C
:101F14001B0A10931C0A99C00091180A015049F039
:101F24000A9539F00A9561F0025089F00A95B1F0EA
:101F34001BC000E21EE40093190A10931A0A14C08D
:101F440000ED17E00093190A10931A0A0DC008EC6B
:101F540010E00093190A10931A0A06C002E010E078
:101F64000093190A10931A0A0091EA0510E020E080
:101F7400322F212F102F00E04091EB0550E060E05C
:101F840070E0040F151F261F371F322F212F102F2B
:101F940000E04091EC0550E060E070E0040F151F94
:101FA400261F371F322F212F102F00E04091ED05FF
:101FB40050E060E070E0040F151F261F371F48EE45
:101FC40053E060E070E00E94D36A00931B0A109310
:101FD4001C0A3BC00091EA0510E020E0322F212FBB
:101FE400102F00E04091EB0550E060E070E0040F3A
:101FF400151F261F371F322F212F102F00E040916D
:10200400EC0550E060E070E0040F151F261F371F39
:10201400322F212F102F00E04091ED0550E060E0B9
:1020240070E0040F151F261F371F48EE53E060E0D1
:1020340070E00E94D36A0093190A10931A0A00E010
:1020440010E000931B0A10931C0A01E00093900215
:1020540001E00093CB0901E00093C909E4E00C948A
:10206400566B0E944A6B802F082FEEECF0E0FBBF0A
:10207400F7E10C94FE6A813119F4A8EAB3E002C0D6
:10208400A1EFB3E0E9E8FCE04491EAE8FCE0059163
:102094001091E905141720F01091E905011730F4A7
:1020A4000FE30C930FE3FD010183DFC00091E90509
:1020B4004AE00E94596A005D0C930091E9054AE0E8
:1020C4000E94596A405DFD014183CFC0823119F4F9
:1020D400AEEAB3E002C0A7EFB3E0EFE8FCE044915E
:1020E400E0E9FCE005911091E905141720F0109146
:1020F400E905011748F40FE30C930FE3FD01018395
:102104000FE3FD010283B1C00091E9050A3058F4E0
:102114000091E905005D0C9300E3FD01018300E2F9
:10212400FD010283A2C00091E9054AE00E94596AB8
:10213400005D0C930091E9054AE00E94596A405DF4
:10214400FD01418300E3FD0102838FC0833119F453
:10215400A2E7BAE002C0A2E9BAE0E5E9FCE04491F2
:10216400E6E9FCE0059110E010938C0413C0209183
:102174008C0430E0F901EB51FA4F148120918C0466
:1021840030E0FD01E20FF31F108310918C041395CE
:1021940010938C0410918C042091E8051217D8F444
:1021A40020918C0430E0F901EB51FA4F148114179B
:1021B40048F020918C0430E0F901EB51FA4F14817E
:1021C4000117A8F61FEF20918C0430E0FD01E20F07
:1021D400F31F1083DACF49C0843119F4A9EDB3E0B9
:1021E40002C0A2E2B4E000E000938C0413C00091AA
:1021F4008C0410E0F801EB51FA4F248100918C0417
:1022040010E0FD01E00FF11F208300918C04039581
:1022140000938C0400918C041091E805011738F3A5
:1022240024C0853119F4ADEDB3E002C0A6E2B4E0F8
:1022340000E000938C0413C000918C0410E0F801BA
:10224400EB51FA4F248100918C0410E0FD01E00F62
:10225400F11F208300918C04039500938C0400915A
:102264008C041091E805011738F301E00093CB09C1
:1022740001E00093C909E4E00C94566B8A938091C1
:10228400E905015261F00A9551F10A9509F494C0E7
:102294000A9509F456C00A9509F471C08DC0EBE99A
:1022A400FCE02491ECE9FCE00591821710F008179A
:1022B40038F40FE300932A040FE300932B047CC04B
:1022C4004AE0082F0E94596A005D00932A044AE0FC
:1022D400082F0E94596A405D40932B046DC0E1EAC7
:1022E400FCE02491E2EAFCE00591821710F0081763
:1022F40050F40FE3009330040FE3009331040FE331
:102304000093320459C08A3050F4805D80933004C5
:1023140000E30093310400E2009332044DC04AE02C
:10232400082F0E94596A005D009330044AE0082F88
:102334000E94596A405D4093310400E300933204E3
:102344003BC000E000938C0413C000918C0410E0A7
:10235400F801EB51FA4F248100918C0410E0F8014C
:10236400E75BFB4F208300918C04039500938C045E
:1023740000918C041091E805011738F31DC000E0AA
:1023840000938C0413C000918C0410E0F801EB510D
:10239400FA4F248100918C0410E0F801E35BFB4FB9
:1023A400208300918C04039500938C0400918C0489
:1023B4001091E805011738F301E00093CB0901E01F
:1023C4000093C9098991089540E020C050E003E0DA
:1023D40010E00E94776AF801EB51FA4F2581042F2F
:1023E40010E0000F111FF801E45BFC4F218350E063
:1023F40003E010E00E94776AF801EB51FA4F06817E
:1024040050E0FA01EB5AFC4F008343954430E0F569
:1024140050E003E010E00E94776AF801EB51FA4FB4
:102424000481063050F02EE4042F10E0000F111F39
:10243400F801E45BFC4F208311C050E003E010E09E
:102444000E94776AF801EB51FA4F2481042F10E0BF
:10245400000F111FF801E45BFC4F208350E003E000
:1024640010E00E94776AF801EB51FA4F05810C30B5
:1024740008F4ACCF2EE4042F10E0000F111FF80174
:10248400E45BFC4F2183B3CF01E00093CB090895B3
:1024940000E00BC010E0F801EB51FA4F248110E08A
:1024A400F801EA52F64F20830395043198F3009122
:1024B400E209002321F40091E309002321F001E063
:1024C4000093980B03C000E00093980B0091E4097B
:1024D400002321F40091E509002321F001E0009399
:1024E400990B03C000E00093990B0091D6090023D7
:1024F40021F40091D709002321F001E000939A0B05
:1025040003C000E000939A0B0091D809002321F442
:102514000091D909002321F001E000939B0B03C033
:1025240000E000939B0B0091DA09002321F4009151
:10253400DB09002321F001E000939C0B03C000E0C1
:1025440000939C0B0091DC09002321F40091DD0928
:10255400002321F001E000939D0B03C000E00093F1
:102564009D0B0091DE09002321F40091DF09002373
:1025740021F001E000939E0B03C000E000939E0B4A
:102584000091E009002321F40091E109002321F0E6
:1025940001E000939F0B03C000E000939F0B0091A8
:1025A400E609002321F40091E709002321F001E06A
:1025B4000093A00B03C000E00093A00B0091E80976
:1025C400002321F40091E909002321F001E00093A4
:1025D400A10B03C000E00093A10B01E00093CB0921
:1025E4000895BC010091E9050F70005D0093A502F8
:1025F4000091E90502950F70005D0093A40200911B
:10260400EA050F70005D0093A2020091EA050295AD
:102614000F70005D0093A1020091EB050F70005D47
:1026240000939F020091EB0502950F70005D0093EB
:102634009E020091EC050F70005D0093A8020091CA
:10264400EC0502950F70005D0093A7020091ED0563
:102654000F70005D0093AB020091ED0502950F70C1
:10266400005D0093AA020091EE050F70005D0093D7
:10267400AE020091EE0502950F70005D0093AD026D
:1026840000E000938B0408C000E0009387020091EF
:102694008B04039500938B0400918B040830A8F5F8
:1026A40000918B0410E0F801E256FD4F00810053C5
:1026B4000A3078F000918B0410E0F801E256FD4FE7
:1026C40000810E3231F00091860203950093860258
:1026D40003C000E00093860200918B0410E0F8012F
:1026E400E955FD4F008100530A3070F200918B04CC
:1026F40010E0F801E955FD4F00810A3329F20091F9
:102704008702039500938702C2CF8091A50290E0CF
:102714004091A40250E00AE010E00E94776A800F22
:10272400911F80519240843600E090072CF0009174
:1027340086020395009386028091A20290E0409164
:10274400A10250E00AE010E00E94776A800F911F16
:10275400805192408D3090402CF000918602039578
:102764000093860280919F0290E040919E0250E087
:102774000AE010E00E94776A800F911F8051924016
:10278400803290402CF000918602039500938602DB
:102794008091A80290E04091A70250E00AE010E086
:1027A4000E94776A800F911F805192408931904036
:1027B4002CF0009187020395009387028091AB026D
:1027C40090E04091AA0250E00AE010E00E94776A8B
:1027D400800F911F805192408D3300E090072CF0C0
:1027E400009187020395009387028091AE0290E0E6
:1027F4004091AD0250E00AE010E00E94776A800F39
:10280400911F805192408D3300E090072CF000918D
:10281400870203950093870200918602002351F1F9
:1028240000E30093A50200E30093A40200E30093F5
:10283400A20200E30093A10200E300939F0200E3DD
:1028440000939E0200E00093860200E000938B0454
:1028540000918B04033048F500E020918B0430E0B4
:10286400F901E058FD4F008300918B040395009318
:102874008B04EECF00E000938B0413C000918B0413
:1028840010E0F801EB51FA4F248100918B0410E021
:10289400F801E058FD4F208300918B0403950093C9
:1028A4008B0400918B04033048F3009187020023CA
:1028B40051F100E30093A80200E30093A70200E3B0
:1028C4000093AB0200E30093AA0200E30093AE027C
:1028D40000E30093AD0200E00093870200E0009360
:1028E4008B0400918B04033048F500E020918B04A5
:1028F40030E0F901E058FD4F038300918B04039508
:1029040000938B04EECF00E000938B0413C000917E
:102914008B0410E0F801EB51FA4F278100918B04EE
:1029240010E0F801E058FD4F238300918B040395D8
:1029340000938B0400918B04033048F301E000936F
:10294400CB0901E000939002CB0108950E94496BEA
:10295400D801822F942F452E3A95082F07C020E2E4
:1029640010E0FD01E00FF11F208303950830B8F358
:1029740000E8401658F00FEF402643942DE2082F4C
:1029840010E0FD01E00FF11F20838395042D10E07A
:10299400432F0E94816A402E03E64016C8F44AE0A1
:1029A400042D0E94596A005D282F30E0FD01E20FDA
:1029B400F31F008383954AE0042D0E94596A405D09
:1029C400082F10E0FD01E00FF11F4083839510C034
:1029D4002FE3082F10E0FD01E00FF11F2083839502
:1029E4002FE3082F10E0FD01E00FF11F20838395F2
:1029F400915019F09A9539F012C003EE90E0A80FA7
:102A0400B91F0C930CC004EE90E0FD01E80FF91F10
:102A1400008301EC90E0A80FB91FFD010183E5E0FC
:102A24000C94556B0E94486B2801A22FB42FCB0144
:102A34006E817F813A950A2F07C020E210E0F201EF
:102A4400E00FF11F208303950830B8F3432F8C0166
:102A54000E94816AC8018617970708F067C0883EFC
:102A640003E0900710F148EE53E08C010E94846A61
:102A7400202F0A2F10E0F201E00FF11F20830A2F0C
:102A840010E0F201E00FF11F408150E008EE13E086
:102A94000E94776A801B910B0A2F10E0F201E00F6D
:102AA400F11F0081005D0083A395843600E0900748
:102AB40010F144E650E08C010E94846A202F0A2F12
:102AC40010E0F201E00FF11F20830A2F10E0F20161
:102AD400E00FF11F408150E004E610E00E94776AA5
:102AE400801B910B0A2F10E0F201E00FF11F00810F
:102AF400005D0083A3954AE050E08C010E94846A43
:102B0400005D2A2F30E0F201E20FF31F0083A3954A
:102B14004AE050E08C010E94846A405D0A2F10E074
:102B2400F201E00FF11F4083A39510C02FE30A2F99
:102B340010E0F201E00FF11F2083A3952FE30A2F89
:102B440010E0F201E00FF11F2083A395B15019F0BA
:102B5400BA9571F013C00CEEB0E0F201EA0FFB1F5E
:102B6400008300ECB0E04A0E5B1EF201018306C054
:102B740005E2B0E04A0E5B1EF2010083E8E00C942B
:102B8400546B432F42954F704A3018F0495C542FD0
:102B940002C0405D542F452F622F70E0F801E60F0C
:102BA400F71F40833F70432F4A3018F0495C342F9D
:102BB40002C0405D342F432F30E0020F131FF80191
:102BC400418308950E94486B8091E905A091EA052C
:102BD40000E010E00093060B1093070B082F0D592B
:102BE400073C20F40A2F065A053B50F00FE30093EC
:102BF400FF0A0FE30093000B00E00093010B84C075
:102C04004424242D422E4394082F0A2B00780023B9
:102C140011F00DE201C00BE230E0F901E150F54F93
:102C2400008388231AF400E0081B802FAA231AF4D7
:102C340000E00A1BA02F082F0A2B002331F400E325
:102C44000093FF0A00E00093000B8A305CF04AE036
:102C5400082F0E94676A005D5524F201E150F54F88
:102C6400008343944AE0082F0E94676A405D55241C
:102C7400F201E150F54F408343940EE25524F201F2
:102C8400E150F54F008343944AE00A2F0E94676A9B
:102C9400005D5524F201E150F54F0083439402ECAA
:102CA4005524F201E150F54F0083439400E055248C
:102CB400F201E150F54F00834394482F542F550FF0
:102CC400550B0AE010E00E94776AC8010A2F102F02
:102CD400110F110B4AE050E00E949C6A800F911F73
:102CE4008093060B9093070B0091FF0A0D3261F459
:102CF40000E010E02091060B3091070B021B130B30
:102D04000093060B1093070BA1E0B6C02DE24A2FE7
:102D140050E009E010E00E94776AEFEFFAE0E00F7C
:102D2400F11F032F10E0E00FF11F208399232AF4F1
:102D34000FEF1FEF802791270196843600E090075C
:102D4400D4F144E650E08C010E949C6A202F4A2F63
:102D540050E009E010E00E94776AEFEFFAE0E00F3C
:102D6400F11F5524E40DF51D20834A2F50E009E09E
:102D740010E00E94776AEFEFFAE0E00FF11F5524AC
:102D8400E40DF51D408150E004E610E00E94776AEE
:102D9400801B910B4A2F50E009E010E00E94776AF3
:102DA400EFEFFAE0E00FF11F5524E40DF51D00816B
:102DB400005D008343948A3000E09007B4F04AE059
:102DC40050E08C010E949C6A202F205D4A2F50E025
:102DD40009E010E00E94776AEFEFFAE0E00FF11FDC
:102DE4005524E40DF51D208343944AE050E08C0102
:102DF4000E949C6A242F205D4A2F50E009E010E0D5
:102E04000E94776AEFEFFAE0E00FF11F5524E40D1A
:102E1400F51D208343942CEE4A2F50E009E010E086
:102E24000E94776AEFEFFAE0E00FF11F5524E40DFA
:102E3400F51D2083439420EC4A2F50E009E010E074
:102E44000E94776AEFEFFAE0E00FF11F5524E40DDA
:102E5400F51D2083439420E04A2F50E009E010E060
:102E64000E94776AEFEFFAE0E00FF11F5524E40DBA
:102E7400F51D20834394A395A33008F07AC00A2F4C
:102E840010E0000F111FF801EB51FA4F948180E01C
:102E94000A2F10E0000F111FF801EB51FA4F0581C2
:102EA40010E0800F911F20E030E04A2F50E009E04D
:102EB40010E00E94776AF801E150F54F27833087CC
:102EC4008C0109511C4F0F3C27E0120710F12FE32E
:102ED4004A2F50E009E010E00E94776AF801E150BF
:102EE400F54F20832FE34A2F50E009E010E00E94C1
:102EF400776AF801E150F54F218320E04A2F50E032
:102F040009E010E00E94776AF801E150F54F22834E
:102F1400B2CF082F092BB9F420E34A2F50E009E07F
:102F240010E00E94776AF801E150F54F208320E019
:102F34004A2F50E009E010E00E94776AF801E1505E
:102F4400F54F218398CF44244A2F50E009E010E044
:102F54000E94776AF801E150F54F87839087342DFA
:102F6400432E4394813000E090070CF4CFCE2BE243
:102F7400CECEE6E00C94546B0091E905E5E2FDE069
:102F84001491011740F0E6E2FDE02591349110E040
:102F94002017310720F4E6E2FDE005910395009344
:102FA400FE0A08959A938A930091E905002309F093
:102FB40007C15091EA0541E032E022E004ED12E05D
:102FC400C5DC3091EA0523E009EB12E0DADD30914B
:102FD400EB0525E009EB12E0D4DD3091EC0520E0AF
:102FE4000091ED0510E0200F311F2093D409309398
:102FF400D50908EE13E01A930A936091D4097091ED
:10300400D50941E031E023E00DED12E00BDD009144
:10301400EF054AE00E94596A0093FD024091EE05D3
:1030240050E00AE010E00E94776A2091FD0230E04F
:10303400020F131F0093D2091093D3098091D20970
:103044009091D3090096883E03E0900720F4009104
:10305400FD020A3080F000E010E00093D2091093E2
:10306400D3090FE30093FA020FE30093FB020FE38B
:103074000093FD0215C00091EE054AE00E94596AD2
:10308400005D0093FA020091EE054AE00E94596A3D
:10309400405D4093FB020091FD02005D0093FD0240
:1030A4005091F00542E031E023E00AE013E04EDC09
:1030B4000091930B033041F45091F10542E031E06B
:1030C40023E003E113E042DC0091180A043051F4D8
:1030D40000914C03043030F400E00093F20500E06A
:1030E4000093F3055091F20542E031E023E00CE156
:1030F40013E02CDC0091930B033041F45091F30561
:1031040042E031E023E005E213E020DC5091F405D5
:1031140042E031E023E001E013E018DC04E610E0D3
:103124001A930A936091F50570E042E031E024E0DF
:1031340006EE12E077DC3091F50523E002EC12E0B4
:1031440020DD9091F60580E00091F70510E0800FF6
:10315400911F8C01085E1340083223E21207B0F479
:1031640048EE53E08C010E94846A0093F20240917D
:10317400F20250E008EE13E00E94776A801B910B84
:103184000091F202005D0093F20203C000E3009399
:10319400F20208EE13E01A930A93BC0143E031E013
:1031A40025E00FEE12E03EDC3091F60523E00BEC57
:1031B40012E0E7DC3091F70525E00BEC12E0E1DCEE
:1031C40001E00093910201E00093CB098991999168
:1031D40008958A938091E905055369F00A95E1F011
:1031E4000A9559F10A95D1F10A9509F45DC0025086
:1031F40009F469C083C0E9EBFCE02491EAEBFCE04C
:103204000591821710F0081720F4039500935104D8
:1032140075C08093510472C0E1E3FDE02491E2E3C0
:10322400FDE00591821710F0081720F40395009330
:10323400580464C08093580461C0E5ECFCE0249118
:10324400E6ECFCE00591821710F0081720F40395D2
:103254000093570453C08093570450C0EBECFCE038
:103264002491ECECFCE00591821710F0081708F4A7
:1032740080E04AE0082F0E94596A405D40935B0455
:103284004AE0082F0E94596A802F4AE0082F0E94C2
:10329400596A405D40935A044AE0082F0E94596AD3
:1032A400005D009359042AC0E1EDFCE02491E2EDB5
:1032B400FCE00591821710F0081708F480E0805DA7
:1032C40080935D041BC0EDEDFCE02491EEEDFCE089
:1032D4000591821710F0081738F40FE300936B047C
:1032E4000FE30093B70207C0805D80936B040091E5
:1032F4006B040093B70201E00093900201E0009395
:10330400CB0901E00093C909899108950091E7056B
:10331400102F107FE0916F0BF091700B208112172A
:1033240009F084C0102F1F701130C9F4E5EEF5E0E8
:10333400058107FF04C001E00093790B03C000E09E
:103344000093790B3091EA0520E00091E90510E043
:10335400200F311F20937A0B30937B0B61C0102F09
:103364001F70123009F05CC0E9EEF5E0007F003F09
:10337400A9F4008100937F0B319600810093830BA5
:10338400319600810093820B319600810093810B6A
:10339400319600810093800B31961DC0003D11F0E1
:1033A400003E89F400810093830B319600810093E1
:1033B400820B319600810093810B3196008100933A
:1033C400800B319608C000810093800B31960081F8
:1033D4000093810B3196008100938B0B3196008111
:1033E40000938A0B319600810093890B31960081FA
:1033F4000093840B319600810093850B31960081F4
:103404000093860B3196308120E0018110E0200F7B
:10341400311F2093870B3093880B01E000936D0BD1
:1034240001E00093CB0901E00093C909089520E06D
:1034340070E021E00091E905702F072F0F70002341
:10344400A9F070FB16F423E003C071FB0EF424E032
:103454000091930B0330E9F52130D9F572FB16F492
:1034640025E037C073FBAEF526E033C000918D0B29
:10347400002321F400918E0B002359F100918E0B4F
:1034840010918D0B011718F400918D0B02C000915F
:103494008E0B602FEAEEF5E037E0708131967723EA
:1034A40081F050E001C05395583058F4452F01E0A5
:1034B40010E00E94816A172F10231123A1F3232FF8
:1034C400250F385F213011F4685001C060E061308D
:1034D40024F72093DF0B00918C0B002349F07091AB
:1034E400E90574FB16F422E001C021E02093B50B3A
:1034F40001E00093CB0901E00093C909089511E0AC
:103504000091E905013039F401E000938C0B01E0EE
:10351400009347030BC000E000938C0B00E0009382
:1035240045030091E905002309F010E00091EA0544
:10353400093070F40091EA05033051F01091EA0566
:1035440004E0109F00928F0B01E00093470304C036
:1035540000E000938F0B10E00091EB05093058F464
:103564000091EB05033039F01091EB0504E0109F56
:103574000092900B04C000E00093900B10E00091C7
:10358400EC05093058F40091EC05033039F0109142
:10359400EC0504E0109F00928E0B04C000E0009341
:1035A4008E0B10E00091ED05033049F503E0009324
:1035B400930B0091900B002321F400918C0B0023BA
:1035C40019F001E00093480300918C0B002379F07B
:1035D40000918F0B002359F00091900B002339F0D8
:1035E40000918E0B002319F001E00093970B0091DA
:1035F4008F0B1091900B010F00938D0B0FC002E005
:103604000093930B00E00093900B00918F0B0093B9
:103614008D0B0091ED05023009F010E00091EE05EC
:10362400023021F402E00093920B08C001E0009301
:10363400920B0091EE05013009F010E00091920B1D
:10364400013021F404E00093CA0903C003E00093AD
:10365400CA093091EF0520E00091F00510E0200F39
:10366400311F20938C0230938D023091F10520E0BC
:103674000091F20510E0200F311F20938E02309349
:103684008F020091F305053028F40091F3050093AF
:10369400B20A04C010E000E00093B20A0091920B59
:1036A400023021F401E00093AD0B13C00091930BA1
:1036B400023021F402E00093AD0B0BC00091930B98
:1036C400033021F404E00093AD0B03C000E0009349
:1036D400AD0B0FEF0093B30A00918E0B002311F092
:1036E40021E001C020E000918D0B002311F011E0D6
:1036F40001C010E000918C0B0E941C330E944433E3
:103704000E94253601E00E94D6360E94B4390E94F8
:10371400203A0E94AD3A01E00093940B08959A93E5
:103724008A93802F282F2A9505EE15E00E945A0DC2
:1037340010E00093890410938A0420918904309145
:103744008A0490E0FC01EC51FA4F008110E020174C
:10375400310719F0549A579A98C0009175060230AF
:1037640009F500E000938D0413C000918D0410E06E
:10377400F801EB51FA4F208100918D0410E0F8011B
:10378400E452FB4F208300918D04039500938D0434
:1037940000918D04081748F303E0009375068093A5
:1037A400760673C000917506002309F06EC045EEDD
:1037B40055E02091E70530E000EE1BE00E94A423D1
:1037C4000091E705007F005039F0005151F000519D
:1037D40069F0005181F041C00091E7050E94A90DF4
:1037E40052C00091E7050E9433104DC00091E705D7
:1037F4000E94401148C00091E705005369F00A9502
:1038040071F00A9579F00A9581F00A95B1F00A50A1
:10381400D1F00A95E1F01DC00E94E61134C00E9467
:103824004A1231C00E94F3122EC00091920B013053
:1038340011F4C8D928C0A0DB26C00091920B013036
:1038440011F5B0DB20C00091E905F1DD1CC057DEA5
:103854001AC00091E705BDDC16C00091E705015CC4
:1038640079F00A9579F00F5059F00A9559F00F50F4
:1038740039F00A9539F00F5019F00A9519F003C080
:1038840045DD01C043DD549A579A0E94C72200E0E7
:10389400009377068991999108950C018FEF3FEF7A
:1038A40060E014C070E0F801E60FF71F4081842740
:1038B400482F832F50E0FA01E457FF4F34918327B8
:1038C40050E0FA01E457FE4F34916395621750F3C8
:1038D400132F00E090E0082B192BC001089530E06D
:1038E4004091EB09405019F04A9569F017C042E045
:1038F40007C050E0F801E40FF51F5081350F4395E0
:103904004217B8F30BC040E007C050E0F801E40FE1
:10391400F51F5081350F43954217B8F3032F0895CF
:103924009A938A93812FEBE9F4E01081106110835C
:103934001091EB09105019F01A95D9F03CC000937E
:10394400DE048093DF04282F2C5F0CED14E0C7DF26
:1039540010E000938E0410938F0400918E0490E085
:10396400FC01E452FB4F04838B5F082F0E948623E3
:1039740022C0109188021093DC040093DD04282FE8
:103984002D5F0CED14E089DF00938E0410938F04F7
:1039940000918E0490E0FC01E452FB4F03831091EC
:1039A4008F04012F90E0FC01E452FB4F04838B5FF2
:1039B400082F0E948623899199910895EBE9F4E0F8
:1039C4001081106110830093DE0402E00093DF0491
:1039D40026E00CED14E083DF10E000938E041093D6
:1039E4008F0400918E040093E20407E00E94862372
:1039F4000895EBE9F4E010811061108310918802BE
:103A04001093DC0410919D0410681093DD0400935E
:103A1400DE0423E00CED14E062DF10E000938E047A
:103A240010938F0400918E040093DF0410918F048F
:103A3400012F0093E00405E00E94862308959A93E1
:103A44008A93802F0E94932300FB4EF400E000939E
:103A5400E00400E00093E10401EEB0DF91C30091C3
:103A6400EB09005021F00A9509F442C17FC300918B
:103A74009C04053509F031C100919D040A3A09F00E
:103A84002CC100919F0410E0E82FF0E035970E1749
:103A94001F0751F000919F040093E0048550809328
:103AA400E10403EE8BDF6CC3282F2A950CE914E0A4
:103AB40016DF10E000938E0410938F0420918E047F
:103AC40030918F0490E0FC01E556FB4F008110E03B
:103AD4002017310771F090E0FC01E556FB4F00819F
:103AE4000093E00400918E040093E10402EE66DF8B
:103AF40047C300919E04043729F000919E040337C4
:103B040009F0BFC000919E04043789F540913C0B35
:103B140050E008EE13E00E94776A980140913D0B53
:103B240050E004E610E00E94776A200F311F4091B4
:103B34003E0B50E00AE010E00E94776A200F311F2C
:103B440000913F0B10E0200F311F2055304D209382
:103B540093043093940410919404012F0093E0048F
:103B6400009193040093E10412E002E7D9DE00918E
:103B74009E04033709F077C03091A00420E000913F
:103B8400A10410E0200F311F209393043093940478
:103B940048EE53E000919304109194040E94846AC7
:103BA400005D00933C0B80913C0B90E0C09708EEC5
:103BB40013E0AC010E94776AE3E9F4E020813181EB
:103BC400201B310B2083318344E650E000919304A1
:103BD400109194040E94846A005D00933D0B8091CF
:103BE4003D0B90E0C09704E610E0AC010E94776AB8
:103BF400E3E9F4E020813181201B310B2083318300
:103C04004AE050E000919304109194040E94846A65
:103C1400005D00933E0B80913E0B90E0C0970AE05C
:103C240010E0AC010E94776AE3E9F4E0208131817D
:103C3400201B310B2083318300919304005D00939A
:103C44003F0B10E003E76CDE01E000936B0600E03D
:103C540010E000937106109372060CE31BE00093CE
:103C64006D0610936E060FE00093890200919A008E
:103C7400006100939A0000919A00006800939A00F2
:103C84007FC200E0009392041BC00091920410E0F4
:103C9400F801E456FB4F20810091920410E0F801F2
:103CA400EB5DF94F208300E02091920430E0F901AC
:103CB400E456FB4F00830091920403950093920411
:103CC40000919204081708F38093760601E00093AC
:103CD40075060FE00093890253C200919A000061B7
:103CE40000939A0000919A00006800939A0048C2D9
:103CF40000919C0410918802011709F02CC2282F0E
:103D040022500CE914E0C9DD00938E0410938F0453
:103D140090E0FC01E656FB4F008190E0FC01E55683
:103D2400FB4F1081009390041093910400918E0432
:103D340010918F042091900430919104021713077D
:103D440069F000918E040093DE0410918F04012F1A
:103D54000093DF0411E00FEFE3DD02C230919E0413
:103D640020E000919F0410E0200F311F209396045F
:103D7400309397040091A1040093950400919D044D
:103D8400035021F0035009F4B4C1E2C10091950439
:103D9400013420F400919504002319F403E029DE92
:103DA400DFC100919604109197040A5F1040063019
:103DB40023E01207A8F02091960430919704009113
:103DC400950410E0200F311F2B3F00E0300758F01E
:103DD4000091960410919704003024E0120718F41F
:103DE40002E007DEBDC11091950402E0109F00922D
:103DF400DE0400919604109197040A3F20E0120714
:103E040068F500E0009392041BC0609196047091E1
:103E140097040091920410E0600F711F10919204B6
:103E240002E0109F03E0000E402D2CED34E000EE84
:103E34001BE00E94F22300919204039500939204E4
:103E440000919204109195040117F8F210919504D1
:103E540002E0109F102D03E063DD82C100919604FF
:103E6400109197040050144000302EE1120708F01E
:103E740044C001E000934F0B20E030E000EE1BE073
:103E84000E94D1264FE0009195040E94596A009344
:103E94004E0B00914E0B002329F400914E0B039519
:103EA40000934E0B8FE090E00091960410919704DC
:103EB400005014404FE050E00E94846A841B950B2C
:103EC4000091950410E08017910728F400914E0B9F
:103ED400039500934E0B00919604109197040050A3
:103EE40014404FE050E00E94846A009398041093B9
:103EF400990402EF0093500B33C100919604109182
:103F040097040050144200302EE1120708F049C013
:103F140001E000934F0B20E030E000EE1BE00E9434
:103F2400D1264FE0009195040E94596A00934E0BEC
:103F340000914E0B002329F400914E0B039500933E
:103F44004E0B0091960410919704005014424FE0D8
:103F540050E00E94846A40939A040FE010E020919C
:103F64009A0430E0021B130B2091950430E00217F1
:103F740013072CF400914E0B039500934E0B009104
:103F8400960410919704005014424FE050E00E94B0
:103F9400846A009398041093990402EC0093500BE4
:103FA400DFC000919604109197040050144400302F
:103FB4002EE1120708F049C001E000934F0B20E006
:103FC40030E000EE1BE00E94D1264FE00091950402
:103FD4000E94596A00934E0B00914E0B002329F462
:103FE40000914E0B039500934E0B00919604109193
:103FF4009704005014444FE050E00E94846A4093B8
:104004009A040FE010E020919A0430E0021B130B95
:104014002091950430E0021713072CF400914E0B05
:10402400039500934E0B0091960410919704005051
:1040340014444FE050E00E94846A00939804109363
:10404400990402ED0093500B8BC0009196041091DB
:1040540097040050144600302EE1120708F080C087
:1040640001E000934F0B20E030E000EE1BE00E94E3
:10407400D1264FE0009195040E94596A00934E0B9B
:1040840000914E0B002329F400914E0B03950093ED
:104094004E0B0091960410919704005014464FE083
:1040A40050E00E94846A40939A040FE010E020914B
:1040B4009A0430E0021B130B2091950430E00217A0
:1040C40013072CF400914E0B039500934E0B0091B3
:1040D400960410919704005014464FE050E00E945B
:1040E400846A009398041093990402EE0093500B91
:1040F40037C05091A00440E00091A10410E0400FAB
:10410400511F209196043091970400EE1BE00E9409
:10411400392400E00093920413C00091920410E04B
:10412400F801E456FB4F20810091920410E0F8015D
:10413400E452FB4F20830091920403950093920470
:1041440000919204063048F313E006E0E9DB08C06E
:1041540001E04FDC05C000919A00006100939A00D1
:1041640000919A00006800939A000AC000919A0096
:10417400006100939A0000919A00006800939A00ED
:104184000E94A0238991999108950FEC09B9109880
:10419400119A1898199A0EE00093950008E10AB94B
:1041A400549A579A06B70D7F06BF07B7016007BF39
:1041B40005E002BF04E003BF05E5009325060AEA13
:1041C4000093260605E50093E5050AEA0093E60553
:1041D4000895FA93EA935A934A933A932A931A9333
:1041E4000A934FB75BB70CB15C9952C01091670644
:1041F400105039F01A9559F01A9599F01A95B9F0AA
:1042040027C0053519F401E00093670641C00A3A56
:1042140021F402E0009367063BC000E000936706C8
:1042240037C00093E70503E00093670631C00093AD
:10423400E8050C3320F010E01093670603C014E087
:104244001093670610916706100F1093680620C03C
:104254002091670630E0F901EB51FA4F0083009199
:10426400670610916806011770F001E00093770665
:1042740000E00093670654985798009168060395E8
:104284000093780605C000916706039500936706BE
:104294005BBF4FBF09911991299139914991599166
:1042A400E991F9911895FA93EA933A932A931A9318
:1042B4000A932FB73BB70091650610916606011764
:1042C40084F400916506102F110F110BF801EB5DBA
:1042D400F94F00810CB900916506039500936506BA
:1042E4000FC05398559800E00093660600E00093D1
:1042F4006506549A579AE4EEF5E000810F7E008338
:104304003BBF2FBF0991199129913991E991F991F5
:1043140018959A938A93FA93EA933A922A921A9264
:104324000A927A936A935A934A933A932A931A93E2
:104334000A938FB79BB72197A89505E002BF009118
:10434400CD06003F09F045C000917506002309F031
:1043540040C00E9401300093E1050091E1051091F5
:10436400E005011721F00091E105003FD1F4E2EEF0
:10437400F5E0008111810F5F1F4F008311830091CD
:10438400E2051091E305013921E0120784F000E908
:1043940011E00093E2051093E30500EF0093E005BC
:1043A40006C000E010E00093E2051093E3050091DD
:1043B400E1051091E005011761F00091E105003F6E
:1043C40041F00091E1050093CD060091E1050093D1
:1043D400E0050091DE05053078F10091DF0501303C
:1043E40029F0EBE9F4E0008100FF22C000919A007B
:1043F4000F7E00939A0000919A000F7700939A0021
:10440400EBE9F4E00081086000830091DB050E9481
:10441400211D00E00093DF0500E00093DB0500911F
:104424009C000883EBE9F4E000810F7E008309C05F
:104434000EE10093DE0505C00091DE0503950093AF
:10444400DE05E19939C000916B060130A9F5F894B5
:1044540000917106109172061FBB0EBB0091690694
:1044640010E0E0916D06F0916E06E00FF11F0081FF
:104474000DBBE29AE19A7894009169060395009342
:104484006906E1E7F6E0008111810F5F1F4F0083A9
:1044940011830091690610E0E0916D06F0916E06BB
:1044A400E00FF11F31970081002331F400E0009305
:1044B4006B0600E000936906E1994EC000916C061A
:1044C400013009F049C000917306109174061FBBB6
:1044D4000EBBE09A2DB300916A0610E0E0916F06DE
:1044E400F0917006E00FF11F208300916A0610E03E
:1044F400E0916F06F0917006E00FF11F00810F3F0D
:1045040059F400E020916A0630E0E0916F06F091E2
:104514007006E20FF31F0083E3E7F6E000811181E8
:104524000F5F1F4F0083118300916A060395009368
:104534006A0600916A0610E0E0916F06F091700639
:10454400E00FF11F31970081002331F400E0009364
:104554006C0600E000936A0621969BBF8FBF099109
:1045640019912991399149915991699179910990B8
:10457400199029903990E991F99189919991189517
:1045840000936606539A559A089500E00093E40553
:10459400089503E3009399008A988B9A9298939ACA
:1045A4000EE000939D0008E100939A0000919A00A8
:1045B400006100939A0000919A00006800939A00A9
:1045C40005E50093DC040AEA0093DD040895FA93F8
:1045D400EA934A933A932A931A930A933FB74BB7B1
:1045E40020919C0000919B00102F14FF05C0EBE963
:1045F400F4E00081016000830091DF05002391F461
:104604000091DE050E3170F001E00093DF0500E05B
:104614000093DB0500E00093DE05EBE9F4E00081A4
:10462400006100830091DF050130E9F40091DE05AB
:104634000E31C8F40091DB05003430F0EBE9F4E00E
:104644000081016000830CC00091DB0510E0F801DB
:10465400E456FB4F20830091DB0503950093DB05B3
:1046640000E00093DE054BBF3FBF099119912991EA
:1046740039914991E991F9911895FA93EA933A930A
:104684002A931A930A932FB73BB70091DC05109134
:10469400DD0501178CF40091DC05102F110F110BAF
:1046A400F801E452FB4F008100939C000091DC056B
:1046B40003950093DC051FC000919A00077F0093C7
:1046C4009A0000919A000F7D00939A0000E00093F5
:1046D400DD0500E00093DC0500919A000061009381
:1046E4009A0000919A00006800939A00EBE9F4E0C4
:1046F40000810F7E00833BBF2FBF0991199129913F
:104704003991E991F99118950093DD0500919A008A
:10471400086000939A0000919A00006200939A0046
:10472400089500919B0410919A00212F27FD0260A7
:1047340010919A00212F25FD0460089500E0009354
:104744009B0408950E94486B2801D901CA018D0178
:10475400ECEEF0E0FBBFF7E10C94026BAC019D01C1
:10476400820121D33AC0AC019D01820178D335C0C6
:10477400AC019D0182010CD430C09C01820180D423
:104784002CC09C0182019DD428C09C018201C8D404
:1047940024C09C01820152D520C0AC019D0182013C
:1047A400BCD61BC045EB50E09C01820120D715C04C
:1047B40046EB50E09C0182011AD70FC047EB50E052
:1047C4009C01820114D709C044EB50E09C01820192
:1047D4000ED703C09C0182011DD7E6E00C94546BF4
:1047E4000E94466B2801D901642ECB01863100E07A
:1047F400900721F42CE33BE08201A7D2803001E052
:104804009007F8F4F201218132818C01000F111F0D
:10481400200F311FF9011181012F7724FD01E60DCD
:10482400F71D0083F20101811281880F991F080F7F
:10483400191FF80100817724A60DB71DFD0101831E
:104844000CC00FEF7724FD01E60DF71D00830FEF79
:104854007724A60DB71DFD010183E8E00C94526B8B
:10486400222311F0F8012383F8010381089562E003
:10487400F8016383F80124833583F8014683578361
:104884000895215019F02A9521F006C0F8010085F9
:104894000895F801018508950FEF08950E94496B6A
:1048A400C801D901FC010481158100511040065052
:1048B400104008F470C00050104009F4C7C00A51F9
:1048C400104009F4F1C00350104009F4EDC0035046
:1048D400104009F4E9C00A51104008F433C20750EB
:1048E400104008F4FAC00950104009F403C1015003
:1048F400104009F4FFC00150104008F44BC00450AC
:10490400104008F404C10050104008F443C004509F
:10491400104008F40CC100501040E0F10052104067
:1049240008F415C106501040A8F10350104008F4D3
:104934001EC10050104070F10450104008F424C10E
:104944000050104038F10450104008F42DC10550B7
:10495400104000F10550104008F436C100501040DA
:1049640009F43FC10150104009F44DC101501040F9
:1049740009F456C10D50104009F45DC101501040B6
:1049840009F47BC10150104009F499C10150104051
:1049940009F4B7C1D7C100E0FC01008332C0FC01B7
:1049A40001811281FC01208130E0220F331F020FAC
:1049B400131FF80100A111A14AE050E00E94846A8B
:1049C400402E429400EF4022FC0101811281FC013F
:1049D400208130E0220F331F020F131FF80100A1C2
:1049E40011A14AE050E00E94846A440EFC01008157
:1049F40010E0FD01E00FF11F4482FC0100810395EA
:104A04000083FC010081063050F2FC01068117810D
:104A14004AE050E00E94846A402E429400EF402213
:104A2400FC01068117814AE050E00E94846A440E2A
:104A3400FC0104811581A00FB11F1C974C9202EB5D
:104A4400FC01008706E0FC0101877CC1FC011781A1
:104A5400012F0695069506950695005D00933C0B7F
:104A6400FC011781012F0F70005D00933D0BFC01C9
:104A7400068102950F70005D00933E0BFC010681D8
:104A84000F70005D00933F0B01E000936B0600E0A4
:104A940010E000937106109372060CE31BE0009380
:104AA4006D0610936E064EC1FC010681178102301B
:104AB40020E0120731F401E7FC01008700E0FC016B
:104AC4000187FC0106811781012B31F400E7FC0109
:104AD400008700E0FC01018735C1FC0104810F5C03
:104AE400FC01008701E0FC010187FC010681FD0156
:104AF400048328C1FC0104810F5CFC01008701E0F0
:104B0400FC010187FC010681FD0104831BC104E94A
:104B1400FC01008702E0FC010187FC0104810156CD
:104B2400FD010483FC010681FD0105830BC105E938
:104B3400FC01008702E0FC010187FC0104810556A9
:104B4400FD010483FC010681FD010583FBC003E92B
:104B5400FC01008702E0FC010187FC010481095685
:104B6400FD010483FC010681FD010583EBC0FC010A
:104B740004810F5EFC01008701E0FC010187FC0158
:104B84000681FD010483DEC004EAFC01008702E023
:104B9400FC010187FC0104810259FD010483FC012D
:104BA4000681FD010583CEC005EAFC01008702E011
:104BB400FC010187FC0104810659FD010483FC0109
:104BC4000681FD010583BEC0FC0104810B5EFC016E
:104BD400008701E0FC010187FC010681FD010483DB
:104BE400B1C0FC0104810B5EFC01008702E0FC0102
:104BF4000187FC011781012FFD010483FC0106815B
:104C0400FD0105839FC0FC0104810B5EFC0100874C
:104C140001E0FC010187FC010681FD01048392C0CF
:104C24000DEBFC01008701E0FC010187FC0106811A
:104C3400FD01048387C00AEFFC01008700E0FC014A
:104C4400018700E0FC01008313C00EEE1EEEFC01A0
:104C540024853585FC01408150E0440F551F240F05
:104C6400351FF90100831183FC0100810395008342
:104C7400FC010081013848F365C00AECFC0100879F
:104C840000E0FC01018700E0FC01008313C00EEE8C
:104C94001EEEFC0124853585FC01408150E0440F63
:104CA400551F240F351FF90100831183FC01008176
:104CB40003950083FC010081013848F343C00AEDE9
:104CC400FC01008700E0FC01018700E0FC01008397
:104CD40013C00EEE1EEEFC0124853585FC014081D7
:104CE40050E0440F551F240F351FF9010083118331
:104CF400FC01008103950083FC010081013848F325
:104D040021C00AEEFC01008700E0FC01018700E0FD
:104D1400FC01008313C00EEE1EEEFC0124853585D4
:104D2400FC01408150E0440F551F240F351FF90149
:104D340000831183FC01008103950083FC01008141
:104D4400013848F3E5E00C94556B592F082EB8014F
:104D5400F9012081322F20E0330F330F330F330F4B
:104D6400818190E0C097982F80E0280F391F02813D
:104D740010E00053104044E00E94816A200F311F6C
:104D8400038110E00F701070200F311FFB010181AF
:104D94001281F80124A735A7802D952F0895F801D5
:104DA4002687378708950E944A6BC8018901DA0172
:104DB400E4E6F0E0FBBFF8E10C94026BFD01048132
:104DC40010E0FC01A181B281A056BF4F0D931C934A
:104DD40043C0FD01A481B0E01196FC010181128160
:104DE4000E551F4FF801A083B18336C0FD01048125
:104DF40010E0FC01A181B281AC55BF4F0D931C930F
:104E04002BC0FD01048110E0FC01A181B281AA55EF
:104E1400BF4F0D931C9320C0FD01048110E0FC01E1
:104E2400A181B281A855BF4F0D931C9315C0FD01FC
:104E3400048110E0FC01A181B281A655BF4F0D93FE
:104E44001C930AC0FD01048110E0FC01A181B28120
:104E5400A455BF4F0D931C93E4E00C94566B0E9431
:104E64004A6BD8018901CA01EAE7F0E0FBBFF8E127
:104E74000C94026BFC01048110E0FD01A181B2815C
:104E8400A054BF4F0D931C9380C0FC01448150E09B
:104E94000AE010E00E94776AFD01A181B281AE535D
:104EA400BF4F0D931C9371C000E00C931CC00C9178
:104EB40010E0FC01E00FF11F448150E00AE010E033
:104EC4000E94776AFD01218132814C9150E0440FA8
:104ED400551F240F351F2C523F4FF90100831183B6
:104EE4000C9103950C930C91FC0113810117F8F2BA
:104EF4004CC000E00C9318C00C9110E0FC01E00FD2
:104F0400F11F448150E0FD01018112812C9130E0B8
:104F1400220F331F020F131F0C531F4FF80140833E
:104F240051830C9103950C930C91FC01138101178F
:104F340018F32BC000E00C9318C00C9110E0FC0196
:104F4400E00FF11F448150E0FD01018112812C9199
:104F540030E0220F331F020F131F04531F4FF801B9
:104F6400408351830C9103950C930C91FC011381A4
:104F7400011718F30AC0FC01048110E0FD01A181AE
:104F8400B281AC5EBE4F0D931C93E4E00C94566B5F
:104F94000E944A6BD8018901CA01EEE8F0E0FBBF28
:104FA400F8E10C94026BFC01048110E0FD01A18185
:104FB400B281A05EBE4F0D931C935FC0FC0144817F
:104FC40050E00AE010E00E94776AFD01A181B281FD
:104FD400AE5DBE4F0D931C9350C0FC01448150E064
:104FE4000AE010E00E94776AFD01A181B281AC5D04
:104FF400BE4F0D931C9341C000E00C9318C00C915C
:1050040010E0FC01E00FF11F448150E0FD0101813B
:1050140012812C9130E0220F331F020F131F0A5DFF
:105024001E4FF801408351830C9103950C930C910E
:10503400FC011381011718F320C000E00C9318C081
:105044000C9110E0FC01E00FF11F448150E0FD01E0
:10505400018112812C9130E0220F331F020F131FA4
:10506400025D1E4FF801408351830C9103950C930C
:105074000C91FC011381011718F3E4E00C94566BB6
:10508400BD01F80100E0008317C0008110E0D901E0
:10509400A00FB11F14964C9150E0A181B281008100
:1050A40010E0000F111FA00FB11FA05ABF4F4D9366
:1050B4005C9300810395008300810A3030F3DB01A7
:1050C40008950D01D80100E00C9325C00C9110E067
:1050D400000F111FF901E00FF11F748160E00C91C2
:1050E40010E0000F111FF901E00FF11F058110E01E
:1050F400600F711FFD01018112814C9150E0440F3A
:10510400551F040F151F005C1F4FF8016083718346
:105114000C9103950C930C910830C0F2D0010895C2
:10512400BD01F801D90114964C9142954F7050E09D
:105134000AE010E00E94776AD90114964C9150E07D
:105144004F705070040F151FA181B28190960D937A
:105154001C93D90115964C9142954F7050E00AE08A
:1051640010E00E94776AD90115964C9150E04F7077
:105174005070040F151FA181B28192960D931C9358
:10518400D90116964C9142954F7050E00AE010E018
:105194000E94776AD90116964C9150E04F70507076
:1051A400040F151FA181B28194960D931C93D9010C
:1051B40017964C9142954F7050E00AE010E00E941F
:1051C400776AD90117964C9150E04F705070040FD4
:1051D400151FA181B28196960D931C93D90118963F
:1051E4004C9142954F7050E00AE010E00E94776ABB
:1051F400D90118964C9150E04F705070040F151F50
:10520400A181B28198960D931C93D90119964C9162
:1052140042954F7050E00AE010E00E94776AD9018D
:1052240019962C9130E02F703070020F131FA1815A
:10523400B2819A960D931C93DB0108950E944A6BE8
:10524400C801D901FD010481E0EAF0E0FBBFF8E107
:105254000C94FE6AFD01358120E0FD01068110E019
:10526400200F311FFC01A181B281A058BF4F2D93A3
:105274003C9350C1FD01358120E0FD01068110E021
:10528400200F311FFC01A181B281AE57BF4F2D9376
:105294003C9340C1FD01258130E0FC010181128174
:1052A4000C571F4FF80120833183FD01068110E064
:1052B400FC01A181B281AA57BF4F0D931C932AC14F
:1052C400FD0105810F3758F4FD01058110E0FC0153
:1052D400A181B281A857BF4F0D931C931BC1FD013F
:1052E400058110E000501140FC01A181B281A85752
:1052F400BF4F0D931C930EC1FD0105810F3758F468
:10530400FD01058110E0FC01A181B281A657BF4FC8
:105314000D931C93FFC0FD01058110E00050114066
:10532400FC01A181B281A657BF4F0D931C93F2C01B
:10533400FD0105810F3758F4FD01058110E0FC01E2
:10534400A181B281A457BF4F0D931C93E3C0FD010B
:10535400058110E000501140FC01A181B281A457E5
:10536400BF4F0D931C93D6C0FD01058110E0FC01D5
:10537400A181B281A257BF4F0D931C93CBC020E0F3
:1053840030E0FC010181128100571F4FF801208396
:105394003183FD01358120E0FD01068110E0200FFD
:1053A400311FFC01A181B281AE56BF4F2D933C93B6
:1053B400B1C0FD01358120E0FD01068110E0200F20
:1053C400311FFC010181128100581F4FF801208315
:1053D4003183FD01378120E0FD01008510E0200FBD
:1053E400311FFC01018112810E571F4FF8012083E8
:1053F4003183FD01218530E0FC01018112810C57CC
:105404001F4FF80120833183FD01228530E0FC0128
:10541400018112810A571F4FF80120833183FD0156
:1054240003850F3760F4FD01238530E0FC01018121
:10543400128108571F4FF801208331830DC0FD01ED
:10544400238530E020503140FC010181128108574E
:105454001F4FF80120833183FD0104850F3760F469
:10546400FD01248530E0FC010181128106571F4FA4
:10547400F801208331830DC0FD01248530E02050E4
:105484003140FC010181128106571F4FF80120832E
:105494003183FD0105850F3760F4FD01258530E07A
:1054A400FC010181128104571F4FF80120833183CD
:1054B4000DC0FD01258530E020503140FC01018103
:1054C400128104571F4FF80120833183FD01268583
:1054D40030E0FC010181128102571F4FF801208343
:1054E400318320E030E0FC010181128100571F4F1D
:1054F400F80120833183FD01378520E0FD01008917
:1055040010E0200F311FFC01A181B281AE56BF4FC4
:105514002D933C93E4E00C94566B0E944A6BC801B3
:105524008901DA01E8EBF0E0FBBFF8E10C94026BCF
:10553400FD01048110E0FC01A181B281A05CBE4F99
:105544000D931C9351C0FD01048110E0FC01A18165
:10555400B281AE5BBE4F0D931C9346C0FD01048126
:1055640010E0FC01A181B281AC5BBE4F0D931C9392
:105574003BC0FD01048110E0FC01A181B281AA5B62
:10558400BE4F0D931C9330C0FD01048110E0FC015B
:10559400A181B281A85BBE4F0D931C9325C0FD0170
:1055A400348120E0FD01058110E0200F311FFC0152
:1055B400A181B281A65BBE4F2D933C9315C0FD0122
:1055C400048110E0FC01A181B281A45BBE4F0D9364
:1055D4001C930AC0FD01048110E0FC01A181B28189
:1055E400A25BBE4F0D931C93E4E00C94566B7B2F8F
:1055F4000A2EF9016481F9013581262FF801A18170
:10560400B281440F551FA40FB51F2D933C93A02DB9
:10561400B72F089508950FEF0ABB00E00BBB00E716
:1056240007BB00E208BB00E004BB00E005BB00E0F0
:1056340001BB00E002BB07B7006407BF02E804BD7A
:1056440007B7046007BF00E00FBD00E00EBD09EF1F
:105654000DBD05EE0CBD0895A89501B5006101BD11
:1056640001B5087F01BD01B5006101BD01B5086048
:1056740001BD0895FA93EA933A932A931A930A93ED
:105684002FB73BB70091CC06015009F447C00A95E7
:1056940021F00A9509F455C085C003EF04BDC69AEC
:1056A400C59A0091C90610E0F801E758F94F008146
:1056B4000BBBC5980091C9060F3430F40091C9069C
:1056C40003950093C90603C000E00093C906009146
:1056D400C906005039F0045161F0045189F00451B5
:1056E400B1F060C000E80093CB0601E00093CC0663
:1056F40059C000EC0093CB0601E00093CC0652C0E5
:1057040004E90093CB0601E00093CC064BC004ED02
:105714000093CB0601E00093CC0644C00091CB0675
:10572400013019F400E304BD02C003EF04BDC698C0
:10573400C59A0091CB060BBBC59802E00093CC063A
:1057440031C00091CA0610E0F801E457FD4F0491FE
:10575400013019F400E304BD02C003EF04BD00915D
:10576400CA0610E0F801E457FD4F0491002389F0C4
:10577400C698C59A0091CA0610E0F801E457FD4F97
:1057840004910BBBC5980091CA0603950093CA0601
:1057940009C002E00093CC0600E00093CA0600E0D2
:1057A4000093C9063BBF2FBF0991199129913991E3
:1057B400E991F9911895502F00E064E1569F010E8C
:1057C4001BEE010E0FC010E0F901E00FF11F508134
:1057D400602D70E010E0600F711FFB01E758F94F76
:1057E4005083039510E0F901E00FF11F108111239C
:1057F40061F1413041F710E0F901E00FF11F108130
:10580400103CA0F010E0F901E00FF11F608170E09E
:10581400FB01EE52FE4F5491602D70E010E0600FDA
:10582400711FFB01E758F94F5083DBCF10E0F901FA
:10583400E00FF11F5081602D70E010E0600F711FC8
:10584400FB01E758F94F5083CCCF089500E007C01F
:1058540020E210E0F801E758F94F20830395003562
:10586400B8F300E00093C906089504E107C020E2FC
:1058740010E0F801E758F94F208303950035B8F399
:10588400089500E00093CA0603E00093CC0608954F
:1058940034E1039F010E0BEE000E10E008C000E29D
:1058A4001124F001E758F94F00830394139512175C
:1058B400B0F308959A938A93922F24E1029F802D46
:1058C400810F855140E1092F0E94596A282F30E049
:1058D400F901E758F94F0083082F10E0F801E75861
:1058E400F94F108100E1109F9019082F10E0F80182
:1058F400E758F94F918390E0FC01E758F94F008194
:105904000A3040F090E0FC01E758F94F0081095C4F
:10591400008307C090E0FC01E758F94F0081005D67
:10592400008390E0FC01E758F94F01810A3040F010
:1059340090E0FC01E758F94F0181095C018307C03D
:1059440090E0FC01E758F94F0181005D01838991E2
:10595400999108950E944B6BA22F91E024E1029F3C
:10596400802D810F8551AA3068F04AE00A2F0E94E9
:10597400596A005D282F30E0F901E758F94F008398
:10598400839593954AE00A2F0E94596A405D082F37
:1059940010E0F801E758F94F4083092FE3E00C9435
:1059A400576B9A938A93922F24E1029F802D810F43
:1059B40085519A3060F04AE0092F0E94596A005DCF
:1059C400282F30E0F901E758F94F008307C020E29F
:1059D400082F10E0F801E758F94F208383954AE037
:1059E400092F0E94596A405D90E0FC01E758F94F85
:1059F40040838991999108950E944B6B922F24E1E1
:105A0400029F802D810F85518D5F20E3082F10E0C8
:105A1400F801E758F94F20838A95A0E012C04AE0C4
:105A2400092F0E94596A405D082F10E0F801E758D9
:105A3400F94F40838A954AE0092F0E94596A902FB2
:105A4400A395A33058F4992351F720E2082F10E0CE
:105A5400F801E758F94F20838A95F2CFE3E00C94DC
:105A6400576B30E844E1049F010E0BEE000E022F49
:105A74000323005D1124F001E758F94F008311243A
:105A8400F001E758F94F0081003331F001E31124AC
:105A9400F001E758F94F008303943695332339F71F
:105AA400089538E044E1049F010E0BEE000E022F2E
:105AB4000323005D1124F001E758F94F00831124FA
:105AC400F001E758F94F0081003331F001E311246C
:105AD400F001E758F94F008303943695332339F7DF
