:100000000C94A67A18951895189518951895189522
:100010001895189518951895189518951895189578
:1000200018951895189518950C949B311895189556
:1000300018951895189518950C94C47918951895D5
:100040000C94EA27189518950C944A270C94B42719
:100050001895189518951895189518951895189538
:100060001895189518951895189518951895189528
:1000700018951895189518950C9448290C949E2954
:1000800018951895189518951895189500C18140E0
:1000900001C0804101C0804100C1814001C0804158
:1000A00000C1814000C1814001C0804101C0804148
:1000B00000C1814000C1814001C0804100C1814038
:1000C00001C0804101C0804100C1814001C0804128
:1000D00000C1814000C1814001C0804100C1814018
:1000E00001C0804101C0804100C1814000C1814008
:1000F00001C0804101C0804100C1814001C08041F8
:1001000000C1814000C1814001C0804101C08041E7
:1001100000C1814000C1814001C0804100C18140D7
:1001200001C0804101C0804100C1814000C18140C7
:1001300001C0804101C0804100C1814001C08041B7
:1001400000C1814000C1814001C0804100C18140A7
:1001500001C0804101C0804100C1814001C0804197
:1001600000C1814000C1814001C0804101C0804187
:1001700000C1814000C1814001C0804100C1814077
:1001800001C0804101C0804100C1814000C0C10167
:10019000C30302C2C60607C705C5C404CC0C0DCDF7
:1001A0000FCFCE0E0ACACB0BC90908C8D81819D967
:1001B0001BDBDA1A1EDEDF1FDD1D1CDC14D4D51597
:1001C000D71716D6D21213D311D1D010F03031F187
:1001D00033F3F23236F6F737F53534F43CFCFD3DB7
:1001E000FF3F3EFEFA3A3BFB39F9F83828E8E929A7
:1001F000EB2B2AEAEE2E2FEF2DEDEC2CE42425E557
:1002000027E7E62622E2E323E12120E0A06061A1C6
:1002100063A3A26266A6A767A56564A46CACAD6D76
:10022000AF6F6EAEAA6A6BAB69A9A86878B8B979E6
:10023000BB7B7ABABE7E7FBF7DBDBC7CB47475B516
:1002400077B7B67672B2B373B17170B05090915106
:100250009353529296565797559594549C5C5D9D36
:100260005F9F9E5E5A9A9B5B995958988848498926
:100270004B8B8A4A4E8E8F4F8D4D4C8C44848545D6
:10028000874746868242438341818040380C018003
:10029000020041A042A1E045A3A4A5A64BA74D485A
:1002A0004FA8504354A9AA58E1ABACE2ADAE62AF3F
:1002B000B0B161B2B3B4E365B6B7B8B9BABBBCBD4F
:1002C0006FBE7063BF79E478E5C0C1E6C2C3C4C540
:1002D000C6C7EEF8E8E12EC0CA2000E0E2F2EE2E3A
:1002E000C0CA2000E0E2F2EE2EC0CA2000F3F1EA1C
:1002F0002EC0CA202000E2FBEAEB2EC0CA2000EF8D
:10030000F0EEE22EC0CA2000E8F1EFFBF22EC0CAE8
:1003100000EFF3F1EA20C0CA2000EDEEF0EC2EC0B1
:10032000CA2000E1E5E3EB2EC0CA2000EEE4EDEECA
:10033000F12EC0CA00D202DB02E402ED02F602FF97
:1003400002080311031A0323032C03EEF8E8E12E3D
:1003500000E0E2F2EE2000E0E2F2EE2000F3F1EA4B
:100360002E2000E2FBEAEB2E00EFF0EEE22E00E89A
:10037000F1EFFBF200EFF3F1EA2000EDEEF0EC2EEE
:1003800000E1E5E3EB2E00EEE4EDEEF1004B03516E
:100390000357035D03630369036F0375037B0381E5
:1003A000038703C0CA2D00CDE5F220F1E2FFE7E8A4
:1003B00020F120C1D1CF2020202020002020C8ED16
:1003C000E8F6E8E0EBE8E7E0F6E8FF202020202070
:1003D00000312EC6F3F0EDE0EB2E00322EC4E0F239
:1003E000E02FE2F0E5ECFF2E00332ED3EFF0E0E259
:1003F000EBE5EDE8E52E00342ED3F1F2E0EDEEE290
:10040000E8F2FC2E00352ECFF0EEF1ECEEF2F0200B
:10041000EFE0F0E0EC2E00362EC0E2F2EEEAEEED78
:10042000F2F0EEEBFC2E00372ECFF0EEF2EEEAEE1D
:10043000EB2E00D103DB03E903F7030504170427C0
:1004400004312E20C4E0F2E02E20202020202020A5
:10045000202020202000322E20C2F0E5ECFF2E20AC
:100460002020202020202020202000C6F3F0EDE0D6
:10047000EB2000F1EEE1FBF2E8E900E7E0F9E8F259
:10048000FB00EFF0E8E5ECEDE8EAE000EFE5F0E591
:10049000E4E0F2F7E8EAE00073048C0482047B04F1
:1004A000D7F2E5EDE8E520E0F0F5E8E2E02E00CF58
:1004B000CC00CFC400D1C100C7D900B504B204AF8D
:1004C00004B804CEC1D900CFE5F0E5E72E00CFE5B2
:1004D000F0E5E7E0EF2000CDE0F7E0EBEE2000CA2A
:1004E000EEEDE5F62000EAEEECE0EDE4FB00312E67
:1004F000D0E5E6E8EC2E00322ECFE0F0E0ECE5F2BD
:10050000F0FB2E00332ECFE0F0EEEBFC2E00342E6D
:10051000D2E5F1F22E00EE04F70404050E05C7E063
:10052000F9E8F2E02E00CFF0E8E5ECEDE8EA2E0085
:10053000CFE5F0E5E4E0F2F7E8EA2E00CEE1F9E8F5
:10054000E52E00CFF0E8E5ECEDE8EA20312E00CF13
:10055000F0E8E5ECEDE8EA20322E00D2E8EF20C723
:10056000E0F9E8F2FB00D2E8EF20CBE8EDE8E800A4
:10057000C4EEEF2E20E2F0E5ECFF20E1E5E720EC11
:10058000E0ED2E00C7E0E4E5F0E6EAE020EDE02053
:10059000EBE8EDE8E820202000CFE5F0E5EAF0FB0D
:1005A000F2E8E520E8ECEFF3EBFCF1EEE200C7E067
:1005B000E3F020F7F3E2F1F2E2E8F220EFEE2020A0
:1005C000D0C700D1EDE8E6E5EDE8E520F3F0EEE296
:1005D000EDFF20C0CA202000D7E0F1F2EEF2E020CB
:1005E000CFD0C400D7E0F1F2EEF2E020CFD0CC00C3
:1005F000D1E4E2E8E320EFE5F02EF4F0EEEDF2E0F6
:1006000020CFD0C400D1E4E2E8E320E7E0E42EF418
:10061000F0EEEDF2E020CFD0C400D1E4E2E8E32038
:10062000CFD0CC00D1E4E2E8E320C2D720CFD0C4C1
:1006300020EEF220CFD3D1CA005B05660570058499
:10064000059905AE05C305D805E405F00505061AAC
:10065000062406C7E0E4E5F0E6EAE020EDE020E26B
:10066000EAEB2E2020202000C4EBE8F2E5EBFCEDC5
:10067000EEF1F2FC20EAEEECE0EDE4FB00C7E0E492
:10068000E5F0E6EAE020EDE020E2FBEAEB2E2020B8
:10069000EA00C1EBEEEA2E20EAEEECE0EDE4FB200E
:1006A000203F2E2E3F2000C4EBE8F22E20EAEEEC95
:1006B000E0EDE4FB20203F2E2E3F2000530668068D
:1006C0007D069206A706C2F0E5ECFF20EDE020EFE4
:1006D000EEE2F22E20EAEEEC2E2000C1EBEEEA2E46
:1006E00020EAEEECE0EDE4FB20203F2E2E3F200040
:1006F000C4EBE8F22E20EAEEECE0EDE4FB20203F34
:100700002E2E3F200053066806C606DB06F006D1F3
:10071000EEE2ECE5F1F2E8ECEEF1F2FC0043E8ED9C
:10072000F5F0EEEDE8E7E0F6E8FF20F7E0F1EEE2C5
:100730000055E2FBF520EDEEECE8EDE0EBFCEDEE34
:10074000E500D3E4E5F0E6E0EDE8E520F0E5EBE5F3
:1007500020CFD0C400D1E5F2E5E2EEE920E0E4F0FC
:10076000E5F100C2F0E5ECFF20EFE5F0E5E7E0EFB2
:10077000F3F1EAE000D7E0F1F2EEF2E000CDEEECCA
:10078000E5F020E0EFEFE0F0E0F2E000CAEEEDF29D
:10079000F0EEEBFC20E2FBF52EF1E8E3EDE0EBE020
:1007A00000CFEEF0EEE320CFD0C5C4D3CFD020EF02
:1007B000EE20CAD72000C7E0E3F020F7F3E2F1F221
:1007C000E2E8F220EFEE2020CAD700CAEEF0F0E512
:1007D000EAF6E8FF20EDE0EFF0FFE6E5EDE8FF00E8
:1007E000CAEEF0F0E5EAF6E8FF20F2EEEAE000CF2C
:1007F000EEF0EEE320CFD0C5C4D3CFD020EFEE2073
:10080000D0C72000CFF0EEF2EEEAEEEB20EEE1EC06
:10081000E5EDE000CFF0E8E7EDE0EA20F7E5F2ED06
:10082000EEF1F2E800C4EEEFF3F1F2E8ECFBE520C4
:10083000EFF0EEE2E0EBFB00CFEEF0EEE320EFEEC8
:1008400020EFEEECE5F5E500C4EEEFF3F1F2E8ECB5
:10085000E0FF20EFEEECE5F5E000D2E8EF20E0E28B
:10086000F2EEEAEEEDF2F0EEEBFF00D0E5E7E5F0B8
:10087000E2E8F0EEE2E0EDE8E500D1EDE8E6E5EDF6
:10088000E8E520EEF2E2E5F2E020C0CA202000CF49
:10089000E5F0E8EEE420E1E5E3EBEEE3EE20C0CAAC
:1008A00000CFE5F0E8EEE420EFEEE2F22EE1E5E342
:1008B000EB2E20C0CA00CAEEF0F0E5EAF6E8FF2011
:1008C000E2F0E5ECE5EDE820C0CA00CFEEF0EEE3A3
:1008D00020E0E2E0F0E8E820EFEE20CAD7000F07C2
:1008E0001D07310742075507630775077D078C070A
:1008F000A107B607CB07E007040814082508380845
:1009000048085A086B087A088F08A108B608CB086F
:10091000EF07C0C2C0CDD220D034303000CFC2C724
:100920002D393000C0C2C7CA2D383000CFC2C7D35E
:100930002DC500CFC2C7CB00CBC8CDC8DF2DD0009E
:10094000CFC2C7CA00CFC2C7D300CFC2C700EEF81C
:10095000E8E1EAE00012091D0924092C09330938ED
:1009600009400945094A094E09C7C0D900CFD0CC72
:1009700000CFCC3100CFCC3200CFD0C400C2FBE2DC
:10098000E5E42000C3EEF2EEE22000C2E2E5E4E599
:10099000ED00D0E5F7FC202000D2E5F1F220310097
:1009A000D2E5F1F2203200D2E5F1F22033007D09E8
:1009B00084098B0992099909A009A7093F3F3F3F84
:1009C00000202020C7E0EFF3F1EA20F2E5F1F2E0A9
:1009D0002020202020002020CFEEE4EEE6E4E8F204
:1009E000E5203F20F1E5EA20202000CFF0EEF2EEF6
:1009F000EAEEEB00D1F2E0EDE4E0F0F2004D6F64DE
:100A000042757300F409FD09C7C0D93A00CFD0CCB4
:100A10003A00CFCC313A00CFCC323A00CFD0C43AF2
:100A2000003F3F3F3F2020202000CDE5E8F1EFF0E0
:100A3000202000CFF0E5E4F3EFF02000C2FBE2E578
:100A4000E4E5ED2000C3EEF2EEE220202000C2E259
:100A5000E5E4E5ED202000D0E5F7FC202020200093
:100A6000D2E5F1F23120202000D2E5F1F23220204F
:100A70002000D2E5F1F233202020003C0A450A4E46
:100A80000A570A600A690A3C0A4E0A3C0A600A6967
:100A90000A720A3C0A4E0A600A690A720AC8F1F52B
:100AA000EEE4ED2E2000CAEEEDF2F0EEEBFC00CF0E
:100AB000F3F1EA2020202000D0E0E1EEF2E0202057
:100AC00000CDE5E8F1EFF02E2000CF2EEDE5E8F1C6
:100AD000EFF000CEE6E8E4E0EDE8E500CDE0EB2E57
:100AE000EFF3F1EA00D3E42EEFF3F1EA2000CDE5D5
:100AF000F220D0C7202000D0E5F7FC2020202000E5
:100B0000D2E5F1F220202020009D0AA60AAF0AB803
:100B10000AC10ACA0AD30ADC0AE50AEE0AF70A0081
:100B20000BC8F1F5EEE4ED2E2000CFD0CC20CAD7D3
:100B3000202000CFD0CC20CFC0202000CDE5F22057
:100B4000CAD7202000CDE5E8F1EFF02E2000CF2E0F
:100B5000EDE5E8F1EFF000CEE6E8E4E0EDE8E500F1
:100B6000C1CBCA20CACC2020003F307830383F208B
:100B700020003F307830393F2020003F307830412E
:100B80003F202000D2E5F1F22020202000210B2A76
:100B90000B330B3C0B450B4E0B570B600B690B7269
:100BA0000B7B0B840BC8F1F5EEE4ED2E2000CFD0CB
:100BB000C420CAD7202000CFD0C420CFC02020001E
:100BC000CDE5F220CAD7202000CDE5E8F1EFF02EE8
:100BD0002000CF2EEDE5E8F1EFF000CEE6E8E4E00E
:100BE000EDE8E5003F307830373F2020003F307897
:100BF00030383F202000D1E8F1F2E5EC2E20003F14
:100C0000307830413F202000D2E5F1F22020202032
:100C100000A50BAE0BB70BC00BC90BD20BDB0BE463
:100C20000BED0BF60BFF0B080C672D006C2D00C2B3
:100C3000E2EEE43A00CFE0F0EEEBFC3A00CDEEE27B
:100C4000FBE920EFE0F0EEEBFC3A00C7EDE0F7E562
:100C5000EDE8E53A2000C4D4C72DCFF0CFE4202042
:100C600000C4D4C72DCFF0ECCCCA3100C4D4C72DFA
:100C7000CFF0ECCCCA3200C4D4C72D4C3630202083
:100C80002000CDC72DCFF0CFE420202000CDC72DF0
:100C9000CFF0EC2DCCCA2000CFCFC72DCFF0CFE4C2
:100CA000202000CFCFC72DCFF0EC2DCCCA00EEF81E
:100CB000E8E1EAE02020202000560C610C6C0C7763
:100CC0000C820C8D0C980CA30CAE0CE2FBEAEB2E04
:100CD00000E2EAEB2E003F3F3F3F00CB0CD10CD6A9
:100CE0000C3F3F3F3F00E1FBF1F2F0FBE900ECE598
:100CF000E4EBE5EDEDFBE900E10CE60CEE0CE10CBC
:100D00003F3F3F3F00E2EAEB2E00E2FBEAEB2E0022
:100D1000000D050D0A0D000D3F3F3F20E3F0E0E41C
:100D2000003F3F3F20F1E5EA003F3F20E3F0E0E4F1
:100D3000003F3F20ECE8ED003F3F3F3F00F2F0E591
:100D4000E2EEE6EDFBE900EDEEF0ECE0EBFCEDFBB6
:100D5000E900F1EFEEEAEEE9EDFBE900380D3D0DBB
:100D6000470D520D380D2D3130303020C3F6002D97
:100D700035303020C3F6002B3020C3F6002B353041
:100D80003020C3F6002B3130303020C3F600EEF8AF
:100D9000E8E1EAE000660D6F0D770D7D0D850D8EA3
:100DA0000DC4E8E0EFE0E7EEED3A2000EDE5F220DB
:100DB000E4E0EDEDFBF500F1EFE8F1EEEA00000014
:100DC00007000100020003000100000063000100B1
:100DD00000001200010012003600010000001600A1
:100DE00001000000010001000000040001000000FB
:100DF000040001000000480001000000480001005C
:100E00000000480001000000480001000100090046
:100E1000010000000A000100010032000A00000089
:100E200064000A000000FF0001000000FF00010054
:100E300000000A000100010032000A000100320037
:100E40000A000000FF0001000000FF000100000098
:100E5000080001000000010001000800320001004C
:100E60000000020001000000FF000100000005007A
:100E700001001000E8030100010003000100000070
:100E80000100010000001600010000001600010032
:100E90000000E70301000000E70301000100020079
:100EA00001000100020001000000500001000000EC
:100EB000FF000100140050000100010003000100C8
:100EC0000000010001000000140001000100FF000B
:100ED00001000100FF0001000000140001000000FB
:100EE00016000100302E302E2E39392E3900CFF069
:100EF000EEF8E8E2EAE020CFC8204D43552020007C
:100F0000CFF0EEF8E8E2EAE020C1D1CF204D435522
:100F10002000CFF0EEF8E8E2EAE020C1D1CF204493
:100F200053502000CFF0EEF8E8E2EAE020C1D1C74C
:100F300020CFCBC8D100C4EEEFEEEBED2E20EFE0DA
:100F4000F0E0ECE5F2F0FB00C2E8E420EFE0F0E0D6
:100F5000ECE5F2F0E000EE0E000F120F240F360F5A
:100F6000480FC5F1F2FC00CDE5F200670F620FF10A
:100F7000F2E0EDE4E0F0F20048455800780F6F0F22
:100F80002ED1E1F0EEF120F1E2EEE5E3EE2E2020AD
:100F9000202020002ED1E1F0EEF120F3E4E0EBE59B
:100FA000EDEDEEE3EE2E20002ED1E1F0EEF120F398
:100FB000E4E0EBE5EDEDEEE3EE2031002ED1E1F0E3
:100FC000EEF120F3E4E0EBE5EDEDEEE3EE203200B0
:100FD0002ED1E1F0EEF120F3E4E0EBE5EDEDEEE310
:100FE000EE2033002ECFF3F1EA20F3E4E0EBE5ED61
:100FF000EDEEE3EE2E2020002ECFF3F1EA20F3E415
:10100000E0EBE5EDEDEEE3EE203120002ECFF3F145
:10101000EA20F3E4E0EBE5EDEDEEE3EE2032200034
:101020002ECFF3F1EA20F3E4E0EBE5EDEDEEE3EEB5
:10103000203320002ECFF3F1EA20F3E4E0EBE5EDDE
:10104000EDFBF520202020002EC0CA20E0E2F2EEC9
:10105000ECE0F2E8F7E5F1EAE8E920002EC0CA206A
:10106000F3F1EAEEF0E5EDEDFBE920202020200091
:101070002EC0CA20E2FBEAEBFEF7E5ED202020209F
:10108000202020002EC0CA20EAEEEDF2F02EEFF074
:10109000EEE2E5F0EAE020002EC0CA20E8F1EFFB26
:1010A000F2E0EDE8FF202020202020002EC0CA2002
:1010B000EFF3F1EA20202020202020202020200013
:1010C0002EC2FBE7EEE2202020202020202020203E
:1010D000202020002EC0CA20EDEEF0ECE0EBFCED6D
:1010E000FBE92020202020002EC0CA20E1E5E3EB10
:1010F000FBE9202020202020202020002ECFF3F10B
:10110000EA20F3E4E0EBE5ED2E20CCC0CD2020007A
:101110002EC0CA20EEE4EDEEF1F2EEF0EEEDEDE8D9
:10112000E92020002EC0CA20F1E1F0EEF1202020BD
:1011300020202020202020002ECFF3F1EA20C0CA5A
:1011400020F1E2EEE9202020202020002ECFF3F134
:10115000EA20C0CA20F3E4E0EBE5EDEDFBE9200076
:101160002ECFF3F1EA20CFD0C42020202020202051
:10117000202020002ECFF3F1EA20EDE0EBE0E42E7A
:1011800020E2EAEB2E2020002ECFF3F1EA20EDE062
:10119000EBE0E42E20E2FBEAEB2E20002ECFF3F171
:1011A000EA20F3E4E0EB2E20CCC0CD20312020005B
:1011B0002ECFF3F1EA20F3E4E0EB2E20CCC0CD20DB
:1011C000322020002ECFF3F1EA20F3E4E0EB2E20D2
:1011D000CCC0CD20332020002ECFF3F1EA20F3E461
:1011E000E0EB2DFBF520CCC0CD2020002ECFF3F17D
:1011F000EA20F3E4E0EBE5EDEDEEE3EE2034200051
:101200002ECFF3F1EA20F3E4E0EB2E20CCC0CD208A
:10121000342020002EC0CA20E7E0EFF0EEF12020BD
:101220002020202020202000800F940FA80FBC0F2A
:10123000D00FE40FF80F0C102010341048105C1081
:10124000701084109810AC10C010D410E810FC106E
:101250001011241138114C116011741188119C1156
:10126000B011C411D811EC1100121412C2FBEFEE30
:10127000EBEDE8F2FC006C12202020202045727279
:101280006F7220202020202000CDE5E8F1EFF02E25
:10129000F7F22E20464C41534800CDE5E8F1EFF03F
:1012A0002EE7E0EF2E464C41534800CDE5E8F1EF44
:1012B000F02EF7F22E20504C49532000CDE5E8F1F6
:1012C000EFF02EE7E0EF2E504C49532000CDE5E83B
:1012D000F1EFF02EE7E0EF2E3252414D2000CDE548
:1012E000F220F1E8E3EDE0EBE020CFD0CC2000C02D
:1012F000CA2DD1EDE8E6E5ED2EE7E0EFE0F1E00004
:10130000CFEEECE5F5E020E220EBE8EDE8E8202088
:1013100000CDE5E8F1EFF02E445350203252414D1C
:101320002000CDE5E8F1EFF02EF7F22E2032524109
:101330004D2000D2EEEA20EFEEEAEEFF2020202042
:1013400020202000CDE8E7EAEEE520EDE0EFF02EEA
:10135000E2FBF52E00C2FBF1EEEAEEE520EDE0EF58
:10136000F02EE2FBF500CDE5E8F1EFF02E20CCCA3F
:1013700020D3CC20202000C2D720F2F0E0EAF220D7
:10138000E2EEF1F1F22E200089129A12AB12BC1299
:10139000CD12DE12EF120013111322133313441374
:1013A0005513661377137812C0CA2DCDE5F220EEDF
:1013B000F2E2E5F2E000D3F1F2E0EDEEE2E8F2E590
:1013C00020F7E0F1FB2000CEF2EAE0E720F0E5E7CD
:1013D000E5F0E22EEBE8ED00D3E4E0EB2EEFEEF1EA
:1013E000F220EDE5E8F1EFF000D3E4E0EB2ECFD012
:1013F000C420EDE5E8F1EFF02E00D3E4E0EB2ECFD2
:10140000D0CC20EDE5E8F1EFF02E00B613C713784D
:10141000127812D813E913FA137812202020002032
:1014200031200020322000312032002033200031D2
:1014300020330032203300203F20001B141F1423D0
:101440001427142B142F1433143714CDE5F220E194
:10145000EBEEEAE020C1D1C720202000CDE5E8F185
:10146000EFF02EE2E5F0F12EC1D1C72000CDE5E886
:10147000F1EFF02EEFE5F0E5EAEB2E202000C4E0DE
:10148000EBFCEDE8E920202020202020202000CDCA
:10149000E5F220F1E8E3EDE0EBE020CFD0CC200056
:1014A000CDE8E7EAE8E920F3F02E20D0C72020209D
:1014B00000CDE5E8F1EFF02EF3E42EC4D4C700CD63
:1014C000E5E8F1EFF02EF3E42EC2DBD500CDE5E840
:1014D000F1EFF02EE2F5EEE42ECFD3D1CA00CDE548
:1014E000E8F1EFF02EE2F5EEE42ED1D2CECF00D32C
:1014F000E4E0EB2EE1E5E720EEF2E22E00CDE5E8B8
:10150000F1EFF02EF6E5EFFC2EC2DBD52000D3E4A0
:10151000E0EB2EEEE1ED2EEFEEEC2E00CDE5E8F166
:10152000EFF02EE7E0EF2E20C2DBD52000CFEEEC6F
:10153000E5F5E020E220EBE8EDE8E8202000CDE54D
:10154000E8F1EFF02E20C4D4C720004B145C146DDA
:10155000147E148F14A014B114BF14CD14DE14EF34
:1015600014FD140E151C152D153E15C0CA2DCDE504
:10157000F220EEF2E2E5F2E000C0CA2DD1ED2EE756
:10158000E0EFE0F1E02000CDE5F220F1E8E3EDE06E
:10159000EBE020CCC0CD2000CFEEF0EEE320EFEE6C
:1015A00020EFEEECE5F5E52000C0E2F2EEEAEEED2C
:1015B000F2F0EEEBFC2020202000CFEEECE5F5E091
:1015C0002020202020202020202000D7E0F1FB2018
:1015D000202020202020202020202000CDE5F220E7
:1015E000E1EBEEEAE020C1D1CA20202000CDE5E801
:1015F000F1EFF02EE2E5F0F12EC1D1CA2000CDE5E9
:10160000F220CAD72020202020202020202000CF18
:10161000F0E5E22EE4EB2DF1F2E82EEAEEEC2E00FE
:10162000CDE5E8F1EFF02EE7E0EF2E20C1D1CA20A2
:1016300000CDE5E8F1EFF02EE2FBEAEB2ECAD1CACD
:101640002000CDE5E8F1EFF02EE2EAEB2E20CAD142
:10165000CA2000CDE5E8F1EFF02EEAEEEDF2F02E33
:10166000CAD1CA00CFF0E5E4F3EFF02EEDE5F220A9
:10167000CAD7312000CFF0E8E5EC20E1EBEEEA2E0E
:1016800020CAEEEC2E00DC15ED15FE150F167812B3
:1016900078127812781220163116421653166416F4
:1016A000781278127516D1EDE8E62E20F3F0EEE20E
:1016B000EDFF20CFD0CC00CDE5F220E1EBEEEAE06B
:1016C00020C1D1CA20202000CDE5E8F1EFF02EE2C4
:1016D000E5F0F12EC1D1CA2000CDE5E8F1EFF02E02
:1016E000F7F22EEAEEECE0EDE400CDE5E8F1EFF004
:1016F0002EE2FBEAEB2ED2E5F1F200CDE5E8F1EFC8
:10170000F02EE2EAEB2E20D2E5F1F200CDE5E8F191
:10171000EFF02EE2F5EEE42ECAD1CA2000B716C8CB
:1017200016781278127812781278127812D916EA8E
:1017300016FB160C177812781278127812C3F03153
:101740003A00C3F0323A00C3F0F3EFEFE02031008B
:10175000C3F0F3EFEFE0203200471701501702E229
:10176000FBEAEB00EEF8E8E100D0C700CAD7310091
:10177000CAD73200CAD73300CAD73400CAEEEC3118
:1017800000CAEEEC3200CAEEEC3300CAEEEC3400D4
:10179000CAEEEC3500CAEEEC3600CAEEEC3700CAF1
:1017A000EEEC3800CAEEEC3900CAEC313000CAEC7D
:1017B000313100CAEC313200CAEC313300CAEC31AD
:1017C0003400CAEC313500CAEC313600CAEC31378E
:1017D00000CAEC313800CAEC313900CAEC323000B2
:1017E000CAEC323100CAEC323200CAEC323300CAE1
:1017F000EC323400CAEC323500CAEC323600CAECA6
:10180000323700CAEC323800CAEC323900CAEC3345
:101810003000CAEC333100CAEC3332006417FF5F8A
:1018200017006917016C17017017027417037817F6
:10183000047C17038117048617058B17069017077A
:101840009517089A17099F170AA4170BA9170CAE2A
:10185000170DB3170EB8170FBD1710C21711C71702
:1018600012CC1713D11714D61715DB1716E017175C
:10187000E51718EA1719EF171AF4171BF9171CFECA
:10188000171D03181E08181F0D18201218211718ED
:1018900022D2E5F1F2203100D2E5F1F220320091BE
:1018A000189818CEF8E8E1EAE02020202000CDE5E5
:1018B000E8F12E464C41534800C2D720E2EEF1F148
:1018C000F22E2000CDE5E8F1EF2E504C495300C038
:1018D000E2F2EEEAEEEDF2F02E00D2EEEA20EFEECA
:1018E000EAEEFF2000CDE5E8F1EF2E3252414D0047
:1018F000CD2EF0E0E12E4453502000C2EEF1F22E46
:10190000F02E44535000CDE8E7EA2E2055E2FBF5D7
:1019100000C2FBF12E2055E2FBF52000CD2EF1E2B6
:101920002E20F120D3CC00CDE5E8F12EF7E0F1EE4A
:10193000E200CDE5F220E1EB2EC1D1C700CD2EE2D1
:10194000E5F0F12EC1D1C700CD2EEFE5F02E20C17C
:10195000D1C700CDE5F220F12E20CCC0CD00CFE5DF
:10196000F0E5E7E0EFF3F1EA00C8E7EC2EF0E5E69A
:10197000E8ECE000CD2EF6E5EFE820C2DBD500C8AC
:10198000E7EC2E20EFE0F0E0EC00C0CA2DF1ED2EE8
:10199000E7E0EF2E00C0CA2DEDE5F220EEF2E20006
:1019A000CDE5F220F12ECFD3D1CA00EDE5F220F142
:1019B0002ED1D2CECF00C2FBEAEBFEF7E5EDE8E593
:1019C00000CFEEECE5F5E02020202000CDE5E8F1A9
:1019D000EFF02EC4D4C700D3E43A20CDE5F220C006
:1019E000CA00D3E43A20CFEEECE5F5E000D3E43AC8
:1019F00020CD2E20C4D4C700D3E43A20CD2E20C25F
:101A0000DBD500CFEEF02E20EFEEECE5F500D7E0D1
:101A1000F1FB20202020202000C4E0EBFCEDE8E9D1
:101A2000202020005F00D1E2FFE7FC20F120CFCA98
:101A3000002E003030303000E27BEA7BEE7BEF7B23
:101A4000EA7B027C010079110A006D0F870FE00F1D
:101A500006104C109710E810FF10111123111100FF
:101A60006E120C008C11BD1103123D1256126E1233
:101A70006E128C11BD1103123D12561235000F1F4C
:101A80000900E61AF91A251B991BB91B2D1D521EB8
:101A90007A1EFD1E0001014E2A0F2A010F2A010F96
:101AA0002A010F2A010F2A010F2A010F2A0A142ADC
:101AB00001142A01142A01142A01142A01142A0BE0
:101AC000192A01192A01192A01192A01192A0B1E9A
:101AD0002A01222A01262A022A2A012E2A012E2A36
:101AE000012E2A012E2A012E2A012E2A012E2A0138
:101AF0002E2A85332A014B2A0F392A014B2A0F3F00
:101B00002A014B2A0F452A014B2AFB000001008DB8
:101B10002D07003F2D4A2D572D622D6D2D782D83D9
:101B20002D00001100262E06009B2DA62DB52DDAC6
:101B30002DFB2D1C2E000021009E2E0500342E3F73
:101B40002E4E2E5D2E7E2E000000EB3009003A3026
:101B50008B2F9B2FAB2FC12FDD2FF92F153020306E
:101B600000350055310900F93004310F311A3125A3
:101B7000313031403155314B31007701BD37B53708
:101B800004AD3702A537019D3739B93704B13702A3
:101B9000A93701A13719B73704AF3702A737019F1B
:101BA0003709BB3704B33702AB3701A337FB00005B
:101BB000A03919004F394F3951394F3951395139FD
:101BC000513951394F39513951399A3951394F3980
:101BD0004F395139513951394F394F3951395139BB
:101BE00051395139513907018252E65101F1510100
:101BF000FB5101FB51010552010F52010F52041F0D
:101C000052012952012952063952013952014352D7
:101C1000014B52015952016352056B521673527DAA
:101C20007B52FB002301CB61E6590D9558016855A5
:101C3000019A55010556017856015357016C570119
:101C40003B58014B58018C580AA95801565901E9D3
:101C500059089E5808CE58FB0101CC61805601936B
:101C600056029656019A56019D5601A55601CE562A
:101C700001135701365702A15601A55601CE560150
:101C80001357013657064A57014E57FB0101CC61E5
:101C90007457018757058A5701B35701FA57011E38
:101CA00058038A5701B35701FA57011E5806325894
:101CB000013658FB0100CC611700B158B958BC5827
:101CC000BC58BC58BC58BF58BF58BF58BF58C35861
:101CD000C358C658C658C658C658CC61BC58BC581C
:101CE000C358CA58BC58BC5800002A5C0D00435B5E
:101CF000535B635B735B875B9B5BAF5BBF5BCF5B84
:101D0000DF5BF25B055C185C000085601900C85E53
:101D1000D85EE85EF85E085F185F285F385F485F4E
:101D2000585F6B5F805F965FA25FB55FC85FDB5FE8
:101D3000EE5F0160146027603A604D606060736020
:101D400007000065100012647164AF642C640065C4
:101D5000006512647164AF642C6400650065C26440
:101D6000C764CC64FB640100B1660C00A865A8657B
:101D7000B065CC65CC65B166B166A865A865B0658F
:101D8000CC65CC65000101526AB869012A6A023249
:101D90006A043A6A08426A104A6AFB0001007977CD
:101DA00017007A6B716CA66CBD6C046D5D6D916DE6
:101DB0009D719F72AD6E29705D6D916D9D719F7269
:101DC000AD6E797748736673D2738C74AB76147783
:101DD0000000A86E0D00FA6D0A6E126E1A6E2A6E61
:101DE0003A6E4A6E5A6E6A6E7A6E826E8A6E926E23
:101DF000000025701900FA6E0A6F1A6F226F326F99
:101E00003A6F426F4A6F526F626F6A6F7A6F7A6F82
:101E1000976FA76FB76FBF6FC76FCF6FDF6FEF6F32
:101E2000F76FFF6F07700F7030E042E007C050E0BF
:101E3000F801E40FF51F5081350F43954217B8F3B1
:101E4000032F0895E6EDF6E02081206120830093C2
:101E5000590701E000935A0710935B0725E007E557
:101E600017E0E2DF10E000933D0510933E0500917E
:101E70003D0500935C0706E00E94212908959A938E
:101E80008A93812FE6EDF6E01081106110830093B4
:101E9000590780935A07282F2C5F07E517E0C4DF06
:101EA00010E000933D0510933E0500913D0590E044
:101EB000FC01E95AF84F04838B5F082F0E94212907
:101EC0008991999108950E94AC7B6090DB06E4E4CF
:101ED000F0E0FBBFFAE10C94657B7724EEEBFDE0CC
:101EE000059114916016710640F0E0ECFDE005915B
:101EF000149177240615170538F4E0ECFDE0059100
:101F0000039500931F05F5C160921F05F2C163940C
:101F1000E4ECFDE00591202FE6ECFDE00591109149
:101F2000280C133009F408E0621610F0061520F4AE
:101F30000FE30093C303DDC1062D005D0093C303CF
:101F40000091060D0615D9F102E007C020E010E06F
:101F5000F801EA55FC4F248303951091060D1017E4
:101F6000A8F76092060D0E9464440E945C3A0E94A9
:101F70005A3E01E00E942D3F0E9414420E94F44309
:101F80000E9464440091060D033021F401E00093A7
:101F9000AC03AFC10091280C033089F40091060D09
:101FA000043068F001E007C021E010E0F801EA55D4
:101FB000FC4F248303951091060D1017A8F799C1C3
:101FC0007724EAECFDE0059114916016710640F06B
:101FD000ECECFDE00591149177240615170538F413
:101FE0000FE30093CE030FE30093CF0382C14AE0D7
:101FF000062D0E94C07A005D0093CE034AE0062DB4
:102000000E94C07A405D4093CF0373C10091050DDB
:10201000013039F4E0EDFDE08591E2EDFDE0A591C0
:1020200002C080E0A6E3681610F0A61538F40FE3AE
:102030000093D7030FE30093D8030EC04AE0062DA8
:102040000E94C07A005D0093D7034AE0062D0E94EB
:10205000C07A405D4093D8030091060D0330D9F457
:102060006090DC06681610F0A61538F40FE30093B4
:10207000DF030FE30093E0033CC14AE0062D0E941A
:10208000C07A005D0093DF034AE0062D0E94C07A0B
:10209000405D4093E0032DC180E0A8E4442421C0CA
:1020A0004AE0062D0E94C07A005D242D30E0220F08
:1020B000331FF901E15EFB4F20813181F90100837B
:1020C0004AE0062D0E94C07A405D042D10E0000F0A
:1020D000111FF801E15EFB4F00811181F80141837E
:1020E000439404E0401610F55524F201E952F94FEB
:1020F0006480681610F0A61598F62FE3042D10E002
:10210000000F111FF801E15EFB4F00811181F80102
:1021100020832FE3042D10E0000F111FF801E15E72
:10212000FB4F00811181F8012183DACFE2C07724CF
:10213000ECEDFDE0059114916016710640F0EEEDB6
:10214000FDE00591149177240615170538F40FE387
:10215000009327040FE3009328040EC04AE0062DE5
:102160000E94C07A005D009327044AE0062D0E9479
:10217000C07A405D409328040091060D033039F584
:102180006090DC067724ECEDFDE00591149160167B
:10219000710640F0EEEDFDE00591149177240615EF
:1021A000170538F40FE300932D040FE300932E047A
:1021B000A0C04AE0062D0E94C07A005D00932D0465
:1021C0004AE0062D0E94C07A405D40932E0491C0E3
:1021D0007724E2EEFDE0059114916016710640F05F
:1021E000E4EEFDE00591149177240615170520F41F
:1021F00002E0009337047DC0609237047AC0EAEEB3
:10220000FDE00591149177240615170538F4EAEEE0
:10221000FDE00591039500933D046BC060923D0481
:1022200068C0E0EFFDE005911491772406151705CD
:1022300038F4E0EFFDE00591039500933E0459C0AA
:1022400060923E0456C07724ECE0FEE005911491C4
:102250006016710640F0EEE0FEE0059114917724DF
:102260000615170520F400E00093640B3FC0609250
:10227000640B0091290C002321F40091290C0930F2
:10228000A8F50091DC0610E020E0322F212F102F5E
:1022900000E04091DD0650E060E070E0040F151FA3
:1022A000261F371F322F212F102F00E04091DE060E
:1022B00050E060E070E0040F151F261F371F322F1B
:1022C000212F102F00E04091DF0650E060E070E029
:1022D000040F151F261F371F48EE53E060E070E023
:1022E0000E943A7B0093650B1093660B01E000930C
:1022F000B20201E000933D0B01E000933B0BE8E0EC
:102300000C94B77B0E94B07B802F082FEEE5F0E0A5
:10231000FBBFFAE10C94657B813119F4AFE3B4E0C3
:1023200002C0A8E8B4E00091DB0610E0E2E1FEE0C4
:10233000259134910217130750F0E4E1FEE0259156
:1023400034910091DB0610E02017310730F40FE3E1
:102350000C930FE3FD010183C1C00091DB064AE04D
:102360000E94C07A005D0C930091DB064AE00E9457
:10237000C07A405DFD014183B1C0823119F4A5E40A
:10238000B4E002C0AEE8B4E00091DB0610E0E8E1A2
:10239000FEE0259134910217130750F0EAE1FEE0C8
:1023A000259134910091DB0610E02017310748F4A5
:1023B0000FE30C930FE3FD0101830FE3FD010283A3
:1023C0008DC00091DB060A3058F40091DB06005DF9
:1023D0000C9300E3FD01018300E2FD0102837EC056
:1023E0000091DB064AE00E94C07A005D0C930091E8
:1023F000DB064AE00E94C07A405DFD01418300E3B4
:10240000FD0102836BC0833119F4A8EEBBE002C06A
:10241000A8E0BCE000E00BC010E0F801E952F94F81
:10242000248110E0FD01E00FF11F2083039510913E
:10243000DA06011708F510E0F801E952F94F248196
:1024400030E0EEE1FEE0459154912417350768F045
:10245000E0E2FEE04591549110E0F801E952F94FB5
:10246000248130E042175307B8F62FEF10E0FD014A
:10247000E00FF11F2083DACF31C0843119F4A0E7D7
:10248000B4E002C0A9EBB4E000E00BC010E0F8013A
:10249000E952F94F248110E0FD01E00FF11F208384
:1024A00003951091DA06011788F318C0853119F4E5
:1024B000A4E7B4E002C0ADEBB4E000E00BC010E074
:1024C000F801E952F94F248110E0FD01E00FF11FFE
:1024D000208303951091DA06011788F301E0009339
:1024E0003D0B01E000933B0BE4E00C94BB7B0152FD
:1024F00061F00A9561F10A9509F46BC00A9509F437
:10250000AAC00A9509F4B9C0C9C0E2E3FEE025916A
:1025100034910091DB0610E02017310738F40FE307
:102520000093C1040FE30093C204B8C00091DB061E
:102530004AE00E94C07A005D0093C1040091DB066E
:102540004AE00E94C07A405D4093C204A7C0009157
:10255000DB0610E0E6E3FEE0259134910217130755
:1025600050F0E8E3FEE0259134910091DB0610E0A5
:102570002017310750F40FE30093C7040FE30093D3
:10258000C8040FE30093C90489C00091DB060A3038
:1025900060F40091DB06005D0093C70400E3009344
:1025A000C80400E20093C90479C00091DB064AE048
:1025B0000E94C07A005D0093C7040091DB064AE0E8
:1025C0000E94C07A405D4093C80400E30093C904B0
:1025D00065C00091DB0610E0ECE3FEE0259134914C
:1025E0000217130750F0EEE3FEE0259134910091BD
:1025F000DB0610E02017310750F40FE30093CE0400
:102600000FE30093CF040FE30093D00447C0009181
:10261000DB060A3060F40091DB06005D0093CE0417
:1026200000E30093CF0400E20093D00437C0009190
:10263000DB064AE00E94C07A005D0093CE04009160
:10264000DB064AE00E94C07A405D4093CF0400E37D
:102650000093D00423C000E00BC010E0F801E95261
:10266000F94F248110E0F801E751FB4F20830395D7
:102670001091DA06011788F311C000E00BC010E0DA
:10268000F801E952F94F248110E0F801E351FB4FC2
:10269000208303951091DA06011788F301E0009377
:1026A0003D0B01E000933B0B089540E020C050E05B
:1026B00003E010E00E94DE7AF801E952F94F25812B
:1026C000042F10E0000F111FF801EA54FC4F218382
:1026D00050E003E010E00E94DE7AF801E952F94F81
:1026E000068150E0FA01E154FC4F008343954430E9
:1026F000E0F550E003E010E00E94DE7AF801E952D4
:10270000F94F0481063050F02EE4042F10E0000F42
:10271000111FF801EA54FC4F208311C050E003E080
:1027200010E00E94DE7AF801E952F94F2481042F6B
:1027300010E0000F111FF801EA54FC4F208350E015
:1027400003E010E00E94DE7AF801E952F94F0581BA
:102750000C3008F4ACCF2EE4042F10E0000F111F52
:10276000F801EA54FC4F2183B3CF01E000933D0B05
:10277000089500E00BC010E0F801E952F94F248100
:1027800010E0F801E65BF44F20830395043198F3E1
:102790000091560B002321F40091570B002321F0E8
:1027A00001E000930B0D03C000E000930B0D0091BE
:1027B000580B002321F40091590B002321F001E074
:1027C00000930C0D03C000E000930C0D00914A0B28
:1027D000002321F400914B0B002321F001E0009332
:1027E0000D0D03C000E000930D0D00914C0B002374
:1027F00021F400914D0B002321F001E000930E0D18
:1028000003C000E000930E0D30E020E007C0422F2F
:1028100001E010E00E94E87A302B23950091060D2C
:102820002017A8F300914E0B032300933804009166
:102830004F0B5ED000914E0B002321F400914F0B03
:10284000002321F001E000930F0D03C000E000938E
:102850000F0D0091500B002321F40091510B002328
:1028600021F001E00093100D03C000E00093100D73
:102870000091520B002321F40091530B002321F00F
:1028800001E00093110D03C000E00093110D0091D1
:10289000540B002321F40091550B002321F001E09B
:1028A0000093120D03C000E00093120D00915A0B2B
:1028B000002321F400915B0B002321F001E0009341
:1028C000130D03C000E00093130D00915C0B002377
:1028D00021F400915D0B002321F001E00093140D21
:1028E00003C000E00093140D01E000933D0B089538
:1028F0000E94B17B902F80E0A92F943688F044E6A7
:102900000A2F0E94C07A005D282F30E0F901E75CB1
:10291000FB4F0083839544E60A2F0E94C07AA42FC0
:102920009A3058F04AE00A2F0E94C07A005D90E089
:10293000FC01E75CFB4F008383954AE00A2F0E946D
:10294000C07A405D90E0FC01E75CFB4F40838395DB
:1029500007C000E290E0FC01E75CFB4F0083839539
:102960008430B8F3E3E00C94BC7B392F682F0091DE
:10297000DB060F70005D0093C7020091DB06029535
:102980000F70005D0093C6020091DC060F70005DC1
:102990000093C4020091DC0602950F70005D009365
:1029A000C3020091DD060F70005D0093C10200912B
:1029B000DD0602950F70005D0093C0020091DE06F7
:1029C0000F70005D0093CA020091DE0602950F7041
:1029D000005D0093C9020091DF060F70005D009357
:1029E000CD020091DF0602950F70005D0093CC02CE
:1029F0000091E0060F70005D0093D0020091E006A8
:102A000002950F70005D0093CF0200E004C010E05B
:102A10001093A7020395083068F510E0F801E05420
:102A2000FD4F108110531A3068F010E0F801E054A7
:102A3000FD4F10811E3231F01091A60213951093B4
:102A4000A60203C010E01093A60210E0F801E753BD
:102A5000FD4F108110531A30D0F210E0F801E75307
:102A6000FD4F10811A3399F21091A702139510931C
:102A7000A702D0CF8091C70290E04091C60250E0FB
:102A80000AE010E00E94DE7A800F911F8051924090
:102A9000843600E090072CF00091A6020395009385
:102AA000A6028091C40290E04091C30250E00AE087
:102AB00010E00E94DE7A800F911F805192408D308D
:102AC00090402CF00091A60203950093A6028091FD
:102AD000C10290E04091C00250E00AE010E00E9484
:102AE000DE7A800F911F80519240803290402CF00E
:102AF0000091A60203950093A6028091CA0290E07D
:102B00004091C90250E00AE010E00E94DE7A800F96
:102B1000911F80519240893190402CF00091A70282
:102B200003950093A7028091CD0290E04091CC02E2
:102B300050E00AE010E00E94DE7A800F911F805181
:102B400092408D3300E090072CF00091A70203958E
:102B50000093A7028091D00290E04091CF0250E014
:102B60000AE010E00E94DE7A800F911F80519240AF
:102B70008D3300E090072CF00091A702039500939D
:102B8000A7020091A602002301F100E30093C7020F
:102B900000E30093C60200E30093C40200E3009345
:102BA000C30200E30093C10200E30093C00200E00F
:102BB0000093A60200E00330B8F420E010E0F80132
:102BC000E056FD4F20830395F6CF00E00BC010E0E8
:102BD000F801E952F94F248110E0F801E056FD4F69
:102BE00020830395033098F30091A702002301F19D
:102BF00000E30093CA0200E30093C90200E30093DC
:102C0000CD0200E30093CC0200E30093D00200E386
:102C10000093CF0200E00093A70200E00330B8F475
:102C200020E010E0F801E056FD4F23830395F6CF36
:102C300000E00BC010E0F801E952F94F278110E0E5
:102C4000F801E056FD4F23830395033098F301E02C
:102C500000933D0B01E00093B202862F932F08955D
:102C60000E94AF7BD801822F942F452E3A95082FD2
:102C700007C020E210E0FD01E00FF11F2083039563
:102C80000830B8F300E8401658F00FEF40264394A0
:102C90002DE2082F10E0FD01E00FF11F2083839546
:102CA000042D10E0432F0E94E87A402E03E64016E0
:102CB000C8F44AE0042D0E94C07A005D282F30E05D
:102CC000FD01E20FF31F008383954AE0042D0E946B
:102CD000C07A405D082F10E0FD01E00FF11F408336
:102CE000839510C02FE3082F10E0FD01E00FF11FC6
:102CF000208383952FE3082F10E0FD01E00FF11FE3
:102D000020838395915019F09A9539F012C003EE03
:102D100090E0A80FB91F0C930CC004EE90E0FD01E9
:102D2000E80FF91F008301EC90E0A80FB91FFD0127
:102D30000183E5E00C94BA7B0E94AE7BD801822F20
:102D4000932F2A01082F07C020E210E0FD01E00FB9
:102D5000F11F208303950830B8F36415750508F456
:102D60006BC008EE401603E0500618F148EE53E041
:102D700082010E94EB7A202F082F10E0FD01E00F66
:102D8000F11F2083082F10E0FD01E00FF11F4081AB
:102D900050E008EE13E00E94DE7A401A510A082F34
:102DA000802F839510E0FD01E00FF11F0081005D91
:102DB000008304E6401600E0500618F144E650E0B7
:102DC00082010E94EB7A202F082F10E0FD01E00F16
:102DD000F11F2083082F10E0FD01E00FF11F40815B
:102DE00050E004E610E00E94DE7A401A510A082FF3
:102DF000802F839510E0FD01E00FF11F0081005D41
:102E000000834AE050E082010E94EB7A005D282FA7
:102E100030E0FD01E20FF31F008383954AE050E0AC
:102E200082010E94EB7A405D082F10E0FD01E00F67
:102E3000F11F4083839510C02FE3082F10E0FD01A0
:102E4000E00FF11F208383952FE3082F10E0FD0191
:102E5000E00FF11F20838395915049F09A95A1F0DE
:102E60009A95C1F09A95E1F09A95B1F150C00CEEA7
:102E700090E0FD01E80FF91F0083839500EC90E0DE
:102E8000A80FB91F0C9343C005E290E0A80FB91F2B
:102E90000C933DC003EE90E0A80FB91F0C9337C010
:102EA00000E290E0FD01E80FF91F0083839501EF38
:102EB00090E0FD01E80FF91F0083839505EE90E097
:102EC000FD01E80FF91F008383950AEE90E0A80F3B
:102ED000B91F0C9383951BC000E290E0FD01E80F41
:102EE000F91F008383950CEE90E0FD01E80FF91FB8
:102EF0000083839508EE90E0FD01E80FF91F008341
:102F000083950DEE90E0A80FB91F0C938395E6E032
:102F10000C94B97B432F42954F704A3018F0495CAE
:102F2000542F02C0405D542F452F622F70E0F801EE
:102F3000E60FF71F40833F70432F4A3018F0495C7B
:102F4000342F02C0405D342F432F30E0020F131F97
:102F5000F801418308950E94AE7B8091DB06A09129
:102F6000DC0600E010E000939A0C10939B0C082FF5
:102F70000D59073C20F40A2F065A053B50F00FE389
:102F80000093930C0FE30093940C00E00093950CD6
:102F900084C04424242D422E4394082F0A2B007809
:102FA000002311F00DE201C00BE230E0F901ED5613
:102FB000F34F008388231AF400E0081B802FAA2314
:102FC0001AF400E00A1BA02F082F0A2B002331F46B
:102FD00000E30093930C00E00093940C8A305CF0C3
:102FE0004AE0082F0E94CE7A005D5524F201ED568A
:102FF000F34F008343944AE0082F0E94CE7A405D4D
:103000005524F201ED56F34F408343940EE25524CC
:10301000F201ED56F34F008343944AE00A2F0E94D9
:10302000CE7A005D5524F201ED56F34F00834394B0
:1030300002EC5524F201ED56F34F0083439400E077
:103040005524F201ED56F34F00834394482F542F3B
:10305000550F550B0AE010E00E94DE7AC8010A2FD6
:10306000102F110F110B4AE050E00E94037B800FDC
:10307000911F80939A0C90939B0C0091930C0D32AE
:1030800061F400E010E020919A0C30919B0C021B3F
:10309000130B00939A0C10939B0CA1E0B6C02DE289
:1030A0004A2F50E009E010E00E94DE7AE3E9FCE0FC
:1030B000E00FF11F032F10E0E00FF11F2083992391
:1030C0002AF40FEF1FEF802791270196843600E046
:1030D0009007D4F144E650E08C010E94037B202F3E
:1030E0004A2F50E009E010E00E94DE7AE3E9FCE0BC
:1030F000E00FF11F5524E40DF51D20834A2F50E009
:1031000009E010E00E94DE7AE3E9FCE0E00FF11F45
:103110005524E40DF51D408150E004E610E00E94C6
:10312000DE7A801B910B4A2F50E009E010E00E94EC
:10313000DE7AE3E9FCE0E00FF11F5524E40DF51D14
:103140000081005D008343948A3000E09007B4F072
:103150004AE050E08C010E94037B202F205D4A2F23
:1031600050E009E010E00E94DE7AE3E9FCE0E00FC5
:10317000F11F5524E40DF51D208343944AE050E0EF
:103180008C010E94037B242F205D4A2F50E009E030
:1031900010E00E94DE7AE3E9FCE0E00FF11F552425
:1031A000E40DF51D208343942CEE4A2F50E009E0F6
:1031B00010E00E94DE7AE3E9FCE0E00FF11F552405
:1031C000E40DF51D2083439420EC4A2F50E009E0E4
:1031D00010E00E94DE7AE3E9FCE0E00FF11F5524E5
:1031E000E40DF51D2083439420E04A2F50E009E0D0
:1031F00010E00E94DE7AE3E9FCE0E00FF11F5524C5
:10320000E40DF51D20834394A395A33008F07AC004
:103210000A2F10E0000F111FF801E952F94F9481B5
:1032200080E00A2F10E0000F111FF801E952F94F5A
:10323000058110E0800F911F20E030E04A2F50E020
:1032400009E010E00E94DE7AF801ED56F34F278383
:1032500030878C0109511C4F0F3C27E0120710F1F9
:103260002FE34A2F50E009E010E00E94DE7AF801D7
:10327000ED56F34F20832FE34A2F50E009E010E092
:103280000E94DE7AF801ED56F34F218320E04A2FA9
:1032900050E009E010E00E94DE7AF801ED56F34FAD
:1032A0002283B2CF082F092BB9F420E34A2F50E034
:1032B00009E010E00E94DE7AF801ED56F34F20831A
:1032C00020E04A2F50E009E010E00E94DE7AF80189
:1032D000ED56F34F218398CF44244A2F50E009E064
:1032E00010E00E94DE7AF801ED56F34F8783908755
:1032F000342D432E4394813000E090070CF4CFCE60
:103300002BE2CECEE6E00C94B97B0091DB0610E018
:10331000E0ECFEE0259134910217130740F0E2EC57
:10332000FEE02591349110E02017310720F4E2EC03
:10333000FEE0059103950093920C08959A938A9369
:103340000091DB06002309F030C15091DC0641E01A
:1033500032E022E006EF12E083DC3091DC0623E06D
:103360000BED12E0D7DD3091DD0625E00BED12E02C
:10337000D1DD3091DE0620E00091DF0610E0200F65
:10338000311F2093480B3093490B67EE73E0409157
:10339000480B5091490B31E023E00FEF12E0CCDCF9
:1033A0000091E1064AE00E94C07A00931F03409119
:1033B000E00650E00AE010E00E94DE7A20911F0350
:1033C00030E0020F131F0093460B1093470B8091C0
:1033D000460B9091470B0096883E03E0900720F43F
:1033E00000911F030A3080F000E010E00093460BCC
:1033F0001093470B0FE300931C030FE300931D038F
:103400000FE300931F0315C00091E0064AE00E94FD
:10341000C07A005D00931C030091E0064AE00E9420
:10342000C07A405D40931D0300911F03005D00932F
:103430001F035091E20642E031E023E00CE213E08A
:103440000FDC0091060D033041F45091E30642E099
:1034500031E023E005E313E003DC0091640B04306A
:10346000E1F40091B6030430C0F400E00093E406F8
:1034700000E00093E50600E00093EA0600E0009318
:10348000EB0600E00093EC0600E00093ED0600E0A0
:103490000093EE0600E00093EF065091E40642E050
:1034A00031E023E00EE313E0DBDB0091060D033097
:1034B00049F45091E50642E031E023E007E413E0EF
:1034C000CFDB40C00091060D0430E0F10091280CE4
:1034D0000330C1F55091E50642E031E023E007E416
:1034E00013E0BEDB5091EA0642E031E023E000E564
:1034F00013E0B6DB5091EB0642E031E023E009E552
:1035000013E0AEDB5091EC0642E031E023E002E64E
:1035100013E0A6DB5091ED0642E031E023E00BE63C
:1035200013E09EDB5091EE0642E031E023E004E739
:1035300013E096DB5091EF0642E031E023E00DE727
:1035400013E08EDB5091E60642E031E023E003E237
:1035500013E086DB63E670E04091E70650E032E07E
:1035600024E008E013E0E8DB3091E70623E004EE16
:1035700012E0D0DC5091E80640E00091E90610E04E
:10358000400F511F68E671E033E023E001E113E0F2
:10359000D3DB3091E80623E00DEE12E0BBDC309186
:1035A000E90625E00DEE12E0B5DC01E00093B30280
:1035B00001E000933D0B8991999108959A938A9324
:1035C000ECE7F0E0FBBFFAE10C94657BE6E5FEE09A
:1035D000259134910091DB0610E02017310720F48B
:1035E00002E00093F1041BC40091DB060093F10498
:1035F00016C40091DB0610E0EAE5FEE02591349167
:103600000217130750F0ECE5FEE02591349100918C
:10361000DB0610E02017310738F40FE30093F204C3
:103620000FE30093F304FBC30091DB064AE00E9422
:10363000C07A005D0093F2040091DB064AE00E942C
:10364000C07A405D4093F304EAC3E0E5FEE02591D3
:1036500034910091DB0610E02017310750F4E0E5CB
:10366000FEE0059103950093280C0FEF0093290CC1
:10367000D6C30091DB060093280C0091280C109112
:10368000290C011709F4CBC30091280C0093290CD5
:103690000E945C3A0E945A3E01E00E942D3F0E9427
:1036A00014420E94F4430E9464440091B5020A301F
:1036B00021F00091B502003181F400912A0C0A95A5
:1036C0000093B10C0091B10C1091B00C011780F572
:1036D0000091B10C0093B00CA2C30091B502073069
:1036E00021F00091B5020D3081F400916A0B0A952A
:1036F0000093B10C0091B10C1091B00C0117C0F403
:103700000091B10C0093B00C8AC30091B502063150
:1037100079F40091940B03500093B10C0091B10C1B
:103720001091B00C011720F40091B10C0093B00C73
:1037300076C30091DB064AE00E94C07A405D409368
:10374000FA040091DB064AE00E94C07A0093DB068F
:103750000091DB064AE00E94C07A405D4093F90484
:103760000091DB064AE00E94C07A005D0093F804F5
:1037700056C30091050D023081F48091DB06EEE620
:10378000FEE00591149190E00817190710F480E30A
:1037900001C0805D8093FC0448C30091280C043074
:1037A00041F58091DB0690E0E6ECFEE00591149196
:1037B0008017910740F0E8ECFEE00591149190E04D
:1037C0000817190738F40FE3009312050FE300936D
:1037D000130525C34AE0082F0E94C07A005D0093BC
:1037E00012054AE0082F0E94C07A405D40931305FD
:1037F00016C38091DB0690E0ECE9FEE005911491A0
:103800008017910740F0EEE9FEE00591149190E0F9
:103810000817190720F4EEE9FEE08591839580935F
:10382000530C8091DC0690E0E2EAFEE005911491F1
:103830008017910740F0E4EAFEE00591149190E0D2
:103840000817190720F4E4EAFEE085918395809338
:10385000540C8091DD0690E0E8EAFEE005911491B9
:103860008017910740F0EAEAFEE00591149190E09C
:103870000817190750F40FE30093550C0FE300935A
:10388000560C0FE30093570C1AC04AE0082F0E9411
:10389000C07A405D4093570C4AE0082F0E94C07ADE
:1038A000802F4AE0082F0E94C07A405D4093560C5A
:1038B0004AE0082F0E94C07A005D0093550C809169
:1038C000DE064AE0082F0E94C07A405D4093610CFA
:1038D0004AE0082F0E94C07A802F4AE0082F0E94F9
:1038E000C07A405D4093600C4AE0082F0E94C07A85
:1038F000005D00935F0C8091DF0690E0E4EBFEE05A
:10390000059114918017910740F0E6EBFEE00591D8
:10391000149190E00817190738F40FE30093690C2D
:103920000FE300936A0C0EC04AE0082F0E94C07A91
:10393000005D0093690C4AE0082F0E94C07A405D48
:1039400040936A0C8091E00690E0EAEBFEE005917E
:1039500014918017910740F0ECEBFEE00591149173
:1039600090E00817190720F4ECEBFEE085918395B1
:103970008093730C8091E10690E0ECECFEE0059101
:1039800014918017910740F0EEECFEE00591149140
:1039900090E00817190750F40FE30093740C0FE33D
:1039A0000093750C0FE30093750C0BC0EEECFEE07A
:1039B00065917491482F50E034E020E004E71CE06A
:1039C000BBD98091E20690E0E2EDFEE00591149112
:1039D0008017910740F0E4EDFEE00591149190E02E
:1039E0000817190750F40FE300937E0C0FE30093C0
:1039F0007F0C0FE30093800C0BC0E4EDFEE06591BB
:103A00007491482F50E034E020E00EE71CE094D998
:103A10008091E30690E0E8EDFEE0059114918017B7
:103A2000910740F0EAEDFEE00591149190E008174F
:103A3000190738F40FE30093880C0FE30093890C07
:103A4000EEC1EAEDFEE065917491482F50E035E05B
:103A500020E008E81CE070D9E2C13091DB0620E0EC
:103A60000091DC0610E0200F311F20933F053093BA
:103A7000400500E00093DB0600913F0510914005F2
:103A8000E2E7FEE0259134910217130720F401E0EC
:103A90000093DB060EC0E4E7FEE00591149120914F
:103AA0003F05309140050217130718F401E0009319
:103AB000DB060091DB060023F9F00FE3009302051B
:103AC0000FE3009303050FE30093040500E2009366
:103AD00005050AEE0093060503EC0093070506EFC3
:103AE000009308050FE30093D2020FE30093D30283
:103AF0000FE30093D402D2C000913F05109140051E
:103B0000043620E0120730F54AE050E000913F050E
:103B1000109140050E94EB7A005D009302054AE097
:103B200050E000913F05109140050E94EB7A405D06
:103B30004093030500E2009304050AEE0093050597
:103B400003EC0093060506EF0093070500E20093DF
:103B5000080598C000913F0510914005083E23E0FC
:103B60001207D0F544E650E000913F051091400562
:103B70000E94EB7A005D0093020544E650E000915C
:103B80003F05109140050E94EB7A40933F0550930A
:103B900040054AE050E000913F05109140050E9429
:103BA000EB7A005D009303054AE050E000913F0589
:103BB000109140050E94EB7A405D4093040500E2BD
:103BC000009305050AEE0093060503EC0093070534
:103BD00006EF0093080556C000913F05109140057F
:103BE000003127E2120708F04DC048EE53E0009183
:103BF0003F05109140050E94EB7A005D009302059D
:103C000048EE53E000913F05109140050E94EB7A89
:103C100040933F055093400544E650E000913F0536
:103C2000109140050E94EB7A005D0093030544E685
:103C300050E000913F05109140050E94EB7A4093BF
:103C40003F05509340054AE050E000913F05109138
:103C500040050E94EB7A005D009304054AE050E0C5
:103C600000913F05109140050E94EB7A405D409322
:103C700005050AEE0093060503EC0093070506EF21
:103C800000930805009102050093D20200910305FC
:103C90000093D302009104050093D40201E0009345
:103CA000B202BDC0E8E7FEE00591EAE7FEE025913B
:103CB0001091280C133011F42091060D1091DB06A1
:103CC000101720F00091DB06201738F40FE3009363
:103CD0000A050FE30093D90209C00091DB06005DDD
:103CE00000930A0500910A050093D90201E00093B0
:103CF000B20295C080E00091DB06802FE6E8FEE08E
:103D00000591149190E00817190738F40FE3009318
:103D10000C050FE300930D050EC04AE0082F0E942A
:103D2000C07A005D00930C054AE0082F0E94C07A1B
:103D3000405D40930D058091DC06ECE8FEE00591C6
:103D4000149190E00817190738F40FE300937804F2
:103D50000FE3009379040EC04AE0082F0E94C07A56
:103D6000005D009378044AE0082F0E94C07A405D0D
:103D7000409379040091060D0330F9F48091DD063B
:103D8000ECE8FEE00591149190E00817190738F46B
:103D90000FE300937E040FE300937F040EC04AE01C
:103DA000082F0E94C07A005D00937E044AE0082F2D
:103DB0000E94C07A405D40937F048091DE06E0EE71
:103DC000FEE00591149190E00817190738F40FE30D
:103DD000009318050FE30093190521C04AE0082F4E
:103DE0000E94C07A005D009318054AE0082F0E94E7
:103DF000C07A405D4093190512C0E0E8FEE02591CD
:103E000034910091DB0610E02017310720F402E026
:103E100000931E0504C00091DB0600931E0501E01F
:103E200000933D0B01E000933B0B8991999108951C
:103E300040E001E000933D0B01E000933B0B0FE0FD
:103E400010E02091D90622952F7030E0021B130B51
:103E50002091E60C30E0F901EB51F34F228130E084
:103E60000217130709F441E00091D9060F700130E1
:103E7000D9F44423C9F00091DC06002359F000E096
:103E800011E00093EC0C1093ED0C0091DB06009315
:103E9000EE0C0AC00091DB0610E00093EC0C1093CE
:103EA000ED0C00E00093EE0C0091D9060F7002308B
:103EB000E1F4442379F000E00031B8F410E0F801B7
:103EC000E952F94F248110E0F801EB51F34F2287BA
:103ED0000395F2CF00E007C020E010E0F801EB51BD
:103EE000F34F228703950031B8F3089520E070E086
:103EF00021E00091DB06702F072F0F700023A9F03F
:103F000070FB16F423E003C071FB0EF424E0009173
:103F1000060D0330E9F52130D9F572FB16F425E0E2
:103F200037C073FBAEF526E033C00091000D0023CF
:103F300021F40091010D002359F10091010D109120
:103F4000000D011718F40091000D02C00091010D41
:103F5000602FECEDF6E037E070813196772381F049
:103F600050E001C05395583058F4452F01E010E05F
:103F70000E94E87A172F10231123A1F3232F250F76
:103F8000385F213011F4685001C060E0613024F7DF
:103F900020935D0D0091FF0C002349F07091DB062A
:103FA00074FB16F422E001C021E02093330D01E000
:103FB00000933D0B01E000933B0B089511E000E0FE
:103FC0000093E50C00E00093E70C0091DB06013064
:103FD00091F401E00093FF0C01E00093AB0320910A
:103FE000E50C23952093E50C03E030E0F901EB515B
:103FF000F34F02830BC000E00093FF0C00E000933E
:10400000A9030091DB06002309F010E00091DC0613
:10401000093070F40091DC06033051F01091DC0699
:1040200004E0109F0092020D01E00093AB0304C076
:1040300000E00093020D10E00091DD06093058F415
:104040000091DD06033039F01091DD0604E0109F89
:104050000092030D04C000E00093030D10E00091F6
:10406000DE06093058F40091DE06033039F0109175
:10407000DE0604E0109F0092010D04C000E00093F2
:10408000010D10E00091E506093028F40091E506E5
:104090000093280C04C010E000E00093280C02E01C
:1040A00007C020E010E0F801EA55FC4F2483039597
:1040B0000930B8F30091DF060330C1F503E0009347
:1040C000060D0091030D002321F40091FF0C002345
:1040D00019F001E00093AC030091FF0C002379F08C
:1040E0000091020D002359F00091030D002339F0D7
:1040F0000091010D002319F001E000930A0D0091D9
:10410000020D1091030D010F0093000D0091030D9E
:104110000023A1F12091E50C23952093E50C04E008
:1041200030E0F901EB51F34F028328C00091280CD5
:104130000330A9F40091DF06093088F40091DF060E
:104140000093060D01E01091060D0117B8F421E06F
:1041500010E0F801EA55FC4F25830395F4CF02E007
:104160000093060D00E00093030D0091020D0093F3
:10417000000D0091DF06023009F010E00091000D03
:10418000002359F02091E50C23952093E50C02E0E3
:1041900030E0F901EB51F34F02830091010D002350
:1041A00059F02091E50C23952093E50C01E030E0D7
:1041B000F901EB51F34F02830091E006023021F444
:1041C00002E00093050D08C001E00093050D009189
:1041D000E006013009F010E00091050D013021F4F6
:1041E00004E000933C0B03C003E000933C0B3091D0
:1041F000E10620E00091E20610E0200F311F20933D
:10420000AC023093AD023091E30620E00091E40669
:1042100010E0200F311F2093AE023093AF020091C7
:10422000EA0610E1019F00E000220FE01022009258
:10423000B0021092B1020091EA0610E00F70107007
:10424000EAEAF2E026813781200F311F2683378387
:104250000091050D023021F401E000932B0D13C0F5
:104260000091060D023021F402E000932B0D0BC0EB
:104270000091060D033021F404E000932B0D03C0E0
:1042800000E000932B0D00E00093160D0091FF0C51
:10429000002389F00EE115E02091160D30E0220F89
:1042A000331FF901E95EF24F008311830091160D6F
:1042B00003950093160D0091060D0230B1F40091A4
:1042C000000D0023E1F106E215E02091160D30E02B
:1042D000220F331FF901E95EF24F00831183009131
:1042E000160D03950093160D2AC00091020D0023B0
:1042F00089F003E415E02091160D30E0220F331F02
:10430000F901E95EF24F008311830091160D0395C8
:104310000093160D0091030D002389F00FE415E0C2
:104320002091160D30E0220F331FF901E95EF24FA4
:10433000008311830091160D03950093160D0091D3
:10434000010D002389F000E315E02091160D30E007
:10435000220F331FF901E95EF24F008311830091B0
:10436000160D03950093160D0CE315E02091160D24
:1043700030E0220F331FF901E95EF24F0083118311
:104380000091160D03950093160D0FEF0093290C65
:104390000E945C3A0E945A3E01E00E942D3F0E941A
:1043A00014420E94F4430E94644401E00093070D0C
:1043B00008959A938A93802F282F2A9507ED16E067
:1043C0000E94140F10E000933D0510933E052091CC
:1043D0003D0530913E0590E0FC01EA52F94F008125
:1043E00010E02017310719F0549A579AC9C000916C
:1043F000E707023009F04BC000E00BC010E0F80105
:10440000E952F94F208110E0F801E253FA4F20837E
:104410000395081798F30091D0050F3391F590E0BC
:10442000FC01E353FA4F40810091D1050331B0F410
:10443000202F2C5F08C010E030E0F901E253FA4F62
:104440001083239503950331B0F34D5E1091D10590
:10445000411B0093D105802F8B5F06C01091E305AF
:10446000411B1091E405411B17E01093E305410F38
:1044700014E61093E405410F10E0F801E253FA4FFF
:10448000448303E00093E7078093E80779C0009135
:10449000E707002309F074C047ED56E02091D906E4
:1044A00030E000915E0D10915F0D0E94032A009193
:1044B000D906007F005039F0005151F0005169F0E9
:1044C000005181F045C00091D9060E94630F56C08B
:1044D0000091D9060E94821151C00091D9060E9414
:1044E00077124CC00091D906005369F00A9571F01B
:1044F0000A9579F00A9581F00A95C1F00A50E9F021
:104500000A95F9F020C00E94551338C00E94B913D3
:1045100035C00E94B51432C00091050D013019F468
:104520000E94AB172BC00E94851928C00091050D71
:10453000013021F50E949E1921C00091DB06D6DCD6
:104540001DC03CDD1BC00091D9060E94DE1A16C0BA
:104550000091D906015C79F00A9579F00F5059F075
:104560000A9559F00F5039F00A9539F00F5019F0AB
:104570000A9519F003C05CDC01C05ADC549A579AC2
:104580000E94262900E00093E907899199910895F6
:104590000C018FEF3FEF60E014C070E0F801E60F10
:1045A000F71F40818427482F832F50E0FA01E457FA
:1045B000FF4F3491832750E0FA01E457FE4F3491C6
:1045C0006395621750F3132F00E090E0082B192B2E
:1045D000C001089530E040915F0B405019F04A95BA
:1045E00069F017C042E007C050E0F801E40FF51F82
:1045F0005081350F43954217B8F30BC040E007C018
:1046000050E0F801E40FF51F5081350F4395421734
:10461000B8F3032F08959A938A93812FEDE4F5E080
:1046200010811061108310915F0B105019F01A95D2
:10463000D9F03CC00093D0058093D105282F2C5F82
:104640000EEC15E0C7DF10E0009341051093420522
:104650000091410590E0FC01E253FA4F04838B5F27
:10466000082F0E94E52922C01091A8021093CE05C0
:104670000093CF05282F2D5F0EEC15E089DF009306
:104680004105109342050091410590E0FC01E25381
:10469000FA4F038310914205012F90E0FC01E25391
:1046A000FA4F04838B5F082F0E94E5298991999125
:1046B0000895EDE4F5E01081106110830093D005BA
:1046C00002E00093D10526E00EEC15E083DF10E058
:1046D0000093410510934205009141050093D405D4
:1046E00007E00E94E5290895EDE4F5E010811061EE
:1046F00010831091A8021093CE0510914F051068F9
:104700001093CF050093D00523E00EEC15E062DF97
:1047100010E000934105109342050091410500937C
:10472000D10510914205012F0093D20505E00E94AA
:10473000E52908959A938A93802F0E94F22900FB1D
:104740004EF400E00093D20500E00093D30501EEA3
:10475000B0DF77C300915F0B005021F00A9509F498
:1047600034C165C300914E05053509F023C10091A0
:104770004F050A3A09F01EC10091510510E0E82FDB
:10478000F0E035970E171F0751F000915105009387
:10479000D20585508093D30503EE8BDF52C3282FBB
:1047A0002A950EE415E016DF10E000934105109302
:1047B0004205209141053091420590E0FC01E35B08
:1047C000FA4F008110E02017310771F090E0FC01F2
:1047D000E35BFA4F00810093D205009141050093FD
:1047E000D30502EE66DF2DC300915005043729F092
:1047F00000915005033709F0BFC000915005043700
:1048000089F54091D00C50E008EE13E00E94DE7A6A
:1048100098014091D10C50E004E610E00E94DE7A4D
:10482000200F311F4091D20C50E00AE010E00E94AE
:10483000DE7A200F311F0091D30C10E0200F311FC2
:104840002055304D2093450530934605109146057F
:10485000012F0093D205009145050093D30512E086
:1048600002E7D9DE00915005033709F077C0309197
:10487000520520E00091530510E0200F311F2093D6
:1048800045053093460548EE53E0009145051091EB
:1048900046050E94EB7A005D0093D00C8091D00C0D
:1048A00090E0C09708EE13E0AC010E94DE7AE5E4E8
:1048B000F5E020813181201B310B2083318344E6D8
:1048C00050E000914505109146050E94EB7A005D8D
:1048D0000093D10C8091D10C90E0C09704E610E0D9
:1048E000AC010E94DE7AE5E4F5E020813181201BF5
:1048F000310B208331834AE050E00091450510914F
:1049000046050E94EB7A005D0093D20C8091D20C98
:1049100090E0C0970AE010E0AC010E94DE7AE5E486
:10492000F5E020813181201B310B20833183009100
:104930004505005D0093D30C10E003E76CDE01E059
:104940000093DD0700E010E00093E3071093E40715
:1049500000ED1CE00093DF071093E0070FE00093E9
:10496000A90200919A00006100939A0000919A00B8
:10497000006800939A0065C200E011C010E0F801E1
:10498000E25BFA4F208110E0F801E95AF84F2083EA
:1049900020E010E0F801E25BFA4F2083039508174E
:1049A00068F38093E80701E00093E7070FE00093C6
:1049B000A90247C200919A00006100939A000091F9
:1049C0009A00006800939A003CC200914E05109135
:1049D000A802011709F020C2282F22500EE415E08A
:1049E000D7DD009341051093420590E0FC01E45BA4
:1049F000FA4F008190E0FC01E35BFA4F10810093D5
:104A00004305109344050091410510914205209102
:104A10004305309144050217130769F000914105E1
:104A20000093D00510914205012F0093D10511E0AC
:104A30000FEFF1DDF6C13091500520E000915105F6
:104A400010E0200F311F2093480530934905009155
:104A500053050093470500914F05035021F0035083
:104A600009F4B2C1D6C100914705013420F4009188
:104A70004705002319F403E037DED3C10091480550
:104A8000109149050A5F1040063023E01207A8F094
:104A900020914805309149050091470510E0200F0D
:104AA000311F2B3F00E0300758F00091480510916E
:104AB0004905003024E0120718F402E015DEB1C108
:104AC0001091470502E0109F0092D0050091480523
:104AD000109149050A3F20E0120718F580E015C043
:104AE000609148057091490590E0680F791F02E0D8
:104AF000809F03E0000E402D2EEC35E000915E0D0E
:104B000010915F0D0E94512A8395009147058017EF
:104B100038F31091470502E0109F102D03E07BDD74
:104B200080C10091480510914905005014400030A3
:104B30002EE1120708F046C001E00093E30C20E0EC
:104B400030E000915E0D10915F0D0E94302D4FE01E
:104B5000009147050E94C07A0093E20C0091E20C9C
:104B6000002329F40091E20C03950093E20C8FE0FE
:104B700090E00091480510914905005014404FE025
:104B800050E00E94EB7A841B950B0091470510E0E2
:104B90008017910728F40091E20C03950093E20C32
:104BA0000091480510914905005014404FE050E035
:104BB0000E94EB7A00934A0510934B0502EF009395
:104BC000E40C2FC100914805109149050050144292
:104BD00000302EE1120708F04BC001E00093E30C17
:104BE00020E030E000915E0D10915F0D0E94302DAD
:104BF0004FE0009147050E94C07A0093E20C0091BB
:104C0000E20C002329F40091E20C03950093E20CDE
:104C10000091480510914905005014424FE050E0C2
:104C20000E94EB7A40934C050FE010E020914C0578
:104C300030E0021B130B2091470530E002171307E9
:104C40002CF40091E20C03950093E20C00914805CE
:104C500010914905005014424FE050E00E94EB7A59
:104C600000934A0510934B0502EC0093E40CD9C065
:104C700000914805109149050050144400302EE180
:104C8000120708F04BC001E00093E30C20E030E095
:104C900000915E0D10915F0D0E94302D4FE000914C
:104CA00047050E94C07A0093E20C0091E20C0023B9
:104CB00029F40091E20C03950093E20C0091480561
:104CC00010914905005014444FE050E00E94EB7AE7
:104CD00040934C050FE010E020914C0530E0021BA2
:104CE000130B2091470530E0021713072CF40091B5
:104CF000E20C03950093E20C0091480510914905E0
:104D0000005014444FE050E00E94EB7A00934A05B3
:104D100010934B0502ED0093E40C83C0009148050D
:104D2000109149050050144600302EE1120708F09A
:104D300078C001E00093E30C20E030E000915E0DCC
:104D400010915F0D0E94302D4FE0009147050E94A9
:104D5000C07A0093E20C0091E20C002329F4009148
:104D6000E20C03950093E20C00914805109149056F
:104D7000005014464FE050E00E94EB7A40934C05FF
:104D80000FE010E020914C0530E0021B130B209146
:104D9000470530E0021713072CF40091E20C03954D
:104DA0000093E20C0091480510914905005014460B
:104DB0004FE050E00E94EB7A00934A0510934B05B8
:104DC00002EE0093E40C2DC05091520540E000919A
:104DD000530510E0400F511F2091480530914905BF
:104DE00000915E0D10915F0D0E94982A00E00BC0AB
:104DF00010E0F801E25BFA4F208110E0F801E25385
:104E0000FA4F20830395063098F313E006E003DCA5
:104E100008C001E069DC05C000919A0000610093C0
:104E20009A0000919A00006800939A000AC00091CD
:104E30009A00006100939A0000919A000068009324
:104E40009A000E94FF298991999108950FEC09B960
:104E50001098119A1898199A0EE00093950008E19D
:104E60000AB9549A579A06B70D7F06BF07B7016073
:104E700007BF05E002BF04E003BF05E50093570745
:104E80000AEA0093580705E50093D7060AEA00935B
:104E9000D8060895FA93EA935A934A933A932A9339
:104EA0001A930A934FB75BB70CB15C9952C010913B
:104EB000D907105039F01A9559F01A9599F01A95AA
:104EC000B9F027C0053519F401E00093D90741C0B6
:104ED0000A3A21F402E00093D9073BC000E00093B6
:104EE000D90737C00093D90603E00093D90731C032
:104EF0000093DA060C3720F010E01093D90703C0B6
:104F000014E01093D9071091D907100F1093DA0706
:104F100020C02091D90730E0F901E952F94F008310
:104F20000091D9071091DA07011770F001E00093A2
:104F3000E90700E00093D907549857980091DA07E1
:104F400003950093EA0705C00091D90703950093E4
:104F5000D9075BBF4FBF09911991299139914991A7
:104F60005991E991F9911895FA93EA933A932A9312
:104F70001A930A932FB73BB70091D7071091D80720
:104F8000011784F40091D707102F110F110BF801AE
:104F9000E95AF84F00810CB90091D70703950093A7
:104FA000D7070FC05398559800E00093D80700E04A
:104FB0000093D707549A579AE6EDF6E000810F7EEA
:104FC00000833BBF2FBF0991199129913991E99134
:104FD000F99118959A938A93FA93EA933A922A92BE
:104FE0001A920A927A936A935A934A933A932A931B
:104FF0001A930A938FB79BB72197A89505E002BF34
:1050000000913F08003F09F045C00091E7070023E9
:1050100009F040C00E946F370093D3060091D30679
:105020001091D206011721F00091D306003FD1F470
:10503000E4EDF6E0008111810F5F1F4F00831183C3
:105040000091D4061091D506013921E0120784F0B1
:1050500000E911E00093D4061093D50600EF009309
:10506000D20606C000E010E00093D4061093D506E7
:105070000091D3061091D206011761F00091D3067A
:10508000003F41F00091D30600933F080091D30602
:105090000093D2060091D006053078F10091D10638
:1050A000013029F0EDE4F5E0008100FF22C000911D
:1050B0009A000F7E00939A0000919A000F77009358
:1050C0009A00EDE4F5E00081086000830091CD06D0
:1050D0000E949A2300E00093D10600E00093CD06E1
:1050E00000919C000883EDE4F5E000810F7E0083D1
:1050F00009C00EE10093D00605C00091D0060395CB
:105100000093D006E19939C00091DD070130A9F57F
:10511000F8940091E3071091E4071FBB0EBB0091C8
:10512000DB0710E0E091DF07F091E007E00FF11FEF
:1051300000810DBBE29AE19A78940091DB07039518
:105140000093DB07E3EEF7E0008111810F5F1F4F53
:10515000008311830091DB0710E0E091DF07F091FD
:10516000E007E00FF11F31970081002331F400E0E8
:105170000093DD0700E00093DB07E1994EC000914A
:10518000DE07013009F049C00091E5071091E607FC
:105190001FBB0EBBE09A2DB30091DC0710E0E0913D
:1051A000E107F091E207E00FF11F20830091DC0797
:1051B00010E0E091E107F091E207E00FF11F0081BC
:1051C0000F3F59F400E02091DC0730E0E091E10767
:1051D000F091E207E20FF31F0083E5EEF7E00081B4
:1051E00011810F5F1F4F008311830091DC0703952E
:1051F0000093DC070091DC0710E0E091E107F091FB
:10520000E207E00FF11F31970081002331F400E045
:105210000093DE0700E00093DC0721969BBF8FBF61
:1052200009911991299139914991599169917991EE
:105230000990199029903990E991F9918991999162
:1052400018950093D807539A559A089500E0009353
:10525000D606089503E3009399008A988B9A929852
:10526000939A0EE000939D0008E100939A0000914C
:105270009A00006100939A0000919A0000680093E0
:105280009A0005E50093CE050AEA0093CF0508953C
:10529000FA93EA934A933A932A931A930A933FB75D
:1052A0004BB720919C0000919B00102F14FF05C06C
:1052B000EDE4F5E00081016000830091D106002358
:1052C00091F40091D0060E3170F001E00093D10608
:1052D00000E00093CD0600E00093D006EDE4F5E099
:1052E0000081006100830091D1060130E9F4009152
:1052F000D0060E31C8F40091CD06003830F0EDE450
:10530000F5E00081016000830CC00091CD0610E043
:10531000F801E25BFA4F20830091CD0603950093DC
:10532000CD0600E00093D0064BBF3FBF0991199115
:10533000299139914991E991F9911895FA93EA9354
:105340003A932A931A930A932FB73BB70091CE064C
:105350001091CF0601178CF40091CE06102F110F7B
:10536000110BF801E253FA4F008100939C00009169
:10537000CE0603950093CE061FC000919A00077FCA
:1053800000939A0000919A000F7D00939A0000E02C
:105390000093CF0600E00093CE0600919A000061D2
:1053A00000939A0000919A00006800939A00EDE43F
:1053B000F5E000810F7E00833BBF2FBF099119915B
:1053C00029913991E991F99118950093CF060091AF
:1053D0009A00086000939A0000919A00006200937E
:1053E0009A00089500914D0510919A00212F27FDF4
:1053F000026010919A00212F25FD0460089500E0BD
:1054000000934D0508950E94AE7B2801D901CA0181
:105410008D01E4E9F0E0FBBFFAE10C94697BAC019B
:105420009D01820121D33AC0AC019D01820178D354
:1054300035C0AC019D0182010CD430C09C018201B9
:1054400080D42CC09C0182019DD428C09C01820183
:10545000C8D424C09C01820152D520C0AC019D015A
:105460008201BCD61BC045EB50E09C01820120D7D5
:1054700015C046EB50E09C0182011AD70FC047EBE4
:1054800050E09C01820114D709C044EB50E09C011C
:1054900082010ED703C09C0182011DD7E6E00C9467
:1054A000B97B0E94AC7B2801D901642ECB018631E7
:1054B00000E0900721F420ED3CE08201A7D280308B
:1054C00001E09007F8F4F201218132818C01000F94
:1054D000111F200F311FF9011181012F7724FD01C8
:1054E000E60DF71D0083F20101811281880F991FDB
:1054F000080F191FF80100817724A60DB71DFD01C3
:1055000001830CC00FEF7724FD01E60DF71D00832A
:105510000FEF7724A60DB71DFD010183E8E00C9481
:10552000B77B222311F0F8012383F801038108954A
:1055300062E0F8016383F80124833583F801468330
:1055400057830895215019F02A9521F006C0F801DB
:1055500000850895F801018508950FEF08950E94D0
:10556000AF7BC801D901FC010481158100511040B5
:105570000650104008F470C00050104009F4C7C035
:105580000A51104009F4F1C00350104009F4EDC075
:105590000350104009F4E9C00A51104008F433C226
:1055A0000750104008F4FAC00950104009F403C134
:1055B0000150104009F4FFC00150104008F44BC0E6
:1055C0000450104008F404C10050104008F443C0D7
:1055D0000450104008F40CC100501040E0F100529B
:1055E000104008F415C106501040A8F103501040B7
:1055F00008F41EC10050104070F10450104008F42F
:1056000024C10050104038F10450104008F42DC15E
:105610000550104000F10550104008F436C100500C
:10562000104009F43FC10150104009F44DC1015030
:10563000104009F456C10D50104009F45DC10150ED
:10564000104009F47BC10150104009F499C1015088
:10565000104009F4B7C1D7C100E0FC01008332C09B
:10566000FC0101811281FC01208130E0220F331FF7
:10567000020F131FF80100A111A14AE050E00E949F
:10568000EB7A402E429400EF4022FC01018112810E
:10569000FC01208130E0220F331F020F131FF8019D
:1056A00000A111A14AE050E00E94EB7A440EFC01F7
:1056B000008110E0FD01E00FF11F4482FC01008138
:1056C00003950083FC010081063050F2FC01068145
:1056D00017814AE050E00E94EB7A402E429400EF9E
:1056E0004022FC01068117814AE050E00E94EB7ADB
:1056F000440EFC0104811581A00FB11F1C974C9230
:1057000002EBFC01008706E0FC0101877CC1FC0183
:105710001781012F0695069506950695005D009365
:10572000D00CFC011781012F0F70005D0093D10C8C
:10573000FC01068102950F70005D0093D20CFC0104
:1057400006810F70005D0093D30C01E00093DD072C
:1057500000E010E00093E3071093E40700ED1CE085
:105760000093DF071093E0074EC1FC01068117810B
:10577000023020E0120731F401E7FC01008700E06D
:10578000FC010187FC0106811781012B31F400E740
:10579000FC01008700E0FC01018735C1FC010481A8
:1057A0000F5CFC01008701E0FC010187FC01068120
:1057B000FD01048328C1FC0104810F5CFC0100870A
:1057C00001E0FC010187FC010681FD0104831BC18E
:1057D00004E9FC01008702E0FC010187FC0104816F
:1057E0000156FD010483FC010681FD0105830BC107
:1057F00005E9FC01008702E0FC010187FC0104814E
:105800000556FD010483FC010681FD010583FBC0F3
:1058100003E9FC01008702E0FC010187FC0104812F
:105820000956FD010483FC010681FD010583EBC0DF
:10583000FC0104810F5EFC01008701E0FC0101878F
:10584000FC010681FD010483DEC004EAFC0100873F
:1058500002E0FC010187FC0104810259FD0104837F
:10586000FC010681FD010583CEC005EAFC0100872D
:1058700002E0FC010187FC0104810659FD0104835B
:10588000FC010681FD010583BEC0FC0104810B5EA5
:10589000FC01008701E0FC010187FC010681FD019C
:1058A0000483B1C0FC0104810B5EFC01008702E0AF
:1058B000FC010187FC011781012FFD010483FC011C
:1058C0000681FD0105839FC0FC0104810B5EFC0184
:1058D000008701E0FC010187FC010681FD010483D2
:1058E00092C00DEBFC01008701E0FC010187FC0187
:1058F0000681FD01048387C00AEFFC01008700E0F8
:10590000FC01018700E0FC01008313C00EEE1EEED7
:10591000FC0124853585FC01408150E0440F551F72
:10592000240F351FF90100831183FC0100810395C9
:105930000083FC010081013848F365C00AECFC01DA
:10594000008700E0FC01018700E0FC01008313C038
:105950000EEE1EEEFC0124853585FC01408150E0F1
:10596000440F551F240F351FF90100831183FC01DB
:10597000008103950083FC010081013848F343C096
:105980000AEDFC01008700E0FC01018700E0FC015A
:10599000008313C00EEE1EEEFC0124853585FC014C
:1059A000408150E0440F551F240F351FF90100833B
:1059B0001183FC01008103950083FC010081013803
:1059C00048F321C00AEEFC01008700E0FC010187DA
:1059D00000E0FC01008313C00EEE1EEEFC012485E6
:1059E0003585FC01408150E0440F551F240F351FC1
:1059F000F90100831183FC01008103950083FC0100
:105A00000081013848F3E5E00C94BA7B592F082E49
:105A1000B801F9012081322F20E0330F330F330F0B
:105A2000330F818190E0C097982F80E0280F391FB5
:105A3000028110E00053104044E00E94E87A200FF9
:105A4000311F038110E00F701070200F311FFB0118
:105A500001811281F80124A735A7802D952F089583
:105A6000F8012687378708950E94B07BC801890115
:105A7000DA01ECE0F0E0FBBFFBE10C94697BFD0197
:105A8000048110E0FC01A181B281A056BF4F0D93AB
:105A90001C9343C0FD01A481B0E01196FC0101817B
:105AA00012810E551F4FF801A083B18336C0FD014E
:105AB000048110E0FC01A181B281AC55BF4F0D9370
:105AC0001C932BC0FD01048110E0FC01A181B28177
:105AD000AA55BF4F0D931C9320C0FD01048110E017
