:100000000C94FD78189518951895189518951895CD
:100010001895189518951895189518951895189578
:1000200018951895189518950C945B311895189596
:1000300018951895189518950C9478631895189537
:100040000C945827189518950C94B6260C942227D2
:100050001895189518951895189518951895189538
:100060001895189518951895189518951895189528
:1000700018951895189518950C94BE280C94152968
:1000800018951895189518951895189500C18140E0
:1000900001C0804101C0804100C1814001C0804158
:1000A00000C1814000C1814001C0804101C0804148
:1000B00000C1814000C1814001C0804100C1814038
:1000C00001C0804101C0804100C1814001C0804128
:1000D00000C1814000C1814001C0804100C1814018
:1000E00001C0804101C0804100C1814000C1814008
:1000F00001C0804101C0804100C1814001C08041F8
:1001000000C1814000C1814001C0804101C08041E7
:1001100000C1814000C1814001C0804100C18140D7
:1001200001C0804101C0804100C1814000C18140C7
:1001300001C0804101C0804100C1814001C08041B7
:1001400000C1814000C1814001C0804100C18140A7
:1001500001C0804101C0804100C1814001C0804197
:1001600000C1814000C1814001C0804101C0804187
:1001700000C1814000C1814001C0804100C1814077
:1001800001C0804101C0804100C1814000C0C10167
:10019000C30302C2C60607C705C5C404CC0C0DCDF7
:1001A0000FCFCE0E0ACACB0BC90908C8D81819D967
:1001B0001BDBDA1A1EDEDF1FDD1D1CDC14D4D51597
:1001C000D71716D6D21213D311D1D010F03031F187
:1001D00033F3F23236F6F737F53534F43CFCFD3DB7
:1001E000FF3F3EFEFA3A3BFB39F9F83828E8E929A7
:1001F000EB2B2AEAEE2E2FEF2DEDEC2CE42425E557
:1002000027E7E62622E2E323E12120E0A06061A1C6
:1002100063A3A26266A6A767A56564A46CACAD6D76
:10022000AF6F6EAEAA6A6BAB69A9A86878B8B979E6
:10023000BB7B7ABABE7E7FBF7DBDBC7CB47475B516
:1002400077B7B67672B2B373B17170B05090915106
:100250009353529296565797559594549C5C5D9D36
:100260005F9F9E5E5A9A9B5B995958988848498926
:100270004B8B8A4A4E8E8F4F8D4D4C8C44848545D6
:10028000874746868242438341818040380C018003
:10029000020041A042A1E045A3A4A5A64BA74D485A
:1002A0004FA8504354A9AA58E1ABACE2ADAE62AF3F
:1002B000B0B161B2B3B4E365B6B7B8B9BABBBCBD4F
:1002C0006FBE7063BF79E478E5C0C1E6C2C3C4C540
:1002D000C6C7EEF8E8E12EC0CA2000E0E2F2EE2E3A
:1002E000C0CA2000E0E2F2EE2EC0CA2000F3F1EA1C
:1002F0002EC0CA202000E2FBEAEB2EC0CA2000EF8D
:10030000F0EEE22EC0CA2000E8F1EFFBF22EC0CAE8
:1003100000EFF3F1EA20C0CA2000EDEEF0EC2EC0B1
:10032000CA2000E1E5E3EB2EC0CA2000EEE4EDEECA
:10033000F12EC0CA00D202DB02E402ED02F602FF97
:1003400002080311031A0323032C03EEF8E8E12E3D
:1003500000E0E2F2EE2000E0E2F2EE2000F3F1EA4B
:100360002E2000E2FBEAEB2E00EFF0EEE22E00E89A
:10037000F1EFFBF200EFF3F1EA2000EDEEF0EC2EEE
:1003800000E1E5E3EB2E00EEE4EDEEF1004B03516E
:100390000357035D03630369036F0375037B0381E5
:1003A000038703C0CA2D00CDE5F220F1E2FFE7E8A4
:1003B00020F120C1D1CF2020202020002020C8ED16
:1003C000E8F6E8E0EBE8E7E0F6E8FF202020202070
:1003D00000312EC6F3F0EDE0EB2E00322EC4E0F239
:1003E000E02FE2F0E5ECFF2E00332ED3EFF0E0E259
:1003F000EBE5EDE8E52E00342ED3F1F2E0EDEEE290
:10040000E8F2FC2E00352ECFF0EEF1ECEEF2F0200B
:10041000EFE0F0E0EC2E00362ECFF0EEF2EEEAEE5A
:10042000EB2E00D103DB03E903F7030504170431C6
:100430002E20C4E0F2E02E202020202020202020AA
:1004400020202000322E20C2F0E5ECFF2E202020BC
:10045000202020202020202000C6F3F0EDE0EB201B
:1004600000F1EEE1FBF2E8E900E7E0F9E8F2FB0079
:10047000EFF0E8E5ECEDE8EAE000EFE5F0E5E4E0D8
:10048000F2F7E8EAE00061047A0470046904D7F244
:10049000E5EDE8E520E0F0F5E8E2E02E00CFCC0065
:1004A000CFC400D1C100C7D900A304A0049D04A6F5
:1004B00004CEC1D900CFE5F0E5E72E00CFE5F0E5A9
:1004C000E7E0EF2000CDE0F7E0EBEE2000CAEEED34
:1004D000E5F62000EAEEECE0EDE4FB00312ED0E59D
:1004E000E6E8EC2E00322ECFE0F0E0ECE5F2F0FB97
:1004F0002E00332ECFE0F0EEEBFC2E00342ED2E5B2
:10050000F1F22E00DC04E504F204FC04C7E0F9E893
:10051000F2E02E00CFF0E8E5ECEDE8EA2E00CFE5C2
:10052000F0E5E4E0F2F7E8EA2E00CEE1F9E8E52EA6
:1005300000CFF0E8E5ECEDE8EA20312E00CFF0E85E
:10054000E5ECEDE8EA20322E00D2E8EF20C7E0F932
:10055000E8F2FB00D2E8EF20CBE8EDE8E800C4EEDB
:10056000EF2E20E2F0E5ECFF20E1E5E720ECE0ED06
:100570002E00C7E0E4E5F0E6EAE020EDE020EBE85D
:10058000EDE8E820202000CFE5F0E5EAF0FBF2E816
:10059000E520E8ECEFF3EBFCF1EEE200C7E0E3F07E
:1005A00020F7F3E2F1F2E2E8F220EFEE2020D0C7EC
:1005B00000D1EDE8E6E5EDE8E520F3F0EEE2EDFF51
:1005C00020C0CA202000D7E0F1F2EEF2E020CFD028
:1005D000C400D7E0F1F2EEF2E020CFD0CC00490524
:1005E00054055E05720587059C05B105C605D20553
:1005F000C7E0E4E5F0E6EAE020EDE020E2EAEB2EF9
:100600002020202000C4EBE8F2E5EBFCEDEEF1F257
:10061000FC20EAEEECE0EDE4FB00C7E0E4E5F0E608
:10062000EAE020EDE020E2FBEAEB2E2020EA00C128
:10063000EBEEEA2E20EAEEECE0EDE420203F2E2E59
:100640003F202000C4EBE8F22E20EAEEECE0EDE4DF
:10065000FB20203F2E2E3F2000F00505061A062F16
:10066000064406C2F0E5ECFF20EDE020EFEEE2F2FA
:100670002E20EAEEEC2E2000C1EBEEEA2E20EAEE70
:10068000ECE0EDE420203F2E2E3F202000C4EBE8DC
:10069000F22E20EAEEECE0EDE4FB20203F2E2E3F90
:1006A0002000F0050506630678068D06D1EEE2EC23
:1006B000E5F1F2E8ECEEF1F2FC0043E8EDF5F0EEE6
:1006C000EDE8E7E0F6E8FF20F7E0F1EEE20055E2C2
:1006D000FBF520EDEEECE8EDE0EBFCEDEEE500D314
:1006E000E4E5F0E6E0EDE8E520F0E5EBE520CFD04D
:1006F000C400D1E5F2E5E2EEE920E0E4F0E5F10046
:10070000C2F0E5ECFF20EFE5F0E5E7E0EFF3F1EA1A
:10071000E000D7E0F1F2EEF2E000CDEEECE5F02003
:10072000E0EFEFE0F0E0F2E000CAEEEDF2F0EEEB29
:10073000FC20E2FBF52EF1E8E3EDE0EBE000CFEE8C
:10074000F0EEE320CFD0C5C4D3CFD020EFEE20CA47
:10075000D72000C7E0E3F020F7F3E2F1F2E2E8F29D
:1007600020EFEE2020CAD700CAEEF0F0E5EAF6E866
:10077000FF20EDE0EFF0FFE6E5EDE8FF00CAEEF068
:10078000F0E5EAF6E8FF20F2EEEAE000CFEEF0EE68
:10079000E320CFD0C5C4D3CFD020EFEE20D0C720E8
:1007A00000CFF0EEF2EEEAEEEB20EEE1ECE5EDE06C
:1007B00000CFF0E8E7EDE0EA20F7E5F2EDEEF1F248
:1007C000E800C4EEEFF3F1F2E8ECFBE520EFF0EE29
:1007D000E2E0EBFB00CFEEF0EEE320EFEE20EFEEF9
:1007E000ECE5F5E500C4EEEFF3F1F2E8ECE0FF2014
:1007F000EFEEECE5F5E000D2E8EF20E0E2F2EEEA21
:10080000EEEDF2F0EEEBFF00D0E5E7E5F0E2E8F028
:10081000EEE2E0EDE8E500D1EDE8E6E5EDE8E52023
:10082000EEF2E2E5F2E020C0CA202000AC06BA06F3
:10083000CE06DF06F206000712071A0729073E0751
:10084000530768077D07A107B107C207D507E5076A
:10085000F707080817088C07C0C2C0CDD220D034D3
:10086000303000CFC2C72D393000C0C2C7CA2D38C2
:100870003000CFC2C7D32DC500CFC2C7CB00EEF822
:10088000E8E1EAE000580863086A08720879087E1F
:1008900008C7C0D900CFD0CC00CFCC3100CFCC32EC
:1008A00000CFD0C400C2FBE2E5E42000C3EEF2EECC
:1008B000E22000C2E2E5E4E5ED00D0E5F7FC20200F
:1008C00000D2E5F1F2203100D2E5F1F2203200D27F
:1008D000E5F1F2203300A508AC08B308BA08C10856
:1008E000C808CF083F3F3F3F00202020C7E0EFF37C
:1008F000F1EA20F2E5F1F2E0202020202000202083
:10090000CFEEE4EEE6E4E8F2E5203F20F1E5EA2070
:10091000202000CFF0EEF2EEEAEEEB00D1F2E0EDB7
:10092000E4E0F0F2004D6F64427573001C09250984
:10093000C7C0D93A00CFD0CC3A00CFCC313A00CFA3
:10094000CC323A00CFD0C43A003F3F3F3F20202076
:100950002000CDE5E8F1EFF0202000CFF0E5E4F352
:10096000EFF02000C2FBE2E5E4E5ED2000C3EEF28B
:10097000EEE220202000C2E2E5E4E5ED202000D0F8
:10098000E5F7FC2020202000D2E5F1F231202020E4
:1009900000D2E5F1F23220202000D2E5F1F233203E
:1009A00020200064096D0976097F0988099109648E
:1009B0000976096409880991099A09640976098800
:1009C0000991099A09C8F1F5EEE4ED2E2000CAEE6E
:1009D000EDF2F0EEEBFC00CFF3F1EA202020200056
:1009E000D0E0E1EEF2E0202000CDE5E8F1EFF02EDE
:1009F0002000CF2EEDE5E8F1EFF000CEE6E8E4E0F0
:100A0000EDE8E5003F307830373F202000D3E42E7A
:100A1000EFF3F1EA2000CDE5F220D0C7202000D08E
:100A2000E5F7FC2020202000D2E5F1F22020202054
:100A300000C509CE09D709E009E909F209FB090453
:100A40000A0D0A160A1F0A280AC8F1F5EEE4ED2E6F
:100A50002000CFD0CC20CAD7202000CFD0CC20CFB0
:100A6000C0202000CDE5F220CAD7202000CDE5E847
:100A7000F1EFF02E2000CF2EEDE5E8F1EFF000CE03
:100A8000E6E8E4E0EDE8E500C1CBCA20CACC2020CE
:100A9000003F307830383F2020003F307830393FF9
:100AA0002020003F307830413F202000D2E5F1F295
:100AB0002020202000490A520A5B0A640A6D0A7647
:100AC0000A7F0A880A910A9A0AA30AAC0AC8F1F5B1
:100AD000EEE4ED2E2000CFD0C420CAD7202000CFD6
:100AE000D0C420CFC0202000CDE5F220CAD72020DE
:100AF00000CDE5E8F1EFF02E2000CF2EEDE5E8F196
:100B0000EFF000CEE6E8E4E0EDE8E5003F307830D5
:100B1000373F2020003F307830383F202000D1E898
:100B2000F1F2E5EC2E20003F307830413F202000EC
:100B3000D2E5F1F22020202000CD0AD60ADF0AE813
:100B40000AF10AFA0A030B0C0B150B1E0B270B30CC
:100B50000B672D006C2D00C2E2EEE43A00CFE0F00E
:100B6000EEEBFC3A00CDEEE2FBE920EFE0F0EEEB3D
:100B7000FC3A00C7EDE0F7E5EDE8E53A2000C4D423
:100B8000C72DCFF0CFE4202000C4D4C72DCFF0EC88
:100B9000CCCA3100C4D4C72DCFF0ECCCCA3200C4CB
:100BA000D4C72D4C363020202000CDC72DCFF0CF1C
:100BB000E420202000CDC72DCFF0EC2DCCCA2000A2
:100BC000CFCFC72DCFF0CFE4202000CFCFC72DCF80
:100BD000F0EC2DCCCA00EEF8E8E1EAE0202020207D
:100BE000007E0B890B940B9F0BAA0BB50BC00BCB94
:100BF0000BD60BE2FBEAEB2E00E2EAEB2E003F3FC6
:100C00003F3F00F30BF90BFE0B3F3F3F3F00E1FB83
:100C1000F1F2F0FBE900ECE5E4EBE5EDEDFBE900DA
:100C2000090C0E0C160C090C3F3F3F3F00E2EAEBAB
:100C30002E00E2FBEAEB2E00280C2D0C320C280CC7
:100C40003F3F3F20E3F0E0E4003F3F3F20F1E5EA93
:100C5000003F3F20E3F0E0E4003F3F3F3F00F2F081
:100C6000E5E2EEE6EDFBE900EDEEF0ECE0EBFCEDAD
:100C7000FBE900F1EFEEEAEEE9EDFBE900590C5E6D
:100C80000C680C730C590C2D35303020C3F6002D38
:100C900032353020C3F6002B3020C3F6002B32351E
:100CA0003020C3F6002B35303020C3F600EEF8E8D4
:100CB000E1EAE000870C8F0C970C9D0CA50CAD0CA5
:100CC000C4E8E0EFE0E7EEED3A2000EDE5F220E4E5
:100CD000E0EDEDFBF500F1EFE8F1EEEA00000007D2
:100CE0000001000200030001000000630001000099
:100CF0000012000100120036000100000016000181
:100D000000000001000100000004000100000004D8
:100D100000010001000900010000000A00010001BB
:100D20000032000A00000064000A000000FF000119
:100D3000000000FF00010000000A00010001003275
:100D4000000A00010032000A000000FF000100005C
:100D500000FF00010000000400010000000100018C
:100D6000001200320001000000020001000000FF3C
:100D70000001000000050001001A00E60301000167
:100D80000003000100000001000100000016000146
:100D9000000000160001000000E70301000000E76A
:100DA0000301000100020001000100020001000037
:100DB00000B40001000000FF00010012005A000111
:100DC0000001000300010000000100010000001408
:100DD000000100302E302E2E39392E3900CFF0EEA2
:100DE000F8E8E2EAE020502D555350202000CFF0E3
:100DF000EEF8E8E2EAE02041542D5553502000CFB0
:100E0000F0EEF8E8E2EAE0204453502D555350004C
:100E1000C4EEEFEEEBED2E20EFE0F0E0ECE5F2F0CB
:100E2000FB00C2E8E420EFE0F0E0ECE5F2F0E000E7
:100E3000DD0DEE0DFF0D100E220EC5F1F2FC00CD02
:100E4000E5F2003F0E3A0EF1F2E0EDE4E0F0F200E0
:100E500048455800500E470E2ED1E1F0EEF120F13A
:100E6000E2EEE5E3EE2E2020202020002ED1E1F05E
:100E7000EEF120F3E4E0EBE5EDEDEEE3EE2E200005
:100E80002ED1E1F0EEF120F3E4E0EBE5EDEDEEE361
:100E9000EE2031002ED1E1F0EEF120F3E4E0EBE5BD
:100EA000EDEDEEE3EE2032002ECFF3F1EA20F3E495
:100EB000E0EBE5EDEDEEE3EE2E2020002ECFF3F19A
:100EC000EA20F3E4E0EBE5EDEDEEE3EE2031200087
:100ED0002ECFF3F1EA20F3E4E0EBE5EDEDEEE3EE07
:100EE000203220002ECFF3F1EA20F3E4E0EBE5ED31
:100EF000EDFBF520312C32002EC0CA20E0E2F2EEEC
:100F0000ECE0F2E8F7E5F1EAE8E920002EC0CA20BB
:100F1000F3F1EAEEF0E5EDEDFBE9202020202000E2
:100F20002EC0CA20E2FBEAEBFEF7E5ED20202020F0
:100F3000202020002EC0CA20EAEEEDF2F02EEFF0C5
:100F4000EEE2E5F0EAE020002EC0CA20E8F1EFFB77
:100F5000F2E0EDE8FF202020202020002EC0CA2053
:100F6000EFF3F1EA20202020202020202020200064
:100F70002EC2FBE7EEE2202020202020202020208F
:100F8000202020002EC0CA20EDEEF0ECE0EBFCEDBE
:100F9000FBE92020202020002EC0CA20E1E5E3EB61
:100FA000FBE9202020202020202020002ECFF3F15C
:100FB000EA20F3E4E0EBE5ED2E20CCC0CD202000CC
:100FC0002EC0CA20EEE4EDEEF1F2EEF0EEEDEDE82B
:100FD000E92020002ED1E1F0EEF120C0CA2020202F
:100FE00020202020202020002ECFF3F1EA20C0CAAC
:100FF00020F1E2EEE9202020202020002ECFF3F186
:10100000EA20C0CA20F3E4E0EBE5EDEDFBE92000C7
:101010002ECFF3F1EA20CFD0C420202020202020A2
:1010200020202000580E6C0E800E940EA80EBC0ED0
:10103000D00EE40EF80E0C0F200F340F480F5C0F8B
:10104000700F840F980FAC0FC00FD40FE80FFC0F78
:101050001010D1E1F0EEF100CFF3F1EA00C2E2EEC0
:10106000E400C2FBE7EEE200521058105D1062107F
:1010700020202020204572726F7220202020202006
:1010800000CDE5E8F1EFF02EF7F22E20464C41536B
:101090004800CDE5E8F1EFF02EE7E0EF2E464C41B9
:1010A000534800CDE5E8F1EFF02EF7F22E20504C3A
:1010B00049532000CDE5E8F1EFF02EE7E0EF2E50A8
:1010C0004C49532000CDE5E8F1EFF02EE7E0EF2E9C
:1010D0003252414D2000CDE5F220F1E8E3EDE0EBA6
:1010E000E020CFD0CC2000C0CA2DD1EDE8E6E5ED60
:1010F0002EE7E0EFE0F1E000CFEEECE5F5E020E2F6
:1011000020EBE8EDE8E8202000CDE5E8F1EFF02E57
:10111000445350203252414D2000CDE5E8F1EFF02C
:101120002EF7F22E203252414D2000D2EEEA20EF6F
:10113000EEEAEEFF2020202020202000CDE8E7EA84
:10114000EEE520EDE0EFF02EE2FBF52E00C2FBF124
:10115000EEEAEEE520EDE0EFF02EE2FBF500CDE566
:10116000E8F1EFF02E20CCCA20D3CC20202000C202
:10117000D720F2F0E0EAF220E2EEF1F1F22E2000C8
:1011800081109210A310B410C510D610E710F810FB
:1011900009111A112B113C114D115E116F117010B4
:1011A000C0CA2DCDE5F220EEF2E2E5F2E0202020EB
:1011B00000D3F1F2E0EDEEE2E8F2E520F7E0F1FB3A
:1011C0002000CDE5F220E1EBEEEAE020C1D1C7201E
:1011D000202000CDE5E8F1EFF02EE2E5F0F12EC1A0
:1011E000D1C72000CDE5E8F1EFF02EEFE5F0E5EA1C
:1011F000EB2E202000CDE5E8F1EFF02EE7E0EF2E1A
:1012000020C1D1C72000CDE5F220F1E8E3EDE0EB0D
:10121000E020CFD0CC2000CDE8E7EAE8E920F3F0E9
:101220002E20D0C720202000CDE5E8F1EFF02EF3EE
:10123000E4E0EB2EC4D4C72000CDE5E8F1EFF02EBA
:10124000F3E4E0EB2EC2DBD52E00CDE5E8F1EFF0C4
:101250002EE2F5EEE42ECFD3D1CA00CDE5E8F1EFD2
:10126000F02EE2F5EEE42ED1D2CECF00D3E42ECF95
:10127000CED1D220E1E5E720EEF2E22E00CDE5E886
:10128000F1EFF02EF6E5EFFC2EC2DBD52000D3E423
:101290002ECFCED1D220EEE1ED2EEFEEEC2E00CD12
:1012A000E5E8F1EFF02EE7E0EF2E20C2DBD52000DD
:1012B000C4EBE8F2E5EBFCED2E20EFEEECE5F5E01B
:1012C00000CDE5E8F1EFF02E20C4D4C72020202087
:1012D0002000C211D311E411F511061217122812C1
:1012E00039124A125B126C127D128E129F12B012CA
:1012F000C112C0CA2DD1EDE8E6E5ED2EE7E0EFE042
:10130000F1E000CDE5F220F1E8E3EDE0EBE020CC08
:10131000C0CD2000CFEEF0EEE320EFEE20EFEEECBC
:10132000E5F5E52000C0E2F2EEEAEEEDF2F0EEEBDC
:10133000FC2020202000CDE5F220E1EBEEEAE020C9
:10134000C1D1CA20202000CDE5E8F1EFF02EE2E582
:10135000F0F12EC1D1CA2000CFF0E5E22EE4EB2D52
:10136000F1F2E82EEAEEEC2E00CDE5E8F1EFF02EFA
:10137000E7E0EF2E20C1D1CA2000CDE5E8F1EFF083
:101380002EE2FBEAEB2ECAD1CA2000CDE5E8F1EF50
:10139000F02EE2EAEB2E20CAD1CA2000CDE5E8F11A
:1013A000EFF02EEAEEEDF2F02ECAD1CA00CFF0E552
:1013B000E4F3EFF02EEDE5F220CAD7312000CFF0B4
:1013C000E8E5EC20E1EBEEEA2E20CAEEEC2E00364A
:1013D000134713701058137010701070107010694C
:1013E000137A138B139C13AD1370107010BE13D1AE
:1013F000EDE8E62E20F3F0EEE2EDFF20CFD0CC00BA
:10140000CDE5F220E1EBEEEAE020C1D1CA202020B8
:1014100000CDE5E8F1EFF02EE2E5F0F12EC1D1CA02
:101420002000CDE5E8F1EFF02EE2FBEAEB2ED2E56D
:10143000F1F200CDE5E8F1EFF02EE2EAEB2E20D25A
:10144000E5F1F200CDE5E8F1EFF02EE2F5EEE42E65
:10145000CAD1CA20000014111470107010701070DE
:101460001070107010701022143314441470107027
:101470001070107010C3F0313A00C3F0323A0031EE
:10148000C3F0313A0032C3F0313A0031C3F0323A9E
:101490000032C3F0323A00C3F0F3EFEFE020310046
:1014A000C3F0F3EFEFE02032009714A014E2FBEA60
:1014B000EB00CAD73100CAD73200EEF8E8E100AD40
:1014C00014B214B614BA14E2FBEAEB00D0C700EE73
:1014D000F8E8E100C714CC14CF14D2E5F1F22031C2
:1014E00000D2E5F1F2203200DA14E114CD2EF7F249
:1014F0002E464C41534800CD2EE7EF2E464C41532B
:101500004800CD2EF7F22E504C49532000CD2EE747
:10151000EF2E504C49532000CD2EE7EF2E32524192
:101520004D2000CD2EF7F22E3252414D2000CD2E0F
:10153000F0E0E12E4453502000C2EEF1F22EF02EE6
:1015400044535000CDE8E7EA2E2055E2FBF500C2F7
:10155000FBF12E2055E2FBF52000CD2EF1E22E20EE
:10156000F120D3CC00CD2E20F7E0F1EEE2202000D8
:10157000CDE5F220E1EB2EC1D1C700CD2EE2E5F0A2
:10158000F12EC1D1C700CD2EEFE5F02E20C1D1C77D
:1015900000CDE5F220F12E20CCC0CD00CFE5F0E566
:1015A000E7E0EFF3F1EA00C8E7EC2EF0E5E6E8EC5F
:1015B000E000CEF82EE7E0EFE8F1E82000CEF82ECC
:1015C000EAEEEDF2F02E2000D1EDE8E62EF32ECF7C
:1015D000D0CC00CDE5F220F12E20CFD0CC00CDE54F
:1015E000F220F12ECFD3D1CA00EDE5F220F12ED1B9
:1015F000D2CECF00C2FBEAEBFEF7E5EDE8E5005FF7
:1016000000D1E2FFE7FC20F120CFCA002E003030ED
:0316100030300077
:10161400010010100A00F80C1C0D410D6F0DC60DD1
:10162400220E820EA10EBA0ED30E110044110C002C
:1016340023105E10A810F8101E1144114411231039
:101644005E10A810F8101E113500061D0900B3190C
:10165400C719F519691A891A8B1B581C821CF31CAB
:10166400000101CF298B29018B29018B29018B29A9
:10167400018B29018B29018B290A902901902901C9
:1016840090290190290190290190290B9529019510
:10169400290195290195290195290B9A29019E294A
:1016A40001A22902A62901AA2901AA2901AA29011C
:1016B400AA2901AA2901AA2901AA2901AA2985AFCF
:1016C4002901CB290FB62901CB290FBD2901CB292B
:1016D4000FC42901CB29FB000001002C2D0700D7E2
:1016E4002CE32CF12CFD2C092D152D212D0000119E
:1016F40000CA2D06003B2D492D592D7E2D9F2DBF4F
:101704002D00002100472E0500D92DE72DF72D07C8
:101714002E272E0000009F300900ED2F332F442F79
:10172400552F6C2F8A2FA82FC62FD22F00350012C9
:10173400310900AE30BA30C630D230DE30EA30FB88
:1017440030123107310077010A38023804FA3702BF
:10175400F23701EA3739063804FE3702F63701EE6C
:101764003719043804FC3702F43701EC3709083818
:1017740004003802F83701F037FB0000D4391300B5
:101784009039903992399039923992399239923903
:10179400903992399239CC399239903990399239B9
:1017A40092399239903907018B4FDD4E01EA4E018F
:1017B400F64E01F64E01024F01104F01104F042066
:1017C4004F012E4F012E4F063E4F013E4F014A4F0F
:1017D40001544F01624F016E4F1B784F7D824FFBC6
:1017E4002301465E2E570E785201A552010D530176
:1017F4007C5301705401825401865501975501D2DE
:10180400550AE95501A75601315708DD55082356F5
:10181400FB000101475E8453019B53029F5301A4C3
:101824005301A85301AC5301DC5301295401515411
:1018340002A85301AC5301DC53012954015154064D
:101844006B54FB0000001E59090083589358A35899
:10185400B358C758DB58EF58FF580F590000175DAD
:101864001400B95BC95BD95BE95BF95B095C195C82
:10187400295C395C495C5C5C715C875C935CA65C4C
:10188400B95CCC5CDF5CF25C055D010036630C0086
:101894001C621C62246242624262366336631C62CA
:1018A4001C62246242624262010072761600AB67D7
:1018B400A668DF68FA684569A569DA69E96A336C7C
:1018C400EE6C5F6EA569DA69F76F5D71EE6C727626
:1018D40033725572CC7208740E760000E46A090003
:1018E400476A596A626A6B6A7C6A8D6A9E6AB06AE0
:1018F400C26A00005A6E1400396D4B6D5D6D666DE1
:10190400786D816D8A6D936D9C6DAE6DB76DC86D8C
:10191400C86DE76DF96D0B6E146E1D6E266E386E14
:10192400A80100E062E0621740F470E0FA01E60FFB
:10193400F71F1081010F6395F6CF08959A938A9348
:10194400902F812FEDE1F6E00081006100839093F8
:10195400600601E0009361068093620625E00EE5CF
:1019640016E0DEDF10E0E0ECF4E000831183E0EC4D
:10197400F4E0008111810093630606E00E94972839
:101984008991999108959A938A93902F812FEDE1EB
:10199400F6E0008100610083909360068093610605
:1019A400282F2C5F0EE516E0BBDF10E0E0ECF4E03E
:1019B40000831183E0ECF4E000811181202F082FD3
:1019C40010E0F801E25AF94F2483082F0B5F0E94BC
:1019D40097288991999108950E94097AA02F0A2F36
:1019E400E4E1F0E0FBBFF6E10C94B7790091220644
:1019F40010E0EDEDFCE025913491319702171307C7
:101A040058F0EFEDFCE025913491319700912206D6
:101A140010E02017310748F4EFEDFCE00591149134
:101A2400319703950093B304F9C200912206009301
:101A3400B304F4C2EEE1F6E004810395048300915B
:101A4400220610E0E3EEFCE0259134913197021771
:101A5400130758F0E5EEFCE025913491319700919D
:101A6400220610E02017310720F40FE300937903D6
:101A7400D5C200912206005D00937903CFC2009184
:101A8400220610E0E9EEFCE025913491319702172B
:101A9400130758F0EBEEFCE0259134913197009157
:101AA400220610E02017310738F40FE30093840373
:101AB4000FE300938503B2C2009122064AE00E941C
:101AC4001179005D00938403009122064AE00E948C
:101AD4001179405D40938503A1C20091840B0130CC
:101AE40069F4EFEEFCE0059114913197902FE1EF4A
:101AF400FCE0059114913197802F02C090E086E3B9
:101B040000912206091720F000912206801738F46C
:101B14000FE300938D030FE300938E0310C0009135
:101B240022064AE00E941179005D00938D03009122
:101B340022064AE00E941179405D40938E03009191
:101B4400850B033009F06AC200912306091720F0BF
:101B540000912306801738F40FE3009395030FE3F5
:101B6400009396035BC2009123064AE00E94117918
:101B7400005D00939503009123064AE00E941179C9
:101B8400405D409396034AC20091840B013069F48E
:101B9400E5EFFCE0059114913197902FE7EFFCE01D
:101BA400059114913197802F02C090E086E3009153
:101BB4002206091720F000912206801738F40FE35B
:101BC4000093A1030FE30093A20328C2009122060D
:101BD4004AE00E941179005D0093A103009122065E
:101BE4004AE00E941179405D4093A2030091840B66
:101BF400023009F013C20091850B033009F00EC2C4
:101C040000912306091720F000912306801738F469
:101C14000FE30093A9030FE30093AA03FFC100910C
:101C240023064AE00E941179005D0093A903009104
:101C340022064AE00E941179405D4093AA03EEC156
:101C44000091220610E0EBEFFCE0259134913197EE
:101C54000217130758F0EDEFFCE02591349131970A
:101C64000091220610E02017310738F40FE30093A7
:101C7400B5030FE30093B60310C0009122064AE0B7
:101C84000E941179005D0093B503009122064AE099
:101C94000E941179405D4093B6030091850B033097
:101CA40009F0BCC10091230610E0EBEFFCE02591A4
:101CB400349131970217130758F0EDEFFCE02591AA
:101CC400349131970091230610E02017310738F43E
:101CD4000FE30093BB030FE30093BC039FC1009188
:101CE40023064AE00E941179005D0093BB03009132
:101CF40023064AE00E941179405D4093BC038EC1E3
:101D04000091220610E0E1E0FDE025913491319745
:101D14000217130758F0E3E0FDE025913491319761
:101D24000091220610E02017310720F402E000930E
:101D3400C50374C1009122060093C5036FC1E9E095
:101D4400FDE02591349131970091220610E020178F
:101D5400310748F4E9E0FDE00591149131970395CA
:101D64000093C6035BC1009122060093C60356C1CB
:101D7400EFE0FDE02591349131970091220610E0C7
:101D84002017310748F4EFE0FDE0059114913197F5
:101D940003950093C70342C1009122060093C70331
:101DA4003DC10091220610E0E3E1FDE0259134916C
:101DB40031970217130758F0E5E1FDE025913491BE
:101DC40031970091220610E02017310720F400E03B
:101DD40000932F0A20C10091220600932F0A00913C
:101DE400C90A013049F00091C90A023029F0009172
:101DF400C90A033009F00FC14091C90A415051F09A
:101E04004A9509F468C04A9509F4C6C04A9509F48C
:101E1400C3C001C140912F0A415049F04A9539F09D
:101E24004A9561F0425089F04A95B1F01BC040EAEE
:101E340051E4E0E3FAE04083518314C044E358E002
:101E4400E0E3FAE0408351830DC043E850E0E0E36F
:101E5400FAE04083518306C042E050E0E0E3FAE058
:101E6400408351834091230650E060E070E08A0192
:101E74009B01322F212F102F00E04091240650E0C7
:101E840060E070E0040F151F261F371F322F212F2B
:101E9400102F00E04091250650E060E070E0040F50
:101EA400151F261F371F322F212F102F00E04091BE
:101EB400260650E060E070E0040F151F261F371F50
:101EC40048EE53E060E070E00E948C79E2E3FAE0CF
:101ED40000831183A0C040912F0A415049F04A95D4
:101EE40039F04A9561F0425089F04A95B1F01BC02F
:101EF40040E25EE4E0E3FAE04083518314C040ED45
:101F040057E0E0E3FAE0408351830DC048EC50E031
:101F1400E0E3FAE04083518306C042E050E0E0E3AE
:101F2400FAE0408351834091230650E060E070E082
:101F34008A019B01322F212F102F00E040912406AB
:101F440050E060E070E0040F151F261F371F322F8A
:101F5400212F102F00E04091250650E060E070E052
:101F6400040F151F261F371F322F212F102F00E0BB
:101F74004091260650E060E070E0040F151F261F14
:101F8400371F48EE53E060E070E00E948C79E2E392
:101F9400FAE0008311833FC04091230650E060E0E3
:101FA40070E08A019B01322F212F102F00E0409115
:101FB400240650E060E070E0040F151F261F371F51
:101FC400322F212F102F00E04091250650E060E0D1
:101FD40070E0040F151F261F371F322F212F102FDB
:101FE40000E04091260650E060E070E0040F151F09
:101FF400261F371F48EE53E060E070E00E948C79A2
:10200400A801E0E3FAE04083518340E050E0E2E3DA
:10201400FAE04083518301E00093030A01E0009356
:10202400070A01E00093020AE3E00C941A7A0E9482
:10203400087A802F082FEEE2F0E0FBBFF6E10C9463
:10204400B779813121F408EC13E0D80103C001E130
:1020540014E0D8011091220602E0109F009222069B
:102064000091220610E0E9E1FDE0259134913197D9
:102074000217130758F0EBE1FDE0259134913197F5
:102084000091220610E02017310730F40FE30C937F
:102094000FE3FD010183F6C0009122064AE00E948D
:1020A4001179005D0C93009122064AE00E94117997
:1020B400405DFD014183E6C0823121F40EEC13E062
:1020C400D80103C007E114E0D8010091220610E012
:1020D400EFE1FDE02591349131970217130758F091
:1020E400E1E2FDE02591349131970091220610E060
:1020F4002017310748F40FE30C930FE3FD0101832C
:102104000FE3FD010283BEC0009122060A3058F499
:1021140000912206005D0C9300E3FD01018300E2BF
:10212400FD010283AFC0009122064AE00E941179AA
:10213400005D0C93009122064AE00E941179405DF3
:10214400FD01418300E3FD0102839CC0833121F43E
:1021540009E81AE0D80103C009EA1AE0D80100E04E
:102164000093C5040091C50410912106011708F0DD
:1021740089C00091C50410E0F801E25EF94F0481C2
:1021840010E0E5E2FDE02591349131970217130741
:1021940080F0E7E2FDE02591349131970091C50488
:1021A40010E0F801E25EF94F048110E020173107D6
:1021B40048F40FEF2091C50430E0FD01E20FF31F56
:1021C40000830EC00091C50410E0F801E25EF94FEF
:1021D40024810091C50410E0FD01E00FF11F20836C
:1021E400E5ECF4E0008103950083BCCF843121F455
:1021F40009EF13E0D80103C002E414E0D80100E0C1
:102204000093C5040091C504109121060117D0F56F
:102214000091C50410E0F801E25EF94F24810091B9
:10222400C50410E0FD01E00FF11F2083E5ECF4E0AC
:10223400008103950083E6CF853121F40DEF13E08F
:10224400D80103C006E414E0D80100E00093C504FB
:102254000091C504109121060117A0F40091C50452
:1022640010E0F801E25EF94F24810091C50410E00A
:10227400FD01E00FF11F2083E5ECF4E000810395FC
:102284000083E6CF01E00093070A01E00093020A0D
:10229400E4E00C94197A8A93802F082F015261F09C
:1022A4000A9599F10A9509F474C00A9509F4B5C020
:1022B4000A9509F4CFC0EBC01091220602E0109FEA
:1022C40000922206E9E3FDE02591349131970091D3
:1022D400220610E02017310738F40FE300935A0464
:1022E4000FE300935B04D3C0009122064AE00E94EE
:1022F4001179005D00935A04009122064AE00E947D
:102304001179405D40935B04C2C00091220610E045
:10231400EDE3FDE02591349131970217130758F04E
:10232400EFE3FDE02591349131970091220610E00E
:102334002017310750F40FE3009360040FE3009378
:1023440061040FE300936204A2C0009122060A30E4
:1023540060F400912206005D0093600400E30093A2
:10236400610400E20093620492C0009122064AE0F4
:102374000E941179005D00936004009122064AE0F6
:102384000E941179405D4093610400E3009362046C
:102394007EC00091220610E0E3E4FDE02591349133
:1023A40031970217130758F0E5E4FDE025913491C5
:1023B40031970091220610E02017310750F40FE303
:1023C400009367040FE3009368040FE30093690428
:1023D4005EC0009122060A3060F400912206005D7E
:1023E4000093670400E30093680400E20093690427
:1023F4004EC0009122064AE00E941179005D0093CC
:102404006704009122064AE00E941179405D4093DE
:10241400680400E3009369043AC000E00093C50433
:102424000091C50410912106011788F50091C50497
:1024340010E0F801E25EF94F24810091C50410E038
:10244400F801EE57FB4F2083E5ECF4E0008103959F
:102454000083E6CF00E00093C5040091C504109109
:1024640021060117A0F40091C50410E0F801E25E12
:10247400F94F24810091C50410E0F801EA57FB4F9D
:102484002083E5ECF4E0008103950083E6CF01E0CE
:102494000093070A01E00093020A899108959A9330
:1024A4008A9380E0843008F061C0482F50E003E054
:1024B40010E00E942F79F801E25EF94F04810630A2
:1024C40050F02EE4082F10E0000F111FF801E85916
:1024D400FC4F208312C0482F50E003E010E00E941C
:1024E4002F79F801E25EF94F2481082F10E0000FE4
:1024F400111FF801E859FC4F2083482F50E003E0F6
:1025040010E00E942F79F801E25EF94F05810C304A
:1025140050F02EE4082F10E0000F111FF801E859C5
:10252400FC4F218312C0482F50E003E010E00E94CA
:102534002F79F801E25EF94F2581082F10E0000F92
:10254400111FF801E859FC4F2183482F50E003E0A4
:1025540010E00E942F79F801E25EF94F068190E0C5
:10256400FC01EF58FC4F008383959CCF01E000935E
:10257400070A89919991089500E0043160F410E00C
:10258400F801E25EF94F248110E0F801EB5EF54FAB
:1025940020830395F2CF0091210A002321F40091B6
:1025A400220A002321F001E000938B0B03C000E01A
:1025B40000938B0B0091230A002321F40091240A39
:1025C400002321F001E000938C0B03C000E0009392
:1025D4008C0B0091150A002321F40091160A0023A4
:1025E40021F001E000938D0B03C000E000938D0BFC
:1025F4000091170A002321F40091180A002321F006
:1026040001E000938E0B03C000E000938E0B009159
:10261400190A002321F400911A0A002321F001E091
:1026240000938F0B03C000E000938F0B00911B0AF3
:10263400002321F400911C0A002321F001E00093FF
:10264400900B03C000E00093900B00911D0A00233F
:1026540021F400911E0A002321F001E00093910B64
:1026640003C000E00093910B00911F0A002321F4A2
:102674000091200A002321F001E00093920B03C093
:1026840000E00093920B0091250A002321F40091AD
:10269400260A002321F001E00093930B03C000E01D
:1026A4000093930B0091270A002321F40091280A38
:1026B400002321F001E00093940B03C000E0009399
:1026C400940B01E00093070A08959A938A9300916A
:1026D40022060F70005D0093C1020091220602954C
:1026E4000F70005D0093C002009123060F70005D1F
:1026F4000093BE020091230602950F70005D0093C3
:10270400BD02009124060F70005D0093BB0200918E
:10271400240602950F70005D0093BA02009125060D
:102724000F70005D0093C4020091250602950F709E
:10273400005D0093C302009126060F70005D0093B4
:10274400C7020091260602950F70005D0093C60231
:10275400009127060F70005D0093CA0200912706BE
:1027640002950F70005D0093C90200E00093C40459
:102774000091C404083008F04EC00091C40410E075
:10278400F801E654FD4F00810A3348F40091C40473
:1027940010E0F801E654FD4F0081003378F4009115
:1027A400C40410E0F801E654FD4F00810E3231F00C
:1027B400E6EAF2E000810395008303C000E00093A1
:1027C400A6020091C40410E0F801ED53FD4F00810E
:1027D4000A3348F40091C40410E0F801ED53FD4FAE
:1027E4000081003378F40091C40410E0F801ED5343
:1027F400FD4F00810A3331F0E7EAF2E000810395EE
:10280400008303C000E00093A702E4ECF4E000813D
:1028140003950083ADCF8091C10290E04091C00246
:1028240050E00AE010E00E942F79800F911F805140
:102834009240843600E090072CF0E6EAF2E0008152
:10284400039500838091BE0290E04091BD0250E068
:102854000AE010E00E942F79800F911F805192406E
:102864008D3090402CF0E6EAF2E00081039500837D
:102874008091BB0290E04091BA0250E00AE010E07F
:102884000E942F79800F911F805192408032904096
:102894002CF0E6EAF2E00081039500838091C40203
:1028A40090E04091C30250E00AE010E00E942F79CA
:1028B400800F911F80519240893190402CF0E7EABB
:1028C400F2E00081039500838091C70290E040917B
:1028D400C60250E00AE010E00E942F79800F911F99
:1028E400805192408D3300E090072CF0E7EAF2E04B
:1028F4000081039500838091CA0290E04091C9024F
:1029040050E00AE010E00E942F79800F911F80515F
:1029140092408D3300E090072CF0E7EAF2E000816A
:10292400039500830091A602002351F100E3009374
:10293400C10200E30093C00200E30093BE0200E37F
:102944000093BD0200E30093BB0200E30093BA02CC
:1029540000E00093A60200E00093C4040091C404C4
:10296400033048F500E02091C40430E0F901E0565A
:10297400FD4F0083E4ECF4E0008103950083EECF87
:1029840000E00093C4040091C4040330A0F4009157
:10299400C40410E0F801E25EF94F24810091C404FC
:1029A40010E0F801E056FD4F2083E4ECF4E00081F0
:1029B40003950083E8CF0091A702002351F100E3BF
:1029C4000093C40200E30093C30200E30093C70230
:1029D40000E30093C60200E30093CA0200E30093FD
:1029E400C90200E00093A70200E00093C404009130
:1029F400C404033048F500E02091C40430E0F90138
:102A0400E056FD4F0383E4ECF4E00081039500837A
:102A1400EECF00E00093C4040091C4040330A0F49A
:102A24000091C40410E0F801E25EF94F278100919F
:102A3400C40410E0F801E056FD4F2383E4ECF4E015
:102A4400008103950083E8CF01E00093070A01E0C9
:102A54000093030A8991999108950E94057A2801A7
:102A6400A22FB32F642E852FBA959A2F983048F44D
:102A740020E2092F10E0F201E00FF11F208393956B
:102A8400F5CF803858F00FEF802783952DE20A2F79
:102A940010E0F201E00FF11F2083A395082F10E04E
:102AA4004B2F0E943779802F8336C8F44AE0082FD1
:102AB4000E941179005D2A2F30E0F201E20FF31F2A
:102AC4000083A3954AE0082F0E941179405D0A2FE4
:102AD40010E0F201E00FF11F4083A39510C02FE333
:102AE4000A2F10E0F201E00FF11F2083A3952FE3DA
:102AF4000A2F10E0F201E00FF11F2083A395062DA9
:102B0400015019F00A9549F016C023EE0A2F10E07F
:102B1400F201E00FF11F20830EC024EE0A2F10E013
:102B2400F201E00FF11F208321EC0A2F10E0F201E3
:102B3400E00FF11F2183E7E00C94167A0E94027AD9
:102B44002801822F832E942EDB016A847B848A944D
:102B5400982F983048F420E2092F10E0F201E00F9A
:102B6400F11F20839395F5CF482D8D010E9437796D
:102B7400D801A615B70508F067C0A83E03E0B00762
:102B840010F148EE53E08D010E943D79202F082F6B
:102B940010E0F201E00FF11F2083082F10E0F20192
:102BA400E00FF11F408150E008EE13E00E942F79FE
:102BB400A01BB10B082F10E0F201E00FF11F008100
:102BC400005D00838395A43600E0B00710F144E66D
:102BD40050E08D010E943D79202F082F10E0F20172
:102BE400E00FF11F2083082F10E0F201E00FF11F26
:102BF400408150E004E610E00E942F79A01BB10B45
:102C0400082F10E0F201E00FF11F0081005D008346
:102C140083954AE050E08D010E943D79005D282FA4
:102C240030E0F201E20FF31F008383954AE050E0A5
:102C34008D010E943D79405D082F10E0F201E00F04
:102C4400F11F4083839510C02FE3082F10E0F20199
:102C5400E00FF11F208383952FE3082F10E0F2018A
:102C6400E00FF11F20838395092D015019F00A9577
:102C740081F016C02CEE082F10E0F201E00FF11FD6
:102C8400208320EC082F10E0F201E00FF11F2183D4
:102C940007C025E2082F10E0F201E00FF11F2083A6
:102CA400ECE00C94137A532F52955F70452F4A3001
:102CB40018F0495C542F02C0405D542F452F622FF9
:102CC40070E0F801E60FF71F4083532F5F70452F24
:102CD4004A3018F0495C542F02C0405D542F452FF0
:102CE400622F70E0F801E60FF71F418308950E94F8
:102CF400027A00912206402E00912306502E00E015
:102D040010E0E5E1FBE00783108704E640164CF48D
:102D14000DE9401634F00BE550161CF406EA501683
:102D240054F40FE30093150B0FE30093160B00E02C
:102D34000093170B85C080E0282F822F8395042DE4
:102D440005290078002311F00DE201C00BE230E008
:102D5400F901EB5EF44F008344201AF400E00419F7
:102D6400402E55201AF400E00519502E042D052993
:102D7400002331F400E30093150B00E00093160BDD
:102D84000AE040165CF04AE0042D0E941F79005DC1
:102D940090E0FC01EB5EF44F008383954AE0042D40
:102DA4000E941F79405D90E0FC01EB5EF44F40838C
:102DB40083950EE290E0FC01EB5EF44F0083839573
:102DC4004AE0052D0E941F79005D90E0FC01EB5E56
:102DD400F44F0083839502EC90E0FC01EB5EF44F2A
:102DE4000083839500E090E0FC01EB5EF44F0083E8
:102DF4008395442D542F550F550B0AE010E00E9483
:102E04002F793801052D102F110F110B4AE050E0D6
:102E14000E945579600E711EE5E1FBE067827086C1
:102E24000091150B0D3261F400E010E0E5E1FBE0E8
:102E340027813085021B130BE5E1FBE00783108734
:102E440091E0933008F043C1092F10E0000F111FE7
:102E5400F801E25EF94F348120E0092F10E0000F01
:102E6400111FF801E25EF94F058110E0200F311FB8
:102E7400D90100E010E03801492F50E009E010E0EA
:102E84000E942F79F801EB5EF44F67827086A83EAA
:102E940003E0B00724F4A9310CEFB00724F50FE3E5
:102EA400602E492F50E009E010E00E942F79F801CC
:102EB400EB5EF44F60820FE3602E492F50E009E08F
:102EC40010E00E942F79F801EB5EF44F61826624D2
:102ED400492F50E009E010E00E942F79F801EB5EE1
:102EE400F44F6282F2C00A2F0B2BC1F400E3602E70
:102EF400492F50E009E010E00E942F79F801EB5EC1
:102F0400F44F60826624492F50E009E010E00E94EB
:102F14002F79F801EB5EF44F6182D7C080E0492F2E
:102F240050E009E010E00E942F79F801EB5EF44FC5
:102F3400A783B087882E882D8395A13000E0B00741
:102F44001CF00BE2602E02C00DE2602E492F50E00F
:102F540009E010E00E942F79E5E1FBE0E00FF11FAA
:102F64009924E80DF91D6082BB232AF40FEF1FEFAB
:102F7400A027B1271196A43600E0B007ECF144E68F
:102F840050E08D010E945579602E492F50E009E0F0
:102F940010E00E942F79E5E1FBE0E00FF11F082F1C
:102FA40010E0E00FF11F6082492F50E009E010E0CB
:102FB4000E942F79E5E1FBE0E00FF11F082F10E0FC
:102FC400E00FF11F408150E004E610E00E942F79E9
:102FD400A01BB10B492F50E009E010E00E942F79AB
:102FE400E5E1FBE0E00FF11F082F10E0E00FF11F17
:102FF4000081005D00838395AA3000E0B007C4F02F
:103004004AE050E08D010E945579602E00E3600E85
:10301400492F50E009E010E00E942F79E5E1FBE040
:10302400E00FF11F082F10E0E00FF11F608283957D
:103034004AE050E08D010E945579642E00E3600E51
:10304400492F50E009E010E00E942F79E5E1FBE010
:10305400E00FF11F082F10E0E00FF11F608283954D
:103064000CEE602E492F50E009E010E00E942F7909
:10307400E5E1FBE0E00FF11F082F10E0E00FF11F86
:103084006082839500EC602E492F50E009E010E047
:103094000E942F79E5E1FBE0E00FF11F082F10E01B
:1030A400E00FF11F608283956624492F50E009E008
:1030B40010E00E942F79E5E1FBE0E00FF11F082FFB
:1030C40010E0E00FF11F608283959395BACEEAE099
:1030D4000C94137A10912206012F10E0E7ECFDE026
:1030E4002591349131970217130748F0E9ECFDE07C
:1030F40025913491319710E02017310738F4E9EC29
:10310400FDE02591349131972395022F0093140B00
:1031140008959A938A9300912206002309F00EC120
:103124005091230641E032E022E000EF12E095DC0A
:103134003091230623E005ED12E0B5DD309124063D
:1031440025E005ED12E0AFDD3091250620E0009189
:10315400260610E0200F311FE3E1FAE020833183DB
:1031640008EE13E01A930A93E3E1FAE060817181B7
:1031740041E031E023E009EF12E0E0DC00912806B1
:103184004AE00E941179009319034091270650E008
:103194000AE010E00E942F792091190330E0020F19
:1031A400131FE1E1FAE000831183E1E1FAE0008119
:1031B4001181083E23E0120754F4E1E1FAE00081B2
:1031C4001181112322F0009119030A3080F000E0EC
:1031D40010E0E1E1FAE0008311830FE300931603AA
:1031E4000FE3009317030FE30093190315C0009135
:1031F40027064AE00E941179005D009316030091AE
:1032040027064AE00E941179405D40931703E4E1E8
:10321400F3E00581005D05835091290642E031E029
:1032240023E006E213E019DC0091850B033041F43E
:1032340050912A0642E031E023E00FE213E00DDC76
:1032440000912F0A043051F400916803043030F4E3
:1032540000E000932B0600E000932C0650912B060F
:1032640042E031E023E008E313E0F7DB0091850B53
:10327400033041F450912C0642E031E023E001E4B4
:1032840013E0EBDB50912D0642E031E023E00DE149
:1032940013E0E3DB04E610E01A930A9360912E0630
:1032A40070E042E031E024E002E013E047DC3091DA
:1032B4002E0623E00EED12E0F6DC30912F0620E01E
:1032C4000091300610E0200F311FC901883E03E051
:1032D4009007D0F0803107E29007B0F448EE53E055
:1032E4008C010E943D7900930E0340910E0350E03F
:1032F40008EE13E00E942F79801B910BEBE0F3E0C2
:103304000381005D038303C000E300930E0308EE12
:1033140013E01A930A93BC0143E031E025E00BE08B
:1033240013E00CDC30912F0623E007EE12E0BBDC47
:103334003091300625E007EE12E0B5DC01E00093A1
:10334400040A01E00093070A8991999108950E9463
:10335400087A802F082FECE4F0E0FBBFF6E10C9430
:10336400B779EDE5FDE0259134913197009122067E
:1033740010E02017310720F402E000938A0444C3CC
:103384000091220600938A043FC30091220610E0B4
:10339400E1E6FDE02591349131970217130758F0C7
:1033A400E3E6FDE02591349131970091220610E087
:1033B4002017310738F40FE300938B040FE30093D5
:1033C4008C0422C3009122064AE00E941179005D18
:1033D40000938B04009122064AE00E941179405D1B
:1033E40040938C0411C3E7E5FDE0259134913197B6
:1033F4000091220610E02017310760F4E7E5FDE0B4
:1034040005911491319703950093B2040FEF009343
:10341400C90AFAC2009122060093B2040091B204D0
:103424001091C90A011709F4EFC20091B204009384
:10343400C90A0E940C3D0E94473F0E94F33F0E942C
:1034440088420E94F44200910B0A0A3021F0009154
:103454000B0A003179F40091CA0A0A950093330BE0
:103464000091330B1091320B011720F40091330BB0
:103474000093320B00910B0A073021F000910B0AE4
:103484000D3079F40091350A0A950093330B0091BD
:10349400330B1091320B011720F40091330B00937E
:1034A400320B00910B0A063109F0AEC200915F0A9B
:1034B40003500093330B0091330B1091320B01171F
:1034C40008F0A2C20091330B0093320B9DC200910D
:1034D40022064AE00E941179405D409393040091D2
:1034E40022064AE00E9411790093220600912206E6
:1034F4004AE00E941179405D4093920400912206B3
:103504004AE00E941179005D009391047DC200910C
:103514002206A02FB0E0E3EAFDE005911491319773
:10352400A017B10748F0E5EAFDE005911491319741
:10353400B0E00A171B0738F4E5EAFDE005911491A1
:1035440031970395A02FA093F30AB0E0EDECFDE0D2
:10355400059114913197A017B10748F0EFECFDE005
:10356400059114913197B0E00A171B0738F40FE363
:103574000093AB040FE30093AC040EC04AE00A2F9F
:103584000E941179005D0093AB044AE00A2F0E9467
:103594001179405D4093AC0400912306A02FB0E064
:1035A400E9EAFDE0059114913197A017B10748F0BD
:1035B400EBEAFDE0059114913197B0E00A171B077F
:1035C40038F4EBEAFDE00591149131970395A02FAF
:1035D400A093F40A00912406A02FB0E0EFEAFDE0E6
:1035E400059114913197A017B10748F0E1EBFDE084
:1035F400059114913197B0E00A171B0750F40FE3BB
:103604000093F50A0FE30093F60A0FE30093F70A19
:103614001AC04AE00A2F0E941179405D4093F70ACC
:103624004AE00A2F0E941179A02F4AE00A2F0E9433
:103634001179405D4093F60A4AE00A2F0E941179FD
:10364400005D0093F50A00912506A02F4AE00A2F99
:103654000E941179405D4093010B4AE00A2F0E94B9
:103664001179A02F4AE00A2F0E941179405D4093FE
:10367400000B4AE00A2F0E941179005D0093FF0AB3
:1036840000912606A02FB0E0EBEBFDE0059114912C
:103694003197A017B10748F0EDEBFDE005911491C7
:1036A4003197B0E00A171B0738F40FE30093090BB6
:1036B4000FE300930A0B0EC04AE00A2F0E9411790F
:1036C400005D0093090B4AE00A2F0E941179405DC6
:1036D40040930A0B00912706A02FB0E0E1ECFDE037
:1036E400059114913197A017B10748F0E3ECFDE080
:1036F400059114913197B0E00A171B0738F4E3ECF5
:10370400FDE00591149131970395A02FA093130B1D
:103714007BC13091220620E00091230610E0200FA7
:10372400311FE2ECF4E02083318300E000932206B1
:10373400E2ECF4E000811181E9E7FDE025913491A8
:1037440031970217130720F401E0009322060FC0FB
:10375400EBE7FDE0059114913197E2ECF4E0208170
:1037640031810217130718F401E000932206009137
:1037740022060023F9F00FE300939B040FE3009368
:103784009C040FE300939D0400E200939E040AEE60
:1037940000939F0403EC0093A00406EF0093A1049C
:1037A4000FE30093CC020FE30093CD020FE30093E9
:1037B400CE0278C0E2ECF4E000811181043620E00E
:1037C400120730F54AE050E0E2ECF4E000811181A8
:1037D4000E943D79005D00939B044AE050E0E2ECD6
:1037E400F4E0008111810E943D79405D40939C0486
:1037F40000E200939D040AEE00939E0403EC009300
:103804009F0406EF0093A00400E20093A1043EC0CD
:1038140044E650E0E2ECF4E0008111810E943D793D
:10382400005D00939B04E0919B04F0E0F09744E674
:1038340050E08F010E942F79E2ECF4E02081318185
:10384400201B310B208331834AE050E0E2ECF4E0AA
:10385400008111810E943D79005D00939C044AE03F
:1038640050E0E2ECF4E0008111810E943D79405D7A
:1038740040939D0400E200939E040AEE00939F048B
:1038840003EC0093A00406EF0093A10400919B04B1
:103894000093CC0200919C040093CD0200919D04FE
:1038A4000093CE0201E00093030AAEC00091220609
:1038B40010E0EFE7FDE025913491319702171307EB
:1038C40058F0E1E8FDE0259134913197009122060A
:1038D40010E02017310738F40FE30093A3040FE33B
:1038E4000093D30209C000912206005D0093A30453
:1038F4000091A3040093D30201E00093030A84C05F
:10390400EDE8FDE02591349131970091220610E015
:103914002017310738F40FE30093A5040FE3009355
:10392400A60410C0009122064AE00E941179005DAD
:103934000093A504009122064AE00E941179405D9B
:103944004093A604E3E9FDE0259134913197009179
:10395400230610E02017310738F40FE30093010425
:103964000FE30093020413C0009123064AE00E946F
:103974001179005D00930104009123062091010454
:1039840020531AE0219F0019005D00930204009166
:10399400850B0330C9F5EDE8FDE0259134913197AD
:1039A4000091240610E02017310738F40FE3009348
:1039B40007040FE30093080427C0009124064AE09B
:1039C4000E941179005D0093070400912406209160
:1039D400070420531AE0219F0019005D0093080496
:1039E40013C0E7E8FDE02591349131970091220658
:1039F40010E02017310720F402E00093B10404C062
:103A0400009122060093B10401E00093070A01E04B
:103A14000093020AE4E00C94197A20E001E0009398
:103A2400070A01E00093020A0FE010E0409120062B
:103A340042954F7050E0041B150B4091650B50E00C
:103A4400FA01EC59F44F428150E00417150709F4C8
:103A540021E0009120060F700130D9F42223C9F02F
:103A640000912306002359F000E011E0E4E6FBE0B6
:103A7400078310870091220600936D0B0AC0009102
:103A8400220610E0E4E6FBE00783108700E00093E1
:103A94006D0B009120060F700230E1F4222379F0BF
:103AA40000E00031B8F410E0F801E25EF94F34812F
:103AB40010E0F801EC59F44F32870395F2CF00E09F
:103AC400003140F430E010E0F801EC59F44F328753
:103AD4000395F6CF08950E94087AA02F00E0009382
:103AE400750300E00093760300E00093770300E0A1
:103AF4000093780380E00091D50B801708F090C004
:103B0400482F50E00AE010E00E942F79F801E355B5
:103B1400F44F0081015039F00A9529F00A9539F0E3
:103B24000A9529F007C000912206902F03C0009146
:103B34002706902F482F50E00AE010E00E942F79CA
:103B4400F801E355F44F0081015039F00A95E9F189
:103B54000A9519F00A95C9F161C0092F0F70013057
:103B640040F190FB66F4B1E0482F50E00AE010E029
:103B74000E942F79F801E355F44FB1834FC091FBB4
:103B840066F4B2E0482F50E00AE010E00E942F797A
:103B9400F801E355F44FB18341C0B3E0482F50E03E
:103BA4000AE010E00E942F79F801E355F44FB18345
:103BB40035C0B0E0482F50E00AE010E00E942F79B1
:103BC400F801E355F44FB18329C0092F007F002386
:103BD400D1F094FB66F4B1E0482F50E00AE010E025
:103BE4000E942F79F801E355F44FB18317C0B2E076
:103BF400482F50E00AE010E00E942F79F801E355C5
:103C0400F44FB1830BC0B0E0482F50E00AE010E05D
:103C14000E942F79F801E355F44FB18383956BCF5C
:103C240020E024308CF430912206422F01E010E091
:103C34000E9437793023332329F0022F0395009310
:103C4400750302C02395EDCFEEE1F6E0048104FF95
:103C540003C001E0009376030091800B0130A8F0CB
:103C640000912306002389F003E000937503E5E740
:103C7400F3E00081039500830091230606950093E9
:103C8400230600912306002391F70091800B09304D
:103C9400A8F000912406002389F00BE0009375033B
:103CA400E5E7F3E00081039500830091240606957F
:103CB4000093240600912406002391F70091800BC1
:103CC4000131A8F000912506002389F003E1009357
:103CD4007503E5E7F3E00081039500830091250671
:103CE40006950093250600912506002391F700917F
:103CF400800B0931A8F000912606002389F00BE11E
:103D040000937503E5E7F3E00081039500830091D8
:103D1400260606950093260600912606002391F7B1
:103D24000091850B033009F085C00091820B0023BC
:103D340009F480C020E024308CF430912706422F0F
:103D440001E010E00E9437793023332329F0022F59
:103D540003950093770302C02395EDCFEEE1F6E0DF
:103D6400018504FF03C001E0009378030091820BF6
:103D74000130A8F000912806002389F003E00093A5
:103D84007703E7E7F3E000810395008300912806B9
:103D940006950093280600912806002391F70091C8
:103DA400820B0930A8F000912906002389F00BE06A
:103DB40000937703E7E7F3E0008103950083009124
:103DC400290606950093290600912906002391F7F8
:103DD4000091820B0131A8F000912A06002389F09A
:103DE40003E100937703E7E7F3E0008103950083A1
:103DF40000912A06069500932A0600912A060023BC
:103E040091F70091820B0931A8F000912B06002351
:103E140089F00BE100937703E7E7F3E00081039572
:103E2400008300912B06069500932B0600912B0628
:103E3400002391F701E00093070A01E00093020ACE
:103E4400E4E00C94197A8A9300E00093640B00E098
:103E54000093660B81E000912206002339F400E010
:103E640000937E0B00E00093610317C000912206CB
:103E7400013091F401E000937E0B01E000936303B1
:103E84002091640B23952093640B03E030E0F90147
:103E9400EC59F44F028301C080E0009123060930FD
:103EA40070F400912306033051F01091230604E0CE
:103EB400109F0092810B01E00093630301C080E036
:103EC40000912406093058F400912406033039F097
:103ED4001091240604E0109F0092820B01C080E040
:103EE40000912506093058F400912506033039F075
:103EF4001091250604E0109F0092800B01C080E021
:103F040000912606023059F402E00093850B00E08C
:103F14000093820B0091810B00937F0B3DC00091B5
:103F240026060330C1F503E00093850B0091820B54
:103F3400002321F400917E0B002319F001E000938B
:103F4400640300917E0B002379F00091810B002320
:103F540059F00091820B002339F00091800B00236B
:103F640019F001E000938A0B0091810B1091820BF0
:103F7400010F00937F0B0091820B002369F02091C5
:103F8400640B23952093640B04E030E0F901EC59B1
:103F9400F44F028301C080E000917F0B002359F0AD
:103FA4002091640B23952093640B02E030E0F90127
:103FB400EC59F44F02830091800B002359F02091B7
:103FC400640B23952093640B01E030E0F901EC5974
:103FD400F44F028300912706013021F401E000939D
:103FE400840B09C000912706023021F402E00093FB
:103FF400840B01C080E00091840B013021F404E0C3
:104004000093060A03C003E00093060A30912806D1
:1040140020E00091290610E0200F311FEAEAF2E0C7
:104024002283338330912A0620E000912B0610E08E
:10403400200F311FEAEAF2E0248335830091840BD8
:10404400023021F401E00093AB0B13C00091850B07
:10405400023021F402E00093AB0B0BC00091850BFE
:10406400033021F404E00093AB0B03C000E00093A1
:10407400AB0B00E00093960B00917E0B002389F0BC
:104084000CE015E02091960B30E0220F331FF9016C
:10409400E956F44F00831183E6E9FBE000810395C0
:1040A40000830091850B0230B1F400917F0B013045
:1040B400E0F104E115E02091960B30E0220F331F6C
:1040C400F901E956F44F00831183E6E9FBE000812E
:1040D400039500832AC00091810B013088F001E32D
:1040E40015E02091960B30E0220F331FF901E956B9
:1040F400F44F00831183E6E9FBE00081039500831C
:104104000091820B013088F00DE315E02091960BAD
:1041140030E0220F331FF901E956F44F0083118375
:10412400E6E9FBE00081039500830091800B0130F8
:1041340088F00EE115E02091960B30E0220F331F3A
:10414400F901E956F44F00831183E6E9FBE00081AD
:10415400039500830AE215E02091960B30E0220FCC
:10416400331FF901E956F44F00831183E6E9FBE0BC
:104174000081039500830FEF0093C90A0E940C3D50
:104184000E94473F0E94F33F0E9488420E94F442EB
:104194008093860B899108959A938A93802F282F70
:1041A4002A950EE116E00E94920C10E0E0ECF4E097
:1041B40000831183E0ECF4E02081318190E0FC0184
:1041C400E35EF94F008110E02017310719F0549A8B
:1041D400579AA0C00091AE06023009F500E00093A2
:1041E400C6040091C6040817A0F40091C60410E0A8
:1041F400F801E25EF94F20810091C60410E0F80155
:10420400EB5EFA4F2083E6ECF4E000810395008333
:10421400E8CF03E00093AE068093AF067BC0009125
:10422400AE06002309F076C04EE156E02091200648
:1042340030E0E7EDFBE0008111810E947F290091CD
:10424400200610E0007F1070005039F0005151F04A
:10425400005169F0005181F045C0009120060E9490
:10426400EE0C56C0009120060E94191051C0009116
:1042740020060E944D114CC000912006005369F0A5
:104284000A9571F00A9579F00A9581F00A95C1F0C2
:104294000A50E9F00A95F9F020C00E94511238C082
:1042A4000E94BE1235C00E94671332C00091840B75
:1042B400013019F40E9479162BC00E946C1828C092
:1042C4000091840B013021F50E948B1821C00091CC
:1042D400220601DC1DC0B7DD1BC0009120060E9430
:1042E400A91916C000912006015C79F00A9579F0AD
:1042F4000F5059F00A9559F00F5039F00A9539F0DA
:104304000F5019F00A9519F003C087DB01C085DB53
:10431400549A579A0E949C2800E00093B006899111
:1043240099910895792F282E0801622F8FEF1FEF9E
:1043340040E04617C0F450E0F001E40FF51F00819F
:10434400382F3027232F30E0F901E457FF4F049131
:10435400312F3027832F30E0F901E457FE4F0491C9
:10436400102F4395E6CF00E090E0082B192B822D07
:10437400972F0895B80100E010912A0A105019F0FF
:104384001A9561F0089542E0421798F450E0FB0159
:10439400E40FF51F1081010F4395F6CF40E042175B
:1043A40040F450E0FB01E40FF51F1081010F439529
:1043B400F6CF08959A938A93902F812FE4EDF4E039
:1043C4000081006100839093170501E000931805B4
:1043D4008093190525E005E115E0CCDF10E0E7EC5A
:1043E400F4E000831183E7ECF4E000811181009391
:1043F4001A0506E00E945C298991999108959A937F
:104404008A93902F812FE4EDF4E000810061008312
:1044140000912A0A005019F00A95F9F049C09093C6
:10442400170580931805282F2C5F05E115E0A2DFFE
:1044340010E0E7ECF4E000831183E7ECF4E00081A2
:104444001181202F082F10E0F801EB5EFA4F24832E
:10445400082F0B5F0E945C292BC00091A8020093D7
:10446400150590931605282F2D5F05E115E05ADFF9
:10447400E7ECF4E000831183E7ECF4E000811181C0
:10448400202F082F10E0F801EB5EFA4F2383E7ECAE
:10449400F4E000811181012F10E0202F082F10E09B
:1044A400F801EB5EFA4F2483082F0B5F0E945C290E
:1044B4008991999108958A93802FE4EDF4E0008125
:1044C400006100838093170502E00093180526E03D
:1044D40005E115E04FDF10E0E7ECF4E00083118321
:1044E400E7ECF4E00081118100931B0507E00E94D2
:1044F4005C29899108958A93802FE4EDF4E000818A
:10450400006100830091A802009315050091D60470
:104514000068009316058093170523E005E115E074
:1045240029DF10E0E7ECF4E000831183E7ECF4E02A
:104534000081118100931805E7ECF4E000811181FA
:10454400012F10E00093190505E00E945C29899170
:1045540008950E94087A802F0E94692900FB4EF476
:1045640000E00093190500E000931A0501EEA3DFB3
:10457400D2C300912A0A005021F00A9509F44CC1D3
:10458400C0C30091D504053509F03BC10091D604A0
:104594000A3A09F036C10091D80410E0E82FF0E09F
:1045A40035970E171F0759F00091D8040093190589
:1045B400082F055000931A0503EE7DDFACC3282FA6
:1045C4002A9505ED14E0D6DE10E0E7ECF4E0008374
:1045D4001183E7ECF4E02081318190E0FC01EC529E
:1045E400FB4F008110E02017310781F090E0FC01BF
:1045F400EC52FB4F008100931905E7ECF4E00081D5
:10460400118100931A0502EE56DF85C30091D70489
:10461400043729F00091D704033709F0C6C000918C
:10462400D7040437B1F54091530B50E008EE13E082
:104634000E942F79D8014091540B50E004E610E019
:104644000E942F79A00FB11F4091550B50E00AE052
:1046540010E00E942F79A00FB11F0091560B10E0BB
:10466400A00FB11FA055B04DECECF4E0A083B183D2
:10467400ECECF4E000811181012F10E000931905A6
:10468400ECECF4E00081118100931A0512E002E7DA
:10469400B6DE0091D704033709F079C03091D9040C
:1046A40020E00091DA0410E0200F311FECECF4E07C
:1046B4002083318348EE53E0ECECF4E00081118177
:1046C4000E943D79005D0093530BE091530BF0E0A1
:1046D400F09748EE53E08F010E942F79ECECF4E060
:1046E40020813181201B310B2083318344E650E04B
:1046F400ECECF4E0008111810E943D79005D0093AF
:10470400540BE091540BF0E0F09744E650E08F0135
:104714000E942F79ECECF4E020813181201B310BD5
:10472400208331834AE050E0ECECF4E00081118115
:104734000E943D79005D0093550BE091550BF0E02C
:10474400F0974AE050E08F010E942F79ECECF4E0FE
:1047540020813181201B310B20833183ECECF4E088
:1047640000811181005D0093560B10E003E747DEE2
:1047740001E00093A40600E010E0EAEAF6E000831A
:10478400118303E51BE0E6EAF6E0008311830FE002
:104794000093A90200919A00006100939A0000918D
:1047A4009A00006800939A00B6C200E00093CB041C
:1047B4000091CB040817E0F40091CB0410E0F80159
:1047C400EB52FB4F20810091CB0410E0F801E25A38
:1047D400F94F208300E02091CB0430E0F901EB5243
:1047E400FB4F0083EBECF4E0008103950083E0CF02
:1047F4008093AF0601E00093AE060FE00093A90298
:104804008AC200919A00006100939A0000919A0074
:10481400006800939A007FC20091D5041091A80209
:10482400011709F063C2282F225005ED14E07ADD48
:10483400E7ECF4E00083118390E0FC01ED52FB4FC0
:10484400208130E090E0FC01EC52FB4F108100E04D
:10485400200F311FE9ECF4E020833183E7ECF4E02E
:1048640000811181E9ECF4E0208131810217130702
:1048740091F0E7ECF4E00081118100931705E7EC77
:10488400F4E000811181012F10E00093180511E07C
:104894000FEFB5DD30C23091D70420E00091D80489
:1048A40010E0200F311FEFECF4E0208331830091FE
:1048B400DA040093CE040091D604035021F003508F
:1048C40009F4E0C110C20091CE04013420F4009137
:1048D400CE04002319F403E00EDE0DC2EFECF4E085
:1048E400008111810A3F20E0120740F0EFECF4E070
:1048F40000811181003024E01207A8F0EFECF4E00D
:10490400208131810091CE0410E0200F311F2B3F14
:1049140000E0300758F0EFECF4E000811181003042
:1049240024E0120718F402E0E6DDE5C11091CE049C
:1049340002E0109F00921705EFECF4E00081118172
:104944000A3F20E0120778F500E00093CB040091C1
:10495400CB041091CE040117F0F4EFECF4E0608185
:1049640071810091CB0410E0600F711F1091CB0492
:1049740002E0109F03E0000E402D25E135E0E7ED55
:10498400FBE0008111810E94D229EBECF4E000816C
:1049940003950083DCCF1091CE0402E0109F102D0C
:1049A40003E02DDDA8C1EFECF4E0008111810030BB
:1049B40024E0120708F44FC0EFECF4E00081118109
:1049C400003022E2120708F046C001E00093620BB7
:1049D40020E030E0E7EDFBE0008111810E94C72C6C
:1049E4004FE00091CE040E9411790093610B009175
:1049F400610B002329F4E1E6FBE0008103950083C9
:104A0400AFE0B0E0EFECF4E000811181005014401D
:104A14004FE050E00E943D79A41BB50B0091CE04F9
:104A240010E0A017B10728F4E1E6FBE0008103954C
:104A34000083EFECF4E000811181005014404FE05A
:104A440050E00E943D79E1EDF4E00083118302EF30
:104A54000093630B50C1EFECF4E00081118100304E
:104A640024E2120708F454C0EFECF4E00081118151
:104A7400003022E4120708F04BC001E00093620BFF
:104A840020E030E0E7EDFBE0008111810E94C72CBB
:104A94004FE00091CE040E9411790093610B0091C4
:104AA400610B002329F4E1E6FBE000810395008318
:104AB400EFECF4E000811181005014424FE050E02B
:104AC4000E943D794093D3040FE010E02091D30479
:104AD40030E0021B130B2091CE0430E002171307C1
:104AE4002CF4E1E6FBE0008103950083EFECF4E0B5
:104AF40000811181005014424FE050E00E943D7942
:104B0400E1EDF4E00083118302EC0093630BF3C046
:104B1400EFECF4E000811181003024E4120708F482
:104B240054C0EFECF4E000811181003022E612075A
:104B340008F04BC001E00093620B20E030E0E7EDA9
:104B4400FBE0008111810E94C72C4FE00091CE044C
:104B54000E9411790093610B0091610B002329F4E9
:104B6400E1E6FBE0008103950083EFECF4E00081D3
:104B74001181005014444FE050E00E943D7940936D
:104B8400D3040FE010E02091D30430E0021B130B98
:104B94002091CE0430E0021713072CF4E1E6FBE089
:104BA400008103950083EFECF4E000811181005053
:104BB40014444FE050E00E943D79E1EDF4E00083BD
:104BC400118302ED0093630B96C0EFECF4E00081D7
:104BD4001181003024E6120708F48DC0EFECF4E0F4
:104BE40000811181003022E8120708F084C001E03E
:104BF4000093620B20E030E0E7EDFBE000811181DF
:104C04000E94C72C4FE00091CE040E9411790093BA
:104C1400610B0091610B002329F4E1E6FBE00081C4
:104C240003950083EFECF4E00081118100501446F9
:104C34004FE050E00E943D794093D3040FE010E030
:104C44002091D30430E0021B130B2091CE0430E0FA
:104C5400021713072CF4E1E6FBE0008103950083BF
:104C6400EFECF4E000811181005014464FE050E075
:104C74000E943D79E1EDF4E00083118302EE00939C
:104C8400630B39C05091D90440E00091DA0410E07C
:104C9400400F511FEFECF4E020813181E7EDFBE0A0
:104CA400008111810E941D2A00E00093CB04009131
:104CB400CB040630A0F40091CB0410E0F801EB52D1
:104CC400FB4F20810091CB0410E0F801EB5EFA4F1A
:104CD4002083EBECF4E0008103950083E8CF13E03C
:104CE40006E08DDB08C001E006DC05C000919A00F7
:104CF400006100939A0000919A00006800939A0062
:104D04000AC000919A00006100939A0000919A00F1
:104D1400006800939A000E947B29E4E00C94197ABD
:104D24000FEC09B91098119A1898199A0EE000938B
:104D3400950008E10AB9549A579A06B70D7F06BF41
:104D440007B7016007BF05E002BF04E003BF05E544
:104D540000935E060AEA00935F0605E500931E06CB
:104D64000AEA00931F060895FA93EA935A934A9322
:104D74003A932A931A930A934FB75BB71CB1012F46
:104D84005C9953C01091A006105039F01A9561F047
:104D94001A95A1F01A95C1F028C0053509F045C04F
:104DA40011E01093A00641C00A3A21F412E01093D6
:104DB400A0063BC010E01093A00637C00093200665
:104DC40013E01093A00631C0009321060C3320F0A9
:104DD40010E01093A00603C014E01093A0061091F5
:104DE400A006100F1093A10620C02091A00630E069
:104DF400F901E25EF94F00831091A0062091A1060B
:104E0400121770F011E01093B00610E01093A00692
:104E1400549857981091A10613951093B10605C0A4
:104E2400E0EAF6E01081139510835BBF4FBF099150
:104E340019912991399149915991E991F9911895CB
:104E4400FA93EA933A932A931A930A932FB73BB7A8
:104E540000919E0610919F06011784F400919E060E
:104E6400102F110F110BF801E25AF94F00810CB900
:104E7400EEE9F6E00081039500830FC0539855983E
:104E840000E000939F0600E000939E06549A579A10
:104E9400EDE1F6E000810F7E00833BBF2FBF099157
:104EA400199129913991E991F9911895BA93AA9395
:104EB4009A938A93FA93EA933A922A921A920A92CA
:104EC4007A936A935A934A933A932A931A930A9336
:104ED4008FB79BB72197A89505E002BF00910607FD
:104EE400003F09F045C00091AE06002309F040C020
:104EF4000E94B63700931A0600911A0610911906FB
:104F0400011721F000911A06003FD1F4EBE1F6E01D
:104F1400008111810F5F1F4F00831183EBE1F6E0E5
:104F240000811181013921E0120784F000E911E0C8
:104F3400EBE1F6E00083118300EF0093190606C04D
:104F440000E010E0EBE1F6E00083118300911A0623
:104F540010911906011761F000911A06003F41F003
:104F640000911A060093060700911A060093190689
:104F740000911706053078F100911806013029F0E8
:104F8400E4EDF4E0008100FF22C000919A000F7E5E
:104F940000939A0000919A000F7700939A00E4ED31
:104FA400F4E0008108600083009114060E94AB22A3
:104FB40000E00093180600E00093140600919C00A2
:104FC4000883E4EDF4E000810F7E008309C00EE164
:104FD4000093170605C0E7E1F6E00081039500831E
:104FE400E1993AC00091A4060130B1F5F894EAEAD7
:104FF400F6E0008111811FBB0EBB0091A20610E0F8
:10500400E6EAF6E0A081B181A00FB11F0C910DBBBF
:10501400E29AE19A7894E2EAF6E00081039500834B
:10502400EAEAF6E0008111810F5F1F4F00831183CC
:105034000091A20610E0A6EAB6E0ED91FC9111976A
:10504400E00FF11F31970081002331F400E0009359
:10505400A40600E00093A206E19951C00091A506C0
:10506400013009F04CC0ECEAF6E0008111811FBB6D
:105074000EBBE09A2DB30091A30610E0E8EAF6E037
:10508400A081B181A00FB11F2C930091A30610E061
:10509400A8EAB6E0ED91FC911197E00FF11F0081B1
:1050A4000F3F61F400E02091A30630E0A8EAB6E0E7
:1050B400ED91FC911197E20FF31F0083ECEAF6E007
:1050C400008111810F5F1F4F00831183E3EAF6E033
:1050D4000081039500830091A30610E0A8EAB6E0DE
:1050E400ED91FC911197E00FF11F3197008100239E
:1050F40031F400E00093A50600E00093A306219696
:105104009BBF8FBF09911991299139914991599167
:10511400699179910990199029903990E991F991BF
:1051240089919991A991B991189500939F06539AE1
:10513400559A089500E000931D06089503E3009333
:1051440099008A988B9A9298939A0EE000939D0006
:1051540008E100939A0000919A00006100939A007C
:1051640000919A00006800939A0005E500931505E4
:105174000AEA009316050895FA93EA934A933A9338
:105184002A931A930A933FB74BB700919C00202FA0
:1051940000919B00102F14FF05C0E4EDF4E00081A2
:1051A4000160008300911806002391F40091170612
:1051B4000E3170F001E00093180600E0009314062D
:1051C40000E000931706E4EDF4E000810061008341
:1051D400009118060130E9F4009117060E31C8F465
:1051E40000911406003430F0E4EDF4E00081016035
:1051F40000830CC00091140610E0F801EB52FB4F41
:105204002083E4E1F6E000810395008300E000934D
:1052140017064BBF3FBF09911991299139914991C3
:10522400E991F9911895FA93EA933A932A931A9388
:105234000A932FB73BB70091150610911606011774
:105244008CF400911506102F110F110BF801EB5E71
:10525400FA4F008100939C00E5E1F6E0008103959C
:1052640000831FC000919A00077F00939A00009169
:105274009A000F7D00939A0000E00093160600E068
:105284000093150600919A00006100939A00009122
:105294009A00006800939A00E4EDF4E000810F7E28
:1052A40000833BBF2FBF0991199129913991E9914D
:1052B400F99118950093160610919A0018601093AE
:1052C4009A0010919A00106210939A000895109118
:1052D400D404012F10919A00212F27FF02C00260ED
:1052E40011E010919A00212F25FF02C0046011E003
:1052F400089500E00093D40408950E94067AC8013A
:10530400D9012A018D01E4E6F0E0FBBFF6E10C943B
:10531400BB79A2019D018C013CD33FC0A2019D0138
:105324008C019BD33AC0A2019D018C0134D435C0B9
:1053340092018C01ADD431C092018C01CCD42DC02A
:1053440092018C01F7D429C092018C017ED525C02D
:10535400A2019D018C01F4D620C045EB50E09201DE
:105364008C010E94153119C046EB50E092018C016A
:105374000E94153112C047EB50E092018C010E944B
:1053840015310BC044EB50E092018C010E941531A1
:1053940004C092018C010E942B31E6E00C94177A30
:1053A4000E94047AD8013901442ECB01863100E0F1
:1053B400900721F423E53BE08D01B7D2803001E072
:1053C400900718F5FD01218132818C01000F111F16
:1053D400200F311FF90100811181012F10E05524A4
:1053E400F301E40DF51D0083FD01218132818C015F
:1053F400000F111F200F311FF90100811181552465
:10540400F301E40DF51D01830CC00FEF5524F301E6
:10541400E40DF51D00830FEF5524F301E40DF51D94
:105424000183E8E00C94157A222311F0F801238318
:10543400F8010381089562E0F8016383F80124838D
:105444003583F801468357830895F801122F1150CC
:1054540019F01A9521F006C01085012F08951185C1
:10546400012F08950FEF08950E94077AD801C9010A
:10547400FD0104811581005110400650104008F4CC
:1054840070C00050104009F4C2C00A51104009F421
:10549400F2C00350104009F4EEC00350104009F468
:1054A400EAC00A51104008F43DC20750104008F405
:1054B400FCC00950104009F407C10150104009F420
:1054C40003C10150104008F44BC00450104008F4CC
:1054D4000AC10050104008F443C00450104008F4BE
:1054E40014C100501040E0F10052104008F41FC1F4
:1054F40006501040A8F10350104008F42AC100508F
:10550400104070F10450104008F432C100501040B3
:1055140038F10450104008F43DC10550104000F12A
:105524000550104008F448C10050104009F453C11C
:105534000150104009F465C10150104009F470C1D4
:105544000D50104009F478C10150104009F492C183
:105554000150104009F4ACC10150104009F4C5C118
:10556400E1C100E00C930C91063078F5FD01018156
:1055740012812C9130E0220F331F020F131FF80108
:1055840000A111A14AE050E00E943D79402E4294CE
:1055940000EF4022FD01018112812C9130E0220FA5
:1055A400331F020F131FF80100A111A14AE050E0BC
:1055B4000E943D79440E0C9110E0FC01E00FF11FB4
:1055C40044820C9103950C93CECFFD010681178183
:1055D4004AE050E00E943D79402E429400EF402280
:1055E400FD01068117814AE050E00E943D79440E96
:1055F400FD0104811581FC01E00FF11F3C974082FD
:1056040002EBFD01008706E0FD0101878BC1FD016E
:1056140006811781012F10E00695069506950695DB
:10562400005D0093530BFD0106811781012F10E0EB
:105634000F70005D0093540BFD01068117810295E4
:105644000F70005D0093550BFD01068117810F70EB
:10565400005D0093560B01E00093A40600E010E007
:10566400EAEAF6E00083118303E51BE0E6EAF6E0EC
:105674000083118357C1FD0106811781023020E0A8
:10568400120731F401E7FD01008700E0FD01018705
:10569400FD0106811781012B09F044C100E7FD01DA
:1056A400008700E0FD0101873DC1FD0104811581F2
:1056B4000F5CFD01008701E0FD010187FD0106810A
:1056C4001781FC0104832EC1FD01048115810F5C47
:1056D400FD01008701E0FD010187FD0106811781BD
:1056E400FC0104831FC104E9FD01008702E0FD0100
:1056F4000187FD01048115810156FC010483FD012C
:1057040006811781FC0105830DC105E9FD010087B0
:1057140002E0FD010187FD01048115810556FC01AC
:105724000483FD0106811781FC010583FBC003E9A5
:10573400FD01008702E0FD010187FD01048115815F
:105744000956FC010483FD0106811781FC010583D0
:10575400E9C0FD01048115810F5EFD01008701E0B0
:10576400FD010187FD0106811781FC010483DAC074
:1057740004EAFD01008702E0FD010187FD010481C7
:1057840015810259FC010483FD0106811781FC0186
:105794000583C8C005EAFD01008702E0FD01018719
:1057A400FD01048115810659FC010483FD01068174
:1057B4001781FC010583B6C0FD01048115810B5ED0
:1057C400FD01008701E0FD010187FD0106811781CC
:1057D400FC010483A7C0FD01048115810B5EFD015A
:1057E400008702E0FD010187FD0106811781012F79
:1057F40010E0FC010483FD0106811781FC0105838F
:1058040091C0FD01048115810B5EFD01008701E05B
:10581400FD010187FD0106811781FC01048382C01B
:105824000DEBFD01008701E0FD010187FD0106810B
:105834001781FC01048376C00AEFFD01008700E0B4
:10584400FD01018700E00C930C91013808F06AC057
:105854000EEE1EEEFD01248535854C9150E0440F7B
:10586400551F240F351FF901008311830C910395F3
:105874000C93EACF0AECFD01008700E0FD010187EB
:1058840000E00C930C91013808F04CC00EEE1EEEB3
:10589400FD01248535854C9150E0440F551F240F9C
:1058A400351FF901008311830C9103950C93EACF02
:1058B4000AEDFD01008700E0FD01018700E00C9383
:1058C4000C91013878F50EEE1EEEFD012485358528
:1058D4004C9150E0440F551F240F351FF9010083EC
:1058E40011830C9103950C93EBCF0AEEFD01008715
:1058F40000E0FD01018700E00C930C91013890F465
:105904000EEE1EEEFD01248535854C9150E0440FCA
:10591400551F240F351FF901008311830C91039542
:105924000C93EBCFE5E00C94187A5B2F0A2EB801A8
:10593400F901208130E0322F20E0330F330F330F91
:10594400330F018110E000531040102F00E0200FAE
:10595400311F028110E00053104044E00E94377967
:10596400200F311F038110E00F701070200F311FC2
:10597400DB0111960D911C911297D8019C962D93E1
:105984003C939D97A02DB52F0895F801268737875E
:1059940008950E94067AC8012901DA018201ECED1A
:1059A400F0E0FBBFF6E10C94BB79FD01248130E00B
:1059B400FC010181128100561F4FF80120833183BD
:1059C40049C0FD01248130E02F5F3F4FFC0101817C
:1059D40012810E551F4FF801208331833BC0FD0116
:1059E400248130E0FC01018112810C551F4FF80124
:1059F400208331832FC0FD01248130E0FC0101812B
:105A040012810A551F4FF8012083318323C0FD0101
:105A1400248130E0FC010181128108551F4FF801F7
:105A24002083318317C0FD01248130E0FC01018112
:105A3400128106551F4FF801208331830BC0FD01ED
:105A4400248130E0FC010181128104551F4FF801CB
:105A540020833183E6E00C94177A0E94067AD801F9
:105A64002901CA018201E2EFF0E0FBBFF6E10C94E8
:105A7400BB79FC01248130E0220F331FFD01018139
:105A8400128100541F4FF8012083318381C0FC012F
:105A9400448150E00AE010E00E942F79FD01218149
:105AA40032812E533F4FF9010083118371C000E00E
:105AB4000C930C91FC011381011708F069C00C913F
:105AC40010E0FC01E00FF11F448150E00AE010E017
:105AD4000E942F79FD01218132814C9150E0440FC5
