:100000000C94C27918951895189518951895189507
:100010001895189518951895189518951895189578
:1000200018951895189518950C94383118951895B9
:1000300018951895189518950C94E07818951895BA
:100040000C948727189518950C94E7260C94512743
:100050001895189518951895189518951895189538
:100060001895189518951895189518951895189528
:1000700018951895189518950C94E5280C943B291B
:1000800018951895189518951895189500C18140E0
:1000900001C0804101C0804100C1814001C0804158
:1000A00000C1814000C1814001C0804101C0804148
:1000B00000C1814000C1814001C0804100C1814038
:1000C00001C0804101C0804100C1814001C0804128
:1000D00000C1814000C1814001C0804100C1814018
:1000E00001C0804101C0804100C1814000C1814008
:1000F00001C0804101C0804100C1814001C08041F8
:1001000000C1814000C1814001C0804101C08041E7
:1001100000C1814000C1814001C0804100C18140D7
:1001200001C0804101C0804100C1814000C18140C7
:1001300001C0804101C0804100C1814001C08041B7
:1001400000C1814000C1814001C0804100C18140A7
:1001500001C0804101C0804100C1814001C0804197
:1001600000C1814000C1814001C0804101C0804187
:1001700000C1814000C1814001C0804100C1814077
:1001800001C0804101C0804100C1814000C0C10167
:10019000C30302C2C60607C705C5C404CC0C0DCDF7
:1001A0000FCFCE0E0ACACB0BC90908C8D81819D967
:1001B0001BDBDA1A1EDEDF1FDD1D1CDC14D4D51597
:1001C000D71716D6D21213D311D1D010F03031F187
:1001D00033F3F23236F6F737F53534F43CFCFD3DB7
:1001E000FF3F3EFEFA3A3BFB39F9F83828E8E929A7
:1001F000EB2B2AEAEE2E2FEF2DEDEC2CE42425E557
:1002000027E7E62622E2E323E12120E0A06061A1C6
:1002100063A3A26266A6A767A56564A46CACAD6D76
:10022000AF6F6EAEAA6A6BAB69A9A86878B8B979E6
:10023000BB7B7ABABE7E7FBF7DBDBC7CB47475B516
:1002400077B7B67672B2B373B17170B05090915106
:100250009353529296565797559594549C5C5D9D36
:100260005F9F9E5E5A9A9B5B995958988848498926
:100270004B8B8A4A4E8E8F4F8D4D4C8C44848545D6
:10028000874746868242438341818040380C018003
:10029000020041A042A1E045A3A4A5A64BA74D485A
:1002A0004FA8504354A9AA58E1ABACE2ADAE62AF3F
:1002B000B0B161B2B3B4E365B6B7B8B9BABBBCBD4F
:1002C0006FBE7063BF79E478E5C0C1E6C2C3C4C540
:1002D000C6C7EEF8E8E12EC0CA2000E0E2F2EE2E3A
:1002E000C0CA2000E0E2F2EE2EC0CA2000F3F1EA1C
:1002F0002EC0CA202000E2FBEAEB2EC0CA2000EF8D
:10030000F0EEE22EC0CA2000E8F1EFFBF22EC0CAE8
:1003100000EFF3F1EA20C0CA2000EDEEF0EC2EC0B1
:10032000CA2000E1E5E3EB2EC0CA2000EEE4EDEECA
:10033000F12EC0CA00D202DB02E402ED02F602FF97
:1003400002080311031A0323032C03EEF8E8E12E3D
:1003500000E0E2F2EE2000E0E2F2EE2000F3F1EA4B
:100360002E2000E2FBEAEB2E00EFF0EEE22E00E89A
:10037000F1EFFBF200EFF3F1EA2000EDEEF0EC2EEE
:1003800000E1E5E3EB2E00EEE4EDEEF1004B03516E
:100390000357035D03630369036F0375037B0381E5
:1003A000038703C0CA2D00CDE5F220F1E2FFE7E8A4
:1003B00020F120C1D1CF2020202020002020C8ED16
:1003C000E8F6E8E0EBE8E7E0F6E8FF202020202070
:1003D00000312EC6F3F0EDE0EB2E00322EC4E0F239
:1003E000E02FE2F0E5ECFF2E00332ED3EFF0E0E259
:1003F000EBE5EDE8E52E00342ED3F1F2E0EDEEE290
:10040000E8F2FC2E00352ECFF0EEF1ECEEF2F0200B
:10041000EFE0F0E0EC2E00362EC0E2F2EEEAEEED78
:10042000F2F0EEEBFC2E00372ECFF0EEF2EEEAEE1D
:10043000EB2E00D103DB03E903F7030504170427C0
:1004400004312E20C4E0F2E02E20202020202020A5
:10045000202020202000322E20C2F0E5ECFF2E20AC
:100460002020202020202020202000C6F3F0EDE0D6
:10047000EB2000F1EEE1FBF2E8E900E7E0F9E8F259
:10048000FB00EFF0E8E5ECEDE8EAE000EFE5F0E591
:10049000E4E0F2F7E8EAE00073048C0482047B04F1
:1004A000D7F2E5EDE8E520E0F0F5E8E2E02E00CF58
:1004B000CC00CFC400D1C100C7D900B504B204AF8D
:1004C00004B804CEC1D900CFE5F0E5E72E00CFE5B2
:1004D000F0E5E7E0EF2000CDE0F7E0EBEE2000CA2A
:1004E000EEEDE5F62000EAEEECE0EDE4FB00312E67
:1004F000D0E5E6E8EC2E00322ECFE0F0E0ECE5F2BD
:10050000F0FB2E00332ECFE0F0EEEBFC2E00342E6D
:10051000D2E5F1F22E00EE04F70404050E05C7E063
:10052000F9E8F2E02E00CFF0E8E5ECEDE8EA2E0085
:10053000CFE5F0E5E4E0F2F7E8EA2E00CEE1F9E8F5
:10054000E52E00CFF0E8E5ECEDE8EA20312E00CF13
:10055000F0E8E5ECEDE8EA20322E00D2E8EF20C723
:10056000E0F9E8F2FB00D2E8EF20CBE8EDE8E800A4
:10057000C4EEEF2E20E2F0E5ECFF20E1E5E720EC11
:10058000E0ED2E00C7E0E4E5F0E6EAE020EDE02053
:10059000EBE8EDE8E820202000CFE5F0E5EAF0FB0D
:1005A000F2E8E520E8ECEFF3EBFCF1EEE200C7E067
:1005B000E3F020F7F3E2F1F2E2E8F220EFEE2020A0
:1005C000D0C700D1EDE8E6E5EDE8E520F3F0EEE296
:1005D000EDFF20C0CA202000D7E0F1F2EEF2E020CB
:1005E000CFD0C400D7E0F1F2EEF2E020CFD0CC00C3
:1005F000D1E4E2E8E320EFE5F02EF4F0EEEDF2E0F6
:1006000020CFD0C400D1E4E2E8E320E7E0E42EF418
:10061000F0EEEDF2E020CFD0C400D1E4E2E8E32038
:10062000CFD0CC00D1E4E2E8E320C2D720CFD0C4C1
:1006300020EEF220CFD3D1CA005B05660570058499
:10064000059905AE05C305D805E405F00505061AAC
:10065000062406C7E0E4E5F0E6EAE020EDE020E26B
:10066000EAEB2E2020202000C4EBE8F2E5EBFCEDC5
:10067000EEF1F2FC20EAEEECE0EDE4FB00C7E0E492
:10068000E5F0E6EAE020EDE020E2FBEAEB2E2020B8
:10069000EA00C1EBEEEA2E20EAEEECE0EDE4FB200E
:1006A000203F2E2E3F2000C4EBE8F22E20EAEEEC95
:1006B000E0EDE4FB20203F2E2E3F2000530668068D
:1006C0007D069206A706C2F0E5ECFF20EDE020EFE4
:1006D000EEE2F22E20EAEEEC2E2000C1EBEEEA2E46
:1006E00020EAEEECE0EDE4FB20203F2E2E3F200040
:1006F000C4EBE8F22E20EAEEECE0EDE4FB20203F34
:100700002E2E3F200053066806C606DB06F006D1F3
:10071000EEE2ECE5F1F2E8ECEEF1F2FC0043E8ED9C
:10072000F5F0EEEDE8E7E0F6E8FF20F7E0F1EEE2C5
:100730000055E2FBF520EDEEECE8EDE0EBFCEDEE34
:10074000E500D3E4E5F0E6E0EDE8E520F0E5EBE5F3
:1007500020CFD0C400D1E5F2E5E2EEE920E0E4F0FC
:10076000E5F100C2F0E5ECFF20EFE5F0E5E7E0EFB2
:10077000F3F1EAE000D7E0F1F2EEF2E000CDEEECCA
:10078000E5F020E0EFEFE0F0E0F2E000CAEEEDF29D
:10079000F0EEEBFC20E2FBF52EF1E8E3EDE0EBE020
:1007A00000CFEEF0EEE320CFD0C5C4D3CFD020EF02
:1007B000EE20CAD72000C7E0E3F020F7F3E2F1F221
:1007C000E2E8F220EFEE2020CAD700CAEEF0F0E512
:1007D000EAF6E8FF20EDE0EFF0FFE6E5EDE8FF00E8
:1007E000CAEEF0F0E5EAF6E8FF20F2EEEAE000CF2C
:1007F000EEF0EEE320CFD0C5C4D3CFD020EFEE2073
:10080000D0C72000CFF0EEF2EEEAEEEB20EEE1EC06
:10081000E5EDE000CFF0E8E7EDE0EA20F7E5F2ED06
:10082000EEF1F2E800C4EEEFF3F1F2E8ECFBE520C4
:10083000EFF0EEE2E0EBFB00CFEEF0EEE320EFEEC8
:1008400020EFEEECE5F5E500C4EEEFF3F1F2E8ECB5
:10085000E0FF20EFEEECE5F5E000D2E8EF20E0E28B
:10086000F2EEEAEEEDF2F0EEEBFF00D0E5E7E5F0B8
:10087000E2E8F0EEE2E0EDE8E500D1EDE8E6E5EDF6
:10088000E8E520EEF2E2E5F2E020C0CA202000CF49
:10089000E5F0E8EEE420E1E5E3EBEEE3EE20C0CAAC
:1008A00000CFE5F0E8EEE420EFEEE2F22EE1E5E342
:1008B000EB2E20C0CA00CAEEF0F0E5EAF6E8FF2011
:1008C000E2F0E5ECE5EDE820C0CA000F071D0731B6
:1008D0000742075507630775077D078C07A107B611
:1008E00007CB07E007040814082508380848085A09
:1008F000086B087A088F08A108B608EF07C0C2C0C5
:10090000CDD220D034303000CFC2C72D393000C016
:10091000C2C7CA2D383000CFC2C7D32DC500CFC241
:10092000C7CB00CBC8CDC8DF2DD000CFC2C7CA000F
:10093000CFC2C7D300CFC2C700EEF8E8E1EAE000BB
:10094000FD0808090F0917091E0923092B09300999
:1009500035093909C7C0D900CFD0CC00CFCC310080
:10096000CFCC3200CFD0C400C2FBE2E5E42000C30C
:10097000EEF2EEE22000C2E2E5E4E5ED00D0E5F7BC
:10098000FC202000D2E5F1F2203100D2E5F1F22086
:100990003200D2E5F1F220330068096F0976097D53
:1009A0000984098B0992093F3F3F3F00202020C75F
:1009B000E0EFF3F1EA20F2E5F1F2E0202020202040
:1009C000002020CFEEE4EEE6E4E8F2E5203F20F15F
:1009D000E5EA20202000CFF0EEF2EEEAEEEB00D1C7
:1009E000F2E0EDE4E0F0F2004D6F6442757300DF79
:1009F00009E809C7C0D93A00CFD0CC3A00CFCC31F2
:100A00003A00CFCC323A00CFD0C43A003F3F3F3F0C
:100A10002020202000CDE5E8F1EFF0202000CFF0ED
:100A2000E5E4F3EFF02000C2FBE2E5E4E5ED2000B1
:100A3000C3EEF2EEE220202000C2E2E5E4E5ED2084
:100A40002000D0E5F7FC2020202000D2E5F1F23193
:100A500020202000D2E5F1F23220202000D2E5F162
:100A6000F23320202000270A300A390A420A4B0AB2
:100A7000540A270A390A270A4B0A540A5D0A270A28
:100A8000390A4B0A540A5D0AC8F1F5EEE4ED2E204E
:100A900000CAEEEDF2F0EEEBFC00CFF3F1EA20201D
:100AA000202000D0E0E1EEF2E0202000CDE5E8F1EA
:100AB000EFF02E2000CF2EEDE5E8F1EFF000CEE6CE
:100AC000E8E4E0EDE8E500CDE0EB2EEFF3F1EA003D
:100AD000D3E42EEFF3F1EA2000CDE5F220D0C720D9
:100AE0002000D0E5F7FC2020202000D2E5F1F22004
:100AF00020202000880A910A9A0AA30AAC0AB50AA3
:100B0000BE0AC70AD00AD90AE20AEB0AC8F1F5EE12
:100B1000E4ED2E2000CFD0CC20CAD7202000CFD0AB
:100B2000CC20CFC0202000CDE5F220CAD720200065
:100B3000CDE5E8F1EFF02E2000CF2EEDE5E8F1EF66
:100B4000F000CEE6E8E4E0EDE8E500C1CBCA20CA5B
:100B5000CC2020003F307830383F2020003F3078D4
:100B600030393F2020003F307830413F202000D2F4
:100B7000E5F1F220202020000C0B150B1E0B270B9B
:100B8000300B390B420B4B0B540B5D0B660B6F0B91
:100B9000C8F1F5EEE4ED2E2000CFD0C420CAD72056
:100BA0002000CFD0C420CFC0202000CDE5F220CA45
:100BB000D7202000CDE5E8F1EFF02E2000CF2EED7C
:100BC000E5E8F1EFF000CEE6E8E4E0EDE8E5003F2F
:100BD000307830373F2020003F307830383F2020B9
:100BE00000D1E8F1F2E5EC2E20003F307830413FB3
:100BF000202000D2E5F1F22020202000900B990B5C
:100C0000A20BAB0BB40BBD0BC60BCF0BD80BE10B80
:100C1000EA0BF30B672D006C2D00C2E2EEE43A0004
:100C2000CFE0F0EEEBFC3A00CDEEE2FBE920EFE0A6
:100C3000F0EEEBFC3A00C7EDE0F7E5EDE8E53A2031
:100C400000C4D4C72DCFF0CFE4202000C4D4C72DDA
:100C5000CFF0ECCCCA3100C4D4C72DCFF0ECCCCA55
:100C60003200C4D4C72D4C363020202000CDC72DF3
:100C7000CFF0CFE420202000CDC72DCFF0EC2DCC3D
:100C8000CA2000CFCFC72DCFF0CFE4202000CFCF98
:100C9000C72DCFF0EC2DCCCA00EEF8E8E1EAE02059
:100CA00020202000410C4C0C570C620C6D0C780C71
:100CB000830C8E0C990CE2FBEAEB2E00E2EAEB2EA1
:100CC000003F3F3F3F00B60CBC0CC10C3F3F3F3FD5
:100CD00000E1FBF1F2F0FBE900ECE5E4EBE5EDED22
:100CE000FBE900CC0CD10CD90CCC0C3F3F3F3F00B2
:100CF000E2EAEB2E00E2FBEAEB2E00EB0CF00CF547
:100D00000CEB0C3F3F3F20E3F0E0E4003F3F3F208F
:100D1000F1E5EA003F3F20E3F0E0E4003F3F20EC54
:100D2000E8ED003F3F3F3F00F2F0E5E2EEE6EDFB8D
:100D3000E900EDEEF0ECE0EBFCEDFBE900F1EFEEAD
:100D4000EAEEE9EDFBE900230D280D320D3D0D2300
:100D50000D2D3130303020C3F6002D35303020C31A
:100D6000F6002B3020C3F6002B35303020C3F600C0
:100D70002B3130303020C3F600EEF8E8E1EAE00035
:100D8000510D5A0D620D680D700D790DC4E8E0EF3C
:100D9000E0E7EEED3A2000EDE5F220E4E0EDEDFBDA
:100DA000F500F1EFE8F1EEEA0000000700010002B3
:100DB00000030001000000630001000000120001B8
:100DC00000120036000100000016000100000001C2
:100DD0000001000000040001000000040001000008
:100DE0000048000100000048000100000048000128
:100DF0000000004800010001000900010000000A95
:100E0000000100010032000A00000064000A000036
:100E100000FF0001000000FF00010000000A0001C7
:100E200000010032000A00010032000A000000FF49
:100E30000001000000FF00010000000800010000A8
:100E40000001000100080032000100000002000162
:100E5000000000FF0001000000050001001000E894
:100E60000301000100030001000000010001000077
:100E700000160001000000160001000000E7030159
:100E8000000000E703010001000200010001000270
:100E90000001000000500001000000FF00010014EC
:100EA00000500001000100030001000000010001EA
:100EB000000000140001000100FF0001000100FF1C
:100EC000000100000014000100302E302E2E3939B0
:100ED0002E3900CFF0EEF8E8E2EAE020CFC8204D4E
:100EE0004355202000CFF0EEF8E8E2EAE020C1D13F
:100EF000CF204D43552000CFF0EEF8E8E2EAE020A5
:100F0000C1D1CF204453502000CFF0EEF8E8E2EA00
:100F1000E020C1D1C720CFCBC8D100C4EEEFEEEBAB
:100F2000ED2E20EFE0F0E0ECE5F2F0FB00C2E8E4AB
:100F300020EFE0F0E0ECE5F2F0E000D30EE50EF794
:100F40000E090F1B0F2D0FC5F1F2FC00CDE5F200CD
:100F50004C0F470FF1F2E0EDE4E0F0F200484558A5
:100F6000005D0F540F2ED1E1F0EEF120F1E2EEE53D
:100F7000E3EE2E2020202020002ED1E1F0EEF12003
:100F8000F3E4E0EBE5EDEDEEE3EE2E20002ED1E113
:100F9000F0EEF120F3E4E0EBE5EDEDEEE3EE2031F1
:100FA000002ED1E1F0EEF120F3E4E0EBE5EDEDEE23
:100FB000E3EE2032002ED1E1F0EEF120F3E4E0EB9D
:100FC000E5EDEDEEE3EE2033002ECFF3F1EA20F372
:100FD000E4E0EBE5EDEDEEE3EE2E2020002ECFF386
:100FE000F1EA20F3E4E0EBE5EDEDEEE3EE20312075
:100FF000002ECFF3F1EA20F3E4E0EBE5EDEDEEE3D4
:10100000EE203220002ECFF3F1EA20F3E4E0EBE50E
:10101000EDEDEEE3EE203320002ECFF3F1EA20F3E6
:10102000E4E0EBE5EDEDFBF520202020002EC0CA2A
:1010300020E0E2F2EEECE0F2E8F7E5F1EAE8E920A0
:10104000002EC0CA20F3F1EAEEF0E5EDEDFBE92059
:1010500020202020002EC0CA20E2FBEAEBFEF7E5AC
:10106000ED20202020202020002EC0CA20EAEEED16
:10107000F2F02EEFF0EEE2E5F0EAE020002EC0CA3A
:1010800020E8F1EFFBF2E0EDE8FF20202020202017
:10109000002EC0CA20EFF3F1EA20202020202020DB
:1010A00020202020002EC2FBE7EEE220202020207E
:1010B0002020202020202020002EC0CA20EDEEF08D
:1010C000ECE0EBFCEDFBE92020202020002EC0CA44
:1010D00020E1E5E3EBFBE920202020202020202058
:1010E000002ECFF3F1EA20F3E4E0EBE5ED2E20CC87
:1010F000C0CD2020002EC0CA20EEE4EDEEF1F2EECD
:10110000F0EEEDEDE8E92020002ED1E1F0EEF12047
:10111000C0CA20202020202020202020002ECFF315
:10112000F1EA20C0CA20F1E2EEE9202020202020B0
:10113000002ECFF3F1EA20C0CA20F3E4E0EBE5EDA6
:10114000EDFBE920002ECFF3F1EA20CFD0C4202020
:101150002020202020202020002ECFF3F1EA20EDB7
:10116000E0EBE0E42E20E2EAEB2E2020002ECFF38D
:10117000F1EA20EDE0EBE0E42E20E2FBEAEB2E20AA
:10118000002ECFF3F1EA20F3E4E0EB2E20CCC0CD2B
:1011900020312020002ECFF3F1EA20F3E4E0EB2E03
:1011A00020CCC0CD20322020002ECFF3F1EA20F356
:1011B000E4E0EB2E20CCC0CD20332020002ECFF356
:1011C000F1EA20F3E4E0EB2DFBF520CCC0CD2020AC
:1011D000002ECFF3F1EA20F3E4E0EBE5EDEDEEE3F2
:1011E000EE203420002ECFF3F1EA20F3E4E0EB2EE2
:1011F00020CCC0CD2034202000650F790F8D0FA1A9
:101200000FB50FC90FDD0FF10F051019102D10418B
:1012100010551069107D109110A510B910CD10E176
:1012200010F51009111D113111451159116D118160
:10123000119511A911BD11D111E511C2FBEFEEEB12
:10124000EDE8F2FC003B1220202020204572726F56
:101250007220202020202000CDE5E8F1EFF02EF7CD
:10126000F22E20464C41534800CDE5E8F1EFF02E38
:10127000E7E0EF2E464C41534800CDE5E8F1EFF0B2
:101280002EF7F22E20504C49532000CDE5E8F1EF27
:10129000F02EE7E0EF2E504C49532000CDE5E8F169
:1012A000EFF02EE7E0EF2E3252414D2000CDE5F277
:1012B00020F1E8E3EDE0EBE020CFD0CC2000C0CA85
:1012C0002DD1EDE8E6E5ED2EE7E0EFE0F1E000CF2F
:1012D000EEECE5F5E020E220EBE8EDE8E820200088
:1012E000CDE5E8F1EFF02E445350203252414D202D
:1012F00000CDE5E8F1EFF02EF7F22E203252414D0D
:101300002000D2EEEA20EFEEEAEEFF20202020209F
:10131000202000CDE8E7EAEEE520EDE0EFF02EE258
:10132000FBF52E00C2FBF1EEEAEEE520EDE0EFF07A
:101330002EE2FBF500CDE5E8F1EFF02E20CCCA203F
:10134000D3CC20202000C2D720F2F0E0EAF220E245
:10135000EEF1F1F22E2000581269127A128B129CD3
:1013600012AD12BE12CF12E012F1120213131324A7
:1013700013351346134712C0CA2DCDE5F220EEF205
:10138000E2E5F2E020202000D3F1F2E0EDEEE2E829
:10139000F2E520F7E0F1FB2000CEF2EAE0E720F0F2
:1013A000E5E7E5F0E22EEBE8ED00D3E4E0EB2EEF2D
:1013B000EEF1F220EDE5E8F1EFF000D3E4E0EB2E02
:1013C000CFD0C420EDE5E8F1EFF02E00D3E4E0EB60
:1013D0002ECFD0CC20EDE5E8F1EFF02E0088139968
:1013E0001347124712AA13BB13CC13471220202015
:1013F0000020312000203220003120320020332014
:10140000003120330032203300203F2000ED13F163
:1014100013F513F913FD13011405140914CDE5F2A6
:1014200020E1EBEEEAE020C1D1C720202000CDE58D
:10143000E8F1EFF02EE2E5F0F12EC1D1C72000CDAA
:10144000E5E8F1EFF02EEFE5F0E5EAEB2E202000E5
:10145000CDE5E8F1EFF02EE7E0EF2E20C1D1C72077
:1014600000CDE5F220F1E8E3EDE0EBE020CFD0CCD9
:101470002000CDE8E7EAE8E920F3F02E20D0C720ED
:10148000202000CDE5E8F1EFF02EF3E42EC4D4C720
:1014900000CDE5E8F1EFF02EF3E42EC2DBD500CD70
:1014A000E5E8F1EFF02EE2F5EEE42ECFD3D1CA005D
:1014B000CDE5E8F1EFF02EE2F5EEE42ED1D2CECF7D
:1014C00000D3E4E0EB2EE1E5E720EEF2E22E00CDE2
:1014D000E5E8F1EFF02EF6E5EFFC2EC2DBD52000BB
:1014E000D3E4E0EB2EEEE1ED2EEFEEEC2E00CDE5B9
:1014F000E8F1EFF02EE7E0EF2E20C2DBD52000CFA1
:10150000EEECE5F5E020E220EBE8EDE8E820200055
:10151000CDE5E8F1EFF02E20C4D4C720001D142E35
:10152000143F14501461147214831491149F14B056
:1015300014C114CF14E014EE14FF141015C0CA2DFA
:10154000CDE5F220EEF2E2E5F2E000C0CA2DD1EDE9
:101550002EE7E0EFE0F1E02000CDE5F220F1E8E356
:10156000EDE0EBE020CCC0CD2000CFEEF0EEE320AC
:10157000EFEE20EFEEECE5F5E52000C0E2F2EEEA5A
:10158000EEEDF2F0EEEBFC2020202000CDE5F22085
:10159000E1EBEEEAE020C1D1CA20202000CDE5E851
:1015A000F1EFF02EE2E5F0F12EC1D1CA2000CDE539
:1015B000F220CAD72020202020202020202000CF69
:1015C000F0E5E22EE4EB2DF1F2E82EEAEEEC2E004F
:1015D000CDE5E8F1EFF02EE7E0EF2E20C1D1CA20F3
:1015E00000CDE5E8F1EFF02EE2FBEAEB2ECAD1CA1E
:1015F0002000CDE5E8F1EFF02EE2EAEB2E20CAD193
:10160000CA2000CDE5E8F1EFF02EEAEEEDF2F02E83
:10161000CAD1CA00CFF0E5E4F3EFF02EEDE5F220F9
:10162000CAD7312000CFF0E8E5EC20E1EBEEEA2E5E
:1016300020CAEEEC2E008C159D15AE15BF15471275
:10164000471247124712D015E115F215031614166A
:10165000471247122516D1EDE8E62E20F3F0EEE210
:10166000EDFF20CFD0CC00CDE5F220E1EBEEEAE0BB
:1016700020C1D1CA20202000CDE5E8F1EFF02EE214
:10168000E5F0F12EC1D1CA2000CDE5E8F1EFF02E52
:10169000F7F22EEAEEECE0EDE400CDE5E8F1EFF054
:1016A0002EE2FBEAEB2ED2E5F1F200CDE5E8F1EF18
:1016B000F02EE2EAEB2E20D2E5F1F200CDE5E8F1E2
:1016C000EFF02EE2F5EEE42ECAD1CA2000671678BC
:1016D0001647124712471247124712471289169AA5
:1016E00016AB16BC164712471247124712C3F03109
:1016F0003A00C3F0323A00C3F0F3EFEFE0203100DC
:10170000C3F0F3EFEFE0203200F71601001702E21A
:10171000FBEAEB00EEF8E8E100D0C700CAD73100E1
:10172000CAD73200CAD73300CAD73400CAEEEC3168
:1017300000CAEEEC3200CAEEEC3300CAEEEC340024
:10174000CAEEEC3500CAEEEC3600CAEEEC3700CA41
:10175000EEEC3800CAEEEC3900CAEC313000CAECCD
:10176000313100CAEC313200CAEC313300CAEC31FD
:101770003400CAEC313500CAEC313600CAEC3137DE
:1017800000CAEC313800CAEC313900CAEC32300002
:10179000CAEC323100CAEC323200CAEC323300CA31
:1017A000EC323400CAEC323500CAEC323600CAECF6
:1017B000323700CAEC323800CAEC323900CAEC3396
:1017C0003000CAEC333100CAEC3332001417FF0F7B
:1017D00017001917011C17012017022417032817D7
:1017E000042C17033117043617053B17064017075B
:1017F0004517084A17094F170A54170B59170C5E5B
:10180000170D63170E68170F6D17107217117717E2
:10181000127C17138117148617158B17169017173C
:101820009517189A17199F171AA4171BA9171CAEFA
:10183000171DB3171EB8171FBD1720C21721C717D2
:1018400022D2E5F1F2203100D2E5F1F2203200415E
:10185000184818CD2EF7F22E464C41534800CD2E95
:10186000E7EF2E464C41534800CD2EF7F22E504C58
:1018700049532000CD2EE7EF2E504C49532000CD88
:101880002EE7EF2E3252414D2000CD2EF7F22E32B0
:1018900052414D2000CD2EF0E0E12E445350200067
:1018A000C2EEF1F22EF02E44535000CDE8E7EA2EBE
:1018B0002055E2FBF500C2FBF12E2055E2FBF5209E
:1018C00000CD2EF1E22E20F120D3CC00CD2E20F73A
:1018D000E0F1EEE2202000CDE5F220E1EB2EC1D1D7
:1018E000C700CD2EE2E5F0F12EC1D1C700CD2EEF1D
:1018F000E5F02E20C1D1C700CDE5F220F12E20CC9D
:10190000C0CD00CFE5F0E5E7E0EFF3F1EA00C8E78E
:10191000EC2EF0E5E6E8ECE000CEF82EE7E0EFE8AC
:10192000F1E82000CEF82EEAEEEDF2F02E2000D104
:10193000EDE8E62EF32ECFD0CC00CDE5F220F12E4F
:1019400020CFD0CC00CDE5F220F12ECFD3D1CA00EC
:10195000EDE5F220F12ED1D2CECF00C2FBEAEBFEB4
:10196000F7E5EDE8E500CFEEECE5F5E020E220EF6D
:1019700000CDE5E8F1EFF02EC4D4C700D3E43A205F
:10198000CDE5F220C0CA00D3E43A20CFEEECE5F575
:10199000E000D3E43A20CD2E20C4D4C700D3E43AEB
:1019A00020CD2E20C2DBD5005F00D1E2FFE7FC2076
:1019B000F120CFCA002E003030303000FE7A067B96
:1019C0000A7B0B7B067B1E7B01002B110A001F0F7D
:1019D000390F920FB80FFE0F49109A10B110C310B3
:1019E000D510110020120C003E116F11B511EF112E
:1019F0000812201220123E116F11B511EF110812BA
:101A00003500AC1E0900981AAB1AD71A4B1B6B1B7A
:101A1000DF1C041E2C1E9A1E000101EB29AC2901BB
:101A2000AC2901AC2901AC2901AC2901AC2901ACDC
:101A3000290AB12901B12901B12901B12901B1292D
:101A400001B1290BB62901B62901B62901B6290130
:101A5000B6290BBB2901BF2901C32902C72901CB24
:101A60002901CB2901CB2901CB2901CB2901CB2984
:101A700001CB2901CB2985D02901E8290FD62901DD
:101A8000E8290FDC2901E8290FE22901E829FB00F8
:101A90000001002A2D0700DC2CE72CF42CFF2C0A77
:101AA0002D152D202D00001100C32D0600382D43CB
:101AB0002D522D772D982DB92D000021003B2E059C
:101AC00000D12DDC2DEB2DFA2D1B2E0000008830CF
:101AD0000900D72F282F382F482F5E2F7A2F962FC7
:101AE000B22FBD2F003500F23009009630A130AC86
:101AF00030B730C230CD30DD30F230E83000770121
:101B00005A375237044A37024237013A3739563783
:101B1000044E37024637013E37195437044C37021A
:101B20004437013C370958370450370248370140E1
:101B300037FB00003D391800EC38EC38EE38EC3853
:101B4000EE38EE38EE38EE38EC38EE38EE3837391D
:101B5000EE38EC38EC38EE38EE38EE38EC38EC385D
:101B6000EE38EE38EE38EE3807013F52A35101AEA1
:101B70005101B85101B85101C25101CC5101CC51B0
:101B800004DC5101E65101E65106F65101F651011E
:101B900000520108520116520120520528521630F7
:101BA000527D3852FB00230165619B590D5258014B
:101BB000255501575501C2550135560110570129C8
:101BC0005701F8570108580149580A6658010B593E
:101BD000019E59085B58088358FB010166613D5618
:101BE000015056025356015756015A56016256018A
:101BF0008B5601D05601F356025E56016256018B98
:101C00005601D05601F356060757010B57FB010149
:101C10006661315701445705475701705701B7575F
:101C200001DB5703475701705701B75701DB5706D0
:101C3000EF5701F357FB0200666116006E587158AA
:101C40007158715871587458745874587458785839
:101C500078587B587B587B587B586661715871580F
:101C600078587F58715871580000D75B0D00F05AB2
:101C7000005B105B205B345B485B5C5B6C5B7C5B9C
:101C80008C5B9F5BB25BC55B00001F601800755EDC
:101C9000855E955EA55EB55EC55ED55EE55EF55E6C
:101CA000055F185F2D5F435F4F5F625F755F885F01
:101CB0009B5FAE5FC15FD45FE75FFA5F0D600700B7
:101CC000846410009863F5633364B263846484644D
:101CD0009863F5633364B2638464846446644B64DC
:101CE00050647F64010035660C002C652C653465FA
:101CF00050655065356635662C652C6534655065D4
:101D00005065010095761700D36ACA6BFF6B166C9D
:101D10005D6CB66CEA6CEE70F071066E7A6FB66C44
:101D2000EA6CEE70F071066E95769972B772237355
:101D3000DD73C77530760000016E0D00536D636D65
:101D40006B6D736D836D936DA36DB36DC36DD36D4B
:101D5000DB6DE36DEB6D0000766F1800536E636E04
:101D6000736E7B6E8B6E936E9B6EA36EAB6EBB6E53
:101D7000C36ED36ED36EF06E006F106F186F206F4E
:101D8000286F386F486F506F586F606F30E042E0D7
:101D900007C050E0F801E40FF51F5081350F43955F
:101DA0004217B8F3032F0895E0EDF6E0208120619B
:101DB00020830093530701E00093540710935507C5
:101DC00025E001E517E0E2DF10E00093370510930E
:101DD0003805009137050093560706E00E94BE289B
:101DE00008959A938A93812FE0EDF6E010811061B7
:101DF00010830093530780935407282F2C5F01E52D
:101E000017E0C4DF10E00093370510933805009108
:101E1000370590E0FC01EF5AF84F04838B5F082FE1
:101E20000E94BE288991999108950E94C87A609075
:101E3000D506E8ECF0E0FBBFF9E10C94817A772459
:101E4000E9EAFDE0059114916016710640F0EBEAB5
:101E5000FDE00591149177240615170538F4EBEA97
:101E6000FDE00591039500931905F5C160921905F0
:101E7000F2C16394EFEAFDE00591202FE1EBFDE074
:101E800005911091220C133009F408E0621610F04D
:101E9000061520F40FE30093C303DDC1062D005D9A
:101EA0000093C3030091000D0615D9F102E007C0AD
:101EB00020E010E0F801EA55FC4F248303951091CF
:101EC000000D1017A8F76092000D0E9458440E9460
:101ED000F9390E94EA3D01E00E94BD3E0E9426427F
:101EE0000E94E8430E9458440091000D033021F401
:101EF00001E00093AC03AFC10091220C033089F4E0
:101F00000091000D043068F001E007C021E010E00E
:101F1000F801EA55FC4F248303951091000D10172A
:101F2000A8F799C17724E5EBFDE0059114916016BF
:101F3000710640F0E7EBFDE005911491772406155A
:101F4000170538F40FE30093CE030FE30093CF039C
:101F500082C14AE0062D0E94DC79005D0093CE0329
:101F60004AE0062D0E94DC79405D4093CF0373C1A7
:101F70000091FF0C013039F4EBEBFDE08591EDEBC6
:101F8000FDE0A59102C080E0A6E3681610F0A6155A
:101F900038F40FE30093D7030FE30093D8030EC088
:101FA0004AE0062D0E94DC79005D0093D7034AE0E9
:101FB000062D0E94DC79405D4093D8030091000D0E
:101FC0000330D9F46090D606681610F0A61538F4E0
:101FD0000FE30093DF030FE30093E0033CC14AE00B
:101FE000062D0E94DC79005D0093DF034AE0062D98
:101FF0000E94DC79405D4093E0032DC180E0A8E4BD
:10200000442421C04AE0062D0E94DC79005D242D85
:1020100030E0220F331FF901E15EFB4F2081318157
:10202000F90100834AE0062D0E94DC79405D042D11
:1020300010E0000F111FF801E15EFB4F00811181DC
:10204000F8014183439404E0401610F55524F20151
:10205000EF52F94F6480681610F0A61598F62FE33A
:10206000042D10E0000F111FF801E15EFB4F00810D
:102070001181F80120832FE3042D10E0000F111FC0
:10208000F801E15EFB4F00811181F8012183DACF75
:10209000E2C07724E7ECFDE005911491601671062B
:1020A00040F0E9ECFDE00591149177240615170541
:1020B00038F40FE3009327040FE3009328040EC0C5
:1020C0004AE0062D0E94DC79005D009327044AE077
:1020D000062D0E94DC79405D409328040091000D9C
:1020E000033039F56090D6067724E7ECFDE00591E2
:1020F00014916016710640F0E9ECFDE00591149131
:1021000077240615170538F40FE300932D040FE329
:1021100000932E04A0C04AE0062D0E94DC79005DE9
:1021200000932D044AE0062D0E94DC79405D409327
:102130002E0491C07724EDECFDE00591149160161A
:10214000710640F0EFECFDE005911491772406153F
:10215000170520F402E0009337047DC06092370435
:102160007AC0E5EDFDE00591149177240615170579
:1021700038F4E5EDFDE00591039500933D046BC057
:1021800060923D0468C0EBEDFDE005911491772469
:102190000615170538F4EBEDFDE005910395009366
:1021A0003E0459C060923E0456C07724E7EFFDE03C
:1021B000059114916016710640F0E9EFFDE005917C
:1021C000149177240615170520F400E000935E0BA8
:1021D0003FC060925E0B0091230C002321F400911C
:1021E000230C0930A8F50091D60610E020E0322F2C
:1021F000212F102F00E04091D70650E060E070E002
:10220000040F151F261F371F322F212F102F00E01C
:102210004091D80650E060E070E0040F151F261FC3
:10222000371F322F212F102F00E04091D90650E0A8
:1022300060E070E0040F151F261F371F48EE53E0C3
:1022400060E070E00E94567A00935F0B1093600B81
:1022500001E00093B20201E00093370B01E000932C
:10226000350BE8E00C94D37A0E94CC7A802F082FAB
:10227000E2EEF0E0FBBFF9E10C94817A813119F4D0
:10228000AFE3B4E002C0A8E8B4E00091D50610E0E6
:10229000EDEFFDE0259134910217130750F0EFEFB9
:1022A000FDE0259134910091D50610E0201731070B
:1022B00030F40FE30C930FE3FD010183C1C00091E3
:1022C000D5064AE00E94DC79005D0C930091D506AA
:1022D0004AE00E94DC79405DFD014183B1C082315A
:1022E00019F4A5E4B4E002C0AEE8B4E00091D5066C
:1022F00010E0E3E0FEE0259134910217130750F05F
:10230000E5E0FEE0259134910091D50610E020171C
:10231000310748F40FE30C930FE3FD0101830FE352
:10232000FD0102838DC00091D5060A3058F400915A
:10233000D506005D0C9300E3FD01018300E2FD0181
:1023400002837EC00091D5064AE00E94DC79005DE0
:102350000C930091D5064AE00E94DC79405DFD01B6
:10236000418300E3FD0102836BC0833119F4A2EEC7
:10237000BBE002C0A2E0BCE000E00BC010E0F8014E
:10238000EF52F94F248110E0FD01E00FF11F20838F
:1023900003951091D406011708F510E0F801EF52EB
:1023A000F94F248130E0E9E0FEE045915491241793
:1023B000350768F0EBE0FEE04591549110E0F8013C
:1023C000EF52F94F248130E042175307B8F62FEF50
:1023D00010E0FD01E00FF11F2083DACF31C084311E
:1023E00019F4A0E7B4E002C0A9EBB4E000E00BC030
:1023F00010E0F801EF52F94F248110E0FD01E00FE9
:10240000F11F208303951091D406011788F318C09B
:10241000853119F4A4E7B4E002C0ADEBB4E000E00C
:102420000BC010E0F801EF52F94F248110E0FD01DC
:10243000E00FF11F208303951091D406011788F354
:1024400001E00093370B01E00093350BE4E00C94BE
:10245000D77A015261F00A9561F10A9509F46BC0CF
:102460000A9509F4AAC00A9509F4B9C0C9C0EDE1FA
:10247000FEE0259134910091D50610E02017310738
:1024800038F40FE30093C1040FE30093C204B8C013
:102490000091D5064AE00E94DC79005D0093C104FA
:1024A0000091D5064AE00E94DC79405D4093C20469
:1024B000A7C00091D50610E0E1E2FEE0259134913D
:1024C0000217130750F0E3E2FEE0259134910091EA
:1024D000D50610E02017310750F40FE30093C7042E
:1024E0000FE30093C8040FE30093C90489C000916F
:1024F000D5060A3060F40091D506005D0093C7044C
:1025000000E30093C80400E20093C90479C000917D
:10251000D5064AE00E94DC79005D0093C704009173
:10252000D5064AE00E94DC79405D4093C80400E390
:102530000093C90465C00091D50610E0E7E2FEE013
:10254000259134910217130750F0E9E2FEE025913E
:1025500034910091D50610E02017310750F40FE3B5
:102560000093CE040FE30093CF040FE30093D00455
:1025700047C00091D5060A3060F40091D506005D91
:102580000093CE0400E30093CF0400E20093D00454
:1025900037C00091D5064AE00E94DC79005D0093C7
:1025A000CE040091D5064AE00E94DC79405D40935C
:1025B000CF0400E30093D00423C000E00BC010E080
:1025C000F801EF52F94F248110E0F801E751FB4F79
:1025D000208303951091D406011788F311C000E001
:1025E0000BC010E0F801EF52F94F248110E0F80120
:1025F000E351FB4F208303951091D406011788F314
:1026000001E00093370B01E00093350B089540E0A3
:1026100020C050E003E010E00E94FA79F801EF5288
:10262000F94F2581042F10E0000F111FF801EA5423
:10263000FC4F218350E003E010E00E94FA79F8019A
:10264000EF52F94F068150E0FA01E154FC4F00834C
:1026500043954430E0F550E003E010E00E94FA7941
:10266000F801EF52F94F0481063050F02EE4042FA8
:1026700010E0000F111FF801EA54FC4F208311C035
:1026800050E003E010E00E94FA79F801EF52F94FB0
:102690002481042F10E0000F111FF801EA54FC4FB1
:1026A000208350E003E010E00E94FA79F801EF5235
:1026B000F94F05810C3008F4ACCF2EE4042F10E064
:1026C000000F111FF801EA54FC4F2183B3CF01E042
:1026D0000093370B089500E00BC010E0F801EF52B3
:1026E000F94F248110E0F801EC5BF44F208303954F
:1026F000043198F30091500B002321F40091510B09
:10270000002321F001E00093050D03C000E00093D9
:10271000050D0091520B002321F40091530B00236F
:1027200021F001E00093060D03C000E00093060DC8
:102730000091440B002321F40091450B002321F06C
:1027400001E00093070D03C000E00093070D009126
:10275000460B002321F40091470B002321F001E0F8
:102760000093080D03C000E00093080D30E020E066
:1027700007C0422F01E010E00E94047A302B23951D
:102780000091000D2017A8F30091480B032300933C
:1027900038040091490B5ED00091480B002321F4CE
:1027A0000091490B002321F001E00093090D03C0C3
:1027B00000E00093090D00914A0B002321F40091E1
:1027C0004B0B002321F001E000930A0D03C000E051
:1027D00000930A0D00914C0B002321F400914D0B46
:1027E000002321F001E000930B0D03C000E00093F3
:1027F0000B0D00914E0B002321F400914F0B002391
:1028000021F001E000930C0D03C000E000930C0DDB
:102810000091540B002321F40091550B002321F06B
:1028200001E000930D0D03C000E000930D0D009139
:10283000560B002321F40091570B002321F001E0F7
:1028400000930E0D03C000E000930E0D01E0009315
:10285000370B08950E94CD7A902F80E0A92F9436EF
:1028600088F044E60A2F0E94DC79005D282F30E0D2
:10287000F901E75CFB4F0083839544E60A2F0E9431
:10288000DC79A42F9A3058F04AE00A2F0E94DC79B4
:10289000005D90E0FC01E75CFB4F008383954AE01C
:1028A0000A2F0E94DC79405D90E0FC01E75CFB4F61
:1028B0004083839507C000E290E0FC01E75CFB4F9A
:1028C000008383958430B8F3E3E00C94D87A392FF1
:1028D000682F0091D5060F70005D0093C70200912C
:1028E000D50602950F70005D0093C6020091D606D2
:1028F0000F70005D0093C4020091D60602950F7020
:10290000005D0093C3020091D7060F70005D009335
:10291000C1020091D70602950F70005D0093C002BE
:102920000091D8060F70005D0093CA020091D8068E
:1029300002950F70005D0093C9020091D9060F70D7
:10294000005D0093CD020091D90602950F70005DE5
:102950000093CC020091DA060F70005D0093D00264
:102960000091DA0602950F70005D0093CF0200E03F
:1029700004C010E01093A7020395083068F510E03A
:10298000F801E054FD4F108110531A3068F010E048
:10299000F801E054FD4F10811E3231F01091A60273
:1029A00013951093A60203C010E01093A60210E046
:1029B000F801E753FD4F108110531A30D0F210E0A8
:1029C000F801E753FD4F10811A3399F21091A702D5
:1029D00013951093A702D0CF8091C70290E0409149
:1029E000C60250E00AE010E00E94FA79800F911FC1
:1029F00080519240843600E090072CF00091A602AE
:102A000003950093A6028091C40290E04091C30216
:102A100050E00AE010E00E94FA79800F911F805187
:102A200092408D3090402CF00091A60203950093C7
:102A3000A6028091C10290E04091C00250E00AE0FD
:102A400010E00E94FA79800F911F805192408032ED
:102A500090402CF00091A60203950093A60280916D
:102A6000CA0290E04091C90250E00AE010E00E94E2
:102A7000FA79800F911F80519240893190402CF05B
:102A80000091A70203950093A7028091CD0290E0E8
:102A90004091CC0250E00AE010E00E94FA79800FE9
:102AA000911F805192408D3300E090072CF00091EF
:102AB000A70203950093A7028091D00290E0409175
:102AC000CF0250E00AE010E00E94FA79800F911FD7
:102AD000805192408D3300E090072CF00091A702C6
:102AE00003950093A7020091A602002301F100E3E1
:102AF0000093C70200E30093C60200E30093C40200
:102B000000E30093C30200E30093C10200E30093DB
:102B1000C00200E00093A60200E00330B8F420E019
:102B200010E0F801E056FD4F20830395F6CF00E05A
:102B30000BC010E0F801EF52F94F248110E0F801CA
:102B4000E056FD4F20830395033098F30091A702D0
:102B5000002301F100E30093CA0200E30093C902DD
:102B600000E30093CD0200E30093CC0200E3009366
:102B7000D00200E30093CF0200E00093A70200E040
:102B80000330B8F420E010E0F801E056FD4F238355
:102B90000395F6CF00E00BC010E0F801EF52F94FBB
:102BA000278110E0F801E056FD4F238303950330A1
:102BB00098F301E00093370B01E00093B202862FF7
:102BC000932F08950E94CB7AD801822F942F452EFF
:102BD0003A95082F07C020E210E0FD01E00FF11F39
:102BE000208303950830B8F300E8401658F00FEF43
:102BF000402643942DE2082F10E0FD01E00FF11F65
:102C000020838395042D10E0432F0E94047A402EE8
:102C100003E64016C8F44AE0042D0E94DC79005D0A
:102C2000282F30E0FD01E20FF31F008383954AE077
:102C3000042D0E94DC79405D082F10E0FD01E00FBB
:102C4000F11F4083839510C02FE3082F10E0FD0192
:102C5000E00FF11F208383952FE3082F10E0FD0183
:102C6000E00FF11F20838395915019F09A9539F068
:102C700012C003EE90E0A80FB91F0C930CC004EE35
:102C800090E0FD01E80FF91F008301EC90E0A80F30
:102C9000B91FFD010183E5E00C94D67A0E94CA7A3F
:102CA000D801822F932F2A01082F07C020E210E0BD
:102CB000FD01E00FF11F208303950830B8F3641580
:102CC000750508F46BC008EE401603E0500618F1D5
:102CD00048EE53E082010E94077A202F082F10E06F
:102CE000FD01E00FF11F2083082F10E0FD01E00F30
:102CF000F11F408150E008EE13E00E94FA79401A7B
:102D0000510A082F802F839510E0FD01E00FF11F7D
:102D10000081005D008304E6401600E0500618F1D3
:102D200044E650E082010E94077A202F082F10E02D
:102D3000FD01E00FF11F2083082F10E0FD01E00FDF
:102D4000F11F408150E004E610E00E94FA79401A39
:102D5000510A082F802F839510E0FD01E00FF11F2D
:102D60000081005D00834AE050E082010E94077A02
:102D7000005D282F30E0FD01E20FF31F00838395F3
:102D80004AE050E082010E94077A405D082F10E07F
:102D9000FD01E00FF11F4083839510C02FE3082F42
:102DA00010E0FD01E00FF11F208383952FE3082F32
:102DB00010E0FD01E00FF11F20838395915049F051
:102DC0009A95A1F09A95C1F09A95E1F09A95B1F192
:102DD00050C00CEE90E0FD01E80FF91F00838395D1
:102DE00000EC90E0A80FB91F0C9343C005E290E0FF
:102DF000A80FB91F0C933DC003EE90E0A80FB91FB8
:102E00000C9337C000E290E0FD01E80FF91F00834A
:102E1000839501EF90E0FD01E80FF91F0083839592
:102E200005EE90E0FD01E80FF91F008383950AEE9F
:102E300090E0A80FB91F0C9383951BC000E290E0AF
:102E4000FD01E80FF91F008383950CEE90E0FD0172
:102E5000E80FF91F0083839508EE90E0FD01E80F6D
:102E6000F91F008383950DEE90E0A80FB91F0C9316
:102E70008395E6E00C94D57A432F42954F704A3003
:102E800018F0495C542F02C0405D542F452F622F2B
:102E900070E0F801E60FF71F40833F70432F4A3080
:102EA00018F0495C342F02C0405D342F432F30E0CE
:102EB000020F131FF801418308950E94CA7A80917E
:102EC000D506A091D60600E010E00093940C109374
:102ED000950C082F0D59073C20F40A2F065A053B84
:102EE00050F00FE300938D0C0FE300938E0C00E085
:102EF00000938F0C84C04424242D422E4394082F29
:102F00000A2B0078002311F00DE201C00BE230E043
:102F1000F901E357F34F008388231AF400E0081BFC
:102F2000802FAA231AF400E00A1BA02F082F0A2BD7
:102F3000002331F400E300938D0C00E000938E0C2D
:102F40008A305CF04AE0082F0E94EA79005D55243F
:102F5000F201E357F34F008343944AE0082F0E94A5
:102F6000EA79405D5524F201E357F34F40834394DF
:102F70000EE25524F201E357F34F008343944AE0F5
:102F80000A2F0E94EA79005D5524F201E357F34FBE
:102F90000083439402EC5524F201E357F34F00837E
:102FA000439400E05524F201E357F34F0083439428
:102FB000482F542F550F550B0AE010E00E94FA7964
:102FC000C8010A2F102F110F110B4AE050E00E9488
:102FD0001F7A800F911F8093940C9093950C009111
:102FE0008D0C0D3261F400E010E02091940C3091D2
:102FF000950C021B130B0093940C1093950CA1E0FD
:10300000B6C02DE24A2F50E009E010E00E94FA79A4
:10301000EDE8FCE0E00FF11F032F10E0E00FF11FDF
:10302000208399232AF40FEF1FEF80279127019621
:10303000843600E09007D4F144E650E08C010E9411
:103040001F7A202F4A2F50E009E010E00E94FA7901
:10305000EDE8FCE0E00FF11F5524E40DF51D2083A1
:103060004A2F50E009E010E00E94FA79EDE8FCE018
:10307000E00FF11F5524E40DF51D408150E004E6FA
:1030800010E00E94FA79801B910B4A2F50E009E072
:1030900010E00E94FA79EDE8FCE0E00FF11F552402
:1030A000E40DF51D0081005D008343948A3000E04B
:1030B0009007B4F04AE050E08C010E941F7A202F64
:1030C000205D4A2F50E009E010E00E94FA79EDE817
:1030D000FCE0E00FF11F5524E40DF51D208343941F
:1030E0004AE050E08C010E941F7A242F205D4A2F75
:1030F00050E009E010E00E94FA79EDE8FCE0E00F12
:10310000F11F5524E40DF51D208343942CEE4A2F26
:1031100050E009E010E00E94FA79EDE8FCE0E00FF1
:10312000F11F5524E40DF51D2083439420EC4A2F14
:1031300050E009E010E00E94FA79EDE8FCE0E00FD1
:10314000F11F5524E40DF51D2083439420E04A2F00
:1031500050E009E010E00E94FA79EDE8FCE0E00FB1
:10316000F11F5524E40DF51D20834394A395A3304E
:1031700008F07AC00A2F10E0000F111FF801EF527B
:10318000F94F948180E00A2F10E0000F111FF80121
:10319000EF52F94F058110E0800F911F20E030E0E1
:1031A0004A2F50E009E010E00E94FA79F801E35755
:1031B000F34F278330878C0109511C4F0F3C27E0C8
:1031C000120710F12FE34A2F50E009E010E00E94AF
:1031D000FA79F801E357F34F20832FE34A2F50E0A9
:1031E00009E010E00E94FA79F801E357F34F2183D8
:1031F00020E04A2F50E009E010E00E94FA79F8013F
:10320000E357F34F2283B2CF082F092BB9F420E301
:103210004A2F50E009E010E00E94FA79F801E357E4
:10322000F34F208320E04A2F50E009E010E00E9495
:10323000FA79F801E357F34F218398CF44244A2FBA
:1032400050E009E010E00E94FA79F801E357F34FEB
:1032500087839087342D432E4394813000E090077C
:103260000CF4CFCE2BE2CECEE6E00C94D57A0091D2
:10327000D50610E0EBEAFEE0259134910217130722
:1032800040F0EDEAFEE02591349110E0201731077F
:1032900020F4EDEAFEE00591039500938C0C08956F
:1032A0009A938A930091D506002309F030C150917A
:1032B000D60641E032E022E006EF12E083DC3091F6
:1032C000D60623E00BED12E0D7DD3091D70625E0DE
:1032D0000BED12E0D1DD3091D80620E00091D90647
:1032E00010E0200F311F2093420B3093430B67EE09
:1032F00073E04091420B5091430B31E023E00FEF1C
:1033000012E0CCDC0091DB064AE00E94DC790093FD
:103310001F034091DA0650E00AE010E00E94FA79BB
:1033200020911F0330E0020F131F0093400B1093F6
:10333000410B8091400B9091410B0096883E03E039
:10334000900720F400911F030A3080F000E010E0A5
:103350000093400B1093410B0FE300931C030FE30A
:1033600000931D030FE300931F0315C00091DA06BD
:103370004AE00E94DC79005D00931C030091DA06AC
:103380004AE00E94DC79405D40931D0300911F03D9
:10339000005D00931F035091DC0642E031E023E022
:1033A0000CE213E00FDC0091000D033041F450916A
:1033B000DD0642E031E023E005E313E003DC0091A9
:1033C0005E0B0430E1F40091B6030430C0F400E079
:1033D0000093DE0600E00093DF0600E00093E406C1
:1033E00000E00093E50600E00093E60600E00093AD
:1033F000E70600E00093E80600E00093E90650913C
:10340000DE0642E031E023E00EE313E0DBDB009177
:10341000000D033049F45091DF0642E031E023E033
:1034200007E413E0CFDB40C00091000D0430E0F171
:103430000091220C0330C1F55091DF0642E031E0EB
:1034400023E007E413E0BEDB5091E40642E031E004
:1034500023E000E513E0B6DB5091E50642E031E001
:1034600023E009E513E0AEDB5091E60642E031E0EF
:1034700023E002E613E0A6DB5091E70642E031E0EC
:1034800023E00BE613E09EDB5091E80642E031E0DA
:1034900023E004E713E096DB5091E90642E031E0D7
:1034A00023E00DE713E08EDB5091E00642E031E0CF
:1034B00023E003E213E086DB63E670E04091E1067F
:1034C00050E032E024E008E013E0E8DB3091E10670
:1034D00023E004EE12E0D0DC5091E20640E00091DF
:1034E000E30610E0400F511F68E671E033E023E08F
:1034F00001E113E0D3DB3091E20623E00DEE12E0B0
:10350000BBDC3091E30625E00DEE12E0B5DC01E016
:103510000093B30201E00093370B899199910895CC
:103520009A938A93E0E0F0E0FBBFFAE10C94817A91
:10353000E1E4FEE0259134910091D50610E02017DA
:10354000310720F402E00093F10406C40091D5068F
:103550000093F10401C40091D50610E0E5E4FEE01B
:10356000259134910217130750F0E7E4FEE025910E
:1035700034910091D50610E02017310738F40FE39D
:103580000093F2040FE30093F304E6C30091D50621
:103590004AE00E94DC79005D0093F2040091D506B8
:1035A0004AE00E94DC79405D4093F304D5C3EBE32D
:1035B000FEE0259134910091D50610E020173107E7
:1035C00050F4EBE3FEE0059103950093220C0FEF1E
:1035D0000093230CC1C30091D5060093220C0091E7
:1035E000220C1091230C011709F4B6C30091220C90
:1035F0000093230C0E94F9390E94EA3D01E00E94E9
:10360000BD3E0E9426420E94E8430E945844009119
:10361000B5020A3021F00091B502003181F4009129
:10362000240C0A950093AB0C0091AB0C1091AA0CE2
:10363000011780F50091AB0C0093AA0C8DC300918B
:10364000B502073021F00091B5020D3081F40091F0
:10365000640B0A950093AB0C0091AB0C1091AA0C73
:103660000117C0F40091AB0C0093AA0C75C3009134
:10367000B502063179F400918E0B03500093AB0C28
:103680000091AB0C1091AA0C011720F40091AB0C27
:103690000093AA0C61C30091D5064AE00E94DC7930
:1036A000405D4093FA040091D5064AE00E94DC791F
:1036B0000093D5060091D5064AE00E94DC79405D72
:1036C0004093F9040091D5064AE00E94DC79005D40
:1036D0000093F80441C30091FF0C023081F4809103
:1036E000D506E9E5FEE00591149190E00817190769
:1036F00010F480E301C0805D8093FC0433C300912B
:10370000220C043041F58091D50690E0E1EBFEE01B
:10371000059114918017910740F0E3EBFEE00591CD
:10372000149190E00817190738F40FE3009312057D
:103730000FE30093130510C34AE0082F0E94DC79C1
:10374000005D009312054AE0082F0E94DC79405D7D
:103750004093130501C38091D50690E0E7E8FEE0B1
:10376000059114918017910740F0E9E8FEE005917A
:10377000149190E00817190720F4E9E8FEE085911C
:10378000839580934D0C8091D60690E0EDE8FEE0A5
:10379000059114918017910740F0EFE8FEE0059144
:1037A000149190E00817190720F4EFE8FEE08591E6
:1037B000839580934E0C8091D70690E0E3E9FEE07C
:1037C000059114918017910740F0E5E9FEE005911D
:1037D000149190E00817190750F40FE300934F0C71
:1037E0000FE30093500C0FE30093510C1AC04AE012
:1037F000082F0E94DC79405D4093510C4AE0082F6D
:103800000E94DC79802F4AE0082F0E94DC79405D1D
:103810004093500C4AE0082F0E94DC79005D009331
:103820004F0C8091D8064AE0082F0E94DC79405D59
:1038300040935B0C4AE0082F0E94DC79802F4AE01D
:10384000082F0E94DC79405D40935A0C4AE0082F13
:103850000E94DC79005D0093590C8091D90690E0BC
:10386000EFE9FEE0059114918017910740F0E1EA3D
:10387000FEE00591149190E00817190738F40FE362
:103880000093630C0FE30093640C0EC04AE0082F12
:103890000E94DC79005D0093630C4AE0082F0E94CF
:1038A000DC79405D4093640C8091DA0690E0E5EAB3
:1038B000FEE0059114918017910740F0E7EAFEE0E1
:1038C0000591149190E00817190720F4E7EAFEE04B
:1038D0008591839580936D0C8091DB0690E0E7EBFA
:1038E000FEE0059114918017910740F0E9EBFEE0AE
:1038F0000591149190E00817190750F40FE3009315
:103900006E0C0FE300936F0C0FE300936F0C0BC072
:10391000E9EBFEE065917491482F50E034E020E03F
:103920000EE61CE0BBD98091DC0690E0EDEBFEE0FA
:10393000059114918017910740F0EFEBFEE005919F
:10394000149190E00817190750F40FE30093780CD6
:103950000FE30093790C0FE300937A0C0BC0EFEBAD
:10396000FEE065917491482F50E034E020E008E7D4
:103970001CE094D98091DD0690E0E3ECFEE0059137
:1039800014918017910740F0E5ECFEE00591149149
:1039900090E00817190738F40FE30093820C0FE347
:1039A0000093830CD9C1E5ECFEE065917491482F3A
:1039B00050E035E020E002E81CE070D9CDC1309144
:1039C000D50620E00091D60610E0200F311F20938D
:1039D000390530933A0500E00093D506009139058A
:1039E00010913A05EDE5FEE0259134910217130799
:1039F00020F401E00093D5060EC0EFE5FEE005914E
:103A000014912091390530913A050217130718F4E3
:103A100001E00093D5060091D5060023F9F00FE3ED
:103A2000009302050FE3009303050FE300930405E1
:103A300000E2009305050AEE0093060503EC0093EF
:103A4000070506EF009308050FE30093D2020FE38A
:103A50000093D3020FE30093D402D2C00091390542
:103A600010913A05043620E0120730F54AE050E0A4
:103A70000091390510913A050E94077A005D009384
:103A800002054AE050E00091390510913A050E9484
:103A9000077A405D4093030500E2009304050AEEB7
:103AA0000093050503EC0093060506EF0093070558
:103AB00000E20093080598C00091390510913A057D
:103AC000083E23E01207D0F544E650E000913905A6
:103AD00010913A050E94077A005D0093020544E6C2
:103AE00050E00091390510913A050E94077A409301
:103AF000390550933A054AE050E00091390510919C
:103B00003A050E94077A005D009303054AE050E001
:103B10000091390510913A050E94077A405D409363
:103B2000040500E2009305050AEE0093060503EC88
:103B30000093070506EF0093080556C0009139056C
:103B400010913A05003127E2120708F04DC048EE07
:103B500053E00091390510913A050E94077A005D03
:103B60000093020548EE53E00091390510913A05A3
:103B70000E94077A4093390550933A0544E650E095
:103B80000091390510913A050E94077A005D009373
:103B9000030544E650E00091390510913A050E9472
:103BA000077A4093390550933A054AE050E0009176
:103BB000390510913A050E94077A005D00930405CB
:103BC0004AE050E00091390510913A050E94077AC9
:103BD000405D409305050AEE0093060503EC009353
:103BE000070506EF00930805009102050093D20235
:103BF000009103050093D302009104050093D402C1
:103C000001E00093B202A8C0E3E6FEE00591E5E61C
:103C1000FEE025911091220C133011F42091000D3B
:103C20001091D506101720F00091D506201738F412
:103C30000FE300930A050FE30093D90209C0009136
:103C4000D506005D00930A0500910A050093D9028C
:103C500001E00093B20280C0E1E7FEE025913491DB
:103C60000091D50610E02017310738F40FE30093D8
:103C70000C050FE300930D0510C00091D5064AE036
:103C80000E94DC79005D00930C050091D5064AE0A6
:103C90000E94DC79405D40930D05E7E7FEE0259149
:103CA00034910091D60610E02017310738F40FE365
:103CB000009378040FE30093790413C00091D606B3
:103CC0004AE00E94DC79005D009378040091D606FA
:103CD0002091780420531AE0219F0019005D009381
:103CE00079040091000D0330B9F5E1E7FEE025917C
:103CF00034910091D70610E02017310738F40FE314
:103D000000937E040FE300937F0426C00091D70642
:103D10004AE00E94DC79005D00937E040091D706A2
:103D200020917E0420531AE0219F0019005D00932A
:103D30007F0412C0EBE6FEE0259134910091D50698
:103D400010E02017310720F402E00093180504C0AA
:103D50000091D5060093180501E00093370B01E0B0
:103D60000093350B89919991089540E001E000930B
:103D7000370B01E00093350B0FE010E02091D306E4
:103D800022952F7030E0021B130B2091E00C30E0E5
:103D9000F901E152F34F228130E00217130709F4D1
:103DA00041E00091D3060F700130D9F44423C9F0EB
:103DB0000091D606002359F000E011E00093E60CD4
:103DC0001093E70C0091D5060093E80C0AC000910F
:103DD000D50610E00093E60C1093E70C00E000938A
:103DE000E80C0091D3060F700230E1F4442379F01F
:103DF00000E00031B8F410E0F801EF52F94F2481EF
:103E000010E0F801E152F34F22870395F2CF00E072
:103E100007C020E010E0F801E152F34F228703953C
:103E20000031B8F3089520E070E021E00091D5065C
:103E3000702F072F0F700023A9F070FB16F423E0FA
:103E400003C071FB0EF424E00091000D0330E9F58E
:103E50002130D9F572FB16F425E037C073FBAEF5BF
:103E600026E033C00091FA0C002321F40091FB0CF2
:103E7000002359F10091FB0C1091FA0C011718F472
:103E80000091FA0C02C00091FB0C602FE6EDF6E009
:103E900037E070813196772381F050E001C053956F
:103EA000583058F4452F01E010E00E94047A172F93
:103EB00010231123A1F3232F250F385F213011F494
:103EC000685001C060E0613024F72093570D0091E5
:103ED000F90C002349F07091D50674FB16F422E02A
:103EE00001C021E020932D0D01E00093370B01E08C
:103EF0000093350B089511E000E00093DF0C00E023
:103F00000093E10C0091D506013091F401E000939B
:103F1000F90C01E00093AB032091DF0C2395209373
:103F2000DF0C03E030E0F901E152F34F02830BC0F4
:103F300000E00093F90C00E00093A9030091D5067E
:103F4000002309F010E00091D606093070F40091CA
:103F5000D606033051F01091D60604E0109F00926F
:103F6000FC0C01E00093AB0304C000E00093FC0CE8
:103F700010E00091D706093058F40091D7060330BD
:103F800039F01091D70604E0109F0092FD0C04C098
:103F900000E00093FD0C10E00091D806093058F4C1
:103FA0000091D806033039F01091D80604E0109F34
:103FB0000092FB0C04C000E00093FB0C10E00091A9
:103FC000DF06093028F40091DF060093220C04C0BC
:103FD00010E000E00093220C02E007C020E010E0B7
:103FE000F801EA55FC4F248303950930B8F300919A
:103FF000D9060330C1F503E00093000D0091FD0CDC
:10400000002321F40091F90C002319F001E0009342
:10401000AC030091F90C002379F00091FC0C002313
:1040200059F00091FD0C002339F00091FB0C0023A6
:1040300019F001E00093040D0091FC0C1091FD0CAF
:10404000010F0093FA0C0091FD0C0023A1F12091C7
:10405000DF0C23952093DF0C04E030E0F901E152FE
:10406000F34F028328C00091220C0330A9F4009181
:10407000D906093088F40091D9060093000D01E0BB
:104080001091000D0117B8F421E010E0F801EA5595
:10409000FC4F25830395F4CF02E00093000D00E070
:1040A0000093FD0C0091FC0C0093FA0C0091D906D2
:1040B000023009F010E00091FA0C002359F0209131
:1040C000DF0C23952093DF0C02E030E0F901E15290
:1040D000F34F02830091FB0C002359F02091DF0C79
:1040E00023952093DF0C01E030E0F901E152F34F1A
:1040F00002830091DA06023021F402E00093FF0C03
:1041000008C001E00093FF0C0091DA06013009F0CD
:1041100010E00091FF0C013021F404E00093360B15
:1041200003C003E00093360B3091DB0620E00091E2
:10413000DC0610E0200F311F2093AC023093AD025B
:104140003091DD0620E00091DE0610E0200F311FE7
:104150002093AE023093AF020091E40610E1019F7C
:1041600000E000220FE010220092B0021092B10293
:104170000091E40610E00F701070EAEAF2E0268188
:104180003781200F311F268337830091FF0C0230C7
:1041900021F401E00093250D13C00091000D0230C1
:1041A00021F402E00093250D0BC00091000D0330B7
:1041B00021F404E00093250D03C000E00093250DD9
:1041C00000E00093100D0091F90C002389F00EE13E
:1041D00015E02091100D30E0220F331FF901EF5E42
:1041E000F24F008311830091100D03950093100D81
:1041F0000091000D0230B1F40091FA0C0023E1F1BE
:1042000006E215E02091100D30E0220F331FF90176
:10421000EF5EF24F008311830091100D0395009320
:10422000100D2AC00091FC0C002389F003E415E076
:104230002091100D30E0220F331FF901EF5EF24F95
:10424000008311830091100D03950093100D0091D0
:10425000FD0C002389F00FE415E02091100D30E0F3
:10426000220F331FF901EF5EF24F0083118300919B
:10427000100D03950093100D0091FB0C002389F0A5
:1042800000E315E02091100D30E0220F331FF901FB
:10429000EF5EF24F008311830091100D03950093A0
:1042A000100D0CE315E02091100D30E0220F331FAC
:1042B000F901EF5EF24F008311830091100D039519
:1042C0000093100D0FEF0093230C0E94F9390E9408
:1042D000EA3D01E00E94BD3E0E9426420E94E84362
:1042E0000E94584401E00093010D08959A938A9327
:1042F000802F282F2A9501ED16E00E94C60E10E0AF
:104300000093370510933805209137053091380513
:1043100090E0FC01E053F94F008110E020173107D5
:1043200019F0549A579AC9C00091E107023009F078
:104330004BC000E00BC010E0F801EF52F94F2081B4
:1043400010E0F801E853FA4F20830395081798F31B
:104350000091CA050F3391F590E0FC01E953FA4F43
:1043600040810091CB050331B0F4202F2C5F08C0B1
:1043700010E030E0F901E853FA4F108323950395DC
:104380000331B0F34D5E1091CB05411B0093CB057B
:10439000802F8B5F06C01091DD05411B1091DE055B
:1043A000411B17E01093DD05410F11E61093DE0568
:1043B000410F10E0F801E853FA4F448303E0009303
:1043C000E1078093E20779C00091E107002309F03B
:1043D00074C041ED56E02091D30630E00091580DB5
:1043E0001091590D0E94A0290091D306007F005022
:1043F00039F0005151F0005169F0005181F045C091
:104400000091D3060E94150F56C00091D3060E945A
:10441000341151C00091D3060E9429124CC0009162
:10442000D306005369F00A9571F00A9579F00A9560
:1044300081F00A95C1F00A50E9F00A95F9F020C020
:104440000E94071338C00E946B1335C00E94671486
:1044500032C00091FF0C013019F40E945D172BC08F
:104460000E94371928C00091FF0C013021F50E94ED
:10447000501921C00091D506D6DC1DC03CDD1BC003
:104480000091D3060E94901A16C00091D306015CD9
:1044900079F00A9579F00F5059F00A9559F00F50BC
:1044A00039F00A9539F00F5019F00A9519F003C048
:1044B0005CDC01C05ADC549A579A0E94C32800E081
:1044C0000093E3078991999108950C018FEF3FEFD5
:1044D00060E014C070E0F801E60FF71F4081842708
:1044E000482F832F50E0FA01E457FF4F3491832780
:1044F00050E0FA01E457FE4F34916395621750F390
:10450000132F00E090E0082B192BC001089530E034
:104510004091590B405019F04A9569F017C042E09C
:1045200007C050E0F801E40FF51F5081350F4395A7
:104530004217B8F30BC040E007C050E0F801E40FA9
:10454000F51F5081350F43954217B8F3032F089597
:104550009A938A93812FE7E4F5E01081106110832C
:104560001091590B105019F01A95D9F03CC00093D6
:10457000CA058093CB05282F2C5F08EC15E0C7DF18
:1045800010E000933B0510933C0500913B0590E043
:10459000FC01E853FA4F04838B5F082F0E948229A5
:1045A00022C01091A8021093C8050093C905282FB6
:1045B0002D5F08EC15E089DF00933B0510933C0567
:1045C00000913B0590E0FC01E853FA4F0383109102
:1045D0003C05012F90E0FC01E853FA4F04838B5F08
:1045E000082F0E948229899199910895E7E4F5E0C6
:1045F0001081106110830093CA0502E00093CB057F
:1046000026E008EC15E083DF10E000933B051093F3
:104610003C0500913B050093CE0507E00E948229EE
:104620000895E7E4F5E01081106110831091A8026D
:104630001093C8051091490510681093C90500939F
:10464000CA0523E008EC15E062DF10E000933B05AB
:1046500010933C0500913B050093CB0510913C0560
:10466000012F0093CC0505E00E94822908959A93BA
:104670008A93802F0E948F2900FB4EF400E0009364
:10468000CC0500E00093CD0501EEB0DF77C30091CB
:10469000590B005021F00A9509F434C165C300910B
:1046A0004805053509F023C1009149050A3A09F08A
:1046B0001EC100914B0510E0E82FF0E035970E1772
:1046C0001F0751F000914B050093CC058550809356
:1046D000CD0503EE8BDF52C3282F2A9508E415E0A1
:1046E00016DF10E000933B0510933C0520913B053D
:1046F00030913C0590E0FC01E95BFA4F008110E04D
:104700002017310771F090E0FC01E95BFA4F00815E
:104710000093CC0500913B050093CD0502EE66DFCA
:104720002DC300914A05043729F000914A0503374B
:1047300009F0BFC000914A05043789F54091CA0CC1
:1047400050E008EE13E00E94FA7998014091CB0CFA
:1047500050E004E610E00E94FA79200F311F4091EA
:10476000CC0C50E00AE010E00E94FA79200F311FD3
:104770000091CD0C10E0200F311F2055304D2093BB
:104780003F053093400510914005012F0093CC0563
:1047900000913F050093CD0512E002E7D9DE0091BC
:1047A0004A05033709F077C030914C0520E00091AD
:1047B0004D0510E0200F311F20933F053093400539
:1047C00048EE53E000913F05109140050E94077AA2
:1047D000005D0093CA0C8091CA0C90E0C09708EE6F
:1047E00013E0AC010E94FA79EFE3F5E0208131811A
:1047F000201B310B2083318344E650E000913F05BC
:10480000109140050E94077A005D0093CB0C8091C7
:10481000CB0C90E0C09704E610E0AC010E94FA795E
:10482000EFE3F5E020813181201B310B20833183C0
:104830004AE050E000913F05109140050E94077A40
:10484000005D0093CC0C8091CC0C90E0C0970AE006
:1048500010E0AC010E94FA79EFE3F5E020813181AC
:10486000201B310B2083318300913F05005D0093B5
:10487000CD0C10E003E76CDE01E00093D70700E009
:1048800010E00093DD071093DE070AEC1CE00093B4
:10489000D9071093DA070FE00093A90200919A005C
:1048A000006100939A0000919A00006800939A00BA
:1048B00065C200E011C010E0F801E85BFA4F20810A
:1048C00010E0F801EF5AF84F208320E010E0F801E3
:1048D000E85BFA4F20830395081768F38093E2079B
:1048E00001E00093E1070FE00093A90247C20091A5
:1048F0009A00006100939A0000919A00006800936A
:104900009A003CC2009148051091A802011709F0D5
:1049100020C2282F225008E415E0D7DD00933B0584
:1049200010933C0590E0FC01EA5BFA4F008190E0B7
:10493000FC01E95BFA4F108100933D0510933E05A1
:1049400000913B0510913C0520913D0530913E05BD
:104950000217130769F000913B050093CA051091F7
:104960003C05012F0093CB0511E00FEFF1DDF6C1FF
:1049700030914A0520E000914B0510E0200F311FD7
:10498000209342053093430500914D050093410566
:1049900000914905035021F0035009F4B2C1D6C17A
:1049A00000914105013420F400914105002319F4E0
:1049B00003E037DED3C100914205109143050A5F41
:1049C0001040063023E01207A8F0209142053091F4
:1049D00043050091410510E0200F311F2B3F00E0FF
:1049E000300758F00091420510914305003024E053
:1049F000120718F402E015DEB1C11091410502E082
:104A0000109F0092CA0500914205109143050A3F8C
:104A100020E0120718F580E015C060914205709102
:104A2000430590E0680F791F02E0809F03E0000ECD
:104A3000402D28EC35E00091580D1091590D0E9441
:104A4000EE29839500914105801738F310914105B7
:104A500002E0109F102D03E07BDD80C10091420534
:104A6000109143050050144000302EE1120708F069
:104A700046C001E00093DD0C20E030E00091580DCD
:104A80001091590D0E94CD2C4FE0009141050E94DC
:104A9000DC790093DC0C0091DC0C002329F40091FC
:104AA000DC0C03950093DC0C8FE090E00091420554
:104AB00010914305005014404FE050E00E94077AE7
:104AC000841B950B0091410510E08017910728F495
:104AD0000091DC0C03950093DC0C009142051091D1
:104AE0004305005014404FE050E00E94077A0093C5
:104AF00044051093450502EF0093DE0C2FC1009191
:104B00004205109143050050144200302EE1120777
:104B100008F04BC001E00093DD0C20E030E0009194
:104B2000580D1091590D0E94CD2C4FE00091410578
:104B30000E94DC790093DC0C0091DC0C002329F44A
:104B40000091DC0C03950093DC0C00914205109160
:104B50004305005014424FE050E00E94077A409312
:104B600046050FE010E02091460530E0021B130BD4
:104B70002091410530E0021713072CF40091DC0C62
:104B800003950093DC0C0091420510914305005001
:104B900014424FE050E00E94077A009344051093BE
:104BA000450502EC0093DE0CD9C00091420510913E
:104BB00043050050144400302EE1120708F04BC0AA
:104BC00001E00093DD0C20E030E00091580D1091E1
:104BD000590D0E94CD2C4FE0009141050E94DC79D7
:104BE0000093DC0C0091DC0C002329F40091DC0C18
:104BF00003950093DC0C0091420510914305005091
:104C000014444FE050E00E94077A409346050FE0BD
:104C100010E02091460530E0021B130B2091410566
:104C200030E0021713072CF40091DC0C039500937D
:104C3000DC0C0091420510914305005014444FE0F4
:104C400050E00E94077A009344051093450502ED59
:104C50000093DE0C83C00091420510914305005083
:104C6000144600302EE1120708F078C001E00093EE
:104C7000DD0C20E030E00091580D1091590D0E949C
:104C8000CD2C4FE0009141050E94DC790093DC0CB3
:104C90000091DC0C002329F40091DC0C03950093B7
:104CA000DC0C0091420510914305005014464FE082
:104CB00050E00E94077A409346050FE010E02091F3
:104CC000460530E0021B130B2091410530E002172E
:104CD00013072CF40091DC0C03950093DC0C00917D
:104CE000420510914305005014464FE050E00E94E9
:104CF000077A009344051093450502EE0093DE0CFD
:104D00002DC050914C0540E000914D0510E0400F42
:104D1000511F20914205309143050091580D10918B
:104D2000590D0E94352A00E00BC010E0F801E85B45
:104D3000FA4F208110E0F801E853FA4F20830395E1
:104D4000063098F313E006E003DC08C001E069DCFC
:104D500005C000919A00006100939A0000919A00AA
:104D6000006800939A000AC000919A0000610093C5
:104D70009A0000919A00006800939A000E949C2972
:104D80008991999108950FEC09B91098119A189882
:104D9000199A0EE00093950008E10AB9549A579ABF
:104DA00006B70D7F06BF07B7016007BF05E002BF6A
:104DB00004E003BF05E5009351070AEA0093520798
:104DC00005E50093D1060AEA0093D2060895FA9306
:104DD000EA935A934A933A932A931A930A934FB7B2
:104DE0005BB70CB15C9952C01091D307105039F0E9
:104DF0001A9559F01A9599F01A95B9F027C005350A
:104E000019F401E00093D30741C00A3A21F402E00B
:104E10000093D3073BC000E00093D30737C0009353
:104E2000D30603E00093D30731C00093D4060C37B8
:104E300020F010E01093D30703C014E01093D307C1
:104E40001091D307100F1093D40720C02091D307DF
:104E500030E0F901EF52F94F00830091D307109130
:104E6000D407011770F001E00093E30700E000931E
:104E7000D307549857980091D40703950093E407FB
:104E800005C00091D30703950093D3075BBF4FBFC5
:104E9000099119912991399149915991E991F99182
:104EA0001895FA93EA933A932A931A930A932FB791
:104EB0003BB70091D1071091D207011784F40091FC
:104EC000D107102F110F110BF801EF5AF84F008185
:104ED0000CB90091D10703950093D1070FC05398E7
:104EE000559800E00093D20700E00093D107549A50
:104EF000579AE0EDF6E000810F7E00833BBF2FBFA5
:104F00000991199129913991E991F99118959A93FB
:104F10008A93FA93EA933A922A921A920A927A938D
:104F20006A935A934A933A932A931A930A938FB7A0
:104F30009BB72197A89505E002BF00913908003F73
:104F400009F045C00091E107002309F040C00E942C
:104F50000C370093CD060091CD061091CC060117B9
:104F600021F00091CD06003FD1F4EEECF6E0008197
:104F700011810F5F1F4F008311830091CE061091A6
:104F8000CF06013921E0120784F000E911E0009317
:104F9000CE061093CF0600EF0093CC0606C000E0CB
:104FA00010E00093CE061093CF060091CD0610912D
:104FB000CC06011761F00091CD06003F41F0009151
:104FC000CD06009339080091CD060093CC060091E0
:104FD000CA06053078F10091CB06013029F0E7E4EC
:104FE000F5E0008100FF22C000919A000F7E00933F
:104FF0009A0000919A000F7700939A00E7E4F5E099
:105000000081086000830091C7060E94372300E0FA
:105010000093CB0600E00093C70600919C00088334
:10502000E7E4F5E000810F7E008309C00EE1009304
:10503000CA0605C00091CA0603950093CA06E19905
:1050400039C00091D7070130A9F5F8940091DD0728
:105050001091DE071FBB0EBB0091D50710E0E09159
:10506000D907F091DA07E00FF11F00810DBBE29A3A
:10507000E19A78940091D50703950093D507EDED5B
:10508000F7E0008111810F5F1F4F008311830091B2
:10509000D50710E0E091D907F091DA07E00FF11F92
:1050A00031970081002331F400E00093D70700E03E
:1050B0000093D507E1994EC00091D807013009F05F
:1050C00049C00091DF071091E0071FBB0EBBE09ABB
:1050D0002DB30091D60710E0E091DB07F091DC07DB
:1050E000E00FF11F20830091D60710E0E091DB076D
:1050F000F091DC07E00FF11F00810F3F59F400E051
:105100002091D60730E0E091DB07F091DC07E20F59
:10511000F31F0083EFEDF7E0008111810F5F1F4F58
:10512000008311830091D60703950093D607009161
:10513000D60710E0E091DB07F091DC07E00FF11FEC
:1051400031970081002331F400E00093D80700E09C
:105150000093D60721969BBF8FBF09911991299182
:1051600039914991599169917991099019902990B2
:105170003990E991F9918991999118950093D20705
:10518000539A559A089500E00093D006089503E3DA
:10519000009399008A988B9A9298939A0EE00093C4
:1051A0009D0008E100939A0000919A00006100932D
:1051B0009A0000919A00006800939A0005E5009318
:1051C000C8050AEA0093C9050895FA93EA934A9339
:1051D0003A932A931A930A933FB74BB720919C00B6
:1051E00000919B00102F14FF05C0E7E4F5E000815B
:1051F000016000830091CB06002391F40091CA0660
:105200000E3170F001E00093CB0600E00093C7067A
:1052100000E00093CA06E7E4F5E000810061008346
:105220000091CB060130E9F40091CA060E31C8F4B2
:105230000091C706003830F0E7E4F5E00081016036
:1052400000830CC00091C70610E0F801E85BFA4F3C
:1052500020830091C70603950093C70600E00093E2
:10526000CA064BBF3FBF09911991299139914991C4
:10527000E991F9911895FA93EA933A932A931A933C
:105280000A932FB73BB70091C8061091C9060117C2
:105290008CF40091C806102F110F110BF801E85380
:1052A000FA4F008100939C000091C806039500937B
:1052B000C8061FC000919A00077F00939A000091D2
:1052C0009A000F7D00939A0000E00093C90600E069
:1052D0000093C80600919A00006100939A00009123
:1052E0009A00006800939A00E7E4F5E000810F7EE1
:1052F00000833BBF2FBF0991199129913991E99101
:10530000F99118950093C90600919A0008600093DE
:105310009A0000919A00006200939A00089500910B
:10532000470510919A00212F27FD026010919A00E5
:10533000212F25FD0460089500E00093470508959E
:105340000E94CA7A2801D901CA018D01E8E1F0E082
:10535000FBBFFAE10C94857AAC019D01820121D357
:105360003AC0AC019D01820178D335C0AC019D01EA
:1053700082010CD430C09C01820180D42CC09C01DD
:1053800082019DD428C09C018201C8D424C09C0104
:10539000820152D520C0AC019D018201BCD61BC048
:1053A00045EB50E09C01820120D715C046EB50E050
:1053B0009C0182011AD70FC047EB50E09C0182018B
:1053C00014D709C044EB50E09C0182010ED703C002
:1053D0009C0182011DD7E6E00C94D57A0E94C87A20
:1053E0002801D901642ECB01863100E0900721F419
:1053F0002AEC3CE08201A7D2803001E09007F8F46B
:10540000F201218132818C01000F111F200F311F09
:10541000F9011181012F7724FD01E60DF71D0083AD
:10542000F20101811281880F991F080F191FF801DD
:1054300000817724A60DB71DFD0101830CC00FEF7D
:105440007724FD01E60DF71D00830FEF7724A60DED
:10545000B71DFD010183E8E00C94D37A222311F0FB
:10546000F8012383F8010381089562E0F801638362
:10547000F80124833583F80146835783089521502A
:1054800019F02A9521F006C0F80100850895F80169
:10549000018508950FEF08950E94CB7AC801D901C4
:1054A000FC0104811581005110400650104008F4A1
:1054B00070C00050104009F4C7C00A51104009F4F0
:1054C000F1C00350104009F4EDC00350104009F43E
:1054D000E9C00A51104008F433C20750104008F4E4
:1054E000FAC00950104009F403C10150104009F4FA
:1054F000FFC00150104008F44BC00450104008F4A5
:1055000004C10050104008F443C00450104008F497
:105510000CC100501040E0F10052104008F415C1D9
:1055200006501040A8F10350104008F41EC100506E
:10553000104070F10450104008F424C10050104095
:1055400038F10450104008F42DC10550104000F10E
:105550000550104008F436C10050104009F43FC116
:105560000150104009F44DC10150104009F456C1DA
:105570000D50104009F45DC10150104009F47BC189
:105580000150104009F499C10150104009F4B7C10D
:10559000D7C100E0FC01008332C0FC01018112810F
:1055A000FC01208130E0220F331F020F131FF8018E
:1055B00000A111A14AE050E00E94077A402E4294D7
:1055C00000EF4022FC0101811281FC01208130E0CA
:1055D000220F331F020F131FF80100A111A14AE08F
:1055E00050E00E94077A440EFC01008110E0FD01AA
:1055F000E00FF11F4482FC01008103950083FC0150
:105600000081063050F2FC01068117814AE050E02B
:105610000E94077A402E429400EF4022FC0106814E
:1056200017814AE050E00E94077A440EFC01048191
:105630001581A00FB11F1C974C9202EBFC01008753
:1056400006E0FC0101877CC1FC011781012F069552
:10565000069506950695005D0093CA0CFC0117811E
:10566000012F0F70005D0093CB0CFC0106810295A9
:105670000F70005D0093CC0CFC0106810F70005D83
:105680000093CD0C01E00093D70700E010E00093F9
:10569000DD071093DE070AEC1CE00093D907109396
:1056A000DA074EC1FC0106811781023020E01207A3
:1056B00031F401E7FC01008700E0FC010187FC01F7
:1056C00006811781012B31F400E7FC01008700E01F
:1056D000FC01018735C1FC0104810F5CFC010087DE
:1056E00001E0FC010187FC010681FD01048328C162
:1056F000FC0104810F5CFC01008701E0FC010187D3
:10570000FC010681FD0104831BC104E9FC01008743
:1057100002E0FC010187FC0104810156FD010483C4
:10572000FC010681FD0105830BC105E9FC01008731
:1057300002E0FC010187FC0104810556FD010483A0
:10574000FC010681FD010583FBC003E9FC01008724
:1057500002E0FC010187FC0104810956FD0104837C
:10576000FC010681FD010583EBC0FC0104810F5E95
:10577000FC01008701E0FC010187FC010681FD01BD
:105780000483DEC004EAFC01008702E0FC0101871B
:10579000FC0104810259FD010483FC010681FD0125
:1057A0000583CEC005EAFC01008702E0FC01018709
:1057B000FC0104810659FD010483FC010681FD0101
:1057C0000583BEC0FC0104810B5EFC01008701E083
:1057D000FC010187FC010681FD010483B1C0FC01CD
:1057E00004810B5EFC01008702E0FC010187FC01E3
:1057F0001781012FFD010483FC010681FD01058352
:105800009FC0FC0104810B5EFC01008701E0FC01EC
:105810000187FC010681FD01048392C00DEBFC01B0
:10582000008701E0FC010187FC010681FD01048382
:1058300087C00AEFFC01008700E0FC01018700E05F
:10584000FC01008313C00EEE1EEEFC01248535859D
:10585000FC01408150E0440F551F240F351FF90112
:1058600000831183FC01008103950083FC0100810A
:10587000013848F365C00AECFC01008700E0FC0138
:10588000018700E0FC01008313C00EEE1EEEFC0158
:1058900024853585FC01408150E0440F551F240FBD
:1058A000351FF90100831183FC01008103950083FA
:1058B000FC010081013848F343C00AEDFC01008778
:1058C00000E0FC01018700E0FC01008313C00EEE44
:1058D0001EEEFC0124853585FC01408150E0440F1B
:1058E000551F240F351FF90100831183FC0100812E
:1058F00003950083FC010081013848F321C00AEEC2
:10590000FC01008700E0FC01018700E0FC0100834E
:1059100013C00EEE1EEEFC0124853585FC0140818E
:1059200050E0440F551F240F351FF90100831183E8
:10593000FC01008103950083FC010081013848F3DC
:10594000E5E00C94D67A592F082EB801F901208190
:10595000322F20E0330F330F330F330F818190E06C
:10596000C097982F80E0280F391F028110E0005364
:10597000104044E00E94047A200F311F038110E0A0
:105980000F701070200F311FFB0101811281F8018F
:1059900024A735A7802D952F0895F80126873787EE
:1059A00008950E94CC7AC8018901DA01E0E9F0E0AB
:1059B000FBBFFAE10C94857AFD01048110E0FC0143
:1059C000A181B281A056BF4F0D931C9343C0FD012E
:1059D000A481B0E01196FC01018112810E551F4F88
:1059E000F801A083B18336C0FD01048110E0FC0101
:1059F000A181B281AC55BF4F0D931C932BC0FD010B
:105A0000048110E0FC01A181B281AA55BF4F0D9322
:105A10001C9320C0FD01048110E0FC01A181B28132
:105A2000A855BF4F0D931C9315C0FD01048110E0D4
:105A3000FC01A181B281A655BF4F0D931C930AC0F2
:105A4000FD01048110E0FC01A181B281A455BF4F8A
:105A50000D931C93E4E00C94D77A0E94CC7AD80181
:105A60008901CA01E6EAF0E0FBBFFAE10C94857A0D
:105A7000FC01048110E0FD01A181B281A054BF4F5F
:105A80000D931C9380C0FC01448150E00AE010E0BB
:105A90000E94FA79FD01A181B281AE53BF4F0D93EF
:105AA0001C9371C000E00C931CC00C9110E0FC0131
:105AB000E00FF11F448150E00AE010E00E94FA7903
:105AC000FD01218132814C9150E0440F551F240F7C
:105AD000351F2C523F4FF901008311830C91039520
