:100000000C94957518951895189518951895189538
:100010001895189518951895189518951895189578
:1000200018951895189518950C94BA2F1895189539
:1000300018951895189518950C94B37418951895EB
:100040000C940926189518950C9469250C94D325C1
:100050001895189518951895189518951895189538
:100060001895189518951895189518951895189528
:1000700018951895189518950C9467270C94BD271A
:1000800018951895189518951895189500C18140E0
:1000900001C0804101C0804100C1814001C0804158
:1000A00000C1814000C1814001C0804101C0804148
:1000B00000C1814000C1814001C0804100C1814038
:1000C00001C0804101C0804100C1814001C0804128
:1000D00000C1814000C1814001C0804100C1814018
:1000E00001C0804101C0804100C1814000C1814008
:1000F00001C0804101C0804100C1814001C08041F8
:1001000000C1814000C1814001C0804101C08041E7
:1001100000C1814000C1814001C0804100C18140D7
:1001200001C0804101C0804100C1814000C18140C7
:1001300001C0804101C0804100C1814001C08041B7
:1001400000C1814000C1814001C0804100C18140A7
:1001500001C0804101C0804100C1814001C0804197
:1001600000C1814000C1814001C0804101C0804187
:1001700000C1814000C1814001C0804100C1814077
:1001800001C0804101C0804100C1814000C0C10167
:10019000C30302C2C60607C705C5C404CC0C0DCDF7
:1001A0000FCFCE0E0ACACB0BC90908C8D81819D967
:1001B0001BDBDA1A1EDEDF1FDD1D1CDC14D4D51597
:1001C000D71716D6D21213D311D1D010F03031F187
:1001D00033F3F23236F6F737F53534F43CFCFD3DB7
:1001E000FF3F3EFEFA3A3BFB39F9F83828E8E929A7
:1001F000EB2B2AEAEE2E2FEF2DEDEC2CE42425E557
:1002000027E7E62622E2E323E12120E0A06061A1C6
:1002100063A3A26266A6A767A56564A46CACAD6D76
:10022000AF6F6EAEAA6A6BAB69A9A86878B8B979E6
:10023000BB7B7ABABE7E7FBF7DBDBC7CB47475B516
:1002400077B7B67672B2B373B17170B05090915106
:100250009353529296565797559594549C5C5D9D36
:100260005F9F9E5E5A9A9B5B995958988848498926
:100270004B8B8A4A4E8E8F4F8D4D4C8C44848545D6
:10028000874746868242438341818040380C018003
:10029000020041A042A1E045A3A4A5A64BA74D485A
:1002A0004FA8504354A9AA58E1ABACE2ADAE62AF3F
:1002B000B0B161B2B3B4E365B6B7B8B9BABBBCBD4F
:1002C0006FBE7063BF79E478E5C0C1E6C2C3C4C540
:1002D000C6C7EEF8E8E12EC0CA2000E0E2F2EE2E3A
:1002E000C0CA2000E0E2F2EE2EC0CA2000F3F1EA1C
:1002F0002EC0CA202000E2FBEAEB2EC0CA2000EF8D
:10030000F0EEE22EC0CA2000E8F1EFFBF22EC0CAE8
:1003100000EFF3F1EA20C0CA2000EDEEF0EC2EC0B1
:10032000CA2000E1E5E3EB2EC0CA2000EEE4EDEECA
:10033000F12EC0CA00D202DB02E402ED02F602FF97
:1003400002080311031A0323032C03EEF8E8E12E3D
:1003500000E0E2F2EE2000E0E2F2EE2000F3F1EA4B
:100360002E2000E2FBEAEB2E00EFF0EEE22E00E89A
:10037000F1EFFBF200EFF3F1EA2000EDEEF0EC2EEE
:1003800000E1E5E3EB2E00EEE4EDEEF1004B03516E
:100390000357035D03630369036F0375037B0381E5
:1003A000038703C0CA2D00CDE5F220F1E2FFE7E8A4
:1003B00020F120C1D1CF2020202020002020C8ED16
:1003C000E8F6E8E0EBE8E7E0F6E8FF202020202070
:1003D00000312EC6F3F0EDE0EB2E00322EC4E0F239
:1003E000E02FE2F0E5ECFF2E00332ED3EFF0E0E259
:1003F000EBE5EDE8E52E00342ED3F1F2E0EDEEE290
:10040000E8F2FC2E00352ECFF0EEF1ECEEF2F0200B
:10041000EFE0F0E0EC2E00362EC0E2F2EEEAEEED78
:10042000F2F0EEEBFC2E00372ECFF0EEF2EEEAEE1D
:10043000EB2E00D103DB03E903F7030504170427C0
:1004400004312E20C4E0F2E02E20202020202020A5
:10045000202020202000322E20C2F0E5ECFF2E20AC
:100460002020202020202020202000C6F3F0EDE0D6
:10047000EB2000F1EEE1FBF2E8E900E7E0F9E8F259
:10048000FB00EFF0E8E5ECEDE8EAE000EFE5F0E591
:10049000E4E0F2F7E8EAE00073048C0482047B04F1
:1004A000D7F2E5EDE8E520E0F0F5E8E2E02E00CF58
:1004B000CC00CFC400D1C100C7D900B504B204AF8D
:1004C00004B804CEC1D900CFE5F0E5E72E00CFE5B2
:1004D000F0E5E7E0EF2000CDE0F7E0EBEE2000CA2A
:1004E000EEEDE5F62000EAEEECE0EDE4FB00312E67
:1004F000D0E5E6E8EC2E00322ECFE0F0E0ECE5F2BD
:10050000F0FB2E00332ECFE0F0EEEBFC2E00342E6D
:10051000D2E5F1F22E00EE04F70404050E05C7E063
:10052000F9E8F2E02E00CFF0E8E5ECEDE8EA2E0085
:10053000CFE5F0E5E4E0F2F7E8EA2E00CEE1F9E8F5
:10054000E52E00CFF0E8E5ECEDE8EA20312E00CF13
:10055000F0E8E5ECEDE8EA20322E00D2E8EF20C723
:10056000E0F9E8F2FB00D2E8EF20CBE8EDE8E800A4
:10057000C4EEEF2E20E2F0E5ECFF20E1E5E720EC11
:10058000E0ED2E00C7E0E4E5F0E6EAE020EDE02053
:10059000EBE8EDE8E820202000CFE5F0E5EAF0FB0D
:1005A000F2E8E520E8ECEFF3EBFCF1EEE200C7E067
:1005B000E3F020F7F3E2F1F2E2E8F220EFEE2020A0
:1005C000D0C700D1EDE8E6E5EDE8E520F3F0EEE296
:1005D000EDFF20C0CA202000D7E0F1F2EEF2E020CB
:1005E000CFD0C400D7E0F1F2EEF2E020CFD0CC00C3
:1005F000D1E4E2E8E320EFE5F02EF4F0EEEDF2E0F6
:1006000020CFD0C400D1E4E2E8E320E7E0E42EF418
:10061000F0EEEDF2E020CFD0C400D1E4E2E8E32038
:10062000CFD0CC00D1E4E2E8E320C2D720CFD0C4C1
:1006300020EEF220CFD3D1CA005B05660570058499
:10064000059905AE05C305D805E405F00505061AAC
:10065000062406C7E0E4E5F0E6EAE020EDE020E26B
:10066000EAEB2E2020202000C4EBE8F2E5EBFCEDC5
:10067000EEF1F2FC20EAEEECE0EDE4FB00C7E0E492
:10068000E5F0E6EAE020EDE020E2FBEAEB2E2020B8
:10069000EA00C1EBEEEA2E20EAEEECE0EDE4FB200E
:1006A000203F2E2E3F2000C4EBE8F22E20EAEEEC95
:1006B000E0EDE4FB20203F2E2E3F2000530668068D
:1006C0007D069206A706C2F0E5ECFF20EDE020EFE4
:1006D000EEE2F22E20EAEEEC2E2000C1EBEEEA2E46
:1006E00020EAEEECE0EDE4FB20203F2E2E3F200040
:1006F000C4EBE8F22E20EAEEECE0EDE4FB20203F34
:100700002E2E3F200053066806C606DB06F006D1F3
:10071000EEE2ECE5F1F2E8ECEEF1F2FC0043E8ED9C
:10072000F5F0EEEDE8E7E0F6E8FF20F7E0F1EEE2C5
:100730000055E2FBF520EDEEECE8EDE0EBFCEDEE34
:10074000E500D3E4E5F0E6E0EDE8E520F0E5EBE5F3
:1007500020CFD0C400D1E5F2E5E2EEE920E0E4F0FC
:10076000E5F100C2F0E5ECFF20EFE5F0E5E7E0EFB2
:10077000F3F1EAE000D7E0F1F2EEF2E000CDEEECCA
:10078000E5F020E0EFEFE0F0E0F2E000CAEEEDF29D
:10079000F0EEEBFC20E2FBF52EF1E8E3EDE0EBE020
:1007A00000CFEEF0EEE320CFD0C5C4D3CFD020EF02
:1007B000EE20CAD72000C7E0E3F020F7F3E2F1F221
:1007C000E2E8F220EFEE2020CAD700CAEEF0F0E512
:1007D000EAF6E8FF20EDE0EFF0FFE6E5EDE8FF00E8
:1007E000CAEEF0F0E5EAF6E8FF20F2EEEAE000CF2C
:1007F000EEF0EEE320CFD0C5C4D3CFD020EFEE2073
:10080000D0C72000CFF0EEF2EEEAEEEB20EEE1EC06
:10081000E5EDE000CFF0E8E7EDE0EA20F7E5F2ED06
:10082000EEF1F2E800C4EEEFF3F1F2E8ECFBE520C4
:10083000EFF0EEE2E0EBFB00CFEEF0EEE320EFEEC8
:1008400020EFEEECE5F5E500C4EEEFF3F1F2E8ECB5
:10085000E0FF20EFEEECE5F5E000D2E8EF20E0E28B
:10086000F2EEEAEEEDF2F0EEEBFF00D0E5E7E5F0B8
:10087000E2E8F0EEE2E0EDE8E500D1EDE8E6E5EDF6
:10088000E8E520EEF2E2E5F2E020C0CA202000CF49
:10089000E5F0E8EEE420E1E5E3EBEEE3EE20C0CAAC
:1008A00000CFE5F0E8EEE420EFEEE2F22EE1E5E342
:1008B000EB2E20C0CA000F071D073107420755075E
:1008C000630775077D078C07A107B607CB07E0070D
:1008D000040814082508380848085A086B087A08DC
:1008E0008F08A108EF07C0C2C0CDD220D03430306D
:1008F00000CFC2C72D393000C0C2C7CA2D38300062
:10090000CFC2C7D32DC500CFC2C7CB00CBC8CDC87F
:10091000DF2DD000CFC2C7CA00CFC2C7D300EEF8C8
:10092000E8E1EAE000E608F108F808000907090C28
:1009300009140919091E09C7C0D900CFD0CC00CFAE
:10094000CC3100CFCC3200CFD0C400C2FBE2E5E412
:100950002000C3EEF2EEE22000C2E2E5E4E5ED00A5
:10096000D0E5F7FC202000D2E5F1F2203100D2E5FD
:10097000F1F2203200D2E5F1F22033004B095209A6
:100980005909600967096E0975093F3F3F3F00201B
:100990002020C7E0EFF3F1EA20F2E5F1F2E02020B9
:1009A000202020002020CFEEE4EEE6E4E8F2E5206F
:1009B0003F20F1E5EA20202000CFF0EEF2EEEAEE53
:1009C000EB00D1F2E0EDE4E0F0F2004D6F6442752F
:1009D0007300C209CB09C7C0D93A00CFD0CC3A00C6
:1009E000CFCC313A00CFCC323A00CFD0C43A003F1E
:1009F0003F3F3F2020202000CDE5E8F1EFF0202010
:100A000000CFF0E5E4F3EFF02000C2FBE2E5E4E51F
:100A1000ED2000C3EEF2EEE220202000C2E2E5E489
:100A2000E5ED202000D0E5F7FC2020202000D2E5D5
:100A3000F1F23120202000D2E5F1F2322020200016
:100A4000D2E5F1F233202020000A0A130A1C0A25FD
:100A50000A2E0A370A0A0A1C0A0A0A2E0A370A400C
:100A60000A0A0A1C0A2E0A370A400AC8F1F5EEE4FF
:100A7000ED2E2000CAEEEDF2F0EEEBFC00CFF3F12C
:100A8000EA2020202000D0E0E1EEF2E0202000CD9E
:100A9000E5E8F1EFF02E2000CF2EEDE5E8F1EFF0E4
:100AA00000CEE6E8E4E0EDE8E500CDE0EB2EEFF384
:100AB000F1EA00D3E42EEFF3F1EA2000CDE5F220D5
:100AC000D0C7202000D0E5F7FC2020202000D2E570
:100AD000F1F220202020006B0A740A7D0A860A8F1A
:100AE0000A980AA10AAA0AB30ABC0AC50ACE0AC809
:100AF000F1F5EEE4ED2E2000CFD0CC20CAD7202097
:100B000000CFD0CC20CFC0202000CDE5F220CAD726
:100B1000202000CDE5E8F1EFF02E2000CF2EEDE50E
:100B2000E8F1EFF000CEE6E8E4E0EDE8E500C1CB67
:100B3000CA20CACC2020003F307830383F20200027
:100B40003F307830393F2020003F307830413F201F
:100B50002000D2E5F1F22020202000EF0AF80A015F
:100B60000B0A0B130B1C0B250B2E0B370B400B49E1
:100B70000B520BC8F1F5EEE4ED2E2000CFD0C420CF
:100B8000CAD7202000CFD0C420CFC0202000CDE580
:100B9000F220CAD7202000CDE5E8F1EFF02E2000AA
:100BA000CF2EEDE5E8F1EFF000CEE6E8E4E0EDE889
:100BB000E5003F307830373F2020003F3078303834
:100BC0003F202000D1E8F1F2E5EC2E20003F307804
:100BD00030413F202000D2E5F1F220202020007398
:100BE0000B7C0B850B8E0B970BA00BA90BB20BBBD1
:100BF0000BC40BCD0BD60B672D006C2D00C2E2EEA3
:100C0000E43A00CFE0F0EEEBFC3A00CDEEE2FBE997
:100C100020EFE0F0EEEBFC3A00C7EDE0F7E5EDE8A1
:100C2000E53A2000C4D4C72DCFF0CFE4202000C483
:100C3000D4C72DCFF0ECCCCA3100C4D4C72DCFF02F
:100C4000ECCCCA3200C4D4C72D4C36302020200052
:100C5000CDC72DCFF0CFE420202000CDC72DCFF081
:100C6000EC2DCCCA2000CFCFC72DCFF0CFE4202071
:100C700000CFCFC72DCFF0EC2DCCCA00EEF8E8E1C5
:100C8000EAE02020202000240C2F0C3A0C450C50C8
:100C90000C5B0C660C710C7C0CE2FBEAEB2E00E2A8
:100CA000EAEB2E003F3F3F3F00990C9F0CA40C3F06
:100CB0003F3F3F00E1FBF1F2F0FBE900ECE5E4EB44
:100CC000E5EDEDFBE900AF0CB40CBC0CAF0C3F3F05
:100CD0003F3F00E2EAEB2E00E2FBEAEB2E00CE0CF7
:100CE000D30CD80CCE0C3F3F3F20E3F0E0E4003FB4
:100CF0003F3F20F1E5EA003F3F20E3F0E0E4003F22
:100D00003F3F3F00F2F0E5E2EEE6EDFBE900EDEEFD
:100D1000F0ECE0EBFCEDFBE900F1EFEEEAEEE9EDE3
:100D2000FBE900FF0C040D0E0D190DFF0C2D3130E9
:100D3000303020C3F6002D35303020C3F6002B3084
:100D400020C3F6002B35303020C3F6002B31303075
:100D50003020C3F600EEF8E8E1EAE0002D0D360D94
:100D60003E0D440D4C0D550DC4E8E0EFE0E7EEED0F
:100D70003A2000EDE5F220E4E0EDEDFBF500F1EFC7
:100D8000E8F1EEEA000000070001000200030001A4
:100D90000000006300010000001200010012003694
:100DA0000001000000160001000000010001000029
:100DB00000040001000000040001000000480001E0
:100DC0000000004800010000004800010000004849
:100DD00000010001000900010000000A00010001FB
:100DE0000032000A00000064000A000000FF000159
:100DF000000000FF00010000000A000100010032B5
:100E0000000A00010032000A000000FF000100009B
:100E100000FF0001000000080001000000010001C7
:100E2000000800320001000000020001000000FF85
:100E30000001000000050001001000E803010001AE
:100E40000003000100000001000100000016000185
:100E5000000000160001000000E70301000000E7A9
:100E60000301000100020001000100020001000076
:100E700000500001000000FF0001001400500001BC
:100E80000001000300010000000100010000001447
:100E90000001000100FF0001000100FF000100301F
:100EA0002E302E2E39392E3900CFF0EEF8E8E2EA56
:100EB000E020CFC8204D4355202000CFF0EEF8E8C9
:100EC000E2EAE020C1D1CF204D43552000CFF0EE23
:100ED000F8E8E2EAE020C1D1CF204453502000CF0F
:100EE000F0EEF8E8E2EAE020C1D1C720CFCBC8D1CC
:100EF00000C4EEEFEEEBED2E20EFE0F0E0ECE5F2DB
:100F0000F0FB00C2E8E420EFE0F0E0ECE5F2F0E016
:100F100000A90EBB0ECD0EDF0EF10E030FC5F1F2D0
:100F2000FC00CDE5F200220F1D0FF1F2E0EDE4E050
:100F3000F0F20048455800330F2A0F2ED1E1F0EEB1
:100F4000F120F1E2EEE5E3EE2E2020202020002E1D
:100F5000D1E1F0EEF120F3E4E0EBE5EDEDEEE3EED0
:100F60002E20002ED1E1F0EEF120F3E4E0EBE5EDF0
:100F7000EDEEE3EE2031002ED1E1F0EEF120F3E4CE
:100F8000E0EBE5EDEDEEE3EE2032002ED1E1F0EE08
:100F9000F120F3E4E0EBE5EDEDEEE3EE2033002E9F
:100FA000CFF3F1EA20F3E4E0EBE5EDEDEEE3EE2E36
:100FB0002020002ECFF3F1EA20F3E4E0EBE5EDEDA5
:100FC000EEE3EE203120002ECFF3F1EA20F3E4E04F
:100FD000EBE5EDEDEEE3EE203220002ECFF3F1EA6B
:100FE00020F3E4E0EBE5EDEDEEE3EE203320002E20
:100FF000CFF3F1EA20F3E4E0EBE5EDEDFBF52020A3
:101000002020002EC0CA20E0E2F2EEECE0F2E8F789
:10101000E5F1EAE8E920002EC0CA20F3F1EAEEF09B
:10102000E5EDEDFBE92020202020002EC0CA20E2C3
:10103000FBEAEBFEF7E5ED20202020202020002E0B
:10104000C0CA20EAEEEDF2F02EEFF0EEE2E5F0EAB3
:10105000E020002EC0CA20E8F1EFFBF2E0EDE8FF4F
:10106000202020202020002EC0CA20EFF3F1EA200B
:1010700020202020202020202020002EC2FBE7EE70
:10108000E220202020202020202020202020002EB0
:10109000C0CA20EDEEF0ECE0EBFCEDFBE9202020F7
:1010A0002020002EC0CA20E1E5E3EBFBE920202050
:1010B000202020202020002ECFF3F1EA20F3E4E0CE
:1010C000EBE5ED2E20CCC0CD2020002EC0CA20EEB6
:1010D000E4EDEEF1F2EEF0EEEDEDE8E92020002E89
:1010E000D1E1F0EEF120C0CA2020202020202020D5
:1010F0002020002ECFF3F1EA20C0CA20F1E2EEE971
:10110000202020202020002ECFF3F1EA20C0CA208A
:10111000F3E4E0EBE5EDEDFBE920002ECFF3F1EA9F
:1011200020CFD0C420202020202020202020002ECE
:10113000CFF3F1EA20EDE0EBE0E42E20E2EAEB2E43
:101140002020002ECFF3F1EA20EDE0EBE0E42E20AA
:10115000E2FBEAEB2E20002ECFF3F1EA20F3E4E0ED
:10116000EB2E20CCC0CD20312020002ECFF3F1EA91
:1011700020F3E4E0EB2E20CCC0CD20322020002E46
:10118000CFF3F1EA20F3E4E0EB2E20CCC0CD203306
:101190002020002ECFF3F1EA20F3E4E0EB2DFBF565
:1011A00020CCC0CD2020003B0F4F0F630F770F8B5B
:1011B0000F9F0FB30FC70FDB0FEF0F031017102B8D
:1011C000103F10531067107B108F10A310B710CB77
:1011D00010DF10F31007111B112F11431157116B62
:1011E000117F119311C2FBEFEEEBEDE8F2FC00E58D
:1011F0001120202020204572726F72202020202094
:101200002000CDE5E8F1EFF02EF7F22E20464C411C
:10121000534800CDE5E8F1EFF02EE7E0EF2E464C25
:1012200041534800CDE5E8F1EFF02EF7F22E2050C3
:101230004C49532000CDE5E8F1EFF02EE7E0EF2E2A
:10124000504C49532000CDE5E8F1EFF02EE7E0EFF8
:101250002E3252414D2000CDE5F220F1E8E3EDE0E1
:10126000EBE020CFD0CC2000C0CA2DD1EDE8E6E5E0
:10127000ED2EE7E0EFE0F1E000CFEEECE5F5E02069
:10128000E220EBE8EDE8E8202000CDE5E8F1EFF022
:101290002E445350203252414D2000CDE5E8F1EF6D
:1012A000F02EF7F22E203252414D2000D2EEEA20ED
:1012B000EFEEEAEEFF2020202020202000CDE8E7FE
:1012C000EAEEE520EDE0EFF02EE2FBF52E00C2FBAA
:1012D000F1EEEAEEE520EDE0EFF02EE2FBF500CDD9
:1012E000E5E8F1EFF02E20CCCA20D3CC202020005E
:1012F000C2D720F2F0E0EAF220E2EEF1F1F22E2085
:101300000002121312241235124612571268127973
:10131000128A129B12AC12BD12CE12DF12F012F121
:1013200011C0CA2DCDE5F220EEF2E2E5F2E0202078
:101330002000D3F1F2E0EDEEE2E8F2E520F7E0F193
:10134000FB2000CEF2EAE0E720F0E5E7E5F0E22E50
:10135000EBE8ED00D3E4E0EB2EEFEEF1F220EDE56B
:10136000E8F1EFF000D3E4E0EB2ECFD0C420EDE5C0
:10137000E8F1EFF02E00D3E4E0EB2ECFD0CC20ED5F
:10138000E5E8F1EFF02E0032134313F111F111549F
:101390001365137613F11120202000203120002046
:1013A000322000312032002033200031203300323F
:1013B000203300203F200097139B139F13A313A7F4
:1013C00013AB13AF13B313CDE5F220E1EBEEEAE07C
:1013D00020C1D1C720202000CDE5E8F1EFF02EE2BA
:1013E000E5F0F12EC1D1C72000CDE5E8F1EFF02EF8
:1013F000EFE5F0E5EAEB2E202000CDE5E8F1EFF097
:101400002EE7E0EF2E20C1D1C72000CDE5F220F17C
:10141000E8E3EDE0EBE020CFD0CC2000CDE8E7EA38
:10142000E8E920F3F02E20D0C720202000CDE5E809
:10143000F1EFF02EF3E42EC4D4C700CDE5E8F1EFD0
:10144000F02EF3E42EC2DBD500CDE5E8F1EFF02E6F
:10145000E2F5EEE42ECFD3D1CA00CDE5E8F1EFF00E
:101460002EE2F5EEE42ED1D2CECF00D3E4E0EB2E87
:10147000E1E5E720EEF2E22E00CDE5E8F1EFF02E17
:10148000F6E5EFFC2EC2DBD52000D3E4E0EB2EEE38
:10149000E1ED2EEFEEEC2E00CDE5E8F1EFF02EE7DA
:1014A000E0EF2E20C2DBD52000C4EBE8F22E20EFC7
:1014B000EEECE5F5E02000CDE5E8F1EFF02E20C4FC
:1014C000D4C7202000C713D813E913FA130B141C38
:1014D000142D143B1449145A146B1479148A14985B
:1014E00014A914B714C0CA2DCDE5F220EEF2E2E53E
:1014F000F2E000C0CA2DD1ED2EE7E0EFE0F1E020F0
:1015000000CDE5F220F1E8E3EDE0EBE020CCC0CD4A
:101510002000CFEEF0EEE320EFEE20EFEEECE5F56D
:10152000E52000C0E2F2EEEAEEEDF2F0EEEBFC2098
:1015300020202000CDE5F220E1EBEEEAE020C1D151
:10154000CA20202000CDE5E8F1EFF02EE2E5F0F131
:101550002EC1D1CA2000CDE5F220CAD720202020FC
:1015600020202020202000CFF0E5E22EE4EB2DF11A
:10157000F2E82EEAEEEC2E00CDE5E8F1EFF02EE7F2
:10158000E0EF2E20C1D1CA2000CDE5E8F1EFF02E2A
:10159000E2FBEAEB2ECAD1CA2000CDE5E8F1EFF07C
:1015A0002EE2EAEB2E20CAD1CA2000CDE5E8F1EF09
:1015B000F02EEAEEEDF2F02ECAD1CA00CFF0E5E44B
:1015C000F3EFF02EEDE5F220CAD7312000CFF0E89E
:1015D000E5EC20E1EBEEEA2E20CAEEEC2E0034150D
:1015E000451556156715F111F111F111F111781525
:1015F00089159A15AB15BC15F111F111CD15D1ED69
:10160000E8E62E20F3F0EEE2EDFF20CFD0CC00CDC7
:10161000E5F220E1EBEEEAE020C1D1CA2020200073
:10162000CDE5E8F1EFF02EE2E5F0F12EC1D1CA20D0
:1016300000CDE5E8F1EFF02EF7F22EEAEEECE0ED6A
:10164000E400CDE5E8F1EFF02EE2FBEAEB2ED2E587
:10165000F1F200CDE5E8F1EFF02EE2EAEB2E20D238
:10166000E5F1F200CDE5E8F1EFF02EE2F5EEE42E43
:10167000CAD1CA20000F162016F111F111F111F193
:1016800011F111F1113116421653166416F111F1D0
:1016900011F111F111C3F0313A00C3F0323A00C335
:1016A000F0F3EFEFE0203100C3F0F3EFEFE0203292
:1016B000009F1601A81602E2FBEAEB00EEF8E8E153
:1016C00000D0C700CAD73100CAD73200CAD733000A
:1016D000CAD73400CAEEEC3100CAEEEC3200CAEED2
:1016E000EC3300CAEEEC3400CAEEEC3500CAEEEC86
:1016F0003600CAEEEC3700CAEEEC3800CAEEEC3920
:1017000000CAEC313000CAEC313100CAEC31320091
:10171000CAEC313300CAEC313400CAEC313500CAAE
:10172000EC313600CAEC313700CAEC313800CAEC73
:10173000313900CAEC323000CAEC323100CAEC3226
:101740003200CAEC323300CAEC323400CAEC323513
:1017500000CAEC323600CAEC323700CAEC3238002C
:10176000CAEC323900CAEC333000CAEC333100CA5B
:10177000EC333200BC16FFB71600C11601C41601C7
:10178000C81602CC1603D01604D41603D91604DEEC
:101790001605E31606E81607ED1608F21609F71601
:1017A0000AFC160B01170C06170D0B170E10170F5E
:1017B0001517101A17111F17122417132917142E93
:1017C00017153317163817173D17184217194717EB
:1017D0001A4C171B51171C56171D5B171E60171F3D
:1017E0006517206A17216F1722D2E5F1F220310028
:1017F000D2E5F1F2203200E917F017CD2EF7F22EE4
:10180000464C41534800CD2EE7EF2E464C415348FD
:1018100000CD2EF7F22E504C49532000CD2EE7EF8D
:101820002E504C49532000CD2EE7EF2E3252414D21
:101830002000CD2EF7F22E3252414D2000CD2EF059
:10184000E0E12E4453502000C2EEF1F22EF02E447F
:10185000535000CDE8E7EA2E2055E2FBF500C2FB2D
:10186000F12E2055E2FBF52000CD2EF1E22E20F1E5
:1018700020D3CC00CD2E20F7E0F1EEE2202000CDE9
:10188000E5F220E1EB2EC1D1C700CD2EE2E5F0F16B
:101890002EC1D1C700CD2EEFE5F02E20C1D1C7005B
:1018A000CDE5F220F12E20CCC0CD00CFE5F0E5E76C
:1018B000E0EFF3F1EA00C8E7EC2EF0E5E6E8ECE053
:1018C00000CEF82EE7E0EFE8F1E82000CEF82EEAAF
:1018D000EEEDF2F02E2000D1EDE8E62EF32ECFD083
:1018E000CC00CDE5F220F12E20CFD0CC00CDE5F21A
:1018F00020F12ECFD3D1CA00EDE5F220F12ED1D2C6
:10190000CECF00C2FBEAEBFEF7E5EDE8E5005F00B5
:10191000D1E2FFE7FC20F120CFCA002E00303030AA
:101920003000CF76D776DB76DC76D776EF7601009F
:10193000B1100A00CF0EE90E180F3E0F840FCF0F23
:101940002010371049105B101100A6110C00C410B4
:10195000F5103B1175118E11A611A611C410F510CA
:101960003B1175118E113500531D0900631976194D
:10197000A219161A361A861BAB1CD31C411D000176
:10198000016D282E28012E28012E28012E28012E37
:1019900028012E28012E280A332801332801332854
:1019A0000133280133280133280B38280138280156
:1019B00038280138280138280B3D280141280145E5
:1019C00028024928014D28014D28014D28014D28A4
:1019D000014D28014D28014D28014D28855228012F
:1019E0006A280F5828016A280F5E28016A280F64A8
:1019F00028016A28FB00000100AC2B07005E2B6960
:101A00002B762B812B8C2B972BA22B0000110045C2
:101A10002C0600BA2BC52BD42BF92B1A2C3B2C00EF
:101A2000002100BD2C0500532C5E2C6D2C7C2C9DC0
:101A30002C0000000A2F0900592EAA2DBA2DCA2DFC
:101A4000E02DFC2D182E342E3F2E003500742F096A
:101A500000182F232F2E2F392F442F4F2F5F2F7435
:101A60002F6A2F007701DC35D43504CC3502C4351C
:101A700001BC3539D83504D03502C83501C0351917
:101A8000D63504CE3502C63501BE3509DA3504D265
:101A90003502CA3501C235FB0000AC371700653787
:101AA000653767376537673767376737673765374C
:101AB00067376737A63767376537653767376737FB
:101AC0006737653765376737673767370701174FF8
:101AD0007B4E01864E01904E01904E019A4E01A41C
:101AE0004E01A44E04B44E01BE4E01BE4E06CE4E73
:101AF00001CE4E01D84E01E04E01EE4E01F84E05EA
:101B0000004F16084F7D104FFB002301015E7156F8
:101B10000D2A5501FD51012F52019A52010D530119
:101B2000E85301015401D05401E0540121550A3E0B
:101B30005501E355017456083355085B55FB010107
:101B4000025E1553012853022B53012F53013253C8
:101B5000013A5301635301A85301CB530236530199
:101B60003A5301635301A85301CB5306DF5301E3FA
:101B700053FB0101025E0954011C54051F54014826
:101B800054018F5401B354031F54014854018F541E
:101B900001B35406C75401CB54FB0200025E160089
:101BA000465549554955495549554C554C554C553F
:101BB0004C55505550555355535553555355025E3A
:101BC0004955495550555755495549550000AD5847
:101BD0000D00C657D657E657F6570A581E583258C2
:101BE000425852586258755888589B580000CF5C2C
:101BF0001700385B485B585B685B785B885B985B79
:101C0000A85BB85BC85BDB5BF05B065C125C255CC9
:101C1000385C4B5C5E5C715C845C975CAA5CBD5C10
:101C200007002061100034609160CF604E60206139
:101C3000206134609160CF604E6020612061E2607D
:101C4000E760EC601B610100D1620C00C861C861F3
:101C5000D061EC61EC61D162D162C861C861D061D0
:101C6000EC61EC61010065721700B566A267D76789
:101C7000EE6735688E68C268BE6CC06DDE694A6BFF
:101C80008E68C268BE6CC06DDE696572696E876EF3
:101C9000F36EAD6F977100720000D9690D002B696A
:101CA0003B6943694B695B696B697B698B699B69BC
:101CB000AB69B369BB69C3690000466B17002B6A47
:101CC0003B6A4B6A536A636A6B6A736A7B6A836AAC
:101CD000936A9B6AAB6AAB6AC86AD86AE86AF06AB8
:101CE000F86A006B106B206B286B306B30E042E0C1
:101CF00007C050E0F801E40FF51F5081350F439500
:101D00004217B8F3032F0895E4E8F6E0208120613C
:101D100020830093070701E0009308071093090749
:101D200025E005E017E0E2DF10E00093EB041093FC
:101D3000EC040091EB0400930A0706E00E944027A0
:101D400008959A938A93812FE4E8F6E01081106158
:101D500010830093070780930807282F2C5F05E066
:101D600017E0C4DF10E00093EB041093EC04009143
:101D7000EB0490E0FC01EB5FF84F04838B5F082FCE
:101D80000E9440278991999108950E949A766090C7
:101D90008906EEE2F0E0FBBFF9E10C94547677247B
:101DA000E5E8FDE0059114916016710640F0E7E862
:101DB000FDE00591149177240615170538F4E7E83E
:101DC000FDE0059103950093CD04CBC16092CD0455
:101DD000C8C163947724EBE8FDE005911491601687
:101DE000710640F0EDE8FDE00591149177240615A9
:101DF000170520F40FE300937B03B3C1062D005DAC
:101E000000937B030091AA0C061589F06092AA0C3E
:101E10000E9430410E9468380E94F73B01E00E9416
:101E2000C83C0E94473F0E94C4400E94304199C173
:101E30007724E1E9FDE0059114916016710640F008
:101E4000E3E9FDE00591149177240615170538F4B0
:101E50000FE3009386030FE30093870382C14AE0F8
:101E6000062D0E94AF75005D009386034AE0062DA3
:101E70000E94AF75405D4093870373C10091A90C28
:101E8000013039F4E7E9FDE08591E9E9FDE0A5914C
:101E900002C080E0A6E3681610F0A61538F40FE340
:101EA00000938F030FE3009390030EC04AE0062DCA
:101EB0000E94AF75005D00938F034AE0062D0E94DB
:101EC000AF75405D409390030091AA0C0330D9F4A4
:101ED00060908A06681610F0A61538F40FE3009398
:101EE00097030FE3009398033CC14AE0062D0E943C
:101EF000AF75005D009397034AE0062D0E94AF7511
:101F0000405D409398032DC180E0A8E4442421C0A3
:101F10004AE0062D0E94AF75005D242D30E0220FAF
:101F2000331FF901E952FC4F20813181F90100830F
:101F30004AE0062D0E94AF75405D042D10E0000FB1
:101F4000111FF801E952FC4F00811181F801418312
:101F5000439404E0401610F55524F201EB57F94F75
:101F60006480681610F0A61598F62FE3042D10E093
:101F7000000F111FF801E952FC4F00811181F80197
:101F800020832FE3042D10E0000F111FF801E95208
:101F9000FC4F00811181F8012183DACFE2C0772460
:101FA000E3EAFDE0059114916016710640F0E5EA60
:101FB000FDE00591149177240615170538F40FE319
:101FC0000093DF030FE30093E0030EC04AE0062D09
:101FD0000E94AF75005D0093DF034AE0062D0E946A
:101FE000AF75405D4093E0030091AA0C033039F5D2
:101FF00060908A067724E3EAFDE00591149160166B
:10200000710640F0E5EAFDE005911491772406158C
:10201000170538F40FE30093E5030FE30093E6039D
:10202000A0C04AE0062D0E94AF75005D0093E50355
:102030004AE0062D0E94AF75405D4093E60391C0D3
:102040007724E9EAFDE0059114916016710640F0ED
:10205000EBEAFDE00591149177240615170520F4AD
:1020600002E00093EF037DC06092EF037AC0E1EBE2
:10207000FDE00591149177240615170538F4E1EB7E
:10208000FDE0059103950093F1036BC06092F103AD
:1020900068C0E7EBFDE0059114917724061517055C
:1020A00038F4E7EBFDE0059103950093F20359C086
:1020B0006092F20356C07724E3EDFDE005911491A0
:1020C0006016710640F0E5EDFDE00591149177246E
:1020D0000615170520F400E00093120B3FC0609234
:1020E000120B0091D70B002321F40091D70B08307D
:1020F000A8F500918A0610E020E0322F212F102F42
:1021000000E040918B0650E060E070E0040F151F86
:10211000261F371F322F212F102F00E040918C06F1
:1021200050E060E070E0040F151F261F371F322FAC
:10213000212F102F00E040918D0650E060E070E00C
:10214000040F151F261F371F48EE53E060E070E0B4
:102150000E9429760093130B1093140B01E0009357
:10216000B20201E00093EB0A01E00093E90AE8E023
:102170000C94A4760E949E76802F082FE8E4F0E06D
:10218000FBBFF9E10C945476813119F4A3EFB3E06D
:1021900002C0ACE3B4E00091890610E0E9EDFDE097
:1021A000259134910217130750F0EBEDFDE02591D6
:1021B00034910091890610E02017310730F40FE3C5
:1021C0000C930FE3FD010183C1C0009189064AE031
:1021D0000E94AF75005D0C93009189064AE00E9451
:1021E000AF75405DFD014183B1C0823119F4A9EFA3
:1021F000B3E002C0A2E4B4E00091890610E0EFED84
:10220000FDE0259134910217130750F0E1EEFDE057
:10221000259134910091890610E02017310748F488
:102220000FE30C930FE3FD0101830FE3FD01028334
:102230008DC0009189060A3058F400918906005D2E
:102240000C9300E3FD01018300E2FD0102837EC0E7
:10225000009189064AE00E94AF75005D0C930091E1
:1022600089064AE00E94AF75405DFD01418300E3AD
:10227000FD0102836BC0833119F4A6E9BBE002C003
:10228000A6EBBBE000E00BC010E0F801EB57F94F04
:10229000248110E0FD01E00FF11F208303951091D0
:1022A0008806011708F510E0F801EB57F94F248173
:1022B00030E0E5EEFDE0459154912417350768F0D4
:1022C000E7EEFDE04591549110E0F801EB57F94F2E
:1022D000248130E042175307B8F62FEF10E0FD01DC
:1022E000E00FF11F2083DACF31C0843119F4A4E26A
:1022F000B4E002C0ADE6B4E000E00BC010E0F801CD
:10230000EB57F94F248110E0FD01E00FF11F20830E
:10231000039510918806011788F318C0853119F4C8
:10232000A8E2B4E002C0A1E7B4E000E00BC010E016
:10233000F801EB57F94F248110E0FD01E00FF11F88
:102340002083039510918806011788F301E000931C
:10235000EB0A01E00093E90AE4E00C94A87601524C
:1023600061F00A9561F10A9509F46BC00A9509F4C8
:10237000AAC00A9509F4B9C0C9C0E9EFFDE02591EA
:1023800034910091890610E02017310738F40FE3EB
:10239000009375040FE300937604B8C0009189069A
:1023A0004AE00E94AF75005D0093750400918906B4
:1023B0004AE00E94AF75405D40937604A7C000914B
:1023C000890610E0EDEFFDE0259134910217130727
:1023D00050F0EFEFFDE0259134910091890610E077
:1023E0002017310750F40FE300937B040FE30093B1
:1023F0007C040FE300937D0489C0009189060A30B4
:1024000060F400918906005D00937B0400E3009373
:102410007C0400E200937D0479C0009189064AE0C3
:102420000E94AF75005D00937B04009189064AE02D
:102430000E94AF75405D40937C0400E300937D04EF
:1024400065C00091890610E0E3E0FEE0259134913B
:102450000217130750F0E5E0FEE02591349100915A
:10246000890610E02017310750F40FE3009382042F
:102470000FE3009383040FE30093840447C00091AB
:1024800089060A3060F400918906005D0093820499
:1024900000E30093830400E20093840437C00091BA
:1024A00089064AE00E94AF75005D009382040091A6
:1024B00089064AE00E94AF75405D4093830400E3C3
:1024C0000093840423C000E00BC010E0F801EB5738
:1024D000F94F248110E0F801E356FB4F2083039568
:1024E00010918806011788F311C000E00BC010E0BE
:1024F000F801EB57F94F248110E0F801EF55FB4F3D
:102500002083039510918806011788F301E000935A
:10251000EB0A01E00093E90A089540E020C050E092
:1025200003E010E00E94CD75F801EB57F94F2581CB
:10253000042F10E0000F111FF801E259FC4F218316
:1025400050E003E010E00E94CD75F801EB57F94F21
:10255000068150E0FA01E958FC4F0083439544306E
:10256000E0F550E003E010E00E94CD75F801EB5774
:10257000F94F0481063050F02EE4042F10E0000FD4
:10258000111FF801E259FC4F208311C050E003E015
:1025900010E00E94CD75F801EB57F94F2481042F0C
:1025A00010E0000F111FF801E259FC4F208350E0AA
:1025B00003E010E00E94CD75F801EB57F94F05815B
:1025C0000C3008F4ACCF2EE4042F10E0000F111FE4
:1025D000F801E259FC4F2183B3CF01E00093EB0AED
:1025E000089500E00BC010E0F801EB57F94F24818B
:1025F00010E0F801E850F54F20830395043198F37B
:102600000091040B002321F40091050B002321F01D
:1026100001E00093AF0C03C000E00093AF0C009109
:10262000060B002321F40091070B002321F001E0A9
:102630000093B00C03C000E00093B00C0091F80AC6
:10264000002321F40091F90A002321F001E0009316
:10265000B10C03C000E00093B10C0091FA0A002312
:1026600021F40091FB0A002321F001E00093B20C59
:1026700003C000E00093B20C1091FC0A183010F473
:10268000012F01C007E00093F0030091FC0A002332
:1026900021F40091FD0A002321F001E00093B30C26
:1026A00003C000E00093B30C0091FE0A002321F464
:1026B0000091FF0A002321F001E00093B40C03C055
:1026C00000E00093B40C0091000B002321F4009172
:1026D000010B002321F001E00093B50C03C000E0E2
:1026E0000093B50C0091020B002321F40091030B21
:1026F000002321F001E00093B60C03C000E000933A
:10270000B60C0091080B002321F40091090B002363
:1027100021F001E00093B70C03C000E00093B70C78
:1027200000910A0B002321F400910B0B002321F0F0
:1027300001E00093B80C03C000E00093B80C01E086
:102740000093EB0A0895392F682F009189060F70C6
:10275000005D0093C7020091890602950F70005D2D
:102760000093C60200918A060F70005D0093C402B8
:1027700000918A0602950F70005D0093C3020091DC
:102780008B060F70005D0093C10200918B060295CD
:102790000F70005D0093C00200918C060F70005D09
:1027A0000093CA0200918C0602950F70005D0093A1
:1027B000C90200918D060F70005D0093CD0200915B
:1027C0008D0602950F70005D0093CC0200918E067D
:1027D0000F70005D0093D00200918E0602950F707D
:1027E000005D0093CF0200E004C010E01093A70248
:1027F0000395083068F510E0F801E054FD4F1081B2
:1028000010531A3068F010E0F801E054FD4F1081C9
:102810001E3231F01091A60213951093A60203C048
:1028200010E01093A60210E0F801E753FD4F10816D
:1028300010531A30D0F210E0F801E753FD4F108129
:102840001A3399F21091A70213951093A702D0CFD3
:102850008091C70290E04091C60250E00AE010E08B
:102860000E94CD75800F911F80519240843600E008
:1028700090072CF00091A60203950093A602809188
:10288000C40290E04091C30250E00AE010E00E94D0
:10289000CD75800F911F805192408D3090402CF06B
:1028A0000091A60203950093A6028091C10290E0D8
:1028B0004091C00250E00AE010E00E94CD75800F08
:1028C000911F80519240803290402CF00091A602DE
:1028D00003950093A6028091CA0290E04091C9023C
:1028E00050E00AE010E00E94CD75800F911F8051EA
:1028F0009240893190402CF00091A70203950093FB
:10290000A7028091CD0290E04091CC0250E00AE015
:1029100010E00E94CD75800F911F805192408D3341
:1029200000E090072CF00091A70203950093A70206
:102930008091D00290E04091CF0250E00AE010E098
:102940000E94CD75800F911F805192408D3300E021
:1029500090072CF00091A70203950093A702009125
:10296000A602002301F100E30093C70200E30093F5
:10297000C60200E30093C40200E30093C30200E335
:102980000093C10200E30093C00200E00093A6029E
:1029900000E00330B8F420E010E0F801E056FD4F0D
:1029A00020830395F6CF00E00BC010E0F801EB5751
:1029B000F94F248110E0F801E056FD4F2083039584
:1029C000033098F30091A702002301F100E3009384
:1029D000CA0200E30093C90200E30093CD0200E3C2
:1029E0000093CC0200E30093D00200E30093CF02F7
:1029F00000E00093A70200E00330B8F420E010E00C
:102A0000F801E056FD4F23830395F6CF00E00BC09D
:102A100010E0F801EB57F94F278110E0F801E0567C
:102A2000FD4F23830395033098F301E00093EB0AF5
:102A300001E00093B202862F932F08950E949D76A5
:102A4000D801822F942F452E3A95082F07C020E2F7
:102A500010E0FD01E00FF11F208303950830B8F36B
:102A600000E8401658F00FEF402643942DE2082F5F
:102A700010E0FD01E00FF11F20838395042D10E08D
:102A8000432F0E94D775402E03E64016C8F44AE053
:102A9000042D0E94AF75005D282F30E0FD01E20F8C
:102AA000F31F008383954AE0042D0E94AF75405DBB
:102AB000082F10E0FD01E00FF11F4083839510C047
:102AC0002FE3082F10E0FD01E00FF11F2083839515
:102AD0002FE3082F10E0FD01E00FF11F2083839505
:102AE000915019F09A9539F012C003EE90E0A80FBA
:102AF000B91F0C930CC004EE90E0FD01E80FF91F24
:102B0000008301EC90E0A80FB91FFD010183E5E00F
:102B10000C94A7760E949C76D801822F932F2A01CD
:102B2000082F07C020E210E0FD01E00FF11F208315
:102B300003950830B8F36415750508F46BC008EE0A
:102B4000401603E0500618F148EE53E082010E945F
:102B5000DA75202F082F10E0FD01E00FF11F208310
:102B6000082F10E0FD01E00FF11F408150E008EE5A
:102B700013E00E94CD75401A510A082F802F8395CB
:102B800010E0FD01E00FF11F0081005D008304E60D
:102B9000401600E0500618F144E650E082010E9421
:102BA000DA75202F082F10E0FD01E00FF11F2083C0
:102BB000082F10E0FD01E00FF11F408150E004E616
:102BC00010E00E94CD75401A510A082F802F83957E
:102BD00010E0FD01E00FF11F0081005D00834AE07D
:102BE00050E082010E94DA75005D282F30E0FD017F
:102BF000E20FF31F008383954AE050E082010E94B8
:102C0000DA75405D082F10E0FD01E00FF11F4083F1
:102C1000839510C02FE3082F10E0FD01E00FF11F96
:102C2000208383952FE3082F10E0FD01E00FF11FB3
:102C300020838395915039F09A9591F09A95B1F04F
:102C40009A95D1F034C00CEE90E0FD01E80FF91F29
:102C50000083839500EC90E0A80FB91F0C9327C068
:102C600005E290E0A80FB91F0C9321C003EE90E09D
:102C7000A80FB91F0C931BC000E290E0FD01E80F04
:102C8000F91F0083839501EF90E0FD01E80FF91F24
:102C90000083839505EE90E0FD01E80FF91F0083A6
:102CA00083950AEE90E0A80FB91F0C938395E6E098
:102CB0000C94A676432F42954F704A3018F0495C29
:102CC000542F02C0405D542F452F622F70E0F80151
:102CD000E60FF71F40833F70432F4A3018F0495CDE
:102CE000342F02C0405D342F432F30E0020F131FFA
:102CF000F801418308950E949C7680918906A091F5
:102D00008A0600E010E000933E0C10933F0C082F61
:102D10000D59073C20F40A2F065A053B50F00FE3EB
:102D20000093370C0FE30093380C00E00093390C4C
:102D300084C04424242D422E4394082F0A2B00786B
:102D4000002311F00DE201C00BE230E0F901E95C73
:102D5000F34F008388231AF400E0081B802FAA2376
:102D60001AF400E00A1BA02F082F0A2B002331F4CD
:102D700000E30093370C00E00093380C8A305CF0DD
:102D80004AE0082F0E94BD75005D5524F201E95C00
:102D9000F34F008343944AE0082F0E94BD75405DC5
:102DA0005524F201E95CF34F408343940EE255242D
:102DB000F201E95CF34F008343944AE00A2F0E943A
:102DC000BD75005D5524F201E95CF34F0083439427
:102DD00002EC5524F201E95CF34F0083439400E0D8
:102DE0005524F201E95CF34F00834394482F542F9C
:102DF000550F550B0AE010E00E94CD75C8010A2F4F
:102E0000102F110F110B4AE050E00E94F275800F55
:102E1000911F80933E0C90933F0C0091370C0D3224
:102E200061F400E010E020913E0C30913F0C021B59
:102E3000130B00933E0C10933F0CA1E0B6C02DE2A3
:102E40004A2F50E009E010E00E94CD75E7E3FCE076
:102E5000E00FF11F032F10E0E00FF11F20839923F3
:102E60002AF40FEF1FEF802791270196843600E0A8
:102E70009007D4F144E650E08C010E94F275202FB7
:102E80004A2F50E009E010E00E94CD75E7E3FCE036
:102E9000E00FF11F5524E40DF51D20834A2F50E06B
:102EA00009E010E00E94CD75E7E3FCE0E00FF11FC0
:102EB0005524E40DF51D408150E004E610E00E9429
:102EC000CD75801B910B4A2F50E009E010E00E9465
:102ED000CD75E7E3FCE0E00FF11F5524E40DF51D8F
:102EE0000081005D008343948A3000E09007B4F0D5
:102EF0004AE050E08C010E94F275202F205D4A2F9D
:102F000050E009E010E00E94CD75E7E3FCE0E00F3F
:102F1000F11F5524E40DF51D208343944AE050E051
:102F20008C010E94F275242F205D4A2F50E009E0A9
:102F300010E00E94CD75E7E3FCE0E00FF11F55249F
:102F4000E40DF51D208343942CEE4A2F50E009E058
:102F500010E00E94CD75E7E3FCE0E00FF11F55247F
:102F6000E40DF51D2083439420EC4A2F50E009E046
:102F700010E00E94CD75E7E3FCE0E00FF11F55245F
:102F8000E40DF51D2083439420E04A2F50E009E032
:102F900010E00E94CD75E7E3FCE0E00FF11F55243F
:102FA000E40DF51D20834394A395A33008F07AC067
:102FB0000A2F10E0000F111FF801EB57F94F948111
:102FC00080E00A2F10E0000F111FF801EB57F94FB6
:102FD000058110E0800F911F20E030E04A2F50E083
:102FE00009E010E00E94CD75F801E95CF34F2783FA
:102FF00030878C0109511C4F0F3C27E0120710F15C
:103000002FE34A2F50E009E010E00E94CD75F8014F
:10301000E95CF34F20832FE34A2F50E009E010E0F2
:103020000E94CD75F801E95CF34F218320E04A2F1F
:1030300050E009E010E00E94CD75F801E95CF34F23
:103040002283B2CF082F092BB9F420E34A2F50E096
:1030500009E010E00E94CD75F801E95CF34F208390
:1030600020E04A2F50E009E010E00E94CD75F80101
:10307000E95CF34F218398CF44244A2F50E009E0C4
:1030800010E00E94CD75F801E95CF34F87839087CB
:10309000342D432E4394813000E090070CF4CFCEC2
:1030A0002BE2CECEE6E00C94A6760091890610E0E5
:1030B000E7E8FEE0259134910217130740F0E9E8B4
:1030C000FEE02591349110E02017310720F4E9E863
:1030D000FEE0059103950093360C08959A938A9328
:1030E00000918906002309F0DDC050918A0641E075
:1030F00032E022E006EF12E0A1DC30918A0623E004
:103100000BED12E0D7DD30918B0625E00BED12E0E0
:10311000D1DD30918C0620E000918D0610E0200F6B
:10312000311F2093F60A3093F70A67EE73E040915F
:10313000F60A5091F70A31E023E00FEF12E0EADCE3
:1031400000918F064AE00E94AF7500931F034091E3
:103150008E0650E00AE010E00E94CD7520911F031A
:1031600030E0020F131F0093F40A1093F50A8091C8
:10317000F40A9091F50A0096883E03E0900720F447
:1031800000911F030A3080F000E010E00093F40A81
:103190001093F50A0FE300931C030FE300931D0344
:1031A0000FE300931F0315C000918E064AE00E94B2
:1031B000AF75005D00931C0300918E064AE00E94EB
:1031C000AF75405D40931D0300911F03005D0093A8
:1031D0001F035091900642E031E023E00CE213E03F
:1031E0002DDC0091AA0C033041F45091910642E08D
:1031F00031E023E005E313E021DC0091120B043001
:1032000051F400916E03043030F400E00093920614
:1032100000E0009393065091920642E031E023E0F3
:103220000EE313E00BDC0091AA0C033041F4509143
:10323000930642E031E023E007E413E0FFDB509126
:10324000940642E031E023E003E213E0F7DB63E6BB
:1032500070E04091950650E032E024E008E013E091
:1032600059DC3091950623E004EE12E023DD509105
:10327000960640E00091970610E0400F511F68E667
:1032800071E033E023E001E113E044DC3091960685
:1032900023E00DEE12E00EDD3091970625E00DEEF5
:1032A00012E008DD01E00093B30201E00093EB0AB5
:1032B0008991999108959A938A93E6E6F0E0FBBF8D
:1032C000F9E10C945476EDE1FEE025913491009102
:1032D000890610E02017310720F402E00093A504CE
:1032E000E2C3009189060093A504DDC3009189061D
:1032F00010E0E1E2FEE0259134910217130750F04F
:10330000E3E2FEE0259134910091890610E0201758
:10331000310738F40FE30093A6040FE30093A704EA
:10332000C2C3009189064AE00E94AF75005D009318
:10333000A604009189064AE00E94AF75405D409363
:10334000A704B1C3E7E1FEE025913491009189061D
:1033500010E02017310750F4E7E1FEE005910395F6
:103360000093D60B0FEF0093D70B9DC300918906F6
:103370000093D60B0091D60B1091D70B011709F4CF
:1033800092C30091D60B0093D70B0E9468380E941D
:10339000F73B01E00E94C83C0E94473F0E94C440A6
:1033A0000E9430410091B5020A3021F00091B5022F
:1033B000003181F40091D80B0A950093550C0091CF
:1033C000550C1091540C011780F50091550C009389
:1033D000540C69C30091B502073021F00091B50289
:1033E0000D3081F40091180B0A950093550C009153
:1033F000550C1091540C0117C0F40091550C00931A
:10340000540C51C30091B502063179F40091420B7E
:1034100003500093550C0091550C1091540C01175A
:1034200020F40091550C0093540C3DC30091890683
:103430004AE00E94AF75405D4093AE04009189065A
:103440004AE00E94AF7500938906009189064AE020
:103450000E94AF75405D4093AD04009189064AE03B
:103460000E94AF75005D0093AC041DC30091A90CD0
:10347000023081F480918906E5E3FEE00591149124
:1034800090E00817190710F480E301C0805D809375
:10349000B0040FC30091D60B043041F5809189062A
:1034A00090E0EDE8FEE0059114918017910740F05F
:1034B000EFE8FEE00591149190E00817190738F441
:1034C0000FE30093C6040FE30093C704ECC24AE085
:1034D000082F0E94AF75005D0093C6044AE0082FD4
:1034E0000E94AF75405D4093C704DDC2809189069C
:1034F00090E0E3E6FEE0059114918017910740F01B
:10350000E5E6FEE00591149190E00817190720F414
:10351000E5E6FEE0859183958093010C80918A0613
:1035200090E0E9E6FEE0059114918017910740F0E4
:10353000EBE6FEE00591149190E00817190720F4DE
:10354000EBE6FEE0859183958093020C80918B06DB
:1035500090E0EFE6FEE0059114918017910740F0AE
:10356000E1E7FEE00591149190E00817190750F487
:103570000FE30093030C0FE30093040C0FE300939D
:10358000050C1AC04AE0082F0E94AF75405D4093B9
:10359000050C4AE0082F0E94AF75802F4AE0082FE3
:1035A0000E94AF75405D4093040C4AE0082F0E94D2
:1035B000AF75005D0093030C80918C064AE0082FE4
:1035C0000E94AF75405D40930F0C4AE0082F0E94A7
:1035D000AF75802F4AE0082F0E94AF75405D409381
:1035E0000E0C4AE0082F0E94AF75005D00930D0C91
:1035F00080918D0690E0EBE7FEE005911491801735
:10360000910740F0EDE7FEE00591149190E0081776
:10361000190738F40FE30093170C0FE30093180C0D
:103620000EC04AE0082F0E94AF75005D0093170C92
:103630004AE0082F0E94AF75405D4093180C8091BE
:103640008E0690E0E1E8FEE0059114918017910765
:1036500040F0E3E8FEE00591149190E008171907A7
:1036600020F4E3E8FEE0859183958093210C80911E
:103670008F0690E0E3E9FEE0059114918017910731
:1036800040F0E5E9FEE00591149190E00817190774
:1036900050F40FE30093220C0FE30093230C0FE38D
:1036A0000093230C0BC0E5E9FEE065917491482F6F
:1036B00050E034E020E002E21CE02CDA8091900639
:1036C00090E0E9E9FEE0059114918017910740F040
:1036D000EBE9FEE00591149190E00817190750F40A
:1036E0000FE300932C0C0FE300932D0C0FE30093DA
:1036F0002E0CD9C1EBE9FEE065917491482F50E0A2
:1037000034E020E00CE21CE005DACDC130918906FE
:1037100020E000918A0610E0200F311F2093ED0475
:103720003093EE0400E0009389060091ED041091BF
:10373000EE04E9E3FEE0259134910217130720F42B
:1037400001E0009389060EC0EBE3FEE005911491C1
:103750002091ED043091EE040217130718F401E0F4
:1037600000938906009189060023F9F00FE3009386
:10377000B6040FE30093B7040FE30093B80400E22C
:103780000093B9040AEE0093BA0403EC0093BB045F
:1037900006EF0093BC040FE30093D2020FE3009303
:1037A000D3020FE30093D402D2C00091ED04109134
:1037B000EE04043620E0120730F54AE050E00091B4
:1037C000ED041091EE040E94DA75005D0093B604DA
:1037D0004AE050E00091ED041091EE040E94DA7589
:1037E000405D4093B70400E20093B8040AEE0093F2
:1037F000B90403EC0093BA0406EF0093BB0400E2A3
:103800000093BC0498C00091ED041091EE04083EB2
:1038100023E01207D0F544E650E00091ED0410914A
:10382000EE040E94DA75005D0093B60444E650E0B1
:103830000091ED041091EE040E94DA754093ED04BE
:103840005093EE044AE050E00091ED041091EE0434
:103850000E94DA75005D0093B7044AE050E00091E1
:10386000ED041091EE040E94DA75405D4093B804B7
:1038700000E20093B9040AEE0093BA0403EC00934B
:10388000BB0406EF0093BC0456C00091ED041091F8
:10389000EE04003127E2120708F04DC048EE53E075
:1038A0000091ED041091EE040E94DA75005D009322
:1038B000B60448EE53E00091ED041091EE040E942E
:1038C000DA754093ED045093EE0444E650E0009125
:1038D000ED041091EE040E94DA75005D0093B704C8
:1038E00044E650E00091ED041091EE040E94DA7578
:1038F0004093ED045093EE044AE050E00091ED0453
:103900001091EE040E94DA75005D0093B8044AE05D
:1039100050E00091ED041091EE040E94DA75405DD4
:103920004093B9040AEE0093BA0403EC0093BB047D
:1039300006EF0093BC040091B6040093D2020091FC
:10394000B7040093D3020091B8040093D40201E0BD
:103950000093B202A8C00091890610E0EFE3FEE0F8
:10396000259134910217130750F0E1E4FEE0259110
:1039700034910091890610E02017310738F40FE3E5
:103980000093BE040FE30093D90209C00091890699
:10399000005D0093BE040091BE040093D90201E0D3
:1039A0000093B20280C0EDE4FEE0259134910091D5
:1039B000890610E02017310738F40FE30093C004A4
:1039C0000FE30093C10410C0009189064AE00E94F1
:1039D000AF75005D0093C004009189064AE00E9423
:1039E000AF75405D4093C104E3E5FEE0259134915D
:1039F00000918A0610E02017310738F40FE3009396
:103A00002C040FE300932D0413C000918A064AE0B2
:103A10000E94AF75005D00932C0400918A062091EE
:103A20002C0420531AE0219F0019005D00932D04FF
:103A30000091AA0C0330B9F5EDE4FEE02591349134
:103A400000918B0610E02017310738F40FE3009344
:103A500032040FE30093330426C000918B064AE042
:103A60000E94AF75005D0093320400918B06209197
:103A7000320420531AE0219F0019005D00933304A3
:103A800012C0E7E4FEE0259134910091890610E030
:103A90002017310720F402E00093CC0404C0009109
:103AA00089060093CC0401E00093EB0A01E0009347
:103AB000E90A89919991089540E001E00093EB0AA9
:103AC00001E00093E90A0FE010E0209187062295BB
:103AD0002F7030E0021B130B20918A0C30E0F901AB
:103AE000E757F34F228130E00217130709F441E052
:103AF000009187060F700130D9F44423C9F000917A
:103B00008A06002359F000E011E00093900C109316
:103B1000910C009189060093920C0AC000918906CD
:103B200010E00093900C1093910C00E00093920C25
:103B3000009187060F700230E1F4442379F000E031
:103B40000031B8F410E0F801EB57F94F248110E090
:103B5000F801E757F34F22870395F2CF00E007C043
:103B600020E010E0F801E757F34F2287039500317A
:103B7000B8F3089520E070E021E000918906702FED
:103B8000072F0F700023A9F070FB16F423E003C089
:103B900071FB0EF424E00091AA0C0330E9F521300A
:103BA000D9F572FB16F425E037C073FBAEF526E0BD
:103BB00033C00091A40C002321F40091A50C002334
:103BC00059F10091A50C1091A40C011718F4009163
:103BD000A40C02C00091A50C602FEAE8F6E037E0E3
:103BE00070813196772381F050E001C053955830B1
:103BF00058F4452F01E010E00E94D775172F1023CD
:103C00001123A1F3232F250F385F213011F46850C1
:103C100001C060E0613024F72093010D0091A30CF6
:103C2000002349F07091890674FB16F422E001C06C
:103C300021E02093D70C01E00093EB0A01E0009310
:103C4000E90A089511E000E00093890C00E0009378
:103C50008B0C00918906013091F401E00093A30CD4
:103C600001E0009369032091890C23952093890C2E
:103C700003E030E0F901E757F34F02830BC000E0A7
:103C80000093A30C00E000936703009189060023D2
:103C900009F010E000918A06093070F400918A065C
:103CA000033051F010918A0604E0109F0092A60C98
:103CB00001E00093690304C000E00093A60C10E04B
:103CC00000918B06093058F400918B06033039F0CF
:103CD00010918B0604E0109F0092A70C04C000E036
:103CE0000093A70C10E000918C06093058F4009165
:103CF0008C06033039F010918C0604E0109F00927E
:103D0000A50C04C000E00093A50C10E000918D0606
:103D10000330C1F503E00093AA0C0091A70C002327
:103D200021F40091A30C002319F001E000936A0331
:103D30000091A30C002379F00091A60C002359F008
:103D40000091A70C002339F00091A50C002319F075
:103D500001E00093AE0C0091A60C1091A70C010F8E
:103D60000093A40C0091A70C0023D9F02091890C9A
:103D700023952093890C04E030E0F901E757F34FD5
:103D800002830FC002E00093AA0C00E00093A70C8E
:103D90000091A60C0093A40C00918D06023009F04E
:103DA00010E00091A40C002359F02091890C239578
:103DB0002093890C02E030E0F901E757F34F0283CA
:103DC0000091A50C002359F02091890C2395209394
:103DD000890C01E030E0F901E757F34F02830091CD
:103DE0008E06023021F402E00093A90C08C001E025
:103DF0000093A90C00918E06013009F010E00091AB
:103E0000A90C013021F404E00093EA0A03C003E0A6
:103E10000093EA0A30918F0620E00091900610E0AE
:103E2000200F311F2093AC023093AD0230919106E8
:103E300020E00091920610E0200F311F2093AE0287
:103E40003093AF020091980610E1019F00E000223C
:103E50000FE010220092B0021092B1020091980679
:103E600010E00F701070EAEAF2E026813781200F2F
:103E7000311F2683378300919306083028F4009180
:103E800093060093D60B04C010E000E00093D60B1D
:103E90000091A90C023021F401E00093CF0C13C073
:103EA0000091AA0C023021F402E00093CF0C0BC069
:103EB0000091AA0C033021F404E00093CF0C03C05E
:103EC00000E00093CF0C00E00093BA0C0091A30C2B
:103ED000002389F00EE115E02091BA0C30E0220FAA
:103EE000331FF901E554F34F008311830091BA0C9D
:103EF00003950093BA0C0091AA0C0230B1F4009122
:103F0000A40C0023E1F106E215E02091BA0C30E0A8
:103F1000220F331FF901E554F34F00831183009101
:103F2000BA0C03950093BA0C2AC00091A60C00238A
:103F300089F003E415E02091BA0C30E0220F331F22
:103F4000F901E554F34F008311830091BA0C0395F6
:103F50000093BA0C0091A70C002389F00FE415E040
:103F60002091BA0C30E0220F331FF901E554F34FD2
:103F7000008311830091BA0C03950093BA0C009151
:103F8000A50C002389F000E315E02091BA0C30E085
:103F9000220F331FF901E554F34F00831183009181
:103FA000BA0C03950093BA0C0CE315E02091BA0CFF
:103FB00030E0220F331FF901E554F34F00831183E2
:103FC0000091BA0C03950093BA0C0FEF0093D70B36
:103FD0000E9468380E94F73B01E00E94C83C0E94A2
:103FE000473F0E94C4400E94304101E00093AB0C67
:103FF00008959A938A93802F282F2A9505E816E032
:104000000E94760E10E00093EB041093EC042091D4
:10401000EB043091EC0490E0FC01EC57F94F008187
:1040200010E02017310719F0549A579AC8C0009130
:104030009507023009F04BC000E00BC010E0F8011A
:10404000EB57F94F208110E0F801E458FA4F208334
:104050000395081798F300917E050F3391F590E0D2
:10406000FC01E558FA4F408100917F050331B0F41F
:10407000202F2C5F08C010E030E0F901E458FA4F1F
:104080001083239503950331B0F34D5E10917F05A6
:10409000411B00937F05802F8B5F06C01091910517
:1040A000411B10919205411B17E010939105410FA0
:1040B00018E510939205410F10E0F801E458FA4F0B
:1040C000448303E0009395078093960778C000919E
:1040D0009507002309F073C045E856E02091870654
:1040E00030E00091020D1091030D0E9422280091F2
:1040F0008706007F005039F0005151F0005169F0FF
:10410000005181F044C0009187060E94C50E55C041
:10411000009187060E94BA1050C0009187060E9445
:10412000AF114BC000918706005369F00A9571F0FA
:104130000A9579F00A9581F00A95C1F00A50E9F0E4
:104140000A95F9F020C00E948D1237C00E94F1122A
:1041500034C00E94A31331C00091A90C013019F49E
:104160000E947B162AC00E94551827C00091A90CF6
:10417000013019F50E946E1820C000918906FADC02
:104180001CC060DD1AC00091870695D816C000914A
:104190008706015C79F00A9579F00F5059F00A957D
:1041A00059F00F5039F00A9539F00F5019F00A956F
:1041B00019F003C081DC01C07FDC549A579A0E9439
:1041C000452700E0009397078991999108950C0184
:1041D0008FEF3FEF60E014C070E0F801E60FF71FCB
:1041E00040818427482F832F50E0FA01E457FF4F86
:1041F0003491832750E0FA01E457FE4F34916395E0
:10420000621750F3132F00E090E0082B192BC00128
:10421000089530E040910D0B405019F04A9569F037
:1042200017C042E007C050E0F801E40FF51F5081CD
:10423000350F43954217B8F30BC040E007C050E07C
:10424000F801E40FF51F5081350F43954217B8F37D
:10425000032F08959A938A93812FEBEFF4E0108156
:104260001061108310910D0B105019F01A95D9F0B0
:104270003CC000937E0580937F05282F2C5F0CE7C0
:1042800015E0C7DF10E00093EF041093F0040091F5
:10429000EF0490E0FC01E458FA4F04838B5F082F91
:1042A0000E94042822C01091A80210937C0500935C
:1042B0007D05282F2D5F0CE715E089DF0093EF04C3
:1042C0001093F0040091EF0490E0FC01E458FA4FE1
:1042D00003831091F004012F90E0FC01E458FA4FA1
:1042E00004838B5F082F0E94042889919991089577
:1042F000EBEFF4E010811061108300937E0502E083
:1043000000937F0526E00CE715E083DF10E00093C3
:10431000EF041093F0040091EF040093820507E08E
:104320000E9404280895EBEFF4E0108110611083DF
:104330001091A80210937C051091FD041068109351
:104340007D0500937E0523E00CE715E062DF10E0B9
:104350000093EF041093F0040091EF0400937F05A5
:104360001091F004012F0093800505E00E940428BD
:1043700008959A938A93802F0E94112800FB4EF48F
:1043800000E00093800500E00093810501EEB0DFBE
:1043900077C300910D0B005021F00A9509F434C148
:1043A00065C30091FC04053509F023C10091FD04AB
:1043B0000A3A09F01EC10091FF0410E0E82FF0E076
:1043C00035970E171F0751F00091FF0400938005E9
:1043D00085508093810503EE8BDF52C3282F2A95E9
:1043E0000CEF14E016DF10E00093EF041093F004DC
:1043F0002091EF043091F00490E0FC01E550FB4F78
:10440000008110E02017310771F090E0FC01E550C9
:10441000FB4F0081009380050091EF04009381051C
:1044200002EE66DF2DC30091FE04043729F00091EF
:10443000FE04033709F0BFC00091FE04043789F57C
:104440004091740C50E008EE13E00E94CD75980185
:104450004091750C50E004E610E00E94CD75200FED
:10446000311F4091760C50E00AE010E00E94CD75BB
:10447000200F311F0091770C10E0200F311F2055C5
:10448000304D2093F3043093F4041091F404012F81
:10449000009380050091F3040093810512E002E788
:1044A000D9DE0091FE04033709F077C03091000592
:1044B00020E00091010510E0200F311F2093F3044C
:1044C0003093F40448EE53E00091F3041091F404A7
:1044D0000E94DA75005D0093740C8091740C90E07A
:1044E000C09708EE13E0AC010E94CD75E3EFF4E055
:1044F00020813181201B310B2083318344E650E041
:104500000091F3041091F4040E94DA75005D0093A9
:10451000750C8091750C90E0C09704E610E0AC013A
:104520000E94CD75E3EFF4E020813181201B310B37
:10453000208331834AE050E00091F3041091F404A9
:104540000E94DA75005D0093760C8091760C90E005
:10455000C0970AE010E0AC010E94CD75E3EFF4E0F3
:1045600020813181201B310B208331830091F304A2
:10457000005D0093770C10E003E76CDE01E0009330
:104580008B0700E010E0009391071093920704E777
:104590001CE000938D0710938E070FE00093A90293
:1045A00000919A00006100939A0000919A000068BF
:1045B00000939A0065C200E011C010E0F801E450D9
:1045C000FB4F208110E0F801EB5FF84F208320E0E3
:1045D00010E0F801E450FB4F20830395081768F3BF
:1045E0008093960701E0009395070FE00093A902DE
:1045F00047C200919A00006100939A0000919A00CE
:10460000006800939A003CC20091FC041091A8023B
:10461000011709F020C2282F22500CEF14E0D7DD3B
:104620000093EF041093F00490E0FC01E650FB4F80
:10463000008190E0FC01E550FB4F10810093F104F4
:104640001093F2040091EF041091F0042091F10412
:104650003091F2040217130769F00091EF04009300
:104660007E051091F004012F00937F0511E00FEFFC
:10467000F1DDF6C13091FE0420E00091FF0410E06E
:10468000200F311F2093F6043093F70400910105A9
:104690000093F5040091FD04035021F0035009F448
:1046A000B2C1D6C10091F504013420F40091F504A3
:1046B000002319F403E037DED3C10091F604109112
:1046C000F7040A5F1040063023E01207A8F020919B
:1046D000F6043091F7040091F50410E0200F311F2B
:1046E0002B3F00E0300758F00091F6041091F704DA
:1046F000003024E0120718F402E015DEB1C1109179
:10470000F50402E0109F00927E050091F6041091DE
:10471000F7040A3F20E0120718F580E015C0609109
:10472000F6047091F70490E0680F791F02E0809F13
:1047300003E0000E402D2CE735E00091020D1091B2
:10474000030D0E94702883950091F504801738F3BB
:104750001091F50402E0109F102D03E07BDD80C175
:104760000091F6041091F7040050144000302EE13F
:10477000120708F046C001E00093870C20E030E00B
:104780000091020D1091030D0E944F2B4FE00091FC
:10479000F5040E94AF750093860C0091860C0023EF
:1047A00029F40091860C03950093860C8FE090E02D
:1047B0000091F6041091F704005014404FE050E0CF
:1047C0000E94DA75841B950B0091F50410E08017A8
:1047D000910728F40091860C03950093860C0091B4
:1047E000F6041091F704005014404FE050E00E948E
:1047F000DA750093F8041093F90402EF0093880C23
:104800002FC10091F6041091F704005014420030BB
:104810002EE1120708F04BC001E00093870C20E066
:1048200030E00091020D1091030D0E944F2B4FE0DC
:104830000091F5040E94AF750093860C0091860CE0
:10484000002329F40091860C03950093860C0091B7
:10485000F6041091F704005014424FE050E00E941B
:10486000DA754093FA040FE010E02091FA0430E08A
:10487000021B130B2091F50430E0021713072CF4F0
:104880000091860C03950093860C0091F60410911C
:10489000F704005014424FE050E00E94DA75009394
:1048A000F8041093F90402EC0093880CD9C000912D
:1048B000F6041091F7040050144400302EE1120762
:1048C00008F04BC001E00093870C20E030E000913D
:1048D000020D1091030D0E944F2B4FE00091F50443
:1048E0000E94AF750093860C0091860C002329F47A
:1048F0000091860C03950093860C0091F6041091AC
:10490000F704005014444FE050E00E94DA754093E1
:10491000FA040FE010E02091FA0430E0021B130BC0
:104920002091F50430E0021713072CF40091860C57
:1049300003950093860C0091F6041091F704005043
:1049400014444FE050E00E94DA750093F80410938D
:10495000F90402ED0093880C83C00091F6041091D5
:10496000F7040050144600302EE1120708F078C01A
:1049700001E00093870C20E030E00091020D1091DF
:10498000030D0E944F2B4FE00091F5040E94AF757C
:104990000093860C0091860C002329F40091860C6C
:1049A00003950093860C0091F6041091F7040050D3
:1049B00014464FE050E00E94DA754093FA040FE08D
:1049C00010E02091FA0430E0021B130B2091F50453
:1049D00030E0021713072CF40091860C0395009326
:1049E000860C0091F6041091F704005014464FE035
:1049F00050E00E94DA750093F8041093F90402EE77
:104A00000093880C2DC05091000540E000910105F5
:104A100010E0400F511F2091F6043091F7040091EF
:104A2000020D1091030D0E94B72800E00BC010E0AA
:104A3000F801E450FB4F208110E0F801E458FA4FF0
:104A400020830395063098F313E006E003DC08C0EA
:104A500001E069DC05C000919A00006100939A00B2
:104A600000919A00006800939A000AC000919A0091
:104A7000006100939A0000919A00006800939A00E8
:104A80000E941E288991999108950FEC09B91098F8
:104A9000119A1898199A0EE00093950008E10AB946
:104AA000549A579A06B70D7F06BF07B7016007BF34
:104AB00005E002BF04E003BF05E5009305070AEA2D
:104AC0000093060705E5009385060AEA009386062B
:104AD0000895FA93EA935A934A933A932A931A932E
:104AE0000A934FB75BB70CB15C9952C0109187071E
:104AF000105039F01A9559F01A9599F01A95B9F0A5
:104B000027C0053519F401E00093870741C00A3A30
:104B100021F402E0009387073BC000E00093870781
:104B200037C00093870603E00093870731C00093E6
:104B300088060C3720F010E01093870703C014E0BC
:104B40001093870710918707100F1093880720C0D4
:104B50002091870730E0F901EB57F94F008300916E
:104B6000870710918807011770F001E000939707FD
:104B700000E00093870754985798009188070395A1
:104B80000093980705C00091870703950093870756
:104B90005BBF4FBF09911991299139914991599161
:104BA000E991F9911895FA93EA933A932A931A9313
:104BB0000A932FB73BB7009185071091860701171D
:104BC00084F400918507102F110F110BF801EB5F92
:104BD000F84F00810CB90091850703950093850774
:104BE0000FC05398559800E00093860700E00093AB
:104BF0008507549A579AE4E8F6E000810F7E008317
:104C00003BBF2FBF0991199129913991E991F991F0
:104C100018959A938A93FA93EA933A922A921A925F
:104C20000A927A936A935A934A933A932A931A93DD
:104C30000A938FB79BB72197A89505E002BF009113
:104C4000ED07003F09F045C000919507002309F0EA
:104C500040C00E948E35009381060091810610911C
:104C60008006011721F000918106003FD1F4E2E8AF
:104C7000F6E0008111810F5F1F4F008311830091C7
:104C8000820610918306013921E0120784F000E9C1
:104C900011E0009382061093830600EF00938006D4
:104CA00006C000E010E00093820610938306009196
:104CB000810610918006011761F000918106003F86
:104CC00041F0009181060093ED0700918106009369
:104CD000800600917E06053078F100917F06013054
:104CE00029F0EBEFF4E0008100FF22C000919A0070
:104CF0000F7E00939A0000919A000F7700939A001C
:104D0000EBEFF4E000810860008300917B060E94D5
:104D1000B92100E000937F0600E000937B0600913C
:104D20009C000883EBEFF4E000810F7E008309C054
:104D30000EE100937E0605C000917E060395009368
:104D40007E06E19939C000918B070130A9F5F894EE
:104D500000919107109192071FBB0EBB009189072C
:104D600010E0E0918D07F0918E07E00FF11F0081B8
:104D70000DBBE29AE19A789400918907039500931C
:104D80008907E1E9F7E0008111810F5F1F4F008380
:104D900011830091890710E0E0918D07F0918E0753
:104DA000E00FF11F31970081002331F400E0009300
:104DB0008B0700E000938907E1994EC000918C07B2
:104DC000013009F049C000919307109194071FBB6F
:104DD0000EBBE09A2DB300918A0710E0E0918F0797
:104DE000F0919007E00FF11F208300918A0710E0F7
:104DF000E0918F07F0919007E00FF11F00810F3FC6
:104E000059F400E020918A0730E0E0918F07F0919B
:104E10009007E20FF31F0083E3E9F7E000811181BF
:104E20000F5F1F4F0083118300918A070395009342
:104E30008A0700918A0710E0E0918F07F0919007B0
:104E4000E00FF11F31970081002331F400E000935F
:104E50008C0700E000938A0721969BBF8FBF0991C2
:104E600019912991399149915991699179910990B3
:104E7000199029903990E991F99189919991189512
:104E800000938607539A559A089500E0009384068C
:104E9000089503E3009399008A988B9A9298939AC5
:104EA0000EE000939D0008E100939A0000919A00A3
:104EB000006100939A0000919A00006800939A00A4
:104EC00005E500937C050AEA00937D050895FA93B1
:104ED000EA934A933A932A931A930A933FB74BB7AC
:104EE00020919C0000919B00102F14FF05C0EBEF58
:104EF000F4E000810160008300917F06002391F4BB
:104F000000917E060E3170F001E000937F0600E014
:104F100000937B0600E000937E06EBEFF4E0008157
:104F20000061008300917F060130E9F400917E0664
:104F30000E31C8F400917B06003830F0EBEFF4E05E
:104F40000081016000830CC000917B0610E0F80135
:104F5000E450FB4F208300917B06039500937B0672
:104F600000E000937E064BBF3FBF09911991299144
:104F700039914991E991F9911895FA93EA933A9305
:104F80002A931A930A932FB73BB700917C0610918E
:104F90007D0601178CF400917C06102F110F110B68
:104FA000F801E458FA4F008100939C0000917C06C0
:104FB000039500937C061FC000919A00077F009321
:104FC0009A0000919A000F7D00939A0000E00093F0
:104FD0007D0600E000937C0600919A00006100933A
:104FE0009A0000919A00006800939A00EBEFF4E0B9
:104FF00000810F7E00833BBF2FBF0991199129913A
:105000003991E991F991189500937D0600919A00E4
:10501000086000939A0000919A00006200939A0041
:1050200008950091FB0410919A00212F27FD026042
:1050300010919A00212F25FD0460089500E000934F
:10504000FB0408950E949C762801D901CA018D01B4
:10505000EEE7F0E0FBBFF9E10C945876AC019D015E
:10506000820121D33AC0AC019D01820178D335C0C1
:10507000AC019D0182010CD430C09C01820180D41E
:105080002CC09C0182019DD428C09C018201C8D4FF
:1050900024C09C01820152D520C0AC019D01820137
:1050A000BCD61BC045EB50E09C01820120D715C047
:1050B00046EB50E09C0182011AD70FC047EB50E04D
:1050C0009C01820114D709C044EB50E09C0182018D
:1050D0000ED703C09C0182011DD7E6E00C94A67692
:1050E0000E949A762801D901642ECB01863100E016
:1050F000900721F424E73CE08201A7D2803001E050
:105100009007F8F4F201218132818C01000F111F08
:10511000200F311FF9011181012F7724FD01E60DC8
:10512000F71D0083F20101811281880F991F080F7A
:10513000191FF80100817724A60DB71DFD01018319
:105140000CC00FEF7724FD01E60DF71D00830FEF74
:105150007724A60DB71DFD010183E8E00C94A47629
:10516000222311F0F8012383F8010381089562E0FE
:10517000F8016383F80124833583F801468357835C
:105180000895215019F02A9521F006C0F8010085F4
:105190000895F801018508950FEF08950E949D7606
:1051A000C801D901FC01048115810051104006504D
:1051B000104008F470C00050104009F4C7C00A51F4
:1051C000104009F4F1C00350104009F4EDC0035041
:1051D000104009F4E9C00A51104008F433C20750E6
:1051E000104008F4FAC00950104009F403C10150FE
:1051F000104009F4FFC00150104008F44BC00450A7
:10520000104008F404C10050104008F443C004509A
:10521000104008F40CC100501040E0F10052104062
:1052200008F415C106501040A8F10350104008F4CE
:105230001EC10050104070F10450104008F424C109
:105240000050104038F10450104008F42DC10550B2
:10525000104000F10550104008F436C100501040D5
:1052600009F43FC10150104009F44DC101501040F4
:1052700009F456C10D50104009F45DC101501040B1
:1052800009F47BC10150104009F499C1015010404C
:1052900009F4B7C1D7C100E0FC01008332C0FC01B2
:1052A00001811281FC01208130E0220F331F020FA7
:1052B000131FF80100A111A14AE050E00E94DA7525
:1052C000402E429400EF4022FC0101811281FC013A
:1052D000208130E0220F331F020F131FF80100A1BD
:1052E00011A14AE050E00E94DA75440EFC010081F1
:1052F00010E0FD01E00FF11F4482FC0100810395E5
:105300000083FC010081063050F2FC010681178108
:105310004AE050E00E94DA75402E429400EF4022AD
:10532000FC01068117814AE050E00E94DA75440EC4
:10533000FC0104811581A00FB11F1C974C9202EB58
:10534000FC01008706E0FC0101877CC1FC0117819C
:10535000012F0695069506950695005D0093740C41
:10536000FC011781012F0F70005D0093750CFC018B
:10537000068102950F70005D0093760CFC0106819A
:105380000F70005D0093770C01E000938B0700E045
:1053900010E0009391071093920704E71CE000933C
:1053A0008D0710938E074EC1FC01068117810230D4
:1053B00020E0120731F401E7FC01008700E0FC0166
:1053C0000187FC0106811781012B31F400E7FC0104
:1053D000008700E0FC01018735C1FC0104810F5CFE
:1053E000FC01008701E0FC010187FC010681FD0151
:1053F000048328C1FC0104810F5CFC01008701E0EB
:10540000FC010187FC010681FD0104831BC104E945
:10541000FC01008702E0FC010187FC0104810156C8
:10542000FD010483FC010681FD0105830BC105E933
:10543000FC01008702E0FC010187FC0104810556A4
:10544000FD010483FC010681FD010583FBC003E926
:10545000FC01008702E0FC010187FC010481095680
:10546000FD010483FC010681FD010583EBC0FC0105
:1054700004810F5EFC01008701E0FC010187FC0153
:105480000681FD010483DEC004EAFC01008702E01E
:10549000FC010187FC0104810259FD010483FC0128
:1054A0000681FD010583CEC005EAFC01008702E00C
:1054B000FC010187FC0104810659FD010483FC0104
:1054C0000681FD010583BEC0FC0104810B5EFC0169
:1054D000008701E0FC010187FC010681FD010483D6
:1054E000B1C0FC0104810B5EFC01008702E0FC01FD
:1054F0000187FC011781012FFD010483FC01068156
:10550000FD0105839FC0FC0104810B5EFC01008747
:1055100001E0FC010187FC010681FD01048392C0CA
:105520000DEBFC01008701E0FC010187FC01068115
:10553000FD01048387C00AEFFC01008700E0FC0145
:10554000018700E0FC01008313C00EEE1EEEFC019B
:1055500024853585FC01408150E0440F551F240F00
:10556000351FF90100831183FC010081039500833D
:10557000FC010081013848F365C00AECFC0100879A
:1055800000E0FC01018700E0FC01008313C00EEE87
:105590001EEEFC0124853585FC01408150E0440F5E
:1055A000551F240F351FF90100831183FC01008171
:1055B00003950083FC010081013848F343C00AEDE4
:1055C000FC01008700E0FC01018700E0FC01008392
:1055D00013C00EEE1EEEFC0124853585FC014081D2
:1055E00050E0440F551F240F351FF901008311832C
:1055F000FC01008103950083FC010081013848F320
:1056000021C00AEEFC01008700E0FC01018700E0F8
:10561000FC01008313C00EEE1EEEFC0124853585CF
:10562000FC01408150E0440F551F240F351FF90144
:1056300000831183FC01008103950083FC0100813C
:10564000013848F3E5E00C94A776592F082EB801ED
:10565000F9012081322F20E0330F330F330F330F46
:10566000818190E0C097982F80E0280F391F028138
:1056700010E00053104044E00E94D775200F311F06
:10568000038110E00F701070200F311FFB010181AA
:105690001281F80124A735A7802D952F0895F801D0
:1056A0002687378708950E949E76C8018901DA010E
:1056B000E6EFF0E0FBBFF9E10C945876FD010481C0
:1056C00010E0FC01A181B281A056BF4F0D931C9345
:1056D00043C0FD01A481B0E01196FC01018112815B
:1056E0000E551F4FF801A083B18336C0FD01048120
:1056F00010E0FC01A181B281AC55BF4F0D931C930A
:105700002BC0FD01048110E0FC01A181B281AA55EA
:10571000BF4F0D931C9320C0FD01048110E0FC01DC
:10572000A181B281A855BF4F0D931C9315C0FD01F7
:10573000048110E0FC01A181B281A655BF4F0D93F9
:105740001C930AC0FD01048110E0FC01A181B2811B
:10575000A455BF4F0D931C93E4E00C94A8760E94CF
:105760009E76D8018901CA01ECE0F0E0FBBFFAE1C6
:105770000C945876FC01048110E0FD01A181B281F6
:10578000A054BF4F0D931C9380C0FC01448150E096
:105790000AE010E00E94CD75FD01A181B281AE53F7
:1057A000BF4F0D931C9371C000E00C931CC00C9173
:1057B00010E0FC01E00FF11F448150E00AE010E02E
:1057C0000E94CD75FD01218132814C9150E0440F42
:1057D000551F240F351F2C523F4FF90100831183B1
:1057E0000C9103950C930C91FC0113810117F8F2B5
:1057F0004CC000E00C9318C00C9110E0FC01E00FCD
:10580000F11F448150E0FD01018112812C9130E0B3
:10581000220F331F020F131F0C531F4FF801408339
:1058200051830C9103950C930C91FC01138101178A
:1058300018F32BC000E00C9318C00C9110E0FC0191
:10584000E00FF11F448150E0FD01018112812C9194
:1058500030E0220F331F020F131F04531F4FF801B4
:10586000408351830C9103950C930C91FC0113819F
:10587000011718F30AC0FC01048110E0FD01A181A9
:10588000B281AC5EBE4F0D931C93E4E00C94A876FD
:105890000E949E76D8018901CA01E0E2F0E0FBBFD8
:1058A000FAE10C945876FC01048110E0FD01A1811D
:1058B000B281A05EBE4F0D931C935FC0FC0144817A
:1058C00050E00AE010E00E94CD75FD01A181B28197
:1058D000AE5DBE4F0D931C9350C0FC01448150E05F
:1058E0000AE010E00E94CD75FD01A181B281AC5D9E
:1058F000BE4F0D931C9341C000E00C9318C00C9157
:1059000010E0FC01E00FF11F448150E0FD01018136
:1059100012812C9130E0220F331F020F131F0A5DFA
:105920001E4FF801408351830C9103950C930C9109
:10593000FC011381011718F320C000E00C9318C07C
:105940000C9110E0FC01E00FF11F448150E0FD01DB
:10595000018112812C9130E0220F331F020F131F9F
:10596000025D1E4FF801408351830C9103950C9307
:105970000C91FC011381011718F3E4E00C94A87654
:10598000BD01F80100E0008317C0008110E0D901DB
:10599000A00FB11F14964C9150E0A181B2810081FB
:1059A00010E0000F111FA00FB11FA05ABF4F4D9361
:1059B0005C9300810395008300810A3030F3DB01A2
:1059C00008950D01D80100E00C9325C00C9110E062
:1059D000000F111FF901E00FF11F748160E00C91BD
:1059E00010E0000F111FF901E00FF11F058110E019
:1059F000600F711FFD01018112814C9150E0440F35
:105A0000551F040F151F005C1F4FF8016083718341
:105A10000C9103950C930C910830C0F2D0010895BD
:105A2000BD01F801D90114964C9142954F7050E098
:105A30000AE010E00E94CD75D90114964C9150E017
:105A40004F705070040F151FA181B28190960D9375
:105A50001C93D90115964C9142954F7050E00AE085
:105A600010E00E94CD75D90115964C9150E04F7011
:105A70005070040F151FA181B28192960D931C9353
:105A8000D90116964C9142954F7050E00AE010E013
:105A90000E94CD75D90116964C9150E04F70507010
:105AA000040F151FA181B28194960D931C93D90107
:105AB00017964C9142954F7050E00AE010E00E941A
:105AC000CD75D90117964C9150E04F705070040F6E
:105AD000151FA181B28196960D931C93D90118963A
