:100000000C94E273189518951895189518951895ED
:100010001895189518951895189518951895189578
:1000200018951895189518950C94BF2F1895189534
:1000300018951895189518950C940073189518959F
:100040000C940E26189518950C946E250C94D825B2
:100050001895189518951895189518951895189538
:100060001895189518951895189518951895189528
:1000700018951895189518950C946C270C94C22710
:1000800018951895189518951895189500C18140E0
:1000900001C0804101C0804100C1814001C0804158
:1000A00000C1814000C1814001C0804101C0804148
:1000B00000C1814000C1814001C0804100C1814038
:1000C00001C0804101C0804100C1814001C0804128
:1000D00000C1814000C1814001C0804100C1814018
:1000E00001C0804101C0804100C1814000C1814008
:1000F00001C0804101C0804100C1814001C08041F8
:1001000000C1814000C1814001C0804101C08041E7
:1001100000C1814000C1814001C0804100C18140D7
:1001200001C0804101C0804100C1814000C18140C7
:1001300001C0804101C0804100C1814001C08041B7
:1001400000C1814000C1814001C0804100C18140A7
:1001500001C0804101C0804100C1814001C0804197
:1001600000C1814000C1814001C0804101C0804187
:1001700000C1814000C1814001C0804100C1814077
:1001800001C0804101C0804100C1814000C0C10167
:10019000C30302C2C60607C705C5C404CC0C0DCDF7
:1001A0000FCFCE0E0ACACB0BC90908C8D81819D967
:1001B0001BDBDA1A1EDEDF1FDD1D1CDC14D4D51597
:1001C000D71716D6D21213D311D1D010F03031F187
:1001D00033F3F23236F6F737F53534F43CFCFD3DB7
:1001E000FF3F3EFEFA3A3BFB39F9F83828E8E929A7
:1001F000EB2B2AEAEE2E2FEF2DEDEC2CE42425E557
:1002000027E7E62622E2E323E12120E0A06061A1C6
:1002100063A3A26266A6A767A56564A46CACAD6D76
:10022000AF6F6EAEAA6A6BAB69A9A86878B8B979E6
:10023000BB7B7ABABE7E7FBF7DBDBC7CB47475B516
:1002400077B7B67672B2B373B17170B05090915106
:100250009353529296565797559594549C5C5D9D36
:100260005F9F9E5E5A9A9B5B995958988848498926
:100270004B8B8A4A4E8E8F4F8D4D4C8C44848545D6
:10028000874746868242438341818040380C018003
:10029000020041A042A1E045A3A4A5A64BA74D485A
:1002A0004FA8504354A9AA58E1ABACE2ADAE62AF3F
:1002B000B0B161B2B3B4E365B6B7B8B9BABBBCBD4F
:1002C0006FBE7063BF79E478E5C0C1E6C2C3C4C540
:1002D000C6C7EEF8E8E12EC0CA2000E0E2F2EE2E3A
:1002E000C0CA2000E0E2F2EE2EC0CA2000F3F1EA1C
:1002F0002EC0CA202000E2FBEAEB2EC0CA2000EF8D
:10030000F0EEE22EC0CA2000E8F1EFFBF22EC0CAE8
:1003100000EFF3F1EA20C0CA2000EDEEF0EC2EC0B1
:10032000CA2000E1E5E3EB2EC0CA2000EEE4EDEECA
:10033000F12EC0CA00D202DB02E402ED02F602FF97
:1003400002080311031A0323032C03EEF8E8E12E3D
:1003500000E0E2F2EE2000E0E2F2EE2000F3F1EA4B
:100360002E2000E2FBEAEB2E00EFF0EEE22E00E89A
:10037000F1EFFBF200EFF3F1EA2000EDEEF0EC2EEE
:1003800000E1E5E3EB2E00EEE4EDEEF1004B03516E
:100390000357035D03630369036F0375037B0381E5
:1003A000038703C0CA2D00CDE5F220F1E2FFE7E8A4
:1003B00020F120C1D1CF2020202020002020C8ED16
:1003C000E8F6E8E0EBE8E7E0F6E8FF202020202070
:1003D00000312EC6F3F0EDE0EB2E00322EC4E0F239
:1003E000E02FE2F0E5ECFF2E00332ED3EFF0E0E259
:1003F000EBE5EDE8E52E00342ED3F1F2E0EDEEE290
:10040000E8F2FC2E00352ECFF0EEF1ECEEF2F0200B
:10041000EFE0F0E0EC2E00362EC0E2F2EEEAEEED78
:10042000F2F0EEEBFC2E00372ECFF0EEF2EEEAEE1D
:10043000EB2E00D103DB03E903F7030504170427C0
:1004400004312E20C4E0F2E02E20202020202020A5
:10045000202020202000322E20C2F0E5ECFF2E20AC
:100460002020202020202020202000C6F3F0EDE0D6
:10047000EB2000F1EEE1FBF2E8E900E7E0F9E8F259
:10048000FB00EFF0E8E5ECEDE8EAE000EFE5F0E591
:10049000E4E0F2F7E8EAE00073048C0482047B04F1
:1004A000D7F2E5EDE8E520E0F0F5E8E2E02E00CF58
:1004B000CC00CFC400D1C100C7D900B504B204AF8D
:1004C00004B804CEC1D900CFE5F0E5E72E00CFE5B2
:1004D000F0E5E7E0EF2000CDE0F7E0EBEE2000CA2A
:1004E000EEEDE5F62000EAEEECE0EDE4FB00312E67
:1004F000D0E5E6E8EC2E00322ECFE0F0E0ECE5F2BD
:10050000F0FB2E00332ECFE0F0EEEBFC2E00342E6D
:10051000D2E5F1F22E00EE04F70404050E05C7E063
:10052000F9E8F2E02E00CFF0E8E5ECEDE8EA2E0085
:10053000CFE5F0E5E4E0F2F7E8EA2E00CEE1F9E8F5
:10054000E52E00CFF0E8E5ECEDE8EA20312E00CF13
:10055000F0E8E5ECEDE8EA20322E00D2E8EF20C723
:10056000E0F9E8F2FB00D2E8EF20CBE8EDE8E800A4
:10057000C4EEEF2E20E2F0E5ECFF20E1E5E720EC11
:10058000E0ED2E00C7E0E4E5F0E6EAE020EDE02053
:10059000EBE8EDE8E820202000CFE5F0E5EAF0FB0D
:1005A000F2E8E520E8ECEFF3EBFCF1EEE200C7E067
:1005B000E3F020F7F3E2F1F2E2E8F220EFEE2020A0
:1005C000D0C700D1EDE8E6E5EDE8E520F3F0EEE296
:1005D000EDFF20C0CA202000D7E0F1F2EEF2E020CB
:1005E000CFD0C400D7E0F1F2EEF2E020CFD0CC00C3
:1005F0005B056605700584059905AE05C305D8053C
:10060000E405C7E0E4E5F0E6EAE020EDE020E2EA18
:10061000EB2E2020202000C4EBE8F2E5EBFCEDEE11
:10062000F1F2FC20EAEEECE0EDE4FB00C7E0E4E5EB
:10063000F0E6EAE020EDE020E2FBEAEB2E2020EA03
:1006400000C1EBEEEA2E20EAEEECE0EDE4FB202028
:100650003F2E2E3F2000C4EBE8F22E20EAEEECE025
:10066000EDE4FB20203F2E2E3F2000020617062C33
:100670000641065606C2F0E5ECFF20EDE020EFEE65
:10068000E2F22E20EAEEEC2E2000C1EBEEEA2E2064
:10069000EAEEECE0EDE4FB20203F2E2E3F2000C4EC
:1006A000EBE8F22E20EAEEECE0EDE4FB20203F2E1A
:1006B0002E3F20000206170675068A069F06D1EE19
:1006C000E2ECE5F1F2E8ECEEF1F2FC0043E8EDF5E6
:1006D000F0EEEDE8E7E0F6E8FF20F7E0F1EEE2000B
:1006E00055E2FBF520EDEEECE8EDE0EBFCEDEEE5A0
:1006F00000D3E4E5F0E6E0EDE8E520F0E5EBE52009
:10070000CFD0C400D1E5F2E5E2EEE920E0E4F0E587
:10071000F100C2F0E5ECFF20EFE5F0E5E7E0EFF3F4
:10072000F1EAE000D7E0F1F2EEF2E000CDEEECE528
:10073000F020E0EFEFE0F0E0F2E000CAEEEDF2F0E2
:10074000EEEBFC20E2FBF52EF1E8E3EDE0EBE00060
:10075000CFEEF0EEE320CFD0C5C4D3CFD020EFEE64
:1007600020CAD72000C7E0E3F020F7F3E2F1F2E27D
:10077000E8F220EFEE2020CAD700CAEEF0F0E5EA5A
:10078000F6E8FF20EDE0EFF0FFE6E5EDE8FF00CA58
:10079000EEF0F0E5EAF6E8FF20F2EEEAE000CFEE58
:1007A000F0EEE320CFD0C5C4D3CFD020EFEE20D0E1
:1007B000C72000CFF0EEF2EEEAEEEB20EEE1ECE542
:1007C000EDE000CFF0E8E7EDE0EA20F7E5F2EDEE4E
:1007D000F1F2E800C4EEEFF3F1F2E8ECFBE520EF14
:1007E000F0EEE2E0EBFB00CFEEF0EEE320EFEE20E8
:1007F000EFEEECE5F5E500C4EEEFF3F1F2E8ECE046
:10080000FF20EFEEECE5F5E000D2E8EF20E0E2F2C9
:10081000EEEAEEEDF2F0EEEBFF00D0E5E7E5F0E218
:10082000E8F0EEE2E0EDE8E500D1EDE8E6E5EDE840
:10083000E520EEF2E2E5F2E020C0CA202000BE068C
:10084000CC06E006F1060407120724072C073B0735
:10085000500765077A078F07B307C307D407E70771
:10086000F70709081A0829089E07C0C2C0CDD22080
:10087000D034303000CFC2C72D393000C0C2C7CA13
:100880002D383000CFC2C7D32DC500CFC2C7CB0093
:10089000EEF8E8E1EAE0006A0875087C0884088B55
:1008A000089008C7C0D900CFD0CC00CFCC3100CF42
:1008B000CC3200CFD0C400C2FBE2E5E42000C3EE9E
:1008C000F2EEE22000C2E2E5E4E5ED00D0E5F7FC5F
:1008D000202000D2E5F1F2203100D2E5F1F2203201
:1008E00000D2E5F1F2203300B708BE08C508CC08F5
:1008F000D308DA08E1083F3F3F3F00202020C7E04F
:10090000EFF3F1EA20F2E5F1F2E0202020202000D0
:100910002020CFEEE4EEE6E4E8F2E5203F20F1E52A
:10092000EA20202000CFF0EEF2EEEAEEEB00D1F26A
:10093000E0EDE4E0F0F2004D6F64427573002E09C3
:100940003709C7C0D93A00CFD0CC3A00CFCC313A22
:1009500000CFCC323A00CFD0C43A003F3F3F3F20D7
:1009600020202000CDE5E8F1EFF0202000CFF0E5D9
:10097000E4F3EFF02000C2FBE2E5E4E5ED2000C384
:10098000EEF2EEE220202000C2E2E5E4E5ED2020D8
:1009900000D0E5F7FC2020202000D2E5F1F2312044
:1009A000202000D2E5F1F23220202000D2E5F1F241
:1009B000332020200076097F09880991099A09A32C
:1009C000097609880976099A09A309AC0976098884
:1009D000099A09A309AC09C8F1F5EEE4ED2E20004F
:1009E000CAEEEDF2F0EEEBFC00CFF3F1EA202020AE
:1009F0002000D0E0E1EEF2E0202000CDE5E8F1EFCC
:100A0000F02E2000CF2EEDE5E8F1EFF000CEE6E885
:100A1000E4E0EDE8E500CDE0EB2EEFF3F1EA00D302
:100A2000E42EEFF3F1EA2000CDE5F220D0C720203C
:100A300000D0E5F7FC2020202000D2E5F1F22020B4
:100A4000202000D709E009E909F209FB09040A0D91
:100A50000A160A1F0A280A310A3A0AC8F1F5EEE412
:100A6000ED2E2000CFD0CC20CAD7202000CFD0CC74
:100A700020CFC0202000CDE5F220CAD7202000CD15
:100A8000E5E8F1EFF02E2000CF2EEDE5E8F1EFF0F4
:100A900000CEE6E8E4E0EDE8E500C1CBCA20CACC30
:100AA0002020003F307830383F2020003F30783021
:100AB000393F2020003F307830413F202000D2E5F0
:100AC000F1F220202020005B0A640A6D0A760A7F7A
:100AD0000A880A910A9A0AA30AAC0AB50ABE0AC889
:100AE000F1F5EEE4ED2E2000CFD0C420CAD72020AF
:100AF00000CFD0C420CFC0202000CDE5F220CAD73F
:100B0000202000CDE5E8F1EFF02E2000CF2EEDE51E
:100B1000E8F1EFF000CEE6E8E4E0EDE8E5003F3094
:100B20007830373F2020003F307830383F20200099
:100B3000D1E8F1F2E5EC2E20003F307830413F2043
:100B40002000D2E5F1F22020202000DF0AE80AF19F
:100B50000AFA0A030B0C0B150B1E0B270B300B3973
:100B60000B420B672D006C2D00C2E2EEE43A00CF81
:100B7000E0F0EEEBFC3A00CDEEE2FBE920EFE0F036
:100B8000EEEBFC3A00C7EDE0F7E5EDE8E53A2000D2
:100B9000C4D4C72DCFF0CFE4202000C4D4C72DCFBC
:100BA000F0ECCCCA3100C4D4C72DCFF0ECCCCA32A3
:100BB00000C4D4C72D4C363020202000CDC72DCF07
:100BC000F0CFE420202000CDC72DCFF0EC2DCCCAF3
:100BD0002000CFCFC72DCFF0CFE4202000CFCFC74C
:100BE0002DCFF0EC2DCCCA00EEF8E8E1EAE02020B1
:100BF000202000900B9B0BA60BB10BBC0BC70BD29C
:100C00000BDD0BE80BE2FBEAEB2E00E2EAEB2E0039
:100C10003F3F3F3F00050C0B0C100C3F3F3F3F0098
:100C2000E1FBF1F2F0FBE900ECE5E4EBE5EDEDFBD7
:100C3000E9001B0C200C280C1B0C3F3F3F3F00E23F
:100C4000EAEB2E00E2FBEAEB2E003A0C3F0C440CE0
:100C50003A0C3F3F3F20E3F0E0E4003F3F3F20F10C
:100C6000E5EA003F3F20E3F0E0E4003F3F3F3F0084
:100C7000F2F0E5E2EEE6EDFBE900EDEEF0ECE0EBA4
:100C8000FCEDFBE900F1EFEEEAEEE9EDFBE9006BCC
:100C90000C700C7A0C850C6B0C2D35303020C3F6A3
:100CA000002D32353020C3F6002B3020C3F6002B48
:100CB00032353020C3F6002B35303020C3F600EE3D
:100CC000F8E8E1EAE000990CA10CA90CAF0CB70C14
:100CD000BF0CC4E8E0EFE0E7EEED3A2000EDE5F20E
:100CE00020E4E0EDEDFBF500F1EFE8F1EEEA0000C5
:100CF0000007000100020003000100000063000182
:100D00000000001200010012003600010000001671
:100D100000010000000100010000000400010000CB
:100D2000000400010001000900010000000A0001A8
:100D300000010032000A00000064000A000000FF09
:100D40000001000000FF00010000000A0001000196
:100D50000032000A00010032000A000000FF00011A
:100D6000000000FF0001000000040001000000017D
:100D70000001000800320001000000020001000034
:100D800000FF0001000000050001001000E8030161
:100D90000001000300010000000100010000001636
:100DA0000001000000160001000000E70301000040
:100DB00000E7030100010002000100010002000140
:100DC000000000B40001000000FF00010012005A02
:100DD000000100010003000100000001000100000B
:100DE0000014000100302E302E2E39392E3900CF5C
:100DF000F0EEF8E8E2EAE020502D555350202000B4
:100E0000CFF0EEF8E8E2EAE02041542D55535020AF
:100E100000CFF0EEF8E8E2EAE0204453502D5553BD
:100E20005000C4EEEFEEEBED2E20EFE0F0E0ECE54D
:100E3000F2F0FB00C2E8E420EFE0F0E0ECE5F2F0D5
:100E4000E000EF0D000E110E220E340EC5F1F2FC83
:100E500000CDE5F200510E4C0EF1F2E0EDE4E0F0D1
:100E6000F20048455800620E590E2ED1E1F0EEF125
:100E700020F1E2EEE5E3EE2E2020202020002ED10E
:100E8000E1F0EEF120F3E4E0EBE5EDEDEEE3EE2E44
:100E900020002ED1E1F0EEF120F3E4E0EBE5EDED02
:100EA000EEE3EE2031002ED1E1F0EEF120F3E4E0AC
:100EB000EBE5EDEDEEE3EE2032002ED1E1F0EEF1C8
:100EC00020F3E4E0EBE5EDEDEEE3EE2033002ECF92
:100ED000F3F1EA20F3E4E0EBE5EDEDEEE3EE2E20B6
:100EE00020002ECFF3F1EA20F3E4E0EBE5EDEDEEA8
:100EF000E3EE203120002ECFF3F1EA20F3E4E0EB23
:100F0000E5EDEDEEE3EE203220002ECFF3F1EA2006
:100F1000F3E4E0EBE5EDEDEEE3EE203320002ECF41
:100F2000F3F1EA20F3E4E0EBE5EDEDFBF520202022
:100F300020002EC0CA20E0E2F2EEECE0F2E8F7E595
:100F4000F1EAE8E920002EC0CA20F3F1EAEEF0E56C
:100F5000EDEDFBE92020202020002EC0CA20E2FB7E
:100F6000EAEBFEF7E5ED20202020202020002EC017
:100F7000CA20EAEEEDF2F02EEFF0EEE2E5F0EAE064
:100F800020002EC0CA20E8F1EFFBF2E0EDE8FF20E0
:100F90002020202020002EC0CA20EFF3F1EA2020DC
:100FA000202020202020202020002EC2FBE7EEE27F
:100FB00020202020202020202020202020002EC0A3
:100FC000CA20EDEEF0ECE0EBFCEDFBE92020202068
:100FD00020002EC0CA20E1E5E3EBFBE92020202021
:100FE0002020202020002ECFF3F1EA20F3E4E0EBD4
:100FF000E5ED2E20CCC0CD2020002EC0CA20EEE48E
:10100000EDEEF1F2EEF0EEEDEDE8E92020002ED16C
:10101000E1F0EEF120C0CA20202020202020202056
:1010200020002ECFF3F1EA20C0CA20F1E2EEE92041
:101030002020202020002ECFF3F1EA20C0CA20F388
:10104000E4E0EBE5EDEDFBE920002ECFF3F1EA2043
:10105000CFD0C420202020202020202020002ECFF0
:10106000F3F1EA20EDE0EBE0E42E20E2EAEB2E20C3
:1010700020002ECFF3F1EA20EDE0EBE0E42E20E2B9
:10108000FBEAEB2E20002ECFF3F1EA20F3E4E0EBB5
:101090002E20CCC0CD20312020002ECFF3F1EA202D
:1010A000F3E4E0EB2E20CCC0CD20322020002ECF68
:1010B000F3F1EA20F3E4E0EB2E20CCC0CD20332086
:1010C00020002ECFF3F1EA20F3E4E0EB2DFBF52036
:1010D000CCC0CD2020006A0E7E0E920EA60EBA0E57
:1010E000CE0EE20EF60E0A0F1E0F320F460F5A0FEB
:1010F0006E0F820F960FAA0FBE0FD20FE60FFA0FD8
:101100000E10221036104A105E10721086109A10BF
:10111000AE10C210C2FBEFEEEBEDE8F2FC001411D2
:1011200020202020204572726F7220202020202055
:1011300000CDE5E8F1EFF02EF7F22E20464C4153BA
:101140004800CDE5E8F1EFF02EE7E0EF2E464C4108
:10115000534800CDE5E8F1EFF02EF7F22E20504C89
:1011600049532000CDE5E8F1EFF02EE7E0EF2E50F7
:101170004C49532000CDE5E8F1EFF02EE7E0EF2EEB
:101180003252414D2000CDE5F220F1E8E3EDE0EBF5
:10119000E020CFD0CC2000C0CA2DD1EDE8E6E5EDAF
:1011A0002EE7E0EFE0F1E000CFEEECE5F5E020E245
:1011B00020EBE8EDE8E8202000CDE5E8F1EFF02EA7
:1011C000445350203252414D2000CDE5E8F1EFF07C
:1011D0002EF7F22E203252414D2000D2EEEA20EFBF
:1011E000EEEAEEFF2020202020202000CDE8E7EAD4
:1011F000EEE520EDE0EFF02EE2FBF52E00C2FBF174
:10120000EEEAEEE520EDE0EFF02EE2FBF500CDE5B5
:10121000E8F1EFF02E20CCCA20D3CC20202000C251
:10122000D720F2F0E0EAF220E2EEF1F1F22E200017
:101230003111421153116411751186119711A811C2
:10124000B911CA11DB11EC11FD110E121F12201180
:10125000C0CA2DCDE5F220EEF2E2E5F2E02020203A
:1012600000D3F1F2E0EDEEE2E8F2E520F7E0F1FB89
:101270002000CEF2EAE0E720F0E5E7E5F0E22EEB31
:10128000E8ED00D3E4E0EB2EEFEEF1F220EDE5E83F
:10129000F1EFF000D3E4E0EB2ECFD0C420EDE5E891
:1012A000F1EFF02E00D3E4E0EB2ECFD0CC20EDE533
:1012B000E8F1EFF02E00611272122011201183125A
:1012C0009412A5122011CDE5F220E1EBEEEAE02028
:1012D000C1D1C720202000CDE5E8F1EFF02EE2E5F6
:1012E000F0F12EC1D1C72000CDE5E8F1EFF02EEFEF
:1012F000E5F0E5EAEB2E202000CDE5E8F1EFF02E59
:10130000E7E0EF2E20C1D1C72000CDE5F220F1E8C3
:10131000E3EDE0EBE020CFD0CC2000CDE8E7EAE839
:10132000E920F3F02E20D0C720202000CDE5E8F101
:10133000EFF02EF3E4E0EB2EC4D4C72000CDE5E8B7
:10134000F1EFF02EF3E4E0EB2EC2DBD52E00CDE57D
:10135000E8F1EFF02EE2F5EEE42ECFD3D1CA00CDC6
:10136000E5E8F1EFF02EE2F5EEE42ED1D2CECF009B
:10137000D3E42ECFCED1D220E1E5E720EEF2E22E6B
:1013800000CDE5E8F1EFF02EF6E5EFFC2EC2DBD55F
:101390002000D3E42ECFCED1D220EEE1ED2EEFEE21
:1013A000EC2E00CDE5E8F1EFF02EE7E0EF2E20C2C5
:1013B000DBD52000C4EBE8F2E5EBFCED2E20EFEEF0
:1013C000ECE5F5E000CDE5E8F1EFF02E20C4D4C760
:1013D000202020202000C612D712E812F9120A138A
:1013E0001B132C133D134E135F13701381139213B1
:1013F000A313B413C513C0CA2DCDE5F220EEF2E25B
:10140000E5F2E020202000C0CA2DD1EDE8E6E5EDB0
:101410002EE7E0EFE0F1E000CDE5F220F1E8E3EDCA
:10142000E0EBE020CCC0CD2000CFEEF0EEE320EFEB
:10143000EE20EFEEECE5F5E52000C0E2F2EEEAEE9C
:10144000EDF2F0EEEBFC2020202000CDE5F220E1D3
:10145000EBEEEAE020C1D1CA20202000CDE5E8F182
:10146000EFF02EE2E5F0F12EC1D1CA2000CDE5F279
:1014700020CAD72020202020202020202000CFF0AC
:10148000E5E22EE4EB2DF1F2E82EEAEEEC2E00CDB3
:10149000E5E8F1EFF02EE7E0EF2E20C1D1CA200001
:1014A000CDE5E8F1EFF02EE2FBEAEB2ECAD1CA203F
:1014B00000CDE5E8F1EFF02EE2EAEB2E20CAD1CA2A
:1014C0002000CDE5E8F1EFF02EEAEEEDF2F02ECAC5
:1014D000D1CA00CFF0E5E4F3EFF02EEDE5F220CA3B
:1014E000D7312000CFF0E8E5EC20E1EBEEEA2E204A
:1014F000CAEEEC2E004B145C146D147E14201120E7
:1015000011201120118F14A014B114C214D314206F
:10151000112011E414D1EDE8E62E20F3F0EEE2ED17
:10152000FF20CFD0CC00CDE5F220E1EBEEEAE020C9
:10153000C1D1CA20202000CDE5E8F1EFF02EE2E590
:10154000F0F12EC1D1CA2000CDE5E8F1EFF02EF781
:10155000F22EEAEEECE0EDE400CDE5E8F1EFF02E5E
:10156000E2FBEAEB2ED2E5F1F200CDE5E8F1EFF097
:101570002EE2EAEB2E20D2E5F1F200CDE5E8F1EF24
:10158000F02EE2F5EEE42ECAD1CA2000261537155A
:10159000201120112011201120112011481559155A
:1015A0006A157B152011201120112011C3F0313A4A
:1015B00000C3F0323A00C3F0F3EFEFE0203100C394
:1015C000F0F3EFEFE0203200B61501BF1502E2FBA9
:1015D000EAEB00EEF8E8E100D0C700CAD73100CA54
:1015E000D73200CAD73300CAD73400CAEEEC310074
:1015F000CAEEEC3200CAEEEC3300CAEEEC3400CA9C
:10160000EEEC3500CAEEEC3600CAEEEC3700CAEE5E
:10161000EC3800CAEEEC3900CAEC313000CAEC31CB
:101620003100CAEC313200CAEC313300CAEC31343B
:1016300000CAEC313500CAEC313600CAEC31370053
:10164000CAEC313800CAEC313900CAEC323000CA79
:10165000EC323100CAEC323200CAEC323300CAEC50
:10166000323400CAEC323500CAEC323600CAEC32F1
:101670003700CAEC323800CAEC323900CAEC3330D9
:1016800000CAEC333100CAEC333200D315FFCE155B
:1016900000D81501DB1501DF1502E31503E715047A
:1016A000EB1503F01504F51505FA1506FF150704EB
:1016B00016080916090E160A13160B18160C1D1615
:1016C0000D22160E27160F2C161031161136161273
:1016D0003B16134016144516154A16164F16175486
:1016E00016185916195E161A63161B68161C6D1605
:1016F0001D72161E77161F7C162081162186162253
:10170000D2E5F1F2203100D2E5F1F22032000017EB
:101710000717CD2EF7F22E464C41534800CD2EE749
:10172000EF2E464C41534800CD2EF7F22E504C4937
:10173000532000CD2EE7EF2E504C49532000CD2EE4
:10174000E7EF2E3252414D2000CD2EF7F22E3252CD
:10175000414D2000CD2EF0E0E12E4453502000C238
:10176000EEF1F22EF02E44535000CDE8E7EA2E20A1
:1017700055E2FBF500C2FBF12E2055E2FBF52000FF
:10178000CD2EF1E22E20F120D3CC00CD2E20F7E09B
:10179000F1EEE2202000CDE5F220E1EB2EC1D1C731
:1017A00000CD2EE2E5F0F12EC1D1C700CD2EEFE540
:1017B000F02E20C1D1C700CDE5F220F12E20CCC003
:1017C000CD00CFE5F0E5E7E0EFF3F1EA00C8E7ECA4
:1017D0002EF0E5E6E8ECE000CEF82EE7E0EFE8F1E9
:1017E000E82000CEF82EEAEEEDF2F02E2000D1ED4A
:1017F000E8E62EF32ECFD0CC00CDE5F220F12E205E
:10180000CFD0CC00CDE5F220F12ECFD3D1CA00ED60
:10181000E5F220F12ED1D2CECF00C2FBEAEBFEF7EB
:10182000E5EDE8E5005F00D1E2FFE7FC20F120CF25
:10183000CA002E0030303030001C75247528752900
:051840007524753C75E4
:101846000100A6100A004B0E650E940EBA0E000F8C
:101856004A0F9B0FB20FC40FD60F1100C5110C0013
:10186600B910EA1030117C11A111C511C511B910BA
:10187600EA1030117C11A1113500761D0900D4192A
:10188600E719131A871AA71AA91BCE1CF61C641D82
:101896000001017228332801332801332801332837
:1018A6000133280133280133280A38280138280152
:1018B60038280138280138280138280B3D28013DF1
:1018C60028013D28013D28013D280B4228014628D4
:1018D600014A28024E2801522801522801522801A5
:1018E60052280152280152280152280152288557B0
:1018F60028016F280F5D28016F280F6328016F28C4
:101906000F6928016F28FB00000100B12B07006357
:101916002B6E2B7B2B862B912B9C2BA72B00001140
:10192600004A2C0600BF2BCA2BD92BFE2B1F2C409E
:101936002C00002100C22C0500582C632C722C812F
:101946002CA22C0000000F2F09005E2EAF2DBF2DFC
:10195600CF2DE52D012E1D2E392E442E0035007972
:101966002F09001D2F282F332F3E2F492F542F6468
:101976002F792F6F2F007701E935E13504D935022C
:10198600D13501C93539E53504DD3502D53501CD09
:101996003519E33504DB3502D33501CB3509E73597
:1019A60004DF3502D73501CF35FB0000B937150006
:1019B60072377237743772377437743774377437CF
:1019C600723774377437B337743772377237743780
:1019D600743774377237723774370701F84D644DB0
:1019E600016F4D01794D01794D01834D018D4D01F9
:1019F6008D4D049D4D01A74D01A74D06B74D01B76D
:101A06004D01C14D01C94D01D74D01E14D1BE94DB8
:101A16007DF14DFB2301715C53550D0B5401DE50D6
:101A2600011051017B5101EE5101C95201E25201EF
:101A3600B15301C1530102540A1F5401C554015642
:101A460055081454083C54FB0101725CF651010917
:101A560052020C52011052011352011B5201445200
:101A660001895201AC52021752011B520144520124
:101A7600895201AC5206C05201C452FB0101725C8C
:101A8600EA5201FD52050053012953017053019496
:101A96005303005301295301705301945306A8536D
:101AA60001AC53FB0200725C160027542A542A54D8
:101AB6002A542A542D542D542D542D543154315416
:101AC6003454345434543454725C2A542A543154A1
:101AD60038542A542A54000043570900A856B856C9
:101AE600C856D856EC56005714572457345700009A
:101AF6003F5B1500CE59DE59EE59FE590E5A1E5A55
:101B06002E5A3E5A4E5A5E5A715A865A9C5AA85AAC
:101B1600BB5ACE5AE15AF45A075B1A5B2D5B070093
:101B2600805F1000A45EF15E2F5FB05E805F805F15
:101B3600A45EF15E2F5FB05E805F805F425F475FAD
:101B46004C5F7B5F01001A610C0011601160196027
:101B5600356035601A611A6111601160196035606F
:101B660035600100A7701700BA64A965DF65F865DE
:101B760041669D66D266DF6AE76BDB6750699D66E4
:101B8600D266DF6AE76BDB67A770956CB66C286D6B
:101B9600E26DD46F40700000D66709003D674E675E
:101BA60057676067716782679367A467B5670000C8
:101BB6004C6915002A683B684C68556866686F680A
:101BC600786881688A689B68A468B568B568D468CF
:101BD600E568F668FF68086911692269336930E0CB
:101BE60042E007C050E0F801E40FF51F5081350FC1
:101BF60043954217B8F3032F0895EDE1F6E02081EF
:101C0600206120830093600601E000936106109333
:101C1600620625E00EE516E0E2DF10E00093C00460
:101C26001093C1040091C0040093630606E00E946D
:101C3600452708959A938A93812FEDE1F6E0108166
:101C4600106110830093600680936106282F2C5F35
:101C56000EE516E0C4DF10E00093C0041093C10443
:101C66000091C00490E0FC01E25AF94F04838B5FB7
:101C7600082F0E9445278991999108950E94E97439
:101C8600A0912206E6E4F0E0FBBFF8E10C94A17413
:101C9600B0E0EFEEFCE005911491A017B10740F01B
:101CA600E1EFFCE005911491B0E00A171B0738F448
:101CB600E1EFFCE0059103950093A20444C2A093D2
:101CC600A20441C2A395B0E0E5EFFCE005911491B2
:101CD600A017B10740F0E7EFFCE005911491B0E0E2
:101CE6000A171B0720F40FE3009379032CC20A2F6F
:101CF600005D009379030091AF0B0A1789F0A0935A
:101D0600AF0B0E94FB3F0E9475380E942B3B01E0FF
:101D16000E94DC3B0E944A3E0E948F3F0E94FB3F8E
:101D260012C2B0E0EBEFFCE005911491A017B107E9
:101D360040F0EDEFFCE005911491B0E00A171B07A7
:101D460038F40FE3009384030FE300938503FBC18C
:101D56004AE00A2F0E94FC73005D009384034AE068
:101D66000A2F0E94FC73405D40938503ECC10091ED
:101D7600AE0B013039F4E1E0FDE04590E3E0FDE033
:101D8600859102C0442486E3A41510F08A1738F41E
:101D96000FE300938D030FE300938E030EC04AE01A
:101DA6000A2F0E94FC73005D00938D034AE00A2F00
:101DB6000E94FC73405D40938E030091AF0B03308D
:101DC600D9F4A0912306A41510F08A1738F40FE36E
:101DD600009395030FE300939603B5C14AE00A2FDB
:101DE6000E94FC73005D009395034AE00A2F0E944F
:101DF600FC73405D40939603A6C10091AE0B013083
:101E060039F4E7E0FDE04590E9E0FDE0859102C0A8
:101E1600442486E3A41510F08A1738F40FE30093E0
:101E2600A1030FE30093A2038EC14AE00A2F0E948A
:101E3600FC73005D0093A1034AE00A2F0E94FC7325
:101E4600405D4093A2030091AE0B0230F9F400917D
:101E5600AF0B0330D9F4A0912306A41510F08A170E
:101E660038F40FE30093A9030FE30093AA036BC1B1
:101E76004AE00A2F0E94FC73005D0093A9034AE022
:101E86000A2F0E94FC73405D4093AA035CC1B0E038
:101E9600EDE0FDE005911491A017B10740F0EFE0E9
:101EA600FDE005911491B0E00A171B0738F40FE323
:101EB6000093B5030FE30093B6030EC04AE00A2F62
:101EC6000E94FC73005D0093B5034AE00A2F0E944E
:101ED600FC73405D4093B6030091AF0B033039F5B8
:101EE600A0912306B0E0EDE0FDE005911491A01766
:101EF600B10740F0EFE0FDE005911491B0E00A175C
:101F06001B0738F40FE30093BB030FE30093BC03F6
:101F16001AC14AE00A2F0E94FC73005D0093BB03BE
:101F26004AE00A2F0E94FC73405D4093BC030BC13C
:101F3600B0E0E3E1FDE005911491A017B10740F090
:101F4600E5E1FDE005911491B0E00A171B0720F4C6
:101F560002E00093C503F7C0A093C503F4C0EBE10C
:101F6600FDE005911491B0E00A171B0738F4EBE188
:101F7600FDE0059103950093C603E5C0A093C60353
:101F8600E2C0E1E2FDE005911491B0E00A171B07FB
:101F960038F4E1E2FDE0059103950093C703D3C051
:101FA600A093C703D0C0B0E0E5E2FDE0059114912F
:101FB600A017B10740F0E7E2FDE005911491B0E00B
:101FC6000A171B0720F400E000932B0AB9C0A09360
:101FD6002B0A0091F00A002329F40091F00A05303B
:101FE60008F0AEC00091F00A015049F00A95E9F1F7
:101FF6000A9509F470C00A9509F46DC0A1C0009154
:10200600230610E020E0322F212F102F00E0409110
:10201600240650E060E070E0040F151F261F371FEE
:10202600322F212F102F00E04091250650E060E06E
:1020360070E0040F151F261F371F322F212F102F78
:1020460000E04091260650E060E070E0040F151FA6
:10205600261F371F48EE53E060E070E00E9476745A
:1020660000932C0A10932D0A6BC00091230610E0F2
:1020760020E0322F212F102F00E04091240650E05F
:1020860060E070E0040F151F261F371F322F212F27
:10209600102F00E04091250650E060E070E0040F4C
:1020A600151F261F371F322F212F102F00E04091BA
:1020B600260650E060E070E0040F151F261F371F4C
:1020C60048EE53E060E070E00E94767400932C0ABC
:1020D60010932D0A35C00091230610E020E0322F20
:1020E600212F102F00E04091240650E060E070E0C0
:1020F600040F151F261F371F322F212F102F00E028
:102106004091250650E060E070E0040F151F261F81
:10211600371F322F212F102F00E04091260650E066
:1021260060E070E0040F151F261F371F48EE53E0CE
:1021360060E070E00E94767400932C0A10932D0ADA
:1021460001E00093B00201E00093040A01E000936D
:10215600020AE6E00C94F3740E94EB74802F082FB9
:10216600E0E6F0E0FBBFF8E10C94A174813119F4CC
:10217600A8ECB3E002C0A1E1B4E00091220610E0B1
:10218600EBE2FDE0259134910217130750F0EDE2E2
:10219600FDE0259134910091220610E020173107C9
:1021A60030F40FE30C930FE3FD010183EBC00091C4
:1021B60022064AE00E94FC73005D0C930091220601
:1021C6004AE00E94FC73405DFD014183DBC0823121
:1021D60019F4AEECB3E002C0A7E1B4E00091220628
:1021E60010E0E1E3FDE0259134910217130750F06A
:1021F600E3E3FDE0259134910091220610E02017DB
:10220600310748F40FE30C930FE3FD0101830FE35D
:10221600FD010283B7C0009122060A3058F40091EE
:102226002206005D0C9300E3FD01018300E2FD013F
:102236000283A8C0009122064AE00E94FC73005D5A
:102246000C93009122064AE00E94FC73405DFD015A
:10225600418300E3FD01028395C0833119F4AFEA9F
:10226600BAE002C0AFECBAE000E00093C50413C0C8
:102276000091C50410E0F801E25EF94F2481009157
:10228600C50410E0FD01E00FF11F20830091C50495
:1022960003950093C5040091C5041091210601170A
:1022A60038F50091C50410E0F801E25EF94F0481AB
:1022B60010E0E7E3FDE0259134910217130778F06B
:1022C600E9E3FDE0259134910091C50410E0F801A1
:1022D600E25EF94F048110E02017310748F60FEF50
:1022E6002091C50430E0FD01E20FF31F0083CECF3D
:1022F60049C0843119F4A9EFB3E002C0A2E4B4E006
:1023060000E00093C50413C00091C50410E0F80175
:10231600E25EF94F24810091C50410E0FD01E00F53
:10232600F11F20830091C50403950093C504009115
:10233600C50410912106011738F324C0853119F41C
:10234600ADEFB3E002C0A6E4B4E000E00093C5043C
:1023560013C00091C50410E0F801E25EF94F248134
:102366000091C50410E0FD01E00FF11F20830091EC
:10237600C50403950093C5040091C5041091210678
:10238600011738F301E00093040A01E00093020A02
:10239600E4E00C94F574015261F00A9561F10A9536
:1023A60009F46BC00A9509F4AAC00A9509F4C5C0D8
:1023B600E1C0EBE4FDE0259134910091220610E0A6
:1023C6002017310738F40FE300934A040FE3009314
:1023D6004B04D0C0009122064AE00E94FC73005DC7
:1023E60000934A04009122064AE00E94FC73405D75
:1023F60040934B04BFC00091220610E0EFE4FDE0DD
:10240600259134910217130750F0E1E5FDE025917F
:1024160034910091220610E02017310750F40FE3A3
:10242600009350040FE3009351040FE3009352040A
:10243600A1C0009122060A3060F400912206005DD8
:102446000093500400E30093510400E20093520409
:1024560091C0009122064AE00E94FC73005D009341
:102466005004009122064AE00E94FC73405D4093AE
:10247600510400E3009352047DC00091220610E04F
:10248600E5E5FDE0259134910217130750F0E7E5E5
:10249600FDE0259134910091220610E020173107C6
:1024A60050F40FE3009357040FE3009358040FE32F
:1024B600009359045FC0009122060A3060F400912F
:1024C6002206005D0093570400E30093580400E2DF
:1024D600009359044FC0009122064AE00E94FC7303
:1024E600005D00935704009122064AE00E94FC73A7
:1024F600405D4093580400E3009359043BC000E05C
:102506000093C50413C00091C50410E0F801E25E13
:10251600F94F24810091C50410E0F801EE58FB4FF5
:1025260020830091C50403950093C5040091C5045A
:1025360010912106011738F31DC000E00093C50471
:1025460013C00091C50410E0F801E25EF94F248142
:102556000091C50410E0F801EA58FB4F2083009172
:10256600C50403950093C5040091C5041091210686
:10257600011738F301E00093040A01E00093020A10
:10258600089540E020C050E003E010E00E941A7475
:10259600F801E25EF94F2581042F10E0000F111FAC
:1025A600F801E459FC4F218350E003E010E00E945B
:1025B6001A74F801E25EF94F068150E0FA01EB5811
:1025C600FC4F008343954430E0F550E003E010E013
:1025D6000E941A74F801E25EF94F0481063050F049
:1025E6002EE4042F10E0000F111FF801E459FC4FF0
:1025F600208311C050E003E010E00E941A74F80135
:10260600E25EF94F2481042F10E0000F111FF8013C
:10261600E459FC4F208350E003E010E00E941A7456
:10262600F801E25EF94F05810C3008F4ACCF2EE4D8
:10263600042F10E0000F111FF801E459FC4F21830D
:10264600B3CF01E00093040A089500E00BC010E048
:10265600F801E25EF94F248110E0F801EF5EF54FD4
:1026660020830395043198F300911D0A002321F479
:1026760000911E0A002321F001E00093B40B03C071
:1026860000E00093B40B00911F0A002321F400918F
:10269600200A002321F001E00093B50B03C000E0FF
:1026A6000093B50B0091110A002321F40091120A40
:1026B600002321F001E00093B60B03C000E0009375
:1026C600B60B0091130A002321F40091140A00238B
:1026D60021F001E00093B70B03C000E00093B70BB5
:1026E6000091150A002321F40091160A002321F017
:1026F60001E00093B80B03C000E00093B80B009113
:10270600170A002321F40091180A002321F001E0A2
:102716000093B90B03C000E00093B90B0091190AAE
:10272600002321F400911A0A002321F001E000930E
:10273600BA0B03C000E00093BA0B00911B0A0023FA
:1027460021F400911C0A002321F001E00093BB0B49
:1027560003C000E00093BB0B0091210A002321F483
:102766000091220A002321F001E00093BC0B03C074
:1027760000E00093BC0B0091230A002321F4009192
:10278600240A002321F001E00093BD0B03C000E002
:102796000093BD0B01E00093040A0895BC0100916B
:1027A60022060F70005D0093C50200912206029575
:1027B6000F70005D0093C402009123060F70005D48
:1027C6000093C2020091230602950F70005D0093EC
:1027D600C102009124060F70005D0093BF020091B4
:1027E600240602950F70005D0093BE020091250637
:1027F6000F70005D0093C8020091250602950F70C8
:10280600005D0093C702009126060F70005D0093DD
:10281600CB020091260602950F70005D0093CA0256
:10282600009127060F70005D0093CE0200912706E7
:1028360002950F70005D0093CD0200E00093C40482
:1028460008C000E00093A7020091C404039500931A
:10285600C4040091C4040830A8F50091C40410E033
:10286600F801E254FD4F008100530A3078F00091E0
:10287600C40410E0F801E254FD4F00810E3231F03D
:102886000091A60203950093A60203C000E0009300
:10289600A6020091C40410E0F801E953FD4F00813F
:1028A60000530A3070F20091C40410E0F801E953B5
:1028B600FD4F00810A3329F20091A7020395009388
:1028C600A702C2CF8091C50290E04091C40250E0B9
:1028D6000AE010E00E941A74800F911F8051924006
:1028E600843600E090072CF00091A6020395009331
:1028F600A6028091C20290E04091C10250E00AE037
:1029060010E00E941A74800F911F805192408D3002
:1029160090402CF00091A60203950093A6028091A8
:10292600BF0290E04091BE0250E00AE010E00E9433
:102936001A74800F911F80519240803290402CF083
:102946000091A60203950093A6028091C80290E02A
:102956004091C70250E00AE010E00E941A74800F0E
:10296600911F80519240893190402CF00091A7022E
:1029760003950093A7028091CB0290E04091CA0292
:1029860050E00AE010E00E941A74800F911F8051F7
:1029960092408D3300E090072CF00091A70203953A
:1029A6000093A7028091CE0290E04091CD0250E0C4
:1029B6000AE010E00E941A74800F911F8051924025
:1029C6008D3300E090072CF00091A7020395009349
:1029D600A7020091A602002351F100E30093C5026D
:1029E60000E30093C40200E30093C20200E30093F5
:1029F600C10200E30093BF0200E30093BE0200E0C1
:102A06000093A60200E00093C4040091C4040330BE
:102A160048F500E02091C40430E0F901E056FD4F8E
:102A260000830091C40403950093C404EECF00E034
:102A36000093C40413C00091C40410E0F801E25EE0
:102A4600F94F24810091C40410E0F801E056FD4FCF
:102A560020830091C40403950093C4040091C40428
:102A6600033048F30091A702002351F100E30093DD
:102A7600C80200E30093C70200E30093CB0200E321
:102A86000093CA0200E30093CE0200E30093CD0256
:102A960000E00093A70200E00093C4040091C40480
:102AA600033048F500E02091C40430E0F901E05617
:102AB600FD4F03830091C40403950093C404EECF35
:102AC60000E00093C40413C00091C40410E0F801B0
:102AD600E25EF94F27810091C40410E0F801E05648
:102AE600FD4F23830091C40403950093C404009111
:102AF600C404033048F301E00093040A01E00093A4
:102B0600B002CB0108950E94EA74D801822F942F57
:102B1600452E3A95082F07C020E210E0FD01E00F90
:102B2600F11F208303950830B8F300E8401658F0EB
:102B36000FEF402643942DE2082F10E0FD01E00F31
:102B4600F11F20838395042D10E0432F0E942474E7
:102B5600402E03E64016C8F44AE0042D0E94FC739A
:102B6600005D282F30E0FD01E20FF31F00838395FF
:102B76004AE0042D0E94FC73405D082F10E0FD0121
:102B8600E00FF11F4083839510C02FE3082F10E05C
:102B9600FD01E00FF11F208383952FE3082F10E03E
:102BA600FD01E00FF11F20838395915019F09A954E
:102BB60039F012C003EE90E0A80FB91F0C930CC0B9
:102BC60004EE90E0FD01E80FF91F008301EC90E0B0
:102BD600A80FB91FFD010183E5E00C94F4740E946F
:102BE600E9742801A22FB42FCB016E817F813A951B
:102BF6000A2F07C020E210E0F201E00FF11F208348
:102C060003950830B8F3432F8C010E942474C80141
:102C16008617970708F067C0883E03E0900710F113
:102C260048EE53E08C010E942774202F0A2F10E0F3
:102C3600F201E00FF11F20830A2F10E0F201E00FEE
:102C4600F11F408150E008EE13E00E941A74801BC9
:102C5600910B0A2F10E0F201E00FF11F0081005DD9
:102C66000083A395843600E0900710F144E650E017
:102C76008C010E942774202F0A2F10E0F201E00F2A
:102C8600F11F20830A2F10E0F201E00FF11F4081AF
:102C960050E004E610E00E941A74801B910B0A2F84
:102CA60010E0F201E00FF11F0081005D0083A395A3
:102CB6004AE050E08C010E942774005D2A2F30E024
:102CC600F201E20FF31F0083A3954AE050E08C0166
:102CD6000E942774405D0A2F10E0F201E00FF11FF9
:102CE6004083A39510C02FE30A2F10E0F201E00FF6
:102CF600F11F2083A3952FE30A2F10E0F201E00FC6
:102D0600F11F2083A395B15019F0BA9571F013C045
:102D16000CEEB0E0F201EA0FFB1F008300ECB0E01E
:102D26004A0E5B1EF201018306C005E2B0E04A0EC0
:102D36005B1EF2010083E8E00C94F374432F429586
:102D46004F704A3018F0495C542F02C0405D542F32
:102D5600452F622F70E0F801E60FF71F40833F70A2
:102D6600432F4A3018F0495C342F02C0405D342F9F
:102D7600432F30E0020F131FF801418308950E948C
:102D8600E97480912206A091230600E010E00093EA
:102D9600430B1093440B082F0D59073C20F40A2FC0
:102DA600065A053B50F00FE300933C0B0FE30093EC
:102DB6003D0B00E000933E0B84C04424242D422E9C
:102DC6004394082F0A2B0078002311F00DE201C06E
:102DD6000BE230E0F901E45CF44F008388231AF437
:102DE60000E0081B802FAA231AF400E00A1BA02F7C
:102DF600082F0A2B002331F400E300933C0B00E07C
:102E060000933D0B8A305CF04AE0082F0E940A745A
:102E1600005D5524F201E45CF44F008343944AE0DC
:102E2600082F0E940A74405D5524F201E45CF44FB9
:102E3600408343940EE25524F201E45CF44F008390
:102E460043944AE00A2F0E940A74005D5524F20159
:102E5600E45CF44F0083439402EC5524F201E45CF5
:102E6600F44F0083439400E05524F201E45CF44FF0
:102E760000834394482F542F550F550B0AE010E05A
:102E86000E941A74C8010A2F102F110F110B4AE065
:102E960050E00E943F74800F911F8093430B9093E4
:102EA600440B00913C0B0D3261F400E010E02091E0
:102EB600430B3091440B021B130B0093430B1093EF
:102EC600440BA1E0B6C02DE24A2F50E009E010E025
:102ED6000E941A74ECE3FBE0E00FF11F032F10E0F1
:102EE600E00FF11F208399232AF40FEF1FEF8027AD
:102EF60091270196843600E09007D4F144E650E02D
:102F06008C010E943F74202F4A2F50E009E010E008
:102F16000E941A74ECE3FBE0E00FF11F5524E40D68
:102F2600F51D20834A2F50E009E010E00E941A7434
:102F3600ECE3FBE0E00FF11F5524E40DF51D4081A5
:102F460050E004E610E00E941A74801B910B4A2F91
:102F560050E009E010E00E941A74ECE3FBE0E00F99
:102F6600F11F5524E40DF51D0081005D0083439497
:102F76008A3000E09007B4F04AE050E08C010E94ED
:102F86003F74202F205D4A2F50E009E010E00E9498
:102F96001A74ECE3FBE0E00FF11F5524E40DF51D78
:102FA600208343944AE050E08C010E943F74242F12
:102FB600205D4A2F50E009E010E00E941A74ECE30D
:102FC600FBE0E00FF11F5524E40DF51D208343942B
:102FD6002CEE4A2F50E009E010E00E941A74ECE350
:102FE600FBE0E00FF11F5524E40DF51D208343940B
:102FF60020EC4A2F50E009E010E00E941A74ECE33E
:10300600FBE0E00FF11F5524E40DF51D20834394EA
:1030160020E04A2F50E009E010E00E941A74ECE329
:10302600FBE0E00FF11F5524E40DF51D20834394CA
:10303600A395A33008F07AC00A2F10E0000F111FE5
:10304600F801E25EF94F948180E00A2F10E0000F4C
:10305600111FF801E25EF94F058110E0800F911F04
:1030660020E030E04A2F50E009E010E00E941A7498
:10307600F801E45CF44F278330878C0109511C4F1B
:103086000F3C27E0120710F12FE34A2F50E009E02A
:1030960010E00E941A74F801E45CF44F20832FE3D9
:1030A6004A2F50E009E010E00E941A74F801E45C2F
:1030B600F44F218320E04A2F50E009E010E00E94FF
:1030C6001A74F801E45CF44F2283B2CF082F092B5F
:1030D600B9F420E34A2F50E009E010E00E941A7488
:1030E600F801E45CF44F208320E04A2F50E009E029
:1030F60010E00E941A74F801E45CF44F218398CF23
:1031060044244A2F50E009E010E00E941A74F801A6
:10311600E45CF44F87839087342D432E43948130AB
:1031260000E090070CF4CFCE2BE2CECEE6E00C9476
:10313600F3740091220610E0E9EDFDE0259134914B
:103146000217130740F0EBEDFDE02591349110E0F6
:103156002017310720F4EBEDFDE005910395009370
:103166003B0B08959A938A9300912206002309F057
:1031760007C15091230641E032E022E004EF12E05D
:10318600C2DC3091230623E009ED12E0D7DD309151
:10319600240625E009ED12E0D1DD3091250620E078
:1031A6000091260610E0200F311F20930F0A30935E
:1031B600100A08EE13E01A930A9360910F0A7091B1
:1031C600100A41E031E023E00DEF12E008DD009146
:1031D60028064AE00E94FC7300931D0340912706CF
:1031E60050E00AE010E00E941A7420911D0330E0BE
:1031F600020F131F00930D0A10930E0A80910D0AF9
:1032060090910E0A0096883E03E0900720F4009104
:103216001D030A3080F000E010E000930D0A1093C1
:103226000E0A0FE300931A030FE300931B030FE349
:1032360000931D0315C0009127064AE00E94FC7307
:10324600005D00931A03009127064AE00E94FC7372
:10325600405D40931B0300911D03005D00931D0319
:103266005091290642E031E023E00AE213E04BDC0C
:103276000091AF0B033041F450912A0642E031E051
:1032860023E003E313E03FDC00912B0A043051F402
:1032960000916C03043030F400E000932B0600E04C
:1032A60000932C0650912B0642E031E023E00CE31C
:1032B60013E029DC0091AF0B033041F450912C064A
:1032C60042E031E023E005E413E01DDC50912D06D9
:1032D60042E031E023E001E213E015DC04E610E011
:1032E6001A930A9360912E0670E042E031E024E0E2
:1032F60006E013E074DC30912E0623E002EE12E0C5
:103306001DDD90912F0680E00091300610E0800FC1
:10331600911F8C01085E1340083223E21207B0F4B5
:1033260048EE53E08C010E942774009312034091EB
:10333600120350E008EE13E00E941A74801B910BF2
:1033460000911203005D0093120303C000E3009393
:10335600120308EE13E01A930A93BC0143E031E02E
:1033660025E00FE013E03BDC30912F0623E00BEE67
:1033760012E0E4DC3091300625E00BEE12E0DEDCF4
:1033860001E00093B10201E00093040A899199914A
:1033960008959A938A93EEE7F0E0FBBFF8E10C9468
:1033A600A174EFE6FDE0259134910091220610E02C
:1033B6002017310720F402E000937A0494C30091A9
:1033C600220600937A048FC30091220610E0E3E7F9
:1033D600FDE0259134910217130750F0E5E7FDE073
:1033E600259134910091220610E02017310738F418
:1033F6000FE300937B040FE300937C0474C30091F6
:1034060022064AE00E94FC73005D00937B04009153
:1034160022064AE00E94FC73405D40937C0463C32D
:10342600E9E6FDE0259134910091220610E020178F
:10343600310750F4E9E6FDE0059103950093EF0AA4
:103446000FEF0093F00A4FC3009122060093EF0A94
:103456000091EF0A1091F00A011709F444C3009194
:10346600EF0A0093F00A0E9475380E942B3B01E098
:103476000E94DC3B0E944A3E0E948F3F0E94FB3F17
:103486000091B3020A3021F00091B302003181F4B9
:103496000091F10A0A9500935A0B00915A0B10916C
:1034A600590B011780F500915A0B0093590B1BC35A
:1034B6000091B302073021F00091B3020D3081F480
:1034C6000091310A0A9500935A0B00915A0B1091FC
:1034D600590B0117C0F400915A0B0093590B03C303
:1034E6000091B302063179F400915B0A0350009310
:1034F6005A0B00915A0B1091590B011720F40091A9
:103506005A0B0093590BEFC2009122064AE00E9423
:10351600FC73405D40938304009122064AE00E94BA
:10352600FC7300932206009122064AE00E94FC7377
:10353600405D40938204009122064AE00E94FC739B
:10354600005D00938104CFC20091AE0B023081F47E
:1035560080912206E7E8FDE00591149190E00817B6
:10356600190710F480E301C0805D80938504C1C211
:103576000091EF0A043041F58091220690E0EFEDCC
:10358600FDE0059114918017910740F0E1EEFDE012
:103596000591149190E00817190738F40FE300938A
:1035A6009B040FE300939C049EC24AE0082F0E94EE
:1035B600FC73005D00939B044AE0082F0E94FC7395
:1035C600405D40939C048FC28091220690E0E5EB1B
:1035D600FDE0059114918017910740F0E7EBFDE0BF
:1035E6000591149190E00817190720F4E7EBFDE028
:1035F6008591839580931A0B8091230690E0EBEBDF
:10360600FDE0059114918017910740F0EDEBFDE088
:103616000591149190E00817190720F4EDEBFDE0F1
:103626008591839580931B0B8091240690E0E1ECB5
:10363600FDE0059114918017910740F0E3ECFDE061
:103646000591149190E00817190750F40FE30093C1
:103656001C0B0FE300931D0B0FE300931E0B1AC008
:103666004AE0082F0E94FC73405D40931E0B4AE01F
:10367600082F0E94FC73802F4AE0082F0E94FC73DB
:10368600405D40931D0B4AE0082F0E94FC73005DCD
:1036960000931C0B809125064AE0082F0E94FC73BC
:1036A600405D4093280B4AE0082F0E94FC73802F50
:1036B6004AE0082F0E94FC73405D4093270B4AE0C6
:1036C600082F0E94FC73005D0093260B809126064E
:1036D60090E0EDECFDE0059114918017910740F024
:1036E600EFECFDE00591149190E00817190738F406
:1036F6000FE30093300B0FE30093310B0EC04AE04B
:10370600082F0E94FC73005D0093300B4AE0082FDF
:103716000E94FC73405D4093310B8091270690E038
:10372600E3EDFDE0059114918017910740F0E5ED7A
:10373600FDE00591149190E00817190720F4E5EDD6
:10374600FDE08591839580933A0BCDC13091220699
:1037560020E00091230610E0200F311F2093C204C1
:103766003093C30400E0009322060091C204109136
:10377600C304EBE8FDE0259134910217130720F40A
:1037860001E0009322060EC0EDE8FDE005911491DC
:103796002091C2043091C3040217130718F401E004
:1037A60000932206009122060023F9F00FE300930E
:1037B6008B040FE300938C040FE300938D0400E267
:1037C60000938E040AEE00938F0403EC009390049A
:1037D60006EF009391040FE30093D0020FE30093EA
:1037E600D1020FE30093D202D2C00091C20410911D
:1037F600C304043620E0120730F54AE050E0009199
:10380600C2041091C3040E942774005D00938B04C8
:103816004AE050E00091C2041091C3040E9427744C
:10382600405D40938C0400E200938D040AEE009301
:103836008E0403EC00938F0406EF0093900400E2DD
:103846000093910498C00091C2041091C304083EED
:1038560023E01207D0F544E650E00091C20410912F
:10386600C3040E942774005D00938B0444E650E075
:103876000091C2041091C3040E9427744093C204AD
:103886005093C3044AE050E00091C2041091C3046F
:103896000E942774005D00938C044AE050E000917A
:1038A600C2041091C3040E942774405D40938D04A6
:1038B60000E200938E040AEE00938F0403EC00935B
:1038C600900406EF0093910456C00091C204109133
:1038D600C304003127E2120708F04DC048EE53E05A
:1038E6000091C2041091C3040E942774005D0093E6
:1038F6008B0448EE53E00091C2041091C3040E9469
:1039060027744093C2045093C30444E650E00091E8
:10391600C2041091C3040E942774005D00938C04B6
:1039260044E650E00091C2041091C3040E9427743B
:103936004093C2045093C3044AE050E00091C2048D
:103946001091C3040E942774005D00938D044AE021
:1039560050E00091C2041091C3040E942774405D98
:1039660040938E040AEE00938F0403EC00939004B8
:1039760006EF0093910400918B040093D00200910E
:103986008C040093D10200918D040093D20201E0D1
:103996000093B002A8C00091220610E0E1E9FDE024
:1039A600259134910217130750F0E3E9FDE02591C4
:1039B60034910091220610E02017310738F40FE306
:1039C600009393040FE30093D70209C000912206E7
:1039D600005D00939304009193040093D70201E0E5
:1039E6000093B00280C0EFE9FDE02591349100918B
:1039F600220610E02017310738F40FE300939504F0
:103A06000FE30093960410C0009122064AE00E943C
:103A1600FC73005D00939504009122064AE00E9423
:103A2600FC73405D40939604E5EAFDE025913491F0
:103A36000091230610E02017310738F40FE30093B6
:103A460001040FE30093020413C0009123064AE029
:103A56000E94FC73005D00930104009123062091EF
:103A6600010420531AE0219F0019005D009302040F
:103A76000091AF0B0330B9F5EFE9FDE025913491E4
:103A86000091240610E02017310738F40FE3009365
:103A960007040FE30093080426C0009124064AE0B9
:103AA6000E94FC73005D0093070400912406209198
:103AB600070420531AE0219F0019005D00930804B3
:103AC60012C0E9E9FDE0259134910091220610E04B
:103AD6002017310720F402E00093A10404C00091EE
:103AE60022060093A10401E00093040A01E000937A
:103AF600020A89919991089540E001E00093040A31
:103B060001E00093020A0FE010E0209120062295C2
:103B16002F7030E0021B130B20918F0B30E0F90160
:103B2600E257F44F228130E00217130709F441E00F
:103B3600009120060F700130D9F44423C9F000919A
:103B46002306002359F000E011E00093950B109333
:103B5600960B009122060093970B0AC0009122064D
:103B660010E00093950B1093960B00E00093970BD3
:103B7600009120060F700230E1F4442379F000E052
:103B86000031B8F410E0F801E25EF94F248110E04C
:103B9600F801E257F44F22870395F2CF00E007C001
:103BA60020E010E0F801E257F44F22870395003138
:103BB600B8F3089520E070E021E000912206702F0E
:103BC600072F0F700023A9F070FB16F423E003C043
:103BD60071FB0EF424E00091AF0B0330E9F52130C0
:103BE600D9F572FB16F425E037C073FBAEF526E077
:103BF60033C00091A90B002321F40091AA0B0023E6
:103C060059F10091AA0B1091A90B011718F4009114
:103C1600A90B02C00091AA0B602FE3E2F6E037E0A1
:103C260070813196772381F050E001C0539558306A
:103C360058F4452F01E010E00E942474172F10233A
:103C46001123A1F3232F250F385F213011F468507B
:103C560001C060E0613024F72093060C0091A80BA8
:103C6600002349F07091220674FB16F422E001C08D
:103C760021E02093DC0B01E00093040A01E00093AD
:103C8600020A089511E000E000938E0B00E0009315
:103C9600900B00912206013091F401E00093A80BED
:103CA60001E00093670320918E0B239520938E0BE2
:103CB60003E030E0F901E257F44F02830BC000E065
:103CC6000093A80B00E000936503009122060023F1
:103CD60009F010E000912306093070F400912306E4
:103CE600033051F01091230604E0109F0092AB0BB5
:103CF60001E00093670304C000E00093AB0B10E003
:103D060000912406093058F400912406033039F056
:103D16001091240604E0109F0092AC0B04C000E052
:103D26000093AC0B10E000912506093058F4009181
:103D36002506033039F01091250604E0109F009205
:103D4600AA0B04C000E00093AA0B10E0009126061F
:103D56000330C1F503E00093AF0B0091AC0B0023D9
:103D660021F40091A80B002319F001E000936803E9
:103D76000091A80B002379F00091AB0B002359F0BA
:103D86000091AC0B002339F00091AA0B002319F027
:103D960001E00093B30B0091AB0B1091AC0B010F3C
:103DA6000093A90B0091AC0B0023D9F020918E0B48
:103DB600239520938E0B04E030E0F901E257F44F8F
:103DC60002830FC002E00093AF0B00E00093AC0B40
:103DD6000091AB0B0093A90B00912606023009F067
:103DE60010E00091A90B002359F020918E0B23952A
:103DF60020938E0B02E030E0F901E257F44F028384
:103E06000091AA0B002359F020918E0B2395209345
:103E16008E0B01E030E0F901E257F44F0283009186
:103E26002706023021F402E00093AE0B08C001E041
:103E36000093AE0B00912706013009F010E00091C7
:103E4600AE0B013021F404E00093030A03C003E043
:103E56000093030A3091280620E00091290610E01D
:103E6600200F311F2093AC023093AD0230912A0609
:103E760020E000912B0610E0200F311F2093AE02A8
:103E86003093AF0200912C06053028F400912C06E1
:103E96000093EF0A04C010E000E00093EF0A0091DF
:103EA600AE0B023021F401E00093D40B13C0009155
:103EB600AF0B023021F402E00093D40B0BC000914B
:103EC600AF0B033021F404E00093D40B03C000E0F1
:103ED6000093D40B00E00093BF0B0091A80B0023C6
:103EE60089F00EE115E02091BF0B30E0220F331F61
:103EF600F901E054F44F008311830091BF0B039541
:103F06000093BF0B0091AF0B0230B1F40091A90BE7
:103F16000023E1F106E215E02091BF0B30E0220F0D
:103F2600331FF901E054F44F008311830091BF0B56
:103F360003950093BF0B2AC00091AB0B002389F0B9
:103F460003E415E02091BF0B30E0220F331FF90187
:103F5600E054F44F008311830091BF0B0395009347
:103F6600BF0B0091AC0B002389F00FE415E0209104
:103F7600BF0B30E0220F331FF901E054F44F0083EA
:103F860011830091BF0B03950093BF0B0091AA0B01
:103F9600002389F000E315E02091BF0B30E0220FEB
:103FA600331FF901E054F44F008311830091BF0BD6
:103FB60003950093BF0B0CE315E02091BF0B30E097
:103FC600220F331FF901E054F44F0083118300914F
:103FD600BF0B03950093BF0B0FEF0093F00A0E94EF
:103FE60075380E942B3B01E00E94DC3B0E944A3E52
:103FF6000E948F3F0E94FB3F01E00093B00B0895A3
:104006009A938A93802F282F2A950EE116E00E9414
:10401600F20D10E00093C0041093C1042091C00477
:104026003091C10490E0FC01E35EF94F008110E09D
:104036002017310719F0549A579A9DC00091AE0681
:10404600023009F500E00093C60413C00091C604CF
:1040560010E0F801E25EF94F20810091C60410E0FD
:10406600F801EB5EFA4F20830091C6040395009396
:10407600C6040091C604081748F303E00093AE0691
:104086008093AF0678C00091AE06002309F073C096
:104096004EE156E02091200630E00091070C109189
:1040A600080C0E94272800912006007F005039F056
:1040B600005151F0005169F0005181F044C0009167
:1040C60020060E94410E55C0009120060E94AF10A6
:1040D60050C0009120060E94CE114BC000912006D0
:1040E600005369F00A9571F00A9579F00A9581F006
:1040F6000A95C1F00A50E9F00A95F9F020C00E942D
:10410600C41237C00E94281334C00E94D11331C094
:104116000091AE0B013019F40E94C2162AC00E940B
:104126009C1827C00091AE0B013019F50E94B518F6
:1041360020C0009122063EDD1CC0A4DD1AC00091FD
:10414600200627D916C000912006015C79F00A9551
:1041560079F00F5059F00A9559F00F5039F00A9539
:1041660039F00F5019F00A9519F003C0C5DC01C0EB
:10417600C3DC549A579A0E944A2700E00093B0067F
:104186008991999108950C018FEF3FEF60E014C07B
:1041960070E0F801E60FF71F40818427482F832F30
:1041A60050E0FA01E457FF4F3491832750E0FA01BB
:1041B600E457FE4F34916395621750F3132F00E0D6
:1041C60090E0082B192BC001089530E04091260A93
:1041D600405019F04A9569F017C042E007C050E018
:1041E600F801E40FF51F5081350F43954217B8F3D8
:1041F6000BC040E007C050E0F801E40FF51F508106
:10420600350F43954217B8F3032F08959A938A936F
:10421600812FE4EDF4E01081106110831091260ADD
:10422600105019F01A95D9F03CC0009317058093E9
:104236001805282F2C5F05E115E0C7DF10E0009375
:10424600C7041093C8040091C70490E0FC01EB5E1C
:10425600FA4F04838B5F082F0E94092822C0109111
:10426600A8021093150500931605282F2D5F05E16A
:1042760015E089DF0093C7041093C8040091C704B2
:1042860090E0FC01EB5EFA4F03831091C804012F06
:1042960090E0FC01EB5EFA4F04838B5F082F0E94CF
:1042A6000928899199910895E4EDF4E0108110614F
:1042B60010830093170502E00093180526E005E138
:1042C60015E083DF10E00093C7041093C804009143
:1042D600C70400931B0507E00E9409280895E4ED32
:1042E600F4E01081106110831091A8021093150557
:1042F6001091D6041068109316050093170523E055
:1043060005E115E062DF10E00093C7041093C804CE
:104316000091C704009318051091C804012F00935B
:10432600190505E00E94092808959A938A93802F1B
:104336000E94162800FB4EF400E00093190500E0E9
:1043460000931A0501EEB0DF9DC30091260A0050C6
:1043560021F00A9509F442C18BC30091D5040535B5
:1043660009F031C10091D6040A3A09F02CC1009136
:10437600D80410E0E82FF0E035970E171F0751F02C
:104386000091D80400931905855080931A0503EE11
:104396008BDF78C3282F2A9505ED14E016DF10E091
:1043A6000093C7041093C8042091C7043091C80431
:1043B60090E0FC01EC52FB4F008110E02017310722
:1043C60071F090E0FC01EC52FB4F0081009319055F
:1043D6000091C70400931A0502EE66DF53C30091ED
:1043E600D704043729F00091D704033709F0BFC07A
:1043F6000091D704043789F54091790B50E008EE17
:1044060013E00E941A74980140917A0B50E004E67A
:1044160010E00E941A74200F311F40917B0B50E070
:104426000AE010E00E941A74200F311F00917C0BE5
:1044360010E0200F311F2055304D2093CC043093CF
:10444600CD041091CD04012F009319050091CC04E1
:1044560000931A0512E002E7D9DE0091D70403376C
:1044660009F077C03091D90420E00091DA0410E019
:10447600200F311F2093CC043093CD0448EE53E037
:104486000091CC041091CD040E942774005D009326
:10449600790B8091790B90E0C09708EE13E0AC01A0
:1044A6000E941A74ECECF4E020813181201B310B60
:1044B6002083318344E650E00091CC041091CD0472
:1044C6000E942774005D00937A0B80917A0B90E02E
:1044D600C09704E610E0AC010E941A74ECECF4E01C
:1044E60020813181201B310B208331834AE050E04B
:1044F6000091CC041091CD040E942774005D0093B6
:104506007B0B80917B0B90E0C0970AE010E0AC013A
:104516000E941A74ECECF4E020813181201B310BEF
:10452600208331830091CC04005D00937C0B10E066
:1045360003E76CDE01E00093A40600E010E00093C0
:10454600AA061093AB0609E71BE00093A606109394
:10455600A7060FE00093A90200919A00006100935C
:104566009A0000919A00006800939A008BC200E0BE
:104576000093CB041BC00091CB0410E0F801EB5272
:10458600FB4F20810091CB0410E0F801E25AF94F6D
:10459600208300E02091CB0430E0F901EB52FB4F81
:1045A60000830091CB0403950093CB040091CB04C8
:1045B600081708F38093AF0601E00093AE060FE0FC
:1045C6000093A9025FC200919A00006100939A00CD
:1045D60000919A00006800939A0054C20091D50495
:1045E6001091A802011709F038C2282F225005EDB4
:1045F60014E0C9DD0093C7041093C80490E0FC01E1
:10460600ED52FB4F008190E0FC01EC52FB4F108114
:104616000093C9041093CA040091C7041091C804FA
:104626002091C9043091CA040217130769F000915A
:10463600C704009317051091C804012F00931805AD
:1046460011E00FEFE3DD0EC23091D70420E00091B8
:10465600D80410E0200F311F2093CF043093D004EC
:104666000091DA040093CE040091D604035021F0A1
:10467600035009F4BEC1EEC10091CE04013420F40A
:104686000091CE04002319F403E029DEEBC100916A
:10469600CF041091D0040A5F1040063023E01207C1
:1046A600A8F02091CF043091D0040091CE0410E000
:1046B600200F311F2B3F00E0300758F00091CF0448
:1046C6001091D004003024E0120718F402E007DE4F
:1046D600C9C11091CE0402E0109F00921705009107
:1046E600CF041091D0040A3F20E0120778F500E0CD
:1046F6000093CB041DC06091CF047091D00400914B
:10470600CB0410E0600F711F1091CB0402E0109FE4
:1047160003E0000E402D25E135E00091070C1091D5
:10472600080C0E9475280091CB0403950093CB04D6
:104736000091CB041091CE040117E8F21091CE043B
:1047460002E0109F102D03E061DD8CC10091CF04C3
:104756001091D0040050144000302EE1120708F0EA
:1047660046C001E000938C0B20E030E00091070C7E
:104776001091080C0E94542B4FE00091CE040E9429
:10478600FC7300938B0B00918B0B002329F4009193
:104796008B0B039500938B0B8FE090E00091CF0479
:1047A6001091D004005014404FE050E00E9427744E
:1047B600841B950B0091CE0410E08017910728F416
:1047C60000918B0B039500938B0B0091CF041091F6
:1047D600D004005014404FE050E00E94277400932C
:1047E600D1041093D20402EF00938D0B3BC10091CC
:1047F600CF041091D0040050144200302EE112076D
:1048060008F04BC001E000938C0B20E030E00091F3
:10481600070C1091080C0E94542B4FE00091CE0417
:104826000E94FC7300938B0B00918B0B002329F4E1
:1048360000918B0B039500938B0B0091CF04109185
:10484600D004005014424FE050E00E942774409379
:10485600D3040FE010E02091D30430E0021B130BC9
:104866002091CE0430E0021713072CF400918B0B35
:10487600039500938B0B0091CF041091D004005048
:1048860014424FE050E00E9427740093D104109325
:10489600D20402EC00938D0BE5C00091CF04109179
:1048A600D0040050144400302EE1120708F04BC02B
:1048B60001E000938C0B20E030E00091070C109192
:1048C600080C0E94542B4FE00091CE040E94FC730A
:1048D60000938B0B00918B0B002329F400918B0B1B
:1048E600039500938B0B0091CF041091D0040050D8
:1048F60014444FE050E00E9427744093D3040FE025
:1049060010E02091D30430E0021B130B2091CE045B
:1049160030E0021713072CF400918B0B03950093DC
:104926008B0B0091CF041091D004005014444FE03B
:1049360050E00E9427740093D1041093D20402ED34
:1049460000938D0B8FC00091CF041091D0040050BE
:10495600144600302EE1120708F084C001E00093EF
:104966008C0B20E030E00091070C1091080C0E949F
:10497600542B4FE00091CE040E94FC7300938B0BE6
:1049860000918B0B002329F400918B0B0395009368
:104996008B0B0091CF041091D004005014464FE0C9
:1049A60050E00E9427744093D3040FE010E020915A
:1049B600D30430E0021B130B2091CE0430E0021723
:1049C60013072CF400918B0B039500938B0B00912E
:1049D600CF041091D004005014464FE050E00E94DE
:1049E60027740093D1041093D20402EE00938D0B2A
:1049F60039C05091D90440E00091DA0410E0400F2C
:104A0600511F2091CF043091D0040091070C1091D2
:104A1600080C0E94BC2800E00093CB0413C0009150
:104A2600CB0410E0F801EB52FB4F20810091CB0440
:104A360010E0F801EB5EFA4F20830091CB0403955A
:104A46000093CB040091CB04063048F313E006E054
:104A5600DDDB08C001E043DC05C000919A0000617F
:104A660000939A0000919A00006800939A000AC089
:104A760000919A00006100939A0000919A000068E4
:104A860000939A000E9423288991999108950FEC2A
:104A960009B91098119A1898199A0EE00093950082
:104AA60008E10AB9549A579A06B70D7F06BF07B7A9
:104AB600016007BF05E002BF04E003BF05E5009300
:104AC6005E060AEA00935F0605E500931E060AEAFB
:104AD60000931F060895FA93EA935A934A933A93DA
:104AE6002A931A930A934FB75BB70CB15C9952C0DD
:104AF6001091A006105039F01A9559F01A9599F0B0
:104B06001A95B9F027C0053519F401E00093A006FF
:104B160041C00A3A21F402E00093A0063BC000E03F
:104B26000093A00637C00093200603E00093A0067A
:104B360031C0009321060C3320F010E01093A0063C
:104B460003C014E01093A0061091A006100F109356
:104B5600A10620C02091A00630E0F901E25EF94FDF
:104B660000830091A0061091A106011770F001E0E4
:104B76000093B00600E00093A00654985798009161
:104B8600A10603950093B10605C00091A006039502
:104B96000093A0065BBF4FBF0991199129913991E6
:104BA60049915991E991F9911895FA93EA933A93B3
:104BB6002A931A930A932FB73BB700919E0610913A
:104BC6009F06011784F400919E06102F110F110BFA
:104BD600F801E25AF94F00810CB900919E0603953F
:104BE60000939E060FC05398559800E000939F06C9
:104BF60000E000939E06549A579AEDE1F6E0008194
:104C06000F7E00833BBF2FBF0991199129913991DE
:104C1600E991F99118959A938A93FA93EA933A92BD
:104C26002A921A920A927A936A935A934A933A93D9
:104C36002A931A930A938FB79BB72197A89505E0F5
:104C460002BF00910607003F09F045C00091AE067D
:104C5600002309F040C00E949B3500931A0600917C
:104C66001A0610911906011721F000911A06003F45
:104C7600D1F4EBE1F6E0008111810F5F1F4F008355
:104C8600118300911B0610911C06013921E01207C1
:104C960084F000E911E000931B0610931C0600EF58
:104CA6000093190606C000E010E000931B0610935F
:104CB6001C0600911A0610911906011761F0009161
:104CC6001A06003F41F000911A060093060700916C
:104CD6001A060093190600911706053078F100911F
:104CE6001806013029F0E4EDF4E0008100FF22C04F
:104CF60000919A000F7E00939A0000919A000F7718
:104D060000939A00E4EDF4E00081086000830091CE
:104D160014060E94982100E00093180600E0009314
:104D2600140600919C000883E4EDF4E000810F7EF8
:104D3600008309C00EE10093170605C0009117060F
:104D4600039500931706E19939C00091A406013036
:104D5600A9F5F8940091AA061091AB061FBB0EBBED
:104D66000091A20610E0E091A606F091A706E00FDA
:104D7600F11F00810DBBE29AE19A78940091A20698
:104D860003950093A206EAEAF6E0008111810F5F1F
:104D96001F4F008311830091A20610E0E091A60642
:104DA600F091A706E00FF11F31970081002331F43F
:104DB60000E00093A40600E00093A206E1994EC02D
:104DC6000091A506013009F049C00091AC0610918A
:104DD600AD061FBB0EBBE09A2DB30091A30610E0F3
:104DE600E091A806F091A906E00FF11F208300913B
:104DF600A30610E0E091A806F091A906E00FF11FC6
:104E060000810F3F59F400E02091A30630E0E091C5
:104E1600A806F091A906E20FF31F0083ECEAF6E07C
:104E2600008111810F5F1F4F008311830091A3063C
:104E360003950093A3060091A30610E0E091A8064F
:104E4600F091A906E00FF11F31970081002331F49C
:104E560000E00093A50600E00093A30621969BBF01
:104E66008FBF099119912991399149915991699168
:104E760079910990199029903990E991F991899140
:104E86009991189500939F06539A559A089500E0B4
:104E960000931D06089503E3009399008A988B9A60
:104EA6009298939A0EE000939D0008E100939A0071
:104EB60000919A00006100939A0000919A000068A0
:104EC60000939A0005E5009315050AEA0093160576
:104ED6000895FA93EA934A933A932A931A930A9374
:104EE6003FB74BB720919C0000919B00102F14FFF9
:104EF60005C0E4EDF4E0008101600083009118062E
:104F0600002391F4009117060E3170F001E0009332
:104F1600180600E00093140600E000931706E4ED7F
:104F2600F4E0008100610083009118060130E9F485
:104F3600009117060E31C8F400911406003430F0C3
:104F4600E4EDF4E00081016000830CC000911406DA
:104F560010E0F801EB52FB4F2083009114060395F5
:104F66000093140600E0009317064BBF3FBF09915C
:104F76001991299139914991E991F9911895FA93E5
:104F8600EA933A932A931A930A932FB73BB7009161
:104F960015061091160601178CF400911506102FB0
:104FA600110F110BF801EB5EFA4F008100939C0084
:104FB600009115060395009315061FC000919A00EF
:104FC600077F00939A0000919A000F7D00939A0044
:104FD60000E00093160600E00093150600919A0083
:104FE600006100939A0000919A00006800939A006D
:104FF600E4EDF4E000810F7E00833BBF2FBF0991F3
:10500600199129913991E991F9911895009316060C
:1050160000919A00086000939A0000919A0000623D
:1050260000939A0008950091D40410919A00212FBC
:1050360027FD026010919A00212F25FD0460089536
:1050460000E00093D40408950E94E9742801D90170
:10505600CA018D01E6E9F0E0FBBFF8E10C94A57406
:10506600AC019D01820121D33AC0AC019D018201B0
:1050760078D335C0AC019D0182010CD430C09C01AF
:10508600820180D42CC09C0182019DD428C09C0141
:105096008201C8D424C09C01820152D520C0AC0133
:1050A6009D018201BCD61BC045EB50E09C018201EC
:1050B60020D715C046EB50E09C0182011AD70FC0DD
:1050C60047EB50E09C01820114D709C044EB50E045
:1050D6009C0182010ED703C09C0182011DD7E6E028
:1050E6000C94F3740E94E7742801D901642ECB0155
:1050F600863100E0900721F429E73BE08201A7D240
:10510600803001E09007F8F4F201218132818C01B0
:10511600000F111F200F311FF9011181012F772474
:10512600FD01E60DF71D0083F20101811281880F52
:10513600991F080F191FF80100817724A60DB71DC6
:10514600FD0101830CC00FEF7724FD01E60DF71D6D
:1051560000830FEF7724A60DB71DFD010183E8E05C
:105166000C94F174222311F0F8012383F8010381D2
:10517600089562E0F8016383F80124833583F8011A
:10518600468357830895215019F02A9521F006C0C9
:10519600F80100850895F801018508950FEF089537
:1051A6000E94EA74C801D901FC01048115810051ED
:1051B60010400650104008F470C00050104009F42A
:1051C600C7C00A51104009F4F1C00350104009F459
:1051D600EDC00350104009F4E9C00A51104008F42C
:1051E60033C20750104008F4FAC00950104009F4C1
:1051F60003C10150104009F4FFC00150104008F4EB
:105206004BC00450104008F404C10050104008F48C
:1052160043C00450104008F40CC100501040E0F1A7
:105226000052104008F415C106501040A8F1035072
:10523600104008F41EC10050104070F10450104098
:1052460008F424C10050104038F10450104008F40E
:105256002DC10550104000F10550104008F436C12C
:105266000050104009F43FC10150104009F44DC1EF
:105276000150104009F456C10D50104009F45DC1AB
:105286000150104009F47BC10150104009F499C146
:105296000150104009F4B7C1D7C100E0FC010083FA
:1052A60032C0FC0101811281FC01208130E0220F15
:1052B600331F020F131FF80100A111A14AE050E0AD
:1052C6000E942774402E429400EF4022FC01018187
:1052D6001281FC01208130E0220F331F020F131FC1
:1052E600F80100A111A14AE050E00E942774440E83
:1052F600FC01008110E0FD01E00FF11F4482FC017A
:10530600008103950083FC010081063050F2FC0108
:10531600068117814AE050E00E942774402E42948D
:1053260000EF4022FC01068117814AE050E00E940E
:105336002774440EFC0104811581A00FB11F1C9730
:105346004C9202EBFC01008706E0FC0101877CC160
:10535600FC011781012F0695069506950695005DB9
:105366000093790BFC011781012F0F70005D0093EC
:105376007A0BFC01068102950F70005D00937B0B92
:10538600FC0106810F70005D00937C0B01E0009329
:10539600A40600E010E00093AA061093AB0609E706
:1053A6001BE00093A6061093A7064EC1FC010681DA
:1053B6001781023020E0120731F401E7FC01008773
:1053C60000E0FC010187FC0106811781012B31F405
:1053D60000E7FC01008700E0FC01018735C1FC0104
:1053E60004810F5CFC01008701E0FC010187FC01E0
:1053F6000681FD01048328C1FC0104810F5CFC01C8
:10540600008701E0FC010187FC010681FD010483A0
:105416001BC104E9FC01008702E0FC010187FC01D5
:1054260004810156FD010483FC010681FD0105830B
:105436000BC105E9FC01008702E0FC010187FC01C4
:1054460004810556FD010483FC010681FD010583E7
:10545600FBC003E9FC01008702E0FC010187FC01B7
:1054660004810956FD010483FC010681FD010583C3
:10547600EBC0FC0104810F5EFC01008701E0FC012A
:105486000187FC010681FD010483DEC004EAFC01FC
:10549600008702E0FC010187FC0104810259FD013D
:1054A6000483FC010681FD010583CEC005EAFC01EB
:1054B600008702E0FC010187FC0104810659FD0119
:1054C6000483FC010681FD010583BEC0FC01048145
:1054D6000B5EFC01008701E0FC010187FC010681EF
:1054E600FD010483B1C0FC0104810B5EFC01008751
:1054F60002E0FC010187FC011781012FFD010483F5
:10550600FC010681FD0105839FC0FC0104810B5E41
:10551600FC01008701E0FC010187FC010681FD0119
:10552600048392C00DEBFC01008701E0FC010187BA
:10553600FC010681FD01048387C00AEFFC01008798
:1055460000E0FC01018700E0FC01008313C00EEEC1
:105556001EEEFC0124853585FC01408150E0440F98
:10556600551F240F351FF90100831183FC010081AB
:1055760003950083FC010081013848F365C00AECFD
:10558600FC01008700E0FC01018700E0FC010083CC
:1055960013C00EEE1EEEFC0124853585FC0140810C
:1055A60050E0440F551F240F351FF9010083118366
:1055B600FC01008103950083FC010081013848F35A
:1055C60043C00AEDFC01008700E0FC01018700E012
:1055D600FC01008313C00EEE1EEEFC01248535850A
:1055E600FC01408150E0440F551F240F351FF9017F
:1055F60000831183FC01008103950083FC01008177
:10560600013848F321C00AEEFC01008700E0FC01E6
:10561600018700E0FC01008313C00EEE1EEEFC01C4
:1056260024853585FC01408150E0440F551F240F29
:10563600351FF90100831183FC0100810395008366
:10564600FC010081013848F3E5E00C94F474592F0D
:10565600082EB801F9012081322F20E0330F330FD5
:10566600330F330F818190E0C097982F80E0280F89
:10567600391F028110E00053104044E00E94247458
:10568600200F311F038110E00F701070200F311FA3
:10569600FB0101811281F80124A735A7802D952FE2
:1056A6000895F8012687378708950E94EB74C8018C
:1056B6008901DA01EEE0F0E0FBBFF9E10C94A57494
:1056C600FD01048110E0FC01A181B281A056BF4F0B
:1056D6000D931C9343C0FD01A481B0E01196FC011B
:1056E600018112810E551F4FF801A083B18336C088
:1056F600FD01048110E0FC01A181B281AC55BF4FD0
:105706000D931C932BC0FD01048110E0FC01A181C7
:10571600B281AA55BF4F0D931C9320C0FD01048191
:1057260010E0FC01A181B281A855BF4F0D931C93D7
:1057360015C0FD01048110E0FC01A181B281A655CE
:10574600BF4F0D931C930AC0FD01048110E0FC01BC
:10575600A181B281A455BF4F0D931C93E4E00C9434
:10576600F5740E94EB74D8018901CA01E4E2F0E005
:10577600FBBFF9E10C94A574FC01048110E0FD0166
:10578600A181B281A054BF4F0D931C9380C0FC0130
:10579600448150E00AE010E00E941A74FD01A181E4
:1057A600B281AE53BF4F0D931C9371C000E00C93B2
:1057B6001CC00C9110E0FC01E00FF11F448150E089
:1057C6000AE010E00E941A74FD01218132814C9199
:1057D60050E0440F551F240F351F2C523F4FF9013F
:1057E600008311830C9103950C930C91FC0113819A
:1057F6000117F8F24CC000E00C9318C00C9110E0B1
:10580600FC01E00FF11F448150E0FD01018112818E
:105816002C9130E0220F331F020F131F0C531F4F22
:10582600F801408351830C9103950C930C91FC0174
:105836001381011718F32BC000E00C9318C00C91CC
:1058460010E0FC01E00FF11F448150E0FD010181F1
:1058560012812C9130E0220F331F020F131F0453C5
:105866001F4FF801408351830C9103950C930C91C3
:10587600FC011381011718F30AC0FC01048110E032
:10588600FD01A181B281AC5EBE4F0D931C93E4E095
:105896000C94F5740E94EB74D8018901CA01E8E3FF
:1058A600F0E0FBBFF9E10C94A574FC01048110E063
:1058B600FD01A181B281A05EBE4F0D931C935FC016
:1058C600FC01448150E00AE010E00E941A74FD01D8
:1058D600A181B281AE5DBE4F0D931C9350C0FC01F9
:1058E600448150E00AE010E00E941A74FD01A18193
:1058F600B281AC5DBE4F0D931C9341C000E00C938A
:1059060018C00C9110E0FC01E00FF11F448150E03B
:10591600FD01018112812C9130E0220F331F020F0D
:10592600131F0A5D1E4FF801408351830C910395A6
:105936000C930C91FC011381011718F320C000E0B1
:105946000C9318C00C9110E0FC01E00FF11F44818C
:1059560050E0FD01018112812C9130E0220F331FAE
:10596600020F131F025D1E4FF801408351830C91F5
:1059760003950C930C91FC011381011718F3E4E0D5
:105986000C94F574BD01F80100E0008317C0008196
:1059960010E0D901A00FB11F14964C9150E0A181DF
:1059A600B281008110E0000F111FA00FB11FA05A95
:1059B600BF4F4D935C9300810395008300810A30AD
:1059C60030F3DB0108950D01D80100E00C9325C0EA
:1059D6000C9110E0000F111FF901E00FF11F748107
:1059E60060E00C9110E0000F111FF901E00FF11FAC
:1059F600058110E0600F711FFD01018112814C913C
:105A060050E0440F551F040F151F005C1F4FF8018F
:105A1600608371830C9103950C930C910830C0F24E
:105A2600D0010895BD01F801D90114964C91429513
:105A36004F7050E00AE010E00E941A74D9011496E3
:105A46004C9150E04F705070040F151FA181B28128
:105A560090960D931C93D90115964C9142954F70D3
:105A660050E00AE010E00E941A74D90115964C9194
:105A760050E04F705070040F151FA181B2819296AD
:105A86000D931C93D90116964C9142954F7050E098
:105A96000AE010E00E941A74D90116964C9150E063
:105AA6004F705070040F151FA181B28194960D930B
:105AB6001C93D90117964C9142954F7050E00AE01D
:105AC60010E00E941A74D90117964C9150E04F705D
:105AD6005070040F151FA181B28196960D931C93E9
