:100000000C940E76189518951895189518951895BE
:100010001895189518951895189518951895189578
:1000200018951895189518950C941C3018951895D6
:1000300018951895189518950C942C751895189571
:100040000C946B26189518950C94CB250C9435269A
:100050001895189518951895189518951895189538
:100060001895189518951895189518951895189528
:1000700018951895189518950C94C9270C941F2855
:1000800018951895189518951895189500C18140E0
:1000900001C0804101C0804100C1814001C0804158
:1000A00000C1814000C1814001C0804101C0804148
:1000B00000C1814000C1814001C0804100C1814038
:1000C00001C0804101C0804100C1814001C0804128
:1000D00000C1814000C1814001C0804100C1814018
:1000E00001C0804101C0804100C1814000C1814008
:1000F00001C0804101C0804100C1814001C08041F8
:1001000000C1814000C1814001C0804101C08041E7
:1001100000C1814000C1814001C0804100C18140D7
:1001200001C0804101C0804100C1814000C18140C7
:1001300001C0804101C0804100C1814001C08041B7
:1001400000C1814000C1814001C0804100C18140A7
:1001500001C0804101C0804100C1814001C0804197
:1001600000C1814000C1814001C0804101C0804187
:1001700000C1814000C1814001C0804100C1814077
:1001800001C0804101C0804100C1814000C0C10167
:10019000C30302C2C60607C705C5C404CC0C0DCDF7
:1001A0000FCFCE0E0ACACB0BC90908C8D81819D967
:1001B0001BDBDA1A1EDEDF1FDD1D1CDC14D4D51597
:1001C000D71716D6D21213D311D1D010F03031F187
:1001D00033F3F23236F6F737F53534F43CFCFD3DB7
:1001E000FF3F3EFEFA3A3BFB39F9F83828E8E929A7
:1001F000EB2B2AEAEE2E2FEF2DEDEC2CE42425E557
:1002000027E7E62622E2E323E12120E0A06061A1C6
:1002100063A3A26266A6A767A56564A46CACAD6D76
:10022000AF6F6EAEAA6A6BAB69A9A86878B8B979E6
:10023000BB7B7ABABE7E7FBF7DBDBC7CB47475B516
:1002400077B7B67672B2B373B17170B05090915106
:100250009353529296565797559594549C5C5D9D36
:100260005F9F9E5E5A9A9B5B995958988848498926
:100270004B8B8A4A4E8E8F4F8D4D4C8C44848545D6
:10028000874746868242438341818040380C018003
:10029000020041A042A1E045A3A4A5A64BA74D485A
:1002A0004FA8504354A9AA58E1ABACE2ADAE62AF3F
:1002B000B0B161B2B3B4E365B6B7B8B9BABBBCBD4F
:1002C0006FBE7063BF79E478E5C0C1E6C2C3C4C540
:1002D000C6C7EEF8E8E12EC0CA2000E0E2F2EE2E3A
:1002E000C0CA2000E0E2F2EE2EC0CA2000F3F1EA1C
:1002F0002EC0CA202000E2FBEAEB2EC0CA2000EF8D
:10030000F0EEE22EC0CA2000E8F1EFFBF22EC0CAE8
:1003100000EFF3F1EA20C0CA2000EDEEF0EC2EC0B1
:10032000CA2000E1E5E3EB2EC0CA2000EEE4EDEECA
:10033000F12EC0CA00D202DB02E402ED02F602FF97
:1003400002080311031A0323032C03EEF8E8E12E3D
:1003500000E0E2F2EE2000E0E2F2EE2000F3F1EA4B
:100360002E2000E2FBEAEB2E00EFF0EEE22E00E89A
:10037000F1EFFBF200EFF3F1EA2000EDEEF0EC2EEE
:1003800000E1E5E3EB2E00EEE4EDEEF1004B03516E
:100390000357035D03630369036F0375037B0381E5
:1003A000038703C0CA2D00CDE5F220F1E2FFE7E8A4
:1003B00020F120C1D1CF2020202020002020C8ED16
:1003C000E8F6E8E0EBE8E7E0F6E8FF202020202070
:1003D00000312EC6F3F0EDE0EB2E00322EC4E0F239
:1003E000E02FE2F0E5ECFF2E00332ED3EFF0E0E259
:1003F000EBE5EDE8E52E00342ED3F1F2E0EDEEE290
:10040000E8F2FC2E00352ECFF0EEF1ECEEF2F0200B
:10041000EFE0F0E0EC2E00362EC0E2F2EEEAEEED78
:10042000F2F0EEEBFC2E00372ECFF0EEF2EEEAEE1D
:10043000EB2E00D103DB03E903F7030504170427C0
:1004400004312E20C4E0F2E02E20202020202020A5
:10045000202020202000322E20C2F0E5ECFF2E20AC
:100460002020202020202020202000C6F3F0EDE0D6
:10047000EB2000F1EEE1FBF2E8E900E7E0F9E8F259
:10048000FB00EFF0E8E5ECEDE8EAE000EFE5F0E591
:10049000E4E0F2F7E8EAE00073048C0482047B04F1
:1004A000D7F2E5EDE8E520E0F0F5E8E2E02E00CF58
:1004B000CC00CFC400D1C100C7D900B504B204AF8D
:1004C00004B804CEC1D900CFE5F0E5E72E00CFE5B2
:1004D000F0E5E7E0EF2000CDE0F7E0EBEE2000CA2A
:1004E000EEEDE5F62000EAEEECE0EDE4FB00312E67
:1004F000D0E5E6E8EC2E00322ECFE0F0E0ECE5F2BD
:10050000F0FB2E00332ECFE0F0EEEBFC2E00342E6D
:10051000D2E5F1F22E00EE04F70404050E05C7E063
:10052000F9E8F2E02E00CFF0E8E5ECEDE8EA2E0085
:10053000CFE5F0E5E4E0F2F7E8EA2E00CEE1F9E8F5
:10054000E52E00CFF0E8E5ECEDE8EA20312E00CF13
:10055000F0E8E5ECEDE8EA20322E00D2E8EF20C723
:10056000E0F9E8F2FB00D2E8EF20CBE8EDE8E800A4
:10057000C4EEEF2E20E2F0E5ECFF20E1E5E720EC11
:10058000E0ED2E00C7E0E4E5F0E6EAE020EDE02053
:10059000EBE8EDE8E820202000CFE5F0E5EAF0FB0D
:1005A000F2E8E520E8ECEFF3EBFCF1EEE200C7E067
:1005B000E3F020F7F3E2F1F2E2E8F220EFEE2020A0
:1005C000D0C700D1EDE8E6E5EDE8E520F3F0EEE296
:1005D000EDFF20C0CA202000D7E0F1F2EEF2E020CB
:1005E000CFD0C400D7E0F1F2EEF2E020CFD0CC00C3
:1005F000D1E4E2E8E320EFE5F02EF4F0EEEDF2E0F6
:1006000020CFD0C400D1E4E2E8E320E7E0E42EF418
:10061000F0EEEDF2E020CFD0C400D1E4E2E8E32038
:10062000CFD0CC00D1E4E2E8E320C2D720CFD0C4C1
:1006300020EEF220CFD3D1CA005B05660570058499
:10064000059905AE05C305D805E405F00505061AAC
:10065000062406C7E0E4E5F0E6EAE020EDE020E26B
:10066000EAEB2E2020202000C4EBE8F2E5EBFCEDC5
:10067000EEF1F2FC20EAEEECE0EDE4FB00C7E0E492
:10068000E5F0E6EAE020EDE020E2FBEAEB2E2020B8
:10069000EA00C1EBEEEA2E20EAEEECE0EDE4FB200E
:1006A000203F2E2E3F2000C4EBE8F22E20EAEEEC95
:1006B000E0EDE4FB20203F2E2E3F2000530668068D
:1006C0007D069206A706C2F0E5ECFF20EDE020EFE4
:1006D000EEE2F22E20EAEEEC2E2000C1EBEEEA2E46
:1006E00020EAEEECE0EDE4FB20203F2E2E3F200040
:1006F000C4EBE8F22E20EAEEECE0EDE4FB20203F34
:100700002E2E3F200053066806C606DB06F006D1F3
:10071000EEE2ECE5F1F2E8ECEEF1F2FC0043E8ED9C
:10072000F5F0EEEDE8E7E0F6E8FF20F7E0F1EEE2C5
:100730000055E2FBF520EDEEECE8EDE0EBFCEDEE34
:10074000E500D3E4E5F0E6E0EDE8E520F0E5EBE5F3
:1007500020CFD0C400D1E5F2E5E2EEE920E0E4F0FC
:10076000E5F100C2F0E5ECFF20EFE5F0E5E7E0EFB2
:10077000F3F1EAE000D7E0F1F2EEF2E000CDEEECCA
:10078000E5F020E0EFEFE0F0E0F2E000CAEEEDF29D
:10079000F0EEEBFC20E2FBF52EF1E8E3EDE0EBE020
:1007A00000CFEEF0EEE320CFD0C5C4D3CFD020EF02
:1007B000EE20CAD72000C7E0E3F020F7F3E2F1F221
:1007C000E2E8F220EFEE2020CAD700CAEEF0F0E512
:1007D000EAF6E8FF20EDE0EFF0FFE6E5EDE8FF00E8
:1007E000CAEEF0F0E5EAF6E8FF20F2EEEAE000CF2C
:1007F000EEF0EEE320CFD0C5C4D3CFD020EFEE2073
:10080000D0C72000CFF0EEF2EEEAEEEB20EEE1EC06
:10081000E5EDE000CFF0E8E7EDE0EA20F7E5F2ED06
:10082000EEF1F2E800C4EEEFF3F1F2E8ECFBE520C4
:10083000EFF0EEE2E0EBFB00CFEEF0EEE320EFEEC8
:1008400020EFEEECE5F5E500C4EEEFF3F1F2E8ECB5
:10085000E0FF20EFEEECE5F5E000D2E8EF20E0E28B
:10086000F2EEEAEEEDF2F0EEEBFF00D0E5E7E5F0B8
:10087000E2E8F0EEE2E0EDE8E500D1EDE8E6E5EDF6
:10088000E8E520EEF2E2E5F2E020C0CA202000CF49
:10089000E5F0E8EEE420E1E5E3EBEEE3EE20C0CAAC
:1008A00000CFE5F0E8EEE420EFEEE2F22EE1E5E342
:1008B000EB2E20C0CA000F071D073107420755075E
:1008C000630775077D078C07A107B607CB07E0070D
:1008D000040814082508380848085A086B087A08DC
:1008E0008F08A108EF07C0C2C0CDD220D03430306D
:1008F00000CFC2C72D393000C0C2C7CA2D38300062
:10090000CFC2C7D32DC500CFC2C7CB00CBC8CDC87F
:10091000DF2DD000CFC2C7CA00CFC2C7D300EEF8C8
:10092000E8E1EAE000E608F108F808000907090C28
:1009300009140919091E09C7C0D900CFD0CC00CFAE
:10094000CC3100CFCC3200CFD0C400C2FBE2E5E412
:100950002000C3EEF2EEE22000C2E2E5E4E5ED00A5
:10096000D0E5F7FC202000D2E5F1F2203100D2E5FD
:10097000F1F2203200D2E5F1F22033004B095209A6
:100980005909600967096E0975093F3F3F3F00201B
:100990002020C7E0EFF3F1EA20F2E5F1F2E02020B9
:1009A000202020002020CFEEE4EEE6E4E8F2E5206F
:1009B0003F20F1E5EA20202000CFF0EEF2EEEAEE53
:1009C000EB00D1F2E0EDE4E0F0F2004D6F6442752F
:1009D0007300C209CB09C7C0D93A00CFD0CC3A00C6
:1009E000CFCC313A00CFCC323A00CFD0C43A003F1E
:1009F0003F3F3F2020202000CDE5E8F1EFF0202010
:100A000000CFF0E5E4F3EFF02000C2FBE2E5E4E51F
:100A1000ED2000C3EEF2EEE220202000C2E2E5E489
:100A2000E5ED202000D0E5F7FC2020202000D2E5D5
:100A3000F1F23120202000D2E5F1F2322020200016
:100A4000D2E5F1F233202020000A0A130A1C0A25FD
:100A50000A2E0A370A0A0A1C0A0A0A2E0A370A400C
:100A60000A0A0A1C0A2E0A370A400AC8F1F5EEE4FF
:100A7000ED2E2000CAEEEDF2F0EEEBFC00CFF3F12C
:100A8000EA2020202000D0E0E1EEF2E0202000CD9E
:100A9000E5E8F1EFF02E2000CF2EEDE5E8F1EFF0E4
:100AA00000CEE6E8E4E0EDE8E500CDE0EB2EEFF384
:100AB000F1EA00D3E42EEFF3F1EA2000CDE5F220D5
:100AC000D0C7202000D0E5F7FC2020202000D2E570
:100AD000F1F220202020006B0A740A7D0A860A8F1A
:100AE0000A980AA10AAA0AB30ABC0AC50ACE0AC809
:100AF000F1F5EEE4ED2E2000CFD0CC20CAD7202097
:100B000000CFD0CC20CFC0202000CDE5F220CAD726
:100B1000202000CDE5E8F1EFF02E2000CF2EEDE50E
:100B2000E8F1EFF000CEE6E8E4E0EDE8E500C1CB67
:100B3000CA20CACC2020003F307830383F20200027
:100B40003F307830393F2020003F307830413F201F
:100B50002000D2E5F1F22020202000EF0AF80A015F
:100B60000B0A0B130B1C0B250B2E0B370B400B49E1
:100B70000B520BC8F1F5EEE4ED2E2000CFD0C420CF
:100B8000CAD7202000CFD0C420CFC0202000CDE580
:100B9000F220CAD7202000CDE5E8F1EFF02E2000AA
:100BA000CF2EEDE5E8F1EFF000CEE6E8E4E0EDE889
:100BB000E5003F307830373F2020003F3078303834
:100BC0003F202000D1E8F1F2E5EC2E20003F307804
:100BD00030413F202000D2E5F1F220202020007398
:100BE0000B7C0B850B8E0B970BA00BA90BB20BBBD1
:100BF0000BC40BCD0BD60B672D006C2D00C2E2EEA3
:100C0000E43A00CFE0F0EEEBFC3A00CDEEE2FBE997
:100C100020EFE0F0EEEBFC3A00C7EDE0F7E5EDE8A1
:100C2000E53A2000C4D4C72DCFF0CFE4202000C483
:100C3000D4C72DCFF0ECCCCA3100C4D4C72DCFF02F
:100C4000ECCCCA3200C4D4C72D4C36302020200052
:100C5000CDC72DCFF0CFE420202000CDC72DCFF081
:100C6000EC2DCCCA2000CFCFC72DCFF0CFE4202071
:100C700000CFCFC72DCFF0EC2DCCCA00EEF8E8E1C5
:100C8000EAE02020202000240C2F0C3A0C450C50C8
:100C90000C5B0C660C710C7C0CE2FBEAEB2E00E2A8
:100CA000EAEB2E003F3F3F3F00990C9F0CA40C3F06
:100CB0003F3F3F00E1FBF1F2F0FBE900ECE5E4EB44
:100CC000E5EDEDFBE900AF0CB40CBC0CAF0C3F3F05
:100CD0003F3F00E2EAEB2E00E2FBEAEB2E00CE0CF7
:100CE000D30CD80CCE0C3F3F3F20E3F0E0E4003FB4
:100CF0003F3F20F1E5EA003F3F20E3F0E0E4003F22
:100D00003F3F3F00F2F0E5E2EEE6EDFBE900EDEEFD
:100D1000F0ECE0EBFCEDFBE900F1EFEEEAEEE9EDE3
:100D2000FBE900FF0C040D0E0D190DFF0C2D3130E9
:100D3000303020C3F6002D35303020C3F6002B3084
:100D400020C3F6002B35303020C3F6002B31303075
:100D50003020C3F600EEF8E8E1EAE0002D0D360D94
:100D60003E0D440D4C0D550DC4E8E0EFE0E7EEED0F
:100D70003A2000EDE5F220E4E0EDEDFBF500F1EFC7
:100D8000E8F1EEEA000000070001000200030001A4
:100D90000000006300010000001200010012003694
:100DA0000001000000160001000000010001000029
:100DB00000040001000000040001000000480001E0
:100DC0000000004800010000004800010000004849
:100DD00000010001000900010000000A00010001FB
:100DE0000032000A00000064000A000000FF000159
:100DF000000000FF00010000000A000100010032B5
:100E0000000A00010032000A000000FF000100009B
:100E100000FF0001000000080001000000010001C7
:100E2000000800320001000000020001000000FF85
:100E30000001000000050001001000E803010001AE
:100E40000003000100000001000100000016000185
:100E5000000000160001000000E70301000000E7A9
:100E60000301000100020001000100020001000076
:100E700000500001000000FF0001001400500001BC
:100E80000001000300010000000100010000001447
:100E90000001000100FF0001000100FF000100301F
:100EA0002E302E2E39392E3900CFF0EEF8E8E2EA56
:100EB000E020CFC8204D4355202000CFF0EEF8E8C9
:100EC000E2EAE020C1D1CF204D43552000CFF0EE23
:100ED000F8E8E2EAE020C1D1CF204453502000CF0F
:100EE000F0EEF8E8E2EAE020C1D1C720CFCBC8D1CC
:100EF00000C4EEEFEEEBED2E20EFE0F0E0ECE5F2DB
:100F0000F0FB00C2E8E420EFE0F0E0ECE5F2F0E016
:100F100000A90EBB0ECD0EDF0EF10E030FC5F1F2D0
:100F2000FC00CDE5F200220F1D0FF1F2E0EDE4E050
:100F3000F0F20048455800330F2A0F2ED1E1F0EEB1
:100F4000F120F1E2EEE5E3EE2E2020202020002E1D
:100F5000D1E1F0EEF120F3E4E0EBE5EDEDEEE3EED0
:100F60002E20002ED1E1F0EEF120F3E4E0EBE5EDF0
:100F7000EDEEE3EE2031002ED1E1F0EEF120F3E4CE
:100F8000E0EBE5EDEDEEE3EE2032002ED1E1F0EE08
:100F9000F120F3E4E0EBE5EDEDEEE3EE2033002E9F
:100FA000CFF3F1EA20F3E4E0EBE5EDEDEEE3EE2E36
:100FB0002020002ECFF3F1EA20F3E4E0EBE5EDEDA5
:100FC000EEE3EE203120002ECFF3F1EA20F3E4E04F
:100FD000EBE5EDEDEEE3EE203220002ECFF3F1EA6B
:100FE00020F3E4E0EBE5EDEDEEE3EE203320002E20
:100FF000CFF3F1EA20F3E4E0EBE5EDEDFBF52020A3
:101000002020002EC0CA20E0E2F2EEECE0F2E8F789
:10101000E5F1EAE8E920002EC0CA20F3F1EAEEF09B
:10102000E5EDEDFBE92020202020002EC0CA20E2C3
:10103000FBEAEBFEF7E5ED20202020202020002E0B
:10104000C0CA20EAEEEDF2F02EEFF0EEE2E5F0EAB3
:10105000E020002EC0CA20E8F1EFFBF2E0EDE8FF4F
:10106000202020202020002EC0CA20EFF3F1EA200B
:1010700020202020202020202020002EC2FBE7EE70
:10108000E220202020202020202020202020002EB0
:10109000C0CA20EDEEF0ECE0EBFCEDFBE9202020F7
:1010A0002020002EC0CA20E1E5E3EBFBE920202050
:1010B000202020202020002ECFF3F1EA20F3E4E0CE
:1010C000EBE5ED2E20CCC0CD2020002EC0CA20EEB6
:1010D000E4EDEEF1F2EEF0EEEDEDE8E92020002E89
:1010E000D1E1F0EEF120C0CA2020202020202020D5
:1010F0002020002ECFF3F1EA20C0CA20F1E2EEE971
:10110000202020202020002ECFF3F1EA20C0CA208A
:10111000F3E4E0EBE5EDEDFBE920002ECFF3F1EA9F
:1011200020CFD0C420202020202020202020002ECE
:10113000CFF3F1EA20EDE0EBE0E42E20E2EAEB2E43
:101140002020002ECFF3F1EA20EDE0EBE0E42E20AA
:10115000E2FBEAEB2E20002ECFF3F1EA20F3E4E0ED
:10116000EB2E20CCC0CD20312020002ECFF3F1EA91
:1011700020F3E4E0EB2E20CCC0CD20322020002E46
:10118000CFF3F1EA20F3E4E0EB2E20CCC0CD203306
:101190002020002ECFF3F1EA20F3E4E0EB2DFBF565
:1011A00020CCC0CD2020003B0F4F0F630F770F8B5B
:1011B0000F9F0FB30FC70FDB0FEF0F031017102B8D
:1011C000103F10531067107B108F10A310B710CB77
:1011D00010DF10F31007111B112F11431157116B62
:1011E000117F119311C2FBEFEEEBEDE8F2FC00E58D
:1011F0001120202020204572726F72202020202094
:101200002000CDE5E8F1EFF02EF7F22E20464C411C
:10121000534800CDE5E8F1EFF02EE7E0EF2E464C25
:1012200041534800CDE5E8F1EFF02EF7F22E2050C3
:101230004C49532000CDE5E8F1EFF02EE7E0EF2E2A
:10124000504C49532000CDE5E8F1EFF02EE7E0EFF8
:101250002E3252414D2000CDE5F220F1E8E3EDE0E1
:10126000EBE020CFD0CC2000C0CA2DD1EDE8E6E5E0
:10127000ED2EE7E0EFE0F1E000CFEEECE5F5E02069
:10128000E220EBE8EDE8E8202000CDE5E8F1EFF022
:101290002E445350203252414D2000CDE5E8F1EF6D
:1012A000F02EF7F22E203252414D2000D2EEEA20ED
:1012B000EFEEEAEEFF2020202020202000CDE8E7FE
:1012C000EAEEE520EDE0EFF02EE2FBF52E00C2FBAA
:1012D000F1EEEAEEE520EDE0EFF02EE2FBF500CDD9
:1012E000E5E8F1EFF02E20CCCA20D3CC202020005E
:1012F000C2D720F2F0E0EAF220E2EEF1F1F22E2085
:101300000002121312241235124612571268127973
:10131000128A129B12AC12BD12CE12DF12F012F121
:1013200011C0CA2DCDE5F220EEF2E2E5F2E0202078
:101330002000D3F1F2E0EDEEE2E8F2E520F7E0F193
:10134000FB2000CEF2EAE0E720F0E5E7E5F0E22E50
:10135000EBE8ED00D3E4E0EB2EEFEEF1F220EDE56B
:10136000E8F1EFF000D3E4E0EB2ECFD0C420EDE5C0
:10137000E8F1EFF02E00D3E4E0EB2ECFD0CC20ED5F
:10138000E5E8F1EFF02E0032134313F111F111549F
:101390001365137613F11120202000203120002046
:1013A000322000312032002033200031203300323F
:1013B000203300203F200097139B139F13A313A7F4
:1013C00013AB13AF13B313CDE5F220E1EBEEEAE07C
:1013D00020C1D1C720202000CDE5E8F1EFF02EE2BA
:1013E000E5F0F12EC1D1C72000CDE5E8F1EFF02EF8
:1013F000EFE5F0E5EAEB2E202000CDE5E8F1EFF097
:101400002EE7E0EF2E20C1D1C72000CDE5F220F17C
:10141000E8E3EDE0EBE020CFD0CC2000CDE8E7EA38
:10142000E8E920F3F02E20D0C720202000CDE5E809
:10143000F1EFF02EF3E42EC4D4C700CDE5E8F1EFD0
:10144000F02EF3E42EC2DBD500CDE5E8F1EFF02E6F
:10145000E2F5EEE42ECFD3D1CA00CDE5E8F1EFF00E
:101460002EE2F5EEE42ED1D2CECF00D3E4E0EB2E87
:10147000E1E5E720EEF2E22E00CDE5E8F1EFF02E17
:10148000F6E5EFFC2EC2DBD52000D3E4E0EB2EEE38
:10149000E1ED2EEFEEEC2E00CDE5E8F1EFF02EE7DA
:1014A000E0EF2E20C2DBD52000C4EBE8F22E20EFC7
:1014B000EEECE5F5E02020202000CDE5E8F1EFF0AE
:1014C0002E20C4D4C72000C713D813E913FA130B76
:1014D000141C142D143B1449145A146B1479148AD7
:1014E000149814A914BA14C0CA2DCDE5F220EEF256
:1014F000E2E5F2E000C0CA2DD1ED2EE7E0EFE0F129
:10150000E02000CDE5F220F1E8E3EDE0EBE020CCD7
:10151000C0CD2000CFEEF0EEE320EFEE20EFEEECBA
:10152000E5F5E52000C0E2F2EEEAEEEDF2F0EEEBDA
:10153000FC2020202000CDE5F220E1EBEEEAE020C7
:10154000C1D1CA20202000CDE5E8F1EFF02EE2E580
:10155000F0F12EC1D1CA2000CDE5F220CAD720205B
:10156000202020202020202000CFF0E5E22EE4EBF8
:101570002DF1F2E82EEAEEEC2E00CDE5E8F1EFF0E9
:101580002EE7E0EF2E20C1D1CA2000CDE5E8F1EF33
:10159000F02EE2FBEAEB2ECAD1CA2000CDE5E8F13D
:1015A000EFF02EE2EAEB2E20CAD1CA2000CDE5E80A
:1015B000F1EFF02EEAEEEDF2F02ECAD1CA00CFF034
:1015C000E5E4F3EFF02EEDE5F220CAD7312000CFAD
:1015D000F0E8E5EC20E1EBEEEA2E20CAEEEC2E007E
:1015E0003615471558156915F111F111F111F11161
:1015F0007A158B159C15AD15BE15F111F111CF158E
:10160000D1EDE8E62E20F3F0EEE2EDFF20CFD0CCD6
:1016100000CDE5F220E1EBEEEAE020C1D1CA2020C6
:101620002000CDE5E8F1EFF02EE2E5F0F12EC1D19A
:10163000CA2000CDE5E8F1EFF02EF7F22EEAEEEC4D
:10164000E0EDE400CDE5E8F1EFF02EE2FBEAEB2E71
:10165000D2E5F1F200CDE5E8F1EFF02EE2EAEB2E73
:1016600020D2E5F1F200CDE5E8F1EFF02EE2F5EE63
:10167000E42ECAD1CA200011162216F111F111F17F
:1016800011F111F111F1113316441655166616F1C8
:1016900011F111F111F111C3F0313A00C3F0323AF6
:1016A00000C3F0F3EFEFE0203100C3F0F3EFEFE021
:1016B000203200A11601AA1602E2FBEAEB00EEF8C6
:1016C000E8E100D0C700CAD73100CAD73200CAD774
:1016D0003300CAD73400CAEEEC3100CAEEEC320057
:1016E000CAEEEC3300CAEEEC3400CAEEEC3500CAA8
:1016F000EEEC3600CAEEEC3700CAEEEC3800CAEE6B
:10170000EC3900CAEC313000CAEC313100CAEC319E
:101710003200CAEC313300CAEC313400CAEC313546
:1017200000CAEC313600CAEC313700CAEC3138005F
:10173000CAEC313900CAEC323000CAEC323100CA8E
:10174000EC323200CAEC323300CAEC323400CAEC5C
:10175000323500CAEC323600CAEC323700CAEC32FD
:101760003800CAEC323900CAEC333000CAEC3331ED
:1017700000CAEC333200BE16FFB91600C31601C60C
:101780001601CA1602CE1603D21604D61603DB16AD
:1017900004E01605E51606EA1607EF1608F4160922
:1017A000F9160AFE160B03170C08170D0D170E126B
:1017B000170F1717101C17112117122617132B17A5
:1017C000143017153517163A17173F1718441719FD
:1017D00049171A4E171B53171C58171D5D171E6209
:1017E000171F6717206C1721711722D2E5F1F2201D
:1017F0003100D2E5F1F2203200EB17F217CD2EF7CF
:10180000F22E464C41534800CD2EE7EF2E464C4178
:10181000534800CD2EF7F22E504C49532000CD2EC8
:10182000E7EF2E504C49532000CD2EE7EF2E3252D9
:10183000414D2000CD2EF7F22E3252414D2000CDE9
:101840002EF0E0E12E4453502000C2EEF1F22EF0D3
:101850002E44535000CDE8E7EA2E2055E2FBF50078
:10186000C2FBF12E2055E2FBF52000CD2EF1E22E39
:1018700020F120D3CC00CD2E20F7E0F1EEE22020A5
:1018800000CDE5F220E1EB2EC1D1C700CD2EE2E57F
:10189000F0F12EC1D1C700CD2EEFE5F02E20C1D141
:1018A000C700CDE5F220F12E20CCC0CD00CFE5F071
:1018B000E5E7E0EFF3F1EA00C8E7EC2EF0E5E6E853
:1018C000ECE000CEF82EE7E0EFE8F1E82000CEF8FB
:1018D0002EEAEEEDF2F02E2000D1EDE8E62EF32E0A
:1018E000CFD0CC00CDE5F220F12E20CFD0CC00CD52
:1018F000E5F220F12ECFD3D1CA00EDE5F220F12E92
:10190000D1D2CECF00C2FBEAEBFEF7E5EDE8E50071
:10191000CFEEECE5F5E020E220EF00CDE5E8F1EFD9
:10192000F02EC4D4C700D3E43A20CDE5F220C0CADB
:1019300000D3E43A20CFEEECE5F5E000D3E43A2022
:10194000CD2E20C4D4C700D3E43A20CD2E20C2DB54
:10195000D5005F00D1E2FFE7FC20F120CFCA002EC6
:1019600000303030300048775077547755775077D3
:1019700068770100D3100A00F10E0B0F3A0F600FC9
:10198000A60FF10F421059106B107D101100C811F5
:101990000C00E61017115D119711B011C811C81194
:1019A000E61017115D119711B0113500B51D090032
:1019B000C519D819041A781A981AE81B0D1D351D77
:1019C000A31D000101CF2890280190280190280133
:1019D00090280190280190280190280A95280195C7
:1019E000280195280195280195280195280B9A280A
:1019F000019A28019A28019A28019A280B9F280108
:101A0000A32801A72802AB2801AF2801AF2801AF06
:101A10002801AF2801AF2801AF2801AF2801AF2866
:101A200085B42801CC280FBA2801CC280FC0280182
:101A3000CC280FC62801CC28FB000001000E2C0783
:101A400000C02BCB2BD82BE32BEE2BF92B042C0037
:101A5000001100A72C06001C2C272C362C5B2C7C9C
:101A60002C9D2C000021001F2D0500B52CC02CCF73
:101A70002CDE2CFF2C0000006C2F0900BB2E0C2E3E
:101A80001C2E2C2E422E5E2E7A2E962EA12E003546
:101A900000D62F09007A2F852F902F9B2FA62FB1CC
:101AA0002FC12FD62FCC2F0077013E363636042E8D
:101AB00036022636011E36393A36043236022A36C6
:101AC000012236193836043036022836012036090C
:101AD0003C36043436022C36012436FB00000E3826
:101AE0001700C737C737C937C737C937C937C937E5
:101AF000C937C737C937C9370838C937C737C737AC
:101B0000C937C937C937C737C737C937C937C937D9
:101B100007017D4FE14E01EC4E01F64E01F64E01FC
:101B2000004F010A4F010A4F041A4F01244F0124AC
:101B30004F06344F01344F013E4F01464F01544F81
:101B4000015E4F05664F166E4F7D764FFB002301F9
:101B5000675ED7560D9055016352019552010053AF
:101B6000017353014E540167540136550146550126
:101B700087550AA45501495601DA5608995508C1F6
:101B800055FB0101685E7B53018E53029153019511
:101B90005301985301A05301C953010E540131540C
:101BA000029C5301A05301C953010E540131540644
:101BB0004554014954FB0101685E6F54018254058C
:101BC000855401AE5401F55401195503855401AEF5
:101BD0005401F554011955062D55013155FB0200EC
:101BE000685E1600AC55AF55AF55AF55AF55B25501
:101BF000B255B255B255B655B655B955B955B95590
:101C0000B955685EAF55AF55B655BD55AF55AF55D3
:101C1000000013590D002C583C584C585C58705813
:101C200084589858A858B858C858DB58EE580159E5
:101C30000000355D17009E5BAE5BBE5BCE5BDE5B7E
:101C4000EE5BFE5B0E5C1E5C2E5C415C565C6C5C6D
:101C5000785C8B5C9E5CB15CC45CD75CEA5CFD5CD0
:101C6000105D235D0700866110009A60F7603561A2
:101C7000B460866186619A60F7603561B4608661A0
:101C8000866148614D6152618161010037630C00DA
:101C90002E622E62366252625262376337632E6260
:101CA0002E623662526252620100DE7217002E67A7
:101CB0001B6850686768AE6807693B69376D396EA5
:101CC000576AC36B07693B69376D396E576ADE72B5
:101CD000E26E006F6C6F2670107279720000526AAB
:101CE0000D00A469B469BC69C469D469E469F46984
:101CF000046A146A246A2C6A346A3C6A0000BF6B66
:101D00001700A46AB46AC46ACC6ADC6AE46AEC6A42
:101D1000F46AFC6A0C6B146B246B246B416B516B83
:101D2000616B696B716B796B896B996BA16BA96B3B
:101D300030E042E007C050E0F801E40FF51F5081A9
:101D4000350F43954217B8F3032F0895E8E8F6E0FE
:101D500020812061208300930B0701E000930C0792
:101D600010930D0725E009E017E0E2DF10E0009393
:101D7000EF041093F0040091EF0400930E0706E0C7
:101D80000E94A22708959A938A93812FE8E8F6E0AB
:101D900010811061108300930B0780930C07282F8C
:101DA0002C5F09E017E0C4DF10E00093EF0410930C
:101DB000F0040091EF0490E0FC01E75FF84F04832A
:101DC0008B5F082F0E94A2278991999108950E9404
:101DD000137760908D06E2E7F0E0FBBFF9E10C9429
:101DE000CD767724E5E8FDE0059114916016710643
:101DF00040F0E7E8FDE005911491772406151705FA
:101E000038F4E7E8FDE0059103950093D104CBC1D8
:101E10006092D104C8C163947724EBE8FDE005919A
:101E200014916016710640F0EDE8FDE00591149103
:101E300077240615170520F40FE300937B03B3C145
:101E4000062D005D00937B030091AE0C061589F012
:101E50006092AE0C0E9496410E94CA380E94593C82
:101E600001E00E942A3D0E94A93F0E9426410E9453
:101E7000964199C17724E1E9FDE00591149160163E
:101E8000710640F0E3E9FDE0059114917724061511
:101E9000170538F40FE3009386030FE300938703DD
:101EA00082C14AE0062D0E942876005D00938603D9
:101EB0004AE0062D0E942876405D4093870373C157
:101EC0000091AD0C013039F4E7E9FDE08591E9E9D5
:101ED000FDE0A59102C080E0A6E3681610F0A6150B
:101EE00038F40FE300938F030FE3009390030EC0C9
:101EF0004AE0062D0E942876005D00938F034AE099
:101F0000062D0E942876405D409390030091AE0C10
:101F10000330D9F460908E06681610F0A61538F4D8
:101F20000FE3009397030FE3009398033CC14AE04B
:101F3000062D0E942876005D009397034AE0062D47
:101F40000E942876405D409398032DC180E0A8E46C
:101F5000442421C04AE0062D0E942876005D242DED
:101F600030E0220F331FF901E952FC4F208131810B
:101F7000F90100834AE0062D0E942876405D042D79
:101F800010E0000F111FF801E952FC4F0081118190
:101F9000F8014183439404E0401610F55524F20102
:101FA000E757F94F6480681610F0A61598F62FE3EE
:101FB000042D10E0000F111FF801E952FC4F0081C1
:101FC0001181F80120832FE3042D10E0000F111F71
:101FD000F801E952FC4F00811181F8012183DACF29
:101FE000E2C07724E3EAFDE00591149160167106E2
:101FF00040F0E5EAFDE005911491772406151705F8
:1020000038F40FE30093DF030FE30093E0030EC007
:102010004AE0062D0E942876005D0093DF034AE027
:10202000062D0E942876405D4093E0030091AE0C9F
:10203000033039F560908E067724E3EAFDE00591E0
:1020400014916016710640F0E5EAFDE005911491E7
:1020500077240615170538F40FE30093E5030FE323
:102060000093E603A0C04AE0062D0E942876005D9A
:102070000093E5034AE0062D0E942876405D4093D8
:10208000E60391C07724E9EAFDE00591149160161A
:10209000710640F0EBEAFDE00591149177240615F6
:1020A000170520F402E00093EF037DC06092EF0378
:1020B0007AC0E1EBFDE00591149177240615170530
:1020C00038F4E1EBFDE0059103950093F5036BC057
:1020D0006092F50368C0E7EBFDE005911491772469
:1020E0000615170538F4E7EBFDE00591039500931D
:1020F000F60359C06092F60356C07724E3EDFDE085
:10210000059114916016710640F0E5EDFDE0059132
:10211000149177240615170520F400E00093160BA0
:102120003FC06092160B0091DB0B002321F400915D
:10213000DB0B0830A8F500918E0610E020E0322F6E
:10214000212F102F00E040918F0650E060E070E0FA
:10215000040F151F261F371F322F212F102F00E0CD
:102160004091900650E060E070E0040F151F261FBC
:10217000371F322F212F102F00E04091910650E0A1
:1021800060E070E0040F151F261F371F48EE53E074
:1021900060E070E00E94A2760093170B1093180B7A
:1021A00001E00093B20201E00093EF0A01E0009326
:1021B000ED0AE8E00C941D770E941777802F082F16
:1021C000ECE8F0E0FBBFF9E10C94CD76813119F435
:1021D000A7EFB3E002C0A0E4B4E000918D0610E0E8
:1021E000E9EDFDE0259134910217130750F0EBED76
:1021F000FDE02591349100918D0610E02017310704
:1022000030F40FE30C930FE3FD010183C1C0009193
:102210008D064AE00E942876005D0C9300918D06A1
:102220004AE00E942876405DFD014183B1C08231C1
:1022300019F4ADEFB3E002C0A6E4B4E000918D065E
:1022400010E0EFEDFDE0259134910217130750F0F7
:10225000E1EEFDE02591349100918D0610E020170C
:10226000310748F40FE30C930FE3FD0101830FE303
:10227000FD0102838DC000918D060A3058F4009153
:102280008D06005D0C9300E3FD01018300E2FD017A
:1022900002837EC000918D064AE00E942876005D90
:1022A0000C9300918D064AE00E942876405DFD0166
:1022B000418300E3FD0102836BC0833119F4AAE975
:1022C000BBE002C0AAEBBBE000E00BC010E0F801ED
:1022D000E757F94F248110E0FD01E00FF11F208343
:1022E000039510918C06011708F510E0F801E757E7
:1022F000F94F248130E0E5EEFDE04591549124173B
:10230000350768F0E7EEFDE04591549110E0F801E3
:10231000E757F94F248130E042175307B8F62FEF03
:1023200010E0FD01E00FF11F2083DACF31C08431CE
:1023300019F4A8E2B4E002C0A1E7B4E000E00BC0E9
:1023400010E0F801E757F94F248110E0FD01E00F9C
:10235000F11F2083039510918C06011788F318C094
:10236000853119F4ACE2B4E002C0A5E7B4E000E0C6
:102370000BC010E0F801E757F94F248110E0FD0190
:10238000E00FF11F2083039510918C06011788F34D
:1023900001E00093EF0A01E00093ED0AE4E00C9401
:1023A0002177015261F00A9561F10A9509F46BC039
:1023B0000A9509F4AAC00A9509F4B9C0C9C0E9EFA1
:1023C000FDE02591349100918D0610E02017310732
:1023D00038F40FE3009379040FE300937A04B8C054
:1023E00000918D064AE00E942876005D00937904F2
:1023F00000918D064AE00E942876405D40937A0461
:10240000A7C000918D0610E0EDEFFDE0259134911D
:102410000217130750F0EFEFFDE025913491009182
:102420008D0610E02017310750F40FE300937F046E
:102430000FE3009380040FE30093810489C00091AF
:102440008D060A3060F400918D06005D00937F04D4
:1024500000E30093800400E20093810479C00091BE
:102460008D064AE00E942876005D00937F0400916B
:102470008D064AE00E942876405D4093800400E388
:102480000093810465C000918D0610E0E3E0FEE05A
:10249000259134910217130750F0E5E0FEE02591F5
:1024A000349100918D0610E02017310750F40FE3AE
:1024B000009386040FE3009387040FE300938804DE
:1024C00047C000918D060A3060F400918D06005DD2
:1024D0000093860400E30093870400E200938804DD
:1024E00037C000918D064AE00E942876005D009377
:1024F000860400918D064AE00E942876405D409354
:10250000870400E30093880423C000E00BC010E0C0
:10251000F801E757F94F248110E0F801EF55FB4F20
:102520002083039510918C06011788F311C000E0F9
:102530000BC010E0F801E757F94F248110E0F801D3
:10254000EB55FB4F2083039510918C06011788F300
:1025500001E00093EF0A01E00093ED0A089540E0E6
:1025600020C050E003E010E00E944676F801E757F3
:10257000F94F2581042F10E0000F111FF801E259D7
:10258000FC4F218350E003E010E00E944676F80102
:10259000E757F94F068150E0FA01E958FC4F0083F4
:1025A00043954430E0F550E003E010E00E944676A9
:1025B000F801E757F94F0481063050F02EE4042F5C
:1025C00010E0000F111FF801E259FC4F208311C0E9
:1025D00050E003E010E00E944676F801E757F94F1B
:1025E0002481042F10E0000F111FF801E259FC4F65
:1025F000208350E003E010E00E944676F801E757A0
:10260000F94F05810C3008F4ACCF2EE4042F10E014
:10261000000F111FF801E259FC4F2183B3CF01E0F5
:102620000093EF0A089500E00BC010E0F801E757AF
:10263000F94F248110E0F801E450F54F2083039511
:10264000043198F30091080B002321F40091090B49
:10265000002321F001E00093B30C03C000E00093DD
:10266000B30C00910A0B002321F400910B0B002303
:1026700021F001E00093B40C03C000E00093B40C1F
:102680000091FC0A002321F40091FD0A002321F0AF
:1026900001E00093B50C03C000E00093B50C00917D
:1026A000FE0A002321F40091FF0A002321F001E03B
:1026B0000093B60C03C000E00093B60C1091000B21
:1026C000183010F4012F01C007E00093F0030091CF
:1026D000010B5ED00091000B002321F40091010B4F
:1026E000002321F001E00093B70C03C000E0009349
:1026F000B70C0091020B002321F40091030B00237F
:1027000021F001E00093B80C03C000E00093B80C86
:102710000091040B002321F40091050B002321F00C
:1027200001E00093B90C03C000E00093B90C0091E4
:10273000060B002321F40091070B002321F001E098
:102740000093BA0C03C000E00093BA0C00910C0B8C
:10275000002321F400910D0B002321F001E00093F0
:10276000BB0C03C000E00093BB0C00910E0B0023D8
:1027700021F400910F0B002321F001E00093BC0C29
:1027800003C000E00093BC0C01E00093EF0A089541
:102790000E941877902F80E0A92F943688F044E6A5
:1027A0000A2F0E942876005D282F30E0F901EF50B3
:1027B000FC4F0083839544E6092F0E942876942FCE
:1027C0009A3058F04AE00A2F0E942876005D90E087
:1027D000FC01EF50FC4F008383954AE00A2F0E94D2
:1027E0002876405D90E0FC01EF50FC4F40838395DC
:1027F00007C000E290E0FC01EF50FC4F008383959E
:102800008430B8F3E3E00C942277392F682F0091DD
:102810008D060F70005D0093C70200918D06029532
:102820000F70005D0093C60200918E060F70005D70
:102830000093C40200918E0602950F70005D009314
:10284000C30200918F060F70005D0093C1020091DA
:102850008F0602950F70005D0093C00200919006F4
:102860000F70005D0093CA020091900602950F70F0
:10287000005D0093C902009191060F70005D009306
:10288000CD020091910602950F70005D0093CC027D
:10289000009192060F70005D0093D00200919206A5
:1028A00002950F70005D0093CF0200E004C010E0BD
:1028B0001093A7020395083068F510E0F801E05482
:1028C000FD4F108110531A3068F010E0F801E05409
:1028D000FD4F10811E3231F01091A6021395109316
:1028E000A60203C010E01093A60210E0F801E7531F
:1028F000FD4F108110531A30D0F210E0F801E75369
:10290000FD4F10811A3399F21091A702139510937D
:10291000A702D0CF8091C70290E04091C60250E05C
:102920000AE010E00E944676800F911F805192408D
:10293000843600E090072CF00091A60203950093E6
:10294000A6028091C40290E04091C30250E00AE0E8
:1029500010E00E944676800F911F805192408D308A
:1029600090402CF00091A60203950093A60280915E
:10297000C10290E04091C00250E00AE010E00E94E5
:102980004676800F911F80519240803290402CF00B
:102990000091A60203950093A6028091CA0290E0DE
:1029A0004091C90250E00AE010E00E944676800F94
:1029B000911F80519240893190402CF00091A702E4
:1029C00003950093A7028091CD0290E04091CC0244
:1029D00050E00AE010E00E944676800F911F80517F
:1029E00092408D3300E090072CF00091A7020395F0
:1029F0000093A7028091D00290E04091CF0250E076
:102A00000AE010E00E944676800F911F80519240AC
:102A10008D3300E090072CF00091A70203950093FE
:102A2000A7020091A602002301F100E30093C70270
:102A300000E30093C60200E30093C40200E30093A6
:102A4000C30200E30093C10200E30093C00200E070
:102A50000093A60200E00330B8F420E010E0F80193
:102A6000E056FD4F20830395F6CF00E00BC010E049
:102A7000F801E757F94F248110E0F801E056FD4FC7
:102A800020830395033098F30091A702002301F1FE
:102A900000E30093CA0200E30093C90200E300933D
:102AA000CD0200E30093CC0200E30093D00200E3E8
:102AB0000093CF0200E00093A70200E00330B8F4D7
:102AC00020E010E0F801E056FD4F23830395F6CF98
:102AD00000E00BC010E0F801E757F94F278110E044
:102AE000F801E056FD4F23830395033098F301E08E
:102AF0000093EF0A01E00093B202862F932F08950E
:102B00000E941677D801822F942F452E3A95082FD0
:102B100007C020E210E0FD01E00FF11F20830395C4
:102B20000830B8F300E8401658F00FEF4026439401
:102B30002DE2082F10E0FD01E00FF11F20838395A7
:102B4000042D10E0432F0E945076402E03E64016DD
:102B5000C8F44AE0042D0E942876005D282F30E05A
:102B6000FD01E20FF31F008383954AE0042D0E94CC
:102B70002876405D082F10E0FD01E00FF11F408333
:102B8000839510C02FE3082F10E0FD01E00FF11F27
:102B9000208383952FE3082F10E0FD01E00FF11F44
:102BA00020838395915019F09A9539F012C003EE65
:102BB00090E0A80FB91F0C930CC004EE90E0FD014B
:102BC000E80FF91F008301EC90E0A80FB91FFD0189
:102BD0000183E5E00C9420770E941577D801822FBD
:102BE000932F2A01082F07C020E210E0FD01E00F1B
:102BF000F11F208303950830B8F36415750508F4B8
:102C00006BC008EE401603E0500618F148EE53E0A2
:102C100082010E945376202F082F10E0FD01E00F63
:102C2000F11F2083082F10E0FD01E00FF11F40810C
:102C300050E008EE13E00E944676401A510A082F31
:102C4000802F839510E0FD01E00FF11F0081005DF2
:102C5000008304E6401600E0500618F144E650E018
:102C600082010E945376202F082F10E0FD01E00F13
:102C7000F11F2083082F10E0FD01E00FF11F4081BC
:102C800050E004E610E00E944676401A510A082FF0
:102C9000802F839510E0FD01E00FF11F0081005DA2
:102CA00000834AE050E082010E945376005D282FA5
:102CB00030E0FD01E20FF31F008383954AE050E00E
:102CC00082010E945376405D082F10E0FD01E00F65
:102CD000F11F4083839510C02FE3082F10E0FD0102
:102CE000E00FF11F208383952FE3082F10E0FD01F3
:102CF000E00FF11F20838395915039F09A9591F060
:102D00009A95B1F09A95D1F034C00CEE90E0FD01A7
:102D1000E80FF91F0083839500EC90E0A80FB91F1E
:102D20000C9327C005E290E0A80FB91F0C9321C0B7
:102D300003EE90E0A80FB91F0C931BC000E290E0D7
:102D4000FD01E80FF91F0083839501EF90E0FD017D
:102D5000E80FF91F0083839505EE90E0FD01E80F71
:102D6000F91F008383950AEE90E0A80FB91F0C931A
:102D70008395E6E00C941F77432F42954F704A30BD
:102D800018F0495C542F02C0405D542F452F622F2C
:102D900070E0F801E60FF71F40833F70432F4A3081
:102DA00018F0495C342F02C0405D342F432F30E0CF
:102DB000020F131FF801418308950E941577809137
:102DC0008D06A0918E0600E010E00093420C109357
:102DD000430C082F0D59073C20F40A2F065A053BD7
:102DE00050F00FE300933B0C0FE300933C0C00E02A
:102DF00000933D0C84C04424242D422E4394082F7C
:102E00000A2B0078002311F00DE201C00BE230E044
:102E1000F901E55CF34F008388231AF400E0081BF6
:102E2000802FAA231AF400E00A1BA02F082F0A2BD8
:102E3000002331F400E300933B0C00E000933C0CD2
:102E40008A305CF04AE0082F0E943676005D5524F7
:102E5000F201E55CF34F008343944AE0082F0E949F
:102E60003676405D5524F201E55CF34F4083439490
:102E70000EE25524F201E55CF34F008343944AE0EF
:102E80000A2F0E943676005D5524F201E55CF34F6F
:102E90000083439402EC5524F201E55CF34F008378
:102EA000439400E05524F201E55CF34F0083439422
:102EB000482F542F550F550B0AE010E00E9446761C
:102EC000C8010A2F102F110F110B4AE050E00E9489
:102ED0006B76800F911F8093420C9093430C00916E
:102EE0003B0C0D3261F400E010E02091420C309177
:102EF000430C021B130B0093420C1093430CA1E0F4
:102F0000B6C02DE24A2F50E009E010E00E9446765C
:102F1000EBE3FCE0E00FF11F032F10E0E00FF11FE7
:102F2000208399232AF40FEF1FEF80279127019622
:102F3000843600E09007D4F144E650E08C010E9412
:102F40006B76202F4A2F50E009E010E00E94467671
:102F5000EBE3FCE0E00FF11F5524E40DF51D2083A9
:102F60004A2F50E009E010E00E944676EBE3FCE0D7
:102F7000E00FF11F5524E40DF51D408150E004E6FB
:102F800010E00E944676801B910B4A2F50E009E02A
:102F900010E00E944676EBE3FCE0E00FF11F5524C1
:102FA000E40DF51D0081005D008343948A3000E04C
:102FB0009007B4F04AE050E08C010E946B76202F1D
:102FC000205D4A2F50E009E010E00E944676EBE3D6
:102FD000FCE0E00FF11F5524E40DF51D2083439420
:102FE0004AE050E08C010E946B76242F205D4A2F2E
:102FF00050E009E010E00E944676EBE3FCE0E00FD1
:10300000F11F5524E40DF51D208343942CEE4A2F27
:1030100050E009E010E00E944676EBE3FCE0E00FB0
:10302000F11F5524E40DF51D2083439420EC4A2F15
:1030300050E009E010E00E944676EBE3FCE0E00F90
:10304000F11F5524E40DF51D2083439420E04A2F01
:1030500050E009E010E00E944676EBE3FCE0E00F70
:10306000F11F5524E40DF51D20834394A395A3304F
:1030700008F07AC00A2F10E0000F111FF801E7577F
:10308000F94F948180E00A2F10E0000F111FF80122
:10309000E757F94F058110E0800F911F20E030E0E5
:1030A0004A2F50E009E010E00E944676F801E55C06
:1030B000F34F278330878C0109511C4F0F3C27E0C9
:1030C000120710F12FE34A2F50E009E010E00E94B0
:1030D0004676F801E55CF34F20832FE34A2F50E05A
:1030E00009E010E00E944676F801E55CF34F218389
:1030F00020E04A2F50E009E010E00E944676F801F7
:10310000E55CF34F2283B2CF082F092BB9F420E3FB
:103110004A2F50E009E010E00E944676F801E55C95
:10312000F34F208320E04A2F50E009E010E00E9496
:103130004676F801E55CF34F218398CF44244A2F6B
:1031400050E009E010E00E944676F801E55CF34F9C
:1031500087839087342D432E4394813000E090077D
:103160000CF4CFCE2BE2CECEE6E00C941F7700918C
:103170008D0610E0E7E8FEE0259134910217130771
:1031800040F0E9E8FEE02591349110E02017310786
:1031900020F4E9E8FEE00591039500933A0C0895C8
:1031A0009A938A9300918D06002309F0DDC0509117
:1031B0008E0641E032E022E006EF12E0A1DC309121
:1031C0008E0623E00BED12E0D7DD30918F0625E06F
:1031D0000BED12E0D1DD3091900620E000919106D8
:1031E00010E0200F311F2093FA0A3093FB0A67EE9C
:1031F00073E04091FA0A5091FB0A31E023E00FEFAF
:1032000012E0EADC009193064AE00E9428760093DF
:103210001F034091920650E00AE010E00E944676BB
:1032200020911F0330E0020F131F0093F80A109340
:10323000F90A8091F80A9091F90A0096883E03E015
:10324000900720F400911F030A3080F000E010E0A6
:103250000093F80A1093F90A0FE300931C030FE39D
:1032600000931D030FE300931F0315C00091920606
:103270004AE00E942876005D00931C0300919206AC
:103280004AE00E942876405D40931D0300911F0391
:10329000005D00931F035091940642E031E023E06B
:1032A0000CE213E02DDC0091AE0C033041F45091A0
:1032B000950642E031E023E005E313E021DC0091D4
:1032C000160B043051F400916E03043030F400E02A
:1032D0000093960600E0009397065091960642E010
:1032E00031E023E00EE313E00BDC0091AE0C033081
:1032F00041F45091970642E031E023E007E413E007
:10330000FFDB5091980642E031E023E003E213E056
:10331000F7DB63E670E04091990650E032E024E08C
:1033200008E013E059DC3091990623E004EE12E046
:1033300023DD50919A0640E000919B0610E0400F7B
:10334000511F68E671E033E023E001E113E044DC63
:1033500030919A0623E00DEE12E00EDD30919B06CF
:1033600025E00DEE12E008DD01E00093B30201E07C
:103370000093EF0A8991999108959A938A93EAEAC2
:10338000F0E0FBBFF9E10C94CD76EDE1FEE0259194
:10339000349100918D0610E02017310720F402E0EF
:1033A0000093A904E2C300918D060093A904DDC334
:1033B00000918D0610E0E1E2FEE0259134910217C4
:1033C000130750F0E3E2FEE02591349100918D0661
:1033D00010E02017310738F40FE30093AA040FE33D
:1033E0000093AB04C2C300918D064AE00E94287688
:1033F000005D0093AA0400918D064AE00E942876A1
:10340000405D4093AB04B1C3E7E1FEE02591349108
:1034100000918D0610E02017310750F4E7E1FEE03F
:10342000059103950093DA0B0FEF0093DB0B9DC31F
:1034300000918D060093DA0B0091DA0B1091DB0BF3
:10344000011709F492C30091DA0B0093DB0B0E9481
:10345000CA380E94593C01E00E942A3D0E94A93FBF
:103460000E9426410E9496410091B5020A3021F047
:103470000091B502003181F40091DC0B0A950093B4
:10348000590C0091590C1091580C011780F50091BE
:10349000590C0093580C69C30091B502073021F014
:1034A0000091B5020D3081F400911C0B0A95009338
:1034B000590C0091590C1091580C0117C0F400914F
:1034C000590C0093580C51C30091B502063179F4A0
:1034D0000091460B03500093590C0091590C109128
:1034E000580C011720F40091590C0093580C3DC35F
:1034F00000918D064AE00E942876405D4093B20418
:1035000000918D064AE00E94287600938D06009176
:103510008D064AE00E942876405D4093B1040091F8
:103520008D064AE00E942876005D0093B0041DC31A
:103530000091AD0C023081F480918D06E5E3FEE050
:103540000591149190E00817190710F480E301C069
:10355000805D8093B4040FC30091DA0B043041F511
:1035600080918D0690E0EDE8FEE0059114918017C2
:10357000910740F0EFE8FEE00591149190E0081704
:10358000190738F40FE30093CA040FE30093CB0448
:10359000ECC24AE0082F0E942876005D0093CA041E
:1035A0004AE0082F0E942876405D4093CB04DDC29C
:1035B00080918D0690E0E3E6FEE00591149180177E
:1035C000910740F0E5E6FEE00591149190E00817C0
:1035D000190720F4E5E6FEE0859183958093050CBC
:1035E00080918E0690E0E9E6FEE005911491801747
:1035F000910740F0EBE6FEE00591149190E008178A
:10360000190720F4EBE6FEE0859183958093060C84
:1036100080918F0690E0EFE6FEE00591149180170F
:10362000910740F0E1E7FEE00591149190E0081762
:10363000190750F40FE30093070C0FE30093080CF5
:103640000FE30093090C1AC04AE0082F0E94287665
:10365000405D4093090C4AE0082F0E942876802F95
:103660004AE0082F0E942876405D4093080C4AE00B
:10367000082F0E942876005D0093070C8091900629
:103680004AE0082F0E942876405D4093130C4AE0E0
:10369000082F0E942876802F4AE0082F0E94287663
:1036A000405D4093120C4AE0082F0E942876005D8E
:1036B0000093110C8091910690E0EBE7FEE00591FC
:1036C00014918017910740F0EDE7FEE00591149109
:1036D00090E00817190738F40FE300931B0C0FE371
:1036E00000931C0C0EC04AE0082F0E942876005D53
:1036F00000931B0C4AE0082F0E942876405D4093FF
:103700001C0C8091920690E0E1E8FEE00591149196
:103710008017910740F0E3E8FEE00591149190E0F6
:103720000817190720F4E3E8FEE08591839580935C
:10373000250C8091930690E0E3E9FEE00591149159
:103740008017910740F0E5E9FEE00591149190E0C3
:103750000817190750F40FE30093260C0FE30093AA
:10376000270C0FE30093270C0BC0E5E9FEE0659101
:103770007491482F50E034E020E006E21CE02CDA9F
:103780008091940690E0E9E9FEE00591149180179C
:10379000910740F0EBE9FEE00591149190E00817E5
:1037A000190750F40FE30093300C0FE30093310C32
:1037B0000FE30093320CD9C1EBE9FEE065917491FF
:1037C000482F50E034E020E000E31CE005DACDC1F2
:1037D00030918D0620E000918E0610E0200F311F01
:1037E0002093F1043093F20400E000938D060091E1
:1037F000F1041091F204E9E3FEE0259134910217FF
:10380000130720F401E000938D060EC0EBE3FEE009
:10381000059114912091F1043091F20402171307DD
:1038200018F401E000938D0600918D060023F9F055
:103830000FE30093BA040FE30093BB040FE300937C
:10384000BC0400E20093BD040AEE0093BE0403EC46
:103850000093BF0406EF0093C0040FE30093D2026D
:103860000FE30093D3020FE30093D402D2C0009180
:10387000F1041091F204043620E0120730F54AE01A
:1038800050E00091F1041091F2040E945376005D23
:103890000093BA044AE050E00091F1041091F20460
:1038A0000E945376405D4093BB0400E20093BC0449
:1038B0000AEE0093BD0403EC0093BE0406EF0093F0
:1038C000BF0400E20093C00498C00091F10410917D
:1038D000F204083E23E01207D0F544E650E00091E0
:1038E000F1041091F2040E945376005D0093BA0433
:1038F00044E650E00091F1041091F2040E945376E6
:103900004093F1045093F2044AE050E00091F10436
:103910001091F2040E945376005D0093BB044AE0CC
:1039200050E00091F1041091F2040E945376405D42
:103930004093BC0400E20093BD040AEE0093BE0471
:1039400003EC0093BF0406EF0093C00456C000913F
:10395000F1041091F204003127E2120708F04DC083
:1039600048EE53E00091F1041091F2040E94537666
:10397000005D0093BA0448EE53E00091F104109109
:10398000F2040E9453764093F1045093F20444E60B
:1039900050E00091F1041091F2040E945376005D12
:1039A0000093BB0444E650E00091F1041091F2044E
:1039B0000E9453764093F1045093F2044AE050E0A1
:1039C0000091F1041091F2040E945376005D00937F
:1039D000BC044AE050E00091F1041091F2040E940E
:1039E0005376405D4093BD040AEE0093BE0403ECA1
:1039F0000093BF0406EF0093C0040091BA04009343
:103A0000D2020091BB040093D3020091BC04009346
:103A1000D40201E00093B202A8C000918D0610E02C
:103A2000EFE3FEE0259134910217130750F0E1E433
:103A3000FEE02591349100918D0610E020173107AA
:103A400038F40FE30093C2040FE30093D90209C0D6
:103A500000918D06005D0093C2040091C2040093A2
:103A6000D90201E00093B20280C0EDE4FEE02591AE
:103A7000349100918D0610E02017310738F40FE3E0
:103A80000093C4040FE30093C50410C000918D0699
:103A90004AE00E942876005D0093C40400918D06E0
:103AA0004AE00E942876405D4093C504E3E5FEE0CD
:103AB0002591349100918E0610E02017310738F4DB
:103AC0000FE3009330040FE30093310413C000911F
:103AD0008E064AE00E942876005D00933004009133
:103AE0008E062091300420531AE0219F0019005DBA
:103AF000009331040091AE0C0330B9F5EDE4FEE023
:103B00002591349100918F0610E02017310738F489
:103B10000FE3009336040FE30093370426C00091AF
:103B20008F064AE00E942876005D009336040091DB
:103B30008F062091360420531AE0219F0019005D62
:103B40000093370412C0E7E4FEE025913491009120
:103B50008D0610E02017310720F402E00093D00416
:103B600004C000918D060093D00401E00093EF0A99
:103B700001E00093ED0A89919991089540E001E0F8
:103B80000093EF0A01E00093ED0A0FE010E02091AE
:103B90008B0622952F7030E0021B130B20918E0CA8
:103BA00030E0F901E357F34F228130E002171307A9
:103BB00009F441E000918B060F700130D9F44423E1
:103BC000C9F000918E06002359F000E011E0009347
:103BD000940C1093950C00918D060093960C0AC0DE
:103BE00000918D0610E00093940C1093950C00E06A
:103BF0000093960C00918B060F700230E1F4442381
:103C000079F000E00031B8F410E0F801E757F94F1F
:103C1000248110E0F801E357F34F22870395F2CF98
:103C200000E007C020E010E0F801E357F34F2287DF
:103C300003950031B8F3089520E070E021E0009191
:103C40008D06702F072F0F700023A9F070FB16F45C
:103C500023E003C071FB0EF424E00091AE0C0330AE
:103C6000E9F52130D9F572FB16F425E037C073FB76
:103C7000AEF526E033C00091A80C002321F400919A
:103C8000A90C002359F10091A90C1091A80C01175F
:103C900018F40091A80C02C00091A90C602FEEE866
:103CA000F6E037E070813196772381F050E001C073
:103CB0005395583058F4452F01E010E00E9450769B
:103CC000172F10231123A1F3232F250F385F213045
:103CD00011F4685001C060E0613024F72093050DB5
:103CE0000091A70C002349F070918D0674FB16F427
:103CF00022E001C021E02093DB0C01E00093EF0AF9
:103D000001E00093ED0A089511E000E000938D0CAE
:103D100000E000938F0C00918D06013091F401E0DA
:103D20000093A70C01E00093690320918D0C23956B
:103D300020938D0C03E030E0F901E357F34F028349
:103D40000BC000E00093A70C00E000936703009114
:103D50008D06002309F010E000918E06093070F402
:103D600000918E06033051F010918E0604E0109FF2
:103D70000092AA0C01E00093690304C000E00093E4
:103D8000AA0C10E000918F06093058F400918F06BC
:103D9000033039F010918F0604E0109F0092AB0CB5
:103DA00004C000E00093AB0C10E0009190060930D5
:103DB00058F400919006033039F01091900604E019
:103DC000109F0092A90C04C000E00093A90C10E021
:103DD000009191060330C1F503E00093AE0C009111
:103DE000AB0C002321F40091A70C002319F001E093
:103DF00000936A030091A70C002379F00091AA0CAC
:103E0000002359F00091AB0C002339F00091A90C6C
:103E1000002319F001E00093B20C0091AA0C10915C
:103E2000AB0C010F0093A80C0091AB0C0023D9F050
:103E300020918D0C239520938D0C04E030E0F90146
:103E4000E357F34F02830FC002E00093AE0C00E093
:103E50000093AB0C0091AA0C0093A80C0091910662
:103E6000023009F010E00091A80C002359F02091D5
:103E70008D0C239520938D0C02E030E0F901E3577F
:103E8000F34F02830091A90C002359F020918D0C6F
:103E9000239520938D0C01E030E0F901E357F34FB7
:103EA000028300919206023021F402E00093AD0CEF
:103EB00008C001E00093AD0C00919206013009F0BA
:103EC00010E00091AD0C013021F404E00093EE0A03
:103ED00003C003E00093EE0A3091930620E00091C6
:103EE000940610E0200F311F2093AC023093AD02F6
:103EF0003091950620E00091960610E0200F311FCA
:103F00002093AE023093AF0200919C0610E1019F16
:103F100000E000220FE010220092B0021092B102E5
:103F200000919C0610E00F701070EAEAF2E0268122
:103F30003781200F311F2683378300919706083081
:103F400028F4009197060093DA0B04C010E000E01B
:103F50000093DA0B0091AD0C023021F401E00093E4
:103F6000D30C13C00091AE0C023021F402E0009398
:103F7000D30C0BC00091AE0C033021F404E000938D
:103F8000D30C03C000E00093D30C00E00093BE0C00
:103F90000091A70C002389F00EE115E02091BE0CE2
:103FA00030E0220F331FF901E154F34F00831183F6
:103FB0000091BE0C03950093BE0C0091AE0C023034
:103FC000B1F40091A80C0023E1F106E215E0209184
:103FD000BE0C30E0220F331FF901E154F34F008390
:103FE00011830091BE0C03950093BE0C2AC0009172
:103FF000AA0C002389F003E415E02091BE0C30E008
:10400000220F331FF901E154F34F00831183009114
:10401000BE0C03950093BE0C0091AB0C002389F0FD
:104020000FE415E02091BE0C30E0220F331FF901A0
:10403000E154F34F008311830091BE0C039500936C
:10404000BE0C0091A90C002389F000E315E020913B
:10405000BE0C30E0220F331FF901E154F34F00830F
:1040600011830091BE0C03950093BE0C0CE315E088
:104070002091BE0C30E0220F331FF901E154F34FC1
:10408000008311830091BE0C03950093BE0C0FEFCB
:104090000093DB0B0E94CA380E94593C01E00E9449
:1040A0002A3D0E94A93F0E9426410E94964101E0BC
:1040B0000093AF0C08959A938A93802F282F2A9506
:1040C00009E816E00E94980E10E00093EF041093A8
:1040D000F0042091EF043091F00490E0FC01E857E7
:1040E000F94F008110E02017310719F0549A579AC0
:1040F000C8C000919907023009F04BC000E00BC026
:1041000010E0F801E757F94F208110E0F801E0587E
:10411000FA4F20830395081798F3009182050F3317
:1041200091F590E0FC01E158FA4F40810091830540
:104130000331B0F4202F2C5F08C010E030E0F9010B
:10414000E058FA4F1083239503950331B0F34D5E89
:1041500010918305411B00938305802F8B5F06C060
:1041600010919505411B10919605411B17E0109386
:104170009505410F18E510939605410F10E0F801E1
:10418000E058FA4F448303E00093990780939A071D
:1041900078C000919907002309F073C049E856E000
:1041A00020918B0630E00091060D1091070D0E94C2
:1041B000842800918B06007F005039F0005151F0A7
:1041C000005169F0005181F044C000918B060E94BB
:1041D000E70E55C000918B060E94DC1050C0009184
:1041E0008B060E94D1114BC000918B06005369F0E1
:1041F0000A9571F00A9579F00A9581F00A95C1F057
:104200000A50E9F00A95F9F020C00E94AF1237C0B9
:104210000E94131334C00E94051431C00091AD0CEC
:10422000013019F40E94DD162AC00E94B71827C079
:104230000091AD0C013019F50E94D01820C00091FA
:104240008D06FADC1CC060DD1AC000918B0695D883
:1042500016C000918B06015C79F00A9579F00F5039
:1042600059F00A9559F00F5039F00A9539F00F506E
:1042700019F00A9519F003C081DC01C07FDC549A63
:10428000579A0E94A72700E000939B078991999174
:1042900008950C018FEF3FEF60E014C070E0F8016B
:1042A000E60FF71F40818427482F832F50E0FA0143
:1042B000E457FF4F3491832750E0FA01E457FE4F53
:1042C00034916395621750F3132F00E090E0082BB0
:1042D000192BC001089530E04091110B405019F0A6
:1042E0004A9569F017C042E007C050E0F801E40FBA
:1042F000F51F5081350F43954217B8F30BC040E0CE
:1043000007C050E0F801E40FF51F5081350F4395C9
:104310004217B8F3032F08959A938A93812FEFEFF2
:10432000F4E01081106110831091110B105019F0FE
:104330001A95D9F03CC00093820580938305282FFD
:104340002C5F00E815E0C7DF10E00093F304109342
:10435000F4040091F30490E0FC01E058FA4F048368
:104360008B5F082F0E94662822C01091A80210932C
:10437000800500938105282F2D5F00E815E089DF77
:104380000093F3041093F4040091F30490E0FC0113
:10439000E058FA4F03831091F404012F90E0FC01E0
:1043A000E058FA4F04838B5F082F0E94662889919A
:1043B00099910895EFEFF4E010811061108300935C
:1043C000820502E00093830526E000E815E083DF24
:1043D00010E00093F3041093F4040091F3040093AD
:1043E000860507E00E9466280895EFEFF4E010814B
:1043F000106110831091A80210938005109101059F
:104400001068109381050093820523E000E815E011
:1044100062DF10E00093F3041093F4040091F304BE
:10442000009383051091F404012F0093840505E0A7
:104430000E94662808959A938A93802F0E94732879
:1044400000FB4EF400E00093840500E00093850536
:1044500001EEB0DF77C30091110B005021F00A95F7
:1044600009F434C165C300910005053509F023C185
:10447000009101050A3A09F01EC10091030510E000
:10448000E82FF0E035970E171F0751F00091030554
:104490000093840585508093850503EE8BDF52C31E
:1044A000282F2A9500E015E016DF10E00093F304B2
:1044B0001093F4042091F3043091F40490E0FC0193
:1044C000E150FB4F008110E02017310771F090E0C0
:1044D000FC01E150FB4F0081009384050091F3043F
:1044E0000093850502EE66DF2DC3009102050437B7
:1044F00029F000910205033709F0BFC000910205C1
:10450000043789F54091780C50E008EE13E00E94E2
:10451000467698014091790C50E004E610E00E9444
:104520004676200F311F40917A0C50E00AE010E0EF
:104530000E944676200F311F00917B0C10E0200F67
:10454000311F2055304D2093F7043093F80410911B
:10455000F804012F009384050091F704009385056A
:1045600012E002E7D9DE00910205033709F077C0B7
:104570003091040520E00091050510E0200F311F67
:104580002093F7043093F80448EE53E00091F704C9
:104590001091F8040E945376005D0093780C80918E
:1045A000780C90E0C09708EE13E0AC010E944676CC
:1045B000E7EFF4E020813181201B310B2083318330
:1045C00044E650E00091F7041091F8040E945376FD
:1045D000005D0093790C8091790C90E0C09704E61F
:1045E00010E0AC010E944676E7EFF4E020813181D3
:1045F000201B310B208331834AE050E00091F70407
:104600001091F8040E945376005D00937A0C80911B
:104610007A0C90E0C0970AE010E0AC010E94467668
:10462000E7EFF4E020813181201B310B20833183BF
:104630000091F704005D00937B0C10E003E76CDE53
:1046400001E000938F0700E010E0009395071093BE
:10465000960708E71CE000939107109392070FE07C
:104660000093A90200919A00006100939A000091C2
:104670009A00006800939A0065C200E011C010E043
:10468000F801E050FB4F208110E0F801E75FF84FA0
:10469000208320E010E0F801E050FB4F20830395D9
:1046A000081768F380939A0701E0009399070FE0D9
:1046B0000093A90247C200919A00006100939A00FA
:1046C00000919A00006800939A003CC20091000596
:1046D0001091A802011709F020C2282F225000E0F3
:1046E00015E0D7DD0093F3041093F40490E0FC018F
:1046F000E250FB4F008190E0FC01E150FB4F108144
:104700000093F5041093F6040091F3041091F4045F
:104710002091F5043091F6040217130769F0009117
:10472000F304009382051091F404012F0093830594
:1047300011E00FEFF1DDF6C13091020520E00091AC
:10474000030510E0200F311F2093FA043093FB047F
:10475000009105050093F90400910105035021F033
:10476000035009F4B2C1D6C10091F904013420F418
:104770000091F904002319F403E037DED3C100915E
:10478000FA041091FB040A5F1040063023E0120780
:10479000A8F02091FA043091FB040091F90410E094
:1047A000200F311F2B3F00E0300758F00091FA0432
:1047B0001091FB04003024E0120718F402E015DE2B
:1047C000B1C11091F90402E0109F0092820500919E
:1047D000FA041091FB040A3F20E0120718F580E06C
:1047E00015C06091FA047091FB0490E0680F791F86
:1047F00002E0809F03E0000E402D20E835E00091AC
:10480000060D1091070D0E94D22883950091F9049E
:10481000801738F31091F90402E0109F102D03E087
:104820007BDD80C10091FA041091FB04005014401C
:1048300000302EE1120708F046C001E000938B0C17
:1048400020E030E00091060D1091070D0E94B12B81
:104850004FE00091F9040E94287600938A0C0091A1
:104860008A0C002329F400918A0C039500938A0C8A
:104870008FE090E00091FA041091FB040050144086
:104880004FE050E00E945376841B950B0091F90491
:1048900010E08017910728F400918A0C039500938B
:1048A0008A0C0091FA041091FB04005014404FE070
:1048B00050E00E9453760093FC041093FD0402EF35
:1048C00000938C0C2FC10091FA041091FB0400504E
:1048D000144200302EE1120708F04BC001E00093B3
:1048E0008B0C20E030E00091060D1091070D0E9426
:1048F000B12B4FE00091F9040E94287600938A0CB6
:1049000000918A0C002329F400918A0C03950093EE
:104910008A0C0091FA041091FB04005014424FE0FD
:1049200050E00E9453764093FE040FE010E0209187
:10493000FE0430E0021B130B2091F90430E0021753
:1049400013072CF400918A0C039500938A0C0091B4
:10495000FA041091FB04005014424FE050E00E9412
:1049600053760093FC041093FD0402EC00938C0C2E
:10497000D9C00091FA041091FB0400501444003097
:104980002EE1120708F04BC001E000938B0C20E0F1
:1049900030E00091060D1091070D0E94B12B4FE001
:1049A0000091F9040E94287600938A0C00918A0CE9
:1049B000002329F400918A0C039500938A0C00913E
:1049C000FA041091FB04005014444FE050E00E94A0
:1049D00053764093FE040FE010E02091FE0430E097
:1049E000021B130B2091F90430E0021713072CF47B
:1049F00000918A0C039500938A0C0091FA0410919F
:104A0000FB04005014444FE050E00E9453760093A2
:104A1000FC041093FD0402ED00938C0C83C0009104
:104A2000FA041091FB040050144600302EE11207E6
:104A300008F078C001E000938B0C20E030E000919A
:104A4000060D1091070D0E94B12B4FE00091F90463
:104A50000E94287600938A0C00918A0C002329F486
:104A600000918A0C039500938A0C0091FA0410912E
:104A7000FB04005014464FE050E00E9453764093F0
:104A8000FE040FE010E02091FE0430E0021B130B47
:104A90002091F90430E0021713072CF400918A0CDE
:104AA000039500938A0C0091FA041091FB040050C6
:104AB00014464FE050E00E9453760093FC0410939C
:104AC000FD0402EE00938C0C2DC05091040540E0D3
:104AD0000091050510E0400F511F2091FA0430911C
:104AE000FB040091060D1091070D0E94192900E0AA
:104AF0000BC010E0F801E050FB4F208110E0F801FE
:104B0000E058FA4F20830395063098F313E006E04F
:104B100003DC08C001E069DC05C000919A00006177
:104B200000939A0000919A00006800939A000AC0CE
:104B300000919A00006100939A0000919A00006829
:104B400000939A000E9480288991999108950FEC12
:104B500009B91098119A1898199A0EE000939500C7
:104B600008E10AB9549A579A06B70D7F06BF07B7EE
:104B7000016007BF05E002BF04E003BF05E5009345
:104B800009070AEA00930A0705E5009389060AEA7D
:104B900000938A060895FA93EA935A934A933A93B4
:104BA0002A931A930A934FB75BB70CB15C9952C022
:104BB00010918B07105039F01A9559F01A9599F009
:104BC0001A95B9F027C0053519F401E000938B0759
:104BD00041C00A3A21F402E000938B073BC000E099
:104BE00000938B0737C000938B0603E000938B077D
:104BF00031C000938C060C3720F010E010938B0727
:104C000003C014E010938B0710918B07100F1093C3
:104C10008C0720C020918B0730E0F901E757F94F4E
:104C2000008300918B0710918C07011770F001E051
:104C300000939B0700E000938B07549857980091CE
:104C40008C07039500939C0705C000918B07039583
:104C500000938B075BBF4FBF09911991299139913F
:104C600049915991E991F9911895FA93EA933A93F8
:104C70002A931A930A932FB73BB700918907109193
:104C80008A07011784F400918907102F110F110B67
:104C9000F801E75FF84F00810CB90091890703958F
:104CA000009389070FC05398559800E000938A0736
:104CB00000E000938907549A579AE8E8F6E00081EB
:104CC0000F7E00833BBF2FBF099119912991399124
:104CD000E991F99118959A938A93FA93EA933A9203
:104CE0002A921A920A927A936A935A934A933A931F
:104CF0002A931A930A938FB79BB72197A89505E03B
:104D000002BF0091F107003F09F045C000919907EB
:104D1000002309F040C00E94F03500938506009101
:104D2000850610918406011721F000918506003F49
:104D3000D1F4E6E8F6E0008111810F5F1F4F008398
:104D400011830091860610918706013921E0120730
:104D500084F000E911E0009386061093870600EFC7
:104D60000093840606C000E010E0009386061093CE
:104D700087060091850610918406011761F0009165
:104D80008506003F41F0009185060093F1070091F0
:104D900085060093840600918206053078F1009123
:104DA0008306013029F0EFEFF4E0008100FF22C01C
:104DB00000919A000F7E00939A0000919A000F775D
:104DC00000939A00EFEFF4E0008108600083009107
:104DD0007F060E941B2200E00093830600E0009300
:104DE0007F0600919C000883EFEFF4E000810F7EC6
:104DF000008309C00EE10093820605C0009182067F
:104E0000039500938206E19939C000918F07013024
:104E1000A9F5F89400919507109196071FBB0EBB5A
:104E200000918D0710E0E0919107F0919207E00F5B
:104E3000F11F00810DBBE29AE19A789400918D07F1
:104E4000039500938D07E5E9F7E0008111810F5F7D
:104E50001F4F0083118300918D0710E0E0919107AF
:104E6000F0919207E00FF11F31970081002331F498
:104E700000E000938F0700E000938D07E1994EC09A
:104E800000919007013009F049C0009197071091F7
:104E900098071FBB0EBBE09A2DB300918E0710E060
:104EA000E0919307F0919407E00FF11F20830091A8
:104EB0008E0710E0E0919307F0919407E00FF11F47
:104EC00000810F3F59F400E020918E0730E0E0911F
:104ED0009307F0919407E20FF31F0083E7E9F7E0EF
:104EE000008111810F5F1F4F0083118300918E0796
:104EF000039500938E0700918E0710E0E0919307D1
:104F0000F0919407E00FF11F31970081002331F4F5
:104F100000E00093900700E000938E0721969BBF6E
:104F20008FBF0991199129913991499159916991AD
:104F300079910990199029903990E991F991899185
:104F40009991189500938A07539A559A089500E00D
:104F500000938806089503E3009399008A988B9A3A
:104F60009298939A0EE000939D0008E100939A00B6
:104F700000919A00006100939A0000919A000068E5
:104F800000939A0005E5009380050AEA00938105E5
:104F90000895FA93EA934A933A932A931A930A93B9
:104FA0003FB74BB720919C0000919B00102F14FF3E
:104FB00005C0EFEFF4E000810160008300918306FB
:104FC000002391F4009182060E3170F001E000930D
:104FD000830600E000937F0600E000938206EFEF77
:104FE000F4E0008100610083009183060130E9F460
:104FF000009182060E31C8F400917F06003830F02F
:10500000EFEFF4E00081016000830CC000917F06A7
:1050100010E0F801E050FB4F208300917F060395DC
:1050200000937F0600E0009382064BBF3FBF0991CB
:105030001991299139914991E991F9911895FA932A
:10504000EA933A932A931A930A932FB73BB70091A6
:1050500080061091810601178CF400918006102FB4
:10506000110F110BF801E058FA4F008100939C00DA
:10507000009180060395009380061FC000919A005E
:10508000077F00939A0000919A000F7D00939A0089
:1050900000E00093810600E00093800600919A00F2
:1050A000006100939A0000919A00006800939A00B2
:1050B000EFEFF4E000810F7E00833BBF2FBF09912B
:1050C000199129913991E991F991189500938106E7
:1050D00000919A00086000939A0000919A00006283
:1050E00000939A0008950091FF0410919A00212FD7
:1050F00027FD026010919A00212F25FD046008957C
:1051000000E00093FF0408950E9415772801D9015B
:10511000CA018D01E2ECF0E0FBBFF9E10C94D1761D
:10512000AC019D01820121D33AC0AC019D018201F5
:1051300078D335C0AC019D0182010CD430C09C01F4
:10514000820180D42CC09C0182019DD428C09C0186
:105150008201C8D424C09C01820152D520C0AC0178
:105160009D018201BCD61BC045EB50E09C01820131
:1051700020D715C046EB50E09C0182011AD70FC022
:1051800047EB50E09C01820114D709C044EB50E08A
:105190009C0182010ED703C09C0182011DD7E6E06D
:1051A0000C941F770E9413772801D901642ECB013C
:1051B000863100E0900721F428E73CE08201A7D285
:1051C000803001E09007F8F4F201218132818C01F6
:1051D000000F111F200F311FF9011181012F7724BA
:1051E000FD01E60DF71D0083F20101811281880F98
:1051F000991F080F191FF80100817724A60DB71D0C
:10520000FD0101830CC00FEF7724FD01E60DF71DB2
:1052100000830FEF7724A60DB71DFD010183E8E0A1
:105220000C941D77222311F0F8012383F8010381E8
:10523000089562E0F8016383F80124833583F8015F
:10524000468357830895215019F02A9521F006C00E
:10525000F80100850895F801018508950FEF08957C
:105260000E941677C801D901FC0104811581005103
:1052700010400650104008F470C00050104009F46F
:10528000C7C00A51104009F4F1C00350104009F49E
:10529000EDC00350104009F4E9C00A51104008F471
:1052A00033C20750104008F4FAC00950104009F406
:1052B00003C10150104009F4FFC00150104008F430
:1052C0004BC00450104008F404C10050104008F4D2
:1052D00043C00450104008F40CC100501040E0F1ED
:1052E0000052104008F415C106501040A8F10350B8
:1052F000104008F41EC10050104070F104501040DE
:1053000008F424C10050104038F10450104008F453
:105310002DC10550104000F10550104008F436C171
:105320000050104009F43FC10150104009F44DC134
:105330000150104009F456C10D50104009F45DC1F0
:105340000150104009F47BC10150104009F499C18B
:105350000150104009F4B7C1D7C100E0FC0100833F
:1053600032C0FC0101811281FC01208130E0220F5A
:10537000331F020F131FF80100A111A14AE050E0F2
:105380000E945376402E429400EF4022FC0101819E
:105390001281FC01208130E0220F331F020F131F06
:1053A000F80100A111A14AE050E00E945376440E9A
:1053B000FC01008110E0FD01E00FF11F4482FC01BF
:1053C000008103950083FC010081063050F2FC014E
:1053D000068117814AE050E00E945376402E4294A5
:1053E00000EF4022FC01068117814AE050E00E9454
:1053F0005376440EFC0104811581A00FB11F1C9748
:105400004C9202EBFC01008706E0FC0101877CC1A5
:10541000FC011781012F0695069506950695005DFE
:105420000093780CFC011781012F0F70005D009331
:10543000790CFC01068102950F70005D00937A0CD7
:10544000FC0106810F70005D00937B0C01E000936E
:105450008F0700E010E0009395071093960708E788
:105460001CE000939107109392074EC1FC01068146
:105470001781023020E0120731F401E7FC010087B8
:1054800000E0FC010187FC0106811781012B31F44A
:1054900000E7FC01008700E0FC01018735C1FC0149
:1054A00004810F5CFC01008701E0FC010187FC0125
:1054B0000681FD01048328C1FC0104810F5CFC010D
:1054C000008701E0FC010187FC010681FD010483E6
:1054D0001BC104E9FC01008702E0FC010187FC011B
:1054E00004810156FD010483FC010681FD01058351
:1054F0000BC105E9FC01008702E0FC010187FC010A
:1055000004810556FD010483FC010681FD0105832C
:10551000FBC003E9FC01008702E0FC010187FC01FC
:1055200004810956FD010483FC010681FD01058308
:10553000EBC0FC0104810F5EFC01008701E0FC016F
:105540000187FC010681FD010483DEC004EAFC0141
:10555000008702E0FC010187FC0104810259FD0182
:105560000483FC010681FD010583CEC005EAFC0130
:10557000008702E0FC010187FC0104810659FD015E
:105580000483FC010681FD010583BEC0FC0104818A
:105590000B5EFC01008701E0FC010187FC01068134
:1055A000FD010483B1C0FC0104810B5EFC01008796
:1055B00002E0FC010187FC011781012FFD0104833A
:1055C000FC010681FD0105839FC0FC0104810B5E87
:1055D000FC01008701E0FC010187FC010681FD015F
:1055E000048392C00DEBFC01008701E0FC01018700
:1055F000FC010681FD01048387C00AEFFC010087DE
:1056000000E0FC01018700E0FC01008313C00EEE06
:105610001EEEFC0124853585FC01408150E0440FDD
:10562000551F240F351FF90100831183FC010081F0
:1056300003950083FC010081013848F365C00AEC42
:10564000FC01008700E0FC01018700E0FC01008311
:1056500013C00EEE1EEEFC0124853585FC01408151
:1056600050E0440F551F240F351FF90100831183AB
:10567000FC01008103950083FC010081013848F39F
:1056800043C00AEDFC01008700E0FC01018700E057
:10569000FC01008313C00EEE1EEEFC01248535854F
:1056A000FC01408150E0440F551F240F351FF901C4
:1056B00000831183FC01008103950083FC010081BC
:1056C000013848F321C00AEEFC01008700E0FC012C
:1056D000018700E0FC01008313C00EEE1EEEFC010A
:1056E00024853585FC01408150E0440F551F240F6F
:1056F000351FF90100831183FC01008103950083AC
:10570000FC010081013848F3E5E00C942077592F23
:10571000082EB801F9012081322F20E0330F330F1A
:10572000330F330F818190E0C097982F80E0280FCE
:10573000391F028110E00053104044E00E9450766F
:10574000200F311F038110E00F701070200F311FE8
:10575000FB0101811281F80124A735A7802D952F27
:105760000895F8012687378708950E941777C801A2
:105770008901DA01EAE3F0E0FBBFFAE10C94D176AB
:10578000FD01048110E0FC01A181B281A056BF4F50
:105790000D931C9343C0FD01A481B0E01196FC0160
:1057A000018112810E551F4FF801A083B18336C0CD
:1057B000FD01048110E0FC01A181B281AC55BF4F15
:1057C0000D931C932BC0FD01048110E0FC01A1810D
:1057D000B281AA55BF4F0D931C9320C0FD010481D7
:1057E00010E0FC01A181B281A855BF4F0D931C931D
:1057F00015C0FD01048110E0FC01A181B281A65514
:10580000BF4F0D931C930AC0FD01048110E0FC0101
:10581000A181B281A455BF4F0D931C93E4E00C9479
:1058200021770E941777D8018901CA01E0E5F0E0ED
:10583000FBBFFAE10C94D176FC01048110E0FD017C
:10584000A181B281A054BF4F0D931C9380C0FC0175
:10585000448150E00AE010E00E944676FD01A181FB
:10586000B281AE53BF4F0D931C9371C000E00C93F7
:105870001CC00C9110E0FC01E00FF11F448150E0CE
:105880000AE010E00E944676FD01218132814C91B0
:1058900050E0440F551F240F351F2C523F4FF90184
:1058A000008311830C9103950C930C91FC011381DF
:1058B0000117F8F24CC000E00C9318C00C9110E0F6
:1058C000FC01E00FF11F448150E0FD0101811281D4
:1058D0002C9130E0220F331F020F131F0C531F4F68
:1058E000F801408351830C9103950C930C91FC01BA
:1058F0001381011718F32BC000E00C9318C00C9112
:1059000010E0FC01E00FF11F448150E0FD01018136
:1059100012812C9130E0220F331F020F131F04530A
:105920001F4FF801408351830C9103950C930C9108
:10593000FC011381011718F30AC0FC01048110E077
:10594000FD01A181B281AC5EBE4F0D931C93E4E0DA
:105950000C9421770E941777D8018901CA01E4E6E7
:10596000F0E0FBBFFAE10C94D176FC01048110E079
:10597000FD01A181B281A05EBE4F0D931C935FC05B
:10598000FC01448150E00AE010E00E944676FD01EF
:10599000A181B281AE5DBE4F0D931C9350C0FC013E
:1059A000448150E00AE010E00E944676FD01A181AA
:1059B000B281AC5DBE4F0D931C9341C000E00C93CF
:1059C00018C00C9110E0FC01E00FF11F448150E081
:1059D000FD01018112812C9130E0220F331F020F53
:1059E000131F0A5D1E4FF801408351830C910395EC
:1059F0000C930C91FC011381011718F320C000E0F7
:105A00000C9318C00C9110E0FC01E00FF11F4481D1
:105A100050E0FD01018112812C9130E0220F331FF3
:105A2000020F131F025D1E4FF801408351830C913A
:105A300003950C930C91FC011381011718F3E4E01A
:105A40000C942177BD01F80100E0008317C00081AC
:105A500010E0D901A00FB11F14964C9150E0A18124
:105A6000B281008110E0000F111FA00FB11FA05ADA
:105A7000BF4F4D935C9300810395008300810A30F2
:105A800030F3DB0108950D01D80100E00C9325C02F
:105A90000C9110E0000F111FF901E00FF11F74814C
:105AA00060E00C9110E0000F111FF901E00FF11FF1
:105AB000058110E0600F711FFD01018112814C9181
:105AC00050E0440F551F040F151F005C1F4FF801D5
:105AD000608371830C9103950C930C910830C0F294
