:100000000C94687918951895189518951895189561
:100010001895189518951895189518951895189578
:1000200018951895189518950C946B311895189586
:1000300018951895189518950C94C16318951895EE
:100040000C946827189518950C94C6260C943227A2
:100050001895189518951895189518951895189538
:100060001895189518951895189518951895189528
:1000700018951895189518950C94CE280C94252948
:1000800018951895189518951895189500C18140E0
:1000900001C0804101C0804100C1814001C0804158
:1000A00000C1814000C1814001C0804101C0804148
:1000B00000C1814000C1814001C0804100C1814038
:1000C00001C0804101C0804100C1814001C0804128
:1000D00000C1814000C1814001C0804100C1814018
:1000E00001C0804101C0804100C1814000C1814008
:1000F00001C0804101C0804100C1814001C08041F8
:1001000000C1814000C1814001C0804101C08041E7
:1001100000C1814000C1814001C0804100C18140D7
:1001200001C0804101C0804100C1814000C18140C7
:1001300001C0804101C0804100C1814001C08041B7
:1001400000C1814000C1814001C0804100C18140A7
:1001500001C0804101C0804100C1814001C0804197
:1001600000C1814000C1814001C0804101C0804187
:1001700000C1814000C1814001C0804100C1814077
:1001800001C0804101C0804100C1814000C0C10167
:10019000C30302C2C60607C705C5C404CC0C0DCDF7
:1001A0000FCFCE0E0ACACB0BC90908C8D81819D967
:1001B0001BDBDA1A1EDEDF1FDD1D1CDC14D4D51597
:1001C000D71716D6D21213D311D1D010F03031F187
:1001D00033F3F23236F6F737F53534F43CFCFD3DB7
:1001E000FF3F3EFEFA3A3BFB39F9F83828E8E929A7
:1001F000EB2B2AEAEE2E2FEF2DEDEC2CE42425E557
:1002000027E7E62622E2E323E12120E0A06061A1C6
:1002100063A3A26266A6A767A56564A46CACAD6D76
:10022000AF6F6EAEAA6A6BAB69A9A86878B8B979E6
:10023000BB7B7ABABE7E7FBF7DBDBC7CB47475B516
:1002400077B7B67672B2B373B17170B05090915106
:100250009353529296565797559594549C5C5D9D36
:100260005F9F9E5E5A9A9B5B995958988848498926
:100270004B8B8A4A4E8E8F4F8D4D4C8C44848545D6
:10028000874746868242438341818040380C018003
:10029000020041A042A1E045A3A4A5A64BA74D485A
:1002A0004FA8504354A9AA58E1ABACE2ADAE62AF3F
:1002B000B0B161B2B3B4E365B6B7B8B9BABBBCBD4F
:1002C0006FBE7063BF79E478E5C0C1E6C2C3C4C540
:1002D000C6C7EEF8E8E12EC0CA2000E0E2F2EE2E3A
:1002E000C0CA2000E0E2F2EE2EC0CA2000F3F1EA1C
:1002F0002EC0CA202000E2FBEAEB2EC0CA2000EF8D
:10030000F0EEE22EC0CA2000E8F1EFFBF22EC0CAE8
:1003100000EFF3F1EA20C0CA2000EDEEF0EC2EC0B1
:10032000CA2000E1E5E3EB2EC0CA2000EEE4EDEECA
:10033000F12EC0CA00D202DB02E402ED02F602FF97
:1003400002080311031A0323032C03EEF8E8E12E3D
:1003500000E0E2F2EE2000E0E2F2EE2000F3F1EA4B
:100360002E2000E2FBEAEB2E00EFF0EEE22E00E89A
:10037000F1EFFBF200EFF3F1EA2000EDEEF0EC2EEE
:1003800000E1E5E3EB2E00EEE4EDEEF1004B03516E
:100390000357035D03630369036F0375037B0381E5
:1003A000038703C0CA2D00CDE5F220F1E2FFE7E8A4
:1003B00020F120C1D1CF2020202020002020C8ED16
:1003C000E8F6E8E0EBE8E7E0F6E8FF202020202070
:1003D00000312EC6F3F0EDE0EB2E00322EC4E0F239
:1003E000E02FE2F0E5ECFF2E00332ED3EFF0E0E259
:1003F000EBE5EDE8E52E00342ED3F1F2E0EDEEE290
:10040000E8F2FC2E00352ECFF0EEF1ECEEF2F0200B
:10041000EFE0F0E0EC2E00362ECFF0EEF2EEEAEE5A
:10042000EB2E00D103DB03E903F7030504170431C6
:100430002E20C4E0F2E02E202020202020202020AA
:1004400020202000322E20C2F0E5ECFF2E202020BC
:10045000202020202020202000C6F3F0EDE0EB201B
:1004600000F1EEE1FBF2E8E900E7E0F9E8F2FB0079
:10047000EFF0E8E5ECEDE8EAE000EFE5F0E5E4E0D8
:10048000F2F7E8EAE00061047A0470046904D7F244
:10049000E5EDE8E520E0F0F5E8E2E02E00CFCC0065
:1004A000CFC400D1C100C7D900A304A0049D04A6F5
:1004B00004CEC1D900CFE5F0E5E72E00CFE5F0E5A9
:1004C000E7E0EF2000CDE0F7E0EBEE2000CAEEED34
:1004D000E5F62000EAEEECE0EDE4FB00312ED0E59D
:1004E000E6E8EC2E00322ECFE0F0E0ECE5F2F0FB97
:1004F0002E00332ECFE0F0EEEBFC2E00342ED2E5B2
:10050000F1F22E00DC04E504F204FC04C7E0F9E893
:10051000F2E02E00CFF0E8E5ECEDE8EA2E00CFE5C2
:10052000F0E5E4E0F2F7E8EA2E00CEE1F9E8E52EA6
:1005300000CFF0E8E5ECEDE8EA20312E00CFF0E85E
:10054000E5ECEDE8EA20322E00D2E8EF20C7E0F932
:10055000E8F2FB00D2E8EF20CBE8EDE8E800C4EEDB
:10056000EF2E20E2F0E5ECFF20E1E5E720ECE0ED06
:100570002E00C7E0E4E5F0E6EAE020EDE020EBE85D
:10058000EDE8E820202000CFE5F0E5EAF0FBF2E816
:10059000E520E8ECEFF3EBFCF1EEE200C7E0E3F07E
:1005A00020F7F3E2F1F2E2E8F220EFEE2020D0C7EC
:1005B00000D1EDE8E6E5EDE8E520F3F0EEE2EDFF51
:1005C00020C0CA202000D7E0F1F2EEF2E020CFD028
:1005D000C400D7E0F1F2EEF2E020CFD0CC00490524
:1005E00054055E05720587059C05B105C605D20553
:1005F000C7E0E4E5F0E6EAE020EDE020E2EAEB2EF9
:100600002020202000C4EBE8F2E5EBFCEDEEF1F257
:10061000FC20EAEEECE0EDE4FB00C7E0E4E5F0E608
:10062000EAE020EDE020E2FBEAEB2E2020EA00C128
:10063000EBEEEA2E20EAEEECE0EDE420203F2E2E59
:100640003F202000C4EBE8F22E20EAEEECE0EDE4DF
:10065000FB20203F2E2E3F2000F00505061A062F16
:10066000064406C2F0E5ECFF20EDE020EFEEE2F2FA
:100670002E20EAEEEC2E2000C1EBEEEA2E20EAEE70
:10068000ECE0EDE420203F2E2E3F202000C4EBE8DC
:10069000F22E20EAEEECE0EDE4FB20203F2E2E3F90
:1006A0002000F0050506630678068D06D1EEE2EC23
:1006B000E5F1F2E8ECEEF1F2FC0043E8EDF5F0EEE6
:1006C000EDE8E7E0F6E8FF20F7E0F1EEE20055E2C2
:1006D000FBF520EDEEECE8EDE0EBFCEDEEE500D314
:1006E000E4E5F0E6E0EDE8E520F0E5EBE520CFD04D
:1006F000C400D1E5F2E5E2EEE920E0E4F0E5F10046
:10070000C2F0E5ECFF20EFE5F0E5E7E0EFF3F1EA1A
:10071000E000D7E0F1F2EEF2E000CDEEECE5F02003
:10072000E0EFEFE0F0E0F2E000CAEEEDF2F0EEEB29
:10073000FC20E2FBF52EF1E8E3EDE0EBE000CFEE8C
:10074000F0EEE320CFD0C5C4D3CFD020EFEE20CA47
:10075000D72000C7E0E3F020F7F3E2F1F2E2E8F29D
:1007600020EFEE2020CAD700CAEEF0F0E5EAF6E866
:10077000FF20EDE0EFF0FFE6E5EDE8FF00CAEEF068
:10078000F0E5EAF6E8FF20F2EEEAE000CFEEF0EE68
:10079000E320CFD0C5C4D3CFD020EFEE20D0C720E8
:1007A00000CFF0EEF2EEEAEEEB20EEE1ECE5EDE06C
:1007B00000CFF0E8E7EDE0EA20F7E5F2EDEEF1F248
:1007C000E800C4EEEFF3F1F2E8ECFBE520EFF0EE29
:1007D000E2E0EBFB00CFEEF0EEE320EFEE20EFEEF9
:1007E000ECE5F5E500C4EEEFF3F1F2E8ECE0FF2014
:1007F000EFEEECE5F5E000D2E8EF20E0E2F2EEEA21
:10080000EEEDF2F0EEEBFF00D0E5E7E5F0E2E8F028
:10081000EEE2E0EDE8E500D1EDE8E6E5EDE8E52023
:10082000EEF2E2E5F2E020C0CA202000AC06BA06F3
:10083000CE06DF06F206000712071A0729073E0751
:10084000530768077D07A107B107C207D507E5076A
:10085000F707080817088C07C0C2C0CDD220D034D3
:10086000303000CFC2C72D393000C0C2C7CA2D38C2
:100870003000CFC2C7D32DC500CFC2C7CB00EEF822
:10088000E8E1EAE000580863086A08720879087E1F
:1008900008C7C0D900CFD0CC00CFCC3100CFCC32EC
:1008A00000CFD0C400C2FBE2E5E42000C3EEF2EECC
:1008B000E22000C2E2E5E4E5ED00D0E5F7FC20200F
:1008C00000D2E5F1F2203100D2E5F1F2203200D27F
:1008D000E5F1F2203300A508AC08B308BA08C10856
:1008E000C808CF083F3F3F3F00202020C7E0EFF37C
:1008F000F1EA20F2E5F1F2E0202020202000202083
:10090000CFEEE4EEE6E4E8F2E5203F20F1E5EA2070
:10091000202000CFF0EEF2EEEAEEEB00D1F2E0EDB7
:10092000E4E0F0F2004D6F64427573001C09250984
:10093000C7C0D93A00CFD0CC3A00CFCC313A00CFA3
:10094000CC323A00CFD0C43A003F3F3F3F20202076
:100950002000CDE5E8F1EFF0202000CFF0E5E4F352
:10096000EFF02000C2FBE2E5E4E5ED2000C3EEF28B
:10097000EEE220202000C2E2E5E4E5ED202000D0F8
:10098000E5F7FC2020202000D2E5F1F231202020E4
:1009900000D2E5F1F23220202000D2E5F1F233203E
:1009A00020200064096D0976097F0988099109648E
:1009B0000976096409880991099A09640976098800
:1009C0000991099A09C8F1F5EEE4ED2E2000CAEE6E
:1009D000EDF2F0EEEBFC00CFF3F1EA202020200056
:1009E000D0E0E1EEF2E0202000CDE5E8F1EFF02EDE
:1009F0002000CF2EEDE5E8F1EFF000CEE6E8E4E0F0
:100A0000EDE8E5003F307830373F202000D3E42E7A
:100A1000EFF3F1EA2000CDE5F220D0C7202000D08E
:100A2000E5F7FC2020202000D2E5F1F22020202054
:100A300000C509CE09D709E009E909F209FB090453
:100A40000A0D0A160A1F0A280AC8F1F5EEE4ED2E6F
:100A50002000CFD0CC20CAD7202000CFD0CC20CFB0
:100A6000C0202000CDE5F220CAD7202000CDE5E847
:100A7000F1EFF02E2000CF2EEDE5E8F1EFF000CE03
:100A8000E6E8E4E0EDE8E500C1CBCA20CACC2020CE
:100A9000003F307830383F2020003F307830393FF9
:100AA0002020003F307830413F202000D2E5F1F295
:100AB0002020202000490A520A5B0A640A6D0A7647
:100AC0000A7F0A880A910A9A0AA30AAC0AC8F1F5B1
:100AD000EEE4ED2E2000CFD0C420CAD7202000CFD6
:100AE000D0C420CFC0202000CDE5F220CAD72020DE
:100AF00000CDE5E8F1EFF02E2000CF2EEDE5E8F196
:100B0000EFF000CEE6E8E4E0EDE8E5003F307830D5
:100B1000373F2020003F307830383F202000D1E898
:100B2000F1F2E5EC2E20003F307830413F202000EC
:100B3000D2E5F1F22020202000CD0AD60ADF0AE813
:100B40000AF10AFA0A030B0C0B150B1E0B270B30CC
:100B50000B672D006C2D00C2E2EEE43A00CFE0F00E
:100B6000EEEBFC3A00CDEEE2FBE920EFE0F0EEEB3D
:100B7000FC3A00C7EDE0F7E5EDE8E53A2000C4D423
:100B8000C72DCFF0CFE4202000C4D4C72DCFF0EC88
:100B9000CCCA3100C4D4C72DCFF0ECCCCA3200C4CB
:100BA000D4C72D4C363020202000CDC72DCFF0CF1C
:100BB000E420202000CDC72DCFF0EC2DCCCA2000A2
:100BC000CFCFC72DCFF0CFE4202000CFCFC72DCF80
:100BD000F0EC2DCCCA00EEF8E8E1EAE0202020207D
:100BE000007E0B890B940B9F0BAA0BB50BC00BCB94
:100BF0000BD60BE2FBEAEB2E00E2EAEB2E003F3FC6
:100C00003F3F00F30BF90BFE0B3F3F3F3F00E1FB83
:100C1000F1F2F0FBE900ECE5E4EBE5EDEDFBE900DA
:100C2000090C0E0C160C090C3F3F3F3F00E2EAEBAB
:100C30002E00E2FBEAEB2E00280C2D0C320C280CC7
:100C40003F3F3F20E3F0E0E4003F3F3F20F1E5EA93
:100C5000003F3F20E3F0E0E4003F3F3F3F00F2F081
:100C6000E5E2EEE6EDFBE900EDEEF0ECE0EBFCEDAD
:100C7000FBE900F1EFEEEAEEE9EDFBE900590C5E6D
:100C80000C680C730C590C2D35303020C3F6002D38
:100C900032353020C3F6002B3020C3F6002B32351E
:100CA0003020C3F6002B35303020C3F600EEF8E8D4
:100CB000E1EAE000870C8F0C970C9D0CA50CAD0CA5
:100CC000C4E8E0EFE0E7EEED3A2000EDE5F220E4E5
:100CD000E0EDEDFBF500F1EFE8F1EEEA00000007D2
:100CE0000001000200030001000000630001000099
:100CF0000012000100120036000100000016000181
:100D000000000001000100000004000100000004D8
:100D100000010001000900010000000A00010001BB
:100D20000032000A00000064000A000000FF000119
:100D3000000000FF00010000000A00010001003275
:100D4000000A00010032000A000000FF000100005C
:100D500000FF00010000000400010000000100018C
:100D6000001200320001000000020001000000FF3C
:100D70000001000000050001001A00E60301000167
:100D80000003000100000001000100000016000146
:100D9000000000160001000000E70301000000E76A
:100DA0000301000100020001000100020001000037
:100DB00000B40001000000FF00010012005A000111
:100DC0000001000300010000000100010000001408
:100DD000000100302E302E2E39392E3900CFF0EEA2
:100DE000F8E8E2EAE020502D555350202000CFF0E3
:100DF000EEF8E8E2EAE02041542D5553502000CFB0
:100E0000F0EEF8E8E2EAE0204453502D555350004C
:100E1000C4EEEFEEEBED2E20EFE0F0E0ECE5F2F0CB
:100E2000FB00C2E8E420EFE0F0E0ECE5F2F0E000E7
:100E3000DD0DEE0DFF0D100E220EC5F1F2FC00CD02
:100E4000E5F2003F0E3A0EF1F2E0EDE4E0F0F200E0
:100E500048455800500E470E2ED1E1F0EEF120F13A
:100E6000E2EEE5E3EE2E2020202020002ED1E1F05E
:100E7000EEF120F3E4E0EBE5EDEDEEE3EE2E200005
:100E80002ED1E1F0EEF120F3E4E0EBE5EDEDEEE361
:100E9000EE2031002ED1E1F0EEF120F3E4E0EBE5BD
:100EA000EDEDEEE3EE2032002ECFF3F1EA20F3E495
:100EB000E0EBE5EDEDEEE3EE2E2020002ECFF3F19A
:100EC000EA20F3E4E0EBE5EDEDEEE3EE2031200087
:100ED0002ECFF3F1EA20F3E4E0EBE5EDEDEEE3EE07
:100EE000203220002ECFF3F1EA20F3E4E0EBE5ED31
:100EF000EDFBF520312C32002EC0CA20E0E2F2EEEC
:100F0000ECE0F2E8F7E5F1EAE8E920002EC0CA20BB
:100F1000F3F1EAEEF0E5EDEDFBE9202020202000E2
:100F20002EC0CA20E2FBEAEBFEF7E5ED20202020F0
:100F3000202020002EC0CA20EAEEEDF2F02EEFF0C5
:100F4000EEE2E5F0EAE020002EC0CA20E8F1EFFB77
:100F5000F2E0EDE8FF202020202020002EC0CA2053
:100F6000EFF3F1EA20202020202020202020200064
:100F70002EC2FBE7EEE2202020202020202020208F
:100F8000202020002EC0CA20EDEEF0ECE0EBFCEDBE
:100F9000FBE92020202020002EC0CA20E1E5E3EB61
:100FA000FBE9202020202020202020002ECFF3F15C
:100FB000EA20F3E4E0EBE5ED2E20CCC0CD202000CC
:100FC0002EC0CA20EEE4EDEEF1F2EEF0EEEDEDE82B
:100FD000E92020002ED1E1F0EEF120C0CA2020202F
:100FE00020202020202020002ECFF3F1EA20C0CAAC
:100FF00020F1E2EEE9202020202020002ECFF3F186
:10100000EA20C0CA20F3E4E0EBE5EDEDFBE92000C7
:101010002ECFF3F1EA20CFD0C420202020202020A2
:1010200020202000580E6C0E800E940EA80EBC0ED0
:10103000D00EE40EF80E0C0F200F340F480F5C0F8B
:10104000700F840F980FAC0FC00FD40FE80FFC0F78
:101050001010D1E1F0EEF100CFF3F1EA00C2E2EEC0
:10106000E400C2FBE7EEE200521058105D1062107F
:1010700020202020204572726F7220202020202006
:1010800000CDE5E8F1EFF02EF7F22E20464C41536B
:101090004800CDE5E8F1EFF02EE7E0EF2E464C41B9
:1010A000534800CDE5E8F1EFF02EF7F22E20504C3A
:1010B00049532000CDE5E8F1EFF02EE7E0EF2E50A8
:1010C0004C49532000CDE5E8F1EFF02EE7E0EF2E9C
:1010D0003252414D2000CDE5F220F1E8E3EDE0EBA6
:1010E000E020CFD0CC2000C0CA2DD1EDE8E6E5ED60
:1010F0002EE7E0EFE0F1E000CFEEECE5F5E020E2F6
:1011000020EBE8EDE8E8202000CDE5E8F1EFF02E57
:10111000445350203252414D2000CDE5E8F1EFF02C
:101120002EF7F22E203252414D2000D2EEEA20EF6F
:10113000EEEAEEFF2020202020202000CDE8E7EA84
:10114000EEE520EDE0EFF02EE2FBF52E00C2FBF124
:10115000EEEAEEE520EDE0EFF02EE2FBF500CDE566
:10116000E8F1EFF02E20CCCA20D3CC20202000C202
:10117000D720F2F0E0EAF220E2EEF1F1F22E2000C8
:1011800081109210A310B410C510D610E710F810FB
:1011900009111A112B113C114D115E116F117010B4
:1011A000C0CA2DCDE5F220EEF2E2E5F2E0202020EB
:1011B00000D3F1F2E0EDEEE2E8F2E520F7E0F1FB3A
:1011C0002000CDE5F220E1EBEEEAE020C1D1C7201E
:1011D000202000CDE5E8F1EFF02EE2E5F0F12EC1A0
:1011E000D1C72000CDE5E8F1EFF02EEFE5F0E5EA1C
:1011F000EB2E202000CDE5E8F1EFF02EE7E0EF2E1A
:1012000020C1D1C72000CDE5F220F1E8E3EDE0EB0D
:10121000E020CFD0CC2000CDE8E7EAE8E920F3F0E9
:101220002E20D0C720202000CDE5E8F1EFF02EF3EE
:10123000E4E0EB2EC4D4C72000CDE5E8F1EFF02EBA
:10124000F3E4E0EB2EC2DBD52E00CDE5E8F1EFF0C4
:101250002EE2F5EEE42ECFD3D1CA00CDE5E8F1EFD2
:10126000F02EE2F5EEE42ED1D2CECF00D3E42ECF95
:10127000CED1D220E1E5E720EEF2E22E00CDE5E886
:10128000F1EFF02EF6E5EFFC2EC2DBD52000D3E423
:101290002ECFCED1D220EEE1ED2EEFEEEC2E00CD12
:1012A000E5E8F1EFF02EE7E0EF2E20C2DBD52000DD
:1012B000C4EBE8F2E5EBFCED2E20EFEEECE5F5E01B
:1012C00000CDE5E8F1EFF02E20C4D4C72020202087
:1012D0002000C211D311E411F511061217122812C1
:1012E00039124A125B126C127D128E129F12B012CA
:1012F000C112C0CA2DCDE5F220EEF2E2E5F2E02007
:10130000202000C0CA2DD1EDE8E6E5ED2EE7E0EFA4
:10131000E0F1E000CDE5F220F1E8E3EDE0EBE020E4
:10132000CCC0CD2000CFEEF0EEE320EFEE20EFEECC
:10133000ECE5F5E52000C0E2F2EEEAEEEDF2F0EECB
:10134000EBFC2020202000CDE5F220E1EBEEEAE0EE
:1013500020C1D1CA20202000CDE5E8F1EFF02EE237
:10136000E5F0F12EC1D1CA2000CFF0E5E22EE4EB8A
:101370002DF1F2E82EEAEEEC2E00CDE5E8F1EFF0EB
:101380002EE7E0EF2E20C1D1CA2000CDE5E8F1EF35
:10139000F02EE2FBEAEB2ECAD1CA2000CDE5E8F13F
:1013A000EFF02EE2EAEB2E20CAD1CA2000CDE5E80C
:1013B000F1EFF02EEAEEEDF2F02ECAD1CA00CFF036
:1013C000E5E4F3EFF02EEDE5F220CAD7312000CFAF
:1013D000F0E8E5EC20E1EBEEEA2E20CAEEEC2E0080
:1013E000471358137010691370107010701070103C
:1013F0007A138B139C13AD13BE1370107010CF13A0
:10140000D1EDE8E62E20F3F0EEE2EDFF20CFD0CCD8
:1014100000CDE5F220E1EBEEEAE020C1D1CA2020C8
:101420002000CDE5E8F1EFF02EE2E5F0F12EC1D19C
:10143000CA2000CDE5E8F1EFF02EE2FBEAEB2ED278
:10144000E5F1F200CDE5E8F1EFF02EE2EAEB2E2037
:10145000D2E5F1F200CDE5E8F1EFF02EE2F5EEE4B1
:101460002ECAD1CA200011142214701070107010EE
:1014700070107010701070103314441455147010E4
:10148000701070107010C3F0313A00C3F0323A009F
:1014900031C3F0313A0032C3F0313A0031C3F03297
:1014A0003A0032C3F0323A00C3F0F3EFEFE02031FC
:1014B00000C3F0F3EFEFE0203200A814B114E2FB18
:1014C000EAEB00CAD73100CAD73200EEF8E8E100F3
:1014D000BE14C314C714CB14E2FBEAEB00D0C70060
:1014E000EEF8E8E100D814DD14E014D2E5F1F220C2
:1014F0003100D2E5F1F2203200EB14F214CD2EF7D8
:10150000F22E464C41534800CD2EE7EF2E464C417B
:10151000534800CD2EF7F22E504C49532000CD2ECB
:10152000E7EF2E504C49532000CD2EE7EF2E3252DC
:10153000414D2000CD2EF7F22E3252414D2000CDEC
:101540002EF0E0E12E4453502000C2EEF1F22EF0D6
:101550002E44535000CDE8E7EA2E2055E2FBF5007B
:10156000C2FBF12E2055E2FBF52000CD2EF1E22E3C
:1015700020F120D3CC00CD2E20F7E0F1EEE22020A8
:1015800000CDE5F220E1EB2EC1D1C700CD2EE2E582
:10159000F0F12EC1D1C700CD2EEFE5F02E20C1D144
:1015A000C700CDE5F220F12E20CCC0CD00CFE5F074
:1015B000E5E7E0EFF3F1EA00C8E7EC2EF0E5E6E856
:1015C000ECE000CEF82EE7E0EFE8F1E82000CEF8FE
:1015D0002EEAEEEDF2F02E2000D1EDE8E62EF32E0D
:1015E000CFD0CC00CDE5F220F12E20CFD0CC00CD55
:1015F000E5F220F12ECFD3D1CA00EDE5F220F12E95
:10160000D1D2CECF00C2FBEAEBFEF7E5EDE8E50074
:101610005F00D1E2FFE7FC20F120CFCA002E0030AE
:1016200030303000010018100A00040D280D4D0D57
:101630007B0DD20D2E0E8E0EAD0EC60EDF0E1100DE
:101640004C110C002B106610B010001126114C111B
:101650004C112B106610B010001126113500161D0C
:101660000900BB19CF19FD19711A911A9B1B681C2F
:10167000921C031D000101DF299B29019B29019B6D
:1016800029019B29019B29019B29019B290AA0294A
:1016900001A02901A02901A02901A02901A0290B4D
:1016A000A52901A52901A52901A52901A5290BAA7B
:1016B0002901AE2901B22902B62901BA2901BA29A4
:1016C00001BA2901BA2901BA2901BA2901BA2901A5
:1016D000BA2985BF2901DB290FC62901DB290FCDD6
:1016E0002901DB290FD42901DB29FB000001003C83
:1016F0002D0700E72CF32C012D0D2D192D252D3153
:101700002D00001100DA2D06004B2D592D692D8E6C
:101710002DAF2DCF2D00002100572E0500E92DF70C
:101720002D072E172E372E000000AF300900FD2F99
:10173000432F542F652F7C2F9A2FB82FD62FE22FAF
:1017400000350022310900BE30CA30D630E230EE1A
:1017500030FA300B31223117310077011A38123844
:10176000040A3802023801FA37391638040E3802F2
:10177000063801FE37191438040C3802043801FC0D
:1017800037091838041038020838010038FB000007
:10179000ED391500A039A039A239A039A239A239F2
:1017A000A239A239A039A239A239E539A239A03922
:1017B000A039A239A239A239A039A039A23907012A
:1017C000BD4F0F4F011C4F01284F01284F01344FCF
:1017D00001424F01424F04524F01604F01604F06DA
:1017E000704F01704F017C4F01864F01944F01A053
:1017F0004F1BAA4F7DB44FFB23018D5E62570EAA8B
:101800005201D752013F5301AE5301A25401B454C7
:1018100001B85501C9550104560A1B5601DB560192
:101820006557080F56085556FB0001018E5EB653EA
:1018300001CD5302D15301D65301DA5301DE5301D6
:101840000E54015B5401835402DA5301DE53010E3E
:1018500054015B54018354069D54FB00000052590F
:101860000900B758C758D758E758FB580F5923599C
:101870003359435900005E5D1500ED5BFD5B0D5C67
:101880001D5C2D5C3D5C4D5C5D5C6D5C7D5C905CCD
:10189000A55CBB5CC75CDA5CED5C005D135D265D3E
:1018A000395D4C5D01007F630C00656265626D62AD
:1018B0008B628B627F637F63656265626D628B6240
:1018C0008B620100DD761600086803693C69576980
:1018D000A269026A376A466B906C4B6DCA6E026AE7
:1018E000376A6270C8714B6DDD769E72C072377355
:1018F000737479760000416B0900A46AB66ABF6A06
:10190000C86AD96AEA6AFB6A0D6B1F6B0000C56E74
:1019100015009B6DAD6DBF6DC86DDA6DE36DEC6D3F
:10192000F56DFE6D106E196E2A6E2A6E496E5B6E35
:101930006D6E766E7F6E886E9A6EAC6EA80100E05A
:1019400062E0621740F470E0FA01E60FF71F1081C1
:10195000010F6395F6CF08959A938A93902F812F64
:10196000EDE1F6E00081006100839093600601E004
:10197000009361068093620625E00EE516E0DEDF47
:1019800010E0E0ECF4E000831183E0ECF4E000818F
:1019900011810093630606E00E94A728899199911E
:1019A00008959A938A93902F812FEDE1F6E00081BC
:1019B000006100839093600680936106282F2C5F5E
:1019C0000EE516E0BBDF10E0E0ECF4E000831183ED
:1019D000E0ECF4E000811181202F082F10E0F801E5
:1019E000E25AF94F2483082F0B5F0E94A7288991A0
:1019F000999108950E94747AA02F0A2FE4E2F0E0F2
:101A0000FBBFF6E10C94227A0091220610E0EDED86
:101A1000FCE02591349131970217130758F0EFED50
:101A2000FCE02591349131970091220610E02017B7
:101A3000310748F4EFEDFCE00591149131970395DF
:101A40000093B304F5C2009122060093B304F0C2E0
:101A5000EEE1F6E00481039504830091220610E094
:101A6000E3EEFCE02591349131970217130758F00B
:101A7000E5EEFCE02591349131970091220610E0CB
:101A80002017310720F40FE300937903D1C20091AE
:101A90002206005D00937903CBC20091220610E07C
:101AA000E9EEFCE02591349131970217130758F0C5
:101AB000EBEEFCE02591349131970091220610E085
:101AC0002017310738F40FE3009384030FE30093EA
:101AD0008503AEC2009122064AE00E947C79005D37
:101AE00000938403009122064AE00E947C79405DC5
:101AF000409385039DC20091840B013069F4EFEEA1
:101B0000FCE0059114913197902FE1EFFCE00591F5
:101B100014913197802F02C090E086E30091220655
:101B2000091720F000912206801738F40FE3009384
:101B30008D030FE300938E0310C0009122064AE04C
:101B40000E947C79005D00938D03009122064AE09B
:101B50000E947C79405D40938E030091850B033099
:101B600009F066C200912306091720F000912306B0
:101B7000801738F40FE3009395030FE30093960367
:101B800057C2009123064AE00E947C79005D0093D1
:101B90009503009123064AE00E947C79405D4093C2
:101BA000960346C20091840B013069F4E5EFFCE036
:101BB000059114913197902FE7EFFCE00591149176
:101BC0003197802F02C090E086E30091220609172A
:101BD00020F000912206801738F40FE30093A10350
:101BE0000FE30093A20324C2009122064AE00E9460
:101BF0007C79005D0093A103009122064AE00E94D7
:101C00007C79405D4093A2030091840B023009F07F
:101C10000FC20091850B033009F00AC20091230620
:101C2000091720F000912306801738F40FE3009382
:101C3000A9030FE30093AA03FBC1009123064AE026
:101C40000E947C79005D0093A903009122064AE07E
:101C50000E947C79405D4093AA03EAC1009122066C
:101C600010E0EBEFFCE02591349131970217130758
:101C700058F0EDEFFCE02591349131970091220668
:101C800010E02017310738F40FE30093B5030FE39A
:101C90000093B60310C0009122064AE00E947C79AE
:101CA000005D0093B503009122064AE00E947C7912
:101CB000405D4093B6030091850B033009F0B8C135
:101CC0000091230610E0EBEFFCE025913491319771
:101CD0000217130758F0EDEFFCE02591349131978E
:101CE0000091230610E02017310738F40FE300932A
:101CF000BB030FE30093BC039BC1009123064AE0A2
:101D00000E947C79005D0093BB03009123064AE0AA
:101D10000E947C79405D4093BC038AC100912206F9
:101D200010E0E1E0FDE025913491319702171307AF
:101D300058F0E3E0FDE025913491319700912206BF
:101D400010E02017310720F402E00093C50370C1B2
:101D5000009122060093C5036BC1E9E0FDE02591E7
:101D6000349131970091220610E02017310748F492
:101D7000E9E0FDE005911491319703950093C603C6
:101D800057C1009122060093C60352C1EFE0FDE067
:101D90002591349131970091220610E020173107E8
:101DA00048F4EFE0FDE0059114913197039500931D
:101DB000C7033EC1009122060093C70339C10091B9
:101DC000220610E0E3E1FDE02591349131970217FE
:101DD000130758F0E5E1FDE025913491319700912A
:101DE000220610E02017310720F400E000932F0AAC
:101DF0001CC10091220600932F0A0091C90A0130EC
:101E000028F40091C90A053008F00FC14091C90AB1
:101E1000415051F04A9509F468C04A9509F4C6C08A
:101E20004A9509F4C3C001C140912F0A415049F0BD
:101E30004A9539F04A9561F0425089F04A95B1F0DF
:101E40001BC040EA51E4E0E3FAE04083518314C050
:101E500044E358E0E0E3FAE0408351830DC043E8F7
:101E600050E0E0E3FAE04083518306C042E050E0F6
:101E7000E0E3FAE0408351834091230650E060E0C4
:101E800070E08A019B01322F212F102F00E040913A
:101E9000240650E060E070E0040F151F261F371F76
:101EA000322F212F102F00E04091250650E060E0F6
:101EB00070E0040F151F261F371F322F212F102F00
:101EC00000E04091260650E060E070E0040F151F2E
:101ED000261F371F48EE53E060E070E00E94F7795C
:101EE000E2E3FAE000831183A0C040912F0A415041
:101EF00049F04A9539F04A9561F0425089F04A9587
:101F0000B1F01BC040E25EE4E0E3FAE040835183BD
:101F100014C040ED57E0E0E3FAE0408351830DC088
:101F200048EC50E0E0E3FAE04083518306C042E031
:101F300050E0E0E3FAE0408351834091230650E013
:101F400060E070E08A019B01322F212F102F00E00A
:101F50004091240650E060E070E0040F151F261F3A
:101F6000371F322F212F102F00E04091250650E01F
:101F700060E070E0040F151F261F371F322F212F3E
:101F8000102F00E04091260650E060E070E0040F62
:101F9000151F261F371F48EE53E060E070E00E94D7
:101FA000F779E2E3FAE0008311833FC04091230612
:101FB00050E060E070E08A019B01322F212F102F4A
:101FC00000E04091240650E060E070E0040F151F2F
:101FD000261F371F322F212F102F00E0409125069A
:101FE00050E060E070E0040F151F261F371F322FEE
:101FF000212F102F00E04091260650E060E070E0B5
:10200000040F151F261F371F48EE53E060E070E0F5
:102010000E94F779A801E0E3FAE04083518340E0B1
:1020200050E0E2E3FAE04083518301E00093030AC9
:1020300001E00093070A01E00093020AE3E00C9438
:10204000857A0E94737A802F082FEEE3F0E0FBBFC1
:10205000F6E10C94227A813121F408EC13E0D801E6
:1020600003C001E114E0D8011091220602E0109FA4
:10207000009222060091220610E0E9E1FDE02591A0
:10208000349131970217130758F0EBE1FDE02591E9
:10209000349131970091220610E02017310730F477
:1020A0000FE30C930FE3FD010183F6C000912206BC
:1020B0004AE00E947C79005D0C93009122064AE080
:1020C0000E947C79405DFD014183E6C0823121F4AC
:1020D0000EEC13E0D80103C007E114E0D801009131
:1020E000220610E0EFE1FDE02591349131970217CF
:1020F000130758F0E1E2FDE025913491319700910A
:10210000220610E02017310748F40FE30C930FE389
:10211000FD0101830FE3FD010283BEC00091220691
:102120000A3058F400912206005D0C9300E3FD0193
:10213000018300E2FD010283AFC0009122064AE064
:102140000E947C79005D0C93009122064AE00E9477
:102150007C79405DFD01418300E3FD0102839CC069
:10216000833121F409E81AE0D80103C009EA1AE032
:10217000D80100E00093C5040091C5041091210628
:10218000011708F089C00091C50410E0F801E25E73
:10219000F94F048110E0E5E2FDE02591349131979B
:1021A0000217130780F0E7E2FDE0259134913197A3
:1021B0000091C50410E0F801E25EF94F048110E0DF
:1021C0002017310748F40FEF2091C50430E0FD01DE
:1021D000E20FF31F00830EC00091C50410E0F80168
:1021E000E25EF94F24810091C50410E0FD01E00F8B
:1021F000F11F2083E5ECF4E0008103950083BCCF60
:10220000843121F409EF13E0D80103C002E414E0A3
:10221000D80100E00093C5040091C5041091210687
:102220000117D0F50091C50410E0F801E25EF94F06
:1022300024810091C50410E0FD01E00FF11F20830F
:10224000E5ECF4E0008103950083E6CF853121F4CD
:102250000DEF13E0D80103C006E414E0D80100E05C
:102260000093C5040091C504109121060117A0F444
:102270000091C50410E0F801E25EF94F248100915D
:10228000C50410E0FD01E00FF11F2083E5ECF4E050
:10229000008103950083E6CF01E00093070A01E087
:1022A0000093020AE4E00C94847A8A93802F082F2A
:1022B000015261F00A9599F10A9509F474C00A95E2
:1022C00009F4B5C00A9509F4CFC0EBC010912206FD
:1022D00002E0109F00922206E9E3FDE0259134918F
:1022E00031970091220610E02017310738F40FE3F0
:1022F00000935A040FE300935B04D3C000912206BD
:102300004AE00E947C79005D00935A040091220605
:102310004AE00E947C79405D40935B04C2C000911A
:10232000220610E0EDE3FDE025913491319702178C
:10233000130758F0EFE3FDE02591349131970091B8
:10234000220610E02017310750F40FE300936004D9
:102350000FE3009361040FE300936204A2C00091B5
:1023600022060A3060F400912206005D00936004AA
:1023700000E30093610400E20093620492C00091C4
:1023800022064AE00E947C79005D0093600400917F
:1023900022064AE00E947C79405D4093610400E39C
:1023A000009362047EC00091220610E0E3E4FDE0A9
:1023B0002591349131970217130758F0E5E4FDE0B9
:1023C0002591349131970091220610E020173107B2
:1023D00050F40FE3009367040FE3009368040FE3E6
:1023E000009369045EC0009122060A3060F40091F7
:1023F0002206005D0093670400E30093680400E296
:10240000009369044EC0009122064AE00E947C7944
:10241000005D00936704009122064AE00E947C79E7
:10242000405D4093680400E3009369043AC000E013
:102430000093C5040091C50410912106011788F589
:102440000091C50410E0F801E25EF94F248100918B
:10245000C50410E0F801EE57FB4F2083E5ECF4E0F3
:10246000008103950083E6CF00E00093C50400914E
:10247000C504109121060117A0F40091C50410E0D5
:10248000F801E25EF94F24810091C50410E0F801E3
:10249000EA57FB4F2083E5ECF4E0008103950083CD
:1024A000E6CF01E00093070A01E00093020A899158
:1024B00008959A938A9380E0843008F061C0482F91
:1024C00050E003E010E00E949A79F801E25EF94FD3
:1024D0000481063050F02EE4082F10E0000F111F89
:1024E000F801E859FC4F208312C0482F50E003E068
:1024F00010E00E949A79F801E25EF94F2481082FDA
:1025000010E0000F111FF801E859FC4F2083482FFD
:1025100050E003E010E00E949A79F801E25EF94F82
:1025200005810C3050F02EE4082F10E0000F111F31
:10253000F801E859FC4F218312C0482F50E003E016
:1025400010E00E949A79F801E25EF94F2581082F88
:1025500010E0000F111FF801E859FC4F2183482FAC
:1025600050E003E010E00E949A79F801E25EF94F32
:10257000068190E0FC01EF58FC4F008383959CCFCF
:1025800001E00093070A89919991089500E00431D0
:1025900060F410E0F801E25EF94F248110E0F801E8
:1025A000EB5EF54F20830395F2CF0091210A0023C3
:1025B00021F40091220A002321F001E000938B0B0B
:1025C00003C000E000938B0B0091230A002321F449
:1025D0000091240A002321F001E000938C0B03C03A
:1025E00000E000938C0B0091150A002321F4009168
:1025F000160A002321F001E000938D0B03C000E0D8
:1026000000938D0B0091170A002321F40091180A02
:10261000002321F001E000938E0B03C000E0009343
:102620008E0B0091190A002321F400911A0A00234D
:1026300021F001E000938F0B03C000E000938F0BAB
:1026400000911B0A002321F400911C0A002321F0B1
:1026500001E00093900B03C000E00093900B009109
:102660001D0A002321F400911E0A002321F001E03D
:102670000093910B03C000E00093910B00911F0A9F
:10268000002321F40091200A002321F001E00093AF
:10269000920B03C000E00093920B0091250A0023E7
:1026A00021F40091260A002321F001E00093930B0E
:1026B00003C000E00093930B0091270A002321F44C
:1026C0000091280A002321F001E00093940B03C03D
:1026D00000E00093940B01E00093070A08959A9399
:1026E0008A93009122060F70005D0093C102009151
:1026F000220602950F70005D0093C0020091230630
:102700000F70005D0093BE020091230602950F70CA
:10271000005D0093BD02009124060F70005D0093E0
:10272000BB020091240602950F70005D0093BA026F
:10273000009125060F70005D0093C40200912506EC
:1027400002950F70005D0093C302009126060F7082
:10275000005D0093C7020091260602950F70005D90
:102760000093C602009127060F70005D0093CA0215
:102770000091270602950F70005D0093C90200E0EA
:102780000093C4040091C404083008F04EC00091C6
:10279000C40410E0F801E654FD4F00810A3348F408
:1027A0000091C40410E0F801E654FD4F00810033AD
:1027B00078F40091C40410E0F801E654FD4F008164
:1027C0000E3231F0E6EAF2E000810395008303C0A7
:1027D00000E00093A6020091C40410E0F801ED535C
:1027E000FD4F00810A3348F40091C40410E0F80161
:1027F000ED53FD4F0081003378F40091C40410E0E4
:10280000F801ED53FD4F00810A3331F0E7EAF2E0C1
:1028100000810395008303C000E00093A702E4EC6D
:10282000F4E0008103950083ADCF8091C10290E078
:102830004091C00250E00AE010E00E949A79800FB7
:10284000911F80519240843600E090072CF0E6EA18
:10285000F2E00081039500838091BE0290E04091F8
:10286000BD0250E00AE010E00E949A79800F911FAB
:10287000805192408D3090402CF0E6EAF2E00081E9
:10288000039500838091BB0290E04091BA0250E032
:102890000AE010E00E949A79800F911F80519240C7
:1028A000803290402CF0E6EAF2E00081039500834C
:1028B0008091C40290E04091C30250E00AE010E031
:1028C0000E949A79800F911F8051924089319040E7
:1028D0002CF0E7EAF2E00081039500838091C702C3
:1028E00090E04091C60250E00AE010E00E949A7920
:1028F000800F911F805192408D3300E090072CF0A3
:10290000E7EAF2E00081039500838091CA0290E03B
:102910004091C90250E00AE010E00E949A79800FCD
:10292000911F805192408D3300E090072CF0E7EA30
:10293000F2E00081039500830091A602002351F18B
:1029400000E30093C10200E30093C00200E30093A0
:10295000BE0200E30093BD0200E30093BB0200E36C
:102960000093BA0200E00093A60200E00093C404C2
:102970000091C404033048F500E02091C40430E025
:10298000F901E056FD4F0083E4ECF4E0008103958B
:102990000083EECF00E00093C4040091C404033030
:1029A000A0F40091C40410E0F801E25EF94F248124
:1029B0000091C40410E0F801E056FD4F2083E4ECE0
:1029C000F4E0008103950083E8CF0091A702002383
:1029D00051F100E30093C40200E30093C30200E35B
:1029E0000093C70200E30093C60200E30093CA020B
:1029F00000E30093C90200E00093A70200E0009307
:102A0000C4040091C404033048F500E02091C404DC
:102A100030E0F901E056FD4F0383E4ECF4E000817F
:102A200003950083EECF00E00093C4040091C4043A
:102A30000330A0F40091C40410E0F801E25EF94F05
:102A400027810091C40410E0F801E056FD4F238374
:102A5000E4ECF4E0008103950083E8CF01E000930B
:102A6000070A01E00093030A8991999108950E9451
:102A7000707A2801A22FB32F642E852FBA959A2F32
:102A8000983048F420E2092F10E0F201E00FF11F26
:102A900020839395F5CF803858F00FEF80278395EA
:102AA0002DE20A2F10E0F201E00FF11F2083A39521
:102AB000082F10E04B2F0E94A279802F8336C8F494
:102AC0004AE0082F0E947C79005D2A2F30E0F20155
:102AD000E20FF31F0083A3954AE0082F0E947C7940
:102AE000405D0A2F10E0F201E00FF11F4083A39533
:102AF00010C02FE30A2F10E0F201E00FF11F208336
:102B0000A3952FE30A2F10E0F201E00FF11F2083BD
:102B1000A395062D015019F00A9549F016C023EE31
:102B20000A2F10E0F201E00FF11F20830EC024EE07
:102B30000A2F10E0F201E00FF11F208321EC0A2F91
:102B400010E0F201E00FF11F2183E7E00C94817A9D
:102B50000E946D7A2801822F832E942EDB016A84D5
:102B60007B848A94982F983048F420E2092F10E053
:102B7000F201E00FF11F20839395F5CF482D8D01D1
:102B80000E94A279D801A615B70508F067C0A83E33
:102B900003E0B00710F148EE53E08D010E94A879E0
:102BA000202F082F10E0F201E00FF11F2083082FE3
:102BB00010E0F201E00FF11F408150E008EE13E059
:102BC0000E949A79A01BB10B082F10E0F201E00FD0
:102BD000F11F0081005D00838395A43600E0B007FB
:102BE00010F144E650E08D010E94A879202F082FB3
:102BF00010E0F201E00FF11F2083082F10E0F20136
:102C0000E00FF11F408150E004E610E00E949A7945
:102C1000A01BB10B082F10E0F201E00FF11F0081A3
:102C2000005D008383954AE050E08D010E94A87901
:102C3000005D282F30E0F201E20FF31F008383953F
:102C40004AE050E08D010E94A879405D082F10E015
:102C5000F201E00FF11F4083839510C02FE3082F8E
:102C600010E0F201E00FF11F208383952FE3082F7E
:102C700010E0F201E00FF11F20838395092D015030
:102C800019F00A9581F016C02CEE082F10E0F20121
:102C9000E00FF11F208320EC082F10E0F201E00F7D
:102CA000F11F218307C025E2082F10E0F201E00F99
:102CB000F11F2083ECE00C947E7A532F52955F70C5
:102CC000452F4A3018F0495C542F02C0405D542F04
:102CD000452F622F70E0F801E60FF71F4083532F56
:102CE0005F70452F4A3018F0495C542F02C0405D98
:102CF000542F452F622F70E0F801E60FF71F418334
:102D000008950E946D7A00912206402E00912306BC
:102D1000502E00E010E0E5E1FBE00783108704E6B9
:102D200040164CF40DE9401634F00BE550161CF437
:102D300006EA501654F40FE30093150B0FE30093CB
:102D4000160B00E00093170B85C080E0282F822F20
:102D50008395042D05290078002311F00DE201C0B0
:102D60000BE230E0F901EB5EF44F008344201AF4EB
:102D700000E00419402E55201AF400E00519502EE9
:102D8000042D0529002331F400E30093150B00E026
:102D90000093160B0AE040165CF04AE0042D0E94F6
:102DA0008A79005D90E0FC01EB5EF44F008383952F
:102DB0004AE0042D0E948A79405D90E0FC01EB5EC0
:102DC000F44F408383950EE290E0FC01EB5EF44FFC
:102DD000008383954AE0052D0E948A79005D90E08A
:102DE000FC01EB5EF44F0083839502EC90E0FC0164
:102DF000EB5EF44F0083839500E090E0FC01EB5E16
:102E0000F44F00838395442D542F550F550B0AE042
:102E100010E00E949A793801052D102F110F110B27
:102E20004AE050E00E94C079600E711EE5E1FBE0CF
:102E3000678270860091150B0D3261F400E010E09E
:102E4000E5E1FBE027813085021B130BE5E1FBE0A8
:102E50000783108791E0933008F043C1092F10E0F9
:102E6000000F111FF801E25EF94F348120E0092FB5
:102E700010E0000F111FF801E25EF94F058110E02C
:102E8000200F311FD90100E010E03801492F50E038
:102E900009E010E00E949A79F801EB5EF44F678236
:102EA0007086A83E03E0B00724F4A9310CEFB00708
:102EB00024F50FE3602E492F50E009E010E00E9456
:102EC0009A79F801EB5EF44F60820FE3602E492F90
:102ED00050E009E010E00E949A79F801EB5EF44FAF
:102EE00061826624492F50E009E010E00E949A793F
:102EF000F801EB5EF44F6282F2C00A2F0B2BC1F493
:102F000000E3602E492F50E009E010E00E949A791A
:102F1000F801EB5EF44F60826624492F50E009E02F
:102F200010E00E949A79F801EB5EF44F6182D7C0FD
:102F300080E0492F50E009E010E00E949A79F80102
:102F4000EB5EF44FA783B087882E882D8395A13040
:102F500000E0B0071CF00BE2602E02C00DE2602E14
:102F6000492F50E009E010E00E949A79E5E1FBE08A
:102F7000E00FF11F9924E80DF91D6082BB232AF4AC
:102F80000FEF1FEFA027B1271196A43600E0B0077E
:102F9000ECF144E650E08D010E94C079602E492F8B
:102FA00050E009E010E00E949A79E5E1FBE0E00FD3
:102FB000F11F082F10E0E00FF11F6082492F50E051
:102FC00009E010E00E949A79E5E1FBE0E00FF11FD3
:102FD000082F10E0E00FF11F408150E004E610E000
:102FE0000E949A79A01BB10B492F50E009E010E034
:102FF0000E949A79E5E1FBE0E00FF11F082F10E055
:10300000E00FF11F0081005D00838395AA3000E08E
:10301000B007C4F04AE050E08D010E94C079602EF4
:1030200000E3600E492F50E009E010E00E949A7919
:10303000E5E1FBE0E00FF11F082F10E0E00FF11FCA
:10304000608283954AE050E08D010E94C079642E31
:1030500000E3600E492F50E009E010E00E949A79E9
:10306000E5E1FBE0E00FF11F082F10E0E00FF11F9A
:10307000608283950CEE602E492F50E009E010E04D
:103080000E949A79E5E1FBE0E00FF11F082F10E0C4
:10309000E00FF11F6082839500EC602E492F50E015
:1030A00009E010E00E949A79E5E1FBE0E00FF11FF2
:1030B000082F10E0E00FF11F608283956624492FEE
:1030C00050E009E010E00E949A79E5E1FBE0E00FB2
:1030D000F11F082F10E0E00FF11F60828395939598
:1030E000BACEEAE00C947E7A10912206012F10E00D
:1030F000E7ECFDE02591349131970217130748F072
:10310000E9ECFDE025913491319710E0201731076B
:1031100038F4E9ECFDE02591349131972395022FA5
:103120000093140B08959A938A930091220600232A
:1031300009F00EC15091230641E032E022E000EF99
:1031400012E095DC3091230623E005ED12E0B5DDB9
:103150003091240625E005ED12E0AFDD3091250623
:1031600020E00091260610E0200F311FE3E1FAE095
:103170002083318308EE13E01A930A93E3E1FAE027
:103180006081718141E031E023E009EF12E0E0DC91
:10319000009128064AE00E947C790093190340912F
:1031A000270650E00AE010E00E949A792091190366
:1031B00030E0020F131FE1E1FAE000831183E1E147
:1031C000FAE000811181083E23E0120754F4E1E1A6
:1031D000FAE000811181112322F0009119030A30D5
:1031E00080F000E010E0E1E1FAE0008311830FE3FA
:1031F000009316030FE3009317030FE300931903E3
:1032000015C0009127064AE00E947C79005D00937A
:103210001603009127064AE00E947C79405D4093A6
:103220001703E4E1F3E00581005D05835091290671
:1032300042E031E023E006E213E019DC0091850B67
:10324000033041F450912A0642E031E023E00FE2DE
:1032500013E00DDC00912F0A043051F40091680353
:10326000043030F400E000932B0600E000932C06BD
:1032700050912B0642E031E023E008E313E0F7DB56
:103280000091850B033041F450912C0642E031E06F
:1032900023E001E413E0EBDB50912D0642E031E046
:1032A00023E00DE113E0E3DB04E610E01A930A9358
:1032B00060912E0670E042E031E024E002E013E08D
:1032C00047DC30912E0623E00EED12E0F6DC309163
:1032D0002F0620E00091300610E0200F311FC901B9
:1032E000883E03E09007D0F0803107E29007B0F409
:1032F00048EE53E08C010E94A87900930E034091A0
:103300000E0350E008EE13E00E949A79801B910BA7
:10331000EBE0F3E00381005D038303C000E300936F
:103320000E0308EE13E01A930A93BC0143E031E068
:1033300025E00BE013E00CDC30912F0623E007EED4
:1033400012E0BBDC3091300625E007EE12E0B5DC80
:1033500001E00093040A01E00093070A8991999122
:1033600008950E94737A802F082FECE5F0E0FBBFF0
:10337000F6E10C94227AEDE5FDE025913491319748
:103380000091220610E02017310720F402E000939C
:103390008A044CC30091220600938A0447C300911B
:1033A000220610E0E1E6FDE0259134913197021705
:1033B000130758F0E3E6FDE0259134913197009131
:1033C000220610E02017310738F40FE300938B0436
:1033D0000FE300938C042AC3009122064AE00E9466
:1033E0007C79005D00938B04009122064AE00E94E4
:1033F0007C79405D40938C0419C3E7E5FDE025919D
:10340000349131970091220610E02017310760F4C3
:10341000E7E5FDE005911491319703950093B2041F
:103420000FEF0093C90A02C3009122060093B20471
:103430000091B2041091C90A011709F4F7C2009172
:10344000B2040093C90A0E943E3D0E94793F0E9447
:1034500025400E94BA420E94264300910B0A0A307E
:1034600021F000910B0A003179F40091CA0A0A9503
:103470000093330B0091330B1091320B011720F4A2
:103480000091330B0093320B00910B0A073021F0AF
:1034900000910B0A0D3079F40091350A0A950093DA
:1034A000330B0091330B1091320B011720F4009174
:1034B000330B0093320B00910B0A063109F0B6C2B0
:1034C00000915F0A03500093330B0091330B10916E
:1034D000320B011708F0AAC20091330B0093320B94
:1034E000A5C2009122064AE00E947C79405D40938B
:1034F0009304009122064AE00E947C790093220600
:10350000009122064AE00E947C79405D409392043B
:10351000009122064AE00E947C79005D00939104AC
:1035200085C20091B204043059F500912206A02F03
:10353000B0E0EDECFDE0059114913197A017B107D3
:1035400048F0EFECFDE0059114913197B0E00A17D7
:103550001B0738F40FE30093AB040FE30093AC04B4
:1035600065C24AE00A2F0E947C79005D0093AB049B
:103570004AE00A2F0E947C79405D4093AC0456C219
:1035800000912206A02FB0E0E3EAFDE0059114913E
:103590003197A017B10748F0E5EAFDE005911491D5
:1035A0003197B0E00A171B0738F4E5EAFDE0059112
:1035B000149131970395A02FA093F30A009123064D
:1035C000A02FB0E0E9EAFDE0059114913197A01732
:1035D000B10748F0EBEAFDE0059114913197B0E0B6
:1035E0000A171B0738F4EBEAFDE0059114913197B7
:1035F0000395A02FA093F40A00912406A02FB0E019
:10360000EFEAFDE0059114913197A017B10748F05A
:10361000E1EBFDE0059114913197B0E00A171B072B
:1036200050F40FE30093F50A0FE30093F60A0FE35B
:103630000093F70A1AC04AE00A2F0E947C79405D85
:103640004093F70A4AE00A2F0E947C79A02F4AE0B3
:103650000A2F0E947C79405D4093F60A4AE00A2FC7
:103660000E947C79005D0093F50A00912506A02F49
:103670004AE00A2F0E947C79405D4093010B4AE0AA
:103680000A2F0E947C79A02F4AE00A2F0E947C79A1
:10369000405D4093000B4AE00A2F0E947C79005D58
:1036A0000093FF0A00912606A02FB0E0EBEBFDE0AF
:1036B000059114913197A017B10748F0EDEBFDE0AB
:1036C000059114913197B0E00A171B0738F40FE306
:1036D0000093090B0FE300930A0B0EC04AE00A2F78
:1036E0000E947C79005D0093090B4AE00A2F0E943A
:1036F0007C79405D40930A0B00912706A02FB0E033
:10370000E1ECFDE0059114913197A017B10748F065
:10371000E3ECFDE0059114913197B0E00A171B0727
:1037200038F4E3ECFDE00591149131970395A02F57
:10373000A093130B7BC13091220620E00091230659
:1037400010E0200F311FE2ECF4E02083318300E031
:1037500000932206E2ECF4E000811181E9E7FDE04C
:103760002591349131970217130720F401E000935B
:1037700022060FC0EBE7FDE0059114913197E2ECD2
:10378000F4E0208131810217130718F401E000935F
:103790002206009122060023F9F00FE300939B0418
:1037A0000FE300939C040FE300939D0400E2009359
:1037B0009E040AEE00939F0403EC0093A00406EF1E
:1037C0000093A1040FE30093CC020FE30093CD021A
:1037D0000FE30093CE0278C0E2ECF4E000811181A7
:1037E000043620E0120730F54AE050E0E2ECF4E065
:1037F000008111810E94A879005D00939B044AE03A
:1038000050E0E2ECF4E0008111810E94A879405D73
:1038100040939C0400E200939D040AEE00939E04F2
:1038200003EC00939F0406EF0093A00400E20093D2
:10383000A1043EC044E650E0E2ECF4E000811181D6
:103840000E94A879005D00939B04E0919B04F0E046
:10385000F09744E650E08F010E949A79E2ECF4E0A0
:1038600020813181201B310B208331834AE050E0DD
:10387000E2ECF4E0008111810E94A879005D0093E0
:103880009C044AE050E0E2ECF4E0008111810E94E7
:10389000A879405D40939D0400E200939E040AEEE7
:1038A00000939F0403EC0093A00406EF0093A1048F
:1038B00000919B040093CC0200919C040093CD02E4
:1038C00000919D040093CE0201E00093030AAEC074
:1038D0000091220610E0EFE7FDE025913491319749
:1038E0000217130758F0E1E8FDE025913491319774
:1038F0000091220610E02017310738F40FE30093FF
:10390000A3040FE30093D30209C000912206005DD7
:103910000093A3040091A3040093D30201E0009359
:10392000030A84C0EDE8FDE02591349131970091C0
:10393000220610E02017310738F40FE30093A504A6
:103940000FE30093A60410C0009122064AE00E94F3
:103950007C79005D0093A504009122064AE00E9454
:103960007C79405D4093A604E3E9FDE02591349124
:1039700031970091230610E02017310738F40FE348
:10398000009301040FE30093020413C00091230687
:103990004AE00E947C79005D0093010400912306B7
:1039A0002091010420531AE0219F0019005D00932B
:1039B00002040091850B0330C9F5EDE8FDE0259187
:1039C000349131970091240610E02017310738F424
:1039D0000FE3009307040FE30093080427C000914E
:1039E00024064AE00E947C79005D00930704009160
:1039F00024062091070420531AE0219F0019005D3E
:103A00000093080413C0E7E8FDE025913491319755
:103A10000091220610E02017310720F402E0009305
:103A2000B10404C0009122060093B10401E00093A8
:103A3000070A01E00093020AE4E00C94847A20E093
:103A400001E00093070A01E00093020A0FE010E092
:103A50004091200642954F7050E0041B150B409199
:103A6000650B50E0FA01EC59F44F428150E0041725
:103A7000150709F421E0009120060F700130D9F4F8
:103A80002223C9F000912306002359F000E011E041
:103A9000E4E6FBE0078310870091220600936D0B9C
:103AA0000AC00091220610E0E4E6FBE007831087DD
:103AB00000E000936D0B009120060F700230E1F4DE
:103AC000222379F000E00031B8F410E0F801E25E62
:103AD000F94F348110E0F801EC59F44F3287039527
:103AE000F2CF00E0003140F430E010E0F801EC5992
:103AF000F44F32870395F6CF08950E94737AA02F72
:103B000000E00093750300E00093760300E000936B
:103B1000770300E00093780380E00091D50B8017D5
:103B200008F090C0482F50E00AE010E00E949A7917
:103B3000F801E355F44F0081015039F00A9529F05E
:103B40000A9539F00A9529F007C000912206902FB6
:103B500003C000912706902F482F50E00AE010E0A4
:103B60000E949A79F801E355F44F0081015039F031
:103B70000A95E9F10A9519F00A95C9F161C0092F72
:103B80000F70013040F190FB66F4B1E0482F50E037
:103B90000AE010E00E949A79F801E355F44FB183EE
:103BA0004FC091FB66F4B2E0482F50E00AE010E00D
:103BB0000E949A79F801E355F44FB18341C0B3E014
:103BC000482F50E00AE010E00E949A79F801E3558E
:103BD000F44FB18335C0B0E0482F50E00AE010E068
:103BE0000E949A79F801E355F44FB18329C0092F57
:103BF000007F0023D1F094FB66F4B1E0482F50E041
:103C00000AE010E00E949A79F801E355F44FB1837D
:103C100017C0B2E0482F50E00AE010E00E949A7905
:103C2000F801E355F44FB1830BC0B0E0482F50E0EA
:103C30000AE010E00E949A79F801E355F44FB1834D
:103C400083956BCF20E024308CF430912206422FF4
:103C500001E010E00E94A2793023332329F0022FE3
:103C600003950093750302C02395EDCFEEE1F6E0D6
:103C7000048104FF03C001E0009376030091800BF0
:103C80000130A8F000912306002389F003E000939F
:103C90007503E5E7F3E000810395008300912306B7
:103CA00006950093230600912306002391F70091C7
:103CB000800B0930A8F000912406002389F00BE066
:103CC00000937503E5E7F3E000810395008300911D
:103CD000240606950093240600912406002391F7FC
:103CE0000091800B0131A8F000912506002389F096
:103CF00003E100937503E5E7F3E00081039500839A
:103D000000912506069500932506009125060023BF
:103D100091F70091800B0931A8F00091260600234D
:103D200089F00BE100937503E5E7F3E0008103956B
:103D3000008300912606069500932606009126062C
:103D4000002391F70091850B033009F085C00091A5
:103D5000820B002309F480C020E024308CF43091E1
:103D60002706422F01E010E00E94A279302333237E
:103D700029F0022F03950093770302C02395EDCF1E
:103D8000EEE1F6E0018504FF03C001E00093780353
:103D90000091820B0130A8F000912806002389F0E1
:103DA00003E000937703E7E7F3E0008103950083E6
:103DB0000091280606950093280600912806002306
:103DC00091F70091820B0930A8F000912906002399
:103DD00089F00BE000937703E7E7F3E000810395B8
:103DE0000083009129060695009329060091290673
:103DF000002391F70091820B0131A8F000912A066F
:103E0000002389F003E100937703E7E7F3E0008103
:103E10000395008300912A06069500932A060091D7
:103E20002A06002391F70091820B0931A8F0009136
:103E30002B06002389F00BE100937703E7E7F3E01B
:103E400000810395008300912B06069500932B06B5
:103E500000912B06002391F701E00093070A01E08F
:103E60000093020AE4E00C94847A8A9300E00093C1
:103E7000640B00E00093660B81E0009122060023B2
:103E800039F400E000937E0B00E00093610317C05B
:103E900000912206013091F401E000937E0B01E0D5
:103EA000009363032091640B23952093640B03E03C
:103EB00030E0F901EC59F44F028301C080E0009139
:103EC0002306093070F400912306033051F010915D
:103ED000230604E0109F0092810B01E0009363032E
:103EE00001C080E000912406093058F400912406B6
:103EF000033039F01091240604E0109F0092820BE9
:103F000001C080E000912506093058F40091250693
:103F1000033039F01091250604E0109F0092800BC9
:103F200001C080E000912606023059F402E00093BF
:103F3000850B00E00093820B0091810B00937F0BB7
:103F40003DC0009126060330C1F503E00093850BC8
:103F50000091820B002321F400917E0B002319F0C5
:103F600001E00093640300917E0B002379F000913F
:103F7000810B002359F00091820B002339F000914E
:103F8000800B002319F001E000938A0B0091810B54
:103F90001091820B010F00937F0B0091820B002385
:103FA00069F02091640B23952093640B04E030E0CA
:103FB000F901EC59F44F028301C080E000917F0BBE
:103FC000002359F02091640B23952093640B02E0A9
:103FD00030E0F901EC59F44F02830091800B00238B
:103FE00059F02091640B23952093640B01E030E09D
:103FF000F901EC59F44F028300912706013021F4B6
:1040000001E00093840B09C000912706023021F4DF
:1040100002E00093840B01C080E00091840B01302A
:1040200021F404E00093060A03C003E00093060AAB
:104030003091280620E00091290610E0200F311F62
:10404000EAEAF2E02283338330912A0620E00091ED
:104050002B0610E0200F311FEAEAF2E024833583BB
:104060000091840B023021F401E00093AB0B13C0EC
:104070000091850B023021F402E00093AB0B0BC0E2
:104080000091850B033021F404E00093AB0B03C0D7
:1040900000E00093AB0B00E00093960B00917E0BC9
:1040A000002389F00CE015E02091960B30E0220F00
:1040B000331FF901E956F44F00831183E6E9FBE071
:1040C0000081039500830091850B0230B1F40091CB
:1040D0007F0B0130E0F104E115E02091960B30E018
:1040E000220F331FF901E956F44F00831183E6E9EB
:1040F000FBE00081039500832AC00091810B013011
:1041000088F001E315E02091960B30E0220F331F79
:10411000F901E956F44F00831183E6E9FBE00081E1
:10412000039500830091820B013088F00DE315E0C8
:104130002091960B30E0220F331FF901E956F44F1E
:1041400000831183E6E9FBE0008103950083009181
:10415000800B013088F00EE115E02091960B30E0E5
:10416000220F331FF901E956F44F00831183E6E96A
:10417000FBE00081039500830AE215E02091960B95
:1041800030E0220F331FF901E956F44F0083118309
:10419000E6E9FBE00081039500830FEF0093C90A75
:1041A0000E943E3D0E94793F0E9425400E94BA42F3
:1041B0000E9426438093860B899108959A938A934F
:1041C000802F282F2A950EE116E00E949E0C10E009
:1041D000E0ECF4E000831183E0ECF4E02081318135
:1041E00090E0FC01E35EF94F008110E020173107F9
:1041F00019F0549A579AA0C00091AE06023009F502
:1042000000E00093C6040091C6040817A0F40091D2
:10421000C60410E0F801E25EF94F20810091C60467
:1042200010E0F801EB5EFA4F2083E6ECF4E0008149
:1042300003950083E8CF03E00093AE068093AF06BA
:104240007BC00091AE06002309F076C04EE156E037
:104250002091200630E0E7EDFBE0008111810E9413
:104260008F290091200610E0007F1070005039F077
:10427000005151F0005169F0005181F045C00091AA
:1042800020060E94FA0C56C0009120060E942110C0
:1042900051C0009120060E9455114CC0009120068B
:1042A000005369F00A9571F00A9579F00A9581F04A
:1042B0000A95C1F00A50E9F00A95F9F020C00E9471
:1042C000591238C00E94C61235C00E946F1332C006
:1042D0000091840B013019F40E9481162BC00E94BA
:1042E000741828C00091840B013021F50E949318A6
:1042F00021C00091220601DC1DC0B7DD1BC000916A
:1043000020060E94B11916C000912006015C79F0C8
:104310000A9579F00F5059F00A9559F00F5039F07D
:104320000A9539F00F5019F00A9519F003C087DB90
:1043300001C085DB549A579A0E94AC2800E0009394
:10434000B006899199910895792F282E0801622F3E
:104350008FEF1FEF40E04617C0F450E0F001E40F8C
:10436000F51F0081382F3027232F30E0F901E45763
:10437000FF4F0491312F3027832F30E0F901E457AC
:10438000FE4F0491102F4395E6CF00E090E0082BFC
:10439000192B822D972F0895B80100E010912A0A59
:1043A000105019F01A9561F0089542E0421798F400
:1043B00050E0FB01E40FF51F1081010F4395F6CF8C
:1043C00040E0421740F450E0FB01E40FF51F10817C
:1043D000010F4395F6CF08959A938A93902F812FDA
:1043E000E4EDF4E00081006100839093170501E0A3
:1043F000009318058093190525E005E115E0CCDF51
:1044000010E0E7ECF4E000831183E7ECF4E00081D6
:10441000118100931A0506E00E946C2989919991F7
:1044200008959A938A93902F812FE4EDF4E0008110
:104430000061008300912A0A005019F00A95F9F0F2
:1044400049C09093170580931805282F2C5F05E12C
:1044500015E0A2DF10E0E7ECF4E000831183E7EC65
:10446000F4E000811181202F082F10E0F801EB5EAD
:10447000FA4F2483082F0B5F0E946C292BC00091F8
:10448000A8020093150590931605282F2D5F05E1CE
:1044900015E05ADFE7ECF4E000831183E7ECF4E089
:1044A00000811181202F082F10E0F801EB5EFA4FF8
:1044B0002383E7ECF4E000811181012F10E0202F2D
:1044C000082F10E0F801EB5EFA4F2483082F0B5FF2
:1044D0000E946C298991999108958A93802FE4ED27
:1044E000F4E00081006100838093170502E00093EF
:1044F000180526E005E115E04FDF10E0E7ECF4E0F9
:1045000000831183E7ECF4E00081118100931B0527
:1045100007E00E946C29899108958A93802FE4ED29
:10452000F4E00081006100830091A802009315056A
:104530000091D6040068009316058093170523E0C8
:1045400005E115E029DF10E0E7ECF4E000831183DA
:10455000E7ECF4E00081118100931805E7ECF4E04A
:1045600000811181012F10E00093190505E00E94E0
:104570006C29899108950E94737A802F0E9479296D
:1045800000FB4EF400E00093190500E000931A05CB
:1045900001EEA3DFD2C300912A0A005021F00A9550
:1045A00009F44CC1C0C30091D504053509F03BC1E5
:1045B0000091D6040A3A09F036C10091D80410E0FF
:1045C000E82FF0E035970E171F0759F00091D80437
:1045D00000931905082F055000931A0503EE7DDF9F
:1045E000ACC3282F2A9505ED14E0D6DE10E0E7ECE9
:1045F000F4E000831183E7ECF4E02081318190E066
:10460000FC01EC52FB4F008110E02017310781F0D4
:1046100090E0FC01EC52FB4F008100931905E7ECA0
:10462000F4E00081118100931A0502EE56DF85C384
:104630000091D704043729F00091D704033709F01B
:10464000C6C00091D7040437B1F54091530B50E038
:1046500008EE13E00E949A79D8014091540B50E083
:1046600004E610E00E949A79A00FB11F4091550B0B
:1046700050E00AE010E00E949A79A00FB11F00916B
:10468000560B10E0A00FB11FA055B04DECECF4E0BC
:10469000A083B183ECECF4E000811181012F10E0E4
:1046A00000931905ECECF4E00081118100931A05E8
:1046B00012E002E7B6DE0091D704033709F079C0B3
:1046C0003091D90420E00091DA0410E0200F311F6E
:1046D000ECECF4E02083318348EE53E0ECECF4E0C2
:1046E000008111810E94A879005D0093530BE09135
:1046F000530BF0E0F09748EE53E08F010E949A7957
:10470000ECECF4E020813181201B310B20833183DC
:1047100044E650E0ECECF4E0008111810E94A879BD
:10472000005D0093540BE091540BF0E0F09744E6E9
:1047300050E08F010E949A79ECECF4E02081318105
:10474000201B310B208331834AE050E0ECECF4E095
:10475000008111810E94A879005D0093550BE091C2
:10476000550BF0E0F0974AE050E08F010E949A79F3
:10477000ECECF4E020813181201B310B208331836C
:10478000ECECF4E000811181005D0093560B10E029
:1047900003E747DE01E00093A40600E010E0EAEA48
:1047A000F6E00083118303E51BE0E6EAF6E0008310
:1047B00011830FE00093A90200919A000061009319
:1047C0009A0000919A00006800939A00B6C200E037
:1047D0000093CB040091CB040817E0F40091CB04C4
:1047E00010E0F801EB52FB4F20810091CB0410E068
:1047F000F801E25AF94F208300E02091CB0430E029
:10480000F901EB52FB4F0083EBECF4E000810395E0
:104810000083E0CF8093AF0601E00093AE060FE087
:104820000093A9028AC200919A00006100939A0045
:1048300000919A00006800939A007FC20091D5040D
:104840001091A802011709F063C2282F225005ED2C
:1048500014E07ADDE7ECF4E00083118390E0FC01E2
:10486000ED52FB4F208130E090E0FC01EC52FB4F19
:10487000108100E0200F311FE9ECF4E02083318348
:10488000E7ECF4E000811181E9ECF4E02081318172
:104890000217130791F0E7ECF4E000811181009317
:1048A0001705E7ECF4E000811181012F10E000937F
:1048B000180511E00FEFB5DD30C23091D70420E0CC
:1048C0000091D80410E0200F311FEFECF4E02083BA
:1048D00031830091DA040093CE040091D604035092
:1048E00021F0035009F4E0C110C20091CE0401345C
:1048F00020F40091CE04002319F403E00EDE0DC273
:10490000EFECF4E0008111810A3F20E0120740F053
:10491000EFECF4E000811181003024E01207A8F0F0
:10492000EFECF4E0208131810091CE0410E0200F03
:10493000311F2B3F00E0300758F0EFECF4E000812E
:104940001181003024E0120718F402E0E6DDE5C131
:104950001091CE0402E0109F00921705EFECF4E0F6
:10496000008111810A3F20E0120778F500E00093F2
:10497000CB040091CB041091CE040117F0F4EFECBE
:10498000F4E0608171810091CB0410E0600F711F31
:104990001091CB0402E0109F03E0000E402D25E1B2
:1049A00035E0E7EDFBE0008111810E94E229EBECAC
:1049B000F4E0008103950083DCCF1091CE0402E087
:1049C000109F102D03E02DDDA8C1EFECF4E0008175
:1049D0001181003024E0120708F44FC0EFECF4E03E
:1049E00000811181003022E2120708F046C001E088
:1049F0000093620B20E030E0E7EDFBE000811181E5
:104A00000E94D72C4FE00091CE040E947C79009345
:104A1000610B0091610B002329F4E1E6FBE00081CA
:104A200003950083AFE0B0E0EFECF4E0008111818A
:104A3000005014404FE050E00E94A879A41BB50B31
:104A40000091CE0410E0A017B10728F4E1E6FBE0E6
:104A5000008103950083EFECF4E0008111810050A8
:104A600014404FE050E00E94A879E1EDF4E00083AB
:104A7000118302EF0093630B50C1EFECF4E000816F
:104A80001181003024E2120708F454C0EFECF4E086
:104A900000811181003022E4120708F04BC001E0D0
:104AA0000093620B20E030E0E7EDFBE00081118134
:104AB0000E94D72C4FE00091CE040E947C79009395
:104AC000610B0091610B002329F4E1E6FBE000811A
:104AD00003950083EFECF4E0008111810050144253
:104AE0004FE050E00E94A8794093D3040FE010E01B
:104AF0002091D30430E0021B130B2091CE0430E050
:104B0000021713072CF4E1E6FBE000810395008314
:104B1000EFECF4E000811181005014424FE050E0CE
:104B20000E94A879E1EDF4E00083118302EC009388
:104B3000630BF3C0EFECF4E000811181003024E45A
:104B4000120708F454C0EFECF4E00081118100304A
:104B500022E6120708F04BC001E00093620B20E050
:104B600030E0E7EDFBE0008111810E94D72C4FE09F
:104B70000091CE040E947C790093610B0091610B3F
:104B8000002329F4E1E6FBE0008103950083EFECCC
:104B9000F4E000811181005014444FE050E00E9485
:104BA000A8794093D3040FE010E02091D30430E0C3
:104BB000021B130B2091CE0430E0021713072CF4D4
:104BC000E1E6FBE0008103950083EFECF4E0008177
:104BD0001181005014444FE050E00E94A879E1EDAB
:104BE000F4E00083118302ED0093630B96C0EFECB9
:104BF000F4E000811181003024E6120708F48DC032
:104C0000EFECF4E000811181003022E8120708F097
:104C100084C001E00093620B20E030E0E7EDFBE0B0
:104C2000008111810E94D72C4FE00091CE040E9498
:104C30007C790093610B0091610B002329F4E1E67C
:104C4000FBE0008103950083EFECF4E0008111812B
:104C5000005014464FE050E00E94A8794093D304DE
:104C60000FE010E02091D30430E0021B130B2091E1
:104C7000CE0430E0021713072CF4E1E6FBE00081DC
:104C800003950083EFECF4E000811181005014469D
:104C90004FE050E00E94A879E1EDF4E00083118339
:104CA00002EE0093630B39C05091D90440E00091AB
:104CB000DA0410E0400F511FEFECF4E02081318165
:104CC000E7EDFBE0008111810E942D2A00E00093B6
:104CD000CB040091CB040630A0F40091CB0410E08B
:104CE000F801EB52FB4F20810091CB0410E0F8015A
:104CF000EB5EFA4F2083EBECF4E000810395008338
:104D0000E8CF13E006E08DDB08C001E006DC05C05B
:104D100000919A00006100939A0000919A00006847
:104D200000939A000AC000919A00006100939A00D3
:104D300000919A00006800939A000E948B29E4E099
:104D40000C94847A0FEC09B91098119A1898199A52
:104D50000EE00093950008E10AB9549A579A06B7F5
:104D60000D7F06BF07B7016007BF05E002BF04E083
:104D700003BF05E500935E060AEA00935F0605E5BA
:104D800000931E060AEA00931F060895FA93EA9319
:104D90005A934A933A932A931A930A934FB75BB75D
:104DA0001CB1012F5C9953C01091A006105039F02E
:104DB0001A9561F01A95A1F01A95C1F028C0053531
:104DC00009F045C011E01093A00641C00A3A21F451
:104DD00012E01093A0063BC010E01093A00637C06D
:104DE0000093200613E01093A00631C00093210623
:104DF0000C3320F010E01093A00603C014E01093D1
:104E0000A0061091A006100F1093A10620C02091BB
:104E1000A00630E0F901E25EF94F00831091A00690
:104E20002091A106121770F011E01093B00610E067
:104E30001093A006549857981091A10613951093BB
:104E4000B10605C0E0EAF6E01081139510835BBF60
:104E50004FBF099119912991399149915991E9913E
:104E6000F9911895FA93EA933A932A931A930A932D
:104E70002FB73BB700919E0610919F06011784F44F
:104E800000919E06102F110F110BF801E25AF94FF5
:104E900000810CB9EEE9F6E00081039500830FC0B4
:104EA0005398559800E000939F0600E000939E06FB
:104EB000549A579AEDE1F6E000810F7E00833BBFE4
:104EC0002FBF0991199129913991E991F99118957B
:104ED000BA93AA939A938A93FA93EA933A922A926C
:104EE0001A920A927A936A935A934A933A932A931C
:104EF0001A930A938FB79BB72197A89505E002BF35
:104F000000910607003F09F045C00091AE0600235E
:104F100009F040C00E94C63700931A0600911A0695
:104F200010911906011721F000911A06003FD1F4E3
:104F3000EBE1F6E0008111810F5F1F4F00831183C9
:104F4000EBE1F6E000811181013921E0120784F0E4
:104F500000E911E0EBE1F6E00083118300EF00933C
:104F6000190606C000E010E0EBE1F6E000831183D3
:104F700000911A0610911906011761F000911A06A6
:104F8000003F41F000911A060093060700911A06AF
:104F90000093190600911706053078F10091180664
:104FA000013029F0E4EDF4E0008100FF22C000911F
:104FB0009A000F7E00939A0000919A000F77009359
:104FC0009A00E4EDF4E0008108600083009114068B
:104FD0000E94BB2200E00093180600E00093140634
:104FE00000919C000883E4EDF4E000810F7E0083D3
:104FF00009C00EE10093170605C0E7E1F6E0008165
:1050000003950083E1993AC00091A4060130B1F5FF
:10501000F894EAEAF6E0008111811FBB0EBB009113
:10502000A20610E0E6EAF6E0A081B181A00FB11F70
:105030000C910DBBE29AE19A7894E2EAF6E00081E5
:1050400003950083EAEAF6E0008111810F5F1F4FAC
:10505000008311830091A20610E0A6EAB6E0ED916C
:10506000FC911197E00FF11F31970081002331F47B
:1050700000E00093A40600E00093A206E19951C06D
:105080000091A506013009F04CC0ECEAF6E0008181
:1050900011811FBB0EBBE09A2DB30091A30610E057
:1050A000E8EAF6E0A081B181A00FB11F2C93009136
:1050B000A30610E0A8EAB6E0ED91FC911197E00F8D
:1050C000F11F00810F3F61F400E02091A30630E062
:1050D000A8EAB6E0ED91FC911197E20FF31F00836F
:1050E000ECEAF6E0008111810F5F1F4F008311830E
:1050F000E3EAF6E00081039500830091A30610E047
:10510000A8EAB6E0ED91FC911197E00FF11F3197FD
:105110000081002331F400E00093A50600E0009335
:10512000A30621969BBF8FBF0991199129913991AF
:1051300049915991699179910990199029903990E3
:10514000E991F99189919991A991B9911895009353
:105150009F06539A559A089500E000931D060895FE
:1051600003E3009399008A988B9A9298939A0EE0A1
:1051700000939D0008E100939A0000919A0000615D
:1051800000939A0000919A00006800939A0005E548
:10519000009315050AEA009316050895FA93EA9319
:1051A0004A933A932A931A930A933FB74BB70091C5
:1051B0009C00202F00919B00102F14FF05C0E4EDF0
:1051C000F4E000810160008300911806002391F44F
:1051D000009117060E3170F001E00093180600E010
:1051E0000093140600E000931706E4EDF4E000815C
:1051F00000610083009118060130E9F40091170660
:105200000E31C8F400911406003430F0E4EDF4E0FF
:105210000081016000830CC00091140610E0F801C9
:10522000EB52FB4F2083E4E1F6E00081039500831D
:1052300000E0009317064BBF3FBF099119912991D8
:1052400039914991E991F9911895FA93EA933A9332
:105250002A931A930A932FB73BB700911506109122
:10526000160601178CF400911506102F110F110B63
:10527000F801EB5EFA4F008100939C00E5E1F6E057
:105280000081039500831FC000919A00077F00935F
:105290009A0000919A000F7D00939A0000E000931D
:1052A000160600E00093150600919A000061009335
:1052B0009A0000919A00006800939A00E4EDF4E0EF
:1052C00000810F7E00833BBF2FBF09911991299167
:1052D0003991E991F99118950093160610919A0069
:1052E000186010939A0010919A00106210939A001F
:1052F00008951091D404012F10919A00212F27FFB7
:1053000002C0026011E010919A00212F25FF02C017
:10531000046011E0089500E00093D40408950E9411
:10532000717AC801D9012A018D01E4E7F0E0FBBFE1
:10533000F6E10C94267AA2019D018C013CD33FC07A
:10534000A2019D018C019BD33AC0A2019D018C0159
:1053500034D435C092018C01ADD431C092018C019E
:10536000CCD42DC092018C01F7D429C092018C01BC
:105370007ED525C0A2019D018C01F4D620C045EB4D
:1053800050E092018C010E94253119C046EB50E09B
:1053900092018C010E94253112C047EB50E092012E
:1053A0008C010E9425310BC044EB50E092018C012E
:1053B0000E94253104C092018C010E943B31E6E03D
:1053C0000C94827A0E946F7AD8013901442ECB0165
:1053D000863100E0900721F423E53BE08D01B7D250
:1053E000803001E0900718F5FD01218132818C01A8
:1053F000000F111F200F311FF90100811181012FB2
:1054000010E05524F301E40DF51D0083FD01218119
:1054100032818C01000F111F200F311FF901008113
:1054200011815524F301E40DF51D01830CC00FEF2C
:105430005524F301E40DF51D00830FEF5524F3010E
:10544000E40DF51D0183E8E00C94807A222311F02D
:10545000F8012383F8010381089562E0F801638372
:10546000F80124833583F801468357830895F801B2
:10547000122F115019F01A9521F006C01085012F36
:1054800008951185012F08950FEF08950E94727AF3
:10549000D801C901FD010481158100511040065059
:1054A000104008F470C00050104009F4C2C00A5106
:1054B000104009F4F2C00350104009F4EEC003504C
:1054C000104009F4EAC00A51104008F43DC20750E8
:1054D000104008F4FCC00950104009F407C1015005
:1054E000104009F403C10150104008F44BC00450AF
:1054F000104008F40AC10050104008F443C00450A2
:10550000104008F414C100501040E0F10052104067
:1055100008F41FC106501040A8F10350104008F4D1
:105520002AC10050104070F10450104008F432C1FC
:105530000050104038F10450104008F43DC10550AF
:10554000104000F10550104008F448C100501040D0
:1055500009F453C10150104009F465C101501040D5
:1055600009F470C10D50104009F478C10150104089
:1055700009F492C10150104009F4ACC1015010402F
:1055800009F4C5C1E1C100E00C930C91063078F537
:10559000FD01018112812C9130E0220F331F020F97
:1055A000131FF80100A111A14AE050E00E94A87960
:1055B000402E429400EF4022FD01018112812C9186
:1055C00030E0220F331F020F131FF80100A111A1B9
:1055D0004AE050E00E94A879440E0C9110E0FC01D2
:1055E000E00FF11F44820C9103950C93CECFFD0187
:1055F000068117814AE050E00E94A879402E42942B
:1056000000EF4022FD01068117814AE050E00E9430
:10561000A879440EFD0104811581FC01E00FF11F02
:105620003C97408202EBFD01008706E0FD01018707
:105630008BC1FD0106811781012F10E006950695AB
:1056400006950695005D0093530BFD0106811781B9
:10565000012F10E00F70005D0093540BFD010681D7
:10566000178102950F70005D0093550BFD010681B7
:1056700017810F70005D0093560B01E00093A406A4
:1056800000E010E0EAEAF6E00083118303E51BE0A6
:10569000E6EAF6E00083118357C1FD010681178118
:1056A000023020E0120731F401E7FD01008700E03D
:1056B000FD010187FD0106811781012B09F044C11D
:1056C00000E7FD01008700E0FD0101873DC1FD010C
:1056D000048115810F5CFD01008701E0FD01018758
:1056E000FD0106811781FC0104832EC1FD010481A7
:1056F00015810F5CFD01008701E0FD010187FD01BF
:1057000006811781FC0104831FC104E9FD010087A4
:1057100002E0FD010187FD01048115810156FC01B4
:105720000483FD0106811781FC0105830DC105E994
:10573000FD01008702E0FD010187FD010481158163
:105740000556FC010483FD0106811781FC010583D8
:10575000FBC003E9FD01008702E0FD010187FD01B7
:10576000048115810956FC010483FD01068117811E
:10577000FC010583E9C0FD01048115810F5EFD0177
:10578000008701E0FD010187FD0106811781FC0111
:105790000483DAC004EAFD01008702E0FD0101870D
:1057A000FD01048115810259FC010483FD0106817C
:1057B0001781FC010583C8C005EAFD01008702E0EE
:1057C000FD010187FD01048115810659FC01048357
:1057D000FD0106811781FC010583B6C0FD0104812E
:1057E00015810B5EFD01008701E0FD010187FD01D0
:1057F00006811781FC010483A7C0FD010481158186
:105800000B5EFD01008702E0FD010187FD010681BD
:105810001781012F10E0FC010483FD01068117812F
:10582000FC01058391C0FD01048115810B5EFD0122
:10583000008701E0FD010187FD0106811781FC0160
:10584000048382C00DEBFD01008701E0FD010187AB
:10585000FD0106811781FC01048376C00AEFFD017A
:10586000008700E0FD01018700E00C930C910138F6
:1058700008F06AC00EEE1EEEFD01248535854C91C0
:1058800050E0440F551F240F351FF9010083118389
:105890000C9103950C93EACF0AECFD01008700E020
:1058A000FD01018700E00C930C91013808F04CC019
:1058B0000EEE1EEEFD01248535854C9150E0440F1F
:1058C000551F240F351FF901008311830C91039597
:1058D0000C93EACF0AEDFD01008700E0FD0101878E
:1058E00000E00C930C91013878F50EEE1EEEFD01F0
:1058F000248535854C9150E0440F551F240F351FEA
:10590000F901008311830C9103950C93EBCF0AEE00
:10591000FD01008700E0FD01018700E00C930C9180
:10592000013890F40EEE1EEEFD01248535854C9174
:1059300050E0440F551F240F351FF90100831183D8
:105940000C9103950C93EBCFE5E00C94837A5B2FDD
:105950000A2EB801F901208130E0322F20E0330F08
:10596000330F330F330F018110E000531040102F1D
:1059700000E0200F311F028110E00053104044E08E
:105980000E94A279200F311F038110E00F70107068
:10599000200F311FDB0111960D911C911297D80138
:1059A0009C962D933C939D97A02DB52F0895F801BB
:1059B0002687378708950E94717AC8012901DA0184
:1059C0008201ECEEF0E0FBBFF6E10C94267AFD01DB
:1059D000248130E0FC010181128100561F4FF80143
:1059E0002083318349C0FD01248130E02F5F3F4F88
:1059F000FC01018112810E551F4FF8012083318374
:105A00003BC0FD01248130E0FC01018112810C5575
:105A10001F4FF801208331832FC0FD01248130E026
:105A2000FC01018112810A551F4FF8012083318347
:105A300023C0FD01248130E0FC0101811281085561
:105A40001F4FF8012083318317C0FD01248130E00E
:105A5000FC010181128106551F4FF801208331831B
:105A60000BC0FD01248130E0FC010181128104554D
:105A70001F4FF80120833183E6E00C94827A0E9464
:105A8000717AD8012901CA018201E2E0F0E0FBBF8E
:105A9000F7E10C94267AFC01248130E0220F331FB9
:105AA000FD010181128100541F4FF80120833183D1
:105AB00081C0FC01448150E00AE010E00E949A7924
:105AC000FD01218132812E533F4FF9010083118363
:105AD00071C000E00C930C91FC011381011708F0D8
